{
	"TokenBank.sol": {
		"TokenBank": {
			"abi": [
				{
					"inputs": [],
					"stateMutability": "nonpayable",
					"type": "constructor"
				},
				{
					"anonymous": false,
					"inputs": [
						{
							"indexed": false,
							"internalType": "address",
							"name": "account",
							"type": "address"
						},
						{
							"indexed": false,
							"internalType": "uint256",
							"name": "value",
							"type": "uint256"
						}
					],
					"name": "Deposit",
					"type": "event"
				},
				{
					"inputs": [
						{
							"internalType": "uint256",
							"name": "value",
							"type": "uint256"
						}
					],
					"name": "deposit",
					"outputs": [],
					"stateMutability": "nonpayable",
					"type": "function"
				},
				{
					"inputs": [],
					"name": "withDraw",
					"outputs": [],
					"stateMutability": "nonpayable",
					"type": "function"
				}
			],
			"devdoc": {
				"kind": "dev",
				"methods": {},
				"version": 1
			},
			"evm": {
				"assembly": "    /* \"TokenBank.sol\":61:545  contract TokenBank {... */\n  mstore(0x40, 0x80)\n    /* \"TokenBank.sol\":228:278  constructor(){... */\n  callvalue\n  dup1\n  iszero\n  tag_1\n  jumpi\n  0x00\n  dup1\n  revert\ntag_1:\n  pop\n    /* \"TokenBank.sol\":252:257  admin */\n  0x01\n    /* \"TokenBank.sol\":252:270  admin = msg.sender */\n  dup1\n  sload\n  not(sub(shl(0xa0, 0x01), 0x01))\n  and\n    /* \"TokenBank.sol\":260:270  msg.sender */\n  caller\n    /* \"TokenBank.sol\":252:270  admin = msg.sender */\n  or\n  swap1\n  sstore\n    /* \"TokenBank.sol\":61:545  contract TokenBank {... */\n  dataSize(sub_0)\n  dup1\n  dataOffset(sub_0)\n  0x00\n  codecopy\n  0x00\n  return\nstop\n\nsub_0: assembly {\n        /* \"TokenBank.sol\":61:545  contract TokenBank {... */\n      mstore(0x40, 0x80)\n      callvalue\n      dup1\n      iszero\n      tag_1\n      jumpi\n      0x00\n      dup1\n      revert\n    tag_1:\n      pop\n      jumpi(tag_2, lt(calldatasize, 0x04))\n      shr(0xe0, calldataload(0x00))\n      dup1\n      0x0fdb1c10\n      eq\n      tag_3\n      jumpi\n      dup1\n      0xb6b55f25\n      eq\n      tag_4\n      jumpi\n    tag_2:\n      0x00\n      dup1\n      revert\n        /* \"TokenBank.sol\":454:542  function withDraw() external {... */\n    tag_3:\n      tag_5\n      tag_6\n      jump\t// in\n    tag_5:\n      stop\n        /* \"TokenBank.sol\":286:446  function deposit(uint256 value) public{... */\n    tag_4:\n      tag_5\n      tag_8\n      calldatasize\n      0x04\n      tag_9\n      jump\t// in\n    tag_8:\n      tag_10\n      jump\t// in\n        /* \"TokenBank.sol\":454:542  function withDraw() external {... */\n    tag_6:\n        /* \"TokenBank.sol\":514:519  admin */\n      and(sub(shl(0xa0, 0x01), 0x01), sload(0x01))\n        /* \"TokenBank.sol\":502:512  msg.sender */\n      caller\n        /* \"TokenBank.sol\":502:519  msg.sender==admin */\n      eq\n        /* \"TokenBank.sol\":494:520  require(msg.sender==admin) */\n      tag_12\n      jumpi\n      0x00\n      dup1\n      revert\n    tag_12:\n        /* \"TokenBank.sol\":454:542  function withDraw() external {... */\n      jump\t// out\n        /* \"TokenBank.sol\":286:446  function deposit(uint256 value) public{... */\n    tag_10:\n        /* \"TokenBank.sol\":353:363  msg.sender */\n      caller\n        /* \"TokenBank.sol\":335:350  address account */\n      0x00\n        /* \"TokenBank.sol\":374:391  _balance[account] */\n      dup2\n      dup2\n      mstore\n      0x20\n      dup2\n      dup2\n      mstore\n      0x40\n      swap2\n      dup3\n      swap1\n      keccak256\n        /* \"TokenBank.sol\":374:399  _balance[account] = value */\n      dup5\n      swap1\n      sstore\n        /* \"TokenBank.sol\":415:438  Deposit(account, value) */\n      dup2\n      mload\n        /* \"#utility.yul\":373:424   */\n      dup4\n      dup2\n      mstore\n        /* \"#utility.yul\":440:458   */\n      swap1\n      dup2\n      add\n        /* \"#utility.yul\":433:467   */\n      dup5\n      swap1\n      mstore\n        /* \"TokenBank.sol\":415:438  Deposit(account, value) */\n      0xe1fffcc4923d04b559f4d29a8bfc6cda04eb5b0d3c460751c2402c5c5cc9109c\n      swap2\n        /* \"#utility.yul\":346:364   */\n      add\n        /* \"TokenBank.sol\":415:438  Deposit(account, value) */\n      mload(0x40)\n      dup1\n      swap2\n      sub\n      swap1\n      log1\n        /* \"TokenBank.sol\":324:446  {... */\n      pop\n        /* \"TokenBank.sol\":286:446  function deposit(uint256 value) public{... */\n      pop\n      jump\t// out\n        /* \"#utility.yul\":14:194   */\n    tag_9:\n        /* \"#utility.yul\":73:79   */\n      0x00\n        /* \"#utility.yul\":126:128   */\n      0x20\n        /* \"#utility.yul\":114:123   */\n      dup3\n        /* \"#utility.yul\":105:112   */\n      dup5\n        /* \"#utility.yul\":101:124   */\n      sub\n        /* \"#utility.yul\":97:129   */\n      slt\n        /* \"#utility.yul\":94:146   */\n      iszero\n      tag_18\n      jumpi\n        /* \"#utility.yul\":142:143   */\n      0x00\n        /* \"#utility.yul\":139:140   */\n      dup1\n        /* \"#utility.yul\":132:144   */\n      revert\n        /* \"#utility.yul\":94:146   */\n    tag_18:\n      pop\n        /* \"#utility.yul\":165:188   */\n      calldataload\n      swap2\n        /* \"#utility.yul\":14:194   */\n      swap1\n      pop\n      jump\t// out\n\n    auxdata: 0xa264697066735822122019ef4b1fa82eb71dd8dbde4b75a928674fe46e1d9509075ab8c8c177efd05a8964736f6c63430008160033\n}\n",
				"bytecode": {
					"linkReferences": {},
					"object": "608060405234801561000f575f80fd5b50600180546001600160a01b0319163317905560fb8061002e5f395ff3fe6080604052348015600e575f80fd5b50600436106030575f3560e01c80630fdb1c10146034578063b6b55f2514603c575b5f80fd5b603a604b565b005b603a604736600460af565b6062565b6001546001600160a01b031633146060575f80fd5b565b335f818152602081815260409182902084905581518381529081018490527fe1fffcc4923d04b559f4d29a8bfc6cda04eb5b0d3c460751c2402c5c5cc9109c910160405180910390a15050565b5f6020828403121560be575f80fd5b503591905056fea264697066735822122019ef4b1fa82eb71dd8dbde4b75a928674fe46e1d9509075ab8c8c177efd05a8964736f6c63430008160033",
					"opcodes": "PUSH1 0x80 PUSH1 0x40 MSTORE CALLVALUE DUP1 ISZERO PUSH2 0xF JUMPI PUSH0 DUP1 REVERT JUMPDEST POP PUSH1 0x1 DUP1 SLOAD PUSH1 0x1 PUSH1 0x1 PUSH1 0xA0 SHL SUB NOT AND CALLER OR SWAP1 SSTORE PUSH1 0xFB DUP1 PUSH2 0x2E PUSH0 CODECOPY PUSH0 RETURN INVALID PUSH1 0x80 PUSH1 0x40 MSTORE CALLVALUE DUP1 ISZERO PUSH1 0xE JUMPI PUSH0 DUP1 REVERT JUMPDEST POP PUSH1 0x4 CALLDATASIZE LT PUSH1 0x30 JUMPI PUSH0 CALLDATALOAD PUSH1 0xE0 SHR DUP1 PUSH4 0xFDB1C10 EQ PUSH1 0x34 JUMPI DUP1 PUSH4 0xB6B55F25 EQ PUSH1 0x3C JUMPI JUMPDEST PUSH0 DUP1 REVERT JUMPDEST PUSH1 0x3A PUSH1 0x4B JUMP JUMPDEST STOP JUMPDEST PUSH1 0x3A PUSH1 0x47 CALLDATASIZE PUSH1 0x4 PUSH1 0xAF JUMP JUMPDEST PUSH1 0x62 JUMP JUMPDEST PUSH1 0x1 SLOAD PUSH1 0x1 PUSH1 0x1 PUSH1 0xA0 SHL SUB AND CALLER EQ PUSH1 0x60 JUMPI PUSH0 DUP1 REVERT JUMPDEST JUMP JUMPDEST CALLER PUSH0 DUP2 DUP2 MSTORE PUSH1 0x20 DUP2 DUP2 MSTORE PUSH1 0x40 SWAP2 DUP3 SWAP1 KECCAK256 DUP5 SWAP1 SSTORE DUP2 MLOAD DUP4 DUP2 MSTORE SWAP1 DUP2 ADD DUP5 SWAP1 MSTORE PUSH32 0xE1FFFCC4923D04B559F4D29A8BFC6CDA04EB5B0D3C460751C2402C5C5CC9109C SWAP2 ADD PUSH1 0x40 MLOAD DUP1 SWAP2 SUB SWAP1 LOG1 POP POP JUMP JUMPDEST PUSH0 PUSH1 0x20 DUP3 DUP5 SUB SLT ISZERO PUSH1 0xBE JUMPI PUSH0 DUP1 REVERT JUMPDEST POP CALLDATALOAD SWAP2 SWAP1 POP JUMP INVALID LOG2 PUSH5 0x6970667358 0x22 SLT KECCAK256 NOT 0xEF 0x4B 0x1F 0xA8 0x2E 0xB7 SAR 0xD8 0xDB 0xDE 0x4B PUSH22 0xA928674FE46E1D9509075AB8C8C177EFD05A8964736F PUSH13 0x63430008160033000000000000 "
				},
				"gasEstimates": {
					"creation": {
						"codeDepositCost": "50200",
						"executionCost": "24332",
						"totalCost": "74532"
					},
					"external": {
						"deposit(uint256)": "23739",
						"withDraw()": "2261"
					}
				},
				"methodIdentifiers": {
					"deposit(uint256)": "b6b55f25",
					"withDraw()": "0fdb1c10"
				}
			},
			"storageLayout": {
				"storage": [
					{
						"astId": 5,
						"contract": "TokenBank.sol:TokenBank",
						"label": "_balance",
						"offset": 0,
						"slot": "0",
						"type": "t_mapping(t_address,t_uint256)"
					},
					{
						"astId": 7,
						"contract": "TokenBank.sol:TokenBank",
						"label": "admin",
						"offset": 0,
						"slot": "1",
						"type": "t_address"
					}
				],
				"types": {
					"t_address": {
						"encoding": "inplace",
						"label": "address",
						"numberOfBytes": "20"
					},
					"t_mapping(t_address,t_uint256)": {
						"encoding": "mapping",
						"key": "t_address",
						"label": "mapping(address => uint256)",
						"numberOfBytes": "32",
						"value": "t_uint256"
					},
					"t_uint256": {
						"encoding": "inplace",
						"label": "uint256",
						"numberOfBytes": "32"
					}
				}
			},
			"userdoc": {
				"kind": "user",
				"methods": {},
				"version": 1
			}
		}
	}
}