{
	"TokenBank.sol": {
		"TokenBank": {
			"abi": [
				{
					"inputs": [
						{
							"internalType": "contract IMyToken",
							"name": "_imytoken",
							"type": "address"
						}
					],
					"stateMutability": "nonpayable",
					"type": "constructor"
				},
				{
					"anonymous": false,
					"inputs": [
						{
							"indexed": false,
							"internalType": "address",
							"name": "account",
							"type": "address"
						},
						{
							"indexed": false,
							"internalType": "uint256",
							"name": "value",
							"type": "uint256"
						}
					],
					"name": "Deposit",
					"type": "event"
				},
				{
					"anonymous": false,
					"inputs": [
						{
							"indexed": false,
							"internalType": "uint256",
							"name": "value",
							"type": "uint256"
						}
					],
					"name": "WithDraw",
					"type": "event"
				},
				{
					"inputs": [
						{
							"internalType": "uint256",
							"name": "value",
							"type": "uint256"
						}
					],
					"name": "deposit",
					"outputs": [],
					"stateMutability": "nonpayable",
					"type": "function"
				},
				{
					"inputs": [
						{
							"internalType": "address",
							"name": "account",
							"type": "address"
						}
					],
					"name": "getbalance",
					"outputs": [
						{
							"internalType": "uint256",
							"name": "",
							"type": "uint256"
						}
					],
					"stateMutability": "view",
					"type": "function"
				},
				{
					"inputs": [],
					"name": "withDraw",
					"outputs": [],
					"stateMutability": "nonpayable",
					"type": "function"
				}
			],
			"devdoc": {
				"kind": "dev",
				"methods": {},
				"version": 1
			},
			"evm": {
				"assembly": "    /* \"TokenBank.sol\":87:1062  contract TokenBank {... */\n  mstore(0x40, 0x80)\n    /* \"TokenBank.sol\":317:416  constructor(IMyToken _imytoken){... */\n  callvalue\n  dup1\n  iszero\n  tag_1\n  jumpi\n  0x00\n  dup1\n  revert\ntag_1:\n  pop\n  mload(0x40)\n  sub(codesize, bytecodeSize)\n  dup1\n  bytecodeSize\n  dup4\n  codecopy\n  dup2\n  add\n  0x40\n  dup2\n  swap1\n  mstore\n  tag_2\n  swap2\n  tag_3\n  jump\t// in\ntag_2:\n    /* \"TokenBank.sol\":359:367  imytoken */\n  0x02\n    /* \"TokenBank.sol\":359:379  imytoken = _imytoken */\n  dup1\n  sload\n  sub(shl(0xa0, 0x01), 0x01)\n  swap1\n  swap3\n  and\n  not(sub(shl(0xa0, 0x01), 0x01))\n  swap3\n  dup4\n  and\n  or\n  swap1\n  sstore\n  0x01\n    /* \"TokenBank.sol\":390:408  admin = msg.sender */\n  dup1\n  sload\n  swap1\n  swap2\n  and\n    /* \"TokenBank.sol\":398:408  msg.sender */\n  caller\n    /* \"TokenBank.sol\":390:408  admin = msg.sender */\n  or\n  swap1\n  sstore\n    /* \"TokenBank.sol\":87:1062  contract TokenBank {... */\n  jump(tag_7)\n    /* \"#utility.yul\":14:319   */\ntag_3:\n    /* \"#utility.yul\":99:105   */\n  0x00\n    /* \"#utility.yul\":152:154   */\n  0x20\n    /* \"#utility.yul\":140:149   */\n  dup3\n    /* \"#utility.yul\":131:138   */\n  dup5\n    /* \"#utility.yul\":127:150   */\n  sub\n    /* \"#utility.yul\":123:155   */\n  slt\n    /* \"#utility.yul\":120:172   */\n  iszero\n  tag_9\n  jumpi\n    /* \"#utility.yul\":168:169   */\n  0x00\n    /* \"#utility.yul\":165:166   */\n  dup1\n    /* \"#utility.yul\":158:170   */\n  revert\n    /* \"#utility.yul\":120:172   */\ntag_9:\n    /* \"#utility.yul\":194:210   */\n  dup2\n  mload\n  sub(shl(0xa0, 0x01), 0x01)\n    /* \"#utility.yul\":239:270   */\n  dup2\n  and\n    /* \"#utility.yul\":229:271   */\n  dup2\n  eq\n    /* \"#utility.yul\":219:289   */\n  tag_10\n  jumpi\n    /* \"#utility.yul\":285:286   */\n  0x00\n    /* \"#utility.yul\":282:283   */\n  dup1\n    /* \"#utility.yul\":275:287   */\n  revert\n    /* \"#utility.yul\":219:289   */\ntag_10:\n    /* \"#utility.yul\":308:313   */\n  swap4\n    /* \"#utility.yul\":14:319   */\n  swap3\n  pop\n  pop\n  pop\n  jump\t// out\ntag_7:\n    /* \"TokenBank.sol\":87:1062  contract TokenBank {... */\n  dataSize(sub_0)\n  dup1\n  dataOffset(sub_0)\n  0x00\n  codecopy\n  0x00\n  return\nstop\n\nsub_0: assembly {\n        /* \"TokenBank.sol\":87:1062  contract TokenBank {... */\n      mstore(0x40, 0x80)\n      callvalue\n      dup1\n      iszero\n      tag_1\n      jumpi\n      0x00\n      dup1\n      revert\n    tag_1:\n      pop\n      jumpi(tag_2, lt(calldatasize, 0x04))\n      shr(0xe0, calldataload(0x00))\n      dup1\n      0x0fdb1c10\n      eq\n      tag_3\n      jumpi\n      dup1\n      0x68116177\n      eq\n      tag_4\n      jumpi\n      dup1\n      0xb6b55f25\n      eq\n      tag_5\n      jumpi\n    tag_2:\n      0x00\n      dup1\n      revert\n        /* \"TokenBank.sol\":686:935  function withDraw() external {... */\n    tag_3:\n      tag_6\n      tag_7\n      jump\t// in\n    tag_6:\n      stop\n        /* \"TokenBank.sol\":943:1053  function getbalance(address account) external view returns(uint256){... */\n    tag_4:\n      tag_8\n      tag_9\n      calldatasize\n      0x04\n      tag_10\n      jump\t// in\n    tag_9:\n      sub(shl(0xa0, 0x01), 0x01)\n        /* \"TokenBank.sol\":1028:1045  _balance[account] */\n      and\n        /* \"TokenBank.sol\":1002:1009  uint256 */\n      0x00\n        /* \"TokenBank.sol\":1028:1045  _balance[account] */\n      swap1\n      dup2\n      mstore\n      0x20\n      dup2\n      swap1\n      mstore\n      0x40\n      swap1\n      keccak256\n      sload\n      swap1\n        /* \"TokenBank.sol\":943:1053  function getbalance(address account) external view returns(uint256){... */\n      jump\n    tag_8:\n      mload(0x40)\n        /* \"#utility.yul\":451:476   */\n      swap1\n      dup2\n      mstore\n        /* \"#utility.yul\":439:441   */\n      0x20\n        /* \"#utility.yul\":424:442   */\n      add\n        /* \"TokenBank.sol\":943:1053  function getbalance(address account) external view returns(uint256){... */\n      mload(0x40)\n      dup1\n      swap2\n      sub\n      swap1\n      return\n        /* \"TokenBank.sol\":424:678  function deposit(uint256 value) external {... */\n    tag_5:\n      tag_6\n      tag_15\n      calldatasize\n      0x04\n      tag_16\n      jump\t// in\n    tag_15:\n      tag_17\n      jump\t// in\n        /* \"TokenBank.sol\":686:935  function withDraw() external {... */\n    tag_7:\n        /* \"TokenBank.sol\":746:751  admin */\n      and(sub(shl(0xa0, 0x01), 0x01), sload(0x01))\n        /* \"TokenBank.sol\":734:744  msg.sender */\n      caller\n        /* \"TokenBank.sol\":734:751  msg.sender==admin */\n      eq\n        /* \"TokenBank.sol\":726:752  require(msg.sender==admin) */\n      tag_19\n      jumpi\n      0x00\n      dup1\n      revert\n    tag_19:\n        /* \"TokenBank.sol\":820:828  imytoken */\n      sload(0x02)\n        /* \"TokenBank.sol\":820:858  imytoken.transfer(msg.sender, account) */\n      mload(0x40)\n      shl(0xe0, 0xa9059cbb)\n      dup2\n      mstore\n        /* \"TokenBank.sol\":838:848  msg.sender */\n      caller\n        /* \"TokenBank.sol\":820:858  imytoken.transfer(msg.sender, account) */\n      0x04\n      dup3\n      add\n        /* \"#utility.yul\":846:897   */\n      mstore\n        /* \"TokenBank.sol\":780:801  address(this).balance */\n      selfbalance\n        /* \"#utility.yul\":913:931   */\n      0x24\n      dup3\n      add\n        /* \"#utility.yul\":906:940   */\n      dup2\n      swap1\n      mstore\n        /* \"TokenBank.sol\":780:801  address(this).balance */\n      swap2\n      sub(shl(0xa0, 0x01), 0x01)\n        /* \"TokenBank.sol\":820:828  imytoken */\n      and\n      swap1\n        /* \"TokenBank.sol\":820:837  imytoken.transfer */\n      0xa9059cbb\n      swap1\n        /* \"#utility.yul\":819:837   */\n      0x44\n      add\n        /* \"TokenBank.sol\":820:858  imytoken.transfer(msg.sender, account) */\n      0x20\n      mload(0x40)\n      dup1\n      dup4\n      sub\n      dup2\n      0x00\n      dup8\n      gas\n      call\n      iszero\n      dup1\n      iszero\n      tag_23\n      jumpi\n      returndatasize\n      0x00\n      dup1\n      returndatacopy\n      revert(0x00, returndatasize)\n    tag_23:\n      pop\n      pop\n      pop\n      pop\n      mload(0x40)\n      returndatasize\n      not(0x1f)\n      0x1f\n      dup3\n      add\n      and\n      dup3\n      add\n      dup1\n      0x40\n      mstore\n      pop\n      dup2\n      add\n      swap1\n      tag_24\n      swap2\n      swap1\n      tag_25\n      jump\t// in\n    tag_24:\n        /* \"TokenBank.sol\":812:859  require(imytoken.transfer(msg.sender, account)) */\n      tag_26\n      jumpi\n      0x00\n      dup1\n      revert\n    tag_26:\n        /* \"TokenBank.sol\":879:889  msg.sender */\n      caller\n        /* \"TokenBank.sol\":893:894  0 */\n      0x00\n        /* \"TokenBank.sol\":870:890  _balance[msg.sender] */\n      swap1\n      dup2\n      mstore\n      0x20\n      dup2\n      dup2\n      mstore\n      0x40\n      dup1\n      dup4\n      keccak256\n        /* \"TokenBank.sol\":870:894  _balance[msg.sender] = 0 */\n      swap3\n      swap1\n      swap3\n      sstore\n        /* \"TokenBank.sol\":910:927  WithDraw(account) */\n      swap1\n      mload\n        /* \"#utility.yul\":451:476   */\n      dup3\n      dup2\n      mstore\n        /* \"TokenBank.sol\":910:927  WithDraw(account) */\n      0xcbe159bbfa02836af5ba6d951958879a5d0b207331524c51ef4a58c95421e312\n      swap2\n        /* \"#utility.yul\":424:442   */\n      add\n        /* \"TokenBank.sol\":910:927  WithDraw(account) */\n      mload(0x40)\n      dup1\n      swap2\n      sub\n      swap1\n      log1\n        /* \"TokenBank.sol\":715:935  {... */\n      pop\n        /* \"TokenBank.sol\":686:935  function withDraw() external {... */\n      jump\t// out\n        /* \"TokenBank.sol\":424:678  function deposit(uint256 value) external {... */\n    tag_17:\n        /* \"TokenBank.sol\":523:531  imytoken */\n      sload(0x02)\n        /* \"TokenBank.sol\":523:575  imytoken.transferfrom(account, address(this), value) */\n      mload(0x40)\n      shl(0xe0, 0x63b0545f)\n      dup2\n      mstore\n        /* \"TokenBank.sol\":494:504  msg.sender */\n      caller\n        /* \"TokenBank.sol\":523:575  imytoken.transferfrom(account, address(this), value) */\n      0x04\n      dup3\n      add\n        /* \"#utility.yul\":1473:1507   */\n      dup2\n      swap1\n      mstore\n        /* \"TokenBank.sol\":562:566  this */\n      address\n        /* \"#utility.yul\":1523:1541   */\n      0x24\n      dup4\n      add\n        /* \"#utility.yul\":1516:1559   */\n      mstore\n        /* \"#utility.yul\":1575:1593   */\n      0x44\n      dup3\n      add\n        /* \"#utility.yul\":1568:1602   */\n      dup5\n      swap1\n      mstore\n        /* \"TokenBank.sol\":494:504  msg.sender */\n      swap2\n      sub(shl(0xa0, 0x01), 0x01)\n        /* \"TokenBank.sol\":523:531  imytoken */\n      and\n      swap1\n        /* \"TokenBank.sol\":523:544  imytoken.transferfrom */\n      0x63b0545f\n      swap1\n        /* \"#utility.yul\":1408:1426   */\n      0x64\n      add\n        /* \"TokenBank.sol\":523:575  imytoken.transferfrom(account, address(this), value) */\n      0x20\n      mload(0x40)\n      dup1\n      dup4\n      sub\n      dup2\n      0x00\n      dup8\n      gas\n      call\n      iszero\n      dup1\n      iszero\n      tag_33\n      jumpi\n      returndatasize\n      0x00\n      dup1\n      returndatacopy\n      revert(0x00, returndatasize)\n    tag_33:\n      pop\n      pop\n      pop\n      pop\n      mload(0x40)\n      returndatasize\n      not(0x1f)\n      0x1f\n      dup3\n      add\n      and\n      dup3\n      add\n      dup1\n      0x40\n      mstore\n      pop\n      dup2\n      add\n      swap1\n      tag_34\n      swap2\n      swap1\n      tag_25\n      jump\t// in\n    tag_34:\n        /* \"TokenBank.sol\":515:594  require(imytoken.transferfrom(account, address(this), value),\"transfer failed\") */\n      tag_35\n      jumpi\n      mload(0x40)\n      shl(0xe5, 0x461bcd)\n      dup2\n      mstore\n        /* \"#utility.yul\":1815:1817   */\n      0x20\n        /* \"TokenBank.sol\":515:594  require(imytoken.transferfrom(account, address(this), value),\"transfer failed\") */\n      0x04\n      dup3\n      add\n        /* \"#utility.yul\":1797:1818   */\n      mstore\n        /* \"#utility.yul\":1854:1856   */\n      0x0f\n        /* \"#utility.yul\":1834:1852   */\n      0x24\n      dup3\n      add\n        /* \"#utility.yul\":1827:1857   */\n      mstore\n      shl(0x8a, 0x1d1c985b9cd9995c8819985a5b1959)\n        /* \"#utility.yul\":1873:1891   */\n      0x44\n      dup3\n      add\n        /* \"#utility.yul\":1866:1911   */\n      mstore\n        /* \"#utility.yul\":1928:1946   */\n      0x64\n      add\n        /* \"TokenBank.sol\":515:594  require(imytoken.transferfrom(account, address(this), value),\"transfer failed\") */\n      mload(0x40)\n      dup1\n      swap2\n      sub\n      swap1\n      revert\n    tag_35:\n      sub(shl(0xa0, 0x01), 0x01)\n        /* \"TokenBank.sol\":605:622  _balance[account] */\n      dup2\n      and\n        /* \"TokenBank.sol\":605:613  _balance */\n      0x00\n        /* \"TokenBank.sol\":605:622  _balance[account] */\n      swap1\n      dup2\n      mstore\n      0x20\n      dup2\n      swap1\n      mstore\n      0x40\n      dup2\n      keccak256\n        /* \"TokenBank.sol\":605:631  _balance[account] += value */\n      dup1\n      sload\n        /* \"TokenBank.sol\":626:631  value */\n      dup5\n      swap3\n        /* \"TokenBank.sol\":605:613  _balance */\n      swap1\n        /* \"TokenBank.sol\":605:631  _balance[account] += value */\n      tag_38\n      swap1\n        /* \"TokenBank.sol\":626:631  value */\n      dup5\n      swap1\n        /* \"TokenBank.sol\":605:631  _balance[account] += value */\n      tag_39\n      jump\t// in\n    tag_38:\n      swap1\n      swap2\n      sstore\n      pop\n      pop\n        /* \"TokenBank.sol\":647:670  Deposit(account, value) */\n      0x40\n      dup1\n      mload\n      sub(shl(0xa0, 0x01), 0x01)\n        /* \"#utility.yul\":864:896   */\n      dup4\n      and\n        /* \"#utility.yul\":846:897   */\n      dup2\n      mstore\n        /* \"#utility.yul\":928:930   */\n      0x20\n        /* \"#utility.yul\":913:931   */\n      dup2\n      add\n        /* \"#utility.yul\":906:940   */\n      dup5\n      swap1\n      mstore\n        /* \"TokenBank.sol\":647:670  Deposit(account, value) */\n      0xe1fffcc4923d04b559f4d29a8bfc6cda04eb5b0d3c460751c2402c5c5cc9109c\n      swap2\n        /* \"#utility.yul\":819:837   */\n      add\n        /* \"TokenBank.sol\":647:670  Deposit(account, value) */\n      mload(0x40)\n      dup1\n      swap2\n      sub\n      swap1\n      log1\n        /* \"TokenBank.sol\":465:678  {... */\n      pop\n        /* \"TokenBank.sol\":424:678  function deposit(uint256 value) external {... */\n      pop\n      jump\t// out\n        /* \"#utility.yul\":14:300   */\n    tag_10:\n        /* \"#utility.yul\":73:79   */\n      0x00\n        /* \"#utility.yul\":126:128   */\n      0x20\n        /* \"#utility.yul\":114:123   */\n      dup3\n        /* \"#utility.yul\":105:112   */\n      dup5\n        /* \"#utility.yul\":101:124   */\n      sub\n        /* \"#utility.yul\":97:129   */\n      slt\n        /* \"#utility.yul\":94:146   */\n      iszero\n      tag_43\n      jumpi\n        /* \"#utility.yul\":142:143   */\n      0x00\n        /* \"#utility.yul\":139:140   */\n      dup1\n        /* \"#utility.yul\":132:144   */\n      revert\n        /* \"#utility.yul\":94:146   */\n    tag_43:\n        /* \"#utility.yul\":168:191   */\n      dup2\n      calldataload\n      sub(shl(0xa0, 0x01), 0x01)\n        /* \"#utility.yul\":220:251   */\n      dup2\n      and\n        /* \"#utility.yul\":210:252   */\n      dup2\n      eq\n        /* \"#utility.yul\":200:270   */\n      tag_44\n      jumpi\n        /* \"#utility.yul\":266:267   */\n      0x00\n        /* \"#utility.yul\":263:264   */\n      dup1\n        /* \"#utility.yul\":256:268   */\n      revert\n        /* \"#utility.yul\":200:270   */\n    tag_44:\n        /* \"#utility.yul\":289:294   */\n      swap4\n        /* \"#utility.yul\":14:300   */\n      swap3\n      pop\n      pop\n      pop\n      jump\t// out\n        /* \"#utility.yul\":487:667   */\n    tag_16:\n        /* \"#utility.yul\":546:552   */\n      0x00\n        /* \"#utility.yul\":599:601   */\n      0x20\n        /* \"#utility.yul\":587:596   */\n      dup3\n        /* \"#utility.yul\":578:585   */\n      dup5\n        /* \"#utility.yul\":574:597   */\n      sub\n        /* \"#utility.yul\":570:602   */\n      slt\n        /* \"#utility.yul\":567:619   */\n      iszero\n      tag_47\n      jumpi\n        /* \"#utility.yul\":615:616   */\n      0x00\n        /* \"#utility.yul\":612:613   */\n      dup1\n        /* \"#utility.yul\":605:617   */\n      revert\n        /* \"#utility.yul\":567:619   */\n    tag_47:\n      pop\n        /* \"#utility.yul\":638:661   */\n      calldataload\n      swap2\n        /* \"#utility.yul\":487:667   */\n      swap1\n      pop\n      jump\t// out\n        /* \"#utility.yul\":951:1228   */\n    tag_25:\n        /* \"#utility.yul\":1018:1024   */\n      0x00\n        /* \"#utility.yul\":1071:1073   */\n      0x20\n        /* \"#utility.yul\":1059:1068   */\n      dup3\n        /* \"#utility.yul\":1050:1057   */\n      dup5\n        /* \"#utility.yul\":1046:1069   */\n      sub\n        /* \"#utility.yul\":1042:1074   */\n      slt\n        /* \"#utility.yul\":1039:1091   */\n      iszero\n      tag_50\n      jumpi\n        /* \"#utility.yul\":1087:1088   */\n      0x00\n        /* \"#utility.yul\":1084:1085   */\n      dup1\n        /* \"#utility.yul\":1077:1089   */\n      revert\n        /* \"#utility.yul\":1039:1091   */\n    tag_50:\n        /* \"#utility.yul\":1119:1128   */\n      dup2\n        /* \"#utility.yul\":1113:1129   */\n      mload\n        /* \"#utility.yul\":1172:1177   */\n      dup1\n        /* \"#utility.yul\":1165:1178   */\n      iszero\n        /* \"#utility.yul\":1158:1179   */\n      iszero\n        /* \"#utility.yul\":1151:1156   */\n      dup2\n        /* \"#utility.yul\":1148:1180   */\n      eq\n        /* \"#utility.yul\":1138:1198   */\n      tag_44\n      jumpi\n        /* \"#utility.yul\":1194:1195   */\n      0x00\n        /* \"#utility.yul\":1191:1192   */\n      dup1\n        /* \"#utility.yul\":1184:1196   */\n      revert\n        /* \"#utility.yul\":1957:2179   */\n    tag_39:\n        /* \"#utility.yul\":2022:2031   */\n      dup1\n      dup3\n      add\n        /* \"#utility.yul\":2043:2053   */\n      dup1\n      dup3\n      gt\n        /* \"#utility.yul\":2040:2173   */\n      iszero\n      tag_55\n      jumpi\n        /* \"#utility.yul\":2095:2105   */\n      0x4e487b71\n        /* \"#utility.yul\":2090:2093   */\n      0xe0\n        /* \"#utility.yul\":2086:2106   */\n      shl\n        /* \"#utility.yul\":2083:2084   */\n      0x00\n        /* \"#utility.yul\":2076:2107   */\n      mstore\n        /* \"#utility.yul\":2130:2134   */\n      0x11\n        /* \"#utility.yul\":2127:2128   */\n      0x04\n        /* \"#utility.yul\":2120:2135   */\n      mstore\n        /* \"#utility.yul\":2158:2162   */\n      0x24\n        /* \"#utility.yul\":2155:2156   */\n      0x00\n        /* \"#utility.yul\":2148:2163   */\n      revert\n        /* \"#utility.yul\":2040:2173   */\n    tag_55:\n        /* \"#utility.yul\":1957:2179   */\n      swap3\n      swap2\n      pop\n      pop\n      jump\t// out\n\n    auxdata: 0xa2646970667358221220b324fbf0c6b1a50999d1447f60dc2a063f3b632e71fa6b2365412fca1533cb8264736f6c63430008160033\n}\n",
				"bytecode": {
					"linkReferences": {},
					"object": "608060405234801561000f575f80fd5b506040516103f13803806103f183398101604081905261002e9161005c565b600280546001600160a01b039092166001600160a01b03199283161790556001805490911633179055610089565b5f6020828403121561006c575f80fd5b81516001600160a01b0381168114610082575f80fd5b9392505050565b61035b806100965f395ff3fe608060405234801561000f575f80fd5b506004361061003f575f3560e01c80630fdb1c1014610043578063681161771461004d578063b6b55f2514610087575b5f80fd5b61004b61009a565b005b61007561005b36600461029d565b6001600160a01b03165f9081526020819052604090205490565b60405190815260200160405180910390f35b61004b6100953660046102ca565b610170565b6001546001600160a01b031633146100b0575f80fd5b60025460405163a9059cbb60e01b81523360048201524760248201819052916001600160a01b03169063a9059cbb906044016020604051808303815f875af11580156100fe573d5f803e3d5ffd5b505050506040513d601f19601f8201168201806040525081019061012291906102e1565b61012a575f80fd5b335f908152602081815260408083209290925590518281527fcbe159bbfa02836af5ba6d951958879a5d0b207331524c51ef4a58c95421e312910160405180910390a150565b6002546040516363b0545f60e01b8152336004820181905230602483015260448201849052916001600160a01b0316906363b0545f906064016020604051808303815f875af11580156101c5573d5f803e3d5ffd5b505050506040513d601f19601f820116820180604052508101906101e991906102e1565b61022b5760405162461bcd60e51b815260206004820152600f60248201526e1d1c985b9cd9995c8819985a5b1959608a1b604482015260640160405180910390fd5b6001600160a01b0381165f9081526020819052604081208054849290610252908490610300565b9091555050604080516001600160a01b0383168152602081018490527fe1fffcc4923d04b559f4d29a8bfc6cda04eb5b0d3c460751c2402c5c5cc9109c910160405180910390a15050565b5f602082840312156102ad575f80fd5b81356001600160a01b03811681146102c3575f80fd5b9392505050565b5f602082840312156102da575f80fd5b5035919050565b5f602082840312156102f1575f80fd5b815180151581146102c3575f80fd5b8082018082111561031f57634e487b7160e01b5f52601160045260245ffd5b9291505056fea2646970667358221220b324fbf0c6b1a50999d1447f60dc2a063f3b632e71fa6b2365412fca1533cb8264736f6c63430008160033",
					"opcodes": "PUSH1 0x80 PUSH1 0x40 MSTORE CALLVALUE DUP1 ISZERO PUSH2 0xF JUMPI PUSH0 DUP1 REVERT JUMPDEST POP PUSH1 0x40 MLOAD PUSH2 0x3F1 CODESIZE SUB DUP1 PUSH2 0x3F1 DUP4 CODECOPY DUP2 ADD PUSH1 0x40 DUP2 SWAP1 MSTORE PUSH2 0x2E SWAP2 PUSH2 0x5C JUMP JUMPDEST PUSH1 0x2 DUP1 SLOAD PUSH1 0x1 PUSH1 0x1 PUSH1 0xA0 SHL SUB SWAP1 SWAP3 AND PUSH1 0x1 PUSH1 0x1 PUSH1 0xA0 SHL SUB NOT SWAP3 DUP4 AND OR SWAP1 SSTORE PUSH1 0x1 DUP1 SLOAD SWAP1 SWAP2 AND CALLER OR SWAP1 SSTORE PUSH2 0x89 JUMP JUMPDEST PUSH0 PUSH1 0x20 DUP3 DUP5 SUB SLT ISZERO PUSH2 0x6C JUMPI PUSH0 DUP1 REVERT JUMPDEST DUP2 MLOAD PUSH1 0x1 PUSH1 0x1 PUSH1 0xA0 SHL SUB DUP2 AND DUP2 EQ PUSH2 0x82 JUMPI PUSH0 DUP1 REVERT JUMPDEST SWAP4 SWAP3 POP POP POP JUMP JUMPDEST PUSH2 0x35B DUP1 PUSH2 0x96 PUSH0 CODECOPY PUSH0 RETURN INVALID PUSH1 0x80 PUSH1 0x40 MSTORE CALLVALUE DUP1 ISZERO PUSH2 0xF JUMPI PUSH0 DUP1 REVERT JUMPDEST POP PUSH1 0x4 CALLDATASIZE LT PUSH2 0x3F JUMPI PUSH0 CALLDATALOAD PUSH1 0xE0 SHR DUP1 PUSH4 0xFDB1C10 EQ PUSH2 0x43 JUMPI DUP1 PUSH4 0x68116177 EQ PUSH2 0x4D JUMPI DUP1 PUSH4 0xB6B55F25 EQ PUSH2 0x87 JUMPI JUMPDEST PUSH0 DUP1 REVERT JUMPDEST PUSH2 0x4B PUSH2 0x9A JUMP JUMPDEST STOP JUMPDEST PUSH2 0x75 PUSH2 0x5B CALLDATASIZE PUSH1 0x4 PUSH2 0x29D JUMP JUMPDEST PUSH1 0x1 PUSH1 0x1 PUSH1 0xA0 SHL SUB AND PUSH0 SWAP1 DUP2 MSTORE PUSH1 0x20 DUP2 SWAP1 MSTORE PUSH1 0x40 SWAP1 KECCAK256 SLOAD SWAP1 JUMP JUMPDEST PUSH1 0x40 MLOAD SWAP1 DUP2 MSTORE PUSH1 0x20 ADD PUSH1 0x40 MLOAD DUP1 SWAP2 SUB SWAP1 RETURN JUMPDEST PUSH2 0x4B PUSH2 0x95 CALLDATASIZE PUSH1 0x4 PUSH2 0x2CA JUMP JUMPDEST PUSH2 0x170 JUMP JUMPDEST PUSH1 0x1 SLOAD PUSH1 0x1 PUSH1 0x1 PUSH1 0xA0 SHL SUB AND CALLER EQ PUSH2 0xB0 JUMPI PUSH0 DUP1 REVERT JUMPDEST PUSH1 0x2 SLOAD PUSH1 0x40 MLOAD PUSH4 0xA9059CBB PUSH1 0xE0 SHL DUP2 MSTORE CALLER PUSH1 0x4 DUP3 ADD MSTORE SELFBALANCE PUSH1 0x24 DUP3 ADD DUP2 SWAP1 MSTORE SWAP2 PUSH1 0x1 PUSH1 0x1 PUSH1 0xA0 SHL SUB AND SWAP1 PUSH4 0xA9059CBB SWAP1 PUSH1 0x44 ADD PUSH1 0x20 PUSH1 0x40 MLOAD DUP1 DUP4 SUB DUP2 PUSH0 DUP8 GAS CALL ISZERO DUP1 ISZERO PUSH2 0xFE JUMPI RETURNDATASIZE PUSH0 DUP1 RETURNDATACOPY RETURNDATASIZE PUSH0 REVERT JUMPDEST POP POP POP POP PUSH1 0x40 MLOAD RETURNDATASIZE PUSH1 0x1F NOT PUSH1 0x1F DUP3 ADD AND DUP3 ADD DUP1 PUSH1 0x40 MSTORE POP DUP2 ADD SWAP1 PUSH2 0x122 SWAP2 SWAP1 PUSH2 0x2E1 JUMP JUMPDEST PUSH2 0x12A JUMPI PUSH0 DUP1 REVERT JUMPDEST CALLER PUSH0 SWAP1 DUP2 MSTORE PUSH1 0x20 DUP2 DUP2 MSTORE PUSH1 0x40 DUP1 DUP4 KECCAK256 SWAP3 SWAP1 SWAP3 SSTORE SWAP1 MLOAD DUP3 DUP2 MSTORE PUSH32 0xCBE159BBFA02836AF5BA6D951958879A5D0B207331524C51EF4A58C95421E312 SWAP2 ADD PUSH1 0x40 MLOAD DUP1 SWAP2 SUB SWAP1 LOG1 POP JUMP JUMPDEST PUSH1 0x2 SLOAD PUSH1 0x40 MLOAD PUSH4 0x63B0545F PUSH1 0xE0 SHL DUP2 MSTORE CALLER PUSH1 0x4 DUP3 ADD DUP2 SWAP1 MSTORE ADDRESS PUSH1 0x24 DUP4 ADD MSTORE PUSH1 0x44 DUP3 ADD DUP5 SWAP1 MSTORE SWAP2 PUSH1 0x1 PUSH1 0x1 PUSH1 0xA0 SHL SUB AND SWAP1 PUSH4 0x63B0545F SWAP1 PUSH1 0x64 ADD PUSH1 0x20 PUSH1 0x40 MLOAD DUP1 DUP4 SUB DUP2 PUSH0 DUP8 GAS CALL ISZERO DUP1 ISZERO PUSH2 0x1C5 JUMPI RETURNDATASIZE PUSH0 DUP1 RETURNDATACOPY RETURNDATASIZE PUSH0 REVERT JUMPDEST POP POP POP POP PUSH1 0x40 MLOAD RETURNDATASIZE PUSH1 0x1F NOT PUSH1 0x1F DUP3 ADD AND DUP3 ADD DUP1 PUSH1 0x40 MSTORE POP DUP2 ADD SWAP1 PUSH2 0x1E9 SWAP2 SWAP1 PUSH2 0x2E1 JUMP JUMPDEST PUSH2 0x22B JUMPI PUSH1 0x40 MLOAD PUSH3 0x461BCD PUSH1 0xE5 SHL DUP2 MSTORE PUSH1 0x20 PUSH1 0x4 DUP3 ADD MSTORE PUSH1 0xF PUSH1 0x24 DUP3 ADD MSTORE PUSH15 0x1D1C985B9CD9995C8819985A5B1959 PUSH1 0x8A SHL PUSH1 0x44 DUP3 ADD MSTORE PUSH1 0x64 ADD PUSH1 0x40 MLOAD DUP1 SWAP2 SUB SWAP1 REVERT JUMPDEST PUSH1 0x1 PUSH1 0x1 PUSH1 0xA0 SHL SUB DUP2 AND PUSH0 SWAP1 DUP2 MSTORE PUSH1 0x20 DUP2 SWAP1 MSTORE PUSH1 0x40 DUP2 KECCAK256 DUP1 SLOAD DUP5 SWAP3 SWAP1 PUSH2 0x252 SWAP1 DUP5 SWAP1 PUSH2 0x300 JUMP JUMPDEST SWAP1 SWAP2 SSTORE POP POP PUSH1 0x40 DUP1 MLOAD PUSH1 0x1 PUSH1 0x1 PUSH1 0xA0 SHL SUB DUP4 AND DUP2 MSTORE PUSH1 0x20 DUP2 ADD DUP5 SWAP1 MSTORE PUSH32 0xE1FFFCC4923D04B559F4D29A8BFC6CDA04EB5B0D3C460751C2402C5C5CC9109C SWAP2 ADD PUSH1 0x40 MLOAD DUP1 SWAP2 SUB SWAP1 LOG1 POP POP JUMP JUMPDEST PUSH0 PUSH1 0x20 DUP3 DUP5 SUB SLT ISZERO PUSH2 0x2AD JUMPI PUSH0 DUP1 REVERT JUMPDEST DUP2 CALLDATALOAD PUSH1 0x1 PUSH1 0x1 PUSH1 0xA0 SHL SUB DUP2 AND DUP2 EQ PUSH2 0x2C3 JUMPI PUSH0 DUP1 REVERT JUMPDEST SWAP4 SWAP3 POP POP POP JUMP JUMPDEST PUSH0 PUSH1 0x20 DUP3 DUP5 SUB SLT ISZERO PUSH2 0x2DA JUMPI PUSH0 DUP1 REVERT JUMPDEST POP CALLDATALOAD SWAP2 SWAP1 POP JUMP JUMPDEST PUSH0 PUSH1 0x20 DUP3 DUP5 SUB SLT ISZERO PUSH2 0x2F1 JUMPI PUSH0 DUP1 REVERT JUMPDEST DUP2 MLOAD DUP1 ISZERO ISZERO DUP2 EQ PUSH2 0x2C3 JUMPI PUSH0 DUP1 REVERT JUMPDEST DUP1 DUP3 ADD DUP1 DUP3 GT ISZERO PUSH2 0x31F JUMPI PUSH4 0x4E487B71 PUSH1 0xE0 SHL PUSH0 MSTORE PUSH1 0x11 PUSH1 0x4 MSTORE PUSH1 0x24 PUSH0 REVERT JUMPDEST SWAP3 SWAP2 POP POP JUMP INVALID LOG2 PUSH5 0x6970667358 0x22 SLT KECCAK256 0xB3 0x24 0xFB CREATE 0xC6 0xB1 0xA5 MULMOD SWAP10 0xD1 PREVRANDAO PUSH32 0x60DC2A063F3B632E71FA6B2365412FCA1533CB8264736F6C6343000816003300 "
				},
				"gasEstimates": {
					"creation": {
						"codeDepositCost": "171800",
						"executionCost": "infinite",
						"totalCost": "infinite"
					},
					"external": {
						"deposit(uint256)": "infinite",
						"getbalance(address)": "2490",
						"withDraw()": "infinite"
					}
				},
				"methodIdentifiers": {
					"deposit(uint256)": "b6b55f25",
					"getbalance(address)": "68116177",
					"withDraw()": "0fdb1c10"
				}
			},
			"storageLayout": {
				"storage": [
					{
						"astId": 75,
						"contract": "TokenBank.sol:TokenBank",
						"label": "_balance",
						"offset": 0,
						"slot": "0",
						"type": "t_mapping(t_address,t_uint256)"
					},
					{
						"astId": 77,
						"contract": "TokenBank.sol:TokenBank",
						"label": "admin",
						"offset": 0,
						"slot": "1",
						"type": "t_address"
					},
					{
						"astId": 80,
						"contract": "TokenBank.sol:TokenBank",
						"label": "imytoken",
						"offset": 0,
						"slot": "2",
						"type": "t_contract(IMyToken)68"
					}
				],
				"types": {
					"t_address": {
						"encoding": "inplace",
						"label": "address",
						"numberOfBytes": "20"
					},
					"t_contract(IMyToken)68": {
						"encoding": "inplace",
						"label": "contract IMyToken",
						"numberOfBytes": "20"
					},
					"t_mapping(t_address,t_uint256)": {
						"encoding": "mapping",
						"key": "t_address",
						"label": "mapping(address => uint256)",
						"numberOfBytes": "32",
						"value": "t_uint256"
					},
					"t_uint256": {
						"encoding": "inplace",
						"label": "uint256",
						"numberOfBytes": "32"
					}
				}
			},
			"userdoc": {
				"kind": "user",
				"methods": {},
				"version": 1
			}
		}
	}
}