{
	"MyERC20.sol": {
		"MTK": {
			"abi": [
				{
					"inputs": [],
					"stateMutability": "nonpayable",
					"type": "constructor"
				},
				{
					"anonymous": false,
					"inputs": [
						{
							"indexed": true,
							"internalType": "address",
							"name": "owner",
							"type": "address"
						},
						{
							"indexed": true,
							"internalType": "address",
							"name": "spender",
							"type": "address"
						},
						{
							"indexed": false,
							"internalType": "uint256",
							"name": "value",
							"type": "uint256"
						}
					],
					"name": "Approve",
					"type": "event"
				},
				{
					"anonymous": false,
					"inputs": [
						{
							"indexed": true,
							"internalType": "address",
							"name": "from",
							"type": "address"
						},
						{
							"indexed": true,
							"internalType": "address",
							"name": "to",
							"type": "address"
						},
						{
							"indexed": false,
							"internalType": "uint256",
							"name": "value",
							"type": "uint256"
						}
					],
					"name": "Transfer",
					"type": "event"
				},
				{
					"inputs": [
						{
							"internalType": "address",
							"name": "owner",
							"type": "address"
						},
						{
							"internalType": "address",
							"name": "spender",
							"type": "address"
						}
					],
					"name": "allowance",
					"outputs": [
						{
							"internalType": "uint256",
							"name": "",
							"type": "uint256"
						}
					],
					"stateMutability": "nonpayable",
					"type": "function"
				},
				{
					"inputs": [
						{
							"internalType": "address",
							"name": "spender",
							"type": "address"
						},
						{
							"internalType": "uint256",
							"name": "value",
							"type": "uint256"
						}
					],
					"name": "approve",
					"outputs": [
						{
							"internalType": "bool",
							"name": "",
							"type": "bool"
						}
					],
					"stateMutability": "nonpayable",
					"type": "function"
				},
				{
					"inputs": [
						{
							"internalType": "address",
							"name": "account",
							"type": "address"
						}
					],
					"name": "balanceOf",
					"outputs": [
						{
							"internalType": "uint256",
							"name": "",
							"type": "uint256"
						}
					],
					"stateMutability": "view",
					"type": "function"
				},
				{
					"inputs": [],
					"name": "decimals",
					"outputs": [
						{
							"internalType": "uint8",
							"name": "",
							"type": "uint8"
						}
					],
					"stateMutability": "view",
					"type": "function"
				},
				{
					"inputs": [],
					"name": "name",
					"outputs": [
						{
							"internalType": "string",
							"name": "",
							"type": "string"
						}
					],
					"stateMutability": "view",
					"type": "function"
				},
				{
					"inputs": [],
					"name": "totalSupply",
					"outputs": [
						{
							"internalType": "uint256",
							"name": "",
							"type": "uint256"
						}
					],
					"stateMutability": "view",
					"type": "function"
				},
				{
					"inputs": [
						{
							"internalType": "address",
							"name": "to",
							"type": "address"
						},
						{
							"internalType": "uint256",
							"name": "value",
							"type": "uint256"
						}
					],
					"name": "transfer",
					"outputs": [
						{
							"internalType": "bool",
							"name": "",
							"type": "bool"
						}
					],
					"stateMutability": "nonpayable",
					"type": "function"
				},
				{
					"inputs": [
						{
							"internalType": "address",
							"name": "from",
							"type": "address"
						},
						{
							"internalType": "address",
							"name": "to",
							"type": "address"
						},
						{
							"internalType": "uint256",
							"name": "value",
							"type": "uint256"
						}
					],
					"name": "transferfrom",
					"outputs": [
						{
							"internalType": "bool",
							"name": "",
							"type": "bool"
						}
					],
					"stateMutability": "nonpayable",
					"type": "function"
				}
			],
			"devdoc": {
				"kind": "dev",
				"methods": {},
				"version": 1
			},
			"evm": {
				"assembly": "    /* \"MyERC20.sol\":88:228  contract MTK is MyToken {... */\n  mstore(0x40, 0x80)\n    /* \"MyERC20.sol\":119:225  constructor() MyToken(\"MyToken\", \"MTK\") {... */\n  callvalue\n  dup1\n  iszero\n  tag_1\n  jumpi\n  0x00\n  dup1\n  revert\ntag_1:\n  pop\n    /* \"MyToken.sol\":525:631  constructor(string memory name,string memory symbol){... */\n  mload(0x40)\n  dup1\n  0x40\n  add\n  0x40\n  mstore\n  dup1\n  0x07\n  dup2\n  mstore\n  0x20\n  add\n  shl(0xc9, 0x26bcaa37b5b2b7)\n  dup2\n  mstore\n  pop\n  mload(0x40)\n  dup1\n  0x40\n  add\n  0x40\n  mstore\n  dup1\n  0x03\n  dup2\n  mstore\n  0x20\n  add\n  shl(0xe8, 0x4d544b)\n  dup2\n  mstore\n  pop\n    /* \"MyToken.sol\":594:598  name */\n  dup2\n    /* \"MyToken.sol\":588:593  _name */\n  0x03\n    /* \"MyToken.sol\":588:598  _name=name */\n  swap1\n  dup2\n  tag_5\n  swap2\n  swap1\n  tag_6\n  jump\t// in\ntag_5:\n  pop\n    /* \"MyToken.sol\":609:616  _symbol */\n  0x04\n    /* \"MyToken.sol\":609:623  _symbol=symbol */\n  tag_7\n    /* \"MyToken.sol\":617:623  symbol */\n  dup3\n    /* \"MyToken.sol\":609:616  _symbol */\n  dup3\n    /* \"MyToken.sol\":609:623  _symbol=symbol */\n  tag_6\n  jump\t// in\ntag_7:\n  pop\n    /* \"MyToken.sol\":525:631  constructor(string memory name,string memory symbol){... */\n  pop\n  pop\n    /* \"MyERC20.sol\":169:217  _mint(msg.sender, 1 * 10 ** 8 * 10 **decimals()) */\n  tag_9\n    /* \"MyERC20.sol\":175:185  msg.sender */\n  caller\n    /* \"MyERC20.sol\":206:216  decimals() */\n  tag_10\n    /* \"MyERC20.sol\":206:214  decimals */\n  shl(0x20, tag_11)\n    /* \"MyERC20.sol\":206:216  decimals() */\n  0x20\n  shr\n  jump\t// in\ntag_10:\n    /* \"MyERC20.sol\":201:216  10 **decimals() */\n  tag_12\n  swap1\n    /* \"MyERC20.sol\":201:203  10 */\n  0x0a\n    /* \"MyERC20.sol\":201:216  10 **decimals() */\n  tag_13\n  jump\t// in\ntag_12:\n    /* \"MyERC20.sol\":187:216  1 * 10 ** 8 * 10 **decimals() */\n  tag_14\n  swap1\n    /* \"MyERC20.sol\":187:198  1 * 10 ** 8 */\n  0x05f5e100\n    /* \"MyERC20.sol\":187:216  1 * 10 ** 8 * 10 **decimals() */\n  tag_15\n  jump\t// in\ntag_14:\n    /* \"MyERC20.sol\":169:174  _mint */\n  tag_16\n    /* \"MyERC20.sol\":169:217  _mint(msg.sender, 1 * 10 ** 8 * 10 **decimals()) */\n  jump\t// in\ntag_9:\n    /* \"MyERC20.sol\":88:228  contract MTK is MyToken {... */\n  jump(tag_45)\n    /* \"MyToken.sol\":1072:1156  function decimals() public view virtual returns (uint8) {... */\ntag_11:\n    /* \"MyToken.sol\":1146:1148  18 */\n  0x12\n  swap1\n    /* \"MyToken.sol\":1072:1156  function decimals() public view virtual returns (uint8) {... */\n  jump\t// out\n    /* \"MyToken.sol\":3159:3268  function _mint(address account,uint256 value) internal {... */\ntag_16:\n    /* \"MyToken.sol\":3225:3260  _updata(address(0), account, value) */\n  tag_20\n    /* \"MyToken.sol\":3241:3242  0 */\n  0x00\n    /* \"MyToken.sol\":3245:3252  account */\n  dup4\n    /* \"MyToken.sol\":3254:3259  value */\n  dup4\n    /* \"MyToken.sol\":3225:3232  _updata */\n  tag_21\n    /* \"MyToken.sol\":3225:3260  _updata(address(0), account, value) */\n  jump\t// in\ntag_20:\n    /* \"MyToken.sol\":3159:3268  function _mint(address account,uint256 value) internal {... */\n  pop\n  pop\n  jump\t// out\n    /* \"MyToken.sol\":3276:3841  function _updata(address from ,address to,uint256 value) internal virtual {... */\ntag_21:\n  sub(shl(0xa0, 0x01), 0x01)\n    /* \"MyToken.sol\":3364:3380  from==address(0) */\n  dup4\n  and\n    /* \"MyToken.sol\":3361:3657  if(from==address(0)){... */\n  tag_23\n  jumpi\n    /* \"MyToken.sol\":3410:3415  value */\n  dup1\n    /* \"MyToken.sol\":3396:3408  _totalSupply */\n  0x02\n  0x00\n    /* \"MyToken.sol\":3396:3415  _totalSupply+=value */\n  dup3\n  dup3\n  sload\n  tag_24\n  swap2\n  swap1\n  tag_25\n  jump\t// in\ntag_24:\n  swap1\n  swap2\n  sstore\n  pop\n    /* \"MyToken.sol\":3361:3657  if(from==address(0)){... */\n  tag_26\n  swap1\n  pop\n  jump\ntag_23:\n  sub(shl(0xa0, 0x01), 0x01)\n    /* \"MyToken.sol\":3468:3483  _balances[from] */\n  dup4\n  and\n    /* \"MyToken.sol\":3446:3465  uint256 frombalance */\n  0x00\n    /* \"MyToken.sol\":3468:3483  _balances[from] */\n  swap1\n  dup2\n  mstore\n  0x20\n  dup2\n  swap1\n  mstore\n  0x40\n  swap1\n  keccak256\n  sload\n    /* \"MyToken.sol\":3501:3518  frombalance<value */\n  dup2\n  dup2\n  lt\n    /* \"MyToken.sol\":3498:3644  if(frombalance<value){... */\n  iszero\n  tag_27\n  jumpi\n    /* \"MyToken.sol\":3538:3546  revert() */\n  0x00\n  dup1\n  revert\n    /* \"MyToken.sol\":3498:3644  if(frombalance<value){... */\ntag_27:\n    /* \"MyToken.sol\":3611:3628  frombalance-value */\n  tag_29\n    /* \"MyToken.sol\":3623:3628  value */\n  dup3\n    /* \"MyToken.sol\":3611:3622  frombalance */\n  dup3\n    /* \"MyToken.sol\":3611:3628  frombalance-value */\n  tag_30\n  jump\t// in\ntag_29:\n  sub(shl(0xa0, 0x01), 0x01)\n    /* \"MyToken.sol\":3595:3610  _balances[from] */\n  dup6\n  and\n    /* \"MyToken.sol\":3595:3604  _balances */\n  0x00\n    /* \"MyToken.sol\":3595:3610  _balances[from] */\n  swap1\n  dup2\n  mstore\n  0x20\n  dup2\n  swap1\n  mstore\n  0x40\n  swap1\n  keccak256\n    /* \"MyToken.sol\":3595:3628  _balances[from]=frombalance-value */\n  sstore\n    /* \"MyToken.sol\":3431:3657  {... */\n  pop\n    /* \"MyToken.sol\":3361:3657  if(from==address(0)){... */\ntag_26:\n  sub(shl(0xa0, 0x01), 0x01)\n    /* \"MyToken.sol\":3680:3694  to==address(0) */\n  dup3\n  and\n    /* \"MyToken.sol\":3677:3793  if(to==address(0)){... */\n  tag_31\n  jumpi\n    /* \"MyToken.sol\":3724:3729  value */\n  dup1\n    /* \"MyToken.sol\":3710:3722  _totalSupply */\n  0x02\n  0x00\n    /* \"MyToken.sol\":3710:3729  _totalSupply-=value */\n  dup3\n  dup3\n  sload\n  tag_32\n  swap2\n  swap1\n  tag_30\n  jump\t// in\ntag_32:\n  swap1\n  swap2\n  sstore\n  pop\n    /* \"MyToken.sol\":3677:3793  if(to==address(0)){... */\n  tag_33\n  swap1\n  pop\n  jump\ntag_31:\n  sub(shl(0xa0, 0x01), 0x01)\n    /* \"MyToken.sol\":3761:3774  _balances[to] */\n  dup3\n  and\n    /* \"MyToken.sol\":3761:3770  _balances */\n  0x00\n    /* \"MyToken.sol\":3761:3774  _balances[to] */\n  swap1\n  dup2\n  mstore\n  0x20\n  dup2\n  swap1\n  mstore\n  0x40\n  dup2\n  keccak256\n    /* \"MyToken.sol\":3761:3781  _balances[to]+=value */\n  dup1\n  sload\n    /* \"MyToken.sol\":3776:3781  value */\n  dup4\n  swap3\n    /* \"MyToken.sol\":3761:3770  _balances */\n  swap1\n    /* \"MyToken.sol\":3761:3781  _balances[to]+=value */\n  tag_34\n  swap1\n    /* \"MyToken.sol\":3776:3781  value */\n  dup5\n  swap1\n    /* \"MyToken.sol\":3761:3781  _balances[to]+=value */\n  tag_25\n  jump\t// in\ntag_34:\n  swap1\n  swap2\n  sstore\n  pop\n  pop\n    /* \"MyToken.sol\":3677:3793  if(to==address(0)){... */\ntag_33:\n    /* \"MyToken.sol\":3824:3826  to */\n  dup2\n  sub(shl(0xa0, 0x01), 0x01)\n    /* \"MyToken.sol\":3810:3833  Transfer(from,to,value) */\n  and\n    /* \"MyToken.sol\":3819:3823  from */\n  dup4\n  sub(shl(0xa0, 0x01), 0x01)\n    /* \"MyToken.sol\":3810:3833  Transfer(from,to,value) */\n  and\n  0xddf252ad1be2c89b69c2b068fc378daa952ba7f163c4a11628f55a4df523b3ef\n    /* \"MyToken.sol\":3827:3832  value */\n  dup4\n    /* \"MyToken.sol\":3810:3833  Transfer(from,to,value) */\n  mload(0x40)\n  tag_35\n  swap2\n    /* \"#utility.yul\":4792:4817   */\n  dup2\n  mstore\n    /* \"#utility.yul\":4780:4782   */\n  0x20\n    /* \"#utility.yul\":4765:4783   */\n  add\n  swap1\n    /* \"#utility.yul\":4646:4823   */\n  jump\n    /* \"MyToken.sol\":3810:3833  Transfer(from,to,value) */\ntag_35:\n  mload(0x40)\n  dup1\n  swap2\n  sub\n  swap1\n  log3\n    /* \"MyToken.sol\":3276:3841  function _updata(address from ,address to,uint256 value) internal virtual {... */\n  pop\n  pop\n  pop\n  jump\t// out\n    /* \"#utility.yul\":14:141   */\ntag_37:\n    /* \"#utility.yul\":75:85   */\n  0x4e487b71\n    /* \"#utility.yul\":70:73   */\n  0xe0\n    /* \"#utility.yul\":66:86   */\n  shl\n    /* \"#utility.yul\":63:64   */\n  0x00\n    /* \"#utility.yul\":56:87   */\n  mstore\n    /* \"#utility.yul\":106:110   */\n  0x41\n    /* \"#utility.yul\":103:104   */\n  0x04\n    /* \"#utility.yul\":96:111   */\n  mstore\n    /* \"#utility.yul\":130:134   */\n  0x24\n    /* \"#utility.yul\":127:128   */\n  0x00\n    /* \"#utility.yul\":120:135   */\n  revert\n    /* \"#utility.yul\":146:526   */\ntag_38:\n    /* \"#utility.yul\":225:226   */\n  0x01\n    /* \"#utility.yul\":221:233   */\n  dup2\n  dup2\n  shr\n  swap1\n    /* \"#utility.yul\":268:280   */\n  dup3\n  and\n  dup1\n    /* \"#utility.yul\":289:350   */\n  tag_48\n  jumpi\n    /* \"#utility.yul\":343:347   */\n  0x7f\n    /* \"#utility.yul\":335:341   */\n  dup3\n    /* \"#utility.yul\":331:348   */\n  and\n    /* \"#utility.yul\":321:348   */\n  swap2\n  pop\n    /* \"#utility.yul\":289:350   */\ntag_48:\n    /* \"#utility.yul\":396:398   */\n  0x20\n    /* \"#utility.yul\":388:394   */\n  dup3\n    /* \"#utility.yul\":385:399   */\n  lt\n    /* \"#utility.yul\":365:383   */\n  dup2\n    /* \"#utility.yul\":362:400   */\n  sub\n    /* \"#utility.yul\":359:520   */\n  tag_49\n  jumpi\n    /* \"#utility.yul\":442:452   */\n  0x4e487b71\n    /* \"#utility.yul\":437:440   */\n  0xe0\n    /* \"#utility.yul\":433:453   */\n  shl\n    /* \"#utility.yul\":430:431   */\n  0x00\n    /* \"#utility.yul\":423:454   */\n  mstore\n    /* \"#utility.yul\":477:481   */\n  0x22\n    /* \"#utility.yul\":474:475   */\n  0x04\n    /* \"#utility.yul\":467:482   */\n  mstore\n    /* \"#utility.yul\":505:509   */\n  0x24\n    /* \"#utility.yul\":502:503   */\n  0x00\n    /* \"#utility.yul\":495:510   */\n  revert\n    /* \"#utility.yul\":359:520   */\ntag_49:\n  pop\n    /* \"#utility.yul\":146:526   */\n  swap2\n  swap1\n  pop\n  jump\t// out\n    /* \"#utility.yul\":657:1175   */\ntag_40:\n    /* \"#utility.yul\":759:761   */\n  0x1f\n    /* \"#utility.yul\":754:757   */\n  dup3\n    /* \"#utility.yul\":751:762   */\n  gt\n    /* \"#utility.yul\":748:1169   */\n  iszero\n  tag_52\n  jumpi\n    /* \"#utility.yul\":795:800   */\n  dup1\n    /* \"#utility.yul\":792:793   */\n  0x00\n    /* \"#utility.yul\":785:801   */\n  mstore\n    /* \"#utility.yul\":839:843   */\n  0x20\n    /* \"#utility.yul\":836:837   */\n  0x00\n    /* \"#utility.yul\":826:844   */\n  keccak256\n    /* \"#utility.yul\":909:911   */\n  0x1f\n    /* \"#utility.yul\":897:907   */\n  dup5\n    /* \"#utility.yul\":893:912   */\n  add\n    /* \"#utility.yul\":890:891   */\n  0x05\n    /* \"#utility.yul\":886:913   */\n  shr\n    /* \"#utility.yul\":880:884   */\n  dup2\n    /* \"#utility.yul\":876:914   */\n  add\n    /* \"#utility.yul\":945:949   */\n  0x20\n    /* \"#utility.yul\":933:943   */\n  dup6\n    /* \"#utility.yul\":930:950   */\n  lt\n    /* \"#utility.yul\":927:974   */\n  iszero\n  tag_53\n  jumpi\n  pop\n    /* \"#utility.yul\":968:972   */\n  dup1\n    /* \"#utility.yul\":927:974   */\ntag_53:\n    /* \"#utility.yul\":1023:1025   */\n  0x1f\n    /* \"#utility.yul\":1018:1021   */\n  dup5\n    /* \"#utility.yul\":1014:1026   */\n  add\n    /* \"#utility.yul\":1011:1012   */\n  0x05\n    /* \"#utility.yul\":1007:1027   */\n  shr\n    /* \"#utility.yul\":1001:1005   */\n  dup3\n    /* \"#utility.yul\":997:1028   */\n  add\n    /* \"#utility.yul\":987:1028   */\n  swap2\n  pop\n    /* \"#utility.yul\":1078:1159   */\ntag_54:\n    /* \"#utility.yul\":1096:1098   */\n  dup2\n    /* \"#utility.yul\":1089:1094   */\n  dup2\n    /* \"#utility.yul\":1086:1099   */\n  lt\n    /* \"#utility.yul\":1078:1159   */\n  iszero\n  tag_56\n  jumpi\n    /* \"#utility.yul\":1155:1156   */\n  0x00\n    /* \"#utility.yul\":1141:1157   */\n  dup2\n  sstore\n    /* \"#utility.yul\":1122:1123   */\n  0x01\n    /* \"#utility.yul\":1111:1124   */\n  add\n    /* \"#utility.yul\":1078:1159   */\n  jump(tag_54)\ntag_56:\n    /* \"#utility.yul\":1082:1085   */\n  pop\n  pop\n    /* \"#utility.yul\":748:1169   */\ntag_52:\n    /* \"#utility.yul\":657:1175   */\n  pop\n  pop\n  pop\n  jump\t// out\n    /* \"#utility.yul\":1351:2696   */\ntag_6:\n    /* \"#utility.yul\":1471:1481   */\n  dup2\n  mload\n  sub(shl(0x40, 0x01), 0x01)\n    /* \"#utility.yul\":1493:1523   */\n  dup2\n  gt\n    /* \"#utility.yul\":1490:1546   */\n  iszero\n  tag_60\n  jumpi\n    /* \"#utility.yul\":1526:1544   */\n  tag_60\n  tag_37\n  jump\t// in\ntag_60:\n    /* \"#utility.yul\":1555:1652   */\n  tag_61\n    /* \"#utility.yul\":1645:1651   */\n  dup2\n    /* \"#utility.yul\":1605:1643   */\n  tag_62\n    /* \"#utility.yul\":1637:1641   */\n  dup5\n    /* \"#utility.yul\":1631:1642   */\n  sload\n    /* \"#utility.yul\":1605:1643   */\n  tag_38\n  jump\t// in\ntag_62:\n    /* \"#utility.yul\":1599:1603   */\n  dup5\n    /* \"#utility.yul\":1555:1652   */\n  tag_40\n  jump\t// in\ntag_61:\n    /* \"#utility.yul\":1707:1711   */\n  0x20\n  dup1\n    /* \"#utility.yul\":1764:1766   */\n  0x1f\n    /* \"#utility.yul\":1753:1767   */\n  dup4\n  gt\n    /* \"#utility.yul\":1781:1782   */\n  0x01\n    /* \"#utility.yul\":1776:2439   */\n  dup2\n  eq\n  tag_64\n  jumpi\n    /* \"#utility.yul\":2483:2484   */\n  0x00\n    /* \"#utility.yul\":2500:2506   */\n  dup5\n    /* \"#utility.yul\":2497:2586   */\n  iszero\n  tag_65\n  jumpi\n  pop\n    /* \"#utility.yul\":2552:2571   */\n  dup6\n  dup4\n  add\n    /* \"#utility.yul\":2546:2572   */\n  mload\n    /* \"#utility.yul\":2497:2586   */\ntag_65:\n  not(0x00)\n    /* \"#utility.yul\":1308:1309   */\n  0x03\n    /* \"#utility.yul\":1304:1315   */\n  dup7\n  swap1\n  shl\n    /* \"#utility.yul\":1300:1324   */\n  shr\n    /* \"#utility.yul\":1296:1325   */\n  not\n    /* \"#utility.yul\":1286:1326   */\n  and\n    /* \"#utility.yul\":1332:1333   */\n  0x01\n    /* \"#utility.yul\":1328:1339   */\n  dup6\n  swap1\n  shl\n    /* \"#utility.yul\":1283:1340   */\n  or\n    /* \"#utility.yul\":2599:2680   */\n  dup6\n  sstore\n    /* \"#utility.yul\":1746:2690   */\n  jump(tag_63)\n    /* \"#utility.yul\":1776:2439   */\ntag_64:\n    /* \"#utility.yul\":604:605   */\n  0x00\n    /* \"#utility.yul\":597:611   */\n  dup6\n  dup2\n  mstore\n    /* \"#utility.yul\":641:645   */\n  0x20\n    /* \"#utility.yul\":628:646   */\n  dup2\n  keccak256\n  not(0x1f)\n    /* \"#utility.yul\":1812:1832   */\n  dup7\n  and\n  swap2\n    /* \"#utility.yul\":1930:2166   */\ntag_68:\n    /* \"#utility.yul\":1944:1951   */\n  dup3\n    /* \"#utility.yul\":1941:1942   */\n  dup2\n    /* \"#utility.yul\":1938:1952   */\n  lt\n    /* \"#utility.yul\":1930:2166   */\n  iszero\n  tag_70\n  jumpi\n    /* \"#utility.yul\":2033:2052   */\n  dup9\n  dup7\n  add\n    /* \"#utility.yul\":2027:2053   */\n  mload\n    /* \"#utility.yul\":2012:2054   */\n  dup3\n  sstore\n    /* \"#utility.yul\":2125:2152   */\n  swap5\n  dup5\n  add\n  swap5\n    /* \"#utility.yul\":2093:2094   */\n  0x01\n    /* \"#utility.yul\":2081:2095   */\n  swap1\n  swap2\n  add\n  swap1\n    /* \"#utility.yul\":1960:1979   */\n  dup5\n  add\n    /* \"#utility.yul\":1930:2166   */\n  jump(tag_68)\ntag_70:\n    /* \"#utility.yul\":1934:1937   */\n  pop\n    /* \"#utility.yul\":2194:2200   */\n  dup6\n    /* \"#utility.yul\":2185:2192   */\n  dup3\n    /* \"#utility.yul\":2182:2201   */\n  lt\n    /* \"#utility.yul\":2179:2380   */\n  iszero\n  tag_71\n  jumpi\n    /* \"#utility.yul\":2255:2274   */\n  dup8\n  dup6\n  add\n    /* \"#utility.yul\":2249:2275   */\n  mload\n  not(0x00)\n    /* \"#utility.yul\":2338:2339   */\n  0x03\n    /* \"#utility.yul\":2334:2348   */\n  dup9\n  swap1\n  shl\n    /* \"#utility.yul\":2350:2353   */\n  0xf8\n    /* \"#utility.yul\":2330:2354   */\n  and\n    /* \"#utility.yul\":2326:2363   */\n  shr\n    /* \"#utility.yul\":2322:2364   */\n  not\n    /* \"#utility.yul\":2307:2365   */\n  and\n    /* \"#utility.yul\":2292:2366   */\n  dup2\n  sstore\n    /* \"#utility.yul\":2179:2380   */\ntag_71:\n  pop\n  pop\n    /* \"#utility.yul\":2426:2427   */\n  0x01\n    /* \"#utility.yul\":2417:2423   */\n  dup5\n    /* \"#utility.yul\":2414:2415   */\n  0x01\n    /* \"#utility.yul\":2410:2424   */\n  shl\n    /* \"#utility.yul\":2406:2428   */\n  add\n    /* \"#utility.yul\":2400:2404   */\n  dup6\n    /* \"#utility.yul\":2393:2429   */\n  sstore\n    /* \"#utility.yul\":1746:2690   */\ntag_63:\n  pop\n  pop\n  pop\n  pop\n    /* \"#utility.yul\":1351:2696   */\n  pop\n  pop\n  jump\t// out\n    /* \"#utility.yul\":2701:2828   */\ntag_42:\n    /* \"#utility.yul\":2762:2772   */\n  0x4e487b71\n    /* \"#utility.yul\":2757:2760   */\n  0xe0\n    /* \"#utility.yul\":2753:2773   */\n  shl\n    /* \"#utility.yul\":2750:2751   */\n  0x00\n    /* \"#utility.yul\":2743:2774   */\n  mstore\n    /* \"#utility.yul\":2793:2797   */\n  0x11\n    /* \"#utility.yul\":2790:2791   */\n  0x04\n    /* \"#utility.yul\":2783:2798   */\n  mstore\n    /* \"#utility.yul\":2817:2821   */\n  0x24\n    /* \"#utility.yul\":2814:2815   */\n  0x00\n    /* \"#utility.yul\":2807:2822   */\n  revert\n    /* \"#utility.yul\":2833:3249   */\ntag_43:\n    /* \"#utility.yul\":2922:2923   */\n  0x01\n    /* \"#utility.yul\":2959:2964   */\n  dup2\n    /* \"#utility.yul\":2922:2923   */\n  dup2\n    /* \"#utility.yul\":2973:3243   */\ntag_74:\n    /* \"#utility.yul\":2994:3001   */\n  dup1\n    /* \"#utility.yul\":2984:2992   */\n  dup6\n    /* \"#utility.yul\":2981:3002   */\n  gt\n    /* \"#utility.yul\":2973:3243   */\n  iszero\n  tag_76\n  jumpi\n    /* \"#utility.yul\":3053:3057   */\n  dup2\n    /* \"#utility.yul\":3049:3050   */\n  0x00\n    /* \"#utility.yul\":3045:3051   */\n  not\n    /* \"#utility.yul\":3041:3058   */\n  div\n    /* \"#utility.yul\":3035:3039   */\n  dup3\n    /* \"#utility.yul\":3032:3059   */\n  gt\n    /* \"#utility.yul\":3029:3082   */\n  iszero\n  tag_78\n  jumpi\n    /* \"#utility.yul\":3062:3080   */\n  tag_78\n  tag_42\n  jump\t// in\ntag_78:\n    /* \"#utility.yul\":3112:3119   */\n  dup1\n    /* \"#utility.yul\":3102:3110   */\n  dup6\n    /* \"#utility.yul\":3098:3120   */\n  and\n    /* \"#utility.yul\":3095:3150   */\n  iszero\n  tag_79\n  jumpi\n    /* \"#utility.yul\":3132:3148   */\n  swap2\n  dup2\n  mul\n  swap2\n    /* \"#utility.yul\":3095:3150   */\ntag_79:\n    /* \"#utility.yul\":3211:3233   */\n  swap4\n  dup5\n  shr\n  swap4\n    /* \"#utility.yul\":3171:3186   */\n  swap1\n  dup1\n  mul\n  swap1\n    /* \"#utility.yul\":2973:3243   */\n  jump(tag_74)\ntag_76:\n    /* \"#utility.yul\":2977:2980   */\n  pop\n    /* \"#utility.yul\":2833:3249   */\n  swap3\n  pop\n  swap3\n  swap1\n  pop\n  jump\t// out\n    /* \"#utility.yul\":3254:4060   */\ntag_44:\n    /* \"#utility.yul\":3303:3308   */\n  0x00\n    /* \"#utility.yul\":3333:3341   */\n  dup3\n    /* \"#utility.yul\":3323:3403   */\n  tag_81\n  jumpi\n  pop\n    /* \"#utility.yul\":3374:3375   */\n  0x01\n    /* \"#utility.yul\":3388:3393   */\n  jump(tag_80)\n    /* \"#utility.yul\":3323:3403   */\ntag_81:\n    /* \"#utility.yul\":3422:3426   */\n  dup2\n    /* \"#utility.yul\":3412:3488   */\n  tag_82\n  jumpi\n  pop\n    /* \"#utility.yul\":3459:3460   */\n  0x00\n    /* \"#utility.yul\":3473:3478   */\n  jump(tag_80)\n    /* \"#utility.yul\":3412:3488   */\ntag_82:\n    /* \"#utility.yul\":3504:3508   */\n  dup2\n    /* \"#utility.yul\":3522:3523   */\n  0x01\n    /* \"#utility.yul\":3517:3576   */\n  dup2\n  eq\n  tag_84\n  jumpi\n    /* \"#utility.yul\":3590:3591   */\n  0x02\n    /* \"#utility.yul\":3585:3715   */\n  dup2\n  eq\n  tag_85\n  jumpi\n    /* \"#utility.yul\":3497:3715   */\n  jump(tag_83)\n    /* \"#utility.yul\":3517:3576   */\ntag_84:\n    /* \"#utility.yul\":3547:3548   */\n  0x01\n    /* \"#utility.yul\":3538:3548   */\n  swap2\n  pop\n    /* \"#utility.yul\":3561:3566   */\n  pop\n  jump(tag_80)\n    /* \"#utility.yul\":3585:3715   */\ntag_85:\n    /* \"#utility.yul\":3622:3625   */\n  0xff\n    /* \"#utility.yul\":3612:3620   */\n  dup5\n    /* \"#utility.yul\":3609:3626   */\n  gt\n    /* \"#utility.yul\":3606:3649   */\n  iszero\n  tag_87\n  jumpi\n    /* \"#utility.yul\":3629:3647   */\n  tag_87\n  tag_42\n  jump\t// in\ntag_87:\n  pop\n  pop\n    /* \"#utility.yul\":3685:3686   */\n  0x01\n    /* \"#utility.yul\":3671:3687   */\n  dup3\n  shl\n    /* \"#utility.yul\":3700:3705   */\n  jump(tag_80)\n    /* \"#utility.yul\":3497:3715   */\ntag_83:\n  pop\n    /* \"#utility.yul\":3799:3801   */\n  0x20\n    /* \"#utility.yul\":3789:3797   */\n  dup4\n    /* \"#utility.yul\":3786:3802   */\n  lt\n    /* \"#utility.yul\":3780:3783   */\n  0x0133\n    /* \"#utility.yul\":3774:3778   */\n  dup4\n    /* \"#utility.yul\":3771:3784   */\n  lt\n    /* \"#utility.yul\":3767:3803   */\n  and\n    /* \"#utility.yul\":3761:3763   */\n  0x4e\n    /* \"#utility.yul\":3751:3759   */\n  dup5\n    /* \"#utility.yul\":3748:3764   */\n  lt\n    /* \"#utility.yul\":3743:3745   */\n  0x0b\n    /* \"#utility.yul\":3737:3741   */\n  dup5\n    /* \"#utility.yul\":3734:3746   */\n  lt\n    /* \"#utility.yul\":3730:3765   */\n  and\n    /* \"#utility.yul\":3727:3804   */\n  or\n    /* \"#utility.yul\":3724:3883   */\n  iszero\n  tag_88\n  jumpi\n  pop\n    /* \"#utility.yul\":3836:3855   */\n  dup2\n  dup2\n  exp\n    /* \"#utility.yul\":3868:3873   */\n  jump(tag_80)\n    /* \"#utility.yul\":3724:3883   */\ntag_88:\n    /* \"#utility.yul\":3915:3949   */\n  tag_89\n    /* \"#utility.yul\":3940:3948   */\n  dup4\n    /* \"#utility.yul\":3934:3938   */\n  dup4\n    /* \"#utility.yul\":3915:3949   */\n  tag_43\n  jump\t// in\ntag_89:\n    /* \"#utility.yul\":3985:3991   */\n  dup1\n    /* \"#utility.yul\":3981:3982   */\n  0x00\n    /* \"#utility.yul\":3977:3983   */\n  not\n    /* \"#utility.yul\":3973:3992   */\n  div\n    /* \"#utility.yul\":3964:3971   */\n  dup3\n    /* \"#utility.yul\":3961:3993   */\n  gt\n    /* \"#utility.yul\":3958:4016   */\n  iszero\n  tag_91\n  jumpi\n    /* \"#utility.yul\":3996:4014   */\n  tag_91\n  tag_42\n  jump\t// in\ntag_91:\n    /* \"#utility.yul\":4034:4054   */\n  mul\n  swap1\n  pop\n    /* \"#utility.yul\":3254:4060   */\ntag_80:\n  swap3\n  swap2\n  pop\n  pop\n  jump\t// out\n    /* \"#utility.yul\":4065:4205   */\ntag_13:\n    /* \"#utility.yul\":4123:4128   */\n  0x00\n    /* \"#utility.yul\":4152:4199   */\n  tag_93\n    /* \"#utility.yul\":4193:4197   */\n  0xff\n    /* \"#utility.yul\":4183:4191   */\n  dup5\n    /* \"#utility.yul\":4179:4198   */\n  and\n    /* \"#utility.yul\":4173:4177   */\n  dup4\n    /* \"#utility.yul\":4152:4199   */\n  tag_44\n  jump\t// in\ntag_93:\n    /* \"#utility.yul\":4143:4199   */\n  swap4\n    /* \"#utility.yul\":4065:4205   */\n  swap3\n  pop\n  pop\n  pop\n  jump\t// out\n    /* \"#utility.yul\":4210:4378   */\ntag_15:\n    /* \"#utility.yul\":4283:4292   */\n  dup1\n  dup3\n  mul\n    /* \"#utility.yul\":4314:4323   */\n  dup2\n  iszero\n    /* \"#utility.yul\":4331:4346   */\n  dup3\n  dup3\n  div\n    /* \"#utility.yul\":4325:4347   */\n  dup5\n  eq\n    /* \"#utility.yul\":4311:4348   */\n  or\n    /* \"#utility.yul\":4301:4372   */\n  tag_80\n  jumpi\n    /* \"#utility.yul\":4352:4370   */\n  tag_80\n  tag_42\n  jump\t// in\n    /* \"#utility.yul\":4383:4508   */\ntag_25:\n    /* \"#utility.yul\":4448:4457   */\n  dup1\n  dup3\n  add\n    /* \"#utility.yul\":4469:4479   */\n  dup1\n  dup3\n  gt\n    /* \"#utility.yul\":4466:4502   */\n  iszero\n  tag_80\n  jumpi\n    /* \"#utility.yul\":4482:4500   */\n  tag_80\n  tag_42\n  jump\t// in\n    /* \"#utility.yul\":4513:4641   */\ntag_30:\n    /* \"#utility.yul\":4580:4589   */\n  dup2\n  dup2\n  sub\n    /* \"#utility.yul\":4601:4612   */\n  dup2\n  dup2\n  gt\n    /* \"#utility.yul\":4598:4635   */\n  iszero\n  tag_80\n  jumpi\n    /* \"#utility.yul\":4615:4633   */\n  tag_80\n  tag_42\n  jump\t// in\n    /* \"#utility.yul\":4646:4823   */\ntag_45:\n    /* \"MyERC20.sol\":88:228  contract MTK is MyToken {... */\n  dataSize(sub_0)\n  dup1\n  dataOffset(sub_0)\n  0x00\n  codecopy\n  0x00\n  return\nstop\n\nsub_0: assembly {\n        /* \"MyERC20.sol\":88:228  contract MTK is MyToken {... */\n      mstore(0x40, 0x80)\n      callvalue\n      dup1\n      iszero\n      tag_1\n      jumpi\n      0x00\n      dup1\n      revert\n    tag_1:\n      pop\n      jumpi(tag_2, lt(calldatasize, 0x04))\n      shr(0xe0, calldataload(0x00))\n      dup1\n      0x63b0545f\n      gt\n      tag_11\n      jumpi\n      dup1\n      0x63b0545f\n      eq\n      tag_7\n      jumpi\n      dup1\n      0x70a08231\n      eq\n      tag_8\n      jumpi\n      dup1\n      0xa9059cbb\n      eq\n      tag_9\n      jumpi\n      dup1\n      0xdd62ed3e\n      eq\n      tag_10\n      jumpi\n      0x00\n      dup1\n      revert\n    tag_11:\n      dup1\n      0x06fdde03\n      eq\n      tag_3\n      jumpi\n      dup1\n      0x095ea7b3\n      eq\n      tag_4\n      jumpi\n      dup1\n      0x18160ddd\n      eq\n      tag_5\n      jumpi\n      dup1\n      0x313ce567\n      eq\n      tag_6\n      jumpi\n    tag_2:\n      0x00\n      dup1\n      revert\n        /* \"MyToken.sol\":983:1064  function name()public view returns (string memory){... */\n    tag_3:\n      tag_12\n      tag_13\n      jump\t// in\n    tag_12:\n      mload(0x40)\n      tag_14\n      swap2\n      swap1\n      tag_15\n      jump\t// in\n    tag_14:\n      mload(0x40)\n      dup1\n      swap2\n      sub\n      swap1\n      return\n        /* \"MyToken.sol\":1823:2018  function approve(address spender,uint256 value) external override returns (bool){... */\n    tag_4:\n      tag_16\n      tag_17\n      calldatasize\n      0x04\n      tag_18\n      jump\t// in\n    tag_17:\n      tag_19\n      jump\t// in\n    tag_16:\n      mload(0x40)\n        /* \"#utility.yul\":1169:1183   */\n      swap1\n      iszero\n        /* \"#utility.yul\":1162:1184   */\n      iszero\n        /* \"#utility.yul\":1144:1185   */\n      dup2\n      mstore\n        /* \"#utility.yul\":1132:1134   */\n      0x20\n        /* \"#utility.yul\":1117:1135   */\n      add\n        /* \"MyToken.sol\":1823:2018  function approve(address spender,uint256 value) external override returns (bool){... */\n      tag_14\n        /* \"#utility.yul\":1004:1191   */\n      jump\n        /* \"MyToken.sol\":1164:1266  function totalSupply() external view override returns (uint256) {... */\n    tag_5:\n        /* \"MyToken.sol\":1246:1258  _totalSupply */\n      sload(0x02)\n        /* \"MyToken.sol\":1164:1266  function totalSupply() external view override returns (uint256) {... */\n    tag_22:\n      mload(0x40)\n        /* \"#utility.yul\":1342:1367   */\n      swap1\n      dup2\n      mstore\n        /* \"#utility.yul\":1330:1332   */\n      0x20\n        /* \"#utility.yul\":1315:1333   */\n      add\n        /* \"MyToken.sol\":1164:1266  function totalSupply() external view override returns (uint256) {... */\n      tag_14\n        /* \"#utility.yul\":1196:1373   */\n      jump\n        /* \"MyToken.sol\":1072:1156  function decimals() public view virtual returns (uint8) {... */\n    tag_6:\n      mload(0x40)\n        /* \"MyToken.sol\":1146:1148  18 */\n      0x12\n        /* \"#utility.yul\":1520:1556   */\n      dup2\n      mstore\n        /* \"#utility.yul\":1508:1510   */\n      0x20\n        /* \"#utility.yul\":1493:1511   */\n      add\n        /* \"MyToken.sol\":1072:1156  function decimals() public view virtual returns (uint8) {... */\n      tag_14\n        /* \"#utility.yul\":1378:1562   */\n      jump\n        /* \"MyToken.sol\":2203:2445  function transferfrom(address from,address to,uint256 value)external override returns(bool){... */\n    tag_7:\n      tag_16\n      tag_31\n      calldatasize\n      0x04\n      tag_32\n      jump\t// in\n    tag_31:\n      tag_33\n      jump\t// in\n        /* \"MyToken.sol\":1274:1395  function balanceOf(address account) external view override returns (uint256) {... */\n    tag_8:\n      tag_22\n      tag_36\n      calldatasize\n      0x04\n      tag_37\n      jump\t// in\n    tag_36:\n      sub(shl(0xa0, 0x01), 0x01)\n        /* \"MyToken.sol\":1369:1387  _balances[account] */\n      and\n        /* \"MyToken.sol\":1342:1349  uint256 */\n      0x00\n        /* \"MyToken.sol\":1369:1387  _balances[account] */\n      swap1\n      dup2\n      mstore\n      0x20\n      dup2\n      swap1\n      mstore\n      0x40\n      swap1\n      keccak256\n      sload\n      swap1\n        /* \"MyToken.sol\":1274:1395  function balanceOf(address account) external view override returns (uint256) {... */\n      jump\n        /* \"MyToken.sol\":1403:1583  function transfer(address to,uint256 value) external override returns(bool){... */\n    tag_9:\n      tag_16\n      tag_41\n      calldatasize\n      0x04\n      tag_18\n      jump\t// in\n    tag_41:\n      tag_42\n      jump\t// in\n        /* \"MyToken.sol\":2026:2195  function allowance(address owner,address spender)external override returns (uint256){... */\n    tag_10:\n      tag_22\n      tag_45\n      calldatasize\n      0x04\n      tag_46\n      jump\t// in\n    tag_45:\n      sub(shl(0xa0, 0x01), 0x01)\n        /* \"MyToken.sol\":2137:2155  _allowances[owner] */\n      swap2\n      dup3\n      and\n        /* \"MyToken.sol\":2102:2109  uint256 */\n      0x00\n        /* \"MyToken.sol\":2137:2155  _allowances[owner] */\n      swap1\n      dup2\n      mstore\n        /* \"MyToken.sol\":2137:2148  _allowances */\n      0x01\n        /* \"MyToken.sol\":2137:2155  _allowances[owner] */\n      0x20\n      swap1\n      dup2\n      mstore\n      0x40\n      dup1\n      dup4\n      keccak256\n        /* \"MyToken.sol\":2137:2164  _allowances[owner][spender] */\n      swap4\n      swap1\n      swap5\n      and\n      dup3\n      mstore\n      swap2\n      swap1\n      swap2\n      mstore\n      keccak256\n      sload\n      swap1\n        /* \"MyToken.sol\":2026:2195  function allowance(address owner,address spender)external override returns (uint256){... */\n      jump\n        /* \"MyToken.sol\":983:1064  function name()public view returns (string memory){... */\n    tag_13:\n        /* \"MyToken.sol\":1019:1032  string memory */\n      0x60\n        /* \"MyToken.sol\":1051:1056  _name */\n      0x03\n        /* \"MyToken.sol\":1044:1056  return _name */\n      dup1\n      sload\n      tag_50\n      swap1\n      tag_51\n      jump\t// in\n    tag_50:\n      dup1\n      0x1f\n      add\n      0x20\n      dup1\n      swap2\n      div\n      mul\n      0x20\n      add\n      mload(0x40)\n      swap1\n      dup2\n      add\n      0x40\n      mstore\n      dup1\n      swap3\n      swap2\n      swap1\n      dup2\n      dup2\n      mstore\n      0x20\n      add\n      dup3\n      dup1\n      sload\n      tag_52\n      swap1\n      tag_51\n      jump\t// in\n    tag_52:\n      dup1\n      iszero\n      tag_53\n      jumpi\n      dup1\n      0x1f\n      lt\n      tag_54\n      jumpi\n      0x0100\n      dup1\n      dup4\n      sload\n      div\n      mul\n      dup4\n      mstore\n      swap2\n      0x20\n      add\n      swap2\n      jump(tag_53)\n    tag_54:\n      dup3\n      add\n      swap2\n      swap1\n      0x00\n      mstore\n      keccak256(0x00, 0x20)\n      swap1\n    tag_55:\n      dup2\n      sload\n      dup2\n      mstore\n      swap1\n      0x01\n      add\n      swap1\n      0x20\n      add\n      dup1\n      dup4\n      gt\n      tag_55\n      jumpi\n      dup3\n      swap1\n      sub\n      0x1f\n      and\n      dup3\n      add\n      swap2\n    tag_53:\n      pop\n      pop\n      pop\n      pop\n      pop\n      swap1\n      pop\n        /* \"MyToken.sol\":983:1064  function name()public view returns (string memory){... */\n      swap1\n      jump\t// out\n        /* \"MyToken.sol\":1823:2018  function approve(address spender,uint256 value) external override returns (bool){... */\n    tag_19:\n        /* \"MyToken.sol\":1898:1902  bool */\n      0x00\n        /* \"MyToken.sol\":1931:1941  msg.sender */\n      caller\n        /* \"MyToken.sol\":1952:1988  _approve(owner, spender, value,true) */\n      tag_57\n        /* \"MyToken.sol\":1931:1941  msg.sender */\n      dup2\n        /* \"MyToken.sol\":1968:1975  spender */\n      dup6\n        /* \"MyToken.sol\":1977:1982  value */\n      dup6\n        /* \"MyToken.sol\":1983:1987  true */\n      0x01\n        /* \"MyToken.sol\":1952:1960  _approve */\n      tag_58\n        /* \"MyToken.sol\":1952:1988  _approve(owner, spender, value,true) */\n      jump\t// in\n    tag_57:\n        /* \"MyToken.sol\":2006:2010  true */\n      0x01\n        /* \"MyToken.sol\":1999:2010  return true */\n      swap2\n      pop\n      pop\n        /* \"MyToken.sol\":1823:2018  function approve(address spender,uint256 value) external override returns (bool){... */\n    tag_56:\n      swap3\n      swap2\n      pop\n      pop\n      jump\t// out\n        /* \"MyToken.sol\":2203:2445  function transferfrom(address from,address to,uint256 value)external override returns(bool){... */\n    tag_33:\n        /* \"MyToken.sol\":2289:2293  bool */\n      0x00\n        /* \"MyToken.sol\":2324:2334  msg.sender */\n      caller\n        /* \"MyToken.sol\":2345:2380  _spendAllowance(from,spender,value) */\n      tag_62\n        /* \"MyToken.sol\":2361:2365  from */\n      dup6\n        /* \"MyToken.sol\":2324:2334  msg.sender */\n      dup3\n        /* \"MyToken.sol\":2374:2379  value */\n      dup6\n        /* \"MyToken.sol\":2345:2360  _spendAllowance */\n      tag_63\n        /* \"MyToken.sol\":2345:2380  _spendAllowance(from,spender,value) */\n      jump\t// in\n    tag_62:\n        /* \"MyToken.sol\":2391:2415  _updata(from, to, value) */\n      tag_64\n        /* \"MyToken.sol\":2399:2403  from */\n      dup6\n        /* \"MyToken.sol\":2405:2407  to */\n      dup6\n        /* \"MyToken.sol\":2409:2414  value */\n      dup6\n        /* \"MyToken.sol\":2391:2398  _updata */\n      tag_65\n        /* \"MyToken.sol\":2391:2415  _updata(from, to, value) */\n      jump\t// in\n    tag_64:\n      pop\n        /* \"MyToken.sol\":2433:2437  true */\n      0x01\n      swap5\n        /* \"MyToken.sol\":2203:2445  function transferfrom(address from,address to,uint256 value)external override returns(bool){... */\n      swap4\n      pop\n      pop\n      pop\n      pop\n      jump\t// out\n        /* \"MyToken.sol\":1403:1583  function transfer(address to,uint256 value) external override returns(bool){... */\n    tag_42:\n        /* \"MyToken.sol\":1473:1477  bool */\n      0x00\n        /* \"MyToken.sol\":1505:1515  msg.sender */\n      caller\n        /* \"MyToken.sol\":1526:1553  _transfer(owner, to, value) */\n      tag_57\n        /* \"MyToken.sol\":1505:1515  msg.sender */\n      dup2\n        /* \"MyToken.sol\":1543:1545  to */\n      dup6\n        /* \"MyToken.sol\":1547:1552  value */\n      dup6\n        /* \"MyToken.sol\":1526:1535  _transfer */\n      tag_69\n        /* \"MyToken.sol\":1526:1553  _transfer(owner, to, value) */\n      jump\t// in\n        /* \"MyToken.sol\":2453:2811  function _approve(address owner,address spender,uint256 value,bool emitEvent)internal {... */\n    tag_58:\n      sub(shl(0xa0, 0x01), 0x01)\n        /* \"MyToken.sol\":2553:2570  owner==address(0) */\n      dup5\n      and\n        /* \"MyToken.sol\":2550:2606  if(owner==address(0)){... */\n      tag_72\n      jumpi\n        /* \"MyToken.sol\":2586:2594  revert() */\n      0x00\n      dup1\n      revert\n        /* \"MyToken.sol\":2550:2606  if(owner==address(0)){... */\n    tag_72:\n      sub(shl(0xa0, 0x01), 0x01)\n        /* \"MyToken.sol\":2620:2639  spender==address(0) */\n      dup4\n      and\n        /* \"MyToken.sol\":2616:2675  if (spender==address(0)){... */\n      tag_73\n      jumpi\n        /* \"MyToken.sol\":2655:2663  revert() */\n      0x00\n      dup1\n      revert\n        /* \"MyToken.sol\":2616:2675  if (spender==address(0)){... */\n    tag_73:\n      sub(shl(0xa0, 0x01), 0x01)\n        /* \"MyToken.sol\":2685:2703  _allowances[owner] */\n      dup1\n      dup6\n      and\n      0x00\n      swap1\n      dup2\n      mstore\n        /* \"MyToken.sol\":2685:2696  _allowances */\n      0x01\n        /* \"MyToken.sol\":2685:2703  _allowances[owner] */\n      0x20\n      swap1\n      dup2\n      mstore\n      0x40\n      dup1\n      dup4\n      keccak256\n        /* \"MyToken.sol\":2685:2712  _allowances[owner][spender] */\n      swap4\n      dup8\n      and\n      dup4\n      mstore\n      swap3\n      swap1\n      mstore\n      keccak256\n        /* \"MyToken.sol\":2685:2718  _allowances[owner][spender]=value */\n      dup3\n      swap1\n      sstore\n        /* \"MyToken.sol\":2729:2802  if(emitEvent){... */\n      dup1\n      iszero\n      tag_74\n      jumpi\n        /* \"MyToken.sol\":2776:2783  spender */\n      dup3\n      sub(shl(0xa0, 0x01), 0x01)\n        /* \"MyToken.sol\":2762:2790  Approve(owner,spender,value) */\n      and\n        /* \"MyToken.sol\":2770:2775  owner */\n      dup5\n      sub(shl(0xa0, 0x01), 0x01)\n        /* \"MyToken.sol\":2762:2790  Approve(owner,spender,value) */\n      and\n      0x6e11fb1b7f119e3f2fa29896ef5fdf8b8a2d0d4df6fe90ba8668e7d8b2ffa25e\n        /* \"MyToken.sol\":2784:2789  value */\n      dup5\n        /* \"MyToken.sol\":2762:2790  Approve(owner,spender,value) */\n      mload(0x40)\n      tag_75\n      swap2\n        /* \"#utility.yul\":1342:1367   */\n      dup2\n      mstore\n        /* \"#utility.yul\":1330:1332   */\n      0x20\n        /* \"#utility.yul\":1315:1333   */\n      add\n      swap1\n        /* \"#utility.yul\":1196:1373   */\n      jump\n        /* \"MyToken.sol\":2762:2790  Approve(owner,spender,value) */\n    tag_75:\n      mload(0x40)\n      dup1\n      swap2\n      sub\n      swap1\n      log3\n        /* \"MyToken.sol\":2729:2802  if(emitEvent){... */\n    tag_74:\n        /* \"MyToken.sol\":2453:2811  function _approve(address owner,address spender,uint256 value,bool emitEvent)internal {... */\n      pop\n      pop\n      pop\n      pop\n      jump\t// out\n        /* \"MyToken.sol\":2819:3149  function _spendAllowance(address owner,address spender,uint256 value) internal virtual {... */\n    tag_63:\n      sub(shl(0xa0, 0x01), 0x01)\n        /* \"MyToken.sol\":2944:2962  _allowances[owner] */\n      dup1\n      dup5\n      and\n        /* \"MyToken.sol\":2917:2941  uint256 currentAllowance */\n      0x00\n        /* \"MyToken.sol\":2944:2962  _allowances[owner] */\n      swap1\n      dup2\n      mstore\n        /* \"MyToken.sol\":2944:2955  _allowances */\n      0x01\n        /* \"MyToken.sol\":2944:2962  _allowances[owner] */\n      0x20\n      swap1\n      dup2\n      mstore\n      0x40\n      dup1\n      dup4\n      keccak256\n        /* \"MyToken.sol\":2944:2971  _allowances[owner][spender] */\n      swap4\n      dup7\n      and\n      dup4\n      mstore\n      swap3\n      swap1\n      mstore\n      keccak256\n      sload\n        /* \"MyToken.sol\":2985:3007  value>currentAllowance */\n      dup1\n      dup3\n      gt\n        /* \"MyToken.sol\":2982:3043  if(value>currentAllowance){... */\n      iszero\n      tag_77\n      jumpi\n        /* \"MyToken.sol\":3023:3031  revert() */\n      0x00\n      dup1\n      revert\n        /* \"MyToken.sol\":2982:3043  if(value>currentAllowance){... */\n    tag_77:\n        /* \"MyToken.sol\":3087:3141  _approve(owner, spender,currentAllowance-value, false) */\n      tag_74\n        /* \"MyToken.sol\":3096:3101  owner */\n      dup5\n        /* \"MyToken.sol\":3103:3110  spender */\n      dup5\n        /* \"MyToken.sol\":3111:3133  currentAllowance-value */\n      tag_79\n        /* \"MyToken.sol\":3128:3133  value */\n      dup6\n        /* \"MyToken.sol\":3111:3127  currentAllowance */\n      dup6\n        /* \"MyToken.sol\":3111:3133  currentAllowance-value */\n      tag_80\n      jump\t// in\n    tag_79:\n        /* \"MyToken.sol\":3135:3140  false */\n      0x00\n        /* \"MyToken.sol\":3087:3095  _approve */\n      tag_58\n        /* \"MyToken.sol\":3087:3141  _approve(owner, spender,currentAllowance-value, false) */\n      jump\t// in\n        /* \"MyToken.sol\":3276:3841  function _updata(address from ,address to,uint256 value) internal virtual {... */\n    tag_65:\n      sub(shl(0xa0, 0x01), 0x01)\n        /* \"MyToken.sol\":3364:3380  from==address(0) */\n      dup4\n      and\n        /* \"MyToken.sol\":3361:3657  if(from==address(0)){... */\n      tag_82\n      jumpi\n        /* \"MyToken.sol\":3410:3415  value */\n      dup1\n        /* \"MyToken.sol\":3396:3408  _totalSupply */\n      0x02\n      0x00\n        /* \"MyToken.sol\":3396:3415  _totalSupply+=value */\n      dup3\n      dup3\n      sload\n      tag_83\n      swap2\n      swap1\n      tag_84\n      jump\t// in\n    tag_83:\n      swap1\n      swap2\n      sstore\n      pop\n        /* \"MyToken.sol\":3361:3657  if(from==address(0)){... */\n      tag_85\n      swap1\n      pop\n      jump\n    tag_82:\n      sub(shl(0xa0, 0x01), 0x01)\n        /* \"MyToken.sol\":3468:3483  _balances[from] */\n      dup4\n      and\n        /* \"MyToken.sol\":3446:3465  uint256 frombalance */\n      0x00\n        /* \"MyToken.sol\":3468:3483  _balances[from] */\n      swap1\n      dup2\n      mstore\n      0x20\n      dup2\n      swap1\n      mstore\n      0x40\n      swap1\n      keccak256\n      sload\n        /* \"MyToken.sol\":3501:3518  frombalance<value */\n      dup2\n      dup2\n      lt\n        /* \"MyToken.sol\":3498:3644  if(frombalance<value){... */\n      iszero\n      tag_86\n      jumpi\n        /* \"MyToken.sol\":3538:3546  revert() */\n      0x00\n      dup1\n      revert\n        /* \"MyToken.sol\":3498:3644  if(frombalance<value){... */\n    tag_86:\n        /* \"MyToken.sol\":3611:3628  frombalance-value */\n      tag_88\n        /* \"MyToken.sol\":3623:3628  value */\n      dup3\n        /* \"MyToken.sol\":3611:3622  frombalance */\n      dup3\n        /* \"MyToken.sol\":3611:3628  frombalance-value */\n      tag_80\n      jump\t// in\n    tag_88:\n      sub(shl(0xa0, 0x01), 0x01)\n        /* \"MyToken.sol\":3595:3610  _balances[from] */\n      dup6\n      and\n        /* \"MyToken.sol\":3595:3604  _balances */\n      0x00\n        /* \"MyToken.sol\":3595:3610  _balances[from] */\n      swap1\n      dup2\n      mstore\n      0x20\n      dup2\n      swap1\n      mstore\n      0x40\n      swap1\n      keccak256\n        /* \"MyToken.sol\":3595:3628  _balances[from]=frombalance-value */\n      sstore\n        /* \"MyToken.sol\":3431:3657  {... */\n      pop\n        /* \"MyToken.sol\":3361:3657  if(from==address(0)){... */\n    tag_85:\n      sub(shl(0xa0, 0x01), 0x01)\n        /* \"MyToken.sol\":3680:3694  to==address(0) */\n      dup3\n      and\n        /* \"MyToken.sol\":3677:3793  if(to==address(0)){... */\n      tag_89\n      jumpi\n        /* \"MyToken.sol\":3724:3729  value */\n      dup1\n        /* \"MyToken.sol\":3710:3722  _totalSupply */\n      0x02\n      0x00\n        /* \"MyToken.sol\":3710:3729  _totalSupply-=value */\n      dup3\n      dup3\n      sload\n      tag_90\n      swap2\n      swap1\n      tag_80\n      jump\t// in\n    tag_90:\n      swap1\n      swap2\n      sstore\n      pop\n        /* \"MyToken.sol\":3677:3793  if(to==address(0)){... */\n      tag_91\n      swap1\n      pop\n      jump\n    tag_89:\n      sub(shl(0xa0, 0x01), 0x01)\n        /* \"MyToken.sol\":3761:3774  _balances[to] */\n      dup3\n      and\n        /* \"MyToken.sol\":3761:3770  _balances */\n      0x00\n        /* \"MyToken.sol\":3761:3774  _balances[to] */\n      swap1\n      dup2\n      mstore\n      0x20\n      dup2\n      swap1\n      mstore\n      0x40\n      dup2\n      keccak256\n        /* \"MyToken.sol\":3761:3781  _balances[to]+=value */\n      dup1\n      sload\n        /* \"MyToken.sol\":3776:3781  value */\n      dup4\n      swap3\n        /* \"MyToken.sol\":3761:3770  _balances */\n      swap1\n        /* \"MyToken.sol\":3761:3781  _balances[to]+=value */\n      tag_92\n      swap1\n        /* \"MyToken.sol\":3776:3781  value */\n      dup5\n      swap1\n        /* \"MyToken.sol\":3761:3781  _balances[to]+=value */\n      tag_84\n      jump\t// in\n    tag_92:\n      swap1\n      swap2\n      sstore\n      pop\n      pop\n        /* \"MyToken.sol\":3677:3793  if(to==address(0)){... */\n    tag_91:\n        /* \"MyToken.sol\":3824:3826  to */\n      dup2\n      sub(shl(0xa0, 0x01), 0x01)\n        /* \"MyToken.sol\":3810:3833  Transfer(from,to,value) */\n      and\n        /* \"MyToken.sol\":3819:3823  from */\n      dup4\n      sub(shl(0xa0, 0x01), 0x01)\n        /* \"MyToken.sol\":3810:3833  Transfer(from,to,value) */\n      and\n      0xddf252ad1be2c89b69c2b068fc378daa952ba7f163c4a11628f55a4df523b3ef\n        /* \"MyToken.sol\":3827:3832  value */\n      dup4\n        /* \"MyToken.sol\":3810:3833  Transfer(from,to,value) */\n      mload(0x40)\n      tag_93\n      swap2\n        /* \"#utility.yul\":1342:1367   */\n      dup2\n      mstore\n        /* \"#utility.yul\":1330:1332   */\n      0x20\n        /* \"#utility.yul\":1315:1333   */\n      add\n      swap1\n        /* \"#utility.yul\":1196:1373   */\n      jump\n        /* \"MyToken.sol\":3810:3833  Transfer(from,to,value) */\n    tag_93:\n      mload(0x40)\n      dup1\n      swap2\n      sub\n      swap1\n      log3\n        /* \"MyToken.sol\":3276:3841  function _updata(address from ,address to,uint256 value) internal virtual {... */\n      pop\n      pop\n      pop\n      jump\t// out\n        /* \"MyToken.sol\":1591:1815  function _transfer(address from,address to,uint256 value)internal {... */\n    tag_69:\n      sub(shl(0xa0, 0x01), 0x01)\n        /* \"MyToken.sol\":1670:1686  from==address(0) */\n      dup4\n      and\n        /* \"MyToken.sol\":1667:1717  if(from==address(0)){... */\n      tag_95\n      jumpi\n        /* \"MyToken.sol\":1698:1706  revert() */\n      0x00\n      dup1\n      revert\n        /* \"MyToken.sol\":1667:1717  if(from==address(0)){... */\n    tag_95:\n      sub(shl(0xa0, 0x01), 0x01)\n        /* \"MyToken.sol\":1729:1743  to==address(0) */\n      dup3\n      and\n        /* \"MyToken.sol\":1726:1774  if(to==address(0)){... */\n      tag_96\n      jumpi\n        /* \"MyToken.sol\":1755:1763  revert() */\n      0x00\n      dup1\n      revert\n        /* \"MyToken.sol\":1726:1774  if(to==address(0)){... */\n    tag_96:\n        /* \"MyToken.sol\":1783:1807  _updata(from, to, value) */\n      tag_97\n        /* \"MyToken.sol\":1791:1795  from */\n      dup4\n        /* \"MyToken.sol\":1797:1799  to */\n      dup4\n        /* \"MyToken.sol\":1801:1806  value */\n      dup4\n        /* \"MyToken.sol\":1783:1790  _updata */\n      tag_65\n        /* \"MyToken.sol\":1783:1807  _updata(from, to, value) */\n      jump\t// in\n    tag_97:\n        /* \"MyToken.sol\":1591:1815  function _transfer(address from,address to,uint256 value)internal {... */\n      pop\n      pop\n      pop\n      jump\t// out\n        /* \"#utility.yul\":14:562   */\n    tag_15:\n        /* \"#utility.yul\":126:130   */\n      0x00\n        /* \"#utility.yul\":155:157   */\n      0x20\n        /* \"#utility.yul\":184:186   */\n      dup1\n        /* \"#utility.yul\":173:182   */\n      dup4\n        /* \"#utility.yul\":166:187   */\n      mstore\n        /* \"#utility.yul\":216:222   */\n      dup4\n        /* \"#utility.yul\":210:223   */\n      mload\n        /* \"#utility.yul\":259:265   */\n      dup1\n        /* \"#utility.yul\":254:256   */\n      0x20\n        /* \"#utility.yul\":243:252   */\n      dup6\n        /* \"#utility.yul\":239:257   */\n      add\n        /* \"#utility.yul\":232:266   */\n      mstore\n        /* \"#utility.yul\":284:285   */\n      0x00\n        /* \"#utility.yul\":294:434   */\n    tag_102:\n        /* \"#utility.yul\":308:314   */\n      dup2\n        /* \"#utility.yul\":305:306   */\n      dup2\n        /* \"#utility.yul\":302:315   */\n      lt\n        /* \"#utility.yul\":294:434   */\n      iszero\n      tag_104\n      jumpi\n        /* \"#utility.yul\":403:417   */\n      dup6\n      dup2\n      add\n        /* \"#utility.yul\":399:422   */\n      dup4\n      add\n        /* \"#utility.yul\":393:423   */\n      mload\n        /* \"#utility.yul\":369:386   */\n      dup6\n      dup3\n      add\n        /* \"#utility.yul\":388:390   */\n      0x40\n        /* \"#utility.yul\":365:391   */\n      add\n        /* \"#utility.yul\":358:424   */\n      mstore\n        /* \"#utility.yul\":323:333   */\n      dup3\n      add\n        /* \"#utility.yul\":294:434   */\n      jump(tag_102)\n    tag_104:\n        /* \"#utility.yul\":298:301   */\n      pop\n        /* \"#utility.yul\":483:484   */\n      0x00\n        /* \"#utility.yul\":478:480   */\n      0x40\n        /* \"#utility.yul\":469:475   */\n      dup3\n        /* \"#utility.yul\":458:467   */\n      dup7\n        /* \"#utility.yul\":454:476   */\n      add\n        /* \"#utility.yul\":450:481   */\n      add\n        /* \"#utility.yul\":443:485   */\n      mstore\n        /* \"#utility.yul\":553:555   */\n      0x40\n        /* \"#utility.yul\":546:548   */\n      0x1f\n        /* \"#utility.yul\":542:549   */\n      not\n        /* \"#utility.yul\":537:539   */\n      0x1f\n        /* \"#utility.yul\":529:535   */\n      dup4\n        /* \"#utility.yul\":525:540   */\n      add\n        /* \"#utility.yul\":521:550   */\n      and\n        /* \"#utility.yul\":510:519   */\n      dup6\n        /* \"#utility.yul\":506:551   */\n      add\n        /* \"#utility.yul\":502:556   */\n      add\n        /* \"#utility.yul\":494:556   */\n      swap3\n      pop\n      pop\n      pop\n        /* \"#utility.yul\":14:562   */\n      swap3\n      swap2\n      pop\n      pop\n      jump\t// out\n        /* \"#utility.yul\":567:740   */\n    tag_98:\n        /* \"#utility.yul\":635:655   */\n      dup1\n      calldataload\n      sub(shl(0xa0, 0x01), 0x01)\n        /* \"#utility.yul\":684:715   */\n      dup2\n      and\n        /* \"#utility.yul\":674:716   */\n      dup2\n      eq\n        /* \"#utility.yul\":664:734   */\n      tag_106\n      jumpi\n        /* \"#utility.yul\":730:731   */\n      0x00\n        /* \"#utility.yul\":727:728   */\n      dup1\n        /* \"#utility.yul\":720:732   */\n      revert\n        /* \"#utility.yul\":664:734   */\n    tag_106:\n        /* \"#utility.yul\":567:740   */\n      swap2\n      swap1\n      pop\n      jump\t// out\n        /* \"#utility.yul\":745:999   */\n    tag_18:\n        /* \"#utility.yul\":813:819   */\n      0x00\n        /* \"#utility.yul\":821:827   */\n      dup1\n        /* \"#utility.yul\":874:876   */\n      0x40\n        /* \"#utility.yul\":862:871   */\n      dup4\n        /* \"#utility.yul\":853:860   */\n      dup6\n        /* \"#utility.yul\":849:872   */\n      sub\n        /* \"#utility.yul\":845:877   */\n      slt\n        /* \"#utility.yul\":842:894   */\n      iszero\n      tag_108\n      jumpi\n        /* \"#utility.yul\":890:891   */\n      0x00\n        /* \"#utility.yul\":887:888   */\n      dup1\n        /* \"#utility.yul\":880:892   */\n      revert\n        /* \"#utility.yul\":842:894   */\n    tag_108:\n        /* \"#utility.yul\":913:942   */\n      tag_109\n        /* \"#utility.yul\":932:941   */\n      dup4\n        /* \"#utility.yul\":913:942   */\n      tag_98\n      jump\t// in\n    tag_109:\n        /* \"#utility.yul\":903:942   */\n      swap5\n        /* \"#utility.yul\":989:991   */\n      0x20\n        /* \"#utility.yul\":974:992   */\n      swap4\n      swap1\n      swap4\n      add\n        /* \"#utility.yul\":961:993   */\n      calldataload\n      swap4\n      pop\n      pop\n      pop\n        /* \"#utility.yul\":745:999   */\n      jump\t// out\n        /* \"#utility.yul\":1567:1895   */\n    tag_32:\n        /* \"#utility.yul\":1644:1650   */\n      0x00\n        /* \"#utility.yul\":1652:1658   */\n      dup1\n        /* \"#utility.yul\":1660:1666   */\n      0x00\n        /* \"#utility.yul\":1713:1715   */\n      0x60\n        /* \"#utility.yul\":1701:1710   */\n      dup5\n        /* \"#utility.yul\":1692:1699   */\n      dup7\n        /* \"#utility.yul\":1688:1711   */\n      sub\n        /* \"#utility.yul\":1684:1716   */\n      slt\n        /* \"#utility.yul\":1681:1733   */\n      iszero\n      tag_114\n      jumpi\n        /* \"#utility.yul\":1729:1730   */\n      0x00\n        /* \"#utility.yul\":1726:1727   */\n      dup1\n        /* \"#utility.yul\":1719:1731   */\n      revert\n        /* \"#utility.yul\":1681:1733   */\n    tag_114:\n        /* \"#utility.yul\":1752:1781   */\n      tag_115\n        /* \"#utility.yul\":1771:1780   */\n      dup5\n        /* \"#utility.yul\":1752:1781   */\n      tag_98\n      jump\t// in\n    tag_115:\n        /* \"#utility.yul\":1742:1781   */\n      swap3\n      pop\n        /* \"#utility.yul\":1800:1838   */\n      tag_116\n        /* \"#utility.yul\":1834:1836   */\n      0x20\n        /* \"#utility.yul\":1823:1832   */\n      dup6\n        /* \"#utility.yul\":1819:1837   */\n      add\n        /* \"#utility.yul\":1800:1838   */\n      tag_98\n      jump\t// in\n    tag_116:\n        /* \"#utility.yul\":1790:1838   */\n      swap2\n      pop\n        /* \"#utility.yul\":1885:1887   */\n      0x40\n        /* \"#utility.yul\":1874:1883   */\n      dup5\n        /* \"#utility.yul\":1870:1888   */\n      add\n        /* \"#utility.yul\":1857:1889   */\n      calldataload\n        /* \"#utility.yul\":1847:1889   */\n      swap1\n      pop\n        /* \"#utility.yul\":1567:1895   */\n      swap3\n      pop\n      swap3\n      pop\n      swap3\n      jump\t// out\n        /* \"#utility.yul\":1900:2086   */\n    tag_37:\n        /* \"#utility.yul\":1959:1965   */\n      0x00\n        /* \"#utility.yul\":2012:2014   */\n      0x20\n        /* \"#utility.yul\":2000:2009   */\n      dup3\n        /* \"#utility.yul\":1991:1998   */\n      dup5\n        /* \"#utility.yul\":1987:2010   */\n      sub\n        /* \"#utility.yul\":1983:2015   */\n      slt\n        /* \"#utility.yul\":1980:2032   */\n      iszero\n      tag_118\n      jumpi\n        /* \"#utility.yul\":2028:2029   */\n      0x00\n        /* \"#utility.yul\":2025:2026   */\n      dup1\n        /* \"#utility.yul\":2018:2030   */\n      revert\n        /* \"#utility.yul\":1980:2032   */\n    tag_118:\n        /* \"#utility.yul\":2051:2080   */\n      tag_119\n        /* \"#utility.yul\":2070:2079   */\n      dup3\n        /* \"#utility.yul\":2051:2080   */\n      tag_98\n      jump\t// in\n    tag_119:\n        /* \"#utility.yul\":2041:2080   */\n      swap4\n        /* \"#utility.yul\":1900:2086   */\n      swap3\n      pop\n      pop\n      pop\n      jump\t// out\n        /* \"#utility.yul\":2091:2351   */\n    tag_46:\n        /* \"#utility.yul\":2159:2165   */\n      0x00\n        /* \"#utility.yul\":2167:2173   */\n      dup1\n        /* \"#utility.yul\":2220:2222   */\n      0x40\n        /* \"#utility.yul\":2208:2217   */\n      dup4\n        /* \"#utility.yul\":2199:2206   */\n      dup6\n        /* \"#utility.yul\":2195:2218   */\n      sub\n        /* \"#utility.yul\":2191:2223   */\n      slt\n        /* \"#utility.yul\":2188:2240   */\n      iszero\n      tag_121\n      jumpi\n        /* \"#utility.yul\":2236:2237   */\n      0x00\n        /* \"#utility.yul\":2233:2234   */\n      dup1\n        /* \"#utility.yul\":2226:2238   */\n      revert\n        /* \"#utility.yul\":2188:2240   */\n    tag_121:\n        /* \"#utility.yul\":2259:2288   */\n      tag_122\n        /* \"#utility.yul\":2278:2287   */\n      dup4\n        /* \"#utility.yul\":2259:2288   */\n      tag_98\n      jump\t// in\n    tag_122:\n        /* \"#utility.yul\":2249:2288   */\n      swap2\n      pop\n        /* \"#utility.yul\":2307:2345   */\n      tag_123\n        /* \"#utility.yul\":2341:2343   */\n      0x20\n        /* \"#utility.yul\":2330:2339   */\n      dup5\n        /* \"#utility.yul\":2326:2344   */\n      add\n        /* \"#utility.yul\":2307:2345   */\n      tag_98\n      jump\t// in\n    tag_123:\n        /* \"#utility.yul\":2297:2345   */\n      swap1\n      pop\n        /* \"#utility.yul\":2091:2351   */\n      swap3\n      pop\n      swap3\n      swap1\n      pop\n      jump\t// out\n        /* \"#utility.yul\":2356:2736   */\n    tag_51:\n        /* \"#utility.yul\":2435:2436   */\n      0x01\n        /* \"#utility.yul\":2431:2443   */\n      dup2\n      dup2\n      shr\n      swap1\n        /* \"#utility.yul\":2478:2490   */\n      dup3\n      and\n      dup1\n        /* \"#utility.yul\":2499:2560   */\n      tag_125\n      jumpi\n        /* \"#utility.yul\":2553:2557   */\n      0x7f\n        /* \"#utility.yul\":2545:2551   */\n      dup3\n        /* \"#utility.yul\":2541:2558   */\n      and\n        /* \"#utility.yul\":2531:2558   */\n      swap2\n      pop\n        /* \"#utility.yul\":2499:2560   */\n    tag_125:\n        /* \"#utility.yul\":2606:2608   */\n      0x20\n        /* \"#utility.yul\":2598:2604   */\n      dup3\n        /* \"#utility.yul\":2595:2609   */\n      lt\n        /* \"#utility.yul\":2575:2593   */\n      dup2\n        /* \"#utility.yul\":2572:2610   */\n      sub\n        /* \"#utility.yul\":2569:2730   */\n      tag_126\n      jumpi\n        /* \"#utility.yul\":2652:2662   */\n      0x4e487b71\n        /* \"#utility.yul\":2647:2650   */\n      0xe0\n        /* \"#utility.yul\":2643:2663   */\n      shl\n        /* \"#utility.yul\":2640:2641   */\n      0x00\n        /* \"#utility.yul\":2633:2664   */\n      mstore\n        /* \"#utility.yul\":2687:2691   */\n      0x22\n        /* \"#utility.yul\":2684:2685   */\n      0x04\n        /* \"#utility.yul\":2677:2692   */\n      mstore\n        /* \"#utility.yul\":2715:2719   */\n      0x24\n        /* \"#utility.yul\":2712:2713   */\n      0x00\n        /* \"#utility.yul\":2705:2720   */\n      revert\n        /* \"#utility.yul\":2569:2730   */\n    tag_126:\n      pop\n        /* \"#utility.yul\":2356:2736   */\n      swap2\n      swap1\n      pop\n      jump\t// out\n        /* \"#utility.yul\":2741:2868   */\n    tag_99:\n        /* \"#utility.yul\":2802:2812   */\n      0x4e487b71\n        /* \"#utility.yul\":2797:2800   */\n      0xe0\n        /* \"#utility.yul\":2793:2813   */\n      shl\n        /* \"#utility.yul\":2790:2791   */\n      0x00\n        /* \"#utility.yul\":2783:2814   */\n      mstore\n        /* \"#utility.yul\":2833:2837   */\n      0x11\n        /* \"#utility.yul\":2830:2831   */\n      0x04\n        /* \"#utility.yul\":2823:2838   */\n      mstore\n        /* \"#utility.yul\":2857:2861   */\n      0x24\n        /* \"#utility.yul\":2854:2855   */\n      0x00\n        /* \"#utility.yul\":2847:2862   */\n      revert\n        /* \"#utility.yul\":2873:3001   */\n    tag_80:\n        /* \"#utility.yul\":2940:2949   */\n      dup2\n      dup2\n      sub\n        /* \"#utility.yul\":2961:2972   */\n      dup2\n      dup2\n      gt\n        /* \"#utility.yul\":2958:2995   */\n      iszero\n      tag_56\n      jumpi\n        /* \"#utility.yul\":2975:2993   */\n      tag_56\n      tag_99\n      jump\t// in\n        /* \"#utility.yul\":3006:3131   */\n    tag_84:\n        /* \"#utility.yul\":3071:3080   */\n      dup1\n      dup3\n      add\n        /* \"#utility.yul\":3092:3102   */\n      dup1\n      dup3\n      gt\n        /* \"#utility.yul\":3089:3125   */\n      iszero\n      tag_56\n      jumpi\n        /* \"#utility.yul\":3105:3123   */\n      tag_56\n      tag_99\n      jump\t// in\n\n    auxdata: 0xa2646970667358221220fcb5dd97d469862a89782385ffc75deb61eb8cf0acbee830b623221782d2a3ce64736f6c63430008160033\n}\n",
				"bytecode": {
					"linkReferences": {},
					"object": "608060405234801562000010575f80fd5b506040518060400160405280600781526020016626bcaa37b5b2b760c91b815250604051806040016040528060038152602001624d544b60e81b81525081600390816200005e91906200028b565b5060046200006d82826200028b565b505050620000a83362000085620000ae60201b60201c565b6200009290600a62000466565b620000a2906305f5e1006200047d565b620000b3565b620004c3565b601290565b620000c05f8383620000c4565b5050565b6001600160a01b038316620000f2578060025f828254620000e6919062000497565b909155506200013d9050565b6001600160a01b0383165f908152602081905260409020548181101562000117575f80fd5b620001238282620004ad565b6001600160a01b0385165f90815260208190526040902055505b6001600160a01b0382166200016b578060025f8282546200015f9190620004ad565b909155506200019a9050565b6001600160a01b0382165f90815260208190526040812080548392906200019490849062000497565b90915550505b816001600160a01b0316836001600160a01b03167fddf252ad1be2c89b69c2b068fc378daa952ba7f163c4a11628f55a4df523b3ef83604051620001e091815260200190565b60405180910390a3505050565b634e487b7160e01b5f52604160045260245ffd5b600181811c908216806200021657607f821691505b6020821081036200023557634e487b7160e01b5f52602260045260245ffd5b50919050565b601f8211156200028657805f5260205f20601f840160051c81016020851015620002625750805b601f840160051c820191505b8181101562000283575f81556001016200026e565b50505b505050565b81516001600160401b03811115620002a757620002a7620001ed565b620002bf81620002b8845462000201565b846200023b565b602080601f831160018114620002f5575f8415620002dd5750858301515b5f19600386901b1c1916600185901b1785556200034f565b5f85815260208120601f198616915b82811015620003255788860151825594840194600190910190840162000304565b50858210156200034357878501515f19600388901b60f8161c191681555b505060018460011b0185555b505050505050565b634e487b7160e01b5f52601160045260245ffd5b600181815b80851115620003ab57815f19048211156200038f576200038f62000357565b808516156200039d57918102915b93841c939080029062000370565b509250929050565b5f82620003c35750600162000460565b81620003d157505f62000460565b8160018114620003ea5760028114620003f55762000415565b600191505062000460565b60ff84111562000409576200040962000357565b50506001821b62000460565b5060208310610133831016604e8410600b84101617156200043a575081810a62000460565b6200044683836200036b565b805f19048211156200045c576200045c62000357565b0290505b92915050565b5f6200047660ff841683620003b3565b9392505050565b808202811582820484141762000460576200046062000357565b8082018082111562000460576200046062000357565b8181038181111562000460576200046062000357565b61064780620004d15f395ff3fe608060405234801561000f575f80fd5b5060043610610085575f3560e01c806363b0545f1161005857806363b0545f146100eb57806370a08231146100fe578063a9059cbb14610126578063dd62ed3e14610139575f80fd5b806306fdde0314610089578063095ea7b3146100a757806318160ddd146100ca578063313ce567146100dc575b5f80fd5b610091610171565b60405161009e9190610486565b60405180910390f35b6100ba6100b53660046104ed565b610201565b604051901515815260200161009e565b6002545b60405190815260200161009e565b6040516012815260200161009e565b6100ba6100f9366004610515565b61021c565b6100ce61010c36600461054e565b6001600160a01b03165f9081526020819052604090205490565b6100ba6101343660046104ed565b61023f565b6100ce61014736600461056e565b6001600160a01b039182165f90815260016020908152604080832093909416825291909152205490565b6060600380546101809061059f565b80601f01602080910402602001604051908101604052809291908181526020018280546101ac9061059f565b80156101f75780601f106101ce576101008083540402835291602001916101f7565b820191905f5260205f20905b8154815290600101906020018083116101da57829003601f168201915b5050505050905090565b5f33610210818585600161024c565b60019150505b92915050565b5f336102298582856102f1565b610234858585610337565b506001949350505050565b5f33610210818585610452565b6001600160a01b03841661025e575f80fd5b6001600160a01b038316610270575f80fd5b6001600160a01b038085165f90815260016020908152604080832093871683529290522082905580156102eb57826001600160a01b0316846001600160a01b03167f6e11fb1b7f119e3f2fa29896ef5fdf8b8a2d0d4df6fe90ba8668e7d8b2ffa25e846040516102e291815260200190565b60405180910390a35b50505050565b6001600160a01b038084165f9081526001602090815260408083209386168352929052205480821115610322575f80fd5b6102eb848461033185856105eb565b5f61024c565b6001600160a01b038316610361578060025f82825461035691906105fe565b909155506103a99050565b6001600160a01b0383165f9081526020819052604090205481811015610385575f80fd5b61038f82826105eb565b6001600160a01b0385165f90815260208190526040902055505b6001600160a01b0382166103d3578060025f8282546103c891906105eb565b909155506104009050565b6001600160a01b0382165f90815260208190526040812080548392906103fa9084906105fe565b90915550505b816001600160a01b0316836001600160a01b03167fddf252ad1be2c89b69c2b068fc378daa952ba7f163c4a11628f55a4df523b3ef8360405161044591815260200190565b60405180910390a3505050565b6001600160a01b038316610464575f80fd5b6001600160a01b038216610476575f80fd5b610481838383610337565b505050565b5f602080835283518060208501525f5b818110156104b257858101830151858201604001528201610496565b505f604082860101526040601f19601f8301168501019250505092915050565b80356001600160a01b03811681146104e8575f80fd5b919050565b5f80604083850312156104fe575f80fd5b610507836104d2565b946020939093013593505050565b5f805f60608486031215610527575f80fd5b610530846104d2565b925061053e602085016104d2565b9150604084013590509250925092565b5f6020828403121561055e575f80fd5b610567826104d2565b9392505050565b5f806040838503121561057f575f80fd5b610588836104d2565b9150610596602084016104d2565b90509250929050565b600181811c908216806105b357607f821691505b6020821081036105d157634e487b7160e01b5f52602260045260245ffd5b50919050565b634e487b7160e01b5f52601160045260245ffd5b81810381811115610216576102166105d7565b80820180821115610216576102166105d756fea2646970667358221220fcb5dd97d469862a89782385ffc75deb61eb8cf0acbee830b623221782d2a3ce64736f6c63430008160033",
					"opcodes": "PUSH1 0x80 PUSH1 0x40 MSTORE CALLVALUE DUP1 ISZERO PUSH3 0x10 JUMPI PUSH0 DUP1 REVERT JUMPDEST POP PUSH1 0x40 MLOAD DUP1 PUSH1 0x40 ADD PUSH1 0x40 MSTORE DUP1 PUSH1 0x7 DUP2 MSTORE PUSH1 0x20 ADD PUSH7 0x26BCAA37B5B2B7 PUSH1 0xC9 SHL DUP2 MSTORE POP PUSH1 0x40 MLOAD DUP1 PUSH1 0x40 ADD PUSH1 0x40 MSTORE DUP1 PUSH1 0x3 DUP2 MSTORE PUSH1 0x20 ADD PUSH3 0x4D544B PUSH1 0xE8 SHL DUP2 MSTORE POP DUP2 PUSH1 0x3 SWAP1 DUP2 PUSH3 0x5E SWAP2 SWAP1 PUSH3 0x28B JUMP JUMPDEST POP PUSH1 0x4 PUSH3 0x6D DUP3 DUP3 PUSH3 0x28B JUMP JUMPDEST POP POP POP PUSH3 0xA8 CALLER PUSH3 0x85 PUSH3 0xAE PUSH1 0x20 SHL PUSH1 0x20 SHR JUMP JUMPDEST PUSH3 0x92 SWAP1 PUSH1 0xA PUSH3 0x466 JUMP JUMPDEST PUSH3 0xA2 SWAP1 PUSH4 0x5F5E100 PUSH3 0x47D JUMP JUMPDEST PUSH3 0xB3 JUMP JUMPDEST PUSH3 0x4C3 JUMP JUMPDEST PUSH1 0x12 SWAP1 JUMP JUMPDEST PUSH3 0xC0 PUSH0 DUP4 DUP4 PUSH3 0xC4 JUMP JUMPDEST POP POP JUMP JUMPDEST PUSH1 0x1 PUSH1 0x1 PUSH1 0xA0 SHL SUB DUP4 AND PUSH3 0xF2 JUMPI DUP1 PUSH1 0x2 PUSH0 DUP3 DUP3 SLOAD PUSH3 0xE6 SWAP2 SWAP1 PUSH3 0x497 JUMP JUMPDEST SWAP1 SWAP2 SSTORE POP PUSH3 0x13D SWAP1 POP JUMP JUMPDEST PUSH1 0x1 PUSH1 0x1 PUSH1 0xA0 SHL SUB DUP4 AND PUSH0 SWAP1 DUP2 MSTORE PUSH1 0x20 DUP2 SWAP1 MSTORE PUSH1 0x40 SWAP1 KECCAK256 SLOAD DUP2 DUP2 LT ISZERO PUSH3 0x117 JUMPI PUSH0 DUP1 REVERT JUMPDEST PUSH3 0x123 DUP3 DUP3 PUSH3 0x4AD JUMP JUMPDEST PUSH1 0x1 PUSH1 0x1 PUSH1 0xA0 SHL SUB DUP6 AND PUSH0 SWAP1 DUP2 MSTORE PUSH1 0x20 DUP2 SWAP1 MSTORE PUSH1 0x40 SWAP1 KECCAK256 SSTORE POP JUMPDEST PUSH1 0x1 PUSH1 0x1 PUSH1 0xA0 SHL SUB DUP3 AND PUSH3 0x16B JUMPI DUP1 PUSH1 0x2 PUSH0 DUP3 DUP3 SLOAD PUSH3 0x15F SWAP2 SWAP1 PUSH3 0x4AD JUMP JUMPDEST SWAP1 SWAP2 SSTORE POP PUSH3 0x19A SWAP1 POP JUMP JUMPDEST PUSH1 0x1 PUSH1 0x1 PUSH1 0xA0 SHL SUB DUP3 AND PUSH0 SWAP1 DUP2 MSTORE PUSH1 0x20 DUP2 SWAP1 MSTORE PUSH1 0x40 DUP2 KECCAK256 DUP1 SLOAD DUP4 SWAP3 SWAP1 PUSH3 0x194 SWAP1 DUP5 SWAP1 PUSH3 0x497 JUMP JUMPDEST SWAP1 SWAP2 SSTORE POP POP JUMPDEST DUP2 PUSH1 0x1 PUSH1 0x1 PUSH1 0xA0 SHL SUB AND DUP4 PUSH1 0x1 PUSH1 0x1 PUSH1 0xA0 SHL SUB AND PUSH32 0xDDF252AD1BE2C89B69C2B068FC378DAA952BA7F163C4A11628F55A4DF523B3EF DUP4 PUSH1 0x40 MLOAD PUSH3 0x1E0 SWAP2 DUP2 MSTORE PUSH1 0x20 ADD SWAP1 JUMP JUMPDEST PUSH1 0x40 MLOAD DUP1 SWAP2 SUB SWAP1 LOG3 POP POP POP JUMP JUMPDEST PUSH4 0x4E487B71 PUSH1 0xE0 SHL PUSH0 MSTORE PUSH1 0x41 PUSH1 0x4 MSTORE PUSH1 0x24 PUSH0 REVERT JUMPDEST PUSH1 0x1 DUP2 DUP2 SHR SWAP1 DUP3 AND DUP1 PUSH3 0x216 JUMPI PUSH1 0x7F DUP3 AND SWAP2 POP JUMPDEST PUSH1 0x20 DUP3 LT DUP2 SUB PUSH3 0x235 JUMPI PUSH4 0x4E487B71 PUSH1 0xE0 SHL PUSH0 MSTORE PUSH1 0x22 PUSH1 0x4 MSTORE PUSH1 0x24 PUSH0 REVERT JUMPDEST POP SWAP2 SWAP1 POP JUMP JUMPDEST PUSH1 0x1F DUP3 GT ISZERO PUSH3 0x286 JUMPI DUP1 PUSH0 MSTORE PUSH1 0x20 PUSH0 KECCAK256 PUSH1 0x1F DUP5 ADD PUSH1 0x5 SHR DUP2 ADD PUSH1 0x20 DUP6 LT ISZERO PUSH3 0x262 JUMPI POP DUP1 JUMPDEST PUSH1 0x1F DUP5 ADD PUSH1 0x5 SHR DUP3 ADD SWAP2 POP JUMPDEST DUP2 DUP2 LT ISZERO PUSH3 0x283 JUMPI PUSH0 DUP2 SSTORE PUSH1 0x1 ADD PUSH3 0x26E JUMP JUMPDEST POP POP JUMPDEST POP POP POP JUMP JUMPDEST DUP2 MLOAD PUSH1 0x1 PUSH1 0x1 PUSH1 0x40 SHL SUB DUP2 GT ISZERO PUSH3 0x2A7 JUMPI PUSH3 0x2A7 PUSH3 0x1ED JUMP JUMPDEST PUSH3 0x2BF DUP2 PUSH3 0x2B8 DUP5 SLOAD PUSH3 0x201 JUMP JUMPDEST DUP5 PUSH3 0x23B JUMP JUMPDEST PUSH1 0x20 DUP1 PUSH1 0x1F DUP4 GT PUSH1 0x1 DUP2 EQ PUSH3 0x2F5 JUMPI PUSH0 DUP5 ISZERO PUSH3 0x2DD JUMPI POP DUP6 DUP4 ADD MLOAD JUMPDEST PUSH0 NOT PUSH1 0x3 DUP7 SWAP1 SHL SHR NOT AND PUSH1 0x1 DUP6 SWAP1 SHL OR DUP6 SSTORE PUSH3 0x34F JUMP JUMPDEST PUSH0 DUP6 DUP2 MSTORE PUSH1 0x20 DUP2 KECCAK256 PUSH1 0x1F NOT DUP7 AND SWAP2 JUMPDEST DUP3 DUP2 LT ISZERO PUSH3 0x325 JUMPI DUP9 DUP7 ADD MLOAD DUP3 SSTORE SWAP5 DUP5 ADD SWAP5 PUSH1 0x1 SWAP1 SWAP2 ADD SWAP1 DUP5 ADD PUSH3 0x304 JUMP JUMPDEST POP DUP6 DUP3 LT ISZERO PUSH3 0x343 JUMPI DUP8 DUP6 ADD MLOAD PUSH0 NOT PUSH1 0x3 DUP9 SWAP1 SHL PUSH1 0xF8 AND SHR NOT AND DUP2 SSTORE JUMPDEST POP POP PUSH1 0x1 DUP5 PUSH1 0x1 SHL ADD DUP6 SSTORE JUMPDEST POP POP POP POP POP POP JUMP JUMPDEST PUSH4 0x4E487B71 PUSH1 0xE0 SHL PUSH0 MSTORE PUSH1 0x11 PUSH1 0x4 MSTORE PUSH1 0x24 PUSH0 REVERT JUMPDEST PUSH1 0x1 DUP2 DUP2 JUMPDEST DUP1 DUP6 GT ISZERO PUSH3 0x3AB JUMPI DUP2 PUSH0 NOT DIV DUP3 GT ISZERO PUSH3 0x38F JUMPI PUSH3 0x38F PUSH3 0x357 JUMP JUMPDEST DUP1 DUP6 AND ISZERO PUSH3 0x39D JUMPI SWAP2 DUP2 MUL SWAP2 JUMPDEST SWAP4 DUP5 SHR SWAP4 SWAP1 DUP1 MUL SWAP1 PUSH3 0x370 JUMP JUMPDEST POP SWAP3 POP SWAP3 SWAP1 POP JUMP JUMPDEST PUSH0 DUP3 PUSH3 0x3C3 JUMPI POP PUSH1 0x1 PUSH3 0x460 JUMP JUMPDEST DUP2 PUSH3 0x3D1 JUMPI POP PUSH0 PUSH3 0x460 JUMP JUMPDEST DUP2 PUSH1 0x1 DUP2 EQ PUSH3 0x3EA JUMPI PUSH1 0x2 DUP2 EQ PUSH3 0x3F5 JUMPI PUSH3 0x415 JUMP JUMPDEST PUSH1 0x1 SWAP2 POP POP PUSH3 0x460 JUMP JUMPDEST PUSH1 0xFF DUP5 GT ISZERO PUSH3 0x409 JUMPI PUSH3 0x409 PUSH3 0x357 JUMP JUMPDEST POP POP PUSH1 0x1 DUP3 SHL PUSH3 0x460 JUMP JUMPDEST POP PUSH1 0x20 DUP4 LT PUSH2 0x133 DUP4 LT AND PUSH1 0x4E DUP5 LT PUSH1 0xB DUP5 LT AND OR ISZERO PUSH3 0x43A JUMPI POP DUP2 DUP2 EXP PUSH3 0x460 JUMP JUMPDEST PUSH3 0x446 DUP4 DUP4 PUSH3 0x36B JUMP JUMPDEST DUP1 PUSH0 NOT DIV DUP3 GT ISZERO PUSH3 0x45C JUMPI PUSH3 0x45C PUSH3 0x357 JUMP JUMPDEST MUL SWAP1 POP JUMPDEST SWAP3 SWAP2 POP POP JUMP JUMPDEST PUSH0 PUSH3 0x476 PUSH1 0xFF DUP5 AND DUP4 PUSH3 0x3B3 JUMP JUMPDEST SWAP4 SWAP3 POP POP POP JUMP JUMPDEST DUP1 DUP3 MUL DUP2 ISZERO DUP3 DUP3 DIV DUP5 EQ OR PUSH3 0x460 JUMPI PUSH3 0x460 PUSH3 0x357 JUMP JUMPDEST DUP1 DUP3 ADD DUP1 DUP3 GT ISZERO PUSH3 0x460 JUMPI PUSH3 0x460 PUSH3 0x357 JUMP JUMPDEST DUP2 DUP2 SUB DUP2 DUP2 GT ISZERO PUSH3 0x460 JUMPI PUSH3 0x460 PUSH3 0x357 JUMP JUMPDEST PUSH2 0x647 DUP1 PUSH3 0x4D1 PUSH0 CODECOPY PUSH0 RETURN INVALID PUSH1 0x80 PUSH1 0x40 MSTORE CALLVALUE DUP1 ISZERO PUSH2 0xF JUMPI PUSH0 DUP1 REVERT JUMPDEST POP PUSH1 0x4 CALLDATASIZE LT PUSH2 0x85 JUMPI PUSH0 CALLDATALOAD PUSH1 0xE0 SHR DUP1 PUSH4 0x63B0545F GT PUSH2 0x58 JUMPI DUP1 PUSH4 0x63B0545F EQ PUSH2 0xEB JUMPI DUP1 PUSH4 0x70A08231 EQ PUSH2 0xFE JUMPI DUP1 PUSH4 0xA9059CBB EQ PUSH2 0x126 JUMPI DUP1 PUSH4 0xDD62ED3E EQ PUSH2 0x139 JUMPI PUSH0 DUP1 REVERT JUMPDEST DUP1 PUSH4 0x6FDDE03 EQ PUSH2 0x89 JUMPI DUP1 PUSH4 0x95EA7B3 EQ PUSH2 0xA7 JUMPI DUP1 PUSH4 0x18160DDD EQ PUSH2 0xCA JUMPI DUP1 PUSH4 0x313CE567 EQ PUSH2 0xDC JUMPI JUMPDEST PUSH0 DUP1 REVERT JUMPDEST PUSH2 0x91 PUSH2 0x171 JUMP JUMPDEST PUSH1 0x40 MLOAD PUSH2 0x9E SWAP2 SWAP1 PUSH2 0x486 JUMP JUMPDEST PUSH1 0x40 MLOAD DUP1 SWAP2 SUB SWAP1 RETURN JUMPDEST PUSH2 0xBA PUSH2 0xB5 CALLDATASIZE PUSH1 0x4 PUSH2 0x4ED JUMP JUMPDEST PUSH2 0x201 JUMP JUMPDEST PUSH1 0x40 MLOAD SWAP1 ISZERO ISZERO DUP2 MSTORE PUSH1 0x20 ADD PUSH2 0x9E JUMP JUMPDEST PUSH1 0x2 SLOAD JUMPDEST PUSH1 0x40 MLOAD SWAP1 DUP2 MSTORE PUSH1 0x20 ADD PUSH2 0x9E JUMP JUMPDEST PUSH1 0x40 MLOAD PUSH1 0x12 DUP2 MSTORE PUSH1 0x20 ADD PUSH2 0x9E JUMP JUMPDEST PUSH2 0xBA PUSH2 0xF9 CALLDATASIZE PUSH1 0x4 PUSH2 0x515 JUMP JUMPDEST PUSH2 0x21C JUMP JUMPDEST PUSH2 0xCE PUSH2 0x10C CALLDATASIZE PUSH1 0x4 PUSH2 0x54E JUMP JUMPDEST PUSH1 0x1 PUSH1 0x1 PUSH1 0xA0 SHL SUB AND PUSH0 SWAP1 DUP2 MSTORE PUSH1 0x20 DUP2 SWAP1 MSTORE PUSH1 0x40 SWAP1 KECCAK256 SLOAD SWAP1 JUMP JUMPDEST PUSH2 0xBA PUSH2 0x134 CALLDATASIZE PUSH1 0x4 PUSH2 0x4ED JUMP JUMPDEST PUSH2 0x23F JUMP JUMPDEST PUSH2 0xCE PUSH2 0x147 CALLDATASIZE PUSH1 0x4 PUSH2 0x56E JUMP JUMPDEST PUSH1 0x1 PUSH1 0x1 PUSH1 0xA0 SHL SUB SWAP2 DUP3 AND PUSH0 SWAP1 DUP2 MSTORE PUSH1 0x1 PUSH1 0x20 SWAP1 DUP2 MSTORE PUSH1 0x40 DUP1 DUP4 KECCAK256 SWAP4 SWAP1 SWAP5 AND DUP3 MSTORE SWAP2 SWAP1 SWAP2 MSTORE KECCAK256 SLOAD SWAP1 JUMP JUMPDEST PUSH1 0x60 PUSH1 0x3 DUP1 SLOAD PUSH2 0x180 SWAP1 PUSH2 0x59F JUMP JUMPDEST DUP1 PUSH1 0x1F ADD PUSH1 0x20 DUP1 SWAP2 DIV MUL PUSH1 0x20 ADD PUSH1 0x40 MLOAD SWAP1 DUP2 ADD PUSH1 0x40 MSTORE DUP1 SWAP3 SWAP2 SWAP1 DUP2 DUP2 MSTORE PUSH1 0x20 ADD DUP3 DUP1 SLOAD PUSH2 0x1AC SWAP1 PUSH2 0x59F JUMP JUMPDEST DUP1 ISZERO PUSH2 0x1F7 JUMPI DUP1 PUSH1 0x1F LT PUSH2 0x1CE JUMPI PUSH2 0x100 DUP1 DUP4 SLOAD DIV MUL DUP4 MSTORE SWAP2 PUSH1 0x20 ADD SWAP2 PUSH2 0x1F7 JUMP JUMPDEST DUP3 ADD SWAP2 SWAP1 PUSH0 MSTORE PUSH1 0x20 PUSH0 KECCAK256 SWAP1 JUMPDEST DUP2 SLOAD DUP2 MSTORE SWAP1 PUSH1 0x1 ADD SWAP1 PUSH1 0x20 ADD DUP1 DUP4 GT PUSH2 0x1DA JUMPI DUP3 SWAP1 SUB PUSH1 0x1F AND DUP3 ADD SWAP2 JUMPDEST POP POP POP POP POP SWAP1 POP SWAP1 JUMP JUMPDEST PUSH0 CALLER PUSH2 0x210 DUP2 DUP6 DUP6 PUSH1 0x1 PUSH2 0x24C JUMP JUMPDEST PUSH1 0x1 SWAP2 POP POP JUMPDEST SWAP3 SWAP2 POP POP JUMP JUMPDEST PUSH0 CALLER PUSH2 0x229 DUP6 DUP3 DUP6 PUSH2 0x2F1 JUMP JUMPDEST PUSH2 0x234 DUP6 DUP6 DUP6 PUSH2 0x337 JUMP JUMPDEST POP PUSH1 0x1 SWAP5 SWAP4 POP POP POP POP JUMP JUMPDEST PUSH0 CALLER PUSH2 0x210 DUP2 DUP6 DUP6 PUSH2 0x452 JUMP JUMPDEST PUSH1 0x1 PUSH1 0x1 PUSH1 0xA0 SHL SUB DUP5 AND PUSH2 0x25E JUMPI PUSH0 DUP1 REVERT JUMPDEST PUSH1 0x1 PUSH1 0x1 PUSH1 0xA0 SHL SUB DUP4 AND PUSH2 0x270 JUMPI PUSH0 DUP1 REVERT JUMPDEST PUSH1 0x1 PUSH1 0x1 PUSH1 0xA0 SHL SUB DUP1 DUP6 AND PUSH0 SWAP1 DUP2 MSTORE PUSH1 0x1 PUSH1 0x20 SWAP1 DUP2 MSTORE PUSH1 0x40 DUP1 DUP4 KECCAK256 SWAP4 DUP8 AND DUP4 MSTORE SWAP3 SWAP1 MSTORE KECCAK256 DUP3 SWAP1 SSTORE DUP1 ISZERO PUSH2 0x2EB JUMPI DUP3 PUSH1 0x1 PUSH1 0x1 PUSH1 0xA0 SHL SUB AND DUP5 PUSH1 0x1 PUSH1 0x1 PUSH1 0xA0 SHL SUB AND PUSH32 0x6E11FB1B7F119E3F2FA29896EF5FDF8B8A2D0D4DF6FE90BA8668E7D8B2FFA25E DUP5 PUSH1 0x40 MLOAD PUSH2 0x2E2 SWAP2 DUP2 MSTORE PUSH1 0x20 ADD SWAP1 JUMP JUMPDEST PUSH1 0x40 MLOAD DUP1 SWAP2 SUB SWAP1 LOG3 JUMPDEST POP POP POP POP JUMP JUMPDEST PUSH1 0x1 PUSH1 0x1 PUSH1 0xA0 SHL SUB DUP1 DUP5 AND PUSH0 SWAP1 DUP2 MSTORE PUSH1 0x1 PUSH1 0x20 SWAP1 DUP2 MSTORE PUSH1 0x40 DUP1 DUP4 KECCAK256 SWAP4 DUP7 AND DUP4 MSTORE SWAP3 SWAP1 MSTORE KECCAK256 SLOAD DUP1 DUP3 GT ISZERO PUSH2 0x322 JUMPI PUSH0 DUP1 REVERT JUMPDEST PUSH2 0x2EB DUP5 DUP5 PUSH2 0x331 DUP6 DUP6 PUSH2 0x5EB JUMP JUMPDEST PUSH0 PUSH2 0x24C JUMP JUMPDEST PUSH1 0x1 PUSH1 0x1 PUSH1 0xA0 SHL SUB DUP4 AND PUSH2 0x361 JUMPI DUP1 PUSH1 0x2 PUSH0 DUP3 DUP3 SLOAD PUSH2 0x356 SWAP2 SWAP1 PUSH2 0x5FE JUMP JUMPDEST SWAP1 SWAP2 SSTORE POP PUSH2 0x3A9 SWAP1 POP JUMP JUMPDEST PUSH1 0x1 PUSH1 0x1 PUSH1 0xA0 SHL SUB DUP4 AND PUSH0 SWAP1 DUP2 MSTORE PUSH1 0x20 DUP2 SWAP1 MSTORE PUSH1 0x40 SWAP1 KECCAK256 SLOAD DUP2 DUP2 LT ISZERO PUSH2 0x385 JUMPI PUSH0 DUP1 REVERT JUMPDEST PUSH2 0x38F DUP3 DUP3 PUSH2 0x5EB JUMP JUMPDEST PUSH1 0x1 PUSH1 0x1 PUSH1 0xA0 SHL SUB DUP6 AND PUSH0 SWAP1 DUP2 MSTORE PUSH1 0x20 DUP2 SWAP1 MSTORE PUSH1 0x40 SWAP1 KECCAK256 SSTORE POP JUMPDEST PUSH1 0x1 PUSH1 0x1 PUSH1 0xA0 SHL SUB DUP3 AND PUSH2 0x3D3 JUMPI DUP1 PUSH1 0x2 PUSH0 DUP3 DUP3 SLOAD PUSH2 0x3C8 SWAP2 SWAP1 PUSH2 0x5EB JUMP JUMPDEST SWAP1 SWAP2 SSTORE POP PUSH2 0x400 SWAP1 POP JUMP JUMPDEST PUSH1 0x1 PUSH1 0x1 PUSH1 0xA0 SHL SUB DUP3 AND PUSH0 SWAP1 DUP2 MSTORE PUSH1 0x20 DUP2 SWAP1 MSTORE PUSH1 0x40 DUP2 KECCAK256 DUP1 SLOAD DUP4 SWAP3 SWAP1 PUSH2 0x3FA SWAP1 DUP5 SWAP1 PUSH2 0x5FE JUMP JUMPDEST SWAP1 SWAP2 SSTORE POP POP JUMPDEST DUP2 PUSH1 0x1 PUSH1 0x1 PUSH1 0xA0 SHL SUB AND DUP4 PUSH1 0x1 PUSH1 0x1 PUSH1 0xA0 SHL SUB AND PUSH32 0xDDF252AD1BE2C89B69C2B068FC378DAA952BA7F163C4A11628F55A4DF523B3EF DUP4 PUSH1 0x40 MLOAD PUSH2 0x445 SWAP2 DUP2 MSTORE PUSH1 0x20 ADD SWAP1 JUMP JUMPDEST PUSH1 0x40 MLOAD DUP1 SWAP2 SUB SWAP1 LOG3 POP POP POP JUMP JUMPDEST PUSH1 0x1 PUSH1 0x1 PUSH1 0xA0 SHL SUB DUP4 AND PUSH2 0x464 JUMPI PUSH0 DUP1 REVERT JUMPDEST PUSH1 0x1 PUSH1 0x1 PUSH1 0xA0 SHL SUB DUP3 AND PUSH2 0x476 JUMPI PUSH0 DUP1 REVERT JUMPDEST PUSH2 0x481 DUP4 DUP4 DUP4 PUSH2 0x337 JUMP JUMPDEST POP POP POP JUMP JUMPDEST PUSH0 PUSH1 0x20 DUP1 DUP4 MSTORE DUP4 MLOAD DUP1 PUSH1 0x20 DUP6 ADD MSTORE PUSH0 JUMPDEST DUP2 DUP2 LT ISZERO PUSH2 0x4B2 JUMPI DUP6 DUP2 ADD DUP4 ADD MLOAD DUP6 DUP3 ADD PUSH1 0x40 ADD MSTORE DUP3 ADD PUSH2 0x496 JUMP JUMPDEST POP PUSH0 PUSH1 0x40 DUP3 DUP7 ADD ADD MSTORE PUSH1 0x40 PUSH1 0x1F NOT PUSH1 0x1F DUP4 ADD AND DUP6 ADD ADD SWAP3 POP POP POP SWAP3 SWAP2 POP POP JUMP JUMPDEST DUP1 CALLDATALOAD PUSH1 0x1 PUSH1 0x1 PUSH1 0xA0 SHL SUB DUP2 AND DUP2 EQ PUSH2 0x4E8 JUMPI PUSH0 DUP1 REVERT JUMPDEST SWAP2 SWAP1 POP JUMP JUMPDEST PUSH0 DUP1 PUSH1 0x40 DUP4 DUP6 SUB SLT ISZERO PUSH2 0x4FE JUMPI PUSH0 DUP1 REVERT JUMPDEST PUSH2 0x507 DUP4 PUSH2 0x4D2 JUMP JUMPDEST SWAP5 PUSH1 0x20 SWAP4 SWAP1 SWAP4 ADD CALLDATALOAD SWAP4 POP POP POP JUMP JUMPDEST PUSH0 DUP1 PUSH0 PUSH1 0x60 DUP5 DUP7 SUB SLT ISZERO PUSH2 0x527 JUMPI PUSH0 DUP1 REVERT JUMPDEST PUSH2 0x530 DUP5 PUSH2 0x4D2 JUMP JUMPDEST SWAP3 POP PUSH2 0x53E PUSH1 0x20 DUP6 ADD PUSH2 0x4D2 JUMP JUMPDEST SWAP2 POP PUSH1 0x40 DUP5 ADD CALLDATALOAD SWAP1 POP SWAP3 POP SWAP3 POP SWAP3 JUMP JUMPDEST PUSH0 PUSH1 0x20 DUP3 DUP5 SUB SLT ISZERO PUSH2 0x55E JUMPI PUSH0 DUP1 REVERT JUMPDEST PUSH2 0x567 DUP3 PUSH2 0x4D2 JUMP JUMPDEST SWAP4 SWAP3 POP POP POP JUMP JUMPDEST PUSH0 DUP1 PUSH1 0x40 DUP4 DUP6 SUB SLT ISZERO PUSH2 0x57F JUMPI PUSH0 DUP1 REVERT JUMPDEST PUSH2 0x588 DUP4 PUSH2 0x4D2 JUMP JUMPDEST SWAP2 POP PUSH2 0x596 PUSH1 0x20 DUP5 ADD PUSH2 0x4D2 JUMP JUMPDEST SWAP1 POP SWAP3 POP SWAP3 SWAP1 POP JUMP JUMPDEST PUSH1 0x1 DUP2 DUP2 SHR SWAP1 DUP3 AND DUP1 PUSH2 0x5B3 JUMPI PUSH1 0x7F DUP3 AND SWAP2 POP JUMPDEST PUSH1 0x20 DUP3 LT DUP2 SUB PUSH2 0x5D1 JUMPI PUSH4 0x4E487B71 PUSH1 0xE0 SHL PUSH0 MSTORE PUSH1 0x22 PUSH1 0x4 MSTORE PUSH1 0x24 PUSH0 REVERT JUMPDEST POP SWAP2 SWAP1 POP JUMP JUMPDEST PUSH4 0x4E487B71 PUSH1 0xE0 SHL PUSH0 MSTORE PUSH1 0x11 PUSH1 0x4 MSTORE PUSH1 0x24 PUSH0 REVERT JUMPDEST DUP2 DUP2 SUB DUP2 DUP2 GT ISZERO PUSH2 0x216 JUMPI PUSH2 0x216 PUSH2 0x5D7 JUMP JUMPDEST DUP1 DUP3 ADD DUP1 DUP3 GT ISZERO PUSH2 0x216 JUMPI PUSH2 0x216 PUSH2 0x5D7 JUMP INVALID LOG2 PUSH5 0x6970667358 0x22 SLT KECCAK256 0xFC 0xB5 0xDD SWAP8 0xD4 PUSH10 0x862A89782385FFC75DEB PUSH2 0xEB8C CREATE 0xAC 0xBE 0xE8 ADDRESS 0xB6 0x23 0x22 OR DUP3 0xD2 LOG3 0xCE PUSH5 0x736F6C6343 STOP ADDMOD AND STOP CALLER "
				},
				"gasEstimates": {
					"creation": {
						"codeDepositCost": "321400",
						"executionCost": "infinite",
						"totalCost": "infinite"
					},
					"external": {
						"allowance(address,address)": "infinite",
						"approve(address,uint256)": "24697",
						"balanceOf(address)": "2559",
						"decimals()": "243",
						"name()": "infinite",
						"totalSupply()": "2325",
						"transfer(address,uint256)": "infinite",
						"transferfrom(address,address,uint256)": "infinite"
					}
				},
				"methodIdentifiers": {
					"allowance(address,address)": "dd62ed3e",
					"approve(address,uint256)": "095ea7b3",
					"balanceOf(address)": "70a08231",
					"decimals()": "313ce567",
					"name()": "06fdde03",
					"totalSupply()": "18160ddd",
					"transfer(address,uint256)": "a9059cbb",
					"transferfrom(address,address,uint256)": "63b0545f"
				}
			},
			"storageLayout": {
				"storage": [
					{
						"astId": 107,
						"contract": "MyERC20.sol:MTK",
						"label": "_balances",
						"offset": 0,
						"slot": "0",
						"type": "t_mapping(t_address,t_uint256)"
					},
					{
						"astId": 113,
						"contract": "MyERC20.sol:MTK",
						"label": "_allowances",
						"offset": 0,
						"slot": "1",
						"type": "t_mapping(t_address,t_mapping(t_address,t_uint256))"
					},
					{
						"astId": 115,
						"contract": "MyERC20.sol:MTK",
						"label": "_totalSupply",
						"offset": 0,
						"slot": "2",
						"type": "t_uint256"
					},
					{
						"astId": 117,
						"contract": "MyERC20.sol:MTK",
						"label": "_name",
						"offset": 0,
						"slot": "3",
						"type": "t_string_storage"
					},
					{
						"astId": 119,
						"contract": "MyERC20.sol:MTK",
						"label": "_symbol",
						"offset": 0,
						"slot": "4",
						"type": "t_string_storage"
					}
				],
				"types": {
					"t_address": {
						"encoding": "inplace",
						"label": "address",
						"numberOfBytes": "20"
					},
					"t_mapping(t_address,t_mapping(t_address,t_uint256))": {
						"encoding": "mapping",
						"key": "t_address",
						"label": "mapping(address => mapping(address => uint256))",
						"numberOfBytes": "32",
						"value": "t_mapping(t_address,t_uint256)"
					},
					"t_mapping(t_address,t_uint256)": {
						"encoding": "mapping",
						"key": "t_address",
						"label": "mapping(address => uint256)",
						"numberOfBytes": "32",
						"value": "t_uint256"
					},
					"t_string_storage": {
						"encoding": "bytes",
						"label": "string",
						"numberOfBytes": "32"
					},
					"t_uint256": {
						"encoding": "inplace",
						"label": "uint256",
						"numberOfBytes": "32"
					}
				}
			},
			"userdoc": {
				"kind": "user",
				"methods": {},
				"version": 1
			}
		}
	}
}