{
	"src/TokenBank.sol": {
		"TokenBank": {
			"abi": [
				{
					"inputs": [
						{
							"internalType": "contract IERC20",
							"name": "_erc20",
							"type": "address"
						}
					],
					"stateMutability": "nonpayable",
					"type": "constructor"
				},
				{
					"anonymous": false,
					"inputs": [
						{
							"indexed": false,
							"internalType": "address",
							"name": "account",
							"type": "address"
						},
						{
							"indexed": false,
							"internalType": "uint256",
							"name": "value",
							"type": "uint256"
						}
					],
					"name": "Deposit",
					"type": "event"
				},
				{
					"anonymous": false,
					"inputs": [
						{
							"indexed": false,
							"internalType": "uint256",
							"name": "value",
							"type": "uint256"
						}
					],
					"name": "WithDraw",
					"type": "event"
				},
				{
					"inputs": [
						{
							"internalType": "uint256",
							"name": "value",
							"type": "uint256"
						}
					],
					"name": "deposit",
					"outputs": [],
					"stateMutability": "nonpayable",
					"type": "function"
				},
				{
					"inputs": [],
					"name": "erc20",
					"outputs": [
						{
							"internalType": "contract IERC20",
							"name": "",
							"type": "address"
						}
					],
					"stateMutability": "view",
					"type": "function"
				},
				{
					"inputs": [
						{
							"internalType": "address",
							"name": "account",
							"type": "address"
						}
					],
					"name": "getbalance",
					"outputs": [
						{
							"internalType": "uint256",
							"name": "",
							"type": "uint256"
						}
					],
					"stateMutability": "view",
					"type": "function"
				},
				{
					"inputs": [
						{
							"internalType": "address",
							"name": "from",
							"type": "address"
						},
						{
							"internalType": "uint256",
							"name": "value",
							"type": "uint256"
						}
					],
					"name": "tokenReceive",
					"outputs": [
						{
							"internalType": "bool",
							"name": "",
							"type": "bool"
						}
					],
					"stateMutability": "nonpayable",
					"type": "function"
				},
				{
					"inputs": [],
					"name": "withDraw",
					"outputs": [],
					"stateMutability": "nonpayable",
					"type": "function"
				}
			],
			"devdoc": {
				"kind": "dev",
				"methods": {},
				"version": 1
			},
			"evm": {
				"assembly": "    /* \"src/TokenBank.sol\":120:1189  contract TokenBank {... */\n  mstore(0x40, 0x80)\n    /* \"src/TokenBank.sol\":351:439  constructor(IERC20 _erc20){... */\n  callvalue\n  dup1\n  iszero\n  tag_1\n  jumpi\n  0x00\n  dup1\n  revert\ntag_1:\n  pop\n  mload(0x40)\n  sub(codesize, bytecodeSize)\n  dup1\n  bytecodeSize\n  dup4\n  codecopy\n  dup2\n  add\n  0x40\n  dup2\n  swap1\n  mstore\n  tag_2\n  swap2\n  tag_3\n  jump\t// in\ntag_2:\n    /* \"src/TokenBank.sol\":388:393  erc20 */\n  0x02\n    /* \"src/TokenBank.sol\":388:402  erc20 = _erc20 */\n  dup1\n  sload\n  sub(shl(0xa0, 0x01), 0x01)\n  swap1\n  swap3\n  and\n  not(sub(shl(0xa0, 0x01), 0x01))\n  swap3\n  dup4\n  and\n  or\n  swap1\n  sstore\n  0x01\n    /* \"src/TokenBank.sol\":413:431  admin = msg.sender */\n  dup1\n  sload\n  swap1\n  swap2\n  and\n    /* \"src/TokenBank.sol\":421:431  msg.sender */\n  caller\n    /* \"src/TokenBank.sol\":413:431  admin = msg.sender */\n  or\n  swap1\n  sstore\n    /* \"src/TokenBank.sol\":120:1189  contract TokenBank {... */\n  jump(tag_7)\n    /* \"#utility.yul\":14:317   */\ntag_3:\n    /* \"#utility.yul\":97:103   */\n  0x00\n    /* \"#utility.yul\":150:152   */\n  0x20\n    /* \"#utility.yul\":138:147   */\n  dup3\n    /* \"#utility.yul\":129:136   */\n  dup5\n    /* \"#utility.yul\":125:148   */\n  sub\n    /* \"#utility.yul\":121:153   */\n  slt\n    /* \"#utility.yul\":118:170   */\n  iszero\n  tag_9\n  jumpi\n    /* \"#utility.yul\":166:167   */\n  0x00\n    /* \"#utility.yul\":163:164   */\n  dup1\n    /* \"#utility.yul\":156:168   */\n  revert\n    /* \"#utility.yul\":118:170   */\ntag_9:\n    /* \"#utility.yul\":192:208   */\n  dup2\n  mload\n  sub(shl(0xa0, 0x01), 0x01)\n    /* \"#utility.yul\":237:268   */\n  dup2\n  and\n    /* \"#utility.yul\":227:269   */\n  dup2\n  eq\n    /* \"#utility.yul\":217:287   */\n  tag_10\n  jumpi\n    /* \"#utility.yul\":283:284   */\n  0x00\n    /* \"#utility.yul\":280:281   */\n  dup1\n    /* \"#utility.yul\":273:285   */\n  revert\n    /* \"#utility.yul\":217:287   */\ntag_10:\n    /* \"#utility.yul\":306:311   */\n  swap4\n    /* \"#utility.yul\":14:317   */\n  swap3\n  pop\n  pop\n  pop\n  jump\t// out\ntag_7:\n    /* \"src/TokenBank.sol\":120:1189  contract TokenBank {... */\n  dataSize(sub_0)\n  dup1\n  dataOffset(sub_0)\n  0x00\n  codecopy\n  0x00\n  return\nstop\n\nsub_0: assembly {\n        /* \"src/TokenBank.sol\":120:1189  contract TokenBank {... */\n      mstore(0x40, 0x80)\n      callvalue\n      dup1\n      iszero\n      tag_1\n      jumpi\n      0x00\n      dup1\n      revert\n    tag_1:\n      pop\n      jumpi(tag_2, lt(calldatasize, 0x04))\n      shr(0xe0, calldataload(0x00))\n      dup1\n      0x0fdb1c10\n      eq\n      tag_3\n      jumpi\n      dup1\n      0x503c2b0e\n      eq\n      tag_4\n      jumpi\n      dup1\n      0x68116177\n      eq\n      tag_5\n      jumpi\n      dup1\n      0x785e9e86\n      eq\n      tag_6\n      jumpi\n      dup1\n      0xb6b55f25\n      eq\n      tag_7\n      jumpi\n    tag_2:\n      0x00\n      dup1\n      revert\n        /* \"src/TokenBank.sol\":737:874  function withDraw() external {... */\n    tag_3:\n      tag_8\n      tag_9\n      jump\t// in\n    tag_8:\n      stop\n        /* \"src/TokenBank.sol\":1000:1178  function tokenReceive(address from,uint256 value) external  returns(bool){... */\n    tag_4:\n      tag_10\n      tag_11\n      calldatasize\n      0x04\n      tag_12\n      jump\t// in\n    tag_11:\n      tag_13\n      jump\t// in\n    tag_10:\n      mload(0x40)\n        /* \"#utility.yul\":616:630   */\n      swap1\n      iszero\n        /* \"#utility.yul\":609:631   */\n      iszero\n        /* \"#utility.yul\":591:632   */\n      dup2\n      mstore\n        /* \"#utility.yul\":579:581   */\n      0x20\n        /* \"#utility.yul\":564:582   */\n      add\n        /* \"src/TokenBank.sol\":1000:1178  function tokenReceive(address from,uint256 value) external  returns(bool){... */\n    tag_14:\n      mload(0x40)\n      dup1\n      swap2\n      sub\n      swap1\n      return\n        /* \"src/TokenBank.sol\":882:992  function getbalance(address account) external view returns(uint256){... */\n    tag_5:\n      tag_16\n      tag_17\n      calldatasize\n      0x04\n      tag_18\n      jump\t// in\n    tag_17:\n      sub(shl(0xa0, 0x01), 0x01)\n        /* \"src/TokenBank.sol\":967:984  _balance[account] */\n      and\n        /* \"src/TokenBank.sol\":941:948  uint256 */\n      0x00\n        /* \"src/TokenBank.sol\":967:984  _balance[account] */\n      swap1\n      dup2\n      mstore\n      0x20\n      dup2\n      swap1\n      mstore\n      0x40\n      swap1\n      keccak256\n      sload\n      swap1\n        /* \"src/TokenBank.sol\":882:992  function getbalance(address account) external view returns(uint256){... */\n      jump\n    tag_16:\n      mload(0x40)\n        /* \"#utility.yul\":980:1005   */\n      swap1\n      dup2\n      mstore\n        /* \"#utility.yul\":968:970   */\n      0x20\n        /* \"#utility.yul\":953:971   */\n      add\n        /* \"src/TokenBank.sol\":882:992  function getbalance(address account) external view returns(uint256){... */\n      tag_14\n        /* \"#utility.yul\":834:1011   */\n      jump\n        /* \"src/TokenBank.sol\":232:251  IERC20 public erc20 */\n    tag_6:\n      sload(0x02)\n      tag_22\n      swap1\n      sub(shl(0xa0, 0x01), 0x01)\n      and\n      dup2\n      jump\n    tag_22:\n      mload(0x40)\n      sub(shl(0xa0, 0x01), 0x01)\n        /* \"#utility.yul\":1193:1225   */\n      swap1\n      swap2\n      and\n        /* \"#utility.yul\":1175:1226   */\n      dup2\n      mstore\n        /* \"#utility.yul\":1163:1165   */\n      0x20\n        /* \"#utility.yul\":1148:1166   */\n      add\n        /* \"src/TokenBank.sol\":232:251  IERC20 public erc20 */\n      tag_14\n        /* \"#utility.yul\":1016:1232   */\n      jump\n        /* \"src/TokenBank.sol\":478:729  function deposit(uint256 value) external {... */\n    tag_7:\n      tag_8\n      tag_27\n      calldatasize\n      0x04\n      tag_28\n      jump\t// in\n    tag_27:\n      tag_29\n      jump\t// in\n        /* \"src/TokenBank.sol\":737:874  function withDraw() external {... */\n    tag_9:\n        /* \"src/TokenBank.sol\":785:790  erc20 */\n      sload(0x02)\n        /* \"src/TokenBank.sol\":785:849  erc20.transfer(0x347F4d8b4cd05CC921E9e3145c11D49b75C00761, 9999) */\n      mload(0x40)\n      shl(0xe0, 0xa9059cbb)\n      dup2\n      mstore\n        /* \"src/TokenBank.sol\":800:842  0x347F4d8b4cd05CC921E9e3145c11D49b75C00761 */\n      0x347f4d8b4cd05cc921e9e3145c11d49b75c00761\n        /* \"src/TokenBank.sol\":785:849  erc20.transfer(0x347F4d8b4cd05CC921E9e3145c11D49b75C00761, 9999) */\n      0x04\n      dup3\n      add\n        /* \"#utility.yul\":1607:1658   */\n      mstore\n        /* \"src/TokenBank.sol\":844:848  9999 */\n      0x270f\n        /* \"#utility.yul\":1674:1692   */\n      0x24\n      dup3\n      add\n        /* \"#utility.yul\":1667:1701   */\n      mstore\n      sub(shl(0xa0, 0x01), 0x01)\n        /* \"src/TokenBank.sol\":785:790  erc20 */\n      swap1\n      swap2\n      and\n      swap1\n        /* \"src/TokenBank.sol\":785:799  erc20.transfer */\n      0xa9059cbb\n      swap1\n        /* \"#utility.yul\":1580:1598   */\n      0x44\n      add\n        /* \"src/TokenBank.sol\":785:849  erc20.transfer(0x347F4d8b4cd05CC921E9e3145c11D49b75C00761, 9999) */\n      0x20\n      mload(0x40)\n      dup1\n      dup4\n      sub\n      dup2\n      0x00\n      dup8\n      gas\n      call\n      iszero\n      dup1\n      iszero\n      tag_34\n      jumpi\n      returndatasize\n      0x00\n      dup1\n      returndatacopy\n      revert(0x00, returndatasize)\n    tag_34:\n      pop\n      pop\n      pop\n      pop\n      mload(0x40)\n      returndatasize\n      not(0x1f)\n      0x1f\n      dup3\n      add\n      and\n      dup3\n      add\n      dup1\n      0x40\n      mstore\n      pop\n      dup2\n      add\n      swap1\n      tag_35\n      swap2\n      swap1\n      tag_36\n      jump\t// in\n    tag_35:\n        /* \"src/TokenBank.sol\":777:866  require(erc20.transfer(0x347F4d8b4cd05CC921E9e3145c11D49b75C00761, 9999),\"transfer fail\") */\n      tag_37\n      jumpi\n      mload(0x40)\n      shl(0xe5, 0x461bcd)\n      dup2\n      mstore\n        /* \"#utility.yul\":2196:2198   */\n      0x20\n        /* \"src/TokenBank.sol\":777:866  require(erc20.transfer(0x347F4d8b4cd05CC921E9e3145c11D49b75C00761, 9999),\"transfer fail\") */\n      0x04\n      dup3\n      add\n        /* \"#utility.yul\":2178:2199   */\n      mstore\n        /* \"#utility.yul\":2235:2237   */\n      0x0d\n        /* \"#utility.yul\":2215:2233   */\n      0x24\n      dup3\n      add\n        /* \"#utility.yul\":2208:2238   */\n      mstore\n      shl(0x9a, 0x1d1c985b9cd9995c8819985a5b)\n        /* \"#utility.yul\":2254:2272   */\n      0x44\n      dup3\n      add\n        /* \"#utility.yul\":2247:2290   */\n      mstore\n        /* \"#utility.yul\":2307:2325   */\n      0x64\n      add\n        /* \"src/TokenBank.sol\":777:866  require(erc20.transfer(0x347F4d8b4cd05CC921E9e3145c11D49b75C00761, 9999),\"transfer fail\") */\n    tag_38:\n      mload(0x40)\n      dup1\n      swap2\n      sub\n      swap1\n      revert\n    tag_37:\n        /* \"src/TokenBank.sol\":737:874  function withDraw() external {... */\n      jump\t// out\n        /* \"src/TokenBank.sol\":1000:1178  function tokenReceive(address from,uint256 value) external  returns(bool){... */\n    tag_13:\n        /* \"src/TokenBank.sol\":1101:1105  this */\n      address\n        /* \"src/TokenBank.sol\":1068:1072  bool */\n      0x00\n        /* \"src/TokenBank.sol\":1084:1107  _balance[address(this)] */\n      swap1\n      dup2\n      mstore\n      0x20\n      dup2\n      swap1\n      mstore\n      0x40\n      dup2\n      keccak256\n        /* \"src/TokenBank.sol\":1084:1115  _balance[address(this)] +=value */\n      dup1\n      sload\n        /* \"src/TokenBank.sol\":1110:1115  value */\n      dup4\n      swap2\n        /* \"src/TokenBank.sol\":1084:1107  _balance[address(this)] */\n      swap1\n        /* \"src/TokenBank.sol\":1068:1072  bool */\n      dup4\n      swap1\n        /* \"src/TokenBank.sol\":1084:1115  _balance[address(this)] +=value */\n      tag_41\n      swap1\n        /* \"src/TokenBank.sol\":1110:1115  value */\n      dup5\n      swap1\n        /* \"src/TokenBank.sol\":1084:1115  _balance[address(this)] +=value */\n      tag_42\n      jump\t// in\n    tag_41:\n      swap1\n      swap2\n      sstore\n      pop\n      pop\n      sub(shl(0xa0, 0x01), 0x01)\n        /* \"src/TokenBank.sol\":1126:1140  _balance[from] */\n      dup4\n      and\n        /* \"src/TokenBank.sol\":1126:1134  _balance */\n      0x00\n        /* \"src/TokenBank.sol\":1126:1140  _balance[from] */\n      swap1\n      dup2\n      mstore\n      0x20\n      dup2\n      swap1\n      mstore\n      0x40\n      dup2\n      keccak256\n        /* \"src/TokenBank.sol\":1126:1148  _balance[from] +=value */\n      dup1\n      sload\n        /* \"src/TokenBank.sol\":1143:1148  value */\n      dup5\n      swap3\n        /* \"src/TokenBank.sol\":1126:1134  _balance */\n      swap1\n        /* \"src/TokenBank.sol\":1126:1148  _balance[from] +=value */\n      tag_43\n      swap1\n        /* \"src/TokenBank.sol\":1143:1148  value */\n      dup5\n      swap1\n        /* \"src/TokenBank.sol\":1126:1148  _balance[from] +=value */\n      tag_42\n      jump\t// in\n    tag_43:\n      swap1\n      swap2\n      sstore\n      pop\n        /* \"src/TokenBank.sol\":1166:1170  true */\n      0x01\n      swap2\n      pop\n      pop\n        /* \"src/TokenBank.sol\":1000:1178  function tokenReceive(address from,uint256 value) external  returns(bool){... */\n    tag_40:\n      swap3\n      swap2\n      pop\n      pop\n      jump\t// out\n        /* \"src/TokenBank.sol\":478:729  function deposit(uint256 value) external {... */\n    tag_29:\n        /* \"src/TokenBank.sol\":577:582  erc20 */\n      sload(0x02)\n        /* \"src/TokenBank.sol\":577:626  erc20.transferFrom(account, address(this), value) */\n      mload(0x40)\n      shl(0xe0, 0x23b872dd)\n      dup2\n      mstore\n        /* \"src/TokenBank.sol\":548:558  msg.sender */\n      caller\n        /* \"src/TokenBank.sol\":577:626  erc20.transferFrom(account, address(this), value) */\n      0x04\n      dup3\n      add\n        /* \"#utility.yul\":2803:2837   */\n      dup2\n      swap1\n      mstore\n        /* \"src/TokenBank.sol\":613:617  this */\n      address\n        /* \"#utility.yul\":2853:2871   */\n      0x24\n      dup4\n      add\n        /* \"#utility.yul\":2846:2889   */\n      mstore\n        /* \"#utility.yul\":2905:2923   */\n      0x44\n      dup3\n      add\n        /* \"#utility.yul\":2898:2932   */\n      dup5\n      swap1\n      mstore\n        /* \"src/TokenBank.sol\":548:558  msg.sender */\n      swap2\n      sub(shl(0xa0, 0x01), 0x01)\n        /* \"src/TokenBank.sol\":577:582  erc20 */\n      and\n      swap1\n        /* \"src/TokenBank.sol\":577:595  erc20.transferFrom */\n      0x23b872dd\n      swap1\n        /* \"#utility.yul\":2738:2756   */\n      0x64\n      add\n        /* \"src/TokenBank.sol\":577:626  erc20.transferFrom(account, address(this), value) */\n      0x20\n      mload(0x40)\n      dup1\n      dup4\n      sub\n      dup2\n      0x00\n      dup8\n      gas\n      call\n      iszero\n      dup1\n      iszero\n      tag_49\n      jumpi\n      returndatasize\n      0x00\n      dup1\n      returndatacopy\n      revert(0x00, returndatasize)\n    tag_49:\n      pop\n      pop\n      pop\n      pop\n      mload(0x40)\n      returndatasize\n      not(0x1f)\n      0x1f\n      dup3\n      add\n      and\n      dup3\n      add\n      dup1\n      0x40\n      mstore\n      pop\n      dup2\n      add\n      swap1\n      tag_50\n      swap2\n      swap1\n      tag_36\n      jump\t// in\n    tag_50:\n        /* \"src/TokenBank.sol\":569:645  require(erc20.transferFrom(account, address(this), value),\"transfer failed\") */\n      tag_51\n      jumpi\n      mload(0x40)\n      shl(0xe5, 0x461bcd)\n      dup2\n      mstore\n        /* \"#utility.yul\":3145:3147   */\n      0x20\n        /* \"src/TokenBank.sol\":569:645  require(erc20.transferFrom(account, address(this), value),\"transfer failed\") */\n      0x04\n      dup3\n      add\n        /* \"#utility.yul\":3127:3148   */\n      mstore\n        /* \"#utility.yul\":3184:3186   */\n      0x0f\n        /* \"#utility.yul\":3164:3182   */\n      0x24\n      dup3\n      add\n        /* \"#utility.yul\":3157:3187   */\n      mstore\n      shl(0x8a, 0x1d1c985b9cd9995c8819985a5b1959)\n        /* \"#utility.yul\":3203:3221   */\n      0x44\n      dup3\n      add\n        /* \"#utility.yul\":3196:3241   */\n      mstore\n        /* \"#utility.yul\":3258:3276   */\n      0x64\n      add\n        /* \"src/TokenBank.sol\":569:645  require(erc20.transferFrom(account, address(this), value),\"transfer failed\") */\n      tag_38\n        /* \"#utility.yul\":2943:3282   */\n      jump\n        /* \"src/TokenBank.sol\":569:645  require(erc20.transferFrom(account, address(this), value),\"transfer failed\") */\n    tag_51:\n      sub(shl(0xa0, 0x01), 0x01)\n        /* \"src/TokenBank.sol\":656:673  _balance[account] */\n      dup2\n      and\n        /* \"src/TokenBank.sol\":656:664  _balance */\n      0x00\n        /* \"src/TokenBank.sol\":656:673  _balance[account] */\n      swap1\n      dup2\n      mstore\n      0x20\n      dup2\n      swap1\n      mstore\n      0x40\n      dup2\n      keccak256\n        /* \"src/TokenBank.sol\":656:682  _balance[account] += value */\n      dup1\n      sload\n        /* \"src/TokenBank.sol\":677:682  value */\n      dup5\n      swap3\n        /* \"src/TokenBank.sol\":656:664  _balance */\n      swap1\n        /* \"src/TokenBank.sol\":656:682  _balance[account] += value */\n      tag_54\n      swap1\n        /* \"src/TokenBank.sol\":677:682  value */\n      dup5\n      swap1\n        /* \"src/TokenBank.sol\":656:682  _balance[account] += value */\n      tag_42\n      jump\t// in\n    tag_54:\n      swap1\n      swap2\n      sstore\n      pop\n      pop\n        /* \"src/TokenBank.sol\":698:721  Deposit(account, value) */\n      0x40\n      dup1\n      mload\n      sub(shl(0xa0, 0x01), 0x01)\n        /* \"#utility.yul\":1625:1657   */\n      dup4\n      and\n        /* \"#utility.yul\":1607:1658   */\n      dup2\n      mstore\n        /* \"#utility.yul\":1689:1691   */\n      0x20\n        /* \"#utility.yul\":1674:1692   */\n      dup2\n      add\n        /* \"#utility.yul\":1667:1701   */\n      dup5\n      swap1\n      mstore\n        /* \"src/TokenBank.sol\":698:721  Deposit(account, value) */\n      0xe1fffcc4923d04b559f4d29a8bfc6cda04eb5b0d3c460751c2402c5c5cc9109c\n      swap2\n        /* \"#utility.yul\":1580:1598   */\n      add\n        /* \"src/TokenBank.sol\":698:721  Deposit(account, value) */\n      mload(0x40)\n      dup1\n      swap2\n      sub\n      swap1\n      log1\n        /* \"src/TokenBank.sol\":519:729  {... */\n      pop\n        /* \"src/TokenBank.sol\":478:729  function deposit(uint256 value) external {... */\n      pop\n      jump\t// out\n        /* \"#utility.yul\":14:187   */\n    tag_57:\n        /* \"#utility.yul\":82:102   */\n      dup1\n      calldataload\n      sub(shl(0xa0, 0x01), 0x01)\n        /* \"#utility.yul\":131:162   */\n      dup2\n      and\n        /* \"#utility.yul\":121:163   */\n      dup2\n      eq\n        /* \"#utility.yul\":111:181   */\n      tag_60\n      jumpi\n        /* \"#utility.yul\":177:178   */\n      0x00\n        /* \"#utility.yul\":174:175   */\n      dup1\n        /* \"#utility.yul\":167:179   */\n      revert\n        /* \"#utility.yul\":111:181   */\n    tag_60:\n        /* \"#utility.yul\":14:187   */\n      swap2\n      swap1\n      pop\n      jump\t// out\n        /* \"#utility.yul\":192:446   */\n    tag_12:\n        /* \"#utility.yul\":260:266   */\n      0x00\n        /* \"#utility.yul\":268:274   */\n      dup1\n        /* \"#utility.yul\":321:323   */\n      0x40\n        /* \"#utility.yul\":309:318   */\n      dup4\n        /* \"#utility.yul\":300:307   */\n      dup6\n        /* \"#utility.yul\":296:319   */\n      sub\n        /* \"#utility.yul\":292:324   */\n      slt\n        /* \"#utility.yul\":289:341   */\n      iszero\n      tag_62\n      jumpi\n        /* \"#utility.yul\":337:338   */\n      0x00\n        /* \"#utility.yul\":334:335   */\n      dup1\n        /* \"#utility.yul\":327:339   */\n      revert\n        /* \"#utility.yul\":289:341   */\n    tag_62:\n        /* \"#utility.yul\":360:389   */\n      tag_63\n        /* \"#utility.yul\":379:388   */\n      dup4\n        /* \"#utility.yul\":360:389   */\n      tag_57\n      jump\t// in\n    tag_63:\n        /* \"#utility.yul\":350:389   */\n      swap5\n        /* \"#utility.yul\":436:438   */\n      0x20\n        /* \"#utility.yul\":421:439   */\n      swap4\n      swap1\n      swap4\n      add\n        /* \"#utility.yul\":408:440   */\n      calldataload\n      swap4\n      pop\n      pop\n      pop\n        /* \"#utility.yul\":192:446   */\n      jump\t// out\n        /* \"#utility.yul\":643:829   */\n    tag_18:\n        /* \"#utility.yul\":702:708   */\n      0x00\n        /* \"#utility.yul\":755:757   */\n      0x20\n        /* \"#utility.yul\":743:752   */\n      dup3\n        /* \"#utility.yul\":734:741   */\n      dup5\n        /* \"#utility.yul\":730:753   */\n      sub\n        /* \"#utility.yul\":726:758   */\n      slt\n        /* \"#utility.yul\":723:775   */\n      iszero\n      tag_66\n      jumpi\n        /* \"#utility.yul\":771:772   */\n      0x00\n        /* \"#utility.yul\":768:769   */\n      dup1\n        /* \"#utility.yul\":761:773   */\n      revert\n        /* \"#utility.yul\":723:775   */\n    tag_66:\n        /* \"#utility.yul\":794:823   */\n      tag_67\n        /* \"#utility.yul\":813:822   */\n      dup3\n        /* \"#utility.yul\":794:823   */\n      tag_57\n      jump\t// in\n    tag_67:\n        /* \"#utility.yul\":784:823   */\n      swap4\n        /* \"#utility.yul\":643:829   */\n      swap3\n      pop\n      pop\n      pop\n      jump\t// out\n        /* \"#utility.yul\":1237:1417   */\n    tag_28:\n        /* \"#utility.yul\":1296:1302   */\n      0x00\n        /* \"#utility.yul\":1349:1351   */\n      0x20\n        /* \"#utility.yul\":1337:1346   */\n      dup3\n        /* \"#utility.yul\":1328:1335   */\n      dup5\n        /* \"#utility.yul\":1324:1347   */\n      sub\n        /* \"#utility.yul\":1320:1352   */\n      slt\n        /* \"#utility.yul\":1317:1369   */\n      iszero\n      tag_71\n      jumpi\n        /* \"#utility.yul\":1365:1366   */\n      0x00\n        /* \"#utility.yul\":1362:1363   */\n      dup1\n        /* \"#utility.yul\":1355:1367   */\n      revert\n        /* \"#utility.yul\":1317:1369   */\n    tag_71:\n      pop\n        /* \"#utility.yul\":1388:1411   */\n      calldataload\n      swap2\n        /* \"#utility.yul\":1237:1417   */\n      swap1\n      pop\n      jump\t// out\n        /* \"#utility.yul\":1712:1989   */\n    tag_36:\n        /* \"#utility.yul\":1779:1785   */\n      0x00\n        /* \"#utility.yul\":1832:1834   */\n      0x20\n        /* \"#utility.yul\":1820:1829   */\n      dup3\n        /* \"#utility.yul\":1811:1818   */\n      dup5\n        /* \"#utility.yul\":1807:1830   */\n      sub\n        /* \"#utility.yul\":1803:1835   */\n      slt\n        /* \"#utility.yul\":1800:1852   */\n      iszero\n      tag_74\n      jumpi\n        /* \"#utility.yul\":1848:1849   */\n      0x00\n        /* \"#utility.yul\":1845:1846   */\n      dup1\n        /* \"#utility.yul\":1838:1850   */\n      revert\n        /* \"#utility.yul\":1800:1852   */\n    tag_74:\n        /* \"#utility.yul\":1880:1889   */\n      dup2\n        /* \"#utility.yul\":1874:1890   */\n      mload\n        /* \"#utility.yul\":1933:1938   */\n      dup1\n        /* \"#utility.yul\":1926:1939   */\n      iszero\n        /* \"#utility.yul\":1919:1940   */\n      iszero\n        /* \"#utility.yul\":1912:1917   */\n      dup2\n        /* \"#utility.yul\":1909:1941   */\n      eq\n        /* \"#utility.yul\":1899:1959   */\n      tag_67\n      jumpi\n        /* \"#utility.yul\":1955:1956   */\n      0x00\n        /* \"#utility.yul\":1952:1953   */\n      dup1\n        /* \"#utility.yul\":1945:1957   */\n      revert\n        /* \"#utility.yul\":2336:2558   */\n    tag_42:\n        /* \"#utility.yul\":2401:2410   */\n      dup1\n      dup3\n      add\n        /* \"#utility.yul\":2422:2432   */\n      dup1\n      dup3\n      gt\n        /* \"#utility.yul\":2419:2552   */\n      iszero\n      tag_40\n      jumpi\n        /* \"#utility.yul\":2474:2484   */\n      0x4e487b71\n        /* \"#utility.yul\":2469:2472   */\n      0xe0\n        /* \"#utility.yul\":2465:2485   */\n      shl\n        /* \"#utility.yul\":2462:2463   */\n      0x00\n        /* \"#utility.yul\":2455:2486   */\n      mstore\n        /* \"#utility.yul\":2509:2513   */\n      0x11\n        /* \"#utility.yul\":2506:2507   */\n      0x04\n        /* \"#utility.yul\":2499:2514   */\n      mstore\n        /* \"#utility.yul\":2537:2541   */\n      0x24\n        /* \"#utility.yul\":2534:2535   */\n      0x00\n        /* \"#utility.yul\":2527:2542   */\n      revert\n\n    auxdata: 0xa2646970667358221220476e989b4f44c019af97ab75f13aa0ccf1a52e2e1afd8b39a741e5f701a3474c64736f6c63430008180033\n}\n",
				"bytecode": {
					"linkReferences": {},
					"object": "608060405234801561000f575f80fd5b506040516104d23803806104d283398101604081905261002e9161005c565b600280546001600160a01b039092166001600160a01b03199283161790556001805490911633179055610089565b5f6020828403121561006c575f80fd5b81516001600160a01b0381168114610082575f80fd5b9392505050565b61043c806100965f395ff3fe608060405234801561000f575f80fd5b5060043610610055575f3560e01c80630fdb1c1014610059578063503c2b0e14610063578063681161771461008b578063785e9e86146100c1578063b6b55f25146100ec575b5f80fd5b6100616100ff565b005b610076610071366004610369565b6101c9565b60405190151581526020015b60405180910390f35b6100b3610099366004610391565b6001600160a01b03165f9081526020819052604090205490565b604051908152602001610082565b6002546100d4906001600160a01b031681565b6040516001600160a01b039091168152602001610082565b6100616100fa3660046103b1565b610225565b60025460405163a9059cbb60e01b815273347f4d8b4cd05cc921e9e3145c11d49b75c00761600482015261270f60248201526001600160a01b039091169063a9059cbb906044016020604051808303815f875af1158015610162573d5f803e3d5ffd5b505050506040513d601f19601f8201168201806040525081019061018691906103c8565b6101c75760405162461bcd60e51b815260206004820152600d60248201526c1d1c985b9cd9995c8819985a5b609a1b60448201526064015b60405180910390fd5b565b305f908152602081905260408120805483919083906101e99084906103e7565b90915550506001600160a01b0383165f90815260208190526040812080548492906102159084906103e7565b9091555060019150505b92915050565b6002546040516323b872dd60e01b8152336004820181905230602483015260448201849052916001600160a01b0316906323b872dd906064016020604051808303815f875af115801561027a573d5f803e3d5ffd5b505050506040513d601f19601f8201168201806040525081019061029e91906103c8565b6102dc5760405162461bcd60e51b815260206004820152600f60248201526e1d1c985b9cd9995c8819985a5b1959608a1b60448201526064016101be565b6001600160a01b0381165f90815260208190526040812080548492906103039084906103e7565b9091555050604080516001600160a01b0383168152602081018490527fe1fffcc4923d04b559f4d29a8bfc6cda04eb5b0d3c460751c2402c5c5cc9109c910160405180910390a15050565b80356001600160a01b0381168114610364575f80fd5b919050565b5f806040838503121561037a575f80fd5b6103838361034e565b946020939093013593505050565b5f602082840312156103a1575f80fd5b6103aa8261034e565b9392505050565b5f602082840312156103c1575f80fd5b5035919050565b5f602082840312156103d8575f80fd5b815180151581146103aa575f80fd5b8082018082111561021f57634e487b7160e01b5f52601160045260245ffdfea2646970667358221220476e989b4f44c019af97ab75f13aa0ccf1a52e2e1afd8b39a741e5f701a3474c64736f6c63430008180033",
					"opcodes": "PUSH1 0x80 PUSH1 0x40 MSTORE CALLVALUE DUP1 ISZERO PUSH2 0xF JUMPI PUSH0 DUP1 REVERT JUMPDEST POP PUSH1 0x40 MLOAD PUSH2 0x4D2 CODESIZE SUB DUP1 PUSH2 0x4D2 DUP4 CODECOPY DUP2 ADD PUSH1 0x40 DUP2 SWAP1 MSTORE PUSH2 0x2E SWAP2 PUSH2 0x5C JUMP JUMPDEST PUSH1 0x2 DUP1 SLOAD PUSH1 0x1 PUSH1 0x1 PUSH1 0xA0 SHL SUB SWAP1 SWAP3 AND PUSH1 0x1 PUSH1 0x1 PUSH1 0xA0 SHL SUB NOT SWAP3 DUP4 AND OR SWAP1 SSTORE PUSH1 0x1 DUP1 SLOAD SWAP1 SWAP2 AND CALLER OR SWAP1 SSTORE PUSH2 0x89 JUMP JUMPDEST PUSH0 PUSH1 0x20 DUP3 DUP5 SUB SLT ISZERO PUSH2 0x6C JUMPI PUSH0 DUP1 REVERT JUMPDEST DUP2 MLOAD PUSH1 0x1 PUSH1 0x1 PUSH1 0xA0 SHL SUB DUP2 AND DUP2 EQ PUSH2 0x82 JUMPI PUSH0 DUP1 REVERT JUMPDEST SWAP4 SWAP3 POP POP POP JUMP JUMPDEST PUSH2 0x43C DUP1 PUSH2 0x96 PUSH0 CODECOPY PUSH0 RETURN INVALID PUSH1 0x80 PUSH1 0x40 MSTORE CALLVALUE DUP1 ISZERO PUSH2 0xF JUMPI PUSH0 DUP1 REVERT JUMPDEST POP PUSH1 0x4 CALLDATASIZE LT PUSH2 0x55 JUMPI PUSH0 CALLDATALOAD PUSH1 0xE0 SHR DUP1 PUSH4 0xFDB1C10 EQ PUSH2 0x59 JUMPI DUP1 PUSH4 0x503C2B0E EQ PUSH2 0x63 JUMPI DUP1 PUSH4 0x68116177 EQ PUSH2 0x8B JUMPI DUP1 PUSH4 0x785E9E86 EQ PUSH2 0xC1 JUMPI DUP1 PUSH4 0xB6B55F25 EQ PUSH2 0xEC JUMPI JUMPDEST PUSH0 DUP1 REVERT JUMPDEST PUSH2 0x61 PUSH2 0xFF JUMP JUMPDEST STOP JUMPDEST PUSH2 0x76 PUSH2 0x71 CALLDATASIZE PUSH1 0x4 PUSH2 0x369 JUMP JUMPDEST PUSH2 0x1C9 JUMP JUMPDEST PUSH1 0x40 MLOAD SWAP1 ISZERO ISZERO DUP2 MSTORE PUSH1 0x20 ADD JUMPDEST PUSH1 0x40 MLOAD DUP1 SWAP2 SUB SWAP1 RETURN JUMPDEST PUSH2 0xB3 PUSH2 0x99 CALLDATASIZE PUSH1 0x4 PUSH2 0x391 JUMP JUMPDEST PUSH1 0x1 PUSH1 0x1 PUSH1 0xA0 SHL SUB AND PUSH0 SWAP1 DUP2 MSTORE PUSH1 0x20 DUP2 SWAP1 MSTORE PUSH1 0x40 SWAP1 KECCAK256 SLOAD SWAP1 JUMP JUMPDEST PUSH1 0x40 MLOAD SWAP1 DUP2 MSTORE PUSH1 0x20 ADD PUSH2 0x82 JUMP JUMPDEST PUSH1 0x2 SLOAD PUSH2 0xD4 SWAP1 PUSH1 0x1 PUSH1 0x1 PUSH1 0xA0 SHL SUB AND DUP2 JUMP JUMPDEST PUSH1 0x40 MLOAD PUSH1 0x1 PUSH1 0x1 PUSH1 0xA0 SHL SUB SWAP1 SWAP2 AND DUP2 MSTORE PUSH1 0x20 ADD PUSH2 0x82 JUMP JUMPDEST PUSH2 0x61 PUSH2 0xFA CALLDATASIZE PUSH1 0x4 PUSH2 0x3B1 JUMP JUMPDEST PUSH2 0x225 JUMP JUMPDEST PUSH1 0x2 SLOAD PUSH1 0x40 MLOAD PUSH4 0xA9059CBB PUSH1 0xE0 SHL DUP2 MSTORE PUSH20 0x347F4D8B4CD05CC921E9E3145C11D49B75C00761 PUSH1 0x4 DUP3 ADD MSTORE PUSH2 0x270F PUSH1 0x24 DUP3 ADD MSTORE PUSH1 0x1 PUSH1 0x1 PUSH1 0xA0 SHL SUB SWAP1 SWAP2 AND SWAP1 PUSH4 0xA9059CBB SWAP1 PUSH1 0x44 ADD PUSH1 0x20 PUSH1 0x40 MLOAD DUP1 DUP4 SUB DUP2 PUSH0 DUP8 GAS CALL ISZERO DUP1 ISZERO PUSH2 0x162 JUMPI RETURNDATASIZE PUSH0 DUP1 RETURNDATACOPY RETURNDATASIZE PUSH0 REVERT JUMPDEST POP POP POP POP PUSH1 0x40 MLOAD RETURNDATASIZE PUSH1 0x1F NOT PUSH1 0x1F DUP3 ADD AND DUP3 ADD DUP1 PUSH1 0x40 MSTORE POP DUP2 ADD SWAP1 PUSH2 0x186 SWAP2 SWAP1 PUSH2 0x3C8 JUMP JUMPDEST PUSH2 0x1C7 JUMPI PUSH1 0x40 MLOAD PUSH3 0x461BCD PUSH1 0xE5 SHL DUP2 MSTORE PUSH1 0x20 PUSH1 0x4 DUP3 ADD MSTORE PUSH1 0xD PUSH1 0x24 DUP3 ADD MSTORE PUSH13 0x1D1C985B9CD9995C8819985A5B PUSH1 0x9A SHL PUSH1 0x44 DUP3 ADD MSTORE PUSH1 0x64 ADD JUMPDEST PUSH1 0x40 MLOAD DUP1 SWAP2 SUB SWAP1 REVERT JUMPDEST JUMP JUMPDEST ADDRESS PUSH0 SWAP1 DUP2 MSTORE PUSH1 0x20 DUP2 SWAP1 MSTORE PUSH1 0x40 DUP2 KECCAK256 DUP1 SLOAD DUP4 SWAP2 SWAP1 DUP4 SWAP1 PUSH2 0x1E9 SWAP1 DUP5 SWAP1 PUSH2 0x3E7 JUMP JUMPDEST SWAP1 SWAP2 SSTORE POP POP PUSH1 0x1 PUSH1 0x1 PUSH1 0xA0 SHL SUB DUP4 AND PUSH0 SWAP1 DUP2 MSTORE PUSH1 0x20 DUP2 SWAP1 MSTORE PUSH1 0x40 DUP2 KECCAK256 DUP1 SLOAD DUP5 SWAP3 SWAP1 PUSH2 0x215 SWAP1 DUP5 SWAP1 PUSH2 0x3E7 JUMP JUMPDEST SWAP1 SWAP2 SSTORE POP PUSH1 0x1 SWAP2 POP POP JUMPDEST SWAP3 SWAP2 POP POP JUMP JUMPDEST PUSH1 0x2 SLOAD PUSH1 0x40 MLOAD PUSH4 0x23B872DD PUSH1 0xE0 SHL DUP2 MSTORE CALLER PUSH1 0x4 DUP3 ADD DUP2 SWAP1 MSTORE ADDRESS PUSH1 0x24 DUP4 ADD MSTORE PUSH1 0x44 DUP3 ADD DUP5 SWAP1 MSTORE SWAP2 PUSH1 0x1 PUSH1 0x1 PUSH1 0xA0 SHL SUB AND SWAP1 PUSH4 0x23B872DD SWAP1 PUSH1 0x64 ADD PUSH1 0x20 PUSH1 0x40 MLOAD DUP1 DUP4 SUB DUP2 PUSH0 DUP8 GAS CALL ISZERO DUP1 ISZERO PUSH2 0x27A JUMPI RETURNDATASIZE PUSH0 DUP1 RETURNDATACOPY RETURNDATASIZE PUSH0 REVERT JUMPDEST POP POP POP POP PUSH1 0x40 MLOAD RETURNDATASIZE PUSH1 0x1F NOT PUSH1 0x1F DUP3 ADD AND DUP3 ADD DUP1 PUSH1 0x40 MSTORE POP DUP2 ADD SWAP1 PUSH2 0x29E SWAP2 SWAP1 PUSH2 0x3C8 JUMP JUMPDEST PUSH2 0x2DC JUMPI PUSH1 0x40 MLOAD PUSH3 0x461BCD PUSH1 0xE5 SHL DUP2 MSTORE PUSH1 0x20 PUSH1 0x4 DUP3 ADD MSTORE PUSH1 0xF PUSH1 0x24 DUP3 ADD MSTORE PUSH15 0x1D1C985B9CD9995C8819985A5B1959 PUSH1 0x8A SHL PUSH1 0x44 DUP3 ADD MSTORE PUSH1 0x64 ADD PUSH2 0x1BE JUMP JUMPDEST PUSH1 0x1 PUSH1 0x1 PUSH1 0xA0 SHL SUB DUP2 AND PUSH0 SWAP1 DUP2 MSTORE PUSH1 0x20 DUP2 SWAP1 MSTORE PUSH1 0x40 DUP2 KECCAK256 DUP1 SLOAD DUP5 SWAP3 SWAP1 PUSH2 0x303 SWAP1 DUP5 SWAP1 PUSH2 0x3E7 JUMP JUMPDEST SWAP1 SWAP2 SSTORE POP POP PUSH1 0x40 DUP1 MLOAD PUSH1 0x1 PUSH1 0x1 PUSH1 0xA0 SHL SUB DUP4 AND DUP2 MSTORE PUSH1 0x20 DUP2 ADD DUP5 SWAP1 MSTORE PUSH32 0xE1FFFCC4923D04B559F4D29A8BFC6CDA04EB5B0D3C460751C2402C5C5CC9109C SWAP2 ADD PUSH1 0x40 MLOAD DUP1 SWAP2 SUB SWAP1 LOG1 POP POP JUMP JUMPDEST DUP1 CALLDATALOAD PUSH1 0x1 PUSH1 0x1 PUSH1 0xA0 SHL SUB DUP2 AND DUP2 EQ PUSH2 0x364 JUMPI PUSH0 DUP1 REVERT JUMPDEST SWAP2 SWAP1 POP JUMP JUMPDEST PUSH0 DUP1 PUSH1 0x40 DUP4 DUP6 SUB SLT ISZERO PUSH2 0x37A JUMPI PUSH0 DUP1 REVERT JUMPDEST PUSH2 0x383 DUP4 PUSH2 0x34E JUMP JUMPDEST SWAP5 PUSH1 0x20 SWAP4 SWAP1 SWAP4 ADD CALLDATALOAD SWAP4 POP POP POP JUMP JUMPDEST PUSH0 PUSH1 0x20 DUP3 DUP5 SUB SLT ISZERO PUSH2 0x3A1 JUMPI PUSH0 DUP1 REVERT JUMPDEST PUSH2 0x3AA DUP3 PUSH2 0x34E JUMP JUMPDEST SWAP4 SWAP3 POP POP POP JUMP JUMPDEST PUSH0 PUSH1 0x20 DUP3 DUP5 SUB SLT ISZERO PUSH2 0x3C1 JUMPI PUSH0 DUP1 REVERT JUMPDEST POP CALLDATALOAD SWAP2 SWAP1 POP JUMP JUMPDEST PUSH0 PUSH1 0x20 DUP3 DUP5 SUB SLT ISZERO PUSH2 0x3D8 JUMPI PUSH0 DUP1 REVERT JUMPDEST DUP2 MLOAD DUP1 ISZERO ISZERO DUP2 EQ PUSH2 0x3AA JUMPI PUSH0 DUP1 REVERT JUMPDEST DUP1 DUP3 ADD DUP1 DUP3 GT ISZERO PUSH2 0x21F JUMPI PUSH4 0x4E487B71 PUSH1 0xE0 SHL PUSH0 MSTORE PUSH1 0x11 PUSH1 0x4 MSTORE PUSH1 0x24 PUSH0 REVERT INVALID LOG2 PUSH5 0x6970667358 0x22 SLT KECCAK256 SELFBALANCE PUSH15 0x989B4F44C019AF97AB75F13AA0CCF1 0xA5 0x2E 0x2E BYTE REVERT DUP12 CODECOPY 0xA7 COINBASE 0xE5 0xF7 ADD LOG3 SELFBALANCE 0x4C PUSH5 0x736F6C6343 STOP ADDMOD XOR STOP CALLER "
				},
				"gasEstimates": {
					"creation": {
						"codeDepositCost": "216800",
						"executionCost": "infinite",
						"totalCost": "infinite"
					},
					"external": {
						"deposit(uint256)": "infinite",
						"erc20()": "2380",
						"getbalance(address)": "2559",
						"tokenReceive(address,uint256)": "infinite",
						"withDraw()": "infinite"
					}
				},
				"methodIdentifiers": {
					"deposit(uint256)": "b6b55f25",
					"erc20()": "785e9e86",
					"getbalance(address)": "68116177",
					"tokenReceive(address,uint256)": "503c2b0e",
					"withDraw()": "0fdb1c10"
				}
			},
			"storageLayout": {
				"storage": [
					{
						"astId": 88,
						"contract": "src/TokenBank.sol:TokenBank",
						"label": "_balance",
						"offset": 0,
						"slot": "0",
						"type": "t_mapping(t_address,t_uint256)"
					},
					{
						"astId": 90,
						"contract": "src/TokenBank.sol:TokenBank",
						"label": "admin",
						"offset": 0,
						"slot": "1",
						"type": "t_address"
					},
					{
						"astId": 93,
						"contract": "src/TokenBank.sol:TokenBank",
						"label": "erc20",
						"offset": 0,
						"slot": "2",
						"type": "t_contract(IERC20)81"
					}
				],
				"types": {
					"t_address": {
						"encoding": "inplace",
						"label": "address",
						"numberOfBytes": "20"
					},
					"t_contract(IERC20)81": {
						"encoding": "inplace",
						"label": "contract IERC20",
						"numberOfBytes": "20"
					},
					"t_mapping(t_address,t_uint256)": {
						"encoding": "mapping",
						"key": "t_address",
						"label": "mapping(address => uint256)",
						"numberOfBytes": "32",
						"value": "t_uint256"
					},
					"t_uint256": {
						"encoding": "inplace",
						"label": "uint256",
						"numberOfBytes": "32"
					}
				}
			},
			"userdoc": {
				"kind": "user",
				"methods": {},
				"version": 1
			}
		}
	}
}