{
	"BankMappingList.sol": {
		"MyBank": {
			"abi": [
				{
					"inputs": [],
					"stateMutability": "nonpayable",
					"type": "constructor"
				},
				{
					"anonymous": false,
					"inputs": [
						{
							"indexed": false,
							"internalType": "address",
							"name": "account",
							"type": "address"
						},
						{
							"indexed": false,
							"internalType": "uint256",
							"name": "value",
							"type": "uint256"
						}
					],
					"name": "Deposit",
					"type": "event"
				},
				{
					"anonymous": false,
					"inputs": [
						{
							"indexed": false,
							"internalType": "uint256",
							"name": "value",
							"type": "uint256"
						}
					],
					"name": "Withdraw",
					"type": "event"
				},
				{
					"inputs": [
						{
							"internalType": "address",
							"name": "Account",
							"type": "address"
						},
						{
							"internalType": "uint256",
							"name": "balance",
							"type": "uint256"
						},
						{
							"internalType": "address",
							"name": "candidateAccount",
							"type": "address"
						}
					],
					"name": "addAccount",
					"outputs": [],
					"stateMutability": "nonpayable",
					"type": "function"
				},
				{
					"inputs": [],
					"name": "deposit",
					"outputs": [],
					"stateMutability": "payable",
					"type": "function"
				},
				{
					"inputs": [
						{
							"internalType": "address",
							"name": "account",
							"type": "address"
						}
					],
					"name": "getBalance",
					"outputs": [
						{
							"internalType": "uint256",
							"name": "",
							"type": "uint256"
						}
					],
					"stateMutability": "view",
					"type": "function"
				},
				{
					"inputs": [
						{
							"internalType": "uint256",
							"name": "k",
							"type": "uint256"
						}
					],
					"name": "getTop",
					"outputs": [
						{
							"internalType": "address[]",
							"name": "",
							"type": "address[]"
						}
					],
					"stateMutability": "view",
					"type": "function"
				},
				{
					"inputs": [
						{
							"internalType": "address",
							"name": "Account",
							"type": "address"
						},
						{
							"internalType": "uint256",
							"name": "balance",
							"type": "uint256"
						},
						{
							"internalType": "address",
							"name": "oldCandidateAccount",
							"type": "address"
						},
						{
							"internalType": "address",
							"name": "newCandidateAccount",
							"type": "address"
						}
					],
					"name": "increasebalance",
					"outputs": [],
					"stateMutability": "nonpayable",
					"type": "function"
				},
				{
					"inputs": [],
					"name": "listSize",
					"outputs": [
						{
							"internalType": "uint256",
							"name": "",
							"type": "uint256"
						}
					],
					"stateMutability": "view",
					"type": "function"
				},
				{
					"inputs": [
						{
							"internalType": "address",
							"name": "Account",
							"type": "address"
						},
						{
							"internalType": "uint256",
							"name": "balance",
							"type": "uint256"
						},
						{
							"internalType": "address",
							"name": "oldCandidateAccount",
							"type": "address"
						},
						{
							"internalType": "address",
							"name": "newCandidateAccount",
							"type": "address"
						}
					],
					"name": "reducebalance",
					"outputs": [],
					"stateMutability": "nonpayable",
					"type": "function"
				},
				{
					"inputs": [
						{
							"internalType": "address",
							"name": "Account",
							"type": "address"
						},
						{
							"internalType": "address",
							"name": "candidateAccount",
							"type": "address"
						}
					],
					"name": "removeAccount",
					"outputs": [],
					"stateMutability": "nonpayable",
					"type": "function"
				},
				{
					"inputs": [
						{
							"internalType": "address",
							"name": "Account",
							"type": "address"
						},
						{
							"internalType": "uint256",
							"name": "newbalance",
							"type": "uint256"
						},
						{
							"internalType": "address",
							"name": "oldCandidateAccount",
							"type": "address"
						},
						{
							"internalType": "address",
							"name": "newCandidateAccount",
							"type": "address"
						}
					],
					"name": "updatebalance",
					"outputs": [],
					"stateMutability": "nonpayable",
					"type": "function"
				},
				{
					"inputs": [],
					"name": "withdraw",
					"outputs": [],
					"stateMutability": "nonpayable",
					"type": "function"
				}
			],
			"devdoc": {
				"kind": "dev",
				"methods": {},
				"version": 1
			},
			"evm": {
				"assembly": "    /* \"BankMappingList.sol\":59:3960  contract MyBank{... */\n  mstore(0x40, 0x80)\n    /* \"BankMappingList.sol\":380:472  constructor(){... */\n  callvalue\n  dup1\n  iszero\n  tag_1\n  jumpi\n  0x00\n  dup1\n  revert\ntag_1:\n  pop\n    /* \"BankMappingList.sol\":404:409  admin */\n  0x03\n    /* \"BankMappingList.sol\":404:422  admin = msg.sender */\n  dup1\n  sload\n  not(sub(shl(0xa0, 0x01), 0x01))\n  swap1\n  dup2\n  and\n    /* \"BankMappingList.sol\":412:422  msg.sender */\n  caller\n    /* \"BankMappingList.sol\":404:422  admin = msg.sender */\n  or\n  swap1\n  swap2\n  sstore\n  0x01\n    /* \"BankMappingList.sol\":404:409  admin */\n  0x00\n    /* \"BankMappingList.sol\":434:454  _nextAccounts[GUARD] */\n  dup2\n  swap1\n  mstore\n  0x20\n  dup2\n  swap1\n  mstore\n  0xcc69885fda6bcc1a4ace058b4a62bf5e179ea78fd58a1ccd71c22cc9b688792f\n    /* \"BankMappingList.sol\":434:462  _nextAccounts[GUARD] = GUARD */\n  dup1\n  sload\n  swap1\n  swap3\n  and\n  or\n  swap1\n  sstore\n    /* \"BankMappingList.sol\":59:3960  contract MyBank{... */\n  dataSize(sub_0)\n  dup1\n  dataOffset(sub_0)\n  0x00\n  codecopy\n  0x00\n  return\nstop\n\nsub_0: assembly {\n        /* \"BankMappingList.sol\":59:3960  contract MyBank{... */\n      mstore(0x40, 0x80)\n      jumpi(tag_1, lt(calldatasize, 0x04))\n      shr(0xe0, calldataload(0x00))\n      dup1\n      0x972c5356\n      gt\n      tag_12\n      jumpi\n      dup1\n      0x972c5356\n      eq\n      tag_7\n      jumpi\n      dup1\n      0xd0e30db0\n      eq\n      tag_8\n      jumpi\n      dup1\n      0xd44bac52\n      eq\n      tag_9\n      jumpi\n      dup1\n      0xdf169394\n      eq\n      tag_10\n      jumpi\n      dup1\n      0xf8b2cb4f\n      eq\n      tag_11\n      jumpi\n      0x00\n      dup1\n      revert\n    tag_12:\n      dup1\n      0x15ebec\n      eq\n      tag_2\n      jumpi\n      dup1\n      0x2b0c2fba\n      eq\n      tag_3\n      jumpi\n      dup1\n      0x37caa8b6\n      eq\n      tag_4\n      jumpi\n      dup1\n      0x3ccfd60b\n      eq\n      tag_5\n      jumpi\n      dup1\n      0x5e4d0f83\n      eq\n      tag_6\n      jumpi\n    tag_1:\n      0x00\n      dup1\n      revert\n        /* \"BankMappingList.sol\":1795:2051  function reducebalance(... */\n    tag_2:\n      callvalue\n      dup1\n      iszero\n      tag_13\n      jumpi\n      0x00\n      dup1\n      revert\n    tag_13:\n      pop\n      tag_14\n      tag_15\n      calldatasize\n      0x04\n      tag_16\n      jump\t// in\n    tag_15:\n      tag_17\n      jump\t// in\n    tag_14:\n      stop\n        /* \"BankMappingList.sol\":2059:2779  function updatebalance(... */\n    tag_3:\n      callvalue\n      dup1\n      iszero\n      tag_18\n      jumpi\n      0x00\n      dup1\n      revert\n    tag_18:\n      pop\n      tag_14\n      tag_20\n      calldatasize\n      0x04\n      tag_16\n      jump\t// in\n    tag_20:\n      tag_21\n      jump\t// in\n        /* \"BankMappingList.sol\":3133:3507  function getTop(uint256 k) public view returns(address[] memory) {... */\n    tag_4:\n      callvalue\n      dup1\n      iszero\n      tag_22\n      jumpi\n      0x00\n      dup1\n      revert\n    tag_22:\n      pop\n      tag_23\n      tag_24\n      calldatasize\n      0x04\n      tag_25\n      jump\t// in\n    tag_24:\n      tag_26\n      jump\t// in\n    tag_23:\n      mload(0x40)\n      tag_27\n      swap2\n      swap1\n      tag_28\n      jump\t// in\n    tag_27:\n      mload(0x40)\n      dup1\n      swap2\n      sub\n      swap1\n      return\n        /* \"BankMappingList.sol\":686:941  function withdraw() external{... */\n    tag_5:\n      callvalue\n      dup1\n      iszero\n      tag_29\n      jumpi\n      0x00\n      dup1\n      revert\n    tag_29:\n      pop\n      tag_14\n      tag_31\n      jump\t// in\n        /* \"BankMappingList.sol\":1065:1521  function addAccount(address Account, uint256 balance, address candidateAccount) public {... */\n    tag_6:\n      callvalue\n      dup1\n      iszero\n      tag_32\n      jumpi\n      0x00\n      dup1\n      revert\n    tag_32:\n      pop\n      tag_14\n      tag_34\n      calldatasize\n      0x04\n      tag_35\n      jump\t// in\n    tag_34:\n      tag_36\n      jump\t// in\n        /* \"BankMappingList.sol\":187:210  uint256 public listSize */\n    tag_7:\n      callvalue\n      dup1\n      iszero\n      tag_37\n      jumpi\n      0x00\n      dup1\n      revert\n    tag_37:\n      pop\n      tag_38\n      sload(0x02)\n      dup2\n      jump\n    tag_38:\n      mload(0x40)\n        /* \"#utility.yul\":1927:1952   */\n      swap1\n      dup2\n      mstore\n        /* \"#utility.yul\":1915:1917   */\n      0x20\n        /* \"#utility.yul\":1900:1918   */\n      add\n        /* \"BankMappingList.sol\":187:210  uint256 public listSize */\n      tag_27\n        /* \"#utility.yul\":1781:1958   */\n      jump\n        /* \"BankMappingList.sol\":480:678  function deposit() external payable{... */\n    tag_8:\n      tag_14\n      tag_43\n      jump\t// in\n        /* \"BankMappingList.sol\":2787:3125  function removeAccount(address Account, address candidateAccount) public {... */\n    tag_9:\n      callvalue\n      dup1\n      iszero\n      tag_44\n      jumpi\n      0x00\n      dup1\n      revert\n    tag_44:\n      pop\n      tag_14\n      tag_46\n      calldatasize\n      0x04\n      tag_47\n      jump\t// in\n    tag_46:\n      tag_48\n      jump\t// in\n        /* \"BankMappingList.sol\":1529:1787  function increasebalance(... */\n    tag_10:\n      callvalue\n      dup1\n      iszero\n      tag_49\n      jumpi\n      0x00\n      dup1\n      revert\n    tag_49:\n      pop\n      tag_14\n      tag_51\n      calldatasize\n      0x04\n      tag_16\n      jump\t// in\n    tag_51:\n      tag_52\n      jump\t// in\n        /* \"BankMappingList.sol\":949:1057  function getBalance(address account) public view returns(uint256){... */\n    tag_11:\n      callvalue\n      dup1\n      iszero\n      tag_53\n      jumpi\n      0x00\n      dup1\n      revert\n    tag_53:\n      pop\n      tag_38\n      tag_55\n      calldatasize\n      0x04\n      tag_56\n      jump\t// in\n    tag_55:\n      sub(shl(0xa0, 0x01), 0x01)\n        /* \"BankMappingList.sol\":1032:1049  balances[account] */\n      and\n        /* \"BankMappingList.sol\":1006:1013  uint256 */\n      0x00\n        /* \"BankMappingList.sol\":1032:1049  balances[account] */\n      swap1\n      dup2\n      mstore\n      0x20\n      dup2\n      swap1\n      mstore\n      0x40\n      swap1\n      keccak256\n      sload\n      swap1\n        /* \"BankMappingList.sol\":949:1057  function getBalance(address account) public view returns(uint256){... */\n      jump\n        /* \"BankMappingList.sol\":1795:2051  function reducebalance(... */\n    tag_17:\n      sub(shl(0xa0, 0x01), 0x01)\n        /* \"BankMappingList.sol\":1975:1992  balances[Account] */\n      dup5\n      and\n        /* \"BankMappingList.sol\":1975:1983  balances */\n      0x00\n        /* \"BankMappingList.sol\":1975:1992  balances[Account] */\n      swap1\n      dup2\n      mstore\n      0x20\n      dup2\n      swap1\n      mstore\n      0x40\n      swap1\n      keccak256\n      sload\n        /* \"BankMappingList.sol\":1952:2045  updatebalance(Account, balances[Account] - balance, oldCandidateAccount, newCandidateAccount) */\n      tag_60\n      swap1\n        /* \"BankMappingList.sol\":1966:1973  Account */\n      dup6\n      swap1\n        /* \"BankMappingList.sol\":1975:2002  balances[Account] - balance */\n      tag_61\n      swap1\n        /* \"BankMappingList.sol\":1995:2002  balance */\n      dup7\n      swap1\n        /* \"BankMappingList.sol\":1975:2002  balances[Account] - balance */\n      tag_62\n      jump\t// in\n    tag_61:\n        /* \"BankMappingList.sol\":2004:2023  oldCandidateAccount */\n      dup5\n        /* \"BankMappingList.sol\":2025:2044  newCandidateAccount */\n      dup5\n        /* \"BankMappingList.sol\":1952:1965  updatebalance */\n      tag_21\n        /* \"BankMappingList.sol\":1952:2045  updatebalance(Account, balances[Account] - balance, oldCandidateAccount, newCandidateAccount) */\n      jump\t// in\n    tag_60:\n        /* \"BankMappingList.sol\":1795:2051  function reducebalance(... */\n      pop\n      pop\n      pop\n      pop\n      jump\t// out\n        /* \"BankMappingList.sol\":2059:2779  function updatebalance(... */\n    tag_21:\n      sub(shl(0xa0, 0x01), 0x01)\n        /* \"BankMappingList.sol\":2227:2249  _nextAccounts[Account] */\n      dup5\n      dup2\n      and\n        /* \"BankMappingList.sol\":2261:2262  0 */\n      0x00\n        /* \"BankMappingList.sol\":2227:2249  _nextAccounts[Account] */\n      swap1\n      dup2\n      mstore\n        /* \"BankMappingList.sol\":2227:2240  _nextAccounts */\n      0x01\n        /* \"BankMappingList.sol\":2227:2249  _nextAccounts[Account] */\n      0x20\n      mstore\n      0x40\n      swap1\n      keccak256\n      sload\n      and\n        /* \"BankMappingList.sol\":2219:2264  require(_nextAccounts[Account] != address(0)) */\n      tag_64\n      jumpi\n      0x00\n      dup1\n      revert\n    tag_64:\n      sub(shl(0xa0, 0x01), 0x01)\n        /* \"BankMappingList.sol\":2279:2313  _nextAccounts[oldCandidateAccount] */\n      dup3\n      dup2\n      and\n        /* \"BankMappingList.sol\":2325:2326  0 */\n      0x00\n        /* \"BankMappingList.sol\":2279:2313  _nextAccounts[oldCandidateAccount] */\n      swap1\n      dup2\n      mstore\n        /* \"BankMappingList.sol\":2279:2292  _nextAccounts */\n      0x01\n        /* \"BankMappingList.sol\":2279:2313  _nextAccounts[oldCandidateAccount] */\n      0x20\n      mstore\n      0x40\n      swap1\n      keccak256\n      sload\n      and\n        /* \"BankMappingList.sol\":2271:2328  require(_nextAccounts[oldCandidateAccount] != address(0)) */\n      tag_65\n      jumpi\n      0x00\n      dup1\n      revert\n    tag_65:\n      sub(shl(0xa0, 0x01), 0x01)\n        /* \"BankMappingList.sol\":2343:2377  _nextAccounts[newCandidateAccount] */\n      dup2\n      dup2\n      and\n        /* \"BankMappingList.sol\":2389:2390  0 */\n      0x00\n        /* \"BankMappingList.sol\":2343:2377  _nextAccounts[newCandidateAccount] */\n      swap1\n      dup2\n      mstore\n        /* \"BankMappingList.sol\":2343:2356  _nextAccounts */\n      0x01\n        /* \"BankMappingList.sol\":2343:2377  _nextAccounts[newCandidateAccount] */\n      0x20\n      mstore\n      0x40\n      swap1\n      keccak256\n      sload\n      and\n        /* \"BankMappingList.sol\":2335:2392  require(_nextAccounts[newCandidateAccount] != address(0)) */\n      tag_66\n      jumpi\n      0x00\n      dup1\n      revert\n    tag_66:\n        /* \"BankMappingList.sol\":2425:2444  newCandidateAccount */\n      dup1\n      sub(shl(0xa0, 0x01), 0x01)\n        /* \"BankMappingList.sol\":2402:2444  oldCandidateAccount == newCandidateAccount */\n      and\n        /* \"BankMappingList.sol\":2402:2421  oldCandidateAccount */\n      dup3\n      sub(shl(0xa0, 0x01), 0x01)\n        /* \"BankMappingList.sol\":2402:2444  oldCandidateAccount == newCandidateAccount */\n      and\n      sub\n        /* \"BankMappingList.sol\":2399:2774  if(oldCandidateAccount == newCandidateAccount)... */\n      tag_67\n      jumpi\n        /* \"BankMappingList.sol\":2468:2512  _isPrevAccount(Account, oldCandidateAccount) */\n      tag_68\n        /* \"BankMappingList.sol\":2483:2490  Account */\n      dup5\n        /* \"BankMappingList.sol\":2492:2511  oldCandidateAccount */\n      dup4\n        /* \"BankMappingList.sol\":2468:2482  _isPrevAccount */\n      tag_69\n        /* \"BankMappingList.sol\":2468:2512  _isPrevAccount(Account, oldCandidateAccount) */\n      jump\t// in\n    tag_68:\n        /* \"BankMappingList.sol\":2460:2513  require(_isPrevAccount(Account, oldCandidateAccount)) */\n      tag_70\n      jumpi\n      0x00\n      dup1\n      revert\n    tag_70:\n      sub(shl(0xa0, 0x01), 0x01)\n        /* \"BankMappingList.sol\":2576:2598  _nextAccounts[Account] */\n      dup1\n      dup6\n      and\n      0x00\n      swap1\n      dup2\n      mstore\n        /* \"BankMappingList.sol\":2576:2589  _nextAccounts */\n      0x01\n        /* \"BankMappingList.sol\":2576:2598  _nextAccounts[Account] */\n      0x20\n      mstore\n      0x40\n      swap1\n      keccak256\n      sload\n        /* \"BankMappingList.sol\":2530:2599  _verifyIndex(newCandidateAccount, newbalance, _nextAccounts[Account]) */\n      tag_71\n      swap2\n        /* \"BankMappingList.sol\":2543:2562  newCandidateAccount */\n      dup4\n      swap2\n        /* \"BankMappingList.sol\":2564:2574  newbalance */\n      dup7\n      swap2\n        /* \"BankMappingList.sol\":2576:2598  _nextAccounts[Account] */\n      and\n        /* \"BankMappingList.sol\":2530:2542  _verifyIndex */\n      tag_72\n        /* \"BankMappingList.sol\":2530:2599  _verifyIndex(newCandidateAccount, newbalance, _nextAccounts[Account]) */\n      jump\t// in\n    tag_71:\n        /* \"BankMappingList.sol\":2522:2600  require(_verifyIndex(newCandidateAccount, newbalance, _nextAccounts[Account])) */\n      tag_73\n      jumpi\n      0x00\n      dup1\n      revert\n    tag_73:\n      sub(shl(0xa0, 0x01), 0x01)\n        /* \"BankMappingList.sol\":2609:2626  balances[Account] */\n      dup5\n      and\n        /* \"BankMappingList.sol\":2609:2617  balances */\n      0x00\n        /* \"BankMappingList.sol\":2609:2626  balances[Account] */\n      swap1\n      dup2\n      mstore\n      0x20\n      dup2\n      swap1\n      mstore\n      0x40\n      swap1\n      keccak256\n        /* \"BankMappingList.sol\":2609:2639  balances[Account] = newbalance */\n      dup4\n      swap1\n      sstore\n        /* \"BankMappingList.sol\":2399:2774  if(oldCandidateAccount == newCandidateAccount)... */\n      jump(tag_60)\n    tag_67:\n        /* \"BankMappingList.sol\":2662:2705  removeAccount(Account, oldCandidateAccount) */\n      tag_75\n        /* \"BankMappingList.sol\":2676:2683  Account */\n      dup5\n        /* \"BankMappingList.sol\":2685:2704  oldCandidateAccount */\n      dup4\n        /* \"BankMappingList.sol\":2662:2675  removeAccount */\n      tag_48\n        /* \"BankMappingList.sol\":2662:2705  removeAccount(Account, oldCandidateAccount) */\n      jump\t// in\n    tag_75:\n        /* \"BankMappingList.sol\":2714:2766  addAccount(Account, newbalance, newCandidateAccount) */\n      tag_60\n        /* \"BankMappingList.sol\":2725:2732  Account */\n      dup5\n        /* \"BankMappingList.sol\":2734:2744  newbalance */\n      dup5\n        /* \"BankMappingList.sol\":2746:2765  newCandidateAccount */\n      dup4\n        /* \"BankMappingList.sol\":2714:2724  addAccount */\n      tag_36\n        /* \"BankMappingList.sol\":2714:2766  addAccount(Account, newbalance, newCandidateAccount) */\n      jump\t// in\n        /* \"BankMappingList.sol\":3133:3507  function getTop(uint256 k) public view returns(address[] memory) {... */\n    tag_26:\n        /* \"BankMappingList.sol\":3180:3196  address[] memory */\n      0x60\n        /* \"BankMappingList.sol\":3218:3226  listSize */\n      sload(0x02)\n        /* \"BankMappingList.sol\":3213:3214  k */\n      dup3\n        /* \"BankMappingList.sol\":3213:3226  k <= listSize */\n      gt\n      iszero\n        /* \"BankMappingList.sol\":3205:3227  require(k <= listSize) */\n      tag_78\n      jumpi\n      0x00\n      dup1\n      revert\n    tag_78:\n        /* \"BankMappingList.sol\":3234:3263  address[] memory AccountLists */\n      0x00\n        /* \"BankMappingList.sol\":3280:3281  k */\n      dup3\n        /* \"BankMappingList.sol\":3266:3282  new address[](k) */\n      0xffffffffffffffff\n      dup2\n      gt\n      iszero\n      tag_80\n      jumpi\n      tag_80\n      tag_81\n      jump\t// in\n    tag_80:\n      mload(0x40)\n      swap1\n      dup1\n      dup3\n      mstore\n      dup1\n      0x20\n      mul\n      0x20\n      add\n      dup3\n      add\n      0x40\n      mstore\n      dup1\n      iszero\n      tag_82\n      jumpi\n      dup2\n      0x20\n      add\n      0x20\n      dup3\n      mul\n      dup1\n      calldatasize\n      dup4\n      calldatacopy\n      add\n      swap1\n      pop\n    tag_82:\n      pop\n        /* \"BankMappingList.sol\":3314:3327  _nextAccounts */\n      0x01\n        /* \"BankMappingList.sol\":3289:3311  address currentAddress */\n      0x00\n        /* \"BankMappingList.sol\":3314:3334  _nextAccounts[GUARD] */\n      dup2\n      dup2\n      mstore\n      0x20\n      swap2\n      swap1\n      swap2\n      mstore\n      sload(0xcc69885fda6bcc1a4ace058b4a62bf5e179ea78fd58a1ccd71c22cc9b688792f)\n        /* \"BankMappingList.sol\":3234:3282  address[] memory AccountLists = new address[](k) */\n      swap2\n      swap3\n      pop\n      sub(shl(0xa0, 0x01), 0x01)\n        /* \"BankMappingList.sol\":3314:3334  _nextAccounts[GUARD] */\n      swap1\n      swap2\n      and\n      swap1\n        /* \"BankMappingList.sol\":3341:3476  for(uint256 i = 0; i < k; ++i) {... */\n    tag_83:\n        /* \"BankMappingList.sol\":3364:3365  k */\n      dup5\n        /* \"BankMappingList.sol\":3360:3361  i */\n      dup2\n        /* \"BankMappingList.sol\":3360:3365  i < k */\n      lt\n        /* \"BankMappingList.sol\":3341:3476  for(uint256 i = 0; i < k; ++i) {... */\n      iszero\n      tag_84\n      jumpi\n        /* \"BankMappingList.sol\":3399:3413  currentAddress */\n      dup2\n        /* \"BankMappingList.sol\":3381:3393  AccountLists */\n      dup4\n        /* \"BankMappingList.sol\":3394:3395  i */\n      dup3\n        /* \"BankMappingList.sol\":3381:3396  AccountLists[i] */\n      dup2\n      mload\n      dup2\n      lt\n      tag_87\n      jumpi\n      tag_87\n      tag_88\n      jump\t// in\n    tag_87:\n      sub(shl(0xa0, 0x01), 0x01)\n        /* \"BankMappingList.sol\":3381:3413  AccountLists[i] = currentAddress */\n      swap3\n      dup4\n      and\n        /* \"BankMappingList.sol\":3381:3396  AccountLists[i] */\n      0x20\n      swap2\n      dup3\n      mul\n      swap3\n      swap1\n      swap3\n      add\n      dup2\n      add\n        /* \"BankMappingList.sol\":3381:3413  AccountLists[i] = currentAddress */\n      swap2\n      swap1\n      swap2\n      mstore\n        /* \"BankMappingList.sol\":3439:3468  _nextAccounts[currentAddress] */\n      swap3\n      dup2\n      and\n      0x00\n      swap1\n      dup2\n      mstore\n        /* \"BankMappingList.sol\":3439:3452  _nextAccounts */\n      0x01\n        /* \"BankMappingList.sol\":3439:3468  _nextAccounts[currentAddress] */\n      swap4\n      dup5\n      swap1\n      mstore\n      0x40\n      swap1\n      keccak256\n      sload\n      and\n      swap2\n        /* \"BankMappingList.sol\":3367:3370  ++i */\n      add\n        /* \"BankMappingList.sol\":3341:3476  for(uint256 i = 0; i < k; ++i) {... */\n      jump(tag_83)\n    tag_84:\n      pop\n        /* \"BankMappingList.sol\":3489:3501  AccountLists */\n      swap1\n      swap4\n        /* \"BankMappingList.sol\":3133:3507  function getTop(uint256 k) public view returns(address[] memory) {... */\n      swap3\n      pop\n      pop\n      pop\n      jump\t// out\n        /* \"BankMappingList.sol\":686:941  function withdraw() external{... */\n    tag_31:\n        /* \"BankMappingList.sol\":747:752  admin */\n      and(sub(shl(0xa0, 0x01), 0x01), sload(0x03))\n        /* \"BankMappingList.sol\":733:743  msg.sender */\n      caller\n        /* \"BankMappingList.sol\":733:752  msg.sender == admin */\n      eq\n        /* \"BankMappingList.sol\":725:766  require(msg.sender == admin,\"only admin\") */\n      tag_90\n      jumpi\n      mload(0x40)\n      shl(0xe5, 0x461bcd)\n      dup2\n      mstore\n        /* \"#utility.yul\":3150:3152   */\n      0x20\n        /* \"BankMappingList.sol\":725:766  require(msg.sender == admin,\"only admin\") */\n      0x04\n      dup3\n      add\n        /* \"#utility.yul\":3132:3153   */\n      mstore\n        /* \"#utility.yul\":3189:3191   */\n      0x0a\n        /* \"#utility.yul\":3169:3187   */\n      0x24\n      dup3\n      add\n        /* \"#utility.yul\":3162:3192   */\n      mstore\n      shl(0xb1, 0x37b7363c9030b236b4b7)\n        /* \"#utility.yul\":3208:3226   */\n      0x44\n      dup3\n      add\n        /* \"#utility.yul\":3201:3241   */\n      mstore\n        /* \"#utility.yul\":3258:3276   */\n      0x64\n      add\n        /* \"BankMappingList.sol\":725:766  require(msg.sender == admin,\"only admin\") */\n    tag_91:\n      mload(0x40)\n      dup1\n      swap2\n      sub\n      swap1\n      revert\n    tag_90:\n        /* \"BankMappingList.sol\":825:861  payable(msg.sender).transfer(amount) */\n      mload(0x40)\n        /* \"BankMappingList.sol\":793:814  address(this).balance */\n      selfbalance\n      swap1\n        /* \"BankMappingList.sol\":833:843  msg.sender */\n      caller\n      swap1\n        /* \"BankMappingList.sol\":825:861  payable(msg.sender).transfer(amount) */\n      dup3\n      iszero\n      0x08fc\n      mul\n      swap1\n        /* \"BankMappingList.sol\":793:814  address(this).balance */\n      dup4\n      swap1\n        /* \"BankMappingList.sol\":777:791  uint256 amount */\n      0x00\n        /* \"BankMappingList.sol\":825:861  payable(msg.sender).transfer(amount) */\n      dup2\n        /* \"BankMappingList.sol\":777:791  uint256 amount */\n      dup2\n        /* \"BankMappingList.sol\":825:861  payable(msg.sender).transfer(amount) */\n      dup2\n        /* \"BankMappingList.sol\":793:814  address(this).balance */\n      dup6\n        /* \"BankMappingList.sol\":833:843  msg.sender */\n      dup9\n        /* \"BankMappingList.sol\":825:861  payable(msg.sender).transfer(amount) */\n      dup9\n      call\n      swap4\n      pop\n      pop\n      pop\n      pop\n      iszero\n      dup1\n      iszero\n      tag_94\n      jumpi\n      returndatasize\n      0x00\n      dup1\n      returndatacopy\n      revert(0x00, returndatasize)\n    tag_94:\n      pop\n        /* \"BankMappingList.sol\":881:891  msg.sender */\n      caller\n        /* \"BankMappingList.sol\":872:880  balances */\n      0x00\n        /* \"BankMappingList.sol\":872:892  balances[msg.sender] */\n      swap1\n      dup2\n      mstore\n      0x20\n      dup2\n      dup2\n      mstore\n      0x40\n      swap2\n      dup3\n      swap1\n      keccak256\n        /* \"BankMappingList.sol\":872:901  balances[msg.sender] = amount */\n      dup4\n      swap1\n      sstore\n        /* \"BankMappingList.sol\":917:933  Withdraw(amount) */\n      swap1\n      mload\n        /* \"#utility.yul\":1927:1952   */\n      dup3\n      dup2\n      mstore\n        /* \"BankMappingList.sol\":917:933  Withdraw(amount) */\n      0x5b6b431d4476a211bb7d41c20d1aab9ae2321deee0d20be3d9fc9b1093fa6e3d\n      swap2\n        /* \"#utility.yul\":1900:1918   */\n      add\n        /* \"BankMappingList.sol\":917:933  Withdraw(amount) */\n      mload(0x40)\n      dup1\n      swap2\n      sub\n      swap1\n      log1\n        /* \"BankMappingList.sol\":714:941  {... */\n      pop\n        /* \"BankMappingList.sol\":686:941  function withdraw() external{... */\n      jump\t// out\n        /* \"BankMappingList.sol\":1065:1521  function addAccount(address Account, uint256 balance, address candidateAccount) public {... */\n    tag_36:\n      sub(shl(0xa0, 0x01), 0x01)\n        /* \"BankMappingList.sol\":1167:1189  _nextAccounts[Account] */\n      dup4\n      dup2\n      and\n        /* \"BankMappingList.sol\":1201:1202  0 */\n      0x00\n        /* \"BankMappingList.sol\":1167:1189  _nextAccounts[Account] */\n      swap1\n      dup2\n      mstore\n        /* \"BankMappingList.sol\":1167:1180  _nextAccounts */\n      0x01\n        /* \"BankMappingList.sol\":1167:1189  _nextAccounts[Account] */\n      0x20\n      mstore\n      0x40\n      swap1\n      keccak256\n      sload\n      and\n        /* \"BankMappingList.sol\":1167:1203  _nextAccounts[Account] == address(0) */\n      iszero\n        /* \"BankMappingList.sol\":1159:1204  require(_nextAccounts[Account] == address(0)) */\n      tag_97\n      jumpi\n      0x00\n      dup1\n      revert\n    tag_97:\n      sub(shl(0xa0, 0x01), 0x01)\n        /* \"BankMappingList.sol\":1219:1250  _nextAccounts[candidateAccount] */\n      dup2\n      dup2\n      and\n        /* \"BankMappingList.sol\":1262:1263  0 */\n      0x00\n        /* \"BankMappingList.sol\":1219:1250  _nextAccounts[candidateAccount] */\n      swap1\n      dup2\n      mstore\n        /* \"BankMappingList.sol\":1219:1232  _nextAccounts */\n      0x01\n        /* \"BankMappingList.sol\":1219:1250  _nextAccounts[candidateAccount] */\n      0x20\n      mstore\n      0x40\n      swap1\n      keccak256\n      sload\n      and\n        /* \"BankMappingList.sol\":1211:1265  require(_nextAccounts[candidateAccount] != address(0)) */\n      tag_98\n      jumpi\n      0x00\n      dup1\n      revert\n    tag_98:\n      sub(shl(0xa0, 0x01), 0x01)\n        /* \"BankMappingList.sol\":1320:1351  _nextAccounts[candidateAccount] */\n      dup1\n      dup3\n      and\n      0x00\n      swap1\n      dup2\n      mstore\n        /* \"BankMappingList.sol\":1320:1333  _nextAccounts */\n      0x01\n        /* \"BankMappingList.sol\":1320:1351  _nextAccounts[candidateAccount] */\n      0x20\n      mstore\n      0x40\n      swap1\n      keccak256\n      sload\n        /* \"BankMappingList.sol\":1280:1352  _verifyIndex(candidateAccount, balance, _nextAccounts[candidateAccount]) */\n      tag_99\n      swap2\n        /* \"BankMappingList.sol\":1293:1309  candidateAccount */\n      dup4\n      swap2\n        /* \"BankMappingList.sol\":1311:1318  balance */\n      dup6\n      swap2\n        /* \"BankMappingList.sol\":1320:1351  _nextAccounts[candidateAccount] */\n      and\n        /* \"BankMappingList.sol\":1280:1292  _verifyIndex */\n      tag_72\n        /* \"BankMappingList.sol\":1280:1352  _verifyIndex(candidateAccount, balance, _nextAccounts[candidateAccount]) */\n      jump\t// in\n    tag_99:\n        /* \"BankMappingList.sol\":1272:1353  require(_verifyIndex(candidateAccount, balance, _nextAccounts[candidateAccount])) */\n      tag_100\n      jumpi\n      0x00\n      dup1\n      revert\n    tag_100:\n      sub(shl(0xa0, 0x01), 0x01)\n        /* \"BankMappingList.sol\":1360:1377  balances[Account] */\n      dup4\n      dup2\n      and\n        /* \"BankMappingList.sol\":1360:1368  balances */\n      0x00\n        /* \"BankMappingList.sol\":1360:1377  balances[Account] */\n      dup2\n      dup2\n      mstore\n      0x20\n      dup2\n      dup2\n      mstore\n      0x40\n      dup1\n      dup4\n      keccak256\n        /* \"BankMappingList.sol\":1360:1387  balances[Account] = balance */\n      dup8\n      swap1\n      sstore\n        /* \"BankMappingList.sol\":1419:1450  _nextAccounts[candidateAccount] */\n      dup6\n      dup6\n      and\n      dup1\n      dup5\n      mstore\n        /* \"BankMappingList.sol\":1419:1432  _nextAccounts */\n      0x01\n        /* \"BankMappingList.sol\":1419:1450  _nextAccounts[candidateAccount] */\n      swap1\n      swap3\n      mstore\n      dup1\n      dup4\n      keccak256\n      dup1\n      sload\n        /* \"BankMappingList.sol\":1394:1416  _nextAccounts[Account] */\n      dup6\n      dup6\n      mstore\n      swap2\n      dup5\n      keccak256\n        /* \"BankMappingList.sol\":1394:1450  _nextAccounts[Account] = _nextAccounts[candidateAccount] */\n      dup1\n      sload\n        /* \"BankMappingList.sol\":1419:1450  _nextAccounts[candidateAccount] */\n      swap3\n      swap1\n      swap7\n      and\n      not(sub(shl(0xa0, 0x01), 0x01))\n        /* \"BankMappingList.sol\":1394:1450  _nextAccounts[Account] = _nextAccounts[candidateAccount] */\n      swap3\n      dup4\n      and\n      or\n      swap1\n      swap6\n      sstore\n        /* \"BankMappingList.sol\":1457:1488  _nextAccounts[candidateAccount] */\n      swap1\n      dup3\n      mstore\n        /* \"BankMappingList.sol\":1457:1498  _nextAccounts[candidateAccount] = Account */\n      dup4\n      sload\n      and\n      swap1\n      swap2\n      or\n      swap1\n      swap2\n      sstore\n        /* \"BankMappingList.sol\":1505:1513  listSize */\n      0x02\n        /* \"BankMappingList.sol\":1505:1515  listSize++ */\n      dup1\n      sload\n      swap2\n      tag_101\n      dup4\n      tag_102\n      jump\t// in\n    tag_101:\n      swap2\n      swap1\n      pop\n      sstore\n      pop\n        /* \"BankMappingList.sol\":1065:1521  function addAccount(address Account, uint256 balance, address candidateAccount) public {... */\n      pop\n      pop\n      pop\n      jump\t// out\n        /* \"BankMappingList.sol\":480:678  function deposit() external payable{... */\n    tag_43:\n        /* \"BankMappingList.sol\":544:545  0 */\n      0x00\n        /* \"BankMappingList.sol\":534:543  msg.value */\n      callvalue\n        /* \"BankMappingList.sol\":534:545  msg.value>0 */\n      gt\n        /* \"BankMappingList.sol\":526:580  require(msg.value>0,\"Your value must more than zero!\") */\n      tag_104\n      jumpi\n      mload(0x40)\n      shl(0xe5, 0x461bcd)\n      dup2\n      mstore\n        /* \"#utility.yul\":3629:3631   */\n      0x20\n        /* \"BankMappingList.sol\":526:580  require(msg.value>0,\"Your value must more than zero!\") */\n      0x04\n      dup3\n      add\n        /* \"#utility.yul\":3611:3632   */\n      mstore\n        /* \"#utility.yul\":3668:3670   */\n      0x1f\n        /* \"#utility.yul\":3648:3666   */\n      0x24\n      dup3\n      add\n        /* \"#utility.yul\":3641:3671   */\n      mstore\n        /* \"#utility.yul\":3707:3740   */\n      0x596f75722076616c7565206d757374206d6f7265207468616e207a65726f2100\n        /* \"#utility.yul\":3687:3705   */\n      0x44\n      dup3\n      add\n        /* \"#utility.yul\":3680:3741   */\n      mstore\n        /* \"#utility.yul\":3758:3776   */\n      0x64\n      add\n        /* \"BankMappingList.sol\":526:580  require(msg.value>0,\"Your value must more than zero!\") */\n      tag_91\n        /* \"#utility.yul\":3427:3782   */\n      jump\n        /* \"BankMappingList.sol\":526:580  require(msg.value>0,\"Your value must more than zero!\") */\n    tag_104:\n        /* \"BankMappingList.sol\":600:610  msg.sender */\n      caller\n        /* \"BankMappingList.sol\":591:599  balances */\n      0x00\n        /* \"BankMappingList.sol\":591:611  balances[msg.sender] */\n      swap1\n      dup2\n      mstore\n      0x20\n      dup2\n      swap1\n      mstore\n      0x40\n      dup2\n      keccak256\n        /* \"BankMappingList.sol\":591:624  balances[msg.sender] += msg.value */\n      dup1\n      sload\n        /* \"BankMappingList.sol\":615:624  msg.value */\n      callvalue\n      swap3\n        /* \"BankMappingList.sol\":591:599  balances */\n      swap1\n        /* \"BankMappingList.sol\":591:624  balances[msg.sender] += msg.value */\n      tag_107\n      swap1\n        /* \"BankMappingList.sol\":615:624  msg.value */\n      dup5\n      swap1\n        /* \"BankMappingList.sol\":591:624  balances[msg.sender] += msg.value */\n      tag_108\n      jump\t// in\n    tag_107:\n      swap1\n      swap2\n      sstore\n      pop\n      pop\n        /* \"BankMappingList.sol\":640:670  Deposit(msg.sender, msg.value) */\n      0x40\n      dup1\n      mload\n        /* \"BankMappingList.sol\":648:658  msg.sender */\n      caller\n        /* \"#utility.yul\":4091:4142   */\n      dup2\n      mstore\n        /* \"BankMappingList.sol\":660:669  msg.value */\n      callvalue\n        /* \"#utility.yul\":4173:4175   */\n      0x20\n        /* \"#utility.yul\":4158:4176   */\n      dup3\n      add\n        /* \"#utility.yul\":4151:4185   */\n      mstore\n        /* \"BankMappingList.sol\":640:670  Deposit(msg.sender, msg.value) */\n      0xe1fffcc4923d04b559f4d29a8bfc6cda04eb5b0d3c460751c2402c5c5cc9109c\n      swap2\n        /* \"#utility.yul\":4064:4082   */\n      add\n        /* \"BankMappingList.sol\":640:670  Deposit(msg.sender, msg.value) */\n      mload(0x40)\n      dup1\n      swap2\n      sub\n      swap1\n      log1\n        /* \"BankMappingList.sol\":480:678  function deposit() external payable{... */\n      jump\t// out\n        /* \"BankMappingList.sol\":2787:3125  function removeAccount(address Account, address candidateAccount) public {... */\n    tag_48:\n      sub(shl(0xa0, 0x01), 0x01)\n        /* \"BankMappingList.sol\":2875:2897  _nextAccounts[Account] */\n      dup3\n      dup2\n      and\n        /* \"BankMappingList.sol\":2909:2910  0 */\n      0x00\n        /* \"BankMappingList.sol\":2875:2897  _nextAccounts[Account] */\n      swap1\n      dup2\n      mstore\n        /* \"BankMappingList.sol\":2875:2888  _nextAccounts */\n      0x01\n        /* \"BankMappingList.sol\":2875:2897  _nextAccounts[Account] */\n      0x20\n      mstore\n      0x40\n      swap1\n      keccak256\n      sload\n      and\n        /* \"BankMappingList.sol\":2867:2912  require(_nextAccounts[Account] != address(0)) */\n      tag_112\n      jumpi\n      0x00\n      dup1\n      revert\n    tag_112:\n        /* \"BankMappingList.sol\":2927:2968  _isPrevAccount(Account, candidateAccount) */\n      tag_113\n        /* \"BankMappingList.sol\":2942:2949  Account */\n      dup3\n        /* \"BankMappingList.sol\":2951:2967  candidateAccount */\n      dup3\n        /* \"BankMappingList.sol\":2927:2941  _isPrevAccount */\n      tag_69\n        /* \"BankMappingList.sol\":2927:2968  _isPrevAccount(Account, candidateAccount) */\n      jump\t// in\n    tag_113:\n        /* \"BankMappingList.sol\":2919:2969  require(_isPrevAccount(Account, candidateAccount)) */\n      tag_114\n      jumpi\n      0x00\n      dup1\n      revert\n    tag_114:\n      sub(shl(0xa0, 0x01), 0x01)\n        /* \"BankMappingList.sol\":3010:3032  _nextAccounts[Account] */\n      dup3\n      dup2\n      and\n      0x00\n      dup2\n      dup2\n      mstore\n        /* \"BankMappingList.sol\":3010:3023  _nextAccounts */\n      0x01\n        /* \"BankMappingList.sol\":3010:3032  _nextAccounts[Account] */\n      0x20\n      swap1\n      dup2\n      mstore\n      0x40\n      dup1\n      dup4\n      keccak256\n      dup1\n      sload\n        /* \"BankMappingList.sol\":2976:3007  _nextAccounts[candidateAccount] */\n      dup8\n      dup8\n      and\n      dup6\n      mstore\n      dup3\n      dup6\n      keccak256\n        /* \"BankMappingList.sol\":2976:3032  _nextAccounts[candidateAccount] = _nextAccounts[Account] */\n      dup1\n      sload\n        /* \"BankMappingList.sol\":3010:3032  _nextAccounts[Account] */\n      swap2\n      swap1\n      swap8\n      and\n      not(sub(shl(0xa0, 0x01), 0x01))\n        /* \"BankMappingList.sol\":2976:3032  _nextAccounts[candidateAccount] = _nextAccounts[Account] */\n      swap2\n      dup3\n      and\n      or\n      swap1\n      swap7\n      sstore\n        /* \"BankMappingList.sol\":3039:3061  _nextAccounts[Account] */\n      swap4\n      dup4\n      mstore\n        /* \"BankMappingList.sol\":3039:3074  _nextAccounts[Account] = address(0) */\n      dup4\n      sload\n      swap1\n      swap5\n      and\n      swap1\n      swap3\n      sstore\n        /* \"BankMappingList.sol\":3081:3098  balances[Account] */\n      swap1\n      dup2\n      swap1\n      mstore\n      swap1\n      dup2\n      keccak256\n        /* \"BankMappingList.sol\":3081:3102  balances[Account] = 0 */\n      dup2\n      swap1\n      sstore\n        /* \"BankMappingList.sol\":3109:3117  listSize */\n      0x02\n        /* \"BankMappingList.sol\":3109:3119  listSize-- */\n      dup1\n      sload\n      swap2\n      tag_115\n      dup4\n      tag_116\n      jump\t// in\n    tag_115:\n      swap2\n      swap1\n      pop\n      sstore\n      pop\n        /* \"BankMappingList.sol\":2787:3125  function removeAccount(address Account, address candidateAccount) public {... */\n      pop\n      pop\n      jump\t// out\n        /* \"BankMappingList.sol\":1529:1787  function increasebalance(... */\n    tag_52:\n      sub(shl(0xa0, 0x01), 0x01)\n        /* \"BankMappingList.sol\":1711:1728  balances[Account] */\n      dup5\n      and\n        /* \"BankMappingList.sol\":1711:1719  balances */\n      0x00\n        /* \"BankMappingList.sol\":1711:1728  balances[Account] */\n      swap1\n      dup2\n      mstore\n      0x20\n      dup2\n      swap1\n      mstore\n      0x40\n      swap1\n      keccak256\n      sload\n        /* \"BankMappingList.sol\":1688:1781  updatebalance(Account, balances[Account] + balance, oldCandidateAccount, newCandidateAccount) */\n      tag_60\n      swap1\n        /* \"BankMappingList.sol\":1702:1709  Account */\n      dup6\n      swap1\n        /* \"BankMappingList.sol\":1711:1738  balances[Account] + balance */\n      tag_61\n      swap1\n        /* \"BankMappingList.sol\":1731:1738  balance */\n      dup7\n      swap1\n        /* \"BankMappingList.sol\":1711:1738  balances[Account] + balance */\n      tag_108\n      jump\t// in\n        /* \"BankMappingList.sol\":3808:3955  function _isPrevAccount(address Account, address prevAccount) internal view returns(bool) {... */\n    tag_69:\n      sub(shl(0xa0, 0x01), 0x01)\n        /* \"BankMappingList.sol\":3912:3938  _nextAccounts[prevAccount] */\n      dup2\n      dup2\n      and\n        /* \"BankMappingList.sol\":3892:3896  bool */\n      0x00\n        /* \"BankMappingList.sol\":3912:3938  _nextAccounts[prevAccount] */\n      swap1\n      dup2\n      mstore\n        /* \"BankMappingList.sol\":3912:3925  _nextAccounts */\n      0x01\n        /* \"BankMappingList.sol\":3912:3938  _nextAccounts[prevAccount] */\n      0x20\n      mstore\n      0x40\n      swap1\n      keccak256\n      sload\n      dup2\n      and\n        /* \"BankMappingList.sol\":3912:3949  _nextAccounts[prevAccount] == Account */\n      swap1\n      dup4\n      and\n      eq\n        /* \"BankMappingList.sol\":3808:3955  function _isPrevAccount(address Account, address prevAccount) internal view returns(bool) {... */\n    tag_121:\n      swap3\n      swap2\n      pop\n      pop\n      jump\t// out\n        /* \"BankMappingList.sol\":3519:3800  function _verifyIndex(address prevAccount, uint256 newValue, address nextAccount)... */\n    tag_72:\n        /* \"BankMappingList.sol\":3638:3642  bool */\n      0x00\n      sub(shl(0xa0, 0x01), 0x01)\n        /* \"BankMappingList.sol\":3662:3682  prevAccount == GUARD */\n      dup5\n      and\n        /* \"BankMappingList.sol\":250:251  1 */\n      0x01\n        /* \"BankMappingList.sol\":3662:3682  prevAccount == GUARD */\n      eq\n      dup1\n        /* \"BankMappingList.sol\":3662:3719  prevAccount == GUARD || balances[prevAccount] >= newValue */\n      tag_123\n      jumpi\n      pop\n      sub(shl(0xa0, 0x01), 0x01)\n        /* \"BankMappingList.sol\":3686:3707  balances[prevAccount] */\n      dup5\n      and\n        /* \"BankMappingList.sol\":3686:3694  balances */\n      0x00\n        /* \"BankMappingList.sol\":3686:3707  balances[prevAccount] */\n      swap1\n      dup2\n      mstore\n      0x20\n      dup2\n      swap1\n      mstore\n      0x40\n      swap1\n      keccak256\n      sload\n        /* \"BankMappingList.sol\":3686:3719  balances[prevAccount] >= newValue */\n      dup4\n      gt\n      iszero\n        /* \"BankMappingList.sol\":3662:3719  prevAccount == GUARD || balances[prevAccount] >= newValue */\n    tag_123:\n        /* \"BankMappingList.sol\":3661:3794  (prevAccount == GUARD || balances[prevAccount] >= newValue) && ... */\n      dup1\n      iszero\n      tag_125\n      jumpi\n      pop\n      sub(shl(0xa0, 0x01), 0x01)\n        /* \"BankMappingList.sol\":3737:3757  nextAccount == GUARD */\n      dup3\n      and\n        /* \"BankMappingList.sol\":250:251  1 */\n      0x01\n        /* \"BankMappingList.sol\":3737:3757  nextAccount == GUARD */\n      eq\n      dup1\n        /* \"BankMappingList.sol\":3737:3793  nextAccount == GUARD || newValue > balances[nextAccount] */\n      tag_125\n      jumpi\n      pop\n      sub(shl(0xa0, 0x01), 0x01)\n        /* \"BankMappingList.sol\":3772:3793  balances[nextAccount] */\n      dup3\n      and\n        /* \"BankMappingList.sol\":3772:3780  balances */\n      0x00\n        /* \"BankMappingList.sol\":3772:3793  balances[nextAccount] */\n      swap1\n      dup2\n      mstore\n      0x20\n      dup2\n      swap1\n      mstore\n      0x40\n      swap1\n      keccak256\n      sload\n        /* \"BankMappingList.sol\":3761:3793  newValue > balances[nextAccount] */\n      dup4\n      gt\n        /* \"BankMappingList.sol\":3737:3793  nextAccount == GUARD || newValue > balances[nextAccount] */\n    tag_125:\n        /* \"BankMappingList.sol\":3654:3794  return (prevAccount == GUARD || balances[prevAccount] >= newValue) && ... */\n      swap5\n        /* \"BankMappingList.sol\":3519:3800  function _verifyIndex(address prevAccount, uint256 newValue, address nextAccount)... */\n      swap4\n      pop\n      pop\n      pop\n      pop\n      jump\t// out\n        /* \"#utility.yul\":14:187   */\n    tag_126:\n        /* \"#utility.yul\":82:102   */\n      dup1\n      calldataload\n      sub(shl(0xa0, 0x01), 0x01)\n        /* \"#utility.yul\":131:162   */\n      dup2\n      and\n        /* \"#utility.yul\":121:163   */\n      dup2\n      eq\n        /* \"#utility.yul\":111:181   */\n      tag_130\n      jumpi\n        /* \"#utility.yul\":177:178   */\n      0x00\n        /* \"#utility.yul\":174:175   */\n      dup1\n        /* \"#utility.yul\":167:179   */\n      revert\n        /* \"#utility.yul\":111:181   */\n    tag_130:\n        /* \"#utility.yul\":14:187   */\n      swap2\n      swap1\n      pop\n      jump\t// out\n        /* \"#utility.yul\":192:595   */\n    tag_16:\n        /* \"#utility.yul\":278:284   */\n      0x00\n        /* \"#utility.yul\":286:292   */\n      dup1\n        /* \"#utility.yul\":294:300   */\n      0x00\n        /* \"#utility.yul\":302:308   */\n      dup1\n        /* \"#utility.yul\":355:358   */\n      0x80\n        /* \"#utility.yul\":343:352   */\n      dup6\n        /* \"#utility.yul\":334:341   */\n      dup8\n        /* \"#utility.yul\":330:353   */\n      sub\n        /* \"#utility.yul\":326:359   */\n      slt\n        /* \"#utility.yul\":323:376   */\n      iszero\n      tag_132\n      jumpi\n        /* \"#utility.yul\":372:373   */\n      0x00\n        /* \"#utility.yul\":369:370   */\n      dup1\n        /* \"#utility.yul\":362:374   */\n      revert\n        /* \"#utility.yul\":323:376   */\n    tag_132:\n        /* \"#utility.yul\":395:424   */\n      tag_133\n        /* \"#utility.yul\":414:423   */\n      dup6\n        /* \"#utility.yul\":395:424   */\n      tag_126\n      jump\t// in\n    tag_133:\n        /* \"#utility.yul\":385:424   */\n      swap4\n      pop\n        /* \"#utility.yul\":471:473   */\n      0x20\n        /* \"#utility.yul\":460:469   */\n      dup6\n        /* \"#utility.yul\":456:474   */\n      add\n        /* \"#utility.yul\":443:475   */\n      calldataload\n        /* \"#utility.yul\":433:475   */\n      swap3\n      pop\n        /* \"#utility.yul\":494:532   */\n      tag_134\n        /* \"#utility.yul\":528:530   */\n      0x40\n        /* \"#utility.yul\":517:526   */\n      dup7\n        /* \"#utility.yul\":513:531   */\n      add\n        /* \"#utility.yul\":494:532   */\n      tag_126\n      jump\t// in\n    tag_134:\n        /* \"#utility.yul\":484:532   */\n      swap2\n      pop\n        /* \"#utility.yul\":551:589   */\n      tag_135\n        /* \"#utility.yul\":585:587   */\n      0x60\n        /* \"#utility.yul\":574:583   */\n      dup7\n        /* \"#utility.yul\":570:588   */\n      add\n        /* \"#utility.yul\":551:589   */\n      tag_126\n      jump\t// in\n    tag_135:\n        /* \"#utility.yul\":541:589   */\n      swap1\n      pop\n        /* \"#utility.yul\":192:595   */\n      swap3\n      swap6\n      swap2\n      swap5\n      pop\n      swap3\n      pop\n      jump\t// out\n        /* \"#utility.yul\":600:780   */\n    tag_25:\n        /* \"#utility.yul\":659:665   */\n      0x00\n        /* \"#utility.yul\":712:714   */\n      0x20\n        /* \"#utility.yul\":700:709   */\n      dup3\n        /* \"#utility.yul\":691:698   */\n      dup5\n        /* \"#utility.yul\":687:710   */\n      sub\n        /* \"#utility.yul\":683:715   */\n      slt\n        /* \"#utility.yul\":680:732   */\n      iszero\n      tag_137\n      jumpi\n        /* \"#utility.yul\":728:729   */\n      0x00\n        /* \"#utility.yul\":725:726   */\n      dup1\n        /* \"#utility.yul\":718:730   */\n      revert\n        /* \"#utility.yul\":680:732   */\n    tag_137:\n      pop\n        /* \"#utility.yul\":751:774   */\n      calldataload\n      swap2\n        /* \"#utility.yul\":600:780   */\n      swap1\n      pop\n      jump\t// out\n        /* \"#utility.yul\":785:1443   */\n    tag_28:\n        /* \"#utility.yul\":956:958   */\n      0x20\n        /* \"#utility.yul\":1008:1029   */\n      dup1\n      dup3\n      mstore\n        /* \"#utility.yul\":1078:1091   */\n      dup3\n      mload\n        /* \"#utility.yul\":981:999   */\n      dup3\n      dup3\n      add\n        /* \"#utility.yul\":1100:1122   */\n      dup2\n      swap1\n      mstore\n        /* \"#utility.yul\":927:931   */\n      0x00\n      swap2\n        /* \"#utility.yul\":956:958   */\n      swap1\n        /* \"#utility.yul\":1179:1194   */\n      dup5\n      dup3\n      add\n      swap1\n        /* \"#utility.yul\":1153:1155   */\n      0x40\n        /* \"#utility.yul\":1138:1156   */\n      dup6\n      add\n      swap1\n        /* \"#utility.yul\":927:931   */\n      dup5\n        /* \"#utility.yul\":1222:1417   */\n    tag_139:\n        /* \"#utility.yul\":1236:1242   */\n      dup2\n        /* \"#utility.yul\":1233:1234   */\n      dup2\n        /* \"#utility.yul\":1230:1243   */\n      lt\n        /* \"#utility.yul\":1222:1417   */\n      iszero\n      tag_141\n      jumpi\n        /* \"#utility.yul\":1301:1314   */\n      dup4\n      mload\n      sub(shl(0xa0, 0x01), 0x01)\n        /* \"#utility.yul\":1297:1336   */\n      and\n        /* \"#utility.yul\":1285:1337   */\n      dup4\n      mstore\n        /* \"#utility.yul\":1392:1407   */\n      swap3\n      dup5\n      add\n      swap3\n        /* \"#utility.yul\":1357:1369   */\n      swap2\n      dup5\n      add\n      swap2\n        /* \"#utility.yul\":1333:1334   */\n      0x01\n        /* \"#utility.yul\":1251:1260   */\n      add\n        /* \"#utility.yul\":1222:1417   */\n      jump(tag_139)\n    tag_141:\n      pop\n        /* \"#utility.yul\":1434:1437   */\n      swap1\n      swap7\n        /* \"#utility.yul\":785:1443   */\n      swap6\n      pop\n      pop\n      pop\n      pop\n      pop\n      pop\n      jump\t// out\n        /* \"#utility.yul\":1448:1776   */\n    tag_35:\n        /* \"#utility.yul\":1525:1531   */\n      0x00\n        /* \"#utility.yul\":1533:1539   */\n      dup1\n        /* \"#utility.yul\":1541:1547   */\n      0x00\n        /* \"#utility.yul\":1594:1596   */\n      0x60\n        /* \"#utility.yul\":1582:1591   */\n      dup5\n        /* \"#utility.yul\":1573:1580   */\n      dup7\n        /* \"#utility.yul\":1569:1592   */\n      sub\n        /* \"#utility.yul\":1565:1597   */\n      slt\n        /* \"#utility.yul\":1562:1614   */\n      iszero\n      tag_143\n      jumpi\n        /* \"#utility.yul\":1610:1611   */\n      0x00\n        /* \"#utility.yul\":1607:1608   */\n      dup1\n        /* \"#utility.yul\":1600:1612   */\n      revert\n        /* \"#utility.yul\":1562:1614   */\n    tag_143:\n        /* \"#utility.yul\":1633:1662   */\n      tag_144\n        /* \"#utility.yul\":1652:1661   */\n      dup5\n        /* \"#utility.yul\":1633:1662   */\n      tag_126\n      jump\t// in\n    tag_144:\n        /* \"#utility.yul\":1623:1662   */\n      swap3\n      pop\n        /* \"#utility.yul\":1709:1711   */\n      0x20\n        /* \"#utility.yul\":1698:1707   */\n      dup5\n        /* \"#utility.yul\":1694:1712   */\n      add\n        /* \"#utility.yul\":1681:1713   */\n      calldataload\n        /* \"#utility.yul\":1671:1713   */\n      swap2\n      pop\n        /* \"#utility.yul\":1732:1770   */\n      tag_145\n        /* \"#utility.yul\":1766:1768   */\n      0x40\n        /* \"#utility.yul\":1755:1764   */\n      dup6\n        /* \"#utility.yul\":1751:1769   */\n      add\n        /* \"#utility.yul\":1732:1770   */\n      tag_126\n      jump\t// in\n    tag_145:\n        /* \"#utility.yul\":1722:1770   */\n      swap1\n      pop\n        /* \"#utility.yul\":1448:1776   */\n      swap3\n      pop\n      swap3\n      pop\n      swap3\n      jump\t// out\n        /* \"#utility.yul\":1963:2223   */\n    tag_47:\n        /* \"#utility.yul\":2031:2037   */\n      0x00\n        /* \"#utility.yul\":2039:2045   */\n      dup1\n        /* \"#utility.yul\":2092:2094   */\n      0x40\n        /* \"#utility.yul\":2080:2089   */\n      dup4\n        /* \"#utility.yul\":2071:2078   */\n      dup6\n        /* \"#utility.yul\":2067:2090   */\n      sub\n        /* \"#utility.yul\":2063:2095   */\n      slt\n        /* \"#utility.yul\":2060:2112   */\n      iszero\n      tag_148\n      jumpi\n        /* \"#utility.yul\":2108:2109   */\n      0x00\n        /* \"#utility.yul\":2105:2106   */\n      dup1\n        /* \"#utility.yul\":2098:2110   */\n      revert\n        /* \"#utility.yul\":2060:2112   */\n    tag_148:\n        /* \"#utility.yul\":2131:2160   */\n      tag_149\n        /* \"#utility.yul\":2150:2159   */\n      dup4\n        /* \"#utility.yul\":2131:2160   */\n      tag_126\n      jump\t// in\n    tag_149:\n        /* \"#utility.yul\":2121:2160   */\n      swap2\n      pop\n        /* \"#utility.yul\":2179:2217   */\n      tag_150\n        /* \"#utility.yul\":2213:2215   */\n      0x20\n        /* \"#utility.yul\":2202:2211   */\n      dup5\n        /* \"#utility.yul\":2198:2216   */\n      add\n        /* \"#utility.yul\":2179:2217   */\n      tag_126\n      jump\t// in\n    tag_150:\n        /* \"#utility.yul\":2169:2217   */\n      swap1\n      pop\n        /* \"#utility.yul\":1963:2223   */\n      swap3\n      pop\n      swap3\n      swap1\n      pop\n      jump\t// out\n        /* \"#utility.yul\":2228:2414   */\n    tag_56:\n        /* \"#utility.yul\":2287:2293   */\n      0x00\n        /* \"#utility.yul\":2340:2342   */\n      0x20\n        /* \"#utility.yul\":2328:2337   */\n      dup3\n        /* \"#utility.yul\":2319:2326   */\n      dup5\n        /* \"#utility.yul\":2315:2338   */\n      sub\n        /* \"#utility.yul\":2311:2343   */\n      slt\n        /* \"#utility.yul\":2308:2360   */\n      iszero\n      tag_152\n      jumpi\n        /* \"#utility.yul\":2356:2357   */\n      0x00\n        /* \"#utility.yul\":2353:2354   */\n      dup1\n        /* \"#utility.yul\":2346:2358   */\n      revert\n        /* \"#utility.yul\":2308:2360   */\n    tag_152:\n        /* \"#utility.yul\":2379:2408   */\n      tag_153\n        /* \"#utility.yul\":2398:2407   */\n      dup3\n        /* \"#utility.yul\":2379:2408   */\n      tag_126\n      jump\t// in\n    tag_153:\n        /* \"#utility.yul\":2369:2408   */\n      swap4\n        /* \"#utility.yul\":2228:2414   */\n      swap3\n      pop\n      pop\n      pop\n      jump\t// out\n        /* \"#utility.yul\":2419:2546   */\n    tag_127:\n        /* \"#utility.yul\":2480:2490   */\n      0x4e487b71\n        /* \"#utility.yul\":2475:2478   */\n      0xe0\n        /* \"#utility.yul\":2471:2491   */\n      shl\n        /* \"#utility.yul\":2468:2469   */\n      0x00\n        /* \"#utility.yul\":2461:2492   */\n      mstore\n        /* \"#utility.yul\":2511:2515   */\n      0x11\n        /* \"#utility.yul\":2508:2509   */\n      0x04\n        /* \"#utility.yul\":2501:2516   */\n      mstore\n        /* \"#utility.yul\":2535:2539   */\n      0x24\n        /* \"#utility.yul\":2532:2533   */\n      0x00\n        /* \"#utility.yul\":2525:2540   */\n      revert\n        /* \"#utility.yul\":2551:2679   */\n    tag_62:\n        /* \"#utility.yul\":2618:2627   */\n      dup2\n      dup2\n      sub\n        /* \"#utility.yul\":2639:2650   */\n      dup2\n      dup2\n      gt\n        /* \"#utility.yul\":2636:2673   */\n      iszero\n      tag_121\n      jumpi\n        /* \"#utility.yul\":2653:2671   */\n      tag_121\n      tag_127\n      jump\t// in\n        /* \"#utility.yul\":2684:2811   */\n    tag_81:\n        /* \"#utility.yul\":2745:2755   */\n      0x4e487b71\n        /* \"#utility.yul\":2740:2743   */\n      0xe0\n        /* \"#utility.yul\":2736:2756   */\n      shl\n        /* \"#utility.yul\":2733:2734   */\n      0x00\n        /* \"#utility.yul\":2726:2757   */\n      mstore\n        /* \"#utility.yul\":2776:2780   */\n      0x41\n        /* \"#utility.yul\":2773:2774   */\n      0x04\n        /* \"#utility.yul\":2766:2781   */\n      mstore\n        /* \"#utility.yul\":2800:2804   */\n      0x24\n        /* \"#utility.yul\":2797:2798   */\n      0x00\n        /* \"#utility.yul\":2790:2805   */\n      revert\n        /* \"#utility.yul\":2816:2943   */\n    tag_88:\n        /* \"#utility.yul\":2877:2887   */\n      0x4e487b71\n        /* \"#utility.yul\":2872:2875   */\n      0xe0\n        /* \"#utility.yul\":2868:2888   */\n      shl\n        /* \"#utility.yul\":2865:2866   */\n      0x00\n        /* \"#utility.yul\":2858:2889   */\n      mstore\n        /* \"#utility.yul\":2908:2912   */\n      0x32\n        /* \"#utility.yul\":2905:2906   */\n      0x04\n        /* \"#utility.yul\":2898:2913   */\n      mstore\n        /* \"#utility.yul\":2932:2936   */\n      0x24\n        /* \"#utility.yul\":2929:2930   */\n      0x00\n        /* \"#utility.yul\":2922:2937   */\n      revert\n        /* \"#utility.yul\":3287:3422   */\n    tag_102:\n        /* \"#utility.yul\":3326:3329   */\n      0x00\n        /* \"#utility.yul\":3347:3364   */\n      0x01\n      dup3\n      add\n        /* \"#utility.yul\":3344:3387   */\n      tag_163\n      jumpi\n        /* \"#utility.yul\":3367:3385   */\n      tag_163\n      tag_127\n      jump\t// in\n    tag_163:\n      pop\n        /* \"#utility.yul\":3414:3415   */\n      0x01\n        /* \"#utility.yul\":3403:3416   */\n      add\n      swap1\n        /* \"#utility.yul\":3287:3422   */\n      jump\t// out\n        /* \"#utility.yul\":3787:3912   */\n    tag_108:\n        /* \"#utility.yul\":3852:3861   */\n      dup1\n      dup3\n      add\n        /* \"#utility.yul\":3873:3883   */\n      dup1\n      dup3\n      gt\n        /* \"#utility.yul\":3870:3906   */\n      iszero\n      tag_121\n      jumpi\n        /* \"#utility.yul\":3886:3904   */\n      tag_121\n      tag_127\n      jump\t// in\n        /* \"#utility.yul\":4196:4332   */\n    tag_116:\n        /* \"#utility.yul\":4235:4238   */\n      0x00\n        /* \"#utility.yul\":4263:4268   */\n      dup2\n        /* \"#utility.yul\":4253:4292   */\n      tag_171\n      jumpi\n        /* \"#utility.yul\":4272:4290   */\n      tag_171\n      tag_127\n      jump\t// in\n    tag_171:\n      pop\n      not(0x00)\n        /* \"#utility.yul\":4308:4326   */\n      add\n      swap1\n        /* \"#utility.yul\":4196:4332   */\n      jump\t// out\n\n    auxdata: 0xa264697066735822122080798e4622563ec86eb63592d6a6818e87d687d453b70e1847c8eb7f1c111f6664736f6c63430008160033\n}\n",
				"bytecode": {
					"linkReferences": {},
					"object": "608060405234801561000f575f80fd5b50600380546001600160a01b0319908116331790915560015f81905260208190527fcc69885fda6bcc1a4ace058b4a62bf5e179ea78fd58a1ccd71c22cc9b688792f80549092161790556109a4806100665f395ff3fe60806040526004361061008e575f3560e01c8063972c535611610057578063972c53561461013a578063d0e30db01461015d578063d44bac5214610165578063df16939414610184578063f8b2cb4f146101a3575f80fd5b806215ebec146100925780632b0c2fba146100b357806337caa8b6146100d25780633ccfd60b146101075780635e4d0f831461011b575b5f80fd5b34801561009d575f80fd5b506100b16100ac3660046107a8565b6101d7565b005b3480156100be575f80fd5b506100b16100cd3660046107a8565b61020d565b3480156100dd575f80fd5b506100f16100ec3660046107f2565b610301565b6040516100fe9190610809565b60405180910390f35b348015610112575f80fd5b506100b16103eb565b348015610126575f80fd5b506100b1610135366004610855565b6104aa565b348015610145575f80fd5b5061014f60025481565b6040519081526020016100fe565b6100b161058a565b348015610170575f80fd5b506100b161017f36600461088e565b610636565b34801561018f575f80fd5b506100b161019e3660046107a8565b6106d1565b3480156101ae575f80fd5b5061014f6101bd3660046108bf565b6001600160a01b03165f9081526020819052604090205490565b6001600160a01b0384165f908152602081905260409020546102079085906102009086906108f3565b848461020d565b50505050565b6001600160a01b038481165f908152600160205260409020541661022f575f80fd5b6001600160a01b038281165f9081526001602052604090205416610251575f80fd5b6001600160a01b038181165f9081526001602052604090205416610273575f80fd5b806001600160a01b0316826001600160a01b0316036102ec5761029684836106fa565b61029e575f80fd5b6001600160a01b038085165f908152600160205260409020546102c5918391869116610720565b6102cd575f80fd5b6001600160a01b0384165f908152602081905260409020839055610207565b6102f68483610636565b6102078484836104aa565b6060600254821115610311575f80fd5b5f8267ffffffffffffffff81111561032b5761032b610906565b604051908082528060200260200182016040528015610354578160200160208202803683370190505b5060015f8181526020919091527fcc69885fda6bcc1a4ace058b4a62bf5e179ea78fd58a1ccd71c22cc9b688792f549192506001600160a01b03909116905b848110156103e257818382815181106103ae576103ae61091a565b6001600160a01b039283166020918202929092018101919091529281165f9081526001938490526040902054169101610393565b50909392505050565b6003546001600160a01b031633146104375760405162461bcd60e51b815260206004820152600a60248201526937b7363c9030b236b4b760b11b60448201526064015b60405180910390fd5b6040514790339082156108fc029083905f818181858888f19350505050158015610463573d5f803e3d5ffd5b50335f908152602081815260409182902083905590518281527f5b6b431d4476a211bb7d41c20d1aab9ae2321deee0d20be3d9fc9b1093fa6e3d910160405180910390a150565b6001600160a01b038381165f9081526001602052604090205416156104cd575f80fd5b6001600160a01b038181165f90815260016020526040902054166104ef575f80fd5b6001600160a01b038082165f90815260016020526040902054610516918391859116610720565b61051e575f80fd5b6001600160a01b038381165f81815260208181526040808320879055858516808452600190925280832080548585529184208054929096166001600160a01b03199283161790955590825283541690911790915560028054916105808361092e565b9190505550505050565b5f34116105d95760405162461bcd60e51b815260206004820152601f60248201527f596f75722076616c7565206d757374206d6f7265207468616e207a65726f2100604482015260640161042e565b335f90815260208190526040812080543492906105f7908490610946565b9091555050604080513381523460208201527fe1fffcc4923d04b559f4d29a8bfc6cda04eb5b0d3c460751c2402c5c5cc9109c910160405180910390a1565b6001600160a01b038281165f9081526001602052604090205416610658575f80fd5b61066282826106fa565b61066a575f80fd5b6001600160a01b038281165f818152600160209081526040808320805487871685528285208054919097166001600160a01b03199182161790965593835283549094169092559081905290812081905560028054916106c883610959565b91905055505050565b6001600160a01b0384165f90815260208190526040902054610207908590610200908690610946565b6001600160a01b038181165f908152600160205260409020548116908316145b92915050565b5f6001600160a01b0384166001148061075057506001600160a01b0384165f908152602081905260409020548311155b801561078557506001600160a01b0382166001148061078557506001600160a01b0382165f9081526020819052604090205483115b949350505050565b80356001600160a01b03811681146107a3575f80fd5b919050565b5f805f80608085870312156107bb575f80fd5b6107c48561078d565b9350602085013592506107d96040860161078d565b91506107e76060860161078d565b905092959194509250565b5f60208284031215610802575f80fd5b5035919050565b602080825282518282018190525f9190848201906040850190845b818110156108495783516001600160a01b031683529284019291840191600101610824565b50909695505050505050565b5f805f60608486031215610867575f80fd5b6108708461078d565b9250602084013591506108856040850161078d565b90509250925092565b5f806040838503121561089f575f80fd5b6108a88361078d565b91506108b66020840161078d565b90509250929050565b5f602082840312156108cf575f80fd5b6108d88261078d565b9392505050565b634e487b7160e01b5f52601160045260245ffd5b8181038181111561071a5761071a6108df565b634e487b7160e01b5f52604160045260245ffd5b634e487b7160e01b5f52603260045260245ffd5b5f6001820161093f5761093f6108df565b5060010190565b8082018082111561071a5761071a6108df565b5f81610967576109676108df565b505f19019056fea264697066735822122080798e4622563ec86eb63592d6a6818e87d687d453b70e1847c8eb7f1c111f6664736f6c63430008160033",
					"opcodes": "PUSH1 0x80 PUSH1 0x40 MSTORE CALLVALUE DUP1 ISZERO PUSH2 0xF JUMPI PUSH0 DUP1 REVERT JUMPDEST POP PUSH1 0x3 DUP1 SLOAD PUSH1 0x1 PUSH1 0x1 PUSH1 0xA0 SHL SUB NOT SWAP1 DUP2 AND CALLER OR SWAP1 SWAP2 SSTORE PUSH1 0x1 PUSH0 DUP2 SWAP1 MSTORE PUSH1 0x20 DUP2 SWAP1 MSTORE PUSH32 0xCC69885FDA6BCC1A4ACE058B4A62BF5E179EA78FD58A1CCD71C22CC9B688792F DUP1 SLOAD SWAP1 SWAP3 AND OR SWAP1 SSTORE PUSH2 0x9A4 DUP1 PUSH2 0x66 PUSH0 CODECOPY PUSH0 RETURN INVALID PUSH1 0x80 PUSH1 0x40 MSTORE PUSH1 0x4 CALLDATASIZE LT PUSH2 0x8E JUMPI PUSH0 CALLDATALOAD PUSH1 0xE0 SHR DUP1 PUSH4 0x972C5356 GT PUSH2 0x57 JUMPI DUP1 PUSH4 0x972C5356 EQ PUSH2 0x13A JUMPI DUP1 PUSH4 0xD0E30DB0 EQ PUSH2 0x15D JUMPI DUP1 PUSH4 0xD44BAC52 EQ PUSH2 0x165 JUMPI DUP1 PUSH4 0xDF169394 EQ PUSH2 0x184 JUMPI DUP1 PUSH4 0xF8B2CB4F EQ PUSH2 0x1A3 JUMPI PUSH0 DUP1 REVERT JUMPDEST DUP1 PUSH3 0x15EBEC EQ PUSH2 0x92 JUMPI DUP1 PUSH4 0x2B0C2FBA EQ PUSH2 0xB3 JUMPI DUP1 PUSH4 0x37CAA8B6 EQ PUSH2 0xD2 JUMPI DUP1 PUSH4 0x3CCFD60B EQ PUSH2 0x107 JUMPI DUP1 PUSH4 0x5E4D0F83 EQ PUSH2 0x11B JUMPI JUMPDEST PUSH0 DUP1 REVERT JUMPDEST CALLVALUE DUP1 ISZERO PUSH2 0x9D JUMPI PUSH0 DUP1 REVERT JUMPDEST POP PUSH2 0xB1 PUSH2 0xAC CALLDATASIZE PUSH1 0x4 PUSH2 0x7A8 JUMP JUMPDEST PUSH2 0x1D7 JUMP JUMPDEST STOP JUMPDEST CALLVALUE DUP1 ISZERO PUSH2 0xBE JUMPI PUSH0 DUP1 REVERT JUMPDEST POP PUSH2 0xB1 PUSH2 0xCD CALLDATASIZE PUSH1 0x4 PUSH2 0x7A8 JUMP JUMPDEST PUSH2 0x20D JUMP JUMPDEST CALLVALUE DUP1 ISZERO PUSH2 0xDD JUMPI PUSH0 DUP1 REVERT JUMPDEST POP PUSH2 0xF1 PUSH2 0xEC CALLDATASIZE PUSH1 0x4 PUSH2 0x7F2 JUMP JUMPDEST PUSH2 0x301 JUMP JUMPDEST PUSH1 0x40 MLOAD PUSH2 0xFE SWAP2 SWAP1 PUSH2 0x809 JUMP JUMPDEST PUSH1 0x40 MLOAD DUP1 SWAP2 SUB SWAP1 RETURN JUMPDEST CALLVALUE DUP1 ISZERO PUSH2 0x112 JUMPI PUSH0 DUP1 REVERT JUMPDEST POP PUSH2 0xB1 PUSH2 0x3EB JUMP JUMPDEST CALLVALUE DUP1 ISZERO PUSH2 0x126 JUMPI PUSH0 DUP1 REVERT JUMPDEST POP PUSH2 0xB1 PUSH2 0x135 CALLDATASIZE PUSH1 0x4 PUSH2 0x855 JUMP JUMPDEST PUSH2 0x4AA JUMP JUMPDEST CALLVALUE DUP1 ISZERO PUSH2 0x145 JUMPI PUSH0 DUP1 REVERT JUMPDEST POP PUSH2 0x14F PUSH1 0x2 SLOAD DUP2 JUMP JUMPDEST PUSH1 0x40 MLOAD SWAP1 DUP2 MSTORE PUSH1 0x20 ADD PUSH2 0xFE JUMP JUMPDEST PUSH2 0xB1 PUSH2 0x58A JUMP JUMPDEST CALLVALUE DUP1 ISZERO PUSH2 0x170 JUMPI PUSH0 DUP1 REVERT JUMPDEST POP PUSH2 0xB1 PUSH2 0x17F CALLDATASIZE PUSH1 0x4 PUSH2 0x88E JUMP JUMPDEST PUSH2 0x636 JUMP JUMPDEST CALLVALUE DUP1 ISZERO PUSH2 0x18F JUMPI PUSH0 DUP1 REVERT JUMPDEST POP PUSH2 0xB1 PUSH2 0x19E CALLDATASIZE PUSH1 0x4 PUSH2 0x7A8 JUMP JUMPDEST PUSH2 0x6D1 JUMP JUMPDEST CALLVALUE DUP1 ISZERO PUSH2 0x1AE JUMPI PUSH0 DUP1 REVERT JUMPDEST POP PUSH2 0x14F PUSH2 0x1BD CALLDATASIZE PUSH1 0x4 PUSH2 0x8BF JUMP JUMPDEST PUSH1 0x1 PUSH1 0x1 PUSH1 0xA0 SHL SUB AND PUSH0 SWAP1 DUP2 MSTORE PUSH1 0x20 DUP2 SWAP1 MSTORE PUSH1 0x40 SWAP1 KECCAK256 SLOAD SWAP1 JUMP JUMPDEST PUSH1 0x1 PUSH1 0x1 PUSH1 0xA0 SHL SUB DUP5 AND PUSH0 SWAP1 DUP2 MSTORE PUSH1 0x20 DUP2 SWAP1 MSTORE PUSH1 0x40 SWAP1 KECCAK256 SLOAD PUSH2 0x207 SWAP1 DUP6 SWAP1 PUSH2 0x200 SWAP1 DUP7 SWAP1 PUSH2 0x8F3 JUMP JUMPDEST DUP5 DUP5 PUSH2 0x20D JUMP JUMPDEST POP POP POP POP JUMP JUMPDEST PUSH1 0x1 PUSH1 0x1 PUSH1 0xA0 SHL SUB DUP5 DUP2 AND PUSH0 SWAP1 DUP2 MSTORE PUSH1 0x1 PUSH1 0x20 MSTORE PUSH1 0x40 SWAP1 KECCAK256 SLOAD AND PUSH2 0x22F JUMPI PUSH0 DUP1 REVERT JUMPDEST PUSH1 0x1 PUSH1 0x1 PUSH1 0xA0 SHL SUB DUP3 DUP2 AND PUSH0 SWAP1 DUP2 MSTORE PUSH1 0x1 PUSH1 0x20 MSTORE PUSH1 0x40 SWAP1 KECCAK256 SLOAD AND PUSH2 0x251 JUMPI PUSH0 DUP1 REVERT JUMPDEST PUSH1 0x1 PUSH1 0x1 PUSH1 0xA0 SHL SUB DUP2 DUP2 AND PUSH0 SWAP1 DUP2 MSTORE PUSH1 0x1 PUSH1 0x20 MSTORE PUSH1 0x40 SWAP1 KECCAK256 SLOAD AND PUSH2 0x273 JUMPI PUSH0 DUP1 REVERT JUMPDEST DUP1 PUSH1 0x1 PUSH1 0x1 PUSH1 0xA0 SHL SUB AND DUP3 PUSH1 0x1 PUSH1 0x1 PUSH1 0xA0 SHL SUB AND SUB PUSH2 0x2EC JUMPI PUSH2 0x296 DUP5 DUP4 PUSH2 0x6FA JUMP JUMPDEST PUSH2 0x29E JUMPI PUSH0 DUP1 REVERT JUMPDEST PUSH1 0x1 PUSH1 0x1 PUSH1 0xA0 SHL SUB DUP1 DUP6 AND PUSH0 SWAP1 DUP2 MSTORE PUSH1 0x1 PUSH1 0x20 MSTORE PUSH1 0x40 SWAP1 KECCAK256 SLOAD PUSH2 0x2C5 SWAP2 DUP4 SWAP2 DUP7 SWAP2 AND PUSH2 0x720 JUMP JUMPDEST PUSH2 0x2CD JUMPI PUSH0 DUP1 REVERT JUMPDEST PUSH1 0x1 PUSH1 0x1 PUSH1 0xA0 SHL SUB DUP5 AND PUSH0 SWAP1 DUP2 MSTORE PUSH1 0x20 DUP2 SWAP1 MSTORE PUSH1 0x40 SWAP1 KECCAK256 DUP4 SWAP1 SSTORE PUSH2 0x207 JUMP JUMPDEST PUSH2 0x2F6 DUP5 DUP4 PUSH2 0x636 JUMP JUMPDEST PUSH2 0x207 DUP5 DUP5 DUP4 PUSH2 0x4AA JUMP JUMPDEST PUSH1 0x60 PUSH1 0x2 SLOAD DUP3 GT ISZERO PUSH2 0x311 JUMPI PUSH0 DUP1 REVERT JUMPDEST PUSH0 DUP3 PUSH8 0xFFFFFFFFFFFFFFFF DUP2 GT ISZERO PUSH2 0x32B JUMPI PUSH2 0x32B PUSH2 0x906 JUMP JUMPDEST PUSH1 0x40 MLOAD SWAP1 DUP1 DUP3 MSTORE DUP1 PUSH1 0x20 MUL PUSH1 0x20 ADD DUP3 ADD PUSH1 0x40 MSTORE DUP1 ISZERO PUSH2 0x354 JUMPI DUP2 PUSH1 0x20 ADD PUSH1 0x20 DUP3 MUL DUP1 CALLDATASIZE DUP4 CALLDATACOPY ADD SWAP1 POP JUMPDEST POP PUSH1 0x1 PUSH0 DUP2 DUP2 MSTORE PUSH1 0x20 SWAP2 SWAP1 SWAP2 MSTORE PUSH32 0xCC69885FDA6BCC1A4ACE058B4A62BF5E179EA78FD58A1CCD71C22CC9B688792F SLOAD SWAP2 SWAP3 POP PUSH1 0x1 PUSH1 0x1 PUSH1 0xA0 SHL SUB SWAP1 SWAP2 AND SWAP1 JUMPDEST DUP5 DUP2 LT ISZERO PUSH2 0x3E2 JUMPI DUP2 DUP4 DUP3 DUP2 MLOAD DUP2 LT PUSH2 0x3AE JUMPI PUSH2 0x3AE PUSH2 0x91A JUMP JUMPDEST PUSH1 0x1 PUSH1 0x1 PUSH1 0xA0 SHL SUB SWAP3 DUP4 AND PUSH1 0x20 SWAP2 DUP3 MUL SWAP3 SWAP1 SWAP3 ADD DUP2 ADD SWAP2 SWAP1 SWAP2 MSTORE SWAP3 DUP2 AND PUSH0 SWAP1 DUP2 MSTORE PUSH1 0x1 SWAP4 DUP5 SWAP1 MSTORE PUSH1 0x40 SWAP1 KECCAK256 SLOAD AND SWAP2 ADD PUSH2 0x393 JUMP JUMPDEST POP SWAP1 SWAP4 SWAP3 POP POP POP JUMP JUMPDEST PUSH1 0x3 SLOAD PUSH1 0x1 PUSH1 0x1 PUSH1 0xA0 SHL SUB AND CALLER EQ PUSH2 0x437 JUMPI PUSH1 0x40 MLOAD PUSH3 0x461BCD PUSH1 0xE5 SHL DUP2 MSTORE PUSH1 0x20 PUSH1 0x4 DUP3 ADD MSTORE PUSH1 0xA PUSH1 0x24 DUP3 ADD MSTORE PUSH10 0x37B7363C9030B236B4B7 PUSH1 0xB1 SHL PUSH1 0x44 DUP3 ADD MSTORE PUSH1 0x64 ADD JUMPDEST PUSH1 0x40 MLOAD DUP1 SWAP2 SUB SWAP1 REVERT JUMPDEST PUSH1 0x40 MLOAD SELFBALANCE SWAP1 CALLER SWAP1 DUP3 ISZERO PUSH2 0x8FC MUL SWAP1 DUP4 SWAP1 PUSH0 DUP2 DUP2 DUP2 DUP6 DUP9 DUP9 CALL SWAP4 POP POP POP POP ISZERO DUP1 ISZERO PUSH2 0x463 JUMPI RETURNDATASIZE PUSH0 DUP1 RETURNDATACOPY RETURNDATASIZE PUSH0 REVERT JUMPDEST POP CALLER PUSH0 SWAP1 DUP2 MSTORE PUSH1 0x20 DUP2 DUP2 MSTORE PUSH1 0x40 SWAP2 DUP3 SWAP1 KECCAK256 DUP4 SWAP1 SSTORE SWAP1 MLOAD DUP3 DUP2 MSTORE PUSH32 0x5B6B431D4476A211BB7D41C20D1AAB9AE2321DEEE0D20BE3D9FC9B1093FA6E3D SWAP2 ADD PUSH1 0x40 MLOAD DUP1 SWAP2 SUB SWAP1 LOG1 POP JUMP JUMPDEST PUSH1 0x1 PUSH1 0x1 PUSH1 0xA0 SHL SUB DUP4 DUP2 AND PUSH0 SWAP1 DUP2 MSTORE PUSH1 0x1 PUSH1 0x20 MSTORE PUSH1 0x40 SWAP1 KECCAK256 SLOAD AND ISZERO PUSH2 0x4CD JUMPI PUSH0 DUP1 REVERT JUMPDEST PUSH1 0x1 PUSH1 0x1 PUSH1 0xA0 SHL SUB DUP2 DUP2 AND PUSH0 SWAP1 DUP2 MSTORE PUSH1 0x1 PUSH1 0x20 MSTORE PUSH1 0x40 SWAP1 KECCAK256 SLOAD AND PUSH2 0x4EF JUMPI PUSH0 DUP1 REVERT JUMPDEST PUSH1 0x1 PUSH1 0x1 PUSH1 0xA0 SHL SUB DUP1 DUP3 AND PUSH0 SWAP1 DUP2 MSTORE PUSH1 0x1 PUSH1 0x20 MSTORE PUSH1 0x40 SWAP1 KECCAK256 SLOAD PUSH2 0x516 SWAP2 DUP4 SWAP2 DUP6 SWAP2 AND PUSH2 0x720 JUMP JUMPDEST PUSH2 0x51E JUMPI PUSH0 DUP1 REVERT JUMPDEST PUSH1 0x1 PUSH1 0x1 PUSH1 0xA0 SHL SUB DUP4 DUP2 AND PUSH0 DUP2 DUP2 MSTORE PUSH1 0x20 DUP2 DUP2 MSTORE PUSH1 0x40 DUP1 DUP4 KECCAK256 DUP8 SWAP1 SSTORE DUP6 DUP6 AND DUP1 DUP5 MSTORE PUSH1 0x1 SWAP1 SWAP3 MSTORE DUP1 DUP4 KECCAK256 DUP1 SLOAD DUP6 DUP6 MSTORE SWAP2 DUP5 KECCAK256 DUP1 SLOAD SWAP3 SWAP1 SWAP7 AND PUSH1 0x1 PUSH1 0x1 PUSH1 0xA0 SHL SUB NOT SWAP3 DUP4 AND OR SWAP1 SWAP6 SSTORE SWAP1 DUP3 MSTORE DUP4 SLOAD AND SWAP1 SWAP2 OR SWAP1 SWAP2 SSTORE PUSH1 0x2 DUP1 SLOAD SWAP2 PUSH2 0x580 DUP4 PUSH2 0x92E JUMP JUMPDEST SWAP2 SWAP1 POP SSTORE POP POP POP POP JUMP JUMPDEST PUSH0 CALLVALUE GT PUSH2 0x5D9 JUMPI PUSH1 0x40 MLOAD PUSH3 0x461BCD PUSH1 0xE5 SHL DUP2 MSTORE PUSH1 0x20 PUSH1 0x4 DUP3 ADD MSTORE PUSH1 0x1F PUSH1 0x24 DUP3 ADD MSTORE PUSH32 0x596F75722076616C7565206D757374206D6F7265207468616E207A65726F2100 PUSH1 0x44 DUP3 ADD MSTORE PUSH1 0x64 ADD PUSH2 0x42E JUMP JUMPDEST CALLER PUSH0 SWAP1 DUP2 MSTORE PUSH1 0x20 DUP2 SWAP1 MSTORE PUSH1 0x40 DUP2 KECCAK256 DUP1 SLOAD CALLVALUE SWAP3 SWAP1 PUSH2 0x5F7 SWAP1 DUP5 SWAP1 PUSH2 0x946 JUMP JUMPDEST SWAP1 SWAP2 SSTORE POP POP PUSH1 0x40 DUP1 MLOAD CALLER DUP2 MSTORE CALLVALUE PUSH1 0x20 DUP3 ADD MSTORE PUSH32 0xE1FFFCC4923D04B559F4D29A8BFC6CDA04EB5B0D3C460751C2402C5C5CC9109C SWAP2 ADD PUSH1 0x40 MLOAD DUP1 SWAP2 SUB SWAP1 LOG1 JUMP JUMPDEST PUSH1 0x1 PUSH1 0x1 PUSH1 0xA0 SHL SUB DUP3 DUP2 AND PUSH0 SWAP1 DUP2 MSTORE PUSH1 0x1 PUSH1 0x20 MSTORE PUSH1 0x40 SWAP1 KECCAK256 SLOAD AND PUSH2 0x658 JUMPI PUSH0 DUP1 REVERT JUMPDEST PUSH2 0x662 DUP3 DUP3 PUSH2 0x6FA JUMP JUMPDEST PUSH2 0x66A JUMPI PUSH0 DUP1 REVERT JUMPDEST PUSH1 0x1 PUSH1 0x1 PUSH1 0xA0 SHL SUB DUP3 DUP2 AND PUSH0 DUP2 DUP2 MSTORE PUSH1 0x1 PUSH1 0x20 SWAP1 DUP2 MSTORE PUSH1 0x40 DUP1 DUP4 KECCAK256 DUP1 SLOAD DUP8 DUP8 AND DUP6 MSTORE DUP3 DUP6 KECCAK256 DUP1 SLOAD SWAP2 SWAP1 SWAP8 AND PUSH1 0x1 PUSH1 0x1 PUSH1 0xA0 SHL SUB NOT SWAP2 DUP3 AND OR SWAP1 SWAP7 SSTORE SWAP4 DUP4 MSTORE DUP4 SLOAD SWAP1 SWAP5 AND SWAP1 SWAP3 SSTORE SWAP1 DUP2 SWAP1 MSTORE SWAP1 DUP2 KECCAK256 DUP2 SWAP1 SSTORE PUSH1 0x2 DUP1 SLOAD SWAP2 PUSH2 0x6C8 DUP4 PUSH2 0x959 JUMP JUMPDEST SWAP2 SWAP1 POP SSTORE POP POP POP JUMP JUMPDEST PUSH1 0x1 PUSH1 0x1 PUSH1 0xA0 SHL SUB DUP5 AND PUSH0 SWAP1 DUP2 MSTORE PUSH1 0x20 DUP2 SWAP1 MSTORE PUSH1 0x40 SWAP1 KECCAK256 SLOAD PUSH2 0x207 SWAP1 DUP6 SWAP1 PUSH2 0x200 SWAP1 DUP7 SWAP1 PUSH2 0x946 JUMP JUMPDEST PUSH1 0x1 PUSH1 0x1 PUSH1 0xA0 SHL SUB DUP2 DUP2 AND PUSH0 SWAP1 DUP2 MSTORE PUSH1 0x1 PUSH1 0x20 MSTORE PUSH1 0x40 SWAP1 KECCAK256 SLOAD DUP2 AND SWAP1 DUP4 AND EQ JUMPDEST SWAP3 SWAP2 POP POP JUMP JUMPDEST PUSH0 PUSH1 0x1 PUSH1 0x1 PUSH1 0xA0 SHL SUB DUP5 AND PUSH1 0x1 EQ DUP1 PUSH2 0x750 JUMPI POP PUSH1 0x1 PUSH1 0x1 PUSH1 0xA0 SHL SUB DUP5 AND PUSH0 SWAP1 DUP2 MSTORE PUSH1 0x20 DUP2 SWAP1 MSTORE PUSH1 0x40 SWAP1 KECCAK256 SLOAD DUP4 GT ISZERO JUMPDEST DUP1 ISZERO PUSH2 0x785 JUMPI POP PUSH1 0x1 PUSH1 0x1 PUSH1 0xA0 SHL SUB DUP3 AND PUSH1 0x1 EQ DUP1 PUSH2 0x785 JUMPI POP PUSH1 0x1 PUSH1 0x1 PUSH1 0xA0 SHL SUB DUP3 AND PUSH0 SWAP1 DUP2 MSTORE PUSH1 0x20 DUP2 SWAP1 MSTORE PUSH1 0x40 SWAP1 KECCAK256 SLOAD DUP4 GT JUMPDEST SWAP5 SWAP4 POP POP POP POP JUMP JUMPDEST DUP1 CALLDATALOAD PUSH1 0x1 PUSH1 0x1 PUSH1 0xA0 SHL SUB DUP2 AND DUP2 EQ PUSH2 0x7A3 JUMPI PUSH0 DUP1 REVERT JUMPDEST SWAP2 SWAP1 POP JUMP JUMPDEST PUSH0 DUP1 PUSH0 DUP1 PUSH1 0x80 DUP6 DUP8 SUB SLT ISZERO PUSH2 0x7BB JUMPI PUSH0 DUP1 REVERT JUMPDEST PUSH2 0x7C4 DUP6 PUSH2 0x78D JUMP JUMPDEST SWAP4 POP PUSH1 0x20 DUP6 ADD CALLDATALOAD SWAP3 POP PUSH2 0x7D9 PUSH1 0x40 DUP7 ADD PUSH2 0x78D JUMP JUMPDEST SWAP2 POP PUSH2 0x7E7 PUSH1 0x60 DUP7 ADD PUSH2 0x78D JUMP JUMPDEST SWAP1 POP SWAP3 SWAP6 SWAP2 SWAP5 POP SWAP3 POP JUMP JUMPDEST PUSH0 PUSH1 0x20 DUP3 DUP5 SUB SLT ISZERO PUSH2 0x802 JUMPI PUSH0 DUP1 REVERT JUMPDEST POP CALLDATALOAD SWAP2 SWAP1 POP JUMP JUMPDEST PUSH1 0x20 DUP1 DUP3 MSTORE DUP3 MLOAD DUP3 DUP3 ADD DUP2 SWAP1 MSTORE PUSH0 SWAP2 SWAP1 DUP5 DUP3 ADD SWAP1 PUSH1 0x40 DUP6 ADD SWAP1 DUP5 JUMPDEST DUP2 DUP2 LT ISZERO PUSH2 0x849 JUMPI DUP4 MLOAD PUSH1 0x1 PUSH1 0x1 PUSH1 0xA0 SHL SUB AND DUP4 MSTORE SWAP3 DUP5 ADD SWAP3 SWAP2 DUP5 ADD SWAP2 PUSH1 0x1 ADD PUSH2 0x824 JUMP JUMPDEST POP SWAP1 SWAP7 SWAP6 POP POP POP POP POP POP JUMP JUMPDEST PUSH0 DUP1 PUSH0 PUSH1 0x60 DUP5 DUP7 SUB SLT ISZERO PUSH2 0x867 JUMPI PUSH0 DUP1 REVERT JUMPDEST PUSH2 0x870 DUP5 PUSH2 0x78D JUMP JUMPDEST SWAP3 POP PUSH1 0x20 DUP5 ADD CALLDATALOAD SWAP2 POP PUSH2 0x885 PUSH1 0x40 DUP6 ADD PUSH2 0x78D JUMP JUMPDEST SWAP1 POP SWAP3 POP SWAP3 POP SWAP3 JUMP JUMPDEST PUSH0 DUP1 PUSH1 0x40 DUP4 DUP6 SUB SLT ISZERO PUSH2 0x89F JUMPI PUSH0 DUP1 REVERT JUMPDEST PUSH2 0x8A8 DUP4 PUSH2 0x78D JUMP JUMPDEST SWAP2 POP PUSH2 0x8B6 PUSH1 0x20 DUP5 ADD PUSH2 0x78D JUMP JUMPDEST SWAP1 POP SWAP3 POP SWAP3 SWAP1 POP JUMP JUMPDEST PUSH0 PUSH1 0x20 DUP3 DUP5 SUB SLT ISZERO PUSH2 0x8CF JUMPI PUSH0 DUP1 REVERT JUMPDEST PUSH2 0x8D8 DUP3 PUSH2 0x78D JUMP JUMPDEST SWAP4 SWAP3 POP POP POP JUMP JUMPDEST PUSH4 0x4E487B71 PUSH1 0xE0 SHL PUSH0 MSTORE PUSH1 0x11 PUSH1 0x4 MSTORE PUSH1 0x24 PUSH0 REVERT JUMPDEST DUP2 DUP2 SUB DUP2 DUP2 GT ISZERO PUSH2 0x71A JUMPI PUSH2 0x71A PUSH2 0x8DF JUMP JUMPDEST PUSH4 0x4E487B71 PUSH1 0xE0 SHL PUSH0 MSTORE PUSH1 0x41 PUSH1 0x4 MSTORE PUSH1 0x24 PUSH0 REVERT JUMPDEST PUSH4 0x4E487B71 PUSH1 0xE0 SHL PUSH0 MSTORE PUSH1 0x32 PUSH1 0x4 MSTORE PUSH1 0x24 PUSH0 REVERT JUMPDEST PUSH0 PUSH1 0x1 DUP3 ADD PUSH2 0x93F JUMPI PUSH2 0x93F PUSH2 0x8DF JUMP JUMPDEST POP PUSH1 0x1 ADD SWAP1 JUMP JUMPDEST DUP1 DUP3 ADD DUP1 DUP3 GT ISZERO PUSH2 0x71A JUMPI PUSH2 0x71A PUSH2 0x8DF JUMP JUMPDEST PUSH0 DUP2 PUSH2 0x967 JUMPI PUSH2 0x967 PUSH2 0x8DF JUMP JUMPDEST POP PUSH0 NOT ADD SWAP1 JUMP INVALID LOG2 PUSH5 0x6970667358 0x22 SLT KECCAK256 DUP1 PUSH26 0x8E4622563EC86EB63592D6A6818E87D687D453B70E1847C8EB7F SHR GT 0x1F PUSH7 0x64736F6C634300 ADDMOD AND STOP CALLER "
				},
				"gasEstimates": {
					"creation": {
						"codeDepositCost": "493600",
						"executionCost": "49019",
						"totalCost": "542619"
					},
					"external": {
						"addAccount(address,uint256,address)": "infinite",
						"deposit()": "25863",
						"getBalance(address)": "2625",
						"getTop(uint256)": "infinite",
						"increasebalance(address,uint256,address,address)": "infinite",
						"listSize()": "2294",
						"reducebalance(address,uint256,address,address)": "infinite",
						"removeAccount(address,address)": "infinite",
						"updatebalance(address,uint256,address,address)": "infinite",
						"withdraw()": "infinite"
					},
					"internal": {
						"_isPrevAccount(address,address)": "2236",
						"_verifyIndex(address,uint256,address)": "4543"
					}
				},
				"methodIdentifiers": {
					"addAccount(address,uint256,address)": "5e4d0f83",
					"deposit()": "d0e30db0",
					"getBalance(address)": "f8b2cb4f",
					"getTop(uint256)": "37caa8b6",
					"increasebalance(address,uint256,address,address)": "df169394",
					"listSize()": "972c5356",
					"reducebalance(address,uint256,address,address)": "0015ebec",
					"removeAccount(address,address)": "d44bac52",
					"updatebalance(address,uint256,address,address)": "2b0c2fba",
					"withdraw()": "3ccfd60b"
				}
			},
			"storageLayout": {
				"storage": [
					{
						"astId": 5,
						"contract": "BankMappingList.sol:MyBank",
						"label": "balances",
						"offset": 0,
						"slot": "0",
						"type": "t_mapping(t_address,t_uint256)"
					},
					{
						"astId": 9,
						"contract": "BankMappingList.sol:MyBank",
						"label": "_nextAccounts",
						"offset": 0,
						"slot": "1",
						"type": "t_mapping(t_address,t_address)"
					},
					{
						"astId": 11,
						"contract": "BankMappingList.sol:MyBank",
						"label": "listSize",
						"offset": 0,
						"slot": "2",
						"type": "t_uint256"
					},
					{
						"astId": 29,
						"contract": "BankMappingList.sol:MyBank",
						"label": "admin",
						"offset": 0,
						"slot": "3",
						"type": "t_address"
					}
				],
				"types": {
					"t_address": {
						"encoding": "inplace",
						"label": "address",
						"numberOfBytes": "20"
					},
					"t_mapping(t_address,t_address)": {
						"encoding": "mapping",
						"key": "t_address",
						"label": "mapping(address => address)",
						"numberOfBytes": "32",
						"value": "t_address"
					},
					"t_mapping(t_address,t_uint256)": {
						"encoding": "mapping",
						"key": "t_address",
						"label": "mapping(address => uint256)",
						"numberOfBytes": "32",
						"value": "t_uint256"
					},
					"t_uint256": {
						"encoding": "inplace",
						"label": "uint256",
						"numberOfBytes": "32"
					}
				}
			},
			"userdoc": {
				"kind": "user",
				"methods": {},
				"version": 1
			}
		}
	}
}