{"abi":[{"type":"constructor","inputs":[{"name":"_erc721","type":"address","internalType":"address"},{"name":"_erc20","type":"address","internalType":"address"}],"stateMutability":"nonpayable"},{"type":"function","name":"CancelOrder","inputs":[{"name":"_id","type":"uint256","internalType":"uint256"}],"outputs":[],"stateMutability":"nonpayable"},{"type":"function","name":"ChangePrice","inputs":[{"name":"_id","type":"uint256","internalType":"uint256"},{"name":"_price","type":"uint256","internalType":"uint256"}],"outputs":[],"stateMutability":"nonpayable"},{"type":"function","name":"_balance","inputs":[{"name":"","type":"address","internalType":"address"}],"outputs":[{"name":"","type":"uint256","internalType":"uint256"}],"stateMutability":"view"},{"type":"function","name":"buy","inputs":[{"name":"_id","type":"uint256","internalType":"uint256"},{"name":"_price","type":"uint256","internalType":"uint256"}],"outputs":[],"stateMutability":"nonpayable"},{"type":"function","name":"bytesToUint","inputs":[{"name":"b","type":"bytes32","internalType":"bytes32"}],"outputs":[{"name":"","type":"uint256","internalType":"uint256"}],"stateMutability":"view"},{"type":"function","name":"erc20","inputs":[],"outputs":[{"name":"","type":"address","internalType":"contract MyERC20"}],"stateMutability":"view"},{"type":"function","name":"erc721","inputs":[],"outputs":[{"name":"","type":"address","internalType":"contract IERC721"}],"stateMutability":"view"},{"type":"function","name":"getAllOrders","inputs":[],"outputs":[{"name":"","type":"tuple[]","internalType":"struct Market.Order[]","components":[{"name":"seller","type":"address","internalType":"address"},{"name":"id","type":"uint256","internalType":"uint256"},{"name":"price","type":"uint256","internalType":"uint256"}]}],"stateMutability":"view"},{"type":"function","name":"getMyNFT","inputs":[{"name":"account","type":"address","internalType":"address"}],"outputs":[{"name":"","type":"tuple[]","internalType":"struct Market.Order[]","components":[{"name":"seller","type":"address","internalType":"address"},{"name":"id","type":"uint256","internalType":"uint256"},{"name":"price","type":"uint256","internalType":"uint256"}]}],"stateMutability":"view"},{"type":"function","name":"getOrderBuyer","inputs":[{"name":"_id","type":"uint256","internalType":"uint256"}],"outputs":[{"name":"","type":"address","internalType":"address"}],"stateMutability":"view"},{"type":"function","name":"getOrderCount","inputs":[],"outputs":[{"name":"","type":"uint256","internalType":"uint256"}],"stateMutability":"view"},{"type":"function","name":"getOrderId","inputs":[{"name":"_index","type":"uint256","internalType":"uint256"}],"outputs":[{"name":"","type":"uint256","internalType":"uint256"}],"stateMutability":"view"},{"type":"function","name":"getorderIndex","inputs":[{"name":"_id","type":"uint256","internalType":"uint256"}],"outputs":[{"name":"","type":"uint256","internalType":"uint256"}],"stateMutability":"view"},{"type":"function","name":"getorderPrice","inputs":[{"name":"_id","type":"uint256","internalType":"uint256"}],"outputs":[{"name":"","type":"uint256","internalType":"uint256"}],"stateMutability":"view"},{"type":"function","name":"getorderSell","inputs":[{"name":"_id","type":"uint256","internalType":"uint256"}],"outputs":[{"name":"","type":"address","internalType":"address"}],"stateMutability":"view"},{"type":"function","name":"idToOrderIndex","inputs":[{"name":"index","type":"uint256","internalType":"uint256"}],"outputs":[{"name":"","type":"uint256","internalType":"uint256"}],"stateMutability":"view"},{"type":"function","name":"orderofId","inputs":[{"name":"","type":"uint256","internalType":"uint256"}],"outputs":[{"name":"seller","type":"address","internalType":"address"},{"name":"id","type":"uint256","internalType":"uint256"},{"name":"price","type":"uint256","internalType":"uint256"}],"stateMutability":"view"},{"type":"function","name":"orders","inputs":[{"name":"","type":"uint256","internalType":"uint256"}],"outputs":[{"name":"seller","type":"address","internalType":"address"},{"name":"id","type":"uint256","internalType":"uint256"},{"name":"price","type":"uint256","internalType":"uint256"}],"stateMutability":"view"},{"type":"function","name":"placeOrder","inputs":[{"name":"seller","type":"address","internalType":"address"},{"name":"id","type":"uint256","internalType":"uint256"},{"name":"price","type":"uint256","internalType":"uint256"}],"outputs":[],"stateMutability":"nonpayable"},{"type":"function","name":"toUint256","inputs":[{"name":"_bytes","type":"bytes","internalType":"bytes"},{"name":"_start","type":"uint256","internalType":"uint256"}],"outputs":[{"name":"","type":"uint256","internalType":"uint256"}],"stateMutability":"pure"},{"type":"function","name":"tokenRecieve","inputs":[{"name":"from","type":"address","internalType":"address"},{"name":"value","type":"uint256","internalType":"uint256"},{"name":"_id","type":"uint256","internalType":"uint256"}],"outputs":[],"stateMutability":"nonpayable"},{"type":"event","name":"Deal","inputs":[{"name":"seller","type":"address","indexed":true,"internalType":"address"},{"name":"buyer","type":"address","indexed":true,"internalType":"address"},{"name":"id","type":"uint256","indexed":false,"internalType":"uint256"},{"name":"price","type":"uint256","indexed":false,"internalType":"uint256"}],"anonymous":false},{"type":"event","name":"List","inputs":[{"name":"seller","type":"address","indexed":true,"internalType":"address"},{"name":"id","type":"uint256","indexed":false,"internalType":"uint256"},{"name":"price","type":"uint256","indexed":false,"internalType":"uint256"}],"anonymous":false},{"type":"event","name":"cancelOrder","inputs":[{"name":"_id","type":"uint256","indexed":false,"internalType":"uint256"}],"anonymous":false},{"type":"event","name":"changePrice","inputs":[{"name":"_id","type":"uint256","indexed":false,"internalType":"uint256"},{"name":"_price","type":"uint256","indexed":false,"internalType":"uint256"}],"anonymous":false}],"bytecode":{"object":"0x608060405234801561001057600080fd5b5060405161134538038061134583398101604081905261002f9161007c565b600080546001600160a01b039384166001600160a01b031991821617909155600180549290931691161790556100af565b80516001600160a01b038116811461007757600080fd5b919050565b6000806040838503121561008f57600080fd5b61009883610060565b91506100a660208401610060565b90509250929050565b611287806100be6000396000f3fe608060405234801561001057600080fd5b50600436106101375760003560e01c8063a85c38ef116100b8578063d6febde81161007c578063d6febde8146102cd578063da694df0146102e0578063e1bd88c214610300578063ec78540d14610313578063ee3399451461033c578063f0d069261461031357600080fd5b8063a85c38ef1461023c578063b5cdf92414610274578063bca6ce6414610287578063cfc5a9691461029a578063d3aceae2146102ad57600080fd5b80637bea0d1c116100ff5780637bea0d1c146101d95780638d0a5fbb146101ee578063935c9ad2146101f65780639a0c1b41146102095780639d2166ae1461022957600080fd5b8063171f17601461013c57806339fae5251461015157806377e16afe14610188578063785e9e861461019b5780637a23754e146101c6575b600080fd5b61014f61014a366004610ebb565b610376565b005b61017561015f366004610eee565b6000908152600260208190526040909120015490565b6040519081526020015b60405180910390f35b61014f610196366004610ebb565b6104d6565b6001546101ae906001600160a01b031681565b6040516001600160a01b03909116815260200161017f565b61014f6101d4366004610f07565b61062b565b6101e161075b565b60405161017f9190610f29565b600554610175565b61014f610204366004610eee565b6107dd565b610175610217366004610eee565b60009081526003602052604090205490565b610175610237366004610eee565b6108d8565b61024f61024a366004610eee565b610906565b604080516001600160a01b03909416845260208401929092529082015260600161017f565b610175610282366004610fa1565b610943565b6000546101ae906001600160a01b031681565b6101756102a8366004610eee565b610a09565b6101756102bb366004611056565b60046020526000908152604090205481565b61014f6102db366004610f07565b610a7d565b6101756102ee366004610eee565b60036020526000908152604090205481565b6101e161030e366004611056565b610c77565b6101ae610321366004610eee565b6000908152600260205260409020546001600160a01b031690565b61024f61034a366004610eee565b60026020819052600091825260409091208054600182015491909201546001600160a01b039092169183565b6000818152600260208181526040808420815160608101835281546001600160a01b0390811680835260018401549583019590955291909401548483015293549051632142170760e11b815260048101839052878516602482015260448101869052929391929116906342842e0e90606401600060405180830381600087803b15801561040257600080fd5b505af1158015610416573d6000803e3d6000fd5b505060015460405163a9059cbb60e01b81526001600160a01b03858116600483015260248201899052909116925063a9059cbb91506044016020604051808303816000875af115801561046d573d6000803e3d6000fd5b505050506040513d601f19601f820116820180604052508101906104919190611078565b6104cf5760405162461bcd60e51b815260206004820152600a602482015269195c98cc8c0819985a5b60b21b60448201526064015b60405180910390fd5b5050505050565b604080516060810182526001600160a01b038086168252602080830186815283850186815260058054600181810183556000838152885160039093027f036b6384b5eca791c62761152d0c79bb0604c104a5fb6f4eb0703f3154bb3db081018054948a166001600160a01b031995861617905586517f036b6384b5eca791c62761152d0c79bb0604c104a5fb6f4eb0703f3154bb3db182015585517f036b6384b5eca791c62761152d0c79bb0604c104a5fb6f4eb0703f3154bb3db2909101558b815260029687905298909820875181549716969091169590951785559151848701555192909101919091555490916105ce916110b0565b6000848152600360209081526040918290209290925580518581529182018490526001600160a01b038616917f1518ffac149698f404e82117efa8b67d99c365490eefe4e0f91856a93ca8d9c1910160405180910390a250505050565b6000828152600260205260409020546001600160a01b03166106875760405162461bcd60e51b815260206004820152601560248201527450726f64756374206e6f7420617661696c61626c6560581b60448201526064016104c6565b6000828152600260205260409020546001600160a01b031633146106bd5760405162461bcd60e51b81526004016104c6906110c3565b6000828152600260208181526040808420815160608101835281546001600160a01b0380821683526001840180548488019081528487018b8152998c905288885284519092166001600160a01b0319909316929092178455519055945193019290925581518581529081018490527fb3de019cba215d4f3c532c1740d910f08288eca6b69768b4337c16ab74b49741910160405180910390a1505050565b60606005805480602002602001604051908101604052809291908181526020016000905b828210156107d4576000848152602090819020604080516060810182526003860290920180546001600160a01b031683526001808201548486015260029091015491830191909152908352909201910161077f565b50505050905090565b6000818152600260205260409020546001600160a01b03166108395760405162461bcd60e51b815260206004820152601560248201527450726f64756374206e6f7420617661696c61626c6560581b60448201526064016104c6565b6000818152600260205260409020546001600160a01b0316331461086f5760405162461bcd60e51b81526004016104c6906110c3565b600081815260026020818152604080842080546001600160a01b0319168155600181018590559092018390556003815281832092909255518281527f514fcac7bebb46f0de48634659b1bf29bbb864f5db67e9070672ed508989394e910160405180910390a150565b6000600582815481106108ed576108ed611108565b9060005260206000209060030201600101549050919050565b6005818154811061091657600080fd5b60009182526020909120600390910201805460018201546002909201546001600160a01b03909116925083565b60008161095181602061111e565b101561099f5760405162461bcd60e51b815260206004820152601a60248201527f4d61726b65743a20746f55696e743235365f6f766572666c6f7700000000000060448201526064016104c6565b6109aa82602061111e565b835110156109fa5760405162461bcd60e51b815260206004820152601d60248201527f4d61726b65743a20746f55696e743235365f6f75744f66426f756e647300000060448201526064016104c6565b50818101602001515b92915050565b60008060005b6020811015610a7657610a2381600161111e565b610a2e9060206110b0565b610a39906008611131565b610a4490600261122c565b848260208110610a5657610a56611108565b610a629291901a611131565b610a6c908361111e565b9150600101610a0f565b5092915050565b600082815260026020818152604092839020835160608101855281546001600160a01b031681526001820154928101929092529091015491810182905290828114610b035760405162461bcd60e51b815260206004820152601660248201527509ac2e4d6cae87440a0e4d2c6ca40dad2e6dac2e8c6d60531b60448201526064016104c6565b81516001546040516323b872dd60e01b815233600482018190526001600160a01b03808516602484015260448301889052909216906323b872dd906064016020604051808303816000875af1158015610b60573d6000803e3d6000fd5b505050506040513d601f19601f82011682018060405250810190610b849190611078565b50600054604051632142170760e11b81526001600160a01b038481166004830152838116602483015260448201899052909116906342842e0e90606401600060405180830381600087803b158015610bdb57600080fd5b505af1158015610bef573d6000803e3d6000fd5b505050600087815260026020818152604080842080546001600160a01b031916815560018101859055909201839055600381528183209290925580518981529182018890526001600160a01b0384811693508516917f424d5e5f0192c7dacdbe646ca31b00299146d883d76a95ef5cddbac7cd342eab910160405180910390a3505050505050565b60055460609060009067ffffffffffffffff811115610c9857610c98610f8b565b604051908082528060200260200182016040528015610cf657816020015b610ce3604051806060016040528060006001600160a01b0316815260200160008152602001600081525090565b815260200190600190039081610cb65790505b5090506000805b600554811015610dcf57846001600160a01b031660058281548110610d2457610d24611108565b60009182526020909120600390910201546001600160a01b031603610dc75760058181548110610d5657610d56611108565b600091825260209182902060408051606081018252600390930290910180546001600160a01b03168352600181015493830193909352600290920154918101919091528351849084908110610dad57610dad611108565b60200260200101819052508180610dc390611238565b9250505b600101610cfd565b5060008167ffffffffffffffff811115610deb57610deb610f8b565b604051908082528060200260200182016040528015610e4957816020015b610e36604051806060016040528060006001600160a01b0316815260200160008152602001600081525090565b815260200190600190039081610e095790505b50905060005b82811015610e9657838181518110610e6957610e69611108565b6020026020010151828281518110610e8357610e83611108565b6020908102919091010152600101610e4f565b50949350505050565b80356001600160a01b0381168114610eb657600080fd5b919050565b600080600060608486031215610ed057600080fd5b610ed984610e9f565b95602085013595506040909401359392505050565b600060208284031215610f0057600080fd5b5035919050565b60008060408385031215610f1a57600080fd5b50508035926020909101359150565b602080825282518282018190526000919060409081850190868401855b82811015610f7e57815180516001600160a01b0316855286810151878601528501518585015260609093019290850190600101610f46565b5091979650505050505050565b634e487b7160e01b600052604160045260246000fd5b60008060408385031215610fb457600080fd5b823567ffffffffffffffff80821115610fcc57600080fd5b818501915085601f830112610fe057600080fd5b813581811115610ff257610ff2610f8b565b604051601f8201601f19908116603f0116810190838211818310171561101a5761101a610f8b565b8160405282815288602084870101111561103357600080fd5b826020860160208301376000602093820184015298969091013596505050505050565b60006020828403121561106857600080fd5b61107182610e9f565b9392505050565b60006020828403121561108a57600080fd5b8151801515811461107157600080fd5b634e487b7160e01b600052601160045260246000fd5b81810381811115610a0357610a0361109a565b60208082526025908201527f596f7520617265206e6f7420746865206f776e6572206f6620746869732070726040820152641bd91d58dd60da1b606082015260800190565b634e487b7160e01b600052603260045260246000fd5b80820180821115610a0357610a0361109a565b8082028115828204841417610a0357610a0361109a565b600181815b808511156111835781600019048211156111695761116961109a565b8085161561117657918102915b93841c939080029061114d565b509250929050565b60008261119a57506001610a03565b816111a757506000610a03565b81600181146111bd57600281146111c7576111e3565b6001915050610a03565b60ff8411156111d8576111d861109a565b50506001821b610a03565b5060208310610133831016604e8410600b8410161715611206575081810a610a03565b6112108383611148565b80600019048211156112245761122461109a565b029392505050565b6000611071838361118b565b60006001820161124a5761124a61109a565b506001019056fea2646970667358221220c3cfa33b088efb918ff02dcacfe1a266835063ef003ad3e8c0eeba801958f87564736f6c63430008170033","linkReferences":{}},"methodIdentifiers":{"CancelOrder(uint256)":"935c9ad2","ChangePrice(uint256,uint256)":"7a23754e","_balance(address)":"d3aceae2","buy(uint256,uint256)":"d6febde8","bytesToUint(bytes32)":"cfc5a969","erc20()":"785e9e86","erc721()":"bca6ce64","getAllOrders()":"7bea0d1c","getMyNFT(address)":"e1bd88c2","getOrderBuyer(uint256)":"f0d06926","getOrderCount()":"8d0a5fbb","getOrderId(uint256)":"9d2166ae","getorderIndex(uint256)":"9a0c1b41","getorderPrice(uint256)":"39fae525","getorderSell(uint256)":"ec78540d","idToOrderIndex(uint256)":"da694df0","orderofId(uint256)":"ee339945","orders(uint256)":"a85c38ef","placeOrder(address,uint256,uint256)":"77e16afe","toUint256(bytes,uint256)":"b5cdf924","tokenRecieve(address,uint256,uint256)":"171f1760"},"id":42}