{
	"day3/contracts/Test2.sol": {
		"Bank": {
			"abi": [
				{
					"inputs": [],
					"stateMutability": "nonpayable",
					"type": "constructor"
				},
				{
					"inputs": [],
					"name": "admin",
					"outputs": [
						{
							"internalType": "address",
							"name": "",
							"type": "address"
						}
					],
					"stateMutability": "view",
					"type": "function"
				},
				{
					"inputs": [
						{
							"internalType": "address",
							"name": "",
							"type": "address"
						}
					],
					"name": "balances",
					"outputs": [
						{
							"internalType": "uint256",
							"name": "",
							"type": "uint256"
						}
					],
					"stateMutability": "view",
					"type": "function"
				},
				{
					"inputs": [],
					"name": "deposit",
					"outputs": [],
					"stateMutability": "payable",
					"type": "function"
				},
				{
					"inputs": [
						{
							"internalType": "uint256",
							"name": "",
							"type": "uint256"
						}
					],
					"name": "topThreeDepositAddresses",
					"outputs": [
						{
							"internalType": "address",
							"name": "",
							"type": "address"
						}
					],
					"stateMutability": "view",
					"type": "function"
				},
				{
					"inputs": [],
					"name": "withdraw",
					"outputs": [],
					"stateMutability": "nonpayable",
					"type": "function"
				}
			],
			"devdoc": {
				"kind": "dev",
				"methods": {},
				"version": 1
			},
			"evm": {
				"assembly": "    /* \"day3/contracts/Test2.sol\":60:1295  contract Bank {... */\n  mstore(0x40, 0x80)\n    /* \"day3/contracts/Test2.sol\":209:260  constructor() {... */\n  callvalue\n  dup1\n  iszero\n  tag_1\n  jumpi\n  0x00\n  dup1\n  revert\ntag_1:\n  pop\n    /* \"day3/contracts/Test2.sol\":234:239  admin */\n  0x00\n    /* \"day3/contracts/Test2.sol\":234:252  admin = msg.sender */\n  dup1\n  sload\n  not(sub(shl(0xa0, 0x01), 0x01))\n  and\n    /* \"day3/contracts/Test2.sol\":242:252  msg.sender */\n  caller\n    /* \"day3/contracts/Test2.sol\":234:252  admin = msg.sender */\n  or\n  swap1\n  sstore\n    /* \"day3/contracts/Test2.sol\":60:1295  contract Bank {... */\n  dataSize(sub_0)\n  dup1\n  dataOffset(sub_0)\n  0x00\n  codecopy\n  0x00\n  return\nstop\n\nsub_0: assembly {\n        /* \"day3/contracts/Test2.sol\":60:1295  contract Bank {... */\n      mstore(0x40, 0x80)\n      jumpi(tag_1, lt(calldatasize, 0x04))\n      shr(0xe0, calldataload(0x00))\n      dup1\n      0x198d74a1\n      eq\n      tag_2\n      jumpi\n      dup1\n      0x27e235e3\n      eq\n      tag_3\n      jumpi\n      dup1\n      0x3ccfd60b\n      eq\n      tag_4\n      jumpi\n      dup1\n      0xd0e30db0\n      eq\n      tag_5\n      jumpi\n      dup1\n      0xf851a440\n      eq\n      tag_6\n      jumpi\n    tag_1:\n      0x00\n      dup1\n      revert\n        /* \"day3/contracts/Test2.sol\":158:200  address[3] public topThreeDepositAddresses */\n    tag_2:\n      callvalue\n      dup1\n      iszero\n      tag_7\n      jumpi\n      0x00\n      dup1\n      revert\n    tag_7:\n      pop\n      tag_8\n      tag_9\n      calldatasize\n      0x04\n      tag_10\n      jump\t// in\n    tag_9:\n      tag_11\n      jump\t// in\n    tag_8:\n      mload(0x40)\n      sub(shl(0xa0, 0x01), 0x01)\n        /* \"#utility.yul\":363:395   */\n      swap1\n      swap2\n      and\n        /* \"#utility.yul\":345:396   */\n      dup2\n      mstore\n        /* \"#utility.yul\":333:335   */\n      0x20\n        /* \"#utility.yul\":318:336   */\n      add\n        /* \"day3/contracts/Test2.sol\":158:200  address[3] public topThreeDepositAddresses */\n    tag_12:\n      mload(0x40)\n      dup1\n      swap2\n      sub\n      swap1\n      return\n        /* \"day3/contracts/Test2.sol\":108:151  mapping(address => uint256) public balances */\n    tag_3:\n      callvalue\n      dup1\n      iszero\n      tag_14\n      jumpi\n      0x00\n      dup1\n      revert\n    tag_14:\n      pop\n      tag_15\n      tag_16\n      calldatasize\n      0x04\n      tag_17\n      jump\t// in\n    tag_16:\n      mstore(0x20, 0x01)\n      0x00\n      swap1\n      dup2\n      mstore\n      0x40\n      swap1\n      keccak256\n      sload\n      dup2\n      jump\n    tag_15:\n      mload(0x40)\n        /* \"#utility.yul\":844:869   */\n      swap1\n      dup2\n      mstore\n        /* \"#utility.yul\":832:834   */\n      0x20\n        /* \"#utility.yul\":817:835   */\n      add\n        /* \"day3/contracts/Test2.sol\":108:151  mapping(address => uint256) public balances */\n      tag_12\n        /* \"#utility.yul\":698:875   */\n      jump\n        /* \"day3/contracts/Test2.sol\":417:577  function withdraw() external {... */\n    tag_4:\n      callvalue\n      dup1\n      iszero\n      tag_21\n      jumpi\n      0x00\n      dup1\n      revert\n    tag_21:\n      pop\n      tag_22\n      tag_23\n      jump\t// in\n    tag_22:\n      stop\n        /* \"day3/contracts/Test2.sol\":268:409  function deposit() external payable {... */\n    tag_5:\n      tag_22\n      tag_25\n      jump\t// in\n        /* \"day3/contracts/Test2.sol\":81:101  address public admin */\n    tag_6:\n      callvalue\n      dup1\n      iszero\n      tag_26\n      jumpi\n      0x00\n      dup1\n      revert\n    tag_26:\n      pop\n      sload(0x00)\n      tag_8\n      swap1\n      sub(shl(0xa0, 0x01), 0x01)\n      and\n      dup2\n      jump\n        /* \"day3/contracts/Test2.sol\":158:200  address[3] public topThreeDepositAddresses */\n    tag_11:\n      0x02\n      dup2\n      0x03\n      dup2\n      lt\n      tag_30\n      jumpi\n      0x00\n      dup1\n      revert\n    tag_30:\n      add\n      sload\n      sub(shl(0xa0, 0x01), 0x01)\n      and\n      swap1\n      pop\n      dup2\n      jump\t// out\n        /* \"day3/contracts/Test2.sol\":417:577  function withdraw() external {... */\n    tag_23:\n        /* \"day3/contracts/Test2.sol\":479:484  admin */\n      and(sub(shl(0xa0, 0x01), 0x01), sload(0x00))\n        /* \"day3/contracts/Test2.sol\":465:475  msg.sender */\n      caller\n        /* \"day3/contracts/Test2.sol\":465:484  msg.sender == admin */\n      eq\n        /* \"day3/contracts/Test2.sol\":457:512  require(msg.sender == admin, \"Only admin can withdraw\") */\n      tag_33\n      jumpi\n      mload(0x40)\n      shl(0xe5, 0x461bcd)\n      dup2\n      mstore\n        /* \"#utility.yul\":1082:1084   */\n      0x20\n        /* \"day3/contracts/Test2.sol\":457:512  require(msg.sender == admin, \"Only admin can withdraw\") */\n      0x04\n      dup3\n      add\n        /* \"#utility.yul\":1064:1085   */\n      mstore\n        /* \"#utility.yul\":1121:1123   */\n      0x17\n        /* \"#utility.yul\":1101:1119   */\n      0x24\n      dup3\n      add\n        /* \"#utility.yul\":1094:1124   */\n      mstore\n        /* \"#utility.yul\":1160:1185   */\n      0x4f6e6c792061646d696e2063616e207769746864726177000000000000000000\n        /* \"#utility.yul\":1140:1158   */\n      0x44\n      dup3\n      add\n        /* \"#utility.yul\":1133:1186   */\n      mstore\n        /* \"#utility.yul\":1203:1221   */\n      0x64\n      add\n        /* \"day3/contracts/Test2.sol\":457:512  require(msg.sender == admin, \"Only admin can withdraw\") */\n      mload(0x40)\n      dup1\n      swap2\n      sub\n      swap1\n      revert\n    tag_33:\n        /* \"day3/contracts/Test2.sol\":531:536  admin */\n      0x00\n      dup1\n      sload\n        /* \"day3/contracts/Test2.sol\":523:569  payable(admin).transfer(address(this).balance) */\n      mload(0x40)\n      sub(shl(0xa0, 0x01), 0x01)\n        /* \"day3/contracts/Test2.sol\":531:536  admin */\n      swap1\n      swap2\n      and\n      swap2\n        /* \"day3/contracts/Test2.sol\":547:568  address(this).balance */\n      selfbalance\n        /* \"day3/contracts/Test2.sol\":523:569  payable(admin).transfer(address(this).balance) */\n      dup1\n      iszero\n      0x08fc\n      mul\n      swap3\n        /* \"day3/contracts/Test2.sol\":547:568  address(this).balance */\n      swap1\n      swap2\n        /* \"day3/contracts/Test2.sol\":523:569  payable(admin).transfer(address(this).balance) */\n      dup2\n        /* \"day3/contracts/Test2.sol\":531:536  admin */\n      dup2\n        /* \"day3/contracts/Test2.sol\":523:569  payable(admin).transfer(address(this).balance) */\n      dup2\n        /* \"day3/contracts/Test2.sol\":547:568  address(this).balance */\n      dup6\n        /* \"day3/contracts/Test2.sol\":531:536  admin */\n      dup9\n        /* \"day3/contracts/Test2.sol\":523:569  payable(admin).transfer(address(this).balance) */\n      dup9\n      call\n      swap4\n      pop\n      pop\n      pop\n      pop\n      iszero\n      dup1\n      iszero\n      tag_37\n      jumpi\n      returndatasize\n      0x00\n      dup1\n      returndatacopy\n      revert(0x00, returndatasize)\n    tag_37:\n      pop\n        /* \"day3/contracts/Test2.sol\":417:577  function withdraw() external {... */\n      jump\t// out\n        /* \"day3/contracts/Test2.sol\":268:409  function deposit() external payable {... */\n    tag_25:\n        /* \"day3/contracts/Test2.sol\":324:334  msg.sender */\n      caller\n        /* \"day3/contracts/Test2.sol\":315:335  balances[msg.sender] */\n      0x00\n      swap1\n      dup2\n      mstore\n        /* \"day3/contracts/Test2.sol\":315:323  balances */\n      0x01\n        /* \"day3/contracts/Test2.sol\":315:335  balances[msg.sender] */\n      0x20\n      mstore\n      0x40\n      dup2\n      keccak256\n        /* \"day3/contracts/Test2.sol\":315:348  balances[msg.sender] += msg.value */\n      dup1\n      sload\n        /* \"day3/contracts/Test2.sol\":339:348  msg.value */\n      callvalue\n      swap3\n        /* \"day3/contracts/Test2.sol\":315:335  balances[msg.sender] */\n      swap1\n        /* \"day3/contracts/Test2.sol\":315:348  balances[msg.sender] += msg.value */\n      tag_39\n      swap1\n        /* \"day3/contracts/Test2.sol\":339:348  msg.value */\n      dup5\n      swap1\n        /* \"day3/contracts/Test2.sol\":315:348  balances[msg.sender] += msg.value */\n      tag_40\n      jump\t// in\n    tag_39:\n      swap1\n      swap2\n      sstore\n      pop\n        /* \"day3/contracts/Test2.sol\":359:401  updateTopThreeDepositAddresses(msg.sender) */\n      tag_41\n      swap1\n      pop\n        /* \"day3/contracts/Test2.sol\":390:400  msg.sender */\n      caller\n        /* \"day3/contracts/Test2.sol\":359:389  updateTopThreeDepositAddresses */\n      tag_42\n        /* \"day3/contracts/Test2.sol\":359:401  updateTopThreeDepositAddresses(msg.sender) */\n      jump\t// in\n    tag_41:\n        /* \"day3/contracts/Test2.sol\":268:409  function deposit() external payable {... */\n      jump\t// out\n        /* \"day3/contracts/Test2.sol\":585:1292  function updateTopThreeDepositAddresses(address depositor) internal {... */\n    tag_42:\n        /* \"day3/contracts/Test2.sol\":699:723  topThreeDepositAddresses */\n      0x02\n        /* \"day3/contracts/Test2.sol\":699:726  topThreeDepositAddresses[0] */\n      sload\n      sub(shl(0xa0, 0x01), 0x01)\n      swap1\n      dup2\n      and\n        /* \"day3/contracts/Test2.sol\":690:727  balances[topThreeDepositAddresses[0]] */\n      0x00\n      swap1\n      dup2\n      mstore\n        /* \"day3/contracts/Test2.sol\":690:698  balances */\n      0x01\n        /* \"day3/contracts/Test2.sol\":690:727  balances[topThreeDepositAddresses[0]] */\n      0x20\n      mstore\n      0x40\n      dup1\n      dup3\n      keccak256\n      sload\n        /* \"day3/contracts/Test2.sol\":668:687  balances[depositor] */\n      swap3\n      dup5\n      and\n      dup3\n      mstore\n      swap1\n      keccak256\n      sload\n        /* \"day3/contracts/Test2.sol\":668:727  balances[depositor] > balances[topThreeDepositAddresses[0]] */\n      gt\n        /* \"day3/contracts/Test2.sol\":664:1285  if (balances[depositor] > balances[topThreeDepositAddresses[0]]) {... */\n      iszero\n      tag_48\n      jumpi\n        /* \"day3/contracts/Test2.sol\":774:801  topThreeDepositAddresses[1] */\n      0x03\n      dup1\n      sload\n        /* \"day3/contracts/Test2.sol\":744:771  topThreeDepositAddresses[2] */\n      0x04\n        /* \"day3/contracts/Test2.sol\":744:801  topThreeDepositAddresses[2] = topThreeDepositAddresses[1] */\n      dup1\n      sload\n      sub(shl(0xa0, 0x01), 0x01)\n        /* \"day3/contracts/Test2.sol\":774:801  topThreeDepositAddresses[1] */\n      dup1\n      dup5\n      and\n      not(sub(shl(0xa0, 0x01), 0x01))\n        /* \"day3/contracts/Test2.sol\":744:801  topThreeDepositAddresses[2] = topThreeDepositAddresses[1] */\n      swap3\n      dup4\n      and\n      or\n      swap1\n      swap3\n      sstore\n        /* \"day3/contracts/Test2.sol\":774:798  topThreeDepositAddresses */\n      0x02\n        /* \"day3/contracts/Test2.sol\":846:873  topThreeDepositAddresses[0] */\n      dup1\n      sload\n      swap1\n      swap3\n      and\n        /* \"day3/contracts/Test2.sol\":816:873  topThreeDepositAddresses[1] = topThreeDepositAddresses[0] */\n      swap3\n      and\n      swap2\n      swap1\n      swap2\n      or\n      swap1\n      swap2\n      sstore\n        /* \"day3/contracts/Test2.sol\":918:927  depositor */\n      dup2\n      swap1\n      0x00\n        /* \"day3/contracts/Test2.sol\":888:915  topThreeDepositAddresses[0] */\n    tag_62:\n      add\n        /* \"day3/contracts/Test2.sol\":888:927  topThreeDepositAddresses[0] = depositor */\n      dup1\n      sload\n      not(sub(shl(0xa0, 0x01), 0x01))\n      and\n      sub(shl(0xa0, 0x01), 0x01)\n      swap3\n      swap1\n      swap3\n      and\n      swap2\n      swap1\n      swap2\n      or\n      swap1\n      sstore\n      pop\n        /* \"day3/contracts/Test2.sol\":417:577  function withdraw() external {... */\n      jump\t// out\n        /* \"day3/contracts/Test2.sol\":664:1285  if (balances[depositor] > balances[topThreeDepositAddresses[0]]) {... */\n    tag_48:\n        /* \"day3/contracts/Test2.sol\":980:1007  topThreeDepositAddresses[1] */\n      sload(0x03)\n      sub(shl(0xa0, 0x01), 0x01)\n      swap1\n      dup2\n      and\n        /* \"day3/contracts/Test2.sol\":971:1008  balances[topThreeDepositAddresses[1]] */\n      0x00\n      swap1\n      dup2\n      mstore\n        /* \"day3/contracts/Test2.sol\":971:979  balances */\n      0x01\n        /* \"day3/contracts/Test2.sol\":971:1008  balances[topThreeDepositAddresses[1]] */\n      0x20\n      mstore\n      0x40\n      dup1\n      dup3\n      keccak256\n      sload\n        /* \"day3/contracts/Test2.sol\":949:968  balances[depositor] */\n      swap3\n      dup5\n      and\n      dup3\n      mstore\n      swap1\n      keccak256\n      sload\n        /* \"day3/contracts/Test2.sol\":949:1008  balances[depositor] > balances[topThreeDepositAddresses[1]] */\n      gt\n        /* \"day3/contracts/Test2.sol\":945:1285  if (balances[depositor] > balances[topThreeDepositAddresses[1]]) {... */\n      iszero\n      tag_68\n      jumpi\n        /* \"day3/contracts/Test2.sol\":1055:1082  topThreeDepositAddresses[1] */\n      sload(0x03)\n        /* \"day3/contracts/Test2.sol\":1025:1052  topThreeDepositAddresses[2] */\n      0x04\n        /* \"day3/contracts/Test2.sol\":1025:1082  topThreeDepositAddresses[2] = topThreeDepositAddresses[1] */\n      dup1\n      sload\n      not(sub(shl(0xa0, 0x01), 0x01))\n      and\n      sub(shl(0xa0, 0x01), 0x01)\n        /* \"day3/contracts/Test2.sol\":1055:1082  topThreeDepositAddresses[1] */\n      swap1\n      swap3\n      and\n        /* \"day3/contracts/Test2.sol\":1025:1082  topThreeDepositAddresses[2] = topThreeDepositAddresses[1] */\n      swap2\n      swap1\n      swap2\n      or\n      swap1\n      sstore\n        /* \"day3/contracts/Test2.sol\":1127:1136  depositor */\n      dup1\n        /* \"day3/contracts/Test2.sol\":1055:1079  topThreeDepositAddresses */\n      0x02\n        /* \"day3/contracts/Test2.sol\":1080:1081  1 */\n      0x01\n        /* \"day3/contracts/Test2.sol\":1097:1124  topThreeDepositAddresses[1] */\n      jump(tag_62)\n        /* \"day3/contracts/Test2.sol\":945:1285  if (balances[depositor] > balances[topThreeDepositAddresses[1]]) {... */\n    tag_68:\n        /* \"day3/contracts/Test2.sol\":1189:1216  topThreeDepositAddresses[2] */\n      sload(0x04)\n      sub(shl(0xa0, 0x01), 0x01)\n      swap1\n      dup2\n      and\n        /* \"day3/contracts/Test2.sol\":1180:1217  balances[topThreeDepositAddresses[2]] */\n      0x00\n      swap1\n      dup2\n      mstore\n        /* \"day3/contracts/Test2.sol\":1180:1188  balances */\n      0x01\n        /* \"day3/contracts/Test2.sol\":1180:1217  balances[topThreeDepositAddresses[2]] */\n      0x20\n      mstore\n      0x40\n      dup1\n      dup3\n      keccak256\n      sload\n        /* \"day3/contracts/Test2.sol\":1158:1177  balances[depositor] */\n      swap3\n      dup5\n      and\n      dup3\n      mstore\n      swap1\n      keccak256\n      sload\n        /* \"day3/contracts/Test2.sol\":1158:1217  balances[depositor] > balances[topThreeDepositAddresses[2]] */\n      gt\n        /* \"day3/contracts/Test2.sol\":1154:1285  if (balances[depositor] > balances[topThreeDepositAddresses[2]]) {... */\n      iszero\n      tag_37\n      jumpi\n        /* \"day3/contracts/Test2.sol\":1234:1261  topThreeDepositAddresses[2] */\n      0x04\n        /* \"day3/contracts/Test2.sol\":1234:1273  topThreeDepositAddresses[2] = depositor */\n      dup1\n      sload\n      not(sub(shl(0xa0, 0x01), 0x01))\n      and\n      sub(shl(0xa0, 0x01), 0x01)\n      swap3\n      swap1\n      swap3\n      and\n      swap2\n      swap1\n      swap2\n      or\n      swap1\n      sstore\n        /* \"day3/contracts/Test2.sol\":585:1292  function updateTopThreeDepositAddresses(address depositor) internal {... */\n      jump\t// out\n        /* \"#utility.yul\":14:194   */\n    tag_10:\n        /* \"#utility.yul\":73:79   */\n      0x00\n        /* \"#utility.yul\":126:128   */\n      0x20\n        /* \"#utility.yul\":114:123   */\n      dup3\n        /* \"#utility.yul\":105:112   */\n      dup5\n        /* \"#utility.yul\":101:124   */\n      sub\n        /* \"#utility.yul\":97:129   */\n      slt\n        /* \"#utility.yul\":94:146   */\n      iszero\n      tag_88\n      jumpi\n        /* \"#utility.yul\":142:143   */\n      0x00\n        /* \"#utility.yul\":139:140   */\n      dup1\n        /* \"#utility.yul\":132:144   */\n      revert\n        /* \"#utility.yul\":94:146   */\n    tag_88:\n      pop\n        /* \"#utility.yul\":165:188   */\n      calldataload\n      swap2\n        /* \"#utility.yul\":14:194   */\n      swap1\n      pop\n      jump\t// out\n        /* \"#utility.yul\":407:693   */\n    tag_17:\n        /* \"#utility.yul\":466:472   */\n      0x00\n        /* \"#utility.yul\":519:521   */\n      0x20\n        /* \"#utility.yul\":507:516   */\n      dup3\n        /* \"#utility.yul\":498:505   */\n      dup5\n        /* \"#utility.yul\":494:517   */\n      sub\n        /* \"#utility.yul\":490:522   */\n      slt\n        /* \"#utility.yul\":487:539   */\n      iszero\n      tag_91\n      jumpi\n        /* \"#utility.yul\":535:536   */\n      0x00\n        /* \"#utility.yul\":532:533   */\n      dup1\n        /* \"#utility.yul\":525:537   */\n      revert\n        /* \"#utility.yul\":487:539   */\n    tag_91:\n        /* \"#utility.yul\":561:584   */\n      dup2\n      calldataload\n      sub(shl(0xa0, 0x01), 0x01)\n        /* \"#utility.yul\":613:644   */\n      dup2\n      and\n        /* \"#utility.yul\":603:645   */\n      dup2\n      eq\n        /* \"#utility.yul\":593:663   */\n      tag_92\n      jumpi\n        /* \"#utility.yul\":659:660   */\n      0x00\n        /* \"#utility.yul\":656:657   */\n      dup1\n        /* \"#utility.yul\":649:661   */\n      revert\n        /* \"#utility.yul\":593:663   */\n    tag_92:\n        /* \"#utility.yul\":682:687   */\n      swap4\n        /* \"#utility.yul\":407:693   */\n      swap3\n      pop\n      pop\n      pop\n      jump\t// out\n        /* \"#utility.yul\":1232:1454   */\n    tag_40:\n        /* \"#utility.yul\":1297:1306   */\n      dup1\n      dup3\n      add\n        /* \"#utility.yul\":1318:1328   */\n      dup1\n      dup3\n      gt\n        /* \"#utility.yul\":1315:1448   */\n      iszero\n      tag_96\n      jumpi\n        /* \"#utility.yul\":1370:1380   */\n      0x4e487b71\n        /* \"#utility.yul\":1365:1368   */\n      0xe0\n        /* \"#utility.yul\":1361:1381   */\n      shl\n        /* \"#utility.yul\":1358:1359   */\n      0x00\n        /* \"#utility.yul\":1351:1382   */\n      mstore\n        /* \"#utility.yul\":1405:1409   */\n      0x11\n        /* \"#utility.yul\":1402:1403   */\n      0x04\n        /* \"#utility.yul\":1395:1410   */\n      mstore\n        /* \"#utility.yul\":1433:1437   */\n      0x24\n        /* \"#utility.yul\":1430:1431   */\n      0x00\n        /* \"#utility.yul\":1423:1438   */\n      revert\n        /* \"#utility.yul\":1315:1448   */\n    tag_96:\n        /* \"#utility.yul\":1232:1454   */\n      swap3\n      swap2\n      pop\n      pop\n      jump\t// out\n\n    auxdata: 0xa2646970667358221220126ef3eb714bcdc2a9a03259ca9d8e2a8c3eefba38962d20a66252a0c4f3662064736f6c63430008160033\n}\n",
				"bytecode": {
					"linkReferences": {},
					"object": "608060405234801561000f575f80fd5b505f80546001600160a01b031916331790556103aa8061002e5f395ff3fe608060405260043610610049575f3560e01c8063198d74a11461004d57806327e235e3146100895780633ccfd60b146100c2578063d0e30db0146100d8578063f851a440146100e0575b5f80fd5b348015610058575f80fd5b5061006c61006736600461030b565b6100fe565b6040516001600160a01b0390911681526020015b60405180910390f35b348015610094575f80fd5b506100b46100a3366004610322565b60016020525f908152604090205481565b604051908152602001610080565b3480156100cd575f80fd5b506100d661011d565b005b6100d66101b4565b3480156100eb575f80fd5b505f5461006c906001600160a01b031681565b6002816003811061010d575f80fd5b01546001600160a01b0316905081565b5f546001600160a01b0316331461017a5760405162461bcd60e51b815260206004820152601760248201527f4f6e6c792061646d696e2063616e207769746864726177000000000000000000604482015260640160405180910390fd5b5f80546040516001600160a01b03909116914780156108fc02929091818181858888f193505050501580156101b1573d5f803e3d5ffd5b50565b335f90815260016020526040812080543492906101d290849061034f565b909155506101e19050336101e3565b565b6002546001600160a01b039081165f9081526001602052604080822054928416825290205411156102675760038054600480546001600160a01b038084166001600160a01b0319928316179092556002805490921692169190911790915581905f5b0180546001600160a01b0319166001600160a01b039290921691909117905550565b6003546001600160a01b039081165f9081526001602052604080822054928416825290205411156102be57600354600480546001600160a01b0319166001600160a01b039092169190911790558060026001610245565b6004546001600160a01b039081165f9081526001602052604080822054928416825290205411156101b157600480546001600160a01b0319166001600160a01b0392909216919091179055565b5f6020828403121561031b575f80fd5b5035919050565b5f60208284031215610332575f80fd5b81356001600160a01b0381168114610348575f80fd5b9392505050565b8082018082111561036e57634e487b7160e01b5f52601160045260245ffd5b9291505056fea2646970667358221220126ef3eb714bcdc2a9a03259ca9d8e2a8c3eefba38962d20a66252a0c4f3662064736f6c63430008160033",
					"opcodes": "PUSH1 0x80 PUSH1 0x40 MSTORE CALLVALUE DUP1 ISZERO PUSH2 0xF JUMPI PUSH0 DUP1 REVERT JUMPDEST POP PUSH0 DUP1 SLOAD PUSH1 0x1 PUSH1 0x1 PUSH1 0xA0 SHL SUB NOT AND CALLER OR SWAP1 SSTORE PUSH2 0x3AA DUP1 PUSH2 0x2E PUSH0 CODECOPY PUSH0 RETURN INVALID PUSH1 0x80 PUSH1 0x40 MSTORE PUSH1 0x4 CALLDATASIZE LT PUSH2 0x49 JUMPI PUSH0 CALLDATALOAD PUSH1 0xE0 SHR DUP1 PUSH4 0x198D74A1 EQ PUSH2 0x4D JUMPI DUP1 PUSH4 0x27E235E3 EQ PUSH2 0x89 JUMPI DUP1 PUSH4 0x3CCFD60B EQ PUSH2 0xC2 JUMPI DUP1 PUSH4 0xD0E30DB0 EQ PUSH2 0xD8 JUMPI DUP1 PUSH4 0xF851A440 EQ PUSH2 0xE0 JUMPI JUMPDEST PUSH0 DUP1 REVERT JUMPDEST CALLVALUE DUP1 ISZERO PUSH2 0x58 JUMPI PUSH0 DUP1 REVERT JUMPDEST POP PUSH2 0x6C PUSH2 0x67 CALLDATASIZE PUSH1 0x4 PUSH2 0x30B JUMP JUMPDEST PUSH2 0xFE JUMP JUMPDEST PUSH1 0x40 MLOAD PUSH1 0x1 PUSH1 0x1 PUSH1 0xA0 SHL SUB SWAP1 SWAP2 AND DUP2 MSTORE PUSH1 0x20 ADD JUMPDEST PUSH1 0x40 MLOAD DUP1 SWAP2 SUB SWAP1 RETURN JUMPDEST CALLVALUE DUP1 ISZERO PUSH2 0x94 JUMPI PUSH0 DUP1 REVERT JUMPDEST POP PUSH2 0xB4 PUSH2 0xA3 CALLDATASIZE PUSH1 0x4 PUSH2 0x322 JUMP JUMPDEST PUSH1 0x1 PUSH1 0x20 MSTORE PUSH0 SWAP1 DUP2 MSTORE PUSH1 0x40 SWAP1 KECCAK256 SLOAD DUP2 JUMP JUMPDEST PUSH1 0x40 MLOAD SWAP1 DUP2 MSTORE PUSH1 0x20 ADD PUSH2 0x80 JUMP JUMPDEST CALLVALUE DUP1 ISZERO PUSH2 0xCD JUMPI PUSH0 DUP1 REVERT JUMPDEST POP PUSH2 0xD6 PUSH2 0x11D JUMP JUMPDEST STOP JUMPDEST PUSH2 0xD6 PUSH2 0x1B4 JUMP JUMPDEST CALLVALUE DUP1 ISZERO PUSH2 0xEB JUMPI PUSH0 DUP1 REVERT JUMPDEST POP PUSH0 SLOAD PUSH2 0x6C SWAP1 PUSH1 0x1 PUSH1 0x1 PUSH1 0xA0 SHL SUB AND DUP2 JUMP JUMPDEST PUSH1 0x2 DUP2 PUSH1 0x3 DUP2 LT PUSH2 0x10D JUMPI PUSH0 DUP1 REVERT JUMPDEST ADD SLOAD PUSH1 0x1 PUSH1 0x1 PUSH1 0xA0 SHL SUB AND SWAP1 POP DUP2 JUMP JUMPDEST PUSH0 SLOAD PUSH1 0x1 PUSH1 0x1 PUSH1 0xA0 SHL SUB AND CALLER EQ PUSH2 0x17A JUMPI PUSH1 0x40 MLOAD PUSH3 0x461BCD PUSH1 0xE5 SHL DUP2 MSTORE PUSH1 0x20 PUSH1 0x4 DUP3 ADD MSTORE PUSH1 0x17 PUSH1 0x24 DUP3 ADD MSTORE PUSH32 0x4F6E6C792061646D696E2063616E207769746864726177000000000000000000 PUSH1 0x44 DUP3 ADD MSTORE PUSH1 0x64 ADD PUSH1 0x40 MLOAD DUP1 SWAP2 SUB SWAP1 REVERT JUMPDEST PUSH0 DUP1 SLOAD PUSH1 0x40 MLOAD PUSH1 0x1 PUSH1 0x1 PUSH1 0xA0 SHL SUB SWAP1 SWAP2 AND SWAP2 SELFBALANCE DUP1 ISZERO PUSH2 0x8FC MUL SWAP3 SWAP1 SWAP2 DUP2 DUP2 DUP2 DUP6 DUP9 DUP9 CALL SWAP4 POP POP POP POP ISZERO DUP1 ISZERO PUSH2 0x1B1 JUMPI RETURNDATASIZE PUSH0 DUP1 RETURNDATACOPY RETURNDATASIZE PUSH0 REVERT JUMPDEST POP JUMP JUMPDEST CALLER PUSH0 SWAP1 DUP2 MSTORE PUSH1 0x1 PUSH1 0x20 MSTORE PUSH1 0x40 DUP2 KECCAK256 DUP1 SLOAD CALLVALUE SWAP3 SWAP1 PUSH2 0x1D2 SWAP1 DUP5 SWAP1 PUSH2 0x34F JUMP JUMPDEST SWAP1 SWAP2 SSTORE POP PUSH2 0x1E1 SWAP1 POP CALLER PUSH2 0x1E3 JUMP JUMPDEST JUMP JUMPDEST PUSH1 0x2 SLOAD PUSH1 0x1 PUSH1 0x1 PUSH1 0xA0 SHL SUB SWAP1 DUP2 AND PUSH0 SWAP1 DUP2 MSTORE PUSH1 0x1 PUSH1 0x20 MSTORE PUSH1 0x40 DUP1 DUP3 KECCAK256 SLOAD SWAP3 DUP5 AND DUP3 MSTORE SWAP1 KECCAK256 SLOAD GT ISZERO PUSH2 0x267 JUMPI PUSH1 0x3 DUP1 SLOAD PUSH1 0x4 DUP1 SLOAD PUSH1 0x1 PUSH1 0x1 PUSH1 0xA0 SHL SUB DUP1 DUP5 AND PUSH1 0x1 PUSH1 0x1 PUSH1 0xA0 SHL SUB NOT SWAP3 DUP4 AND OR SWAP1 SWAP3 SSTORE PUSH1 0x2 DUP1 SLOAD SWAP1 SWAP3 AND SWAP3 AND SWAP2 SWAP1 SWAP2 OR SWAP1 SWAP2 SSTORE DUP2 SWAP1 PUSH0 JUMPDEST ADD DUP1 SLOAD PUSH1 0x1 PUSH1 0x1 PUSH1 0xA0 SHL SUB NOT AND PUSH1 0x1 PUSH1 0x1 PUSH1 0xA0 SHL SUB SWAP3 SWAP1 SWAP3 AND SWAP2 SWAP1 SWAP2 OR SWAP1 SSTORE POP JUMP JUMPDEST PUSH1 0x3 SLOAD PUSH1 0x1 PUSH1 0x1 PUSH1 0xA0 SHL SUB SWAP1 DUP2 AND PUSH0 SWAP1 DUP2 MSTORE PUSH1 0x1 PUSH1 0x20 MSTORE PUSH1 0x40 DUP1 DUP3 KECCAK256 SLOAD SWAP3 DUP5 AND DUP3 MSTORE SWAP1 KECCAK256 SLOAD GT ISZERO PUSH2 0x2BE JUMPI PUSH1 0x3 SLOAD PUSH1 0x4 DUP1 SLOAD PUSH1 0x1 PUSH1 0x1 PUSH1 0xA0 SHL SUB NOT AND PUSH1 0x1 PUSH1 0x1 PUSH1 0xA0 SHL SUB SWAP1 SWAP3 AND SWAP2 SWAP1 SWAP2 OR SWAP1 SSTORE DUP1 PUSH1 0x2 PUSH1 0x1 PUSH2 0x245 JUMP JUMPDEST PUSH1 0x4 SLOAD PUSH1 0x1 PUSH1 0x1 PUSH1 0xA0 SHL SUB SWAP1 DUP2 AND PUSH0 SWAP1 DUP2 MSTORE PUSH1 0x1 PUSH1 0x20 MSTORE PUSH1 0x40 DUP1 DUP3 KECCAK256 SLOAD SWAP3 DUP5 AND DUP3 MSTORE SWAP1 KECCAK256 SLOAD GT ISZERO PUSH2 0x1B1 JUMPI PUSH1 0x4 DUP1 SLOAD PUSH1 0x1 PUSH1 0x1 PUSH1 0xA0 SHL SUB NOT AND PUSH1 0x1 PUSH1 0x1 PUSH1 0xA0 SHL SUB SWAP3 SWAP1 SWAP3 AND SWAP2 SWAP1 SWAP2 OR SWAP1 SSTORE JUMP JUMPDEST PUSH0 PUSH1 0x20 DUP3 DUP5 SUB SLT ISZERO PUSH2 0x31B JUMPI PUSH0 DUP1 REVERT JUMPDEST POP CALLDATALOAD SWAP2 SWAP1 POP JUMP JUMPDEST PUSH0 PUSH1 0x20 DUP3 DUP5 SUB SLT ISZERO PUSH2 0x332 JUMPI PUSH0 DUP1 REVERT JUMPDEST DUP2 CALLDATALOAD PUSH1 0x1 PUSH1 0x1 PUSH1 0xA0 SHL SUB DUP2 AND DUP2 EQ PUSH2 0x348 JUMPI PUSH0 DUP1 REVERT JUMPDEST SWAP4 SWAP3 POP POP POP JUMP JUMPDEST DUP1 DUP3 ADD DUP1 DUP3 GT ISZERO PUSH2 0x36E JUMPI PUSH4 0x4E487B71 PUSH1 0xE0 SHL PUSH0 MSTORE PUSH1 0x11 PUSH1 0x4 MSTORE PUSH1 0x24 PUSH0 REVERT JUMPDEST SWAP3 SWAP2 POP POP JUMP INVALID LOG2 PUSH5 0x6970667358 0x22 SLT KECCAK256 SLT PUSH15 0xF3EB714BCDC2A9A03259CA9D8E2A8C RETURNDATACOPY 0xEF 0xBA CODESIZE SWAP7 0x2D KECCAK256 0xA6 PUSH3 0x52A0C4 RETURN PUSH7 0x2064736F6C6343 STOP ADDMOD AND STOP CALLER "
				},
				"gasEstimates": {
					"creation": {
						"codeDepositCost": "187600",
						"executionCost": "24464",
						"totalCost": "212064"
					},
					"external": {
						"admin()": "2390",
						"balances(address)": "2481",
						"deposit()": "105929",
						"topThreeDepositAddresses(uint256)": "2422",
						"withdraw()": "infinite"
					},
					"internal": {
						"updateTopThreeDepositAddresses(address)": "81383"
					}
				},
				"methodIdentifiers": {
					"admin()": "f851a440",
					"balances(address)": "27e235e3",
					"deposit()": "d0e30db0",
					"topThreeDepositAddresses(uint256)": "198d74a1",
					"withdraw()": "3ccfd60b"
				}
			},
			"storageLayout": {
				"storage": [
					{
						"astId": 3,
						"contract": "day3/contracts/Test2.sol:Bank",
						"label": "admin",
						"offset": 0,
						"slot": "0",
						"type": "t_address"
					},
					{
						"astId": 7,
						"contract": "day3/contracts/Test2.sol:Bank",
						"label": "balances",
						"offset": 0,
						"slot": "1",
						"type": "t_mapping(t_address,t_uint256)"
					},
					{
						"astId": 11,
						"contract": "day3/contracts/Test2.sol:Bank",
						"label": "topThreeDepositAddresses",
						"offset": 0,
						"slot": "2",
						"type": "t_array(t_address)3_storage"
					}
				],
				"types": {
					"t_address": {
						"encoding": "inplace",
						"label": "address",
						"numberOfBytes": "20"
					},
					"t_array(t_address)3_storage": {
						"base": "t_address",
						"encoding": "inplace",
						"label": "address[3]",
						"numberOfBytes": "96"
					},
					"t_mapping(t_address,t_uint256)": {
						"encoding": "mapping",
						"key": "t_address",
						"label": "mapping(address => uint256)",
						"numberOfBytes": "32",
						"value": "t_uint256"
					},
					"t_uint256": {
						"encoding": "inplace",
						"label": "uint256",
						"numberOfBytes": "32"
					}
				}
			},
			"userdoc": {
				"kind": "user",
				"methods": {},
				"version": 1
			}
		}
	}
}