{
	"src/MyNFT.sol": {
		"MyNFT": {
			"abi": [
				{
					"inputs": [],
					"stateMutability": "nonpayable",
					"type": "constructor"
				},
				{
					"inputs": [],
					"name": "ERC721EnumerableForbiddenBatchMint",
					"type": "error"
				},
				{
					"inputs": [
						{
							"internalType": "address",
							"name": "sender",
							"type": "address"
						},
						{
							"internalType": "uint256",
							"name": "tokenId",
							"type": "uint256"
						},
						{
							"internalType": "address",
							"name": "owner",
							"type": "address"
						}
					],
					"name": "ERC721IncorrectOwner",
					"type": "error"
				},
				{
					"inputs": [
						{
							"internalType": "address",
							"name": "operator",
							"type": "address"
						},
						{
							"internalType": "uint256",
							"name": "tokenId",
							"type": "uint256"
						}
					],
					"name": "ERC721InsufficientApproval",
					"type": "error"
				},
				{
					"inputs": [
						{
							"internalType": "address",
							"name": "approver",
							"type": "address"
						}
					],
					"name": "ERC721InvalidApprover",
					"type": "error"
				},
				{
					"inputs": [
						{
							"internalType": "address",
							"name": "operator",
							"type": "address"
						}
					],
					"name": "ERC721InvalidOperator",
					"type": "error"
				},
				{
					"inputs": [
						{
							"internalType": "address",
							"name": "owner",
							"type": "address"
						}
					],
					"name": "ERC721InvalidOwner",
					"type": "error"
				},
				{
					"inputs": [
						{
							"internalType": "address",
							"name": "receiver",
							"type": "address"
						}
					],
					"name": "ERC721InvalidReceiver",
					"type": "error"
				},
				{
					"inputs": [
						{
							"internalType": "address",
							"name": "sender",
							"type": "address"
						}
					],
					"name": "ERC721InvalidSender",
					"type": "error"
				},
				{
					"inputs": [
						{
							"internalType": "uint256",
							"name": "tokenId",
							"type": "uint256"
						}
					],
					"name": "ERC721NonexistentToken",
					"type": "error"
				},
				{
					"inputs": [
						{
							"internalType": "address",
							"name": "owner",
							"type": "address"
						},
						{
							"internalType": "uint256",
							"name": "index",
							"type": "uint256"
						}
					],
					"name": "ERC721OutOfBoundsIndex",
					"type": "error"
				},
				{
					"inputs": [
						{
							"internalType": "address",
							"name": "owner",
							"type": "address"
						}
					],
					"name": "OwnableInvalidOwner",
					"type": "error"
				},
				{
					"inputs": [
						{
							"internalType": "address",
							"name": "account",
							"type": "address"
						}
					],
					"name": "OwnableUnauthorizedAccount",
					"type": "error"
				},
				{
					"anonymous": false,
					"inputs": [
						{
							"indexed": true,
							"internalType": "address",
							"name": "owner",
							"type": "address"
						},
						{
							"indexed": true,
							"internalType": "address",
							"name": "approved",
							"type": "address"
						},
						{
							"indexed": true,
							"internalType": "uint256",
							"name": "tokenId",
							"type": "uint256"
						}
					],
					"name": "Approval",
					"type": "event"
				},
				{
					"anonymous": false,
					"inputs": [
						{
							"indexed": true,
							"internalType": "address",
							"name": "owner",
							"type": "address"
						},
						{
							"indexed": true,
							"internalType": "address",
							"name": "operator",
							"type": "address"
						},
						{
							"indexed": false,
							"internalType": "bool",
							"name": "approved",
							"type": "bool"
						}
					],
					"name": "ApprovalForAll",
					"type": "event"
				},
				{
					"anonymous": false,
					"inputs": [
						{
							"indexed": false,
							"internalType": "uint256",
							"name": "_fromTokenId",
							"type": "uint256"
						},
						{
							"indexed": false,
							"internalType": "uint256",
							"name": "_toTokenId",
							"type": "uint256"
						}
					],
					"name": "BatchMetadataUpdate",
					"type": "event"
				},
				{
					"anonymous": false,
					"inputs": [
						{
							"indexed": false,
							"internalType": "uint256",
							"name": "_tokenId",
							"type": "uint256"
						}
					],
					"name": "MetadataUpdate",
					"type": "event"
				},
				{
					"anonymous": false,
					"inputs": [
						{
							"indexed": true,
							"internalType": "address",
							"name": "previousOwner",
							"type": "address"
						},
						{
							"indexed": true,
							"internalType": "address",
							"name": "newOwner",
							"type": "address"
						}
					],
					"name": "OwnershipTransferred",
					"type": "event"
				},
				{
					"anonymous": false,
					"inputs": [
						{
							"indexed": true,
							"internalType": "address",
							"name": "from",
							"type": "address"
						},
						{
							"indexed": true,
							"internalType": "address",
							"name": "to",
							"type": "address"
						},
						{
							"indexed": true,
							"internalType": "uint256",
							"name": "tokenId",
							"type": "uint256"
						}
					],
					"name": "Transfer",
					"type": "event"
				},
				{
					"inputs": [
						{
							"internalType": "address",
							"name": "to",
							"type": "address"
						},
						{
							"internalType": "uint256",
							"name": "tokenId",
							"type": "uint256"
						}
					],
					"name": "approve",
					"outputs": [],
					"stateMutability": "nonpayable",
					"type": "function"
				},
				{
					"inputs": [
						{
							"internalType": "address",
							"name": "owner",
							"type": "address"
						}
					],
					"name": "balanceOf",
					"outputs": [
						{
							"internalType": "uint256",
							"name": "",
							"type": "uint256"
						}
					],
					"stateMutability": "view",
					"type": "function"
				},
				{
					"inputs": [
						{
							"internalType": "uint256",
							"name": "tokenId",
							"type": "uint256"
						}
					],
					"name": "getApproved",
					"outputs": [
						{
							"internalType": "address",
							"name": "",
							"type": "address"
						}
					],
					"stateMutability": "view",
					"type": "function"
				},
				{
					"inputs": [
						{
							"internalType": "address",
							"name": "owner",
							"type": "address"
						},
						{
							"internalType": "address",
							"name": "operator",
							"type": "address"
						}
					],
					"name": "isApprovedForAll",
					"outputs": [
						{
							"internalType": "bool",
							"name": "",
							"type": "bool"
						}
					],
					"stateMutability": "view",
					"type": "function"
				},
				{
					"inputs": [],
					"name": "name",
					"outputs": [
						{
							"internalType": "string",
							"name": "",
							"type": "string"
						}
					],
					"stateMutability": "view",
					"type": "function"
				},
				{
					"inputs": [],
					"name": "owner",
					"outputs": [
						{
							"internalType": "address",
							"name": "",
							"type": "address"
						}
					],
					"stateMutability": "view",
					"type": "function"
				},
				{
					"inputs": [
						{
							"internalType": "uint256",
							"name": "tokenId",
							"type": "uint256"
						}
					],
					"name": "ownerOf",
					"outputs": [
						{
							"internalType": "address",
							"name": "",
							"type": "address"
						}
					],
					"stateMutability": "view",
					"type": "function"
				},
				{
					"inputs": [],
					"name": "renounceOwnership",
					"outputs": [],
					"stateMutability": "nonpayable",
					"type": "function"
				},
				{
					"inputs": [
						{
							"internalType": "address",
							"name": "to",
							"type": "address"
						},
						{
							"internalType": "string",
							"name": "uri",
							"type": "string"
						}
					],
					"name": "safeMint",
					"outputs": [],
					"stateMutability": "nonpayable",
					"type": "function"
				},
				{
					"inputs": [
						{
							"internalType": "address",
							"name": "from",
							"type": "address"
						},
						{
							"internalType": "address",
							"name": "to",
							"type": "address"
						},
						{
							"internalType": "uint256",
							"name": "tokenId",
							"type": "uint256"
						}
					],
					"name": "safeTransferFrom",
					"outputs": [],
					"stateMutability": "nonpayable",
					"type": "function"
				},
				{
					"inputs": [
						{
							"internalType": "address",
							"name": "from",
							"type": "address"
						},
						{
							"internalType": "address",
							"name": "to",
							"type": "address"
						},
						{
							"internalType": "uint256",
							"name": "tokenId",
							"type": "uint256"
						},
						{
							"internalType": "bytes",
							"name": "data",
							"type": "bytes"
						}
					],
					"name": "safeTransferFrom",
					"outputs": [],
					"stateMutability": "nonpayable",
					"type": "function"
				},
				{
					"inputs": [
						{
							"internalType": "address",
							"name": "operator",
							"type": "address"
						},
						{
							"internalType": "bool",
							"name": "approved",
							"type": "bool"
						}
					],
					"name": "setApprovalForAll",
					"outputs": [],
					"stateMutability": "nonpayable",
					"type": "function"
				},
				{
					"inputs": [
						{
							"internalType": "bytes4",
							"name": "interfaceId",
							"type": "bytes4"
						}
					],
					"name": "supportsInterface",
					"outputs": [
						{
							"internalType": "bool",
							"name": "",
							"type": "bool"
						}
					],
					"stateMutability": "view",
					"type": "function"
				},
				{
					"inputs": [],
					"name": "symbol",
					"outputs": [
						{
							"internalType": "string",
							"name": "",
							"type": "string"
						}
					],
					"stateMutability": "view",
					"type": "function"
				},
				{
					"inputs": [
						{
							"internalType": "uint256",
							"name": "index",
							"type": "uint256"
						}
					],
					"name": "tokenByIndex",
					"outputs": [
						{
							"internalType": "uint256",
							"name": "",
							"type": "uint256"
						}
					],
					"stateMutability": "view",
					"type": "function"
				},
				{
					"inputs": [
						{
							"internalType": "address",
							"name": "owner",
							"type": "address"
						},
						{
							"internalType": "uint256",
							"name": "index",
							"type": "uint256"
						}
					],
					"name": "tokenOfOwnerByIndex",
					"outputs": [
						{
							"internalType": "uint256",
							"name": "",
							"type": "uint256"
						}
					],
					"stateMutability": "view",
					"type": "function"
				},
				{
					"inputs": [
						{
							"internalType": "uint256",
							"name": "tokenId",
							"type": "uint256"
						}
					],
					"name": "tokenURI",
					"outputs": [
						{
							"internalType": "string",
							"name": "",
							"type": "string"
						}
					],
					"stateMutability": "view",
					"type": "function"
				},
				{
					"inputs": [],
					"name": "totalSupply",
					"outputs": [
						{
							"internalType": "uint256",
							"name": "",
							"type": "uint256"
						}
					],
					"stateMutability": "view",
					"type": "function"
				},
				{
					"inputs": [
						{
							"internalType": "address",
							"name": "from",
							"type": "address"
						},
						{
							"internalType": "address",
							"name": "to",
							"type": "address"
						},
						{
							"internalType": "uint256",
							"name": "tokenId",
							"type": "uint256"
						}
					],
					"name": "transferFrom",
					"outputs": [],
					"stateMutability": "nonpayable",
					"type": "function"
				},
				{
					"inputs": [
						{
							"internalType": "address",
							"name": "newOwner",
							"type": "address"
						}
					],
					"name": "transferOwnership",
					"outputs": [],
					"stateMutability": "nonpayable",
					"type": "function"
				}
			],
			"devdoc": {
				"errors": {
					"ERC721EnumerableForbiddenBatchMint()": [
						{
							"details": "Batch mint is not allowed."
						}
					],
					"ERC721IncorrectOwner(address,uint256,address)": [
						{
							"details": "Indicates an error related to the ownership over a particular token. Used in transfers.",
							"params": {
								"owner": "Address of the current owner of a token.",
								"sender": "Address whose tokens are being transferred.",
								"tokenId": "Identifier number of a token."
							}
						}
					],
					"ERC721InsufficientApproval(address,uint256)": [
						{
							"details": "Indicates a failure with the `operator`’s approval. Used in transfers.",
							"params": {
								"operator": "Address that may be allowed to operate on tokens without being their owner.",
								"tokenId": "Identifier number of a token."
							}
						}
					],
					"ERC721InvalidApprover(address)": [
						{
							"details": "Indicates a failure with the `approver` of a token to be approved. Used in approvals.",
							"params": {
								"approver": "Address initiating an approval operation."
							}
						}
					],
					"ERC721InvalidOperator(address)": [
						{
							"details": "Indicates a failure with the `operator` to be approved. Used in approvals.",
							"params": {
								"operator": "Address that may be allowed to operate on tokens without being their owner."
							}
						}
					],
					"ERC721InvalidOwner(address)": [
						{
							"details": "Indicates that an address can't be an owner. For example, `address(0)` is a forbidden owner in EIP-20. Used in balance queries.",
							"params": {
								"owner": "Address of the current owner of a token."
							}
						}
					],
					"ERC721InvalidReceiver(address)": [
						{
							"details": "Indicates a failure with the token `receiver`. Used in transfers.",
							"params": {
								"receiver": "Address to which tokens are being transferred."
							}
						}
					],
					"ERC721InvalidSender(address)": [
						{
							"details": "Indicates a failure with the token `sender`. Used in transfers.",
							"params": {
								"sender": "Address whose tokens are being transferred."
							}
						}
					],
					"ERC721NonexistentToken(uint256)": [
						{
							"details": "Indicates a `tokenId` whose `owner` is the zero address.",
							"params": {
								"tokenId": "Identifier number of a token."
							}
						}
					],
					"ERC721OutOfBoundsIndex(address,uint256)": [
						{
							"details": "An `owner`'s token query was out of bounds for `index`. NOTE: The owner being `address(0)` indicates a global out of bounds index."
						}
					],
					"OwnableInvalidOwner(address)": [
						{
							"details": "The owner is not a valid owner account. (eg. `address(0)`)"
						}
					],
					"OwnableUnauthorizedAccount(address)": [
						{
							"details": "The caller account is not authorized to perform an operation."
						}
					]
				},
				"events": {
					"Approval(address,address,uint256)": {
						"details": "Emitted when `owner` enables `approved` to manage the `tokenId` token."
					},
					"ApprovalForAll(address,address,bool)": {
						"details": "Emitted when `owner` enables or disables (`approved`) `operator` to manage all of its assets."
					},
					"BatchMetadataUpdate(uint256,uint256)": {
						"details": "This event emits when the metadata of a range of tokens is changed. So that the third-party platforms such as NFT market could timely update the images and related attributes of the NFTs."
					},
					"MetadataUpdate(uint256)": {
						"details": "This event emits when the metadata of a token is changed. So that the third-party platforms such as NFT market could timely update the images and related attributes of the NFT."
					},
					"Transfer(address,address,uint256)": {
						"details": "Emitted when `tokenId` token is transferred from `from` to `to`."
					}
				},
				"kind": "dev",
				"methods": {
					"approve(address,uint256)": {
						"details": "See {IERC721-approve}."
					},
					"balanceOf(address)": {
						"details": "See {IERC721-balanceOf}."
					},
					"getApproved(uint256)": {
						"details": "See {IERC721-getApproved}."
					},
					"isApprovedForAll(address,address)": {
						"details": "See {IERC721-isApprovedForAll}."
					},
					"name()": {
						"details": "See {IERC721Metadata-name}."
					},
					"owner()": {
						"details": "Returns the address of the current owner."
					},
					"ownerOf(uint256)": {
						"details": "See {IERC721-ownerOf}."
					},
					"renounceOwnership()": {
						"details": "Leaves the contract without owner. It will not be possible to call `onlyOwner` functions. Can only be called by the current owner. NOTE: Renouncing ownership will leave the contract without an owner, thereby disabling any functionality that is only available to the owner."
					},
					"safeTransferFrom(address,address,uint256)": {
						"details": "See {IERC721-safeTransferFrom}."
					},
					"safeTransferFrom(address,address,uint256,bytes)": {
						"details": "See {IERC721-safeTransferFrom}."
					},
					"setApprovalForAll(address,bool)": {
						"details": "See {IERC721-setApprovalForAll}."
					},
					"symbol()": {
						"details": "See {IERC721Metadata-symbol}."
					},
					"tokenByIndex(uint256)": {
						"details": "See {IERC721Enumerable-tokenByIndex}."
					},
					"tokenOfOwnerByIndex(address,uint256)": {
						"details": "See {IERC721Enumerable-tokenOfOwnerByIndex}."
					},
					"totalSupply()": {
						"details": "See {IERC721Enumerable-totalSupply}."
					},
					"transferFrom(address,address,uint256)": {
						"details": "See {IERC721-transferFrom}."
					},
					"transferOwnership(address)": {
						"details": "Transfers ownership of the contract to a new account (`newOwner`). Can only be called by the current owner."
					}
				},
				"version": 1
			},
			"evm": {
				"assembly": "    /* \"src/MyNFT.sol\":388:1684  contract MyNFT is ERC721, ERC721Enumerable, ERC721URIStorage, Ownable {... */\n  mstore(0x40, 0x80)\n    /* \"src/MyNFT.sol\":502:561  constructor() ERC721(\"MyNFT\", \"NFT\") Ownable(msg.sender) {} */\n  callvalue\n  dup1\n  iszero\n  tag_1\n  jumpi\n  0x00\n  dup1\n  revert\ntag_1:\n  pop\n    /* \"src/MyNFT.sol\":547:557  msg.sender */\n  caller\n    /* \"lib/openzeppelin-contracts/contracts/token/ERC721/ERC721.sol\":1419:1535  constructor(string memory name_, string memory symbol_) {... */\n  mload(0x40)\n  dup1\n  0x40\n  add\n  0x40\n  mstore\n  dup1\n  0x05\n  dup2\n  mstore\n  0x20\n  add\n  shl(0xda, 0x135e539195)\n  dup2\n  mstore\n  pop\n  mload(0x40)\n  dup1\n  0x40\n  add\n  0x40\n  mstore\n  dup1\n  0x03\n  dup2\n  mstore\n  0x20\n  add\n  shl(0xea, 0x139195)\n  dup2\n  mstore\n  pop\n    /* \"lib/openzeppelin-contracts/contracts/token/ERC721/ERC721.sol\":1494:1499  name_ */\n  dup2\n    /* \"lib/openzeppelin-contracts/contracts/token/ERC721/ERC721.sol\":1486:1491  _name */\n  0x00\n    /* \"lib/openzeppelin-contracts/contracts/token/ERC721/ERC721.sol\":1486:1499  _name = name_ */\n  swap1\n  dup2\n  tag_6\n  swap2\n  swap1\n  tag_7\n  jump\t// in\ntag_6:\n  pop\n    /* \"lib/openzeppelin-contracts/contracts/token/ERC721/ERC721.sol\":1510:1517  _symbol */\n  0x01\n    /* \"lib/openzeppelin-contracts/contracts/token/ERC721/ERC721.sol\":1510:1527  _symbol = symbol_ */\n  tag_8\n    /* \"lib/openzeppelin-contracts/contracts/token/ERC721/ERC721.sol\":1520:1527  symbol_ */\n  dup3\n    /* \"lib/openzeppelin-contracts/contracts/token/ERC721/ERC721.sol\":1510:1517  _symbol */\n  dup3\n    /* \"lib/openzeppelin-contracts/contracts/token/ERC721/ERC721.sol\":1510:1527  _symbol = symbol_ */\n  tag_7\n  jump\t// in\ntag_8:\n  pop\n  pop\n  pop\n  sub(shl(0xa0, 0x01), 0x01)\n    /* \"lib/openzeppelin-contracts/contracts/access/Ownable.sol\":1311:1337  initialOwner == address(0) */\n  dup2\n  and\n    /* \"lib/openzeppelin-contracts/contracts/access/Ownable.sol\":1307:1404  if (initialOwner == address(0)) {... */\n  tag_10\n  jumpi\n    /* \"lib/openzeppelin-contracts/contracts/access/Ownable.sol\":1361:1392  OwnableInvalidOwner(address(0)) */\n  mload(0x40)\n  shl(0xe0, 0x1e4fbdf7)\n  dup2\n  mstore\n    /* \"lib/openzeppelin-contracts/contracts/access/Ownable.sol\":1389:1390  0 */\n  0x00\n    /* \"lib/openzeppelin-contracts/contracts/access/Ownable.sol\":1361:1392  OwnableInvalidOwner(address(0)) */\n  0x04\n  dup3\n  add\n    /* \"#utility.yul\":2847:2898   */\n  mstore\n    /* \"#utility.yul\":2820:2838   */\n  0x24\n  add\n    /* \"lib/openzeppelin-contracts/contracts/access/Ownable.sol\":1361:1392  OwnableInvalidOwner(address(0)) */\n  mload(0x40)\n  dup1\n  swap2\n  sub\n  swap1\n  revert\n    /* \"lib/openzeppelin-contracts/contracts/access/Ownable.sol\":1307:1404  if (initialOwner == address(0)) {... */\ntag_10:\n    /* \"lib/openzeppelin-contracts/contracts/access/Ownable.sol\":1414:1446  _transferOwnership(initialOwner) */\n  tag_13\n    /* \"lib/openzeppelin-contracts/contracts/access/Ownable.sol\":1433:1445  initialOwner */\n  dup2\n    /* \"lib/openzeppelin-contracts/contracts/access/Ownable.sol\":1414:1432  _transferOwnership */\n  tag_14\n    /* \"lib/openzeppelin-contracts/contracts/access/Ownable.sol\":1414:1446  _transferOwnership(initialOwner) */\n  jump\t// in\ntag_13:\n    /* \"lib/openzeppelin-contracts/contracts/access/Ownable.sol\":1262:1454  constructor(address initialOwner) {... */\n  pop\n    /* \"src/MyNFT.sol\":388:1684  contract MyNFT is ERC721, ERC721Enumerable, ERC721URIStorage, Ownable {... */\n  jump(tag_23)\n    /* \"lib/openzeppelin-contracts/contracts/access/Ownable.sol\":3006:3197  function _transferOwnership(address newOwner) internal virtual {... */\ntag_14:\n    /* \"lib/openzeppelin-contracts/contracts/access/Ownable.sol\":3099:3105  _owner */\n  0x0b\n  dup1\n  sload\n  sub(shl(0xa0, 0x01), 0x01)\n    /* \"lib/openzeppelin-contracts/contracts/access/Ownable.sol\":3116:3133  _owner = newOwner */\n  dup4\n  dup2\n  and\n  not(sub(shl(0xa0, 0x01), 0x01))\n  dup4\n  and\n  dup2\n  or\n  swap1\n  swap4\n  sstore\n    /* \"lib/openzeppelin-contracts/contracts/access/Ownable.sol\":3149:3189  OwnershipTransferred(oldOwner, newOwner) */\n  mload(0x40)\n    /* \"lib/openzeppelin-contracts/contracts/access/Ownable.sol\":3099:3105  _owner */\n  swap2\n  and\n  swap2\n    /* \"lib/openzeppelin-contracts/contracts/access/Ownable.sol\":3116:3133  _owner = newOwner */\n  swap1\n    /* \"lib/openzeppelin-contracts/contracts/access/Ownable.sol\":3099:3105  _owner */\n  dup3\n  swap1\n    /* \"lib/openzeppelin-contracts/contracts/access/Ownable.sol\":3149:3189  OwnershipTransferred(oldOwner, newOwner) */\n  0x8be0079c531659141344cd1fd0a4f28419497f9722a3daafe3b4186f6b6457e0\n  swap1\n    /* \"lib/openzeppelin-contracts/contracts/access/Ownable.sol\":3080:3096  address oldOwner */\n  0x00\n  swap1\n    /* \"lib/openzeppelin-contracts/contracts/access/Ownable.sol\":3149:3189  OwnershipTransferred(oldOwner, newOwner) */\n  log3\n    /* \"lib/openzeppelin-contracts/contracts/access/Ownable.sol\":3069:3197  {... */\n  pop\n    /* \"lib/openzeppelin-contracts/contracts/access/Ownable.sol\":3006:3197  function _transferOwnership(address newOwner) internal virtual {... */\n  pop\n  jump\t// out\n    /* \"#utility.yul\":14:141   */\ntag_18:\n    /* \"#utility.yul\":75:85   */\n  0x4e487b71\n    /* \"#utility.yul\":70:73   */\n  0xe0\n    /* \"#utility.yul\":66:86   */\n  shl\n    /* \"#utility.yul\":63:64   */\n  0x00\n    /* \"#utility.yul\":56:87   */\n  mstore\n    /* \"#utility.yul\":106:110   */\n  0x41\n    /* \"#utility.yul\":103:104   */\n  0x04\n    /* \"#utility.yul\":96:111   */\n  mstore\n    /* \"#utility.yul\":130:134   */\n  0x24\n    /* \"#utility.yul\":127:128   */\n  0x00\n    /* \"#utility.yul\":120:135   */\n  revert\n    /* \"#utility.yul\":146:526   */\ntag_19:\n    /* \"#utility.yul\":225:226   */\n  0x01\n    /* \"#utility.yul\":221:233   */\n  dup2\n  dup2\n  shr\n  swap1\n    /* \"#utility.yul\":268:280   */\n  dup3\n  and\n  dup1\n    /* \"#utility.yul\":289:350   */\n  tag_26\n  jumpi\n    /* \"#utility.yul\":343:347   */\n  0x7f\n    /* \"#utility.yul\":335:341   */\n  dup3\n    /* \"#utility.yul\":331:348   */\n  and\n    /* \"#utility.yul\":321:348   */\n  swap2\n  pop\n    /* \"#utility.yul\":289:350   */\ntag_26:\n    /* \"#utility.yul\":396:398   */\n  0x20\n    /* \"#utility.yul\":388:394   */\n  dup3\n    /* \"#utility.yul\":385:399   */\n  lt\n    /* \"#utility.yul\":365:383   */\n  dup2\n    /* \"#utility.yul\":362:400   */\n  sub\n    /* \"#utility.yul\":359:520   */\n  tag_27\n  jumpi\n    /* \"#utility.yul\":442:452   */\n  0x4e487b71\n    /* \"#utility.yul\":437:440   */\n  0xe0\n    /* \"#utility.yul\":433:453   */\n  shl\n    /* \"#utility.yul\":430:431   */\n  0x00\n    /* \"#utility.yul\":423:454   */\n  mstore\n    /* \"#utility.yul\":477:481   */\n  0x22\n    /* \"#utility.yul\":474:475   */\n  0x04\n    /* \"#utility.yul\":467:482   */\n  mstore\n    /* \"#utility.yul\":505:509   */\n  0x24\n    /* \"#utility.yul\":502:503   */\n  0x00\n    /* \"#utility.yul\":495:510   */\n  revert\n    /* \"#utility.yul\":359:520   */\ntag_27:\n  pop\n    /* \"#utility.yul\":146:526   */\n  swap2\n  swap1\n  pop\n  jump\t// out\n    /* \"#utility.yul\":657:1175   */\ntag_21:\n    /* \"#utility.yul\":759:761   */\n  0x1f\n    /* \"#utility.yul\":754:757   */\n  dup3\n    /* \"#utility.yul\":751:762   */\n  gt\n    /* \"#utility.yul\":748:1169   */\n  iszero\n  tag_30\n  jumpi\n    /* \"#utility.yul\":795:800   */\n  dup1\n    /* \"#utility.yul\":792:793   */\n  0x00\n    /* \"#utility.yul\":785:801   */\n  mstore\n    /* \"#utility.yul\":839:843   */\n  0x20\n    /* \"#utility.yul\":836:837   */\n  0x00\n    /* \"#utility.yul\":826:844   */\n  keccak256\n    /* \"#utility.yul\":909:911   */\n  0x1f\n    /* \"#utility.yul\":897:907   */\n  dup5\n    /* \"#utility.yul\":893:912   */\n  add\n    /* \"#utility.yul\":890:891   */\n  0x05\n    /* \"#utility.yul\":886:913   */\n  shr\n    /* \"#utility.yul\":880:884   */\n  dup2\n    /* \"#utility.yul\":876:914   */\n  add\n    /* \"#utility.yul\":945:949   */\n  0x20\n    /* \"#utility.yul\":933:943   */\n  dup6\n    /* \"#utility.yul\":930:950   */\n  lt\n    /* \"#utility.yul\":927:974   */\n  iszero\n  tag_31\n  jumpi\n  pop\n    /* \"#utility.yul\":968:972   */\n  dup1\n    /* \"#utility.yul\":927:974   */\ntag_31:\n    /* \"#utility.yul\":1023:1025   */\n  0x1f\n    /* \"#utility.yul\":1018:1021   */\n  dup5\n    /* \"#utility.yul\":1014:1026   */\n  add\n    /* \"#utility.yul\":1011:1012   */\n  0x05\n    /* \"#utility.yul\":1007:1027   */\n  shr\n    /* \"#utility.yul\":1001:1005   */\n  dup3\n    /* \"#utility.yul\":997:1028   */\n  add\n    /* \"#utility.yul\":987:1028   */\n  swap2\n  pop\n    /* \"#utility.yul\":1078:1159   */\ntag_32:\n    /* \"#utility.yul\":1096:1098   */\n  dup2\n    /* \"#utility.yul\":1089:1094   */\n  dup2\n    /* \"#utility.yul\":1086:1099   */\n  lt\n    /* \"#utility.yul\":1078:1159   */\n  iszero\n  tag_34\n  jumpi\n    /* \"#utility.yul\":1155:1156   */\n  0x00\n    /* \"#utility.yul\":1141:1157   */\n  dup2\n  sstore\n    /* \"#utility.yul\":1122:1123   */\n  0x01\n    /* \"#utility.yul\":1111:1124   */\n  add\n    /* \"#utility.yul\":1078:1159   */\n  jump(tag_32)\ntag_34:\n    /* \"#utility.yul\":1082:1085   */\n  pop\n  pop\n    /* \"#utility.yul\":748:1169   */\ntag_30:\n    /* \"#utility.yul\":657:1175   */\n  pop\n  pop\n  pop\n  jump\t// out\n    /* \"#utility.yul\":1351:2696   */\ntag_7:\n    /* \"#utility.yul\":1471:1481   */\n  dup2\n  mload\n  sub(shl(0x40, 0x01), 0x01)\n    /* \"#utility.yul\":1493:1523   */\n  dup2\n  gt\n    /* \"#utility.yul\":1490:1546   */\n  iszero\n  tag_38\n  jumpi\n    /* \"#utility.yul\":1526:1544   */\n  tag_38\n  tag_18\n  jump\t// in\ntag_38:\n    /* \"#utility.yul\":1555:1652   */\n  tag_39\n    /* \"#utility.yul\":1645:1651   */\n  dup2\n    /* \"#utility.yul\":1605:1643   */\n  tag_40\n    /* \"#utility.yul\":1637:1641   */\n  dup5\n    /* \"#utility.yul\":1631:1642   */\n  sload\n    /* \"#utility.yul\":1605:1643   */\n  tag_19\n  jump\t// in\ntag_40:\n    /* \"#utility.yul\":1599:1603   */\n  dup5\n    /* \"#utility.yul\":1555:1652   */\n  tag_21\n  jump\t// in\ntag_39:\n    /* \"#utility.yul\":1707:1711   */\n  0x20\n  dup1\n    /* \"#utility.yul\":1764:1766   */\n  0x1f\n    /* \"#utility.yul\":1753:1767   */\n  dup4\n  gt\n    /* \"#utility.yul\":1781:1782   */\n  0x01\n    /* \"#utility.yul\":1776:2439   */\n  dup2\n  eq\n  tag_42\n  jumpi\n    /* \"#utility.yul\":2483:2484   */\n  0x00\n    /* \"#utility.yul\":2500:2506   */\n  dup5\n    /* \"#utility.yul\":2497:2586   */\n  iszero\n  tag_43\n  jumpi\n  pop\n    /* \"#utility.yul\":2552:2571   */\n  dup6\n  dup4\n  add\n    /* \"#utility.yul\":2546:2572   */\n  mload\n    /* \"#utility.yul\":2497:2586   */\ntag_43:\n  not(0x00)\n    /* \"#utility.yul\":1308:1309   */\n  0x03\n    /* \"#utility.yul\":1304:1315   */\n  dup7\n  swap1\n  shl\n    /* \"#utility.yul\":1300:1324   */\n  shr\n    /* \"#utility.yul\":1296:1325   */\n  not\n    /* \"#utility.yul\":1286:1326   */\n  and\n    /* \"#utility.yul\":1332:1333   */\n  0x01\n    /* \"#utility.yul\":1328:1339   */\n  dup6\n  swap1\n  shl\n    /* \"#utility.yul\":1283:1340   */\n  or\n    /* \"#utility.yul\":2599:2680   */\n  dup6\n  sstore\n    /* \"#utility.yul\":1746:2690   */\n  jump(tag_41)\n    /* \"#utility.yul\":1776:2439   */\ntag_42:\n    /* \"#utility.yul\":604:605   */\n  0x00\n    /* \"#utility.yul\":597:611   */\n  dup6\n  dup2\n  mstore\n    /* \"#utility.yul\":641:645   */\n  0x20\n    /* \"#utility.yul\":628:646   */\n  dup2\n  keccak256\n  not(0x1f)\n    /* \"#utility.yul\":1812:1832   */\n  dup7\n  and\n  swap2\n    /* \"#utility.yul\":1930:2166   */\ntag_46:\n    /* \"#utility.yul\":1944:1951   */\n  dup3\n    /* \"#utility.yul\":1941:1942   */\n  dup2\n    /* \"#utility.yul\":1938:1952   */\n  lt\n    /* \"#utility.yul\":1930:2166   */\n  iszero\n  tag_48\n  jumpi\n    /* \"#utility.yul\":2033:2052   */\n  dup9\n  dup7\n  add\n    /* \"#utility.yul\":2027:2053   */\n  mload\n    /* \"#utility.yul\":2012:2054   */\n  dup3\n  sstore\n    /* \"#utility.yul\":2125:2152   */\n  swap5\n  dup5\n  add\n  swap5\n    /* \"#utility.yul\":2093:2094   */\n  0x01\n    /* \"#utility.yul\":2081:2095   */\n  swap1\n  swap2\n  add\n  swap1\n    /* \"#utility.yul\":1960:1979   */\n  dup5\n  add\n    /* \"#utility.yul\":1930:2166   */\n  jump(tag_46)\ntag_48:\n    /* \"#utility.yul\":1934:1937   */\n  pop\n    /* \"#utility.yul\":2194:2200   */\n  dup6\n    /* \"#utility.yul\":2185:2192   */\n  dup3\n    /* \"#utility.yul\":2182:2201   */\n  lt\n    /* \"#utility.yul\":2179:2380   */\n  iszero\n  tag_49\n  jumpi\n    /* \"#utility.yul\":2255:2274   */\n  dup8\n  dup6\n  add\n    /* \"#utility.yul\":2249:2275   */\n  mload\n  not(0x00)\n    /* \"#utility.yul\":2338:2339   */\n  0x03\n    /* \"#utility.yul\":2334:2348   */\n  dup9\n  swap1\n  shl\n    /* \"#utility.yul\":2350:2353   */\n  0xf8\n    /* \"#utility.yul\":2330:2354   */\n  and\n    /* \"#utility.yul\":2326:2363   */\n  shr\n    /* \"#utility.yul\":2322:2364   */\n  not\n    /* \"#utility.yul\":2307:2365   */\n  and\n    /* \"#utility.yul\":2292:2366   */\n  dup2\n  sstore\n    /* \"#utility.yul\":2179:2380   */\ntag_49:\n  pop\n  pop\n    /* \"#utility.yul\":2426:2427   */\n  0x01\n    /* \"#utility.yul\":2417:2423   */\n  dup5\n    /* \"#utility.yul\":2414:2415   */\n  0x01\n    /* \"#utility.yul\":2410:2424   */\n  shl\n    /* \"#utility.yul\":2406:2428   */\n  add\n    /* \"#utility.yul\":2400:2404   */\n  dup6\n    /* \"#utility.yul\":2393:2429   */\n  sstore\n    /* \"#utility.yul\":1746:2690   */\ntag_41:\n  pop\n  pop\n  pop\n  pop\n    /* \"#utility.yul\":1351:2696   */\n  pop\n  pop\n  jump\t// out\n    /* \"#utility.yul\":2701:2904   */\ntag_23:\n    /* \"src/MyNFT.sol\":388:1684  contract MyNFT is ERC721, ERC721Enumerable, ERC721URIStorage, Ownable {... */\n  dataSize(sub_0)\n  dup1\n  dataOffset(sub_0)\n  0x00\n  codecopy\n  0x00\n  return\nstop\n\nsub_0: assembly {\n        /* \"src/MyNFT.sol\":388:1684  contract MyNFT is ERC721, ERC721Enumerable, ERC721URIStorage, Ownable {... */\n      mstore(0x40, 0x80)\n      callvalue\n      dup1\n      iszero\n      tag_1\n      jumpi\n      0x00\n      dup1\n      revert\n    tag_1:\n      pop\n      jumpi(tag_2, lt(calldatasize, 0x04))\n      shr(0xe0, calldataload(0x00))\n      dup1\n      0x70a08231\n      gt\n      tag_23\n      jumpi\n      dup1\n      0xb88d4fde\n      gt\n      tag_24\n      jumpi\n      dup1\n      0xb88d4fde\n      eq\n      tag_18\n      jumpi\n      dup1\n      0xc87b56dd\n      eq\n      tag_19\n      jumpi\n      dup1\n      0xd204c45e\n      eq\n      tag_20\n      jumpi\n      dup1\n      0xe985e9c5\n      eq\n      tag_21\n      jumpi\n      dup1\n      0xf2fde38b\n      eq\n      tag_22\n      jumpi\n      0x00\n      dup1\n      revert\n    tag_24:\n      dup1\n      0x70a08231\n      eq\n      tag_13\n      jumpi\n      dup1\n      0x715018a6\n      eq\n      tag_14\n      jumpi\n      dup1\n      0x8da5cb5b\n      eq\n      tag_15\n      jumpi\n      dup1\n      0x95d89b41\n      eq\n      tag_16\n      jumpi\n      dup1\n      0xa22cb465\n      eq\n      tag_17\n      jumpi\n      0x00\n      dup1\n      revert\n    tag_23:\n      dup1\n      0x23b872dd\n      gt\n      tag_25\n      jumpi\n      dup1\n      0x23b872dd\n      eq\n      tag_8\n      jumpi\n      dup1\n      0x2f745c59\n      eq\n      tag_9\n      jumpi\n      dup1\n      0x42842e0e\n      eq\n      tag_10\n      jumpi\n      dup1\n      0x4f6ccce7\n      eq\n      tag_11\n      jumpi\n      dup1\n      0x6352211e\n      eq\n      tag_12\n      jumpi\n      0x00\n      dup1\n      revert\n    tag_25:\n      dup1\n      0x01ffc9a7\n      eq\n      tag_3\n      jumpi\n      dup1\n      0x06fdde03\n      eq\n      tag_4\n      jumpi\n      dup1\n      0x081812fc\n      eq\n      tag_5\n      jumpi\n      dup1\n      0x095ea7b3\n      eq\n      tag_6\n      jumpi\n      dup1\n      0x18160ddd\n      eq\n      tag_7\n      jumpi\n    tag_2:\n      0x00\n      dup1\n      revert\n        /* \"src/MyNFT.sol\":1427:1673  function supportsInterface(... */\n    tag_3:\n      tag_26\n      tag_27\n      calldatasize\n      0x04\n      tag_28\n      jump\t// in\n    tag_27:\n      tag_29\n      jump\t// in\n    tag_26:\n      mload(0x40)\n        /* \"#utility.yul\":565:579   */\n      swap1\n      iszero\n        /* \"#utility.yul\":558:580   */\n      iszero\n        /* \"#utility.yul\":540:581   */\n      dup2\n      mstore\n        /* \"#utility.yul\":528:530   */\n      0x20\n        /* \"#utility.yul\":513:531   */\n      add\n        /* \"src/MyNFT.sol\":1427:1673  function supportsInterface(... */\n    tag_30:\n      mload(0x40)\n      dup1\n      swap2\n      sub\n      swap1\n      return\n        /* \"lib/openzeppelin-contracts/contracts/token/ERC721/ERC721.sol\":2438:2529  function name() public view virtual returns (string memory) {... */\n    tag_4:\n      tag_32\n      tag_33\n      jump\t// in\n    tag_32:\n      mload(0x40)\n      tag_30\n      swap2\n      swap1\n      tag_35\n      jump\t// in\n        /* \"lib/openzeppelin-contracts/contracts/token/ERC721/ERC721.sol\":3610:3768  function getApproved(uint256 tokenId) public view virtual returns (address) {... */\n    tag_5:\n      tag_36\n      tag_37\n      calldatasize\n      0x04\n      tag_38\n      jump\t// in\n    tag_37:\n      tag_39\n      jump\t// in\n    tag_36:\n      mload(0x40)\n      sub(shl(0xa0, 0x01), 0x01)\n        /* \"#utility.yul\":1697:1729   */\n      swap1\n      swap2\n      and\n        /* \"#utility.yul\":1679:1730   */\n      dup2\n      mstore\n        /* \"#utility.yul\":1667:1669   */\n      0x20\n        /* \"#utility.yul\":1652:1670   */\n      add\n        /* \"lib/openzeppelin-contracts/contracts/token/ERC721/ERC721.sol\":3610:3768  function getApproved(uint256 tokenId) public view virtual returns (address) {... */\n      tag_30\n        /* \"#utility.yul\":1533:1736   */\n      jump\n        /* \"lib/openzeppelin-contracts/contracts/token/ERC721/ERC721.sol\":3429:3544  function approve(address to, uint256 tokenId) public virtual {... */\n    tag_6:\n      tag_42\n      tag_43\n      calldatasize\n      0x04\n      tag_44\n      jump\t// in\n    tag_43:\n      tag_45\n      jump\t// in\n    tag_42:\n      stop\n        /* \"lib/openzeppelin-contracts/contracts/token/ERC721/extensions/ERC721Enumerable.sol\":2117:2221  function totalSupply() public view virtual returns (uint256) {... */\n    tag_7:\n        /* \"lib/openzeppelin-contracts/contracts/token/ERC721/extensions/ERC721Enumerable.sol\":2196:2206  _allTokens */\n      0x08\n        /* \"lib/openzeppelin-contracts/contracts/token/ERC721/extensions/ERC721Enumerable.sol\":2196:2213  _allTokens.length */\n      sload\n        /* \"lib/openzeppelin-contracts/contracts/token/ERC721/extensions/ERC721Enumerable.sol\":2117:2221  function totalSupply() public view virtual returns (uint256) {... */\n    tag_46:\n      mload(0x40)\n        /* \"#utility.yul\":2324:2349   */\n      swap1\n      dup2\n      mstore\n        /* \"#utility.yul\":2312:2314   */\n      0x20\n        /* \"#utility.yul\":2297:2315   */\n      add\n        /* \"lib/openzeppelin-contracts/contracts/token/ERC721/extensions/ERC721Enumerable.sol\":2117:2221  function totalSupply() public view virtual returns (uint256) {... */\n      tag_30\n        /* \"#utility.yul\":2178:2355   */\n      jump\n        /* \"lib/openzeppelin-contracts/contracts/token/ERC721/ERC721.sol\":4279:4867  function transferFrom(address from, address to, uint256 tokenId) public virtual {... */\n    tag_8:\n      tag_42\n      tag_51\n      calldatasize\n      0x04\n      tag_52\n      jump\t// in\n    tag_51:\n      tag_53\n      jump\t// in\n        /* \"lib/openzeppelin-contracts/contracts/token/ERC721/extensions/ERC721Enumerable.sol\":1781:2041  function tokenOfOwnerByIndex(address owner, uint256 index) public view virtual returns (uint256) {... */\n    tag_9:\n      tag_46\n      tag_55\n      calldatasize\n      0x04\n      tag_44\n      jump\t// in\n    tag_55:\n      tag_56\n      jump\t// in\n        /* \"lib/openzeppelin-contracts/contracts/token/ERC721/ERC721.sol\":4938:5072  function safeTransferFrom(address from, address to, uint256 tokenId) public {... */\n    tag_10:\n      tag_42\n      tag_59\n      calldatasize\n      0x04\n      tag_52\n      jump\t// in\n    tag_59:\n      tag_60\n      jump\t// in\n        /* \"lib/openzeppelin-contracts/contracts/token/ERC721/extensions/ERC721Enumerable.sol\":2298:2529  function tokenByIndex(uint256 index) public view virtual returns (uint256) {... */\n    tag_11:\n      tag_46\n      tag_62\n      calldatasize\n      0x04\n      tag_38\n      jump\t// in\n    tag_62:\n      tag_63\n      jump\t// in\n        /* \"lib/openzeppelin-contracts/contracts/token/ERC721/ERC721.sol\":2251:2371  function ownerOf(uint256 tokenId) public view virtual returns (address) {... */\n    tag_12:\n      tag_36\n      tag_66\n      calldatasize\n      0x04\n      tag_38\n      jump\t// in\n    tag_66:\n      tag_67\n      jump\t// in\n        /* \"lib/openzeppelin-contracts/contracts/token/ERC721/ERC721.sol\":1976:2189  function balanceOf(address owner) public view virtual returns (uint256) {... */\n    tag_13:\n      tag_46\n      tag_70\n      calldatasize\n      0x04\n      tag_71\n      jump\t// in\n    tag_70:\n      tag_72\n      jump\t// in\n        /* \"lib/openzeppelin-contracts/contracts/access/Ownable.sol\":2368:2471  function renounceOwnership() public virtual onlyOwner {... */\n    tag_14:\n      tag_42\n      tag_75\n      jump\t// in\n        /* \"lib/openzeppelin-contracts/contracts/access/Ownable.sol\":1693:1780  function owner() public view virtual returns (address) {... */\n    tag_15:\n        /* \"lib/openzeppelin-contracts/contracts/access/Ownable.sol\":1766:1772  _owner */\n      and(sub(shl(0xa0, 0x01), 0x01), sload(0x0b))\n        /* \"lib/openzeppelin-contracts/contracts/access/Ownable.sol\":1693:1780  function owner() public view virtual returns (address) {... */\n      jump(tag_36)\n        /* \"lib/openzeppelin-contracts/contracts/token/ERC721/ERC721.sol\":2598:2693  function symbol() public view virtual returns (string memory) {... */\n    tag_16:\n      tag_32\n      tag_80\n      jump\t// in\n        /* \"lib/openzeppelin-contracts/contracts/token/ERC721/ERC721.sol\":3840:3986  function setApprovalForAll(address operator, bool approved) public virtual {... */\n    tag_17:\n      tag_42\n      tag_83\n      calldatasize\n      0x04\n      tag_84\n      jump\t// in\n    tag_83:\n      tag_85\n      jump\t// in\n        /* \"lib/openzeppelin-contracts/contracts/token/ERC721/ERC721.sol\":5143:5354  function safeTransferFrom(address from, address to, uint256 tokenId, bytes memory data) public virtual {... */\n    tag_18:\n      tag_42\n      tag_87\n      calldatasize\n      0x04\n      tag_88\n      jump\t// in\n    tag_87:\n      tag_89\n      jump\t// in\n        /* \"src/MyNFT.sol\":1248:1419  function tokenURI(... */\n    tag_19:\n      tag_32\n      tag_91\n      calldatasize\n      0x04\n      tag_38\n      jump\t// in\n    tag_91:\n      tag_92\n      jump\t// in\n        /* \"src/MyNFT.sol\":569:756  function safeMint(address to, string memory uri) public onlyOwner {... */\n    tag_20:\n      tag_42\n      tag_95\n      calldatasize\n      0x04\n      tag_96\n      jump\t// in\n    tag_95:\n      tag_97\n      jump\t// in\n        /* \"lib/openzeppelin-contracts/contracts/token/ERC721/ERC721.sol\":4057:4212  function isApprovedForAll(address owner, address operator) public view virtual returns (bool) {... */\n    tag_21:\n      tag_26\n      tag_99\n      calldatasize\n      0x04\n      tag_100\n      jump\t// in\n    tag_99:\n      tag_101\n      jump\t// in\n        /* \"lib/openzeppelin-contracts/contracts/access/Ownable.sol\":2626:2846  function transferOwnership(address newOwner) public virtual onlyOwner {... */\n    tag_22:\n      tag_42\n      tag_104\n      calldatasize\n      0x04\n      tag_71\n      jump\t// in\n    tag_104:\n      tag_105\n      jump\t// in\n        /* \"src/MyNFT.sol\":1427:1673  function supportsInterface(... */\n    tag_29:\n        /* \"src/MyNFT.sol\":1600:1604  bool */\n      0x00\n        /* \"src/MyNFT.sol\":1629:1665  super.supportsInterface(interfaceId) */\n      tag_107\n        /* \"src/MyNFT.sol\":1653:1664  interfaceId */\n      dup3\n        /* \"src/MyNFT.sol\":1629:1652  super.supportsInterface */\n      tag_108\n        /* \"src/MyNFT.sol\":1629:1665  super.supportsInterface(interfaceId) */\n      jump\t// in\n    tag_107:\n        /* \"src/MyNFT.sol\":1622:1665  return super.supportsInterface(interfaceId) */\n      swap3\n        /* \"src/MyNFT.sol\":1427:1673  function supportsInterface(... */\n      swap2\n      pop\n      pop\n      jump\t// out\n        /* \"lib/openzeppelin-contracts/contracts/token/ERC721/ERC721.sol\":2438:2529  function name() public view virtual returns (string memory) {... */\n    tag_33:\n        /* \"lib/openzeppelin-contracts/contracts/token/ERC721/ERC721.sol\":2483:2496  string memory */\n      0x60\n        /* \"lib/openzeppelin-contracts/contracts/token/ERC721/ERC721.sol\":2516:2521  _name */\n      0x00\n        /* \"lib/openzeppelin-contracts/contracts/token/ERC721/ERC721.sol\":2509:2521  return _name */\n      dup1\n      sload\n      tag_110\n      swap1\n      tag_111\n      jump\t// in\n    tag_110:\n      dup1\n      0x1f\n      add\n      0x20\n      dup1\n      swap2\n      div\n      mul\n      0x20\n      add\n      mload(0x40)\n      swap1\n      dup2\n      add\n      0x40\n      mstore\n      dup1\n      swap3\n      swap2\n      swap1\n      dup2\n      dup2\n      mstore\n      0x20\n      add\n      dup3\n      dup1\n      sload\n      tag_112\n      swap1\n      tag_111\n      jump\t// in\n    tag_112:\n      dup1\n      iszero\n      tag_113\n      jumpi\n      dup1\n      0x1f\n      lt\n      tag_114\n      jumpi\n      0x0100\n      dup1\n      dup4\n      sload\n      div\n      mul\n      dup4\n      mstore\n      swap2\n      0x20\n      add\n      swap2\n      jump(tag_113)\n    tag_114:\n      dup3\n      add\n      swap2\n      swap1\n      0x00\n      mstore\n      keccak256(0x00, 0x20)\n      swap1\n    tag_115:\n      dup2\n      sload\n      dup2\n      mstore\n      swap1\n      0x01\n      add\n      swap1\n      0x20\n      add\n      dup1\n      dup4\n      gt\n      tag_115\n      jumpi\n      dup3\n      swap1\n      sub\n      0x1f\n      and\n      dup3\n      add\n      swap2\n    tag_113:\n      pop\n      pop\n      pop\n      pop\n      pop\n      swap1\n      pop\n        /* \"lib/openzeppelin-contracts/contracts/token/ERC721/ERC721.sol\":2438:2529  function name() public view virtual returns (string memory) {... */\n      swap1\n      jump\t// out\n        /* \"lib/openzeppelin-contracts/contracts/token/ERC721/ERC721.sol\":3610:3768  function getApproved(uint256 tokenId) public view virtual returns (address) {... */\n    tag_39:\n        /* \"lib/openzeppelin-contracts/contracts/token/ERC721/ERC721.sol\":3677:3684  address */\n      0x00\n        /* \"lib/openzeppelin-contracts/contracts/token/ERC721/ERC721.sol\":3697:3719  _requireOwned(tokenId) */\n      tag_117\n        /* \"lib/openzeppelin-contracts/contracts/token/ERC721/ERC721.sol\":3711:3718  tokenId */\n      dup3\n        /* \"lib/openzeppelin-contracts/contracts/token/ERC721/ERC721.sol\":3697:3710  _requireOwned */\n      tag_118\n        /* \"lib/openzeppelin-contracts/contracts/token/ERC721/ERC721.sol\":3697:3719  _requireOwned(tokenId) */\n      jump\t// in\n    tag_117:\n      pop\n        /* \"lib/openzeppelin-contracts/contracts/token/ERC721/ERC721.sol\":6186:6193  address */\n      0x00\n        /* \"lib/openzeppelin-contracts/contracts/token/ERC721/ERC721.sol\":6213:6237  _tokenApprovals[tokenId] */\n      dup3\n      dup2\n      mstore\n        /* \"lib/openzeppelin-contracts/contracts/token/ERC721/ERC721.sol\":6213:6228  _tokenApprovals */\n      0x04\n        /* \"lib/openzeppelin-contracts/contracts/token/ERC721/ERC721.sol\":6213:6237  _tokenApprovals[tokenId] */\n      0x20\n      mstore\n      0x40\n      swap1\n      keccak256\n      sload\n      sub(shl(0xa0, 0x01), 0x01)\n      and\n        /* \"lib/openzeppelin-contracts/contracts/token/ERC721/ERC721.sol\":3739:3760  _getApproved(tokenId) */\n      tag_107\n        /* \"lib/openzeppelin-contracts/contracts/token/ERC721/ERC721.sol\":6116:6245  function _getApproved(uint256 tokenId) internal view virtual returns (address) {... */\n      jump\n        /* \"lib/openzeppelin-contracts/contracts/token/ERC721/ERC721.sol\":3429:3544  function approve(address to, uint256 tokenId) public virtual {... */\n    tag_45:\n        /* \"lib/openzeppelin-contracts/contracts/token/ERC721/ERC721.sol\":3501:3536  _approve(to, tokenId, _msgSender()) */\n      tag_122\n        /* \"lib/openzeppelin-contracts/contracts/token/ERC721/ERC721.sol\":3510:3512  to */\n      dup3\n        /* \"lib/openzeppelin-contracts/contracts/token/ERC721/ERC721.sol\":3514:3521  tokenId */\n      dup3\n        /* \"lib/openzeppelin-contracts/contracts/utils/Context.sol\":752:762  msg.sender */\n      caller\n        /* \"lib/openzeppelin-contracts/contracts/token/ERC721/ERC721.sol\":3501:3509  _approve */\n      tag_125\n        /* \"lib/openzeppelin-contracts/contracts/token/ERC721/ERC721.sol\":3501:3536  _approve(to, tokenId, _msgSender()) */\n      jump\t// in\n    tag_122:\n        /* \"lib/openzeppelin-contracts/contracts/token/ERC721/ERC721.sol\":3429:3544  function approve(address to, uint256 tokenId) public virtual {... */\n      pop\n      pop\n      jump\t// out\n        /* \"lib/openzeppelin-contracts/contracts/token/ERC721/ERC721.sol\":4279:4867  function transferFrom(address from, address to, uint256 tokenId) public virtual {... */\n    tag_53:\n      sub(shl(0xa0, 0x01), 0x01)\n        /* \"lib/openzeppelin-contracts/contracts/token/ERC721/ERC721.sol\":4374:4390  to == address(0) */\n      dup3\n      and\n        /* \"lib/openzeppelin-contracts/contracts/token/ERC721/ERC721.sol\":4370:4459  if (to == address(0)) {... */\n      tag_128\n      jumpi\n        /* \"lib/openzeppelin-contracts/contracts/token/ERC721/ERC721.sol\":4414:4447  ERC721InvalidReceiver(address(0)) */\n      mload(0x40)\n      shl(0xe1, 0x32505749)\n      dup2\n      mstore\n        /* \"lib/openzeppelin-contracts/contracts/token/ERC721/ERC721.sol\":4444:4445  0 */\n      0x00\n        /* \"lib/openzeppelin-contracts/contracts/token/ERC721/ERC721.sol\":4414:4447  ERC721InvalidReceiver(address(0)) */\n      0x04\n      dup3\n      add\n        /* \"#utility.yul\":1679:1730   */\n      mstore\n        /* \"#utility.yul\":1652:1670   */\n      0x24\n      add\n        /* \"lib/openzeppelin-contracts/contracts/token/ERC721/ERC721.sol\":4414:4447  ERC721InvalidReceiver(address(0)) */\n    tag_129:\n      mload(0x40)\n      dup1\n      swap2\n      sub\n      swap1\n      revert\n        /* \"lib/openzeppelin-contracts/contracts/token/ERC721/ERC721.sol\":4370:4459  if (to == address(0)) {... */\n    tag_128:\n        /* \"lib/openzeppelin-contracts/contracts/token/ERC721/ERC721.sol\":4680:4701  address previousOwner */\n      0x00\n        /* \"lib/openzeppelin-contracts/contracts/token/ERC721/ERC721.sol\":4704:4738  _update(to, tokenId, _msgSender()) */\n      tag_130\n        /* \"lib/openzeppelin-contracts/contracts/token/ERC721/ERC721.sol\":4712:4714  to */\n      dup4\n        /* \"lib/openzeppelin-contracts/contracts/token/ERC721/ERC721.sol\":4716:4723  tokenId */\n      dup4\n        /* \"lib/openzeppelin-contracts/contracts/utils/Context.sol\":752:762  msg.sender */\n      caller\n        /* \"lib/openzeppelin-contracts/contracts/token/ERC721/ERC721.sol\":4704:4711  _update */\n      tag_132\n        /* \"lib/openzeppelin-contracts/contracts/token/ERC721/ERC721.sol\":4704:4738  _update(to, tokenId, _msgSender()) */\n      jump\t// in\n    tag_130:\n        /* \"lib/openzeppelin-contracts/contracts/token/ERC721/ERC721.sol\":4680:4738  address previousOwner = _update(to, tokenId, _msgSender()) */\n      swap1\n      pop\n        /* \"lib/openzeppelin-contracts/contracts/token/ERC721/ERC721.sol\":4770:4774  from */\n      dup4\n      sub(shl(0xa0, 0x01), 0x01)\n        /* \"lib/openzeppelin-contracts/contracts/token/ERC721/ERC721.sol\":4753:4774  previousOwner != from */\n      and\n        /* \"lib/openzeppelin-contracts/contracts/token/ERC721/ERC721.sol\":4753:4766  previousOwner */\n      dup2\n      sub(shl(0xa0, 0x01), 0x01)\n        /* \"lib/openzeppelin-contracts/contracts/token/ERC721/ERC721.sol\":4753:4774  previousOwner != from */\n      and\n      eq\n        /* \"lib/openzeppelin-contracts/contracts/token/ERC721/ERC721.sol\":4749:4860  if (previousOwner != from) {... */\n      tag_133\n      jumpi\n        /* \"lib/openzeppelin-contracts/contracts/token/ERC721/ERC721.sol\":4798:4848  ERC721IncorrectOwner(from, tokenId, previousOwner) */\n      mload(0x40)\n      shl(0xe0, 0x64283d7b)\n      dup2\n      mstore\n      sub(shl(0xa0, 0x01), 0x01)\n        /* \"#utility.yul\":6112:6127   */\n      dup1\n      dup7\n      and\n        /* \"lib/openzeppelin-contracts/contracts/token/ERC721/ERC721.sol\":4798:4848  ERC721IncorrectOwner(from, tokenId, previousOwner) */\n      0x04\n      dup4\n      add\n        /* \"#utility.yul\":6094:6128   */\n      mstore\n        /* \"#utility.yul\":6144:6162   */\n      0x24\n      dup3\n      add\n        /* \"#utility.yul\":6137:6171   */\n      dup5\n      swap1\n      mstore\n        /* \"#utility.yul\":6207:6222   */\n      dup3\n      and\n        /* \"#utility.yul\":6187:6205   */\n      0x44\n      dup3\n      add\n        /* \"#utility.yul\":6180:6223   */\n      mstore\n        /* \"#utility.yul\":6029:6047   */\n      0x64\n      add\n        /* \"lib/openzeppelin-contracts/contracts/token/ERC721/ERC721.sol\":4798:4848  ERC721IncorrectOwner(from, tokenId, previousOwner) */\n      tag_129\n        /* \"#utility.yul\":5854:6229   */\n      jump\n        /* \"lib/openzeppelin-contracts/contracts/token/ERC721/ERC721.sol\":4749:4860  if (previousOwner != from) {... */\n    tag_133:\n        /* \"lib/openzeppelin-contracts/contracts/token/ERC721/ERC721.sol\":4359:4867  {... */\n      pop\n        /* \"lib/openzeppelin-contracts/contracts/token/ERC721/ERC721.sol\":4279:4867  function transferFrom(address from, address to, uint256 tokenId) public virtual {... */\n      pop\n      pop\n      pop\n      jump\t// out\n        /* \"lib/openzeppelin-contracts/contracts/token/ERC721/extensions/ERC721Enumerable.sol\":1781:2041  function tokenOfOwnerByIndex(address owner, uint256 index) public view virtual returns (uint256) {... */\n    tag_56:\n        /* \"lib/openzeppelin-contracts/contracts/token/ERC721/extensions/ERC721Enumerable.sol\":1869:1876  uint256 */\n      0x00\n        /* \"lib/openzeppelin-contracts/contracts/token/ERC721/extensions/ERC721Enumerable.sol\":1902:1918  balanceOf(owner) */\n      tag_137\n        /* \"lib/openzeppelin-contracts/contracts/token/ERC721/extensions/ERC721Enumerable.sol\":1912:1917  owner */\n      dup4\n        /* \"lib/openzeppelin-contracts/contracts/token/ERC721/extensions/ERC721Enumerable.sol\":1902:1911  balanceOf */\n      tag_72\n        /* \"lib/openzeppelin-contracts/contracts/token/ERC721/extensions/ERC721Enumerable.sol\":1902:1918  balanceOf(owner) */\n      jump\t// in\n    tag_137:\n        /* \"lib/openzeppelin-contracts/contracts/token/ERC721/extensions/ERC721Enumerable.sol\":1893:1898  index */\n      dup3\n        /* \"lib/openzeppelin-contracts/contracts/token/ERC721/extensions/ERC721Enumerable.sol\":1893:1918  index >= balanceOf(owner) */\n      lt\n        /* \"lib/openzeppelin-contracts/contracts/token/ERC721/extensions/ERC721Enumerable.sol\":1889:1990  if (index >= balanceOf(owner)) {... */\n      tag_138\n      jumpi\n        /* \"lib/openzeppelin-contracts/contracts/token/ERC721/extensions/ERC721Enumerable.sol\":1942:1978  ERC721OutOfBoundsIndex(owner, index) */\n      mload(0x40)\n      shl(0xe2, 0x295f44f7)\n      dup2\n      mstore\n      sub(shl(0xa0, 0x01), 0x01)\n        /* \"#utility.yul\":6426:6458   */\n      dup5\n      and\n        /* \"lib/openzeppelin-contracts/contracts/token/ERC721/extensions/ERC721Enumerable.sol\":1942:1978  ERC721OutOfBoundsIndex(owner, index) */\n      0x04\n      dup3\n      add\n        /* \"#utility.yul\":6408:6459   */\n      mstore\n        /* \"#utility.yul\":6475:6493   */\n      0x24\n      dup2\n      add\n        /* \"#utility.yul\":6468:6502   */\n      dup4\n      swap1\n      mstore\n        /* \"#utility.yul\":6381:6399   */\n      0x44\n      add\n        /* \"lib/openzeppelin-contracts/contracts/token/ERC721/extensions/ERC721Enumerable.sol\":1942:1978  ERC721OutOfBoundsIndex(owner, index) */\n      tag_129\n        /* \"#utility.yul\":6234:6508   */\n      jump\n        /* \"lib/openzeppelin-contracts/contracts/token/ERC721/extensions/ERC721Enumerable.sol\":1889:1990  if (index >= balanceOf(owner)) {... */\n    tag_138:\n      pop\n      sub(shl(0xa0, 0x01), 0x01)\n        /* \"lib/openzeppelin-contracts/contracts/token/ERC721/extensions/ERC721Enumerable.sol\":2007:2026  _ownedTokens[owner] */\n      swap2\n      swap1\n      swap2\n      and\n      0x00\n      swap1\n      dup2\n      mstore\n        /* \"lib/openzeppelin-contracts/contracts/token/ERC721/extensions/ERC721Enumerable.sol\":2007:2019  _ownedTokens */\n      0x06\n        /* \"lib/openzeppelin-contracts/contracts/token/ERC721/extensions/ERC721Enumerable.sol\":2007:2026  _ownedTokens[owner] */\n      0x20\n      swap1\n      dup2\n      mstore\n      0x40\n      dup1\n      dup4\n      keccak256\n        /* \"lib/openzeppelin-contracts/contracts/token/ERC721/extensions/ERC721Enumerable.sol\":2007:2033  _ownedTokens[owner][index] */\n      swap4\n      dup4\n      mstore\n      swap3\n      swap1\n      mstore\n      keccak256\n      sload\n      swap1\n        /* \"lib/openzeppelin-contracts/contracts/token/ERC721/extensions/ERC721Enumerable.sol\":1781:2041  function tokenOfOwnerByIndex(address owner, uint256 index) public view virtual returns (uint256) {... */\n      jump\t// out\n        /* \"lib/openzeppelin-contracts/contracts/token/ERC721/ERC721.sol\":4938:5072  function safeTransferFrom(address from, address to, uint256 tokenId) public {... */\n    tag_60:\n        /* \"lib/openzeppelin-contracts/contracts/token/ERC721/ERC721.sol\":5025:5064  safeTransferFrom(from, to, tokenId, \"\") */\n      tag_142\n        /* \"lib/openzeppelin-contracts/contracts/token/ERC721/ERC721.sol\":5042:5046  from */\n      dup4\n        /* \"lib/openzeppelin-contracts/contracts/token/ERC721/ERC721.sol\":5048:5050  to */\n      dup4\n        /* \"lib/openzeppelin-contracts/contracts/token/ERC721/ERC721.sol\":5052:5059  tokenId */\n      dup4\n        /* \"lib/openzeppelin-contracts/contracts/token/ERC721/ERC721.sol\":5025:5064  safeTransferFrom(from, to, tokenId, \"\") */\n      mload(0x40)\n      dup1\n      0x20\n      add\n      0x40\n      mstore\n      dup1\n      0x00\n      dup2\n      mstore\n      pop\n        /* \"lib/openzeppelin-contracts/contracts/token/ERC721/ERC721.sol\":5025:5041  safeTransferFrom */\n      tag_89\n        /* \"lib/openzeppelin-contracts/contracts/token/ERC721/ERC721.sol\":5025:5064  safeTransferFrom(from, to, tokenId, \"\") */\n      jump\t// in\n    tag_142:\n        /* \"lib/openzeppelin-contracts/contracts/token/ERC721/ERC721.sol\":4938:5072  function safeTransferFrom(address from, address to, uint256 tokenId) public {... */\n      pop\n      pop\n      pop\n      jump\t// out\n        /* \"lib/openzeppelin-contracts/contracts/token/ERC721/extensions/ERC721Enumerable.sol\":2298:2529  function tokenByIndex(uint256 index) public view virtual returns (uint256) {... */\n    tag_63:\n        /* \"lib/openzeppelin-contracts/contracts/token/ERC721/extensions/ERC721Enumerable.sol\":2364:2371  uint256 */\n      0x00\n        /* \"lib/openzeppelin-contracts/contracts/token/ERC721/extensions/ERC721Enumerable.sol\":2397:2410  totalSupply() */\n      tag_144\n        /* \"lib/openzeppelin-contracts/contracts/token/ERC721/extensions/ERC721Enumerable.sol\":2196:2206  _allTokens */\n      0x08\n        /* \"lib/openzeppelin-contracts/contracts/token/ERC721/extensions/ERC721Enumerable.sol\":2196:2213  _allTokens.length */\n      sload\n      swap1\n        /* \"lib/openzeppelin-contracts/contracts/token/ERC721/extensions/ERC721Enumerable.sol\":2117:2221  function totalSupply() public view virtual returns (uint256) {... */\n      jump\n        /* \"lib/openzeppelin-contracts/contracts/token/ERC721/extensions/ERC721Enumerable.sol\":2397:2410  totalSupply() */\n    tag_144:\n        /* \"lib/openzeppelin-contracts/contracts/token/ERC721/extensions/ERC721Enumerable.sol\":2388:2393  index */\n      dup3\n        /* \"lib/openzeppelin-contracts/contracts/token/ERC721/extensions/ERC721Enumerable.sol\":2388:2410  index >= totalSupply() */\n      lt\n        /* \"lib/openzeppelin-contracts/contracts/token/ERC721/extensions/ERC721Enumerable.sol\":2384:2487  if (index >= totalSupply()) {... */\n      tag_145\n      jumpi\n        /* \"lib/openzeppelin-contracts/contracts/token/ERC721/extensions/ERC721Enumerable.sol\":2434:2475  ERC721OutOfBoundsIndex(address(0), index) */\n      mload(0x40)\n      shl(0xe2, 0x295f44f7)\n      dup2\n      mstore\n        /* \"lib/openzeppelin-contracts/contracts/token/ERC721/extensions/ERC721Enumerable.sol\":2465:2466  0 */\n      0x00\n        /* \"lib/openzeppelin-contracts/contracts/token/ERC721/extensions/ERC721Enumerable.sol\":2434:2475  ERC721OutOfBoundsIndex(address(0), index) */\n      0x04\n      dup3\n      add\n        /* \"#utility.yul\":6408:6459   */\n      mstore\n        /* \"#utility.yul\":6475:6493   */\n      0x24\n      dup2\n      add\n        /* \"#utility.yul\":6468:6502   */\n      dup4\n      swap1\n      mstore\n        /* \"#utility.yul\":6381:6399   */\n      0x44\n      add\n        /* \"lib/openzeppelin-contracts/contracts/token/ERC721/extensions/ERC721Enumerable.sol\":2434:2475  ERC721OutOfBoundsIndex(address(0), index) */\n      tag_129\n        /* \"#utility.yul\":6234:6508   */\n      jump\n        /* \"lib/openzeppelin-contracts/contracts/token/ERC721/extensions/ERC721Enumerable.sol\":2384:2487  if (index >= totalSupply()) {... */\n    tag_145:\n        /* \"lib/openzeppelin-contracts/contracts/token/ERC721/extensions/ERC721Enumerable.sol\":2504:2514  _allTokens */\n      0x08\n        /* \"lib/openzeppelin-contracts/contracts/token/ERC721/extensions/ERC721Enumerable.sol\":2515:2520  index */\n      dup3\n        /* \"lib/openzeppelin-contracts/contracts/token/ERC721/extensions/ERC721Enumerable.sol\":2504:2521  _allTokens[index] */\n      dup2\n      sload\n      dup2\n      lt\n      tag_148\n      jumpi\n      tag_148\n      tag_149\n      jump\t// in\n    tag_148:\n      swap1\n      0x00\n      mstore\n      keccak256(0x00, 0x20)\n      add\n      sload\n        /* \"lib/openzeppelin-contracts/contracts/token/ERC721/extensions/ERC721Enumerable.sol\":2497:2521  return _allTokens[index] */\n      swap1\n      pop\n        /* \"lib/openzeppelin-contracts/contracts/token/ERC721/extensions/ERC721Enumerable.sol\":2298:2529  function tokenByIndex(uint256 index) public view virtual returns (uint256) {... */\n      swap2\n      swap1\n      pop\n      jump\t// out\n        /* \"lib/openzeppelin-contracts/contracts/token/ERC721/ERC721.sol\":2251:2371  function ownerOf(uint256 tokenId) public view virtual returns (address) {... */\n    tag_67:\n        /* \"lib/openzeppelin-contracts/contracts/token/ERC721/ERC721.sol\":2314:2321  address */\n      0x00\n        /* \"lib/openzeppelin-contracts/contracts/token/ERC721/ERC721.sol\":2341:2363  _requireOwned(tokenId) */\n      tag_107\n        /* \"lib/openzeppelin-contracts/contracts/token/ERC721/ERC721.sol\":2355:2362  tokenId */\n      dup3\n        /* \"lib/openzeppelin-contracts/contracts/token/ERC721/ERC721.sol\":2341:2354  _requireOwned */\n      tag_118\n        /* \"lib/openzeppelin-contracts/contracts/token/ERC721/ERC721.sol\":2341:2363  _requireOwned(tokenId) */\n      jump\t// in\n        /* \"lib/openzeppelin-contracts/contracts/token/ERC721/ERC721.sol\":1976:2189  function balanceOf(address owner) public view virtual returns (uint256) {... */\n    tag_72:\n        /* \"lib/openzeppelin-contracts/contracts/token/ERC721/ERC721.sol\":2039:2046  uint256 */\n      0x00\n      sub(shl(0xa0, 0x01), 0x01)\n        /* \"lib/openzeppelin-contracts/contracts/token/ERC721/ERC721.sol\":2063:2082  owner == address(0) */\n      dup3\n      and\n        /* \"lib/openzeppelin-contracts/contracts/token/ERC721/ERC721.sol\":2059:2148  if (owner == address(0)) {... */\n      tag_154\n      jumpi\n        /* \"lib/openzeppelin-contracts/contracts/token/ERC721/ERC721.sol\":2106:2136  ERC721InvalidOwner(address(0)) */\n      mload(0x40)\n      shl(0xe2, 0x22718ad9)\n      dup2\n      mstore\n        /* \"lib/openzeppelin-contracts/contracts/token/ERC721/ERC721.sol\":2133:2134  0 */\n      0x00\n        /* \"lib/openzeppelin-contracts/contracts/token/ERC721/ERC721.sol\":2106:2136  ERC721InvalidOwner(address(0)) */\n      0x04\n      dup3\n      add\n        /* \"#utility.yul\":1679:1730   */\n      mstore\n        /* \"#utility.yul\":1652:1670   */\n      0x24\n      add\n        /* \"lib/openzeppelin-contracts/contracts/token/ERC721/ERC721.sol\":2106:2136  ERC721InvalidOwner(address(0)) */\n      tag_129\n        /* \"#utility.yul\":1533:1736   */\n      jump\n        /* \"lib/openzeppelin-contracts/contracts/token/ERC721/ERC721.sol\":2059:2148  if (owner == address(0)) {... */\n    tag_154:\n      pop\n      sub(shl(0xa0, 0x01), 0x01)\n        /* \"lib/openzeppelin-contracts/contracts/token/ERC721/ERC721.sol\":2165:2181  _balances[owner] */\n      and\n      0x00\n      swap1\n      dup2\n      mstore\n        /* \"lib/openzeppelin-contracts/contracts/token/ERC721/ERC721.sol\":2165:2174  _balances */\n      0x03\n        /* \"lib/openzeppelin-contracts/contracts/token/ERC721/ERC721.sol\":2165:2181  _balances[owner] */\n      0x20\n      mstore\n      0x40\n      swap1\n      keccak256\n      sload\n      swap1\n        /* \"lib/openzeppelin-contracts/contracts/token/ERC721/ERC721.sol\":1976:2189  function balanceOf(address owner) public view virtual returns (uint256) {... */\n      jump\t// out\n        /* \"lib/openzeppelin-contracts/contracts/access/Ownable.sol\":2368:2471  function renounceOwnership() public virtual onlyOwner {... */\n    tag_75:\n        /* \"lib/openzeppelin-contracts/contracts/access/Ownable.sol\":1579:1592  _checkOwner() */\n      tag_157\n        /* \"lib/openzeppelin-contracts/contracts/access/Ownable.sol\":1579:1590  _checkOwner */\n      tag_158\n        /* \"lib/openzeppelin-contracts/contracts/access/Ownable.sol\":1579:1592  _checkOwner() */\n      jump\t// in\n    tag_157:\n        /* \"lib/openzeppelin-contracts/contracts/access/Ownable.sol\":2433:2463  _transferOwnership(address(0)) */\n      tag_160\n        /* \"lib/openzeppelin-contracts/contracts/access/Ownable.sol\":2460:2461  0 */\n      0x00\n        /* \"lib/openzeppelin-contracts/contracts/access/Ownable.sol\":2433:2451  _transferOwnership */\n      tag_161\n        /* \"lib/openzeppelin-contracts/contracts/access/Ownable.sol\":2433:2463  _transferOwnership(address(0)) */\n      jump\t// in\n    tag_160:\n        /* \"lib/openzeppelin-contracts/contracts/access/Ownable.sol\":2368:2471  function renounceOwnership() public virtual onlyOwner {... */\n      jump\t// out\n        /* \"lib/openzeppelin-contracts/contracts/token/ERC721/ERC721.sol\":2598:2693  function symbol() public view virtual returns (string memory) {... */\n    tag_80:\n        /* \"lib/openzeppelin-contracts/contracts/token/ERC721/ERC721.sol\":2645:2658  string memory */\n      0x60\n        /* \"lib/openzeppelin-contracts/contracts/token/ERC721/ERC721.sol\":2678:2685  _symbol */\n      0x01\n        /* \"lib/openzeppelin-contracts/contracts/token/ERC721/ERC721.sol\":2671:2685  return _symbol */\n      dup1\n      sload\n      tag_110\n      swap1\n      tag_111\n      jump\t// in\n        /* \"lib/openzeppelin-contracts/contracts/token/ERC721/ERC721.sol\":3840:3986  function setApprovalForAll(address operator, bool approved) public virtual {... */\n    tag_85:\n        /* \"lib/openzeppelin-contracts/contracts/token/ERC721/ERC721.sol\":3926:3978  _setApprovalForAll(_msgSender(), operator, approved) */\n      tag_122\n        /* \"lib/openzeppelin-contracts/contracts/utils/Context.sol\":752:762  msg.sender */\n      caller\n        /* \"lib/openzeppelin-contracts/contracts/token/ERC721/ERC721.sol\":3959:3967  operator */\n      dup4\n        /* \"lib/openzeppelin-contracts/contracts/token/ERC721/ERC721.sol\":3969:3977  approved */\n      dup4\n        /* \"lib/openzeppelin-contracts/contracts/token/ERC721/ERC721.sol\":3926:3944  _setApprovalForAll */\n      tag_172\n        /* \"lib/openzeppelin-contracts/contracts/token/ERC721/ERC721.sol\":3926:3978  _setApprovalForAll(_msgSender(), operator, approved) */\n      jump\t// in\n        /* \"lib/openzeppelin-contracts/contracts/token/ERC721/ERC721.sol\":5143:5354  function safeTransferFrom(address from, address to, uint256 tokenId, bytes memory data) public virtual {... */\n    tag_89:\n        /* \"lib/openzeppelin-contracts/contracts/token/ERC721/ERC721.sol\":5257:5288  transferFrom(from, to, tokenId) */\n      tag_174\n        /* \"lib/openzeppelin-contracts/contracts/token/ERC721/ERC721.sol\":5270:5274  from */\n      dup5\n        /* \"lib/openzeppelin-contracts/contracts/token/ERC721/ERC721.sol\":5276:5278  to */\n      dup5\n        /* \"lib/openzeppelin-contracts/contracts/token/ERC721/ERC721.sol\":5280:5287  tokenId */\n      dup5\n        /* \"lib/openzeppelin-contracts/contracts/token/ERC721/ERC721.sol\":5257:5269  transferFrom */\n      tag_53\n        /* \"lib/openzeppelin-contracts/contracts/token/ERC721/ERC721.sol\":5257:5288  transferFrom(from, to, tokenId) */\n      jump\t// in\n    tag_174:\n        /* \"lib/openzeppelin-contracts/contracts/token/ERC721/ERC721.sol\":5299:5346  _checkOnERC721Received(from, to, tokenId, data) */\n      tag_133\n        /* \"lib/openzeppelin-contracts/contracts/token/ERC721/ERC721.sol\":5322:5326  from */\n      dup5\n        /* \"lib/openzeppelin-contracts/contracts/token/ERC721/ERC721.sol\":5328:5330  to */\n      dup5\n        /* \"lib/openzeppelin-contracts/contracts/token/ERC721/ERC721.sol\":5332:5339  tokenId */\n      dup5\n        /* \"lib/openzeppelin-contracts/contracts/token/ERC721/ERC721.sol\":5341:5345  data */\n      dup5\n        /* \"lib/openzeppelin-contracts/contracts/token/ERC721/ERC721.sol\":5299:5321  _checkOnERC721Received */\n      tag_176\n        /* \"lib/openzeppelin-contracts/contracts/token/ERC721/ERC721.sol\":5299:5346  _checkOnERC721Received(from, to, tokenId, data) */\n      jump\t// in\n        /* \"src/MyNFT.sol\":1248:1419  function tokenURI(... */\n    tag_92:\n        /* \"src/MyNFT.sol\":1355:1368  string memory */\n      0x60\n        /* \"src/MyNFT.sol\":1388:1411  super.tokenURI(tokenId) */\n      tag_107\n        /* \"src/MyNFT.sol\":1403:1410  tokenId */\n      dup3\n        /* \"src/MyNFT.sol\":1388:1402  super.tokenURI */\n      tag_179\n        /* \"src/MyNFT.sol\":1388:1411  super.tokenURI(tokenId) */\n      jump\t// in\n        /* \"src/MyNFT.sol\":569:756  function safeMint(address to, string memory uri) public onlyOwner {... */\n    tag_97:\n        /* \"lib/openzeppelin-contracts/contracts/access/Ownable.sol\":1579:1592  _checkOwner() */\n      tag_181\n        /* \"lib/openzeppelin-contracts/contracts/access/Ownable.sol\":1579:1590  _checkOwner */\n      tag_158\n        /* \"lib/openzeppelin-contracts/contracts/access/Ownable.sol\":1579:1592  _checkOwner() */\n      jump\t// in\n    tag_181:\n        /* \"src/MyNFT.sol\":664:676  _nextTokenId */\n      0x0c\n        /* \"src/MyNFT.sol\":664:678  _nextTokenId++ */\n      dup1\n      sload\n        /* \"src/MyNFT.sol\":646:661  uint256 tokenId */\n      0x00\n      swap2\n      dup3\n        /* \"src/MyNFT.sol\":664:678  _nextTokenId++ */\n      tag_183\n      dup4\n      tag_184\n      jump\t// in\n    tag_183:\n      swap2\n      swap1\n      pop\n      sstore\n        /* \"src/MyNFT.sol\":646:678  uint256 tokenId = _nextTokenId++ */\n      swap1\n      pop\n        /* \"src/MyNFT.sol\":689:711  _safeMint(to, tokenId) */\n      tag_185\n        /* \"src/MyNFT.sol\":699:701  to */\n      dup4\n        /* \"src/MyNFT.sol\":703:710  tokenId */\n      dup3\n        /* \"src/MyNFT.sol\":689:698  _safeMint */\n      tag_186\n        /* \"src/MyNFT.sol\":689:711  _safeMint(to, tokenId) */\n      jump\t// in\n    tag_185:\n        /* \"src/MyNFT.sol\":722:748  _setTokenURI(tokenId, uri) */\n      tag_142\n        /* \"src/MyNFT.sol\":735:742  tokenId */\n      dup2\n        /* \"src/MyNFT.sol\":744:747  uri */\n      dup4\n        /* \"src/MyNFT.sol\":722:734  _setTokenURI */\n      tag_188\n        /* \"src/MyNFT.sol\":722:748  _setTokenURI(tokenId, uri) */\n      jump\t// in\n        /* \"lib/openzeppelin-contracts/contracts/token/ERC721/ERC721.sol\":4057:4212  function isApprovedForAll(address owner, address operator) public view virtual returns (bool) {... */\n    tag_101:\n      sub(shl(0xa0, 0x01), 0x01)\n        /* \"lib/openzeppelin-contracts/contracts/token/ERC721/ERC721.sol\":4169:4194  _operatorApprovals[owner] */\n      swap2\n      dup3\n      and\n        /* \"lib/openzeppelin-contracts/contracts/token/ERC721/ERC721.sol\":4145:4149  bool */\n      0x00\n        /* \"lib/openzeppelin-contracts/contracts/token/ERC721/ERC721.sol\":4169:4194  _operatorApprovals[owner] */\n      swap1\n      dup2\n      mstore\n        /* \"lib/openzeppelin-contracts/contracts/token/ERC721/ERC721.sol\":4169:4187  _operatorApprovals */\n      0x05\n        /* \"lib/openzeppelin-contracts/contracts/token/ERC721/ERC721.sol\":4169:4194  _operatorApprovals[owner] */\n      0x20\n      swap1\n      dup2\n      mstore\n      0x40\n      dup1\n      dup4\n      keccak256\n        /* \"lib/openzeppelin-contracts/contracts/token/ERC721/ERC721.sol\":4169:4204  _operatorApprovals[owner][operator] */\n      swap4\n      swap1\n      swap5\n      and\n      dup3\n      mstore\n      swap2\n      swap1\n      swap2\n      mstore\n      keccak256\n      sload\n      0xff\n      and\n      swap1\n        /* \"lib/openzeppelin-contracts/contracts/token/ERC721/ERC721.sol\":4057:4212  function isApprovedForAll(address owner, address operator) public view virtual returns (bool) {... */\n      jump\t// out\n        /* \"lib/openzeppelin-contracts/contracts/access/Ownable.sol\":2626:2846  function transferOwnership(address newOwner) public virtual onlyOwner {... */\n    tag_105:\n        /* \"lib/openzeppelin-contracts/contracts/access/Ownable.sol\":1579:1592  _checkOwner() */\n      tag_191\n        /* \"lib/openzeppelin-contracts/contracts/access/Ownable.sol\":1579:1590  _checkOwner */\n      tag_158\n        /* \"lib/openzeppelin-contracts/contracts/access/Ownable.sol\":1579:1592  _checkOwner() */\n      jump\t// in\n    tag_191:\n      sub(shl(0xa0, 0x01), 0x01)\n        /* \"lib/openzeppelin-contracts/contracts/access/Ownable.sol\":2711:2733  newOwner == address(0) */\n      dup2\n      and\n        /* \"lib/openzeppelin-contracts/contracts/access/Ownable.sol\":2707:2800  if (newOwner == address(0)) {... */\n      tag_193\n      jumpi\n        /* \"lib/openzeppelin-contracts/contracts/access/Ownable.sol\":2757:2788  OwnableInvalidOwner(address(0)) */\n      mload(0x40)\n      shl(0xe0, 0x1e4fbdf7)\n      dup2\n      mstore\n        /* \"lib/openzeppelin-contracts/contracts/access/Ownable.sol\":2785:2786  0 */\n      0x00\n        /* \"lib/openzeppelin-contracts/contracts/access/Ownable.sol\":2757:2788  OwnableInvalidOwner(address(0)) */\n      0x04\n      dup3\n      add\n        /* \"#utility.yul\":1679:1730   */\n      mstore\n        /* \"#utility.yul\":1652:1670   */\n      0x24\n      add\n        /* \"lib/openzeppelin-contracts/contracts/access/Ownable.sol\":2757:2788  OwnableInvalidOwner(address(0)) */\n      tag_129\n        /* \"#utility.yul\":1533:1736   */\n      jump\n        /* \"lib/openzeppelin-contracts/contracts/access/Ownable.sol\":2707:2800  if (newOwner == address(0)) {... */\n    tag_193:\n        /* \"lib/openzeppelin-contracts/contracts/access/Ownable.sol\":2810:2838  _transferOwnership(newOwner) */\n      tag_195\n        /* \"lib/openzeppelin-contracts/contracts/access/Ownable.sol\":2829:2837  newOwner */\n      dup2\n        /* \"lib/openzeppelin-contracts/contracts/access/Ownable.sol\":2810:2828  _transferOwnership */\n      tag_161\n        /* \"lib/openzeppelin-contracts/contracts/access/Ownable.sol\":2810:2838  _transferOwnership(newOwner) */\n      jump\t// in\n    tag_195:\n        /* \"lib/openzeppelin-contracts/contracts/access/Ownable.sol\":2626:2846  function transferOwnership(address newOwner) public virtual onlyOwner {... */\n      pop\n      jump\t// out\n        /* \"lib/openzeppelin-contracts/contracts/token/ERC721/extensions/ERC721URIStorage.sol\":963:1172  function supportsInterface(bytes4 interfaceId) public view virtual override(ERC721, IERC165) returns (bool) {... */\n    tag_108:\n        /* \"lib/openzeppelin-contracts/contracts/token/ERC721/extensions/ERC721URIStorage.sol\":1065:1069  bool */\n      0x00\n      not(sub(shl(0xe0, 0x01), 0x01))\n        /* \"lib/openzeppelin-contracts/contracts/token/ERC721/extensions/ERC721URIStorage.sol\":1089:1124  interfaceId == ERC4906_INTERFACE_ID */\n      dup3\n      and\n      shl(0xe1, 0x24832483)\n      eq\n      dup1\n        /* \"lib/openzeppelin-contracts/contracts/token/ERC721/extensions/ERC721URIStorage.sol\":1089:1164  interfaceId == ERC4906_INTERFACE_ID || super.supportsInterface(interfaceId) */\n      tag_107\n      jumpi\n      pop\n        /* \"lib/openzeppelin-contracts/contracts/token/ERC721/extensions/ERC721URIStorage.sol\":1128:1164  super.supportsInterface(interfaceId) */\n      tag_107\n        /* \"lib/openzeppelin-contracts/contracts/token/ERC721/extensions/ERC721URIStorage.sol\":1152:1163  interfaceId */\n      dup3\n        /* \"lib/openzeppelin-contracts/contracts/token/ERC721/extensions/ERC721URIStorage.sol\":1128:1151  super.supportsInterface */\n      tag_199\n        /* \"lib/openzeppelin-contracts/contracts/token/ERC721/extensions/ERC721URIStorage.sol\":1128:1164  super.supportsInterface(interfaceId) */\n      jump\t// in\n        /* \"lib/openzeppelin-contracts/contracts/token/ERC721/ERC721.sol\":16585:16832  function _requireOwned(uint256 tokenId) internal view returns (address) {... */\n    tag_118:\n        /* \"lib/openzeppelin-contracts/contracts/token/ERC721/ERC721.sol\":16648:16655  address */\n      0x00\n        /* \"lib/openzeppelin-contracts/contracts/token/ERC721/ERC721.sol\":5971:5987  _owners[tokenId] */\n      dup2\n      dup2\n      mstore\n        /* \"lib/openzeppelin-contracts/contracts/token/ERC721/ERC721.sol\":5971:5978  _owners */\n      0x02\n        /* \"lib/openzeppelin-contracts/contracts/token/ERC721/ERC721.sol\":5971:5987  _owners[tokenId] */\n      0x20\n      mstore\n      0x40\n      dup2\n      keccak256\n      sload\n      sub(shl(0xa0, 0x01), 0x01)\n      and\n      dup1\n        /* \"lib/openzeppelin-contracts/contracts/token/ERC721/ERC721.sol\":16712:16802  if (owner == address(0)) {... */\n      tag_107\n      jumpi\n        /* \"lib/openzeppelin-contracts/contracts/token/ERC721/ERC721.sol\":16759:16790  ERC721NonexistentToken(tokenId) */\n      mload(0x40)\n      shl(0xe0, 0x7e273289)\n      dup2\n      mstore\n      0x04\n      dup2\n      add\n        /* \"#utility.yul\":2324:2349   */\n      dup5\n      swap1\n      mstore\n        /* \"#utility.yul\":2297:2315   */\n      0x24\n      add\n        /* \"lib/openzeppelin-contracts/contracts/token/ERC721/ERC721.sol\":16759:16790  ERC721NonexistentToken(tokenId) */\n      tag_129\n        /* \"#utility.yul\":2178:2355   */\n      jump\n        /* \"lib/openzeppelin-contracts/contracts/token/ERC721/ERC721.sol\":14817:14939  function _approve(address to, uint256 tokenId, address auth) internal {... */\n    tag_125:\n        /* \"lib/openzeppelin-contracts/contracts/token/ERC721/ERC721.sol\":14898:14931  _approve(to, tokenId, auth, true) */\n      tag_142\n        /* \"lib/openzeppelin-contracts/contracts/token/ERC721/ERC721.sol\":14907:14909  to */\n      dup4\n        /* \"lib/openzeppelin-contracts/contracts/token/ERC721/ERC721.sol\":14911:14918  tokenId */\n      dup4\n        /* \"lib/openzeppelin-contracts/contracts/token/ERC721/ERC721.sol\":14920:14924  auth */\n      dup4\n        /* \"lib/openzeppelin-contracts/contracts/token/ERC721/ERC721.sol\":14926:14930  true */\n      0x01\n        /* \"lib/openzeppelin-contracts/contracts/token/ERC721/ERC721.sol\":14898:14906  _approve */\n      tag_209\n        /* \"lib/openzeppelin-contracts/contracts/token/ERC721/ERC721.sol\":14898:14931  _approve(to, tokenId, auth, true) */\n      jump\t// in\n        /* \"src/MyNFT.sol\":834:1048  function _update(... */\n    tag_132:\n        /* \"src/MyNFT.sol\":981:988  address */\n      0x00\n        /* \"src/MyNFT.sol\":1008:1040  super._update(to, tokenId, auth) */\n      tag_211\n        /* \"src/MyNFT.sol\":1022:1024  to */\n      dup5\n        /* \"src/MyNFT.sol\":1026:1033  tokenId */\n      dup5\n        /* \"src/MyNFT.sol\":1035:1039  auth */\n      dup5\n        /* \"src/MyNFT.sol\":1008:1021  super._update */\n      tag_212\n        /* \"src/MyNFT.sol\":1008:1040  super._update(to, tokenId, auth) */\n      jump\t// in\n    tag_211:\n        /* \"src/MyNFT.sol\":1001:1040  return super._update(to, tokenId, auth) */\n      swap5\n        /* \"src/MyNFT.sol\":834:1048  function _update(... */\n      swap4\n      pop\n      pop\n      pop\n      pop\n      jump\t// out\n        /* \"lib/openzeppelin-contracts/contracts/access/Ownable.sol\":1858:2024  function _checkOwner() internal view virtual {... */\n    tag_158:\n        /* \"lib/openzeppelin-contracts/contracts/access/Ownable.sol\":1766:1772  _owner */\n      and(sub(shl(0xa0, 0x01), 0x01), sload(0x0b))\n        /* \"lib/openzeppelin-contracts/contracts/utils/Context.sol\":752:762  msg.sender */\n      caller\n        /* \"lib/openzeppelin-contracts/contracts/access/Ownable.sol\":1918:1941  owner() != _msgSender() */\n      eq\n        /* \"lib/openzeppelin-contracts/contracts/access/Ownable.sol\":1914:2017  if (owner() != _msgSender()) {... */\n      tag_160\n      jumpi\n        /* \"lib/openzeppelin-contracts/contracts/access/Ownable.sol\":1965:2005  OwnableUnauthorizedAccount(_msgSender()) */\n      mload(0x40)\n      shl(0xe0, 0x118cdaa7)\n      dup2\n      mstore\n        /* \"lib/openzeppelin-contracts/contracts/utils/Context.sol\":752:762  msg.sender */\n      caller\n        /* \"lib/openzeppelin-contracts/contracts/access/Ownable.sol\":1965:2005  OwnableUnauthorizedAccount(_msgSender()) */\n      0x04\n      dup3\n      add\n        /* \"#utility.yul\":1679:1730   */\n      mstore\n        /* \"#utility.yul\":1652:1670   */\n      0x24\n      add\n        /* \"lib/openzeppelin-contracts/contracts/access/Ownable.sol\":1965:2005  OwnableUnauthorizedAccount(_msgSender()) */\n      tag_129\n        /* \"#utility.yul\":1533:1736   */\n      jump\n        /* \"lib/openzeppelin-contracts/contracts/access/Ownable.sol\":3006:3197  function _transferOwnership(address newOwner) internal virtual {... */\n    tag_161:\n        /* \"lib/openzeppelin-contracts/contracts/access/Ownable.sol\":3099:3105  _owner */\n      0x0b\n      dup1\n      sload\n      sub(shl(0xa0, 0x01), 0x01)\n        /* \"lib/openzeppelin-contracts/contracts/access/Ownable.sol\":3116:3133  _owner = newOwner */\n      dup4\n      dup2\n      and\n      not(sub(shl(0xa0, 0x01), 0x01))\n      dup4\n      and\n      dup2\n      or\n      swap1\n      swap4\n      sstore\n        /* \"lib/openzeppelin-contracts/contracts/access/Ownable.sol\":3149:3189  OwnershipTransferred(oldOwner, newOwner) */\n      mload(0x40)\n        /* \"lib/openzeppelin-contracts/contracts/access/Ownable.sol\":3099:3105  _owner */\n      swap2\n      and\n      swap2\n        /* \"lib/openzeppelin-contracts/contracts/access/Ownable.sol\":3116:3133  _owner = newOwner */\n      swap1\n        /* \"lib/openzeppelin-contracts/contracts/access/Ownable.sol\":3099:3105  _owner */\n      dup3\n      swap1\n        /* \"lib/openzeppelin-contracts/contracts/access/Ownable.sol\":3149:3189  OwnershipTransferred(oldOwner, newOwner) */\n      0x8be0079c531659141344cd1fd0a4f28419497f9722a3daafe3b4186f6b6457e0\n      swap1\n        /* \"lib/openzeppelin-contracts/contracts/access/Ownable.sol\":3080:3096  address oldOwner */\n      0x00\n      swap1\n        /* \"lib/openzeppelin-contracts/contracts/access/Ownable.sol\":3149:3189  OwnershipTransferred(oldOwner, newOwner) */\n      log3\n        /* \"lib/openzeppelin-contracts/contracts/access/Ownable.sol\":3069:3197  {... */\n      pop\n        /* \"lib/openzeppelin-contracts/contracts/access/Ownable.sol\":3006:3197  function _transferOwnership(address newOwner) internal virtual {... */\n      pop\n      jump\t// out\n        /* \"lib/openzeppelin-contracts/contracts/token/ERC721/ERC721.sol\":16024:16342  function _setApprovalForAll(address owner, address operator, bool approved) internal virtual {... */\n    tag_172:\n      sub(shl(0xa0, 0x01), 0x01)\n        /* \"lib/openzeppelin-contracts/contracts/token/ERC721/ERC721.sol\":16132:16154  operator == address(0) */\n      dup3\n      and\n        /* \"lib/openzeppelin-contracts/contracts/token/ERC721/ERC721.sol\":16128:16221  if (operator == address(0)) {... */\n      tag_221\n      jumpi\n        /* \"lib/openzeppelin-contracts/contracts/token/ERC721/ERC721.sol\":16178:16209  ERC721InvalidOperator(operator) */\n      mload(0x40)\n      shl(0xe3, 0x0b611743)\n      dup2\n      mstore\n      sub(shl(0xa0, 0x01), 0x01)\n        /* \"#utility.yul\":1697:1729   */\n      dup4\n      and\n        /* \"lib/openzeppelin-contracts/contracts/token/ERC721/ERC721.sol\":16178:16209  ERC721InvalidOperator(operator) */\n      0x04\n      dup3\n      add\n        /* \"#utility.yul\":1679:1730   */\n      mstore\n        /* \"#utility.yul\":1652:1670   */\n      0x24\n      add\n        /* \"lib/openzeppelin-contracts/contracts/token/ERC721/ERC721.sol\":16178:16209  ERC721InvalidOperator(operator) */\n      tag_129\n        /* \"#utility.yul\":1533:1736   */\n      jump\n        /* \"lib/openzeppelin-contracts/contracts/token/ERC721/ERC721.sol\":16128:16221  if (operator == address(0)) {... */\n    tag_221:\n      sub(shl(0xa0, 0x01), 0x01)\n        /* \"lib/openzeppelin-contracts/contracts/token/ERC721/ERC721.sol\":16231:16256  _operatorApprovals[owner] */\n      dup4\n      dup2\n      and\n      0x00\n      dup2\n      dup2\n      mstore\n        /* \"lib/openzeppelin-contracts/contracts/token/ERC721/ERC721.sol\":16231:16249  _operatorApprovals */\n      0x05\n        /* \"lib/openzeppelin-contracts/contracts/token/ERC721/ERC721.sol\":16231:16256  _operatorApprovals[owner] */\n      0x20\n      swap1\n      dup2\n      mstore\n      0x40\n      dup1\n      dup4\n      keccak256\n        /* \"lib/openzeppelin-contracts/contracts/token/ERC721/ERC721.sol\":16231:16266  _operatorApprovals[owner][operator] */\n      swap5\n      dup8\n      and\n      dup1\n      dup5\n      mstore\n      swap5\n      dup3\n      mstore\n      swap2\n      dup3\n      swap1\n      keccak256\n        /* \"lib/openzeppelin-contracts/contracts/token/ERC721/ERC721.sol\":16231:16277  _operatorApprovals[owner][operator] = approved */\n      dup1\n      sload\n      not(0xff)\n      and\n      dup7\n      iszero\n      iszero\n      swap1\n      dup2\n      or\n      swap1\n      swap2\n      sstore\n        /* \"lib/openzeppelin-contracts/contracts/token/ERC721/ERC721.sol\":16293:16334  ApprovalForAll(owner, operator, approved) */\n      swap2\n      mload\n        /* \"#utility.yul\":540:581   */\n      swap2\n      dup3\n      mstore\n        /* \"lib/openzeppelin-contracts/contracts/token/ERC721/ERC721.sol\":16293:16334  ApprovalForAll(owner, operator, approved) */\n      0x17307eab39ab6107e8899845ad3d59bd9653f200f220920489ca2b5937696c31\n      swap2\n        /* \"#utility.yul\":513:531   */\n      add\n        /* \"lib/openzeppelin-contracts/contracts/token/ERC721/ERC721.sol\":16293:16334  ApprovalForAll(owner, operator, approved) */\n      mload(0x40)\n      dup1\n      swap2\n      sub\n      swap1\n      log3\n        /* \"lib/openzeppelin-contracts/contracts/token/ERC721/ERC721.sol\":16024:16342  function _setApprovalForAll(address owner, address operator, bool approved) internal virtual {... */\n      pop\n      pop\n      pop\n      jump\t// out\n        /* \"lib/openzeppelin-contracts/contracts/token/ERC721/ERC721.sol\":17382:18181  function _checkOnERC721Received(address from, address to, uint256 tokenId, bytes memory data) private {... */\n    tag_176:\n      sub(shl(0xa0, 0x01), 0x01)\n        /* \"lib/openzeppelin-contracts/contracts/token/ERC721/ERC721.sol\":17499:17513  to.code.length */\n      dup4\n      and\n      extcodesize\n        /* \"lib/openzeppelin-contracts/contracts/token/ERC721/ERC721.sol\":17499:17517  to.code.length > 0 */\n      iszero\n        /* \"lib/openzeppelin-contracts/contracts/token/ERC721/ERC721.sol\":17495:18174  if (to.code.length > 0) {... */\n      tag_133\n      jumpi\n        /* \"lib/openzeppelin-contracts/contracts/token/ERC721/ERC721.sol\":17538:17609  IERC721Receiver(to).onERC721Received(_msgSender(), from, tokenId, data) */\n      mload(0x40)\n      shl(0xe1, 0x0a85bd01)\n      dup2\n      mstore\n      sub(shl(0xa0, 0x01), 0x01)\n        /* \"lib/openzeppelin-contracts/contracts/token/ERC721/ERC721.sol\":17538:17574  IERC721Receiver(to).onERC721Received */\n      dup5\n      and\n      swap1\n      0x150b7a02\n      swap1\n        /* \"lib/openzeppelin-contracts/contracts/token/ERC721/ERC721.sol\":17538:17609  IERC721Receiver(to).onERC721Received(_msgSender(), from, tokenId, data) */\n      tag_227\n      swap1\n        /* \"lib/openzeppelin-contracts/contracts/utils/Context.sol\":752:762  msg.sender */\n      caller\n      swap1\n        /* \"lib/openzeppelin-contracts/contracts/token/ERC721/ERC721.sol\":17589:17593  from */\n      dup9\n      swap1\n        /* \"lib/openzeppelin-contracts/contracts/token/ERC721/ERC721.sol\":17595:17602  tokenId */\n      dup8\n      swap1\n        /* \"lib/openzeppelin-contracts/contracts/token/ERC721/ERC721.sol\":17604:17608  data */\n      dup8\n      swap1\n        /* \"lib/openzeppelin-contracts/contracts/token/ERC721/ERC721.sol\":17538:17609  IERC721Receiver(to).onERC721Received(_msgSender(), from, tokenId, data) */\n      0x04\n      add\n      tag_228\n      jump\t// in\n    tag_227:\n      0x20\n      mload(0x40)\n      dup1\n      dup4\n      sub\n      dup2\n      0x00\n      dup8\n      gas\n      call\n      swap3\n      pop\n      pop\n      pop\n      dup1\n      iszero\n      tag_229\n      jumpi\n      pop\n      0x40\n      dup1\n      mload\n      0x1f\n      returndatasize\n      swap1\n      dup2\n      add\n      not(0x1f)\n      and\n      dup3\n      add\n      swap1\n      swap3\n      mstore\n      tag_230\n      swap2\n      dup2\n      add\n      swap1\n      tag_231\n      jump\t// in\n    tag_230:\n      0x01\n    tag_229:\n        /* \"lib/openzeppelin-contracts/contracts/token/ERC721/ERC721.sol\":17534:18163  try IERC721Receiver(to).onERC721Received(_msgSender(), from, tokenId, data) returns (bytes4 retval) {... */\n      tag_232\n      jumpi\n      returndatasize\n      dup1\n      dup1\n      iszero\n      tag_237\n      jumpi\n      mload(0x40)\n      swap2\n      pop\n      and(add(returndatasize, 0x3f), not(0x1f))\n      dup3\n      add\n      0x40\n      mstore\n      returndatasize\n      dup3\n      mstore\n      returndatasize\n      0x00\n      0x20\n      dup5\n      add\n      returndatacopy\n      jump(tag_236)\n    tag_237:\n      0x60\n      swap2\n      pop\n    tag_236:\n      pop\n        /* \"lib/openzeppelin-contracts/contracts/token/ERC721/ERC721.sol\":17852:17858  reason */\n      dup1\n        /* \"lib/openzeppelin-contracts/contracts/token/ERC721/ERC721.sol\":17852:17865  reason.length */\n      mload\n        /* \"lib/openzeppelin-contracts/contracts/token/ERC721/ERC721.sol\":17869:17870  0 */\n      0x00\n        /* \"lib/openzeppelin-contracts/contracts/token/ERC721/ERC721.sol\":17852:17870  reason.length == 0 */\n      sub\n        /* \"lib/openzeppelin-contracts/contracts/token/ERC721/ERC721.sol\":17848:18148  if (reason.length == 0) {... */\n      tag_238\n      jumpi\n        /* \"lib/openzeppelin-contracts/contracts/token/ERC721/ERC721.sol\":17902:17927  ERC721InvalidReceiver(to) */\n      mload(0x40)\n      shl(0xe1, 0x32505749)\n      dup2\n      mstore\n      sub(shl(0xa0, 0x01), 0x01)\n        /* \"#utility.yul\":1697:1729   */\n      dup6\n      and\n        /* \"lib/openzeppelin-contracts/contracts/token/ERC721/ERC721.sol\":17902:17927  ERC721InvalidReceiver(to) */\n      0x04\n      dup3\n      add\n        /* \"#utility.yul\":1679:1730   */\n      mstore\n        /* \"#utility.yul\":1652:1670   */\n      0x24\n      add\n        /* \"lib/openzeppelin-contracts/contracts/token/ERC721/ERC721.sol\":17902:17927  ERC721InvalidReceiver(to) */\n      tag_129\n        /* \"#utility.yul\":1533:1736   */\n      jump\n        /* \"lib/openzeppelin-contracts/contracts/token/ERC721/ERC721.sol\":17848:18148  if (reason.length == 0) {... */\n    tag_238:\n        /* \"lib/openzeppelin-contracts/contracts/token/ERC721/ERC721.sol\":18098:18104  reason */\n      dup1\n        /* \"lib/openzeppelin-contracts/contracts/token/ERC721/ERC721.sol\":18092:18105  mload(reason) */\n      mload\n        /* \"lib/openzeppelin-contracts/contracts/token/ERC721/ERC721.sol\":18083:18089  reason */\n      dup2\n        /* \"lib/openzeppelin-contracts/contracts/token/ERC721/ERC721.sol\":18079:18081  32 */\n      0x20\n        /* \"lib/openzeppelin-contracts/contracts/token/ERC721/ERC721.sol\":18075:18090  add(32, reason) */\n      add\n        /* \"lib/openzeppelin-contracts/contracts/token/ERC721/ERC721.sol\":18068:18106  revert(add(32, reason), mload(reason)) */\n      revert\n        /* \"lib/openzeppelin-contracts/contracts/token/ERC721/ERC721.sol\":17534:18163  try IERC721Receiver(to).onERC721Received(_msgSender(), from, tokenId, data) returns (bytes4 retval) {... */\n    tag_232:\n      not(sub(shl(0xe0, 0x01), 0x01))\n        /* \"lib/openzeppelin-contracts/contracts/token/ERC721/ERC721.sol\":17657:17708  retval != IERC721Receiver.onERC721Received.selector */\n      dup2\n      and\n      shl(0xe1, 0x0a85bd01)\n      eq\n        /* \"lib/openzeppelin-contracts/contracts/token/ERC721/ERC721.sol\":17653:17785  if (retval != IERC721Receiver.onERC721Received.selector) {... */\n      tag_242\n      jumpi\n        /* \"lib/openzeppelin-contracts/contracts/token/ERC721/ERC721.sol\":17740:17765  ERC721InvalidReceiver(to) */\n      mload(0x40)\n      shl(0xe1, 0x32505749)\n      dup2\n      mstore\n      sub(shl(0xa0, 0x01), 0x01)\n        /* \"#utility.yul\":1697:1729   */\n      dup6\n      and\n        /* \"lib/openzeppelin-contracts/contracts/token/ERC721/ERC721.sol\":17740:17765  ERC721InvalidReceiver(to) */\n      0x04\n      dup3\n      add\n        /* \"#utility.yul\":1679:1730   */\n      mstore\n        /* \"#utility.yul\":1652:1670   */\n      0x24\n      add\n        /* \"lib/openzeppelin-contracts/contracts/token/ERC721/ERC721.sol\":17740:17765  ERC721InvalidReceiver(to) */\n      tag_129\n        /* \"#utility.yul\":1533:1736   */\n      jump\n        /* \"lib/openzeppelin-contracts/contracts/token/ERC721/ERC721.sol\":17653:17785  if (retval != IERC721Receiver.onERC721Received.selector) {... */\n    tag_242:\n        /* \"lib/openzeppelin-contracts/contracts/token/ERC721/ERC721.sol\":17610:17800  returns (bytes4 retval) {... */\n      pop\n        /* \"lib/openzeppelin-contracts/contracts/token/ERC721/ERC721.sol\":17382:18181  function _checkOnERC721Received(address from, address to, uint256 tokenId, bytes memory data) private {... */\n      pop\n      pop\n      pop\n      pop\n      jump\t// out\n        /* \"lib/openzeppelin-contracts/contracts/token/ERC721/extensions/ERC721URIStorage.sol\":1243:1852  function tokenURI(uint256 tokenId) public view virtual override returns (string memory) {... */\n    tag_179:\n        /* \"lib/openzeppelin-contracts/contracts/token/ERC721/extensions/ERC721URIStorage.sol\":1316:1329  string memory */\n      0x60\n        /* \"lib/openzeppelin-contracts/contracts/token/ERC721/extensions/ERC721URIStorage.sol\":1342:1364  _requireOwned(tokenId) */\n      tag_245\n        /* \"lib/openzeppelin-contracts/contracts/token/ERC721/extensions/ERC721URIStorage.sol\":1356:1363  tokenId */\n      dup3\n        /* \"lib/openzeppelin-contracts/contracts/token/ERC721/extensions/ERC721URIStorage.sol\":1342:1355  _requireOwned */\n      tag_118\n        /* \"lib/openzeppelin-contracts/contracts/token/ERC721/extensions/ERC721URIStorage.sol\":1342:1364  _requireOwned(tokenId) */\n      jump\t// in\n    tag_245:\n      pop\n        /* \"lib/openzeppelin-contracts/contracts/token/ERC721/extensions/ERC721URIStorage.sol\":1377:1400  string memory _tokenURI */\n      0x00\n        /* \"lib/openzeppelin-contracts/contracts/token/ERC721/extensions/ERC721URIStorage.sol\":1403:1422  _tokenURIs[tokenId] */\n      dup3\n      dup2\n      mstore\n        /* \"lib/openzeppelin-contracts/contracts/token/ERC721/extensions/ERC721URIStorage.sol\":1403:1413  _tokenURIs */\n      0x0a\n        /* \"lib/openzeppelin-contracts/contracts/token/ERC721/extensions/ERC721URIStorage.sol\":1403:1422  _tokenURIs[tokenId] */\n      0x20\n      mstore\n      0x40\n      dup2\n      keccak256\n        /* \"lib/openzeppelin-contracts/contracts/token/ERC721/extensions/ERC721URIStorage.sol\":1377:1422  string memory _tokenURI = _tokenURIs[tokenId] */\n      dup1\n      sload\n      tag_246\n      swap1\n      tag_111\n      jump\t// in\n    tag_246:\n      dup1\n      0x1f\n      add\n      0x20\n      dup1\n      swap2\n      div\n      mul\n      0x20\n      add\n      mload(0x40)\n      swap1\n      dup2\n      add\n      0x40\n      mstore\n      dup1\n      swap3\n      swap2\n      swap1\n      dup2\n      dup2\n      mstore\n      0x20\n      add\n      dup3\n      dup1\n      sload\n      tag_247\n      swap1\n      tag_111\n      jump\t// in\n    tag_247:\n      dup1\n      iszero\n      tag_248\n      jumpi\n      dup1\n      0x1f\n      lt\n      tag_249\n      jumpi\n      0x0100\n      dup1\n      dup4\n      sload\n      div\n      mul\n      dup4\n      mstore\n      swap2\n      0x20\n      add\n      swap2\n      jump(tag_248)\n    tag_249:\n      dup3\n      add\n      swap2\n      swap1\n      0x00\n      mstore\n      keccak256(0x00, 0x20)\n      swap1\n    tag_250:\n      dup2\n      sload\n      dup2\n      mstore\n      swap1\n      0x01\n      add\n      swap1\n      0x20\n      add\n      dup1\n      dup4\n      gt\n      tag_250\n      jumpi\n      dup3\n      swap1\n      sub\n      0x1f\n      and\n      dup3\n      add\n      swap2\n    tag_248:\n      pop\n      pop\n      pop\n      pop\n      pop\n      swap1\n      pop\n        /* \"lib/openzeppelin-contracts/contracts/token/ERC721/extensions/ERC721URIStorage.sol\":1433:1451  string memory base */\n      0x00\n        /* \"lib/openzeppelin-contracts/contracts/token/ERC721/extensions/ERC721URIStorage.sol\":1454:1464  _baseURI() */\n      tag_251\n        /* \"lib/openzeppelin-contracts/contracts/token/ERC721/ERC721.sol\":3350:3359  return \"\" */\n      0x40\n      dup1\n      mload\n      0x20\n      dup2\n      add\n      swap1\n      swap2\n      mstore\n      0x00\n      dup2\n      mstore\n      swap1\n        /* \"lib/openzeppelin-contracts/contracts/token/ERC721/ERC721.sol\":3273:3367  function _baseURI() internal view virtual returns (string memory) {... */\n      jump\n        /* \"lib/openzeppelin-contracts/contracts/token/ERC721/extensions/ERC721URIStorage.sol\":1454:1464  _baseURI() */\n    tag_251:\n        /* \"lib/openzeppelin-contracts/contracts/token/ERC721/extensions/ERC721URIStorage.sol\":1433:1464  string memory base = _baseURI() */\n      swap1\n      pop\n        /* \"lib/openzeppelin-contracts/contracts/token/ERC721/extensions/ERC721URIStorage.sol\":1546:1550  base */\n      dup1\n        /* \"lib/openzeppelin-contracts/contracts/token/ERC721/extensions/ERC721URIStorage.sol\":1540:1558  bytes(base).length */\n      mload\n        /* \"lib/openzeppelin-contracts/contracts/token/ERC721/extensions/ERC721URIStorage.sol\":1562:1563  0 */\n      0x00\n        /* \"lib/openzeppelin-contracts/contracts/token/ERC721/extensions/ERC721URIStorage.sol\":1540:1563  bytes(base).length == 0 */\n      sub\n        /* \"lib/openzeppelin-contracts/contracts/token/ERC721/extensions/ERC721URIStorage.sol\":1536:1608  if (bytes(base).length == 0) {... */\n      tag_253\n      jumpi\n      pop\n        /* \"lib/openzeppelin-contracts/contracts/token/ERC721/extensions/ERC721URIStorage.sol\":1587:1596  _tokenURI */\n      swap3\n        /* \"lib/openzeppelin-contracts/contracts/token/ERC721/extensions/ERC721URIStorage.sol\":1243:1852  function tokenURI(uint256 tokenId) public view virtual override returns (string memory) {... */\n      swap2\n      pop\n      pop\n      jump\t// out\n        /* \"lib/openzeppelin-contracts/contracts/token/ERC721/extensions/ERC721URIStorage.sol\":1536:1608  if (bytes(base).length == 0) {... */\n    tag_253:\n        /* \"lib/openzeppelin-contracts/contracts/token/ERC721/extensions/ERC721URIStorage.sol\":1709:1732  bytes(_tokenURI).length */\n      dup2\n      mload\n        /* \"lib/openzeppelin-contracts/contracts/token/ERC721/extensions/ERC721URIStorage.sol\":1709:1736  bytes(_tokenURI).length > 0 */\n      iszero\n        /* \"lib/openzeppelin-contracts/contracts/token/ERC721/extensions/ERC721URIStorage.sol\":1705:1802  if (bytes(_tokenURI).length > 0) {... */\n      tag_254\n      jumpi\n        /* \"lib/openzeppelin-contracts/contracts/token/ERC721/extensions/ERC721URIStorage.sol\":1774:1778  base */\n      dup1\n        /* \"lib/openzeppelin-contracts/contracts/token/ERC721/extensions/ERC721URIStorage.sol\":1780:1789  _tokenURI */\n      dup3\n        /* \"lib/openzeppelin-contracts/contracts/token/ERC721/extensions/ERC721URIStorage.sol\":1760:1790  string.concat(base, _tokenURI) */\n      add(0x20, mload(0x40))\n      tag_255\n      swap3\n      swap2\n      swap1\n      tag_256\n      jump\t// in\n    tag_255:\n      mload(0x40)\n      0x20\n      dup2\n      dup4\n      sub\n      sub\n      dup2\n      mstore\n      swap1\n      0x40\n      mstore\n        /* \"lib/openzeppelin-contracts/contracts/token/ERC721/extensions/ERC721URIStorage.sol\":1753:1790  return string.concat(base, _tokenURI) */\n      swap3\n      pop\n      pop\n      pop\n        /* \"lib/openzeppelin-contracts/contracts/token/ERC721/extensions/ERC721URIStorage.sol\":1243:1852  function tokenURI(uint256 tokenId) public view virtual override returns (string memory) {... */\n      swap2\n      swap1\n      pop\n      jump\t// out\n        /* \"lib/openzeppelin-contracts/contracts/token/ERC721/extensions/ERC721URIStorage.sol\":1705:1802  if (bytes(_tokenURI).length > 0) {... */\n    tag_254:\n        /* \"lib/openzeppelin-contracts/contracts/token/ERC721/extensions/ERC721URIStorage.sol\":1821:1844  super.tokenURI(tokenId) */\n      tag_211\n        /* \"lib/openzeppelin-contracts/contracts/token/ERC721/extensions/ERC721URIStorage.sol\":1836:1843  tokenId */\n      dup5\n        /* \"lib/openzeppelin-contracts/contracts/token/ERC721/extensions/ERC721URIStorage.sol\":1821:1835  super.tokenURI */\n      tag_258\n        /* \"lib/openzeppelin-contracts/contracts/token/ERC721/extensions/ERC721URIStorage.sol\":1821:1844  super.tokenURI(tokenId) */\n      jump\t// in\n        /* \"lib/openzeppelin-contracts/contracts/token/ERC721/ERC721.sol\":10936:11038  function _safeMint(address to, uint256 tokenId) internal {... */\n    tag_186:\n        /* \"lib/openzeppelin-contracts/contracts/token/ERC721/ERC721.sol\":11004:11030  _safeMint(to, tokenId, \"\") */\n      tag_122\n        /* \"lib/openzeppelin-contracts/contracts/token/ERC721/ERC721.sol\":11014:11016  to */\n      dup3\n        /* \"lib/openzeppelin-contracts/contracts/token/ERC721/ERC721.sol\":11018:11025  tokenId */\n      dup3\n        /* \"lib/openzeppelin-contracts/contracts/token/ERC721/ERC721.sol\":11004:11030  _safeMint(to, tokenId, \"\") */\n      mload(0x40)\n      dup1\n      0x20\n      add\n      0x40\n      mstore\n      dup1\n      0x00\n      dup2\n      mstore\n      pop\n        /* \"lib/openzeppelin-contracts/contracts/token/ERC721/ERC721.sol\":11004:11013  _safeMint */\n      tag_261\n        /* \"lib/openzeppelin-contracts/contracts/token/ERC721/ERC721.sol\":11004:11030  _safeMint(to, tokenId, \"\") */\n      jump\t// in\n        /* \"lib/openzeppelin-contracts/contracts/token/ERC721/extensions/ERC721URIStorage.sol\":1978:2148  function _setTokenURI(uint256 tokenId, string memory _tokenURI) internal virtual {... */\n    tag_188:\n        /* \"lib/openzeppelin-contracts/contracts/token/ERC721/extensions/ERC721URIStorage.sol\":2070:2089  _tokenURIs[tokenId] */\n      0x00\n      dup3\n      dup2\n      mstore\n        /* \"lib/openzeppelin-contracts/contracts/token/ERC721/extensions/ERC721URIStorage.sol\":2070:2080  _tokenURIs */\n      0x0a\n        /* \"lib/openzeppelin-contracts/contracts/token/ERC721/extensions/ERC721URIStorage.sol\":2070:2089  _tokenURIs[tokenId] */\n      0x20\n      mstore\n      0x40\n      swap1\n      keccak256\n        /* \"lib/openzeppelin-contracts/contracts/token/ERC721/extensions/ERC721URIStorage.sol\":2070:2101  _tokenURIs[tokenId] = _tokenURI */\n      tag_263\n        /* \"lib/openzeppelin-contracts/contracts/token/ERC721/extensions/ERC721URIStorage.sol\":2092:2101  _tokenURI */\n      dup3\n        /* \"lib/openzeppelin-contracts/contracts/token/ERC721/extensions/ERC721URIStorage.sol\":2070:2089  _tokenURIs[tokenId] */\n      dup3\n        /* \"lib/openzeppelin-contracts/contracts/token/ERC721/extensions/ERC721URIStorage.sol\":2070:2101  _tokenURIs[tokenId] = _tokenURI */\n      tag_264\n      jump\t// in\n    tag_263:\n      pop\n        /* \"lib/openzeppelin-contracts/contracts/token/ERC721/extensions/ERC721URIStorage.sol\":2117:2140  MetadataUpdate(tokenId) */\n      mload(0x40)\n        /* \"#utility.yul\":2324:2349   */\n      dup3\n      dup2\n      mstore\n        /* \"lib/openzeppelin-contracts/contracts/token/ERC721/extensions/ERC721URIStorage.sol\":2117:2140  MetadataUpdate(tokenId) */\n      0xf8e1a15aba9398e019f0b49df1a4fde98ee17ae345cb5f6b5e2c27f5033e8ce7\n      swap1\n        /* \"#utility.yul\":2312:2314   */\n      0x20\n        /* \"#utility.yul\":2297:2315   */\n      add\n        /* \"lib/openzeppelin-contracts/contracts/token/ERC721/extensions/ERC721URIStorage.sol\":2117:2140  MetadataUpdate(tokenId) */\n      mload(0x40)\n      dup1\n      swap2\n      sub\n      swap1\n      log1\n        /* \"lib/openzeppelin-contracts/contracts/token/ERC721/extensions/ERC721URIStorage.sol\":1978:2148  function _setTokenURI(uint256 tokenId, string memory _tokenURI) internal virtual {... */\n      pop\n      pop\n      jump\t// out\n        /* \"lib/openzeppelin-contracts/contracts/token/ERC721/extensions/ERC721Enumerable.sol\":1473:1697  function supportsInterface(bytes4 interfaceId) public view virtual override(IERC165, ERC721) returns (bool) {... */\n    tag_199:\n        /* \"lib/openzeppelin-contracts/contracts/token/ERC721/extensions/ERC721Enumerable.sol\":1575:1579  bool */\n      0x00\n      not(sub(shl(0xe0, 0x01), 0x01))\n        /* \"lib/openzeppelin-contracts/contracts/token/ERC721/extensions/ERC721Enumerable.sol\":1599:1649  interfaceId == type(IERC721Enumerable).interfaceId */\n      dup3\n      and\n      shl(0xe0, 0x780e9d63)\n      eq\n      dup1\n        /* \"lib/openzeppelin-contracts/contracts/token/ERC721/extensions/ERC721Enumerable.sol\":1599:1689  interfaceId == type(IERC721Enumerable).interfaceId || super.supportsInterface(interfaceId) */\n      tag_107\n      jumpi\n      pop\n        /* \"lib/openzeppelin-contracts/contracts/token/ERC721/extensions/ERC721Enumerable.sol\":1653:1689  super.supportsInterface(interfaceId) */\n      tag_107\n        /* \"lib/openzeppelin-contracts/contracts/token/ERC721/extensions/ERC721Enumerable.sol\":1677:1688  interfaceId */\n      dup3\n        /* \"lib/openzeppelin-contracts/contracts/token/ERC721/extensions/ERC721Enumerable.sol\":1653:1676  super.supportsInterface */\n      tag_269\n        /* \"lib/openzeppelin-contracts/contracts/token/ERC721/extensions/ERC721Enumerable.sol\":1653:1689  super.supportsInterface(interfaceId) */\n      jump\t// in\n        /* \"lib/openzeppelin-contracts/contracts/token/ERC721/ERC721.sol\":15127:15805  function _approve(address to, uint256 tokenId, address auth, bool emitEvent) internal virtual {... */\n    tag_209:\n        /* \"lib/openzeppelin-contracts/contracts/token/ERC721/ERC721.sol\":15289:15298  emitEvent */\n      dup1\n        /* \"lib/openzeppelin-contracts/contracts/token/ERC721/ERC721.sol\":15289:15320  emitEvent || auth != address(0) */\n      dup1\n      tag_272\n      jumpi\n      pop\n      sub(shl(0xa0, 0x01), 0x01)\n        /* \"lib/openzeppelin-contracts/contracts/token/ERC721/ERC721.sol\":15302:15320  auth != address(0) */\n      dup3\n      and\n      iszero\n      iszero\n        /* \"lib/openzeppelin-contracts/contracts/token/ERC721/ERC721.sol\":15289:15320  emitEvent || auth != address(0) */\n    tag_272:\n        /* \"lib/openzeppelin-contracts/contracts/token/ERC721/ERC721.sol\":15285:15756  if (emitEvent || auth != address(0)) {... */\n      iszero\n      tag_273\n      jumpi\n        /* \"lib/openzeppelin-contracts/contracts/token/ERC721/ERC721.sol\":15337:15350  address owner */\n      0x00\n        /* \"lib/openzeppelin-contracts/contracts/token/ERC721/ERC721.sol\":15353:15375  _requireOwned(tokenId) */\n      tag_274\n        /* \"lib/openzeppelin-contracts/contracts/token/ERC721/ERC721.sol\":15367:15374  tokenId */\n      dup5\n        /* \"lib/openzeppelin-contracts/contracts/token/ERC721/ERC721.sol\":15353:15366  _requireOwned */\n      tag_118\n        /* \"lib/openzeppelin-contracts/contracts/token/ERC721/ERC721.sol\":15353:15375  _requireOwned(tokenId) */\n      jump\t// in\n    tag_274:\n        /* \"lib/openzeppelin-contracts/contracts/token/ERC721/ERC721.sol\":15337:15375  address owner = _requireOwned(tokenId) */\n      swap1\n      pop\n      sub(shl(0xa0, 0x01), 0x01)\n        /* \"lib/openzeppelin-contracts/contracts/token/ERC721/ERC721.sol\":15506:15524  auth != address(0) */\n      dup4\n      and\n      iszero\n      dup1\n      iszero\n      swap1\n        /* \"lib/openzeppelin-contracts/contracts/token/ERC721/ERC721.sol\":15506:15541  auth != address(0) && owner != auth */\n      tag_275\n      jumpi\n      pop\n        /* \"lib/openzeppelin-contracts/contracts/token/ERC721/ERC721.sol\":15537:15541  auth */\n      dup3\n      sub(shl(0xa0, 0x01), 0x01)\n        /* \"lib/openzeppelin-contracts/contracts/token/ERC721/ERC721.sol\":15528:15541  owner != auth */\n      and\n        /* \"lib/openzeppelin-contracts/contracts/token/ERC721/ERC721.sol\":15528:15533  owner */\n      dup2\n      sub(shl(0xa0, 0x01), 0x01)\n        /* \"lib/openzeppelin-contracts/contracts/token/ERC721/ERC721.sol\":15528:15541  owner != auth */\n      and\n      eq\n      iszero\n        /* \"lib/openzeppelin-contracts/contracts/token/ERC721/ERC721.sol\":15506:15541  auth != address(0) && owner != auth */\n    tag_275:\n        /* \"lib/openzeppelin-contracts/contracts/token/ERC721/ERC721.sol\":15506:15575  auth != address(0) && owner != auth && !isApprovedForAll(owner, auth) */\n      dup1\n      iszero\n      tag_276\n      jumpi\n      pop\n        /* \"lib/openzeppelin-contracts/contracts/token/ERC721/ERC721.sol\":15546:15575  isApprovedForAll(owner, auth) */\n      tag_277\n        /* \"lib/openzeppelin-contracts/contracts/token/ERC721/ERC721.sol\":15563:15568  owner */\n      dup2\n        /* \"lib/openzeppelin-contracts/contracts/token/ERC721/ERC721.sol\":15570:15574  auth */\n      dup5\n        /* \"lib/openzeppelin-contracts/contracts/token/ERC721/ERC721.sol\":15546:15562  isApprovedForAll */\n      tag_101\n        /* \"lib/openzeppelin-contracts/contracts/token/ERC721/ERC721.sol\":15546:15575  isApprovedForAll(owner, auth) */\n      jump\t// in\n    tag_277:\n        /* \"lib/openzeppelin-contracts/contracts/token/ERC721/ERC721.sol\":15545:15575  !isApprovedForAll(owner, auth) */\n      iszero\n        /* \"lib/openzeppelin-contracts/contracts/token/ERC721/ERC721.sol\":15506:15575  auth != address(0) && owner != auth && !isApprovedForAll(owner, auth) */\n    tag_276:\n        /* \"lib/openzeppelin-contracts/contracts/token/ERC721/ERC721.sol\":15502:15646  if (auth != address(0) && owner != auth && !isApprovedForAll(owner, auth)) {... */\n      iszero\n      tag_278\n      jumpi\n        /* \"lib/openzeppelin-contracts/contracts/token/ERC721/ERC721.sol\":15603:15630  ERC721InvalidApprover(auth) */\n      mload(0x40)\n      shl(0xe0, 0xa9fbf51f)\n      dup2\n      mstore\n      sub(shl(0xa0, 0x01), 0x01)\n        /* \"#utility.yul\":1697:1729   */\n      dup5\n      and\n        /* \"lib/openzeppelin-contracts/contracts/token/ERC721/ERC721.sol\":15603:15630  ERC721InvalidApprover(auth) */\n      0x04\n      dup3\n      add\n        /* \"#utility.yul\":1679:1730   */\n      mstore\n        /* \"#utility.yul\":1652:1670   */\n      0x24\n      add\n        /* \"lib/openzeppelin-contracts/contracts/token/ERC721/ERC721.sol\":15603:15630  ERC721InvalidApprover(auth) */\n      tag_129\n        /* \"#utility.yul\":1533:1736   */\n      jump\n        /* \"lib/openzeppelin-contracts/contracts/token/ERC721/ERC721.sol\":15502:15646  if (auth != address(0) && owner != auth && !isApprovedForAll(owner, auth)) {... */\n    tag_278:\n        /* \"lib/openzeppelin-contracts/contracts/token/ERC721/ERC721.sol\":15666:15675  emitEvent */\n      dup2\n        /* \"lib/openzeppelin-contracts/contracts/token/ERC721/ERC721.sol\":15662:15745  if (emitEvent) {... */\n      iszero\n      tag_280\n      jumpi\n        /* \"lib/openzeppelin-contracts/contracts/token/ERC721/ERC721.sol\":15721:15728  tokenId */\n      dup4\n        /* \"lib/openzeppelin-contracts/contracts/token/ERC721/ERC721.sol\":15717:15719  to */\n      dup6\n      sub(shl(0xa0, 0x01), 0x01)\n        /* \"lib/openzeppelin-contracts/contracts/token/ERC721/ERC721.sol\":15701:15729  Approval(owner, to, tokenId) */\n      and\n        /* \"lib/openzeppelin-contracts/contracts/token/ERC721/ERC721.sol\":15710:15715  owner */\n      dup3\n      sub(shl(0xa0, 0x01), 0x01)\n        /* \"lib/openzeppelin-contracts/contracts/token/ERC721/ERC721.sol\":15701:15729  Approval(owner, to, tokenId) */\n      and\n      0x8c5be1e5ebec7d5bd14f71427d1e84f3dd0314c0f7b2291e5b200ac8c7c3b925\n      mload(0x40)\n      mload(0x40)\n      dup1\n      swap2\n      sub\n      swap1\n      log4\n        /* \"lib/openzeppelin-contracts/contracts/token/ERC721/ERC721.sol\":15662:15745  if (emitEvent) {... */\n    tag_280:\n        /* \"lib/openzeppelin-contracts/contracts/token/ERC721/ERC721.sol\":15322:15756  {... */\n      pop\n        /* \"lib/openzeppelin-contracts/contracts/token/ERC721/ERC721.sol\":15285:15756  if (emitEvent || auth != address(0)) {... */\n    tag_273:\n      pop\n      pop\n        /* \"lib/openzeppelin-contracts/contracts/token/ERC721/ERC721.sol\":15768:15792  _tokenApprovals[tokenId] */\n      0x00\n      swap1\n      dup2\n      mstore\n        /* \"lib/openzeppelin-contracts/contracts/token/ERC721/ERC721.sol\":15768:15783  _tokenApprovals */\n      0x04\n        /* \"lib/openzeppelin-contracts/contracts/token/ERC721/ERC721.sol\":15768:15792  _tokenApprovals[tokenId] */\n      0x20\n      mstore\n      0x40\n      swap1\n      keccak256\n        /* \"lib/openzeppelin-contracts/contracts/token/ERC721/ERC721.sol\":15768:15797  _tokenApprovals[tokenId] = to */\n      dup1\n      sload\n      not(sub(shl(0xa0, 0x01), 0x01))\n      and\n      sub(shl(0xa0, 0x01), 0x01)\n      swap3\n      swap1\n      swap3\n      and\n      swap2\n      swap1\n      swap2\n      or\n      swap1\n      sstore\n        /* \"lib/openzeppelin-contracts/contracts/token/ERC721/ERC721.sol\":15127:15805  function _approve(address to, uint256 tokenId, address auth, bool emitEvent) internal virtual {... */\n      jump\t// out\n        /* \"lib/openzeppelin-contracts/contracts/token/ERC721/extensions/ERC721Enumerable.sol\":2590:3230  function _update(address to, uint256 tokenId, address auth) internal virtual override returns (address) {... */\n    tag_212:\n        /* \"lib/openzeppelin-contracts/contracts/token/ERC721/extensions/ERC721Enumerable.sol\":2685:2692  address */\n      0x00\n        /* \"lib/openzeppelin-contracts/contracts/token/ERC721/extensions/ERC721Enumerable.sol\":2705:2726  address previousOwner */\n      dup1\n        /* \"lib/openzeppelin-contracts/contracts/token/ERC721/extensions/ERC721Enumerable.sol\":2729:2761  super._update(to, tokenId, auth) */\n      tag_282\n        /* \"lib/openzeppelin-contracts/contracts/token/ERC721/extensions/ERC721Enumerable.sol\":2743:2745  to */\n      dup6\n        /* \"lib/openzeppelin-contracts/contracts/token/ERC721/extensions/ERC721Enumerable.sol\":2747:2754  tokenId */\n      dup6\n        /* \"lib/openzeppelin-contracts/contracts/token/ERC721/extensions/ERC721Enumerable.sol\":2756:2760  auth */\n      dup6\n        /* \"lib/openzeppelin-contracts/contracts/token/ERC721/extensions/ERC721Enumerable.sol\":2729:2742  super._update */\n      tag_283\n        /* \"lib/openzeppelin-contracts/contracts/token/ERC721/extensions/ERC721Enumerable.sol\":2729:2761  super._update(to, tokenId, auth) */\n      jump\t// in\n    tag_282:\n        /* \"lib/openzeppelin-contracts/contracts/token/ERC721/extensions/ERC721Enumerable.sol\":2705:2761  address previousOwner = super._update(to, tokenId, auth) */\n      swap1\n      pop\n      sub(shl(0xa0, 0x01), 0x01)\n        /* \"lib/openzeppelin-contracts/contracts/token/ERC721/extensions/ERC721Enumerable.sol\":2778:2805  previousOwner == address(0) */\n      dup2\n      and\n        /* \"lib/openzeppelin-contracts/contracts/token/ERC721/extensions/ERC721Enumerable.sol\":2774:2988  if (previousOwner == address(0)) {... */\n      tag_284\n      jumpi\n        /* \"lib/openzeppelin-contracts/contracts/token/ERC721/extensions/ERC721Enumerable.sol\":2822:2862  _addTokenToAllTokensEnumeration(tokenId) */\n      tag_285\n        /* \"lib/openzeppelin-contracts/contracts/token/ERC721/extensions/ERC721Enumerable.sol\":2854:2861  tokenId */\n      dup5\n        /* \"lib/openzeppelin-contracts/contracts/token/ERC721/extensions/ERC721Enumerable.sol\":4054:4064  _allTokens */\n      0x08\n        /* \"lib/openzeppelin-contracts/contracts/token/ERC721/extensions/ERC721Enumerable.sol\":4054:4071  _allTokens.length */\n      dup1\n      sload\n        /* \"lib/openzeppelin-contracts/contracts/token/ERC721/extensions/ERC721Enumerable.sol\":4027:4051  _allTokensIndex[tokenId] */\n      0x00\n      dup4\n      dup2\n      mstore\n        /* \"lib/openzeppelin-contracts/contracts/token/ERC721/extensions/ERC721Enumerable.sol\":4027:4042  _allTokensIndex */\n      0x09\n        /* \"lib/openzeppelin-contracts/contracts/token/ERC721/extensions/ERC721Enumerable.sol\":4027:4051  _allTokensIndex[tokenId] */\n      0x20\n      mstore\n      0x40\n      dup2\n      keccak256\n        /* \"lib/openzeppelin-contracts/contracts/token/ERC721/extensions/ERC721Enumerable.sol\":4027:4071  _allTokensIndex[tokenId] = _allTokens.length */\n      dup3\n      swap1\n      sstore\n        /* \"lib/openzeppelin-contracts/contracts/token/ERC721/extensions/ERC721Enumerable.sol\":4082:4106  _allTokens.push(tokenId) */\n      0x01\n      dup3\n      add\n      dup4\n      sstore\n      swap2\n      swap1\n      swap2\n      mstore\n      0xf3f7a9fe364faab93b216da50a3214154f22a0a2b415b23a84c8169e8b636ee3\n      add\n      sstore\n        /* \"lib/openzeppelin-contracts/contracts/token/ERC721/extensions/ERC721Enumerable.sol\":3950:4114  function _addTokenToAllTokensEnumeration(uint256 tokenId) private {... */\n      jump\n        /* \"lib/openzeppelin-contracts/contracts/token/ERC721/extensions/ERC721Enumerable.sol\":2822:2862  _addTokenToAllTokensEnumeration(tokenId) */\n    tag_285:\n        /* \"lib/openzeppelin-contracts/contracts/token/ERC721/extensions/ERC721Enumerable.sol\":2774:2988  if (previousOwner == address(0)) {... */\n      jump(tag_289)\n    tag_284:\n        /* \"lib/openzeppelin-contracts/contracts/token/ERC721/extensions/ERC721Enumerable.sol\":2901:2903  to */\n      dup5\n      sub(shl(0xa0, 0x01), 0x01)\n        /* \"lib/openzeppelin-contracts/contracts/token/ERC721/extensions/ERC721Enumerable.sol\":2884:2903  previousOwner != to */\n      and\n        /* \"lib/openzeppelin-contracts/contracts/token/ERC721/extensions/ERC721Enumerable.sol\":2884:2897  previousOwner */\n      dup2\n      sub(shl(0xa0, 0x01), 0x01)\n        /* \"lib/openzeppelin-contracts/contracts/token/ERC721/extensions/ERC721Enumerable.sol\":2884:2903  previousOwner != to */\n      and\n      eq\n        /* \"lib/openzeppelin-contracts/contracts/token/ERC721/extensions/ERC721Enumerable.sol\":2880:2988  if (previousOwner != to) {... */\n      tag_289\n      jumpi\n        /* \"lib/openzeppelin-contracts/contracts/token/ERC721/extensions/ERC721Enumerable.sol\":2920:2976  _removeTokenFromOwnerEnumeration(previousOwner, tokenId) */\n      tag_289\n        /* \"lib/openzeppelin-contracts/contracts/token/ERC721/extensions/ERC721Enumerable.sol\":2953:2966  previousOwner */\n      dup2\n        /* \"lib/openzeppelin-contracts/contracts/token/ERC721/extensions/ERC721Enumerable.sol\":2968:2975  tokenId */\n      dup6\n        /* \"lib/openzeppelin-contracts/contracts/token/ERC721/extensions/ERC721Enumerable.sol\":2920:2952  _removeTokenFromOwnerEnumeration */\n      tag_290\n        /* \"lib/openzeppelin-contracts/contracts/token/ERC721/extensions/ERC721Enumerable.sol\":2920:2976  _removeTokenFromOwnerEnumeration(previousOwner, tokenId) */\n      jump\t// in\n    tag_289:\n      sub(shl(0xa0, 0x01), 0x01)\n        /* \"lib/openzeppelin-contracts/contracts/token/ERC721/extensions/ERC721Enumerable.sol\":3002:3018  to == address(0) */\n      dup6\n      and\n        /* \"lib/openzeppelin-contracts/contracts/token/ERC721/extensions/ERC721Enumerable.sol\":2998:3190  if (to == address(0)) {... */\n      tag_291\n      jumpi\n        /* \"lib/openzeppelin-contracts/contracts/token/ERC721/extensions/ERC721Enumerable.sol\":3035:3080  _removeTokenFromAllTokensEnumeration(tokenId) */\n      tag_292\n        /* \"lib/openzeppelin-contracts/contracts/token/ERC721/extensions/ERC721Enumerable.sol\":3072:3079  tokenId */\n      dup5\n        /* \"lib/openzeppelin-contracts/contracts/token/ERC721/extensions/ERC721Enumerable.sol\":3035:3071  _removeTokenFromAllTokensEnumeration */\n      tag_293\n        /* \"lib/openzeppelin-contracts/contracts/token/ERC721/extensions/ERC721Enumerable.sol\":3035:3080  _removeTokenFromAllTokensEnumeration(tokenId) */\n      jump\t// in\n    tag_292:\n        /* \"lib/openzeppelin-contracts/contracts/token/ERC721/extensions/ERC721Enumerable.sol\":2998:3190  if (to == address(0)) {... */\n      jump(tag_211)\n    tag_291:\n        /* \"lib/openzeppelin-contracts/contracts/token/ERC721/extensions/ERC721Enumerable.sol\":3119:3121  to */\n      dup5\n      sub(shl(0xa0, 0x01), 0x01)\n        /* \"lib/openzeppelin-contracts/contracts/token/ERC721/extensions/ERC721Enumerable.sol\":3102:3121  previousOwner != to */\n      and\n        /* \"lib/openzeppelin-contracts/contracts/token/ERC721/extensions/ERC721Enumerable.sol\":3102:3115  previousOwner */\n      dup2\n      sub(shl(0xa0, 0x01), 0x01)\n        /* \"lib/openzeppelin-contracts/contracts/token/ERC721/extensions/ERC721Enumerable.sol\":3102:3121  previousOwner != to */\n      and\n      eq\n        /* \"lib/openzeppelin-contracts/contracts/token/ERC721/extensions/ERC721Enumerable.sol\":3098:3190  if (previousOwner != to) {... */\n      tag_211\n      jumpi\n        /* \"lib/openzeppelin-contracts/contracts/token/ERC721/extensions/ERC721Enumerable.sol\":3138:3178  _addTokenToOwnerEnumeration(to, tokenId) */\n      tag_211\n        /* \"lib/openzeppelin-contracts/contracts/token/ERC721/extensions/ERC721Enumerable.sol\":3166:3168  to */\n      dup6\n        /* \"lib/openzeppelin-contracts/contracts/token/ERC721/extensions/ERC721Enumerable.sol\":3170:3177  tokenId */\n      dup6\n        /* \"lib/openzeppelin-contracts/contracts/token/ERC721/extensions/ERC721Enumerable.sol\":3138:3165  _addTokenToOwnerEnumeration */\n      tag_297\n        /* \"lib/openzeppelin-contracts/contracts/token/ERC721/extensions/ERC721Enumerable.sol\":3138:3178  _addTokenToOwnerEnumeration(to, tokenId) */\n      jump\t// in\n        /* \"lib/openzeppelin-contracts/contracts/token/ERC721/ERC721.sol\":2764:3024  function tokenURI(uint256 tokenId) public view virtual returns (string memory) {... */\n    tag_258:\n        /* \"lib/openzeppelin-contracts/contracts/token/ERC721/ERC721.sol\":2828:2841  string memory */\n      0x60\n        /* \"lib/openzeppelin-contracts/contracts/token/ERC721/ERC721.sol\":2854:2876  _requireOwned(tokenId) */\n      tag_300\n        /* \"lib/openzeppelin-contracts/contracts/token/ERC721/ERC721.sol\":2868:2875  tokenId */\n      dup3\n        /* \"lib/openzeppelin-contracts/contracts/token/ERC721/ERC721.sol\":2854:2867  _requireOwned */\n      tag_118\n        /* \"lib/openzeppelin-contracts/contracts/token/ERC721/ERC721.sol\":2854:2876  _requireOwned(tokenId) */\n      jump\t// in\n    tag_300:\n      pop\n        /* \"lib/openzeppelin-contracts/contracts/token/ERC721/ERC721.sol\":2889:2910  string memory baseURI */\n      0x00\n        /* \"lib/openzeppelin-contracts/contracts/token/ERC721/ERC721.sol\":2913:2923  _baseURI() */\n      tag_301\n        /* \"lib/openzeppelin-contracts/contracts/token/ERC721/ERC721.sol\":3350:3359  return \"\" */\n      0x40\n      dup1\n      mload\n      0x20\n      dup2\n      add\n      swap1\n      swap2\n      mstore\n      0x00\n      dup2\n      mstore\n      swap1\n        /* \"lib/openzeppelin-contracts/contracts/token/ERC721/ERC721.sol\":3273:3367  function _baseURI() internal view virtual returns (string memory) {... */\n      jump\n        /* \"lib/openzeppelin-contracts/contracts/token/ERC721/ERC721.sol\":2913:2923  _baseURI() */\n    tag_301:\n        /* \"lib/openzeppelin-contracts/contracts/token/ERC721/ERC721.sol\":2889:2923  string memory baseURI = _baseURI() */\n      swap1\n      pop\n        /* \"lib/openzeppelin-contracts/contracts/token/ERC721/ERC721.sol\":2965:2966  0 */\n      0x00\n        /* \"lib/openzeppelin-contracts/contracts/token/ERC721/ERC721.sol\":2947:2954  baseURI */\n      dup2\n        /* \"lib/openzeppelin-contracts/contracts/token/ERC721/ERC721.sol\":2941:2962  bytes(baseURI).length */\n      mload\n        /* \"lib/openzeppelin-contracts/contracts/token/ERC721/ERC721.sol\":2941:2966  bytes(baseURI).length > 0 */\n      gt\n        /* \"lib/openzeppelin-contracts/contracts/token/ERC721/ERC721.sol\":2941:3016  bytes(baseURI).length > 0 ? string.concat(baseURI, tokenId.toString()) : \"\" */\n      tag_302\n      jumpi\n      mload(0x40)\n      dup1\n      0x20\n      add\n      0x40\n      mstore\n      dup1\n      0x00\n      dup2\n      mstore\n      pop\n      jump(tag_303)\n    tag_302:\n        /* \"lib/openzeppelin-contracts/contracts/token/ERC721/ERC721.sol\":2983:2990  baseURI */\n      dup1\n        /* \"lib/openzeppelin-contracts/contracts/token/ERC721/ERC721.sol\":2992:3010  tokenId.toString() */\n      tag_304\n        /* \"lib/openzeppelin-contracts/contracts/token/ERC721/ERC721.sol\":2992:2999  tokenId */\n      dup5\n        /* \"lib/openzeppelin-contracts/contracts/token/ERC721/ERC721.sol\":2992:3008  tokenId.toString */\n      tag_305\n        /* \"lib/openzeppelin-contracts/contracts/token/ERC721/ERC721.sol\":2992:3010  tokenId.toString() */\n      jump\t// in\n    tag_304:\n        /* \"lib/openzeppelin-contracts/contracts/token/ERC721/ERC721.sol\":2969:3011  string.concat(baseURI, tokenId.toString()) */\n      add(0x20, mload(0x40))\n      tag_306\n      swap3\n      swap2\n      swap1\n      tag_256\n      jump\t// in\n    tag_306:\n      mload(0x40)\n      0x20\n      dup2\n      dup4\n      sub\n      sub\n      dup2\n      mstore\n      swap1\n      0x40\n      mstore\n        /* \"lib/openzeppelin-contracts/contracts/token/ERC721/ERC721.sol\":2941:3016  bytes(baseURI).length > 0 ? string.concat(baseURI, tokenId.toString()) : \"\" */\n    tag_303:\n        /* \"lib/openzeppelin-contracts/contracts/token/ERC721/ERC721.sol\":2934:3016  return bytes(baseURI).length > 0 ? string.concat(baseURI, tokenId.toString()) : \"\" */\n      swap4\n        /* \"lib/openzeppelin-contracts/contracts/token/ERC721/ERC721.sol\":2764:3024  function tokenURI(uint256 tokenId) public view virtual returns (string memory) {... */\n      swap3\n      pop\n      pop\n      pop\n      jump\t// out\n        /* \"lib/openzeppelin-contracts/contracts/token/ERC721/ERC721.sol\":11265:11450  function _safeMint(address to, uint256 tokenId, bytes memory data) internal virtual {... */\n    tag_261:\n        /* \"lib/openzeppelin-contracts/contracts/token/ERC721/ERC721.sol\":11360:11378  _mint(to, tokenId) */\n      tag_308\n        /* \"lib/openzeppelin-contracts/contracts/token/ERC721/ERC721.sol\":11366:11368  to */\n      dup4\n        /* \"lib/openzeppelin-contracts/contracts/token/ERC721/ERC721.sol\":11370:11377  tokenId */\n      dup4\n        /* \"lib/openzeppelin-contracts/contracts/token/ERC721/ERC721.sol\":11360:11365  _mint */\n      tag_309\n        /* \"lib/openzeppelin-contracts/contracts/token/ERC721/ERC721.sol\":11360:11378  _mint(to, tokenId) */\n      jump\t// in\n    tag_308:\n        /* \"lib/openzeppelin-contracts/contracts/token/ERC721/ERC721.sol\":11389:11442  _checkOnERC721Received(address(0), to, tokenId, data) */\n      tag_142\n        /* \"lib/openzeppelin-contracts/contracts/token/ERC721/ERC721.sol\":11420:11421  0 */\n      0x00\n        /* \"lib/openzeppelin-contracts/contracts/token/ERC721/ERC721.sol\":11424:11426  to */\n      dup5\n        /* \"lib/openzeppelin-contracts/contracts/token/ERC721/ERC721.sol\":11428:11435  tokenId */\n      dup5\n        /* \"lib/openzeppelin-contracts/contracts/token/ERC721/ERC721.sol\":11437:11441  data */\n      dup5\n        /* \"lib/openzeppelin-contracts/contracts/token/ERC721/ERC721.sol\":11389:11411  _checkOnERC721Received */\n      tag_176\n        /* \"lib/openzeppelin-contracts/contracts/token/ERC721/ERC721.sol\":11389:11442  _checkOnERC721Received(address(0), to, tokenId, data) */\n      jump\t// in\n        /* \"lib/openzeppelin-contracts/contracts/token/ERC721/ERC721.sol\":1607:1912  function supportsInterface(bytes4 interfaceId) public view virtual override(ERC165, IERC165) returns (bool) {... */\n    tag_269:\n        /* \"lib/openzeppelin-contracts/contracts/token/ERC721/ERC721.sol\":1709:1713  bool */\n      0x00\n      not(sub(shl(0xe0, 0x01), 0x01))\n        /* \"lib/openzeppelin-contracts/contracts/token/ERC721/ERC721.sol\":1746:1786  interfaceId == type(IERC721).interfaceId */\n      dup3\n      and\n      shl(0xe0, 0x80ac58cd)\n      eq\n      dup1\n        /* \"lib/openzeppelin-contracts/contracts/token/ERC721/ERC721.sol\":1746:1851  interfaceId == type(IERC721).interfaceId ||... */\n      tag_312\n      jumpi\n      pop\n      not(sub(shl(0xe0, 0x01), 0x01))\n        /* \"lib/openzeppelin-contracts/contracts/token/ERC721/ERC721.sol\":1803:1851  interfaceId == type(IERC721Metadata).interfaceId */\n      dup3\n      and\n      shl(0xe0, 0x5b5e139f)\n      eq\n        /* \"lib/openzeppelin-contracts/contracts/token/ERC721/ERC721.sol\":1746:1851  interfaceId == type(IERC721).interfaceId ||... */\n    tag_312:\n        /* \"lib/openzeppelin-contracts/contracts/token/ERC721/ERC721.sol\":1746:1904  interfaceId == type(IERC721).interfaceId ||... */\n      dup1\n      tag_107\n      jumpi\n      pop\n      shl(0xe0, 0x01ffc9a7)\n      not(sub(shl(0xe0, 0x01), 0x01))\n        /* \"lib/openzeppelin-contracts/contracts/utils/introspection/ERC165.sol\":885:925  interfaceId == type(IERC165).interfaceId */\n      dup4\n      and\n      eq\n        /* \"lib/openzeppelin-contracts/contracts/token/ERC721/ERC721.sol\":1868:1904  super.supportsInterface(interfaceId) */\n      tag_107\n        /* \"lib/openzeppelin-contracts/contracts/utils/introspection/ERC165.sol\":785:933  function supportsInterface(bytes4 interfaceId) public view virtual returns (bool) {... */\n      jump\n        /* \"lib/openzeppelin-contracts/contracts/token/ERC721/ERC721.sol\":9078:9902  function _update(address to, uint256 tokenId, address auth) internal virtual returns (address) {... */\n    tag_283:\n        /* \"lib/openzeppelin-contracts/contracts/token/ERC721/ERC721.sol\":9164:9171  address */\n      0x00\n        /* \"lib/openzeppelin-contracts/contracts/token/ERC721/ERC721.sol\":5971:5987  _owners[tokenId] */\n      dup3\n      dup2\n      mstore\n        /* \"lib/openzeppelin-contracts/contracts/token/ERC721/ERC721.sol\":5971:5978  _owners */\n      0x02\n        /* \"lib/openzeppelin-contracts/contracts/token/ERC721/ERC721.sol\":5971:5987  _owners[tokenId] */\n      0x20\n      mstore\n      0x40\n      dup2\n      keccak256\n      sload\n      sub(shl(0xa0, 0x01), 0x01)\n      swap1\n      dup2\n      and\n      swap1\n        /* \"lib/openzeppelin-contracts/contracts/token/ERC721/ERC721.sol\":9279:9297  auth != address(0) */\n      dup4\n      and\n      iszero\n        /* \"lib/openzeppelin-contracts/contracts/token/ERC721/ERC721.sol\":9275:9363  if (auth != address(0)) {... */\n      tag_319\n      jumpi\n        /* \"lib/openzeppelin-contracts/contracts/token/ERC721/ERC721.sol\":9314:9351  _checkAuthorized(from, auth, tokenId) */\n      tag_319\n        /* \"lib/openzeppelin-contracts/contracts/token/ERC721/ERC721.sol\":9331:9335  from */\n      dup2\n        /* \"lib/openzeppelin-contracts/contracts/token/ERC721/ERC721.sol\":9337:9341  auth */\n      dup5\n        /* \"lib/openzeppelin-contracts/contracts/token/ERC721/ERC721.sol\":9343:9350  tokenId */\n      dup7\n        /* \"lib/openzeppelin-contracts/contracts/token/ERC721/ERC721.sol\":9314:9330  _checkAuthorized */\n      tag_320\n        /* \"lib/openzeppelin-contracts/contracts/token/ERC721/ERC721.sol\":9314:9351  _checkAuthorized(from, auth, tokenId) */\n      jump\t// in\n    tag_319:\n      sub(shl(0xa0, 0x01), 0x01)\n        /* \"lib/openzeppelin-contracts/contracts/token/ERC721/ERC721.sol\":9410:9428  from != address(0) */\n      dup2\n      and\n      iszero\n        /* \"lib/openzeppelin-contracts/contracts/token/ERC721/ERC721.sol\":9406:9669  if (from != address(0)) {... */\n      tag_321\n      jumpi\n        /* \"lib/openzeppelin-contracts/contracts/token/ERC721/ERC721.sol\":9528:9576  _approve(address(0), tokenId, address(0), false) */\n      tag_322\n        /* \"lib/openzeppelin-contracts/contracts/token/ERC721/ERC721.sol\":9545:9546  0 */\n      0x00\n        /* \"lib/openzeppelin-contracts/contracts/token/ERC721/ERC721.sol\":9549:9556  tokenId */\n      dup6\n        /* \"lib/openzeppelin-contracts/contracts/token/ERC721/ERC721.sol\":9566:9567  0 */\n      0x00\n        /* \"lib/openzeppelin-contracts/contracts/token/ERC721/ERC721.sol\":9570:9575  false */\n      dup1\n        /* \"lib/openzeppelin-contracts/contracts/token/ERC721/ERC721.sol\":9528:9536  _approve */\n      tag_209\n        /* \"lib/openzeppelin-contracts/contracts/token/ERC721/ERC721.sol\":9528:9576  _approve(address(0), tokenId, address(0), false) */\n      jump\t// in\n    tag_322:\n      sub(shl(0xa0, 0x01), 0x01)\n        /* \"lib/openzeppelin-contracts/contracts/token/ERC721/ERC721.sol\":9622:9637  _balances[from] */\n      dup2\n      and\n      0x00\n      swap1\n      dup2\n      mstore\n        /* \"lib/openzeppelin-contracts/contracts/token/ERC721/ERC721.sol\":9622:9631  _balances */\n      0x03\n        /* \"lib/openzeppelin-contracts/contracts/token/ERC721/ERC721.sol\":9622:9637  _balances[from] */\n      0x20\n      mstore\n      0x40\n      swap1\n      keccak256\n        /* \"lib/openzeppelin-contracts/contracts/token/ERC721/ERC721.sol\":9622:9642  _balances[from] -= 1 */\n      dup1\n      sload\n      not(0x00)\n      add\n      swap1\n      sstore\n        /* \"lib/openzeppelin-contracts/contracts/token/ERC721/ERC721.sol\":9406:9669  if (from != address(0)) {... */\n    tag_321:\n      sub(shl(0xa0, 0x01), 0x01)\n        /* \"lib/openzeppelin-contracts/contracts/token/ERC721/ERC721.sol\":9685:9701  to != address(0) */\n      dup6\n      and\n      iszero\n        /* \"lib/openzeppelin-contracts/contracts/token/ERC721/ERC721.sol\":9681:9792  if (to != address(0)) {... */\n      tag_323\n      jumpi\n      sub(shl(0xa0, 0x01), 0x01)\n        /* \"lib/openzeppelin-contracts/contracts/token/ERC721/ERC721.sol\":9747:9760  _balances[to] */\n      dup6\n      and\n      0x00\n      swap1\n      dup2\n      mstore\n        /* \"lib/openzeppelin-contracts/contracts/token/ERC721/ERC721.sol\":9747:9756  _balances */\n      0x03\n        /* \"lib/openzeppelin-contracts/contracts/token/ERC721/ERC721.sol\":9747:9760  _balances[to] */\n      0x20\n      mstore\n      0x40\n      swap1\n      keccak256\n        /* \"lib/openzeppelin-contracts/contracts/token/ERC721/ERC721.sol\":9747:9765  _balances[to] += 1 */\n      dup1\n      sload\n        /* \"lib/openzeppelin-contracts/contracts/token/ERC721/ERC721.sol\":9764:9765  1 */\n      0x01\n        /* \"lib/openzeppelin-contracts/contracts/token/ERC721/ERC721.sol\":9747:9765  _balances[to] += 1 */\n      add\n      swap1\n      sstore\n        /* \"lib/openzeppelin-contracts/contracts/token/ERC721/ERC721.sol\":9681:9792  if (to != address(0)) {... */\n    tag_323:\n        /* \"lib/openzeppelin-contracts/contracts/token/ERC721/ERC721.sol\":9804:9820  _owners[tokenId] */\n      0x00\n      dup5\n      dup2\n      mstore\n        /* \"lib/openzeppelin-contracts/contracts/token/ERC721/ERC721.sol\":9804:9811  _owners */\n      0x02\n        /* \"lib/openzeppelin-contracts/contracts/token/ERC721/ERC721.sol\":9804:9820  _owners[tokenId] */\n      0x20\n      mstore\n      0x40\n      dup1\n      dup3\n      keccak256\n        /* \"lib/openzeppelin-contracts/contracts/token/ERC721/ERC721.sol\":9804:9825  _owners[tokenId] = to */\n      dup1\n      sload\n      not(sub(shl(0xa0, 0x01), 0x01))\n      and\n      sub(shl(0xa0, 0x01), 0x01)\n      dup10\n      dup2\n      and\n      swap2\n      dup3\n      or\n      swap1\n      swap3\n      sstore\n        /* \"lib/openzeppelin-contracts/contracts/token/ERC721/ERC721.sol\":9843:9870  Transfer(from, to, tokenId) */\n      swap2\n      mload\n        /* \"lib/openzeppelin-contracts/contracts/token/ERC721/ERC721.sol\":9804:9820  _owners[tokenId] */\n      dup8\n      swap4\n        /* \"lib/openzeppelin-contracts/contracts/token/ERC721/ERC721.sol\":9843:9870  Transfer(from, to, tokenId) */\n      swap2\n      dup6\n      and\n      swap2\n      0xddf252ad1be2c89b69c2b068fc378daa952ba7f163c4a11628f55a4df523b3ef\n      swap2\n      log4\n        /* \"lib/openzeppelin-contracts/contracts/token/ERC721/ERC721.sol\":9890:9894  from */\n      swap5\n        /* \"lib/openzeppelin-contracts/contracts/token/ERC721/ERC721.sol\":9078:9902  function _update(address to, uint256 tokenId, address auth) internal virtual returns (address) {... */\n      swap4\n      pop\n      pop\n      pop\n      pop\n      jump\t// out\n        /* \"lib/openzeppelin-contracts/contracts/token/ERC721/extensions/ERC721Enumerable.sol\":4741:5718  function _removeTokenFromOwnerEnumeration(address from, uint256 tokenId) private {... */\n    tag_290:\n        /* \"lib/openzeppelin-contracts/contracts/token/ERC721/extensions/ERC721Enumerable.sol\":5007:5029  uint256 lastTokenIndex */\n      0x00\n        /* \"lib/openzeppelin-contracts/contracts/token/ERC721/extensions/ERC721Enumerable.sol\":5032:5047  balanceOf(from) */\n      tag_327\n        /* \"lib/openzeppelin-contracts/contracts/token/ERC721/extensions/ERC721Enumerable.sol\":5042:5046  from */\n      dup4\n        /* \"lib/openzeppelin-contracts/contracts/token/ERC721/extensions/ERC721Enumerable.sol\":5032:5041  balanceOf */\n      tag_72\n        /* \"lib/openzeppelin-contracts/contracts/token/ERC721/extensions/ERC721Enumerable.sol\":5032:5047  balanceOf(from) */\n      jump\t// in\n    tag_327:\n        /* \"lib/openzeppelin-contracts/contracts/token/ERC721/extensions/ERC721Enumerable.sol\":5058:5076  uint256 tokenIndex */\n      0x00\n        /* \"lib/openzeppelin-contracts/contracts/token/ERC721/extensions/ERC721Enumerable.sol\":5079:5105  _ownedTokensIndex[tokenId] */\n      dup4\n      dup2\n      mstore\n        /* \"lib/openzeppelin-contracts/contracts/token/ERC721/extensions/ERC721Enumerable.sol\":5079:5096  _ownedTokensIndex */\n      0x07\n        /* \"lib/openzeppelin-contracts/contracts/token/ERC721/extensions/ERC721Enumerable.sol\":5079:5105  _ownedTokensIndex[tokenId] */\n      0x20\n      mstore\n      0x40\n      swap1\n      keccak256\n      sload\n        /* \"lib/openzeppelin-contracts/contracts/token/ERC721/extensions/ERC721Enumerable.sol\":5007:5047  uint256 lastTokenIndex = balanceOf(from) */\n      swap1\n      swap2\n      pop\n        /* \"lib/openzeppelin-contracts/contracts/token/ERC721/extensions/ERC721Enumerable.sol\":5212:5240  tokenIndex != lastTokenIndex */\n      dup1\n      dup3\n      eq\n        /* \"lib/openzeppelin-contracts/contracts/token/ERC721/extensions/ERC721Enumerable.sol\":5208:5536  if (tokenIndex != lastTokenIndex) {... */\n      tag_328\n      jumpi\n      sub(shl(0xa0, 0x01), 0x01)\n        /* \"lib/openzeppelin-contracts/contracts/token/ERC721/extensions/ERC721Enumerable.sol\":5279:5297  _ownedTokens[from] */\n      dup5\n      and\n        /* \"lib/openzeppelin-contracts/contracts/token/ERC721/extensions/ERC721Enumerable.sol\":5257:5276  uint256 lastTokenId */\n      0x00\n        /* \"lib/openzeppelin-contracts/contracts/token/ERC721/extensions/ERC721Enumerable.sol\":5279:5297  _ownedTokens[from] */\n      swap1\n      dup2\n      mstore\n        /* \"lib/openzeppelin-contracts/contracts/token/ERC721/extensions/ERC721Enumerable.sol\":5279:5291  _ownedTokens */\n      0x06\n        /* \"lib/openzeppelin-contracts/contracts/token/ERC721/extensions/ERC721Enumerable.sol\":5279:5297  _ownedTokens[from] */\n      0x20\n      swap1\n      dup2\n      mstore\n      0x40\n      dup1\n      dup4\n      keccak256\n        /* \"lib/openzeppelin-contracts/contracts/token/ERC721/extensions/ERC721Enumerable.sol\":5279:5313  _ownedTokens[from][lastTokenIndex] */\n      dup6\n      dup5\n      mstore\n      dup3\n      mstore\n      dup1\n      dup4\n      keccak256\n      sload\n        /* \"lib/openzeppelin-contracts/contracts/token/ERC721/extensions/ERC721Enumerable.sol\":5330:5360  _ownedTokens[from][tokenIndex] */\n      dup5\n      dup5\n      mstore\n      dup2\n      dup5\n      keccak256\n        /* \"lib/openzeppelin-contracts/contracts/token/ERC721/extensions/ERC721Enumerable.sol\":5330:5374  _ownedTokens[from][tokenIndex] = lastTokenId */\n      dup2\n      swap1\n      sstore\n        /* \"lib/openzeppelin-contracts/contracts/token/ERC721/extensions/ERC721Enumerable.sol\":5447:5477  _ownedTokensIndex[lastTokenId] */\n      dup4\n      mstore\n        /* \"lib/openzeppelin-contracts/contracts/token/ERC721/extensions/ERC721Enumerable.sol\":5447:5464  _ownedTokensIndex */\n      0x07\n        /* \"lib/openzeppelin-contracts/contracts/token/ERC721/extensions/ERC721Enumerable.sol\":5447:5477  _ownedTokensIndex[lastTokenId] */\n      swap1\n      swap2\n      mstore\n      swap1\n      keccak256\n        /* \"lib/openzeppelin-contracts/contracts/token/ERC721/extensions/ERC721Enumerable.sol\":5447:5490  _ownedTokensIndex[lastTokenId] = tokenIndex */\n      dup2\n      swap1\n      sstore\n        /* \"lib/openzeppelin-contracts/contracts/token/ERC721/extensions/ERC721Enumerable.sol\":5208:5536  if (tokenIndex != lastTokenIndex) {... */\n    tag_328:\n      pop\n        /* \"lib/openzeppelin-contracts/contracts/token/ERC721/extensions/ERC721Enumerable.sol\":5632:5658  _ownedTokensIndex[tokenId] */\n      0x00\n      swap2\n      dup3\n      mstore\n        /* \"lib/openzeppelin-contracts/contracts/token/ERC721/extensions/ERC721Enumerable.sol\":5632:5649  _ownedTokensIndex */\n      0x07\n        /* \"lib/openzeppelin-contracts/contracts/token/ERC721/extensions/ERC721Enumerable.sol\":5632:5658  _ownedTokensIndex[tokenId] */\n      0x20\n      swap1\n      dup2\n      mstore\n      0x40\n      dup1\n      dup5\n      keccak256\n        /* \"lib/openzeppelin-contracts/contracts/token/ERC721/extensions/ERC721Enumerable.sol\":5625:5658  delete _ownedTokensIndex[tokenId] */\n      dup5\n      swap1\n      sstore\n      sub(shl(0xa0, 0x01), 0x01)\n        /* \"lib/openzeppelin-contracts/contracts/token/ERC721/extensions/ERC721Enumerable.sol\":5676:5694  _ownedTokens[from] */\n      swap1\n      swap5\n      and\n      dup4\n      mstore\n        /* \"lib/openzeppelin-contracts/contracts/token/ERC721/extensions/ERC721Enumerable.sol\":5676:5688  _ownedTokens */\n      0x06\n        /* \"lib/openzeppelin-contracts/contracts/token/ERC721/extensions/ERC721Enumerable.sol\":5676:5694  _ownedTokens[from] */\n      dup2\n      mstore\n      dup4\n      dup4\n      keccak256\n        /* \"lib/openzeppelin-contracts/contracts/token/ERC721/extensions/ERC721Enumerable.sol\":5676:5710  _ownedTokens[from][lastTokenIndex] */\n      swap2\n      dup4\n      mstore\n      mstore\n      swap1\n      dup2\n      keccak256\n        /* \"lib/openzeppelin-contracts/contracts/token/ERC721/extensions/ERC721Enumerable.sol\":5669:5710  delete _ownedTokens[from][lastTokenIndex] */\n      sstore\n        /* \"lib/openzeppelin-contracts/contracts/token/ERC721/extensions/ERC721Enumerable.sol\":4741:5718  function _removeTokenFromOwnerEnumeration(address from, uint256 tokenId) private {... */\n      jump\t// out\n        /* \"lib/openzeppelin-contracts/contracts/token/ERC721/extensions/ERC721Enumerable.sol\":6013:7092  function _removeTokenFromAllTokensEnumeration(uint256 tokenId) private {... */\n    tag_293:\n        /* \"lib/openzeppelin-contracts/contracts/token/ERC721/extensions/ERC721Enumerable.sol\":6291:6301  _allTokens */\n      0x08\n        /* \"lib/openzeppelin-contracts/contracts/token/ERC721/extensions/ERC721Enumerable.sol\":6291:6308  _allTokens.length */\n      sload\n        /* \"lib/openzeppelin-contracts/contracts/token/ERC721/extensions/ERC721Enumerable.sol\":6266:6288  uint256 lastTokenIndex */\n      0x00\n      swap1\n        /* \"lib/openzeppelin-contracts/contracts/token/ERC721/extensions/ERC721Enumerable.sol\":6291:6312  _allTokens.length - 1 */\n      tag_330\n      swap1\n        /* \"lib/openzeppelin-contracts/contracts/token/ERC721/extensions/ERC721Enumerable.sol\":6311:6312  1 */\n      0x01\n      swap1\n        /* \"lib/openzeppelin-contracts/contracts/token/ERC721/extensions/ERC721Enumerable.sol\":6291:6312  _allTokens.length - 1 */\n      tag_331\n      jump\t// in\n    tag_330:\n        /* \"lib/openzeppelin-contracts/contracts/token/ERC721/extensions/ERC721Enumerable.sol\":6323:6341  uint256 tokenIndex */\n      0x00\n        /* \"lib/openzeppelin-contracts/contracts/token/ERC721/extensions/ERC721Enumerable.sol\":6344:6368  _allTokensIndex[tokenId] */\n      dup4\n      dup2\n      mstore\n        /* \"lib/openzeppelin-contracts/contracts/token/ERC721/extensions/ERC721Enumerable.sol\":6344:6359  _allTokensIndex */\n      0x09\n        /* \"lib/openzeppelin-contracts/contracts/token/ERC721/extensions/ERC721Enumerable.sol\":6344:6368  _allTokensIndex[tokenId] */\n      0x20\n      mstore\n      0x40\n      dup2\n      keccak256\n      sload\n        /* \"lib/openzeppelin-contracts/contracts/token/ERC721/extensions/ERC721Enumerable.sol\":6717:6727  _allTokens */\n      0x08\n        /* \"lib/openzeppelin-contracts/contracts/token/ERC721/extensions/ERC721Enumerable.sol\":6717:6743  _allTokens[lastTokenIndex] */\n      dup1\n      sload\n        /* \"lib/openzeppelin-contracts/contracts/token/ERC721/extensions/ERC721Enumerable.sol\":6266:6312  uint256 lastTokenIndex = _allTokens.length - 1 */\n      swap4\n      swap5\n      pop\n        /* \"lib/openzeppelin-contracts/contracts/token/ERC721/extensions/ERC721Enumerable.sol\":6344:6368  _allTokensIndex[tokenId] */\n      swap1\n      swap3\n        /* \"lib/openzeppelin-contracts/contracts/token/ERC721/extensions/ERC721Enumerable.sol\":6266:6312  uint256 lastTokenIndex = _allTokens.length - 1 */\n      dup5\n      swap1\n        /* \"lib/openzeppelin-contracts/contracts/token/ERC721/extensions/ERC721Enumerable.sol\":6717:6743  _allTokens[lastTokenIndex] */\n      dup2\n      lt\n      tag_333\n      jumpi\n      tag_333\n      tag_149\n      jump\t// in\n    tag_333:\n      swap1\n      0x00\n      mstore\n      keccak256(0x00, 0x20)\n      add\n      sload\n        /* \"lib/openzeppelin-contracts/contracts/token/ERC721/extensions/ERC721Enumerable.sol\":6695:6743  uint256 lastTokenId = _allTokens[lastTokenIndex] */\n      swap1\n      pop\n        /* \"lib/openzeppelin-contracts/contracts/token/ERC721/extensions/ERC721Enumerable.sol\":6781:6792  lastTokenId */\n      dup1\n        /* \"lib/openzeppelin-contracts/contracts/token/ERC721/extensions/ERC721Enumerable.sol\":6756:6766  _allTokens */\n      0x08\n        /* \"lib/openzeppelin-contracts/contracts/token/ERC721/extensions/ERC721Enumerable.sol\":6767:6777  tokenIndex */\n      dup4\n        /* \"lib/openzeppelin-contracts/contracts/token/ERC721/extensions/ERC721Enumerable.sol\":6756:6778  _allTokens[tokenIndex] */\n      dup2\n      sload\n      dup2\n      lt\n      tag_336\n      jumpi\n      tag_336\n      tag_149\n      jump\t// in\n    tag_336:\n      0x00\n      swap2\n      dup3\n      mstore\n      0x20\n      dup1\n      dup4\n      keccak256\n      swap1\n      swap2\n      add\n        /* \"lib/openzeppelin-contracts/contracts/token/ERC721/extensions/ERC721Enumerable.sol\":6756:6792  _allTokens[tokenIndex] = lastTokenId */\n      swap3\n      swap1\n      swap3\n      sstore\n        /* \"lib/openzeppelin-contracts/contracts/token/ERC721/extensions/ERC721Enumerable.sol\":6861:6889  _allTokensIndex[lastTokenId] */\n      dup3\n      dup2\n      mstore\n        /* \"lib/openzeppelin-contracts/contracts/token/ERC721/extensions/ERC721Enumerable.sol\":6861:6876  _allTokensIndex */\n      0x09\n        /* \"lib/openzeppelin-contracts/contracts/token/ERC721/extensions/ERC721Enumerable.sol\":6861:6889  _allTokensIndex[lastTokenId] */\n      swap1\n      swap2\n      mstore\n      0x40\n      dup1\n      dup3\n      keccak256\n        /* \"lib/openzeppelin-contracts/contracts/token/ERC721/extensions/ERC721Enumerable.sol\":6861:6902  _allTokensIndex[lastTokenId] = tokenIndex */\n      dup5\n      swap1\n      sstore\n        /* \"lib/openzeppelin-contracts/contracts/token/ERC721/extensions/ERC721Enumerable.sol\":7033:7057  _allTokensIndex[tokenId] */\n      dup6\n      dup3\n      mstore\n      dup2\n      keccak256\n        /* \"lib/openzeppelin-contracts/contracts/token/ERC721/extensions/ERC721Enumerable.sol\":7026:7057  delete _allTokensIndex[tokenId] */\n      sstore\n        /* \"lib/openzeppelin-contracts/contracts/token/ERC721/extensions/ERC721Enumerable.sol\":7068:7078  _allTokens */\n      0x08\n        /* \"lib/openzeppelin-contracts/contracts/token/ERC721/extensions/ERC721Enumerable.sol\":7068:7084  _allTokens.pop() */\n      dup1\n      sload\n      dup1\n      tag_339\n      jumpi\n      tag_339\n      tag_340\n      jump\t// in\n    tag_339:\n      0x01\n      swap1\n      sub\n      dup2\n      dup2\n      swap1\n      0x00\n      mstore\n      keccak256(0x00, 0x20)\n      add\n      0x00\n      swap1\n      sstore\n      swap1\n      sstore\n        /* \"lib/openzeppelin-contracts/contracts/token/ERC721/extensions/ERC721Enumerable.sol\":6084:7092  {... */\n      pop\n      pop\n      pop\n        /* \"lib/openzeppelin-contracts/contracts/token/ERC721/extensions/ERC721Enumerable.sol\":6013:7092  function _removeTokenFromAllTokensEnumeration(uint256 tokenId) private {... */\n      pop\n      jump\t// out\n        /* \"lib/openzeppelin-contracts/contracts/token/ERC721/extensions/ERC721Enumerable.sol\":3531:3749  function _addTokenToOwnerEnumeration(address to, uint256 tokenId) private {... */\n    tag_297:\n        /* \"lib/openzeppelin-contracts/contracts/token/ERC721/extensions/ERC721Enumerable.sol\":3616:3630  uint256 length */\n      0x00\n        /* \"lib/openzeppelin-contracts/contracts/token/ERC721/extensions/ERC721Enumerable.sol\":3649:3650  1 */\n      0x01\n        /* \"lib/openzeppelin-contracts/contracts/token/ERC721/extensions/ERC721Enumerable.sol\":3633:3646  balanceOf(to) */\n      tag_343\n        /* \"lib/openzeppelin-contracts/contracts/token/ERC721/extensions/ERC721Enumerable.sol\":3643:3645  to */\n      dup5\n        /* \"lib/openzeppelin-contracts/contracts/token/ERC721/extensions/ERC721Enumerable.sol\":3633:3642  balanceOf */\n      tag_72\n        /* \"lib/openzeppelin-contracts/contracts/token/ERC721/extensions/ERC721Enumerable.sol\":3633:3646  balanceOf(to) */\n      jump\t// in\n    tag_343:\n        /* \"lib/openzeppelin-contracts/contracts/token/ERC721/extensions/ERC721Enumerable.sol\":3633:3650  balanceOf(to) - 1 */\n      tag_344\n      swap2\n      swap1\n      tag_331\n      jump\t// in\n    tag_344:\n      sub(shl(0xa0, 0x01), 0x01)\n        /* \"lib/openzeppelin-contracts/contracts/token/ERC721/extensions/ERC721Enumerable.sol\":3661:3677  _ownedTokens[to] */\n      swap1\n      swap4\n      and\n      0x00\n      swap1\n      dup2\n      mstore\n        /* \"lib/openzeppelin-contracts/contracts/token/ERC721/extensions/ERC721Enumerable.sol\":3661:3673  _ownedTokens */\n      0x06\n        /* \"lib/openzeppelin-contracts/contracts/token/ERC721/extensions/ERC721Enumerable.sol\":3661:3677  _ownedTokens[to] */\n      0x20\n      swap1\n      dup2\n      mstore\n      0x40\n      dup1\n      dup4\n      keccak256\n        /* \"lib/openzeppelin-contracts/contracts/token/ERC721/extensions/ERC721Enumerable.sol\":3661:3685  _ownedTokens[to][length] */\n      dup7\n      dup5\n      mstore\n      dup3\n      mstore\n      dup1\n      dup4\n      keccak256\n        /* \"lib/openzeppelin-contracts/contracts/token/ERC721/extensions/ERC721Enumerable.sol\":3661:3695  _ownedTokens[to][length] = tokenId */\n      dup6\n      swap1\n      sstore\n        /* \"lib/openzeppelin-contracts/contracts/token/ERC721/extensions/ERC721Enumerable.sol\":3706:3732  _ownedTokensIndex[tokenId] */\n      swap4\n      dup3\n      mstore\n        /* \"lib/openzeppelin-contracts/contracts/token/ERC721/extensions/ERC721Enumerable.sol\":3706:3723  _ownedTokensIndex */\n      0x07\n        /* \"lib/openzeppelin-contracts/contracts/token/ERC721/extensions/ERC721Enumerable.sol\":3706:3732  _ownedTokensIndex[tokenId] */\n      swap1\n      mstore\n      swap2\n      swap1\n      swap2\n      keccak256\n        /* \"lib/openzeppelin-contracts/contracts/token/ERC721/extensions/ERC721Enumerable.sol\":3706:3741  _ownedTokensIndex[tokenId] = length */\n      swap2\n      swap1\n      swap2\n      sstore\n      pop\n        /* \"lib/openzeppelin-contracts/contracts/token/ERC721/extensions/ERC721Enumerable.sol\":3531:3749  function _addTokenToOwnerEnumeration(address to, uint256 tokenId) private {... */\n      jump\t// out\n        /* \"lib/openzeppelin-contracts/contracts/utils/Strings.sol\":660:1378  function toString(uint256 value) internal pure returns (string memory) {... */\n    tag_305:\n        /* \"lib/openzeppelin-contracts/contracts/utils/Strings.sol\":716:729  string memory */\n      0x60\n        /* \"lib/openzeppelin-contracts/contracts/utils/Strings.sol\":767:781  uint256 length */\n      0x00\n        /* \"lib/openzeppelin-contracts/contracts/utils/Strings.sol\":784:801  Math.log10(value) */\n      tag_346\n        /* \"lib/openzeppelin-contracts/contracts/utils/Strings.sol\":795:800  value */\n      dup4\n        /* \"lib/openzeppelin-contracts/contracts/utils/Strings.sol\":784:794  Math.log10 */\n      tag_347\n        /* \"lib/openzeppelin-contracts/contracts/utils/Strings.sol\":784:801  Math.log10(value) */\n      jump\t// in\n    tag_346:\n        /* \"lib/openzeppelin-contracts/contracts/utils/Strings.sol\":804:805  1 */\n      0x01\n        /* \"lib/openzeppelin-contracts/contracts/utils/Strings.sol\":784:805  Math.log10(value) + 1 */\n      add\n        /* \"lib/openzeppelin-contracts/contracts/utils/Strings.sol\":767:805  uint256 length = Math.log10(value) + 1 */\n      swap1\n      pop\n        /* \"lib/openzeppelin-contracts/contracts/utils/Strings.sol\":820:840  string memory buffer */\n      0x00\n        /* \"lib/openzeppelin-contracts/contracts/utils/Strings.sol\":854:860  length */\n      dup2\n        /* \"lib/openzeppelin-contracts/contracts/utils/Strings.sol\":843:861  new string(length) */\n      0xffffffffffffffff\n      dup2\n      gt\n      iszero\n      tag_349\n      jumpi\n      tag_349\n      tag_350\n      jump\t// in\n    tag_349:\n      mload(0x40)\n      swap1\n      dup1\n      dup3\n      mstore\n      dup1\n      0x1f\n      add\n      not(0x1f)\n      and\n      0x20\n      add\n      dup3\n      add\n      0x40\n      mstore\n      dup1\n      iszero\n      tag_351\n      jumpi\n      0x20\n      dup3\n      add\n      dup2\n      dup1\n      calldatasize\n      dup4\n      calldatacopy\n      add\n      swap1\n      pop\n    tag_351:\n      pop\n        /* \"lib/openzeppelin-contracts/contracts/utils/Strings.sol\":820:861  string memory buffer = new string(length) */\n      swap1\n      pop\n        /* \"lib/openzeppelin-contracts/contracts/utils/Strings.sol\":985:1013  add(buffer, add(32, length)) */\n      dup2\n      dup2\n      add\n        /* \"lib/openzeppelin-contracts/contracts/utils/Strings.sol\":1001:1003  32 */\n      0x20\n        /* \"lib/openzeppelin-contracts/contracts/utils/Strings.sol\":985:1013  add(buffer, add(32, length)) */\n      add\n        /* \"lib/openzeppelin-contracts/contracts/utils/Strings.sol\":1042:1332  while (true) {... */\n    tag_352:\n      not(0x00)\n        /* \"lib/openzeppelin-contracts/contracts/utils/Strings.sol\":1074:1079  ptr-- */\n      add\n      shl(0x81, 0x181899199a1a9b1b9c1cb0b131b232b3)\n        /* \"lib/openzeppelin-contracts/contracts/utils/Strings.sol\":1211:1213  10 */\n      0x0a\n        /* \"lib/openzeppelin-contracts/contracts/utils/Strings.sol\":1200:1214  mod(value, 10) */\n      dup7\n      mod\n        /* \"lib/openzeppelin-contracts/contracts/utils/Strings.sol\":1195:1227  byte(mod(value, 10), HEX_DIGITS) */\n      byte\n        /* \"lib/openzeppelin-contracts/contracts/utils/Strings.sol\":1074:1079  ptr-- */\n      dup2\n        /* \"lib/openzeppelin-contracts/contracts/utils/Strings.sol\":1182:1228  mstore8(ptr, byte(mod(value, 10), HEX_DIGITS)) */\n      mstore8\n        /* \"lib/openzeppelin-contracts/contracts/utils/Strings.sol\":1274:1276  10 */\n      0x0a\n        /* \"lib/openzeppelin-contracts/contracts/utils/Strings.sol\":1265:1276  value /= 10 */\n      dup6\n      div\n      swap5\n      pop\n        /* \"lib/openzeppelin-contracts/contracts/utils/Strings.sol\":1295:1316  if (value == 0) break */\n      dup5\n        /* \"lib/openzeppelin-contracts/contracts/utils/Strings.sol\":1042:1332  while (true) {... */\n      tag_352\n        /* \"lib/openzeppelin-contracts/contracts/utils/Strings.sol\":1295:1316  if (value == 0) break */\n      jumpi\n      pop\n        /* \"lib/openzeppelin-contracts/contracts/utils/Strings.sol\":1353:1359  buffer */\n      swap4\n        /* \"lib/openzeppelin-contracts/contracts/utils/Strings.sol\":660:1378  function toString(uint256 value) internal pure returns (string memory) {... */\n      swap3\n      pop\n      pop\n      pop\n      jump\t// out\n        /* \"lib/openzeppelin-contracts/contracts/token/ERC721/ERC721.sol\":10238:10573  function _mint(address to, uint256 tokenId) internal {... */\n    tag_309:\n      sub(shl(0xa0, 0x01), 0x01)\n        /* \"lib/openzeppelin-contracts/contracts/token/ERC721/ERC721.sol\":10306:10322  to == address(0) */\n      dup3\n      and\n        /* \"lib/openzeppelin-contracts/contracts/token/ERC721/ERC721.sol\":10302:10391  if (to == address(0)) {... */\n      tag_359\n      jumpi\n        /* \"lib/openzeppelin-contracts/contracts/token/ERC721/ERC721.sol\":10346:10379  ERC721InvalidReceiver(address(0)) */\n      mload(0x40)\n      shl(0xe1, 0x32505749)\n      dup2\n      mstore\n        /* \"lib/openzeppelin-contracts/contracts/token/ERC721/ERC721.sol\":10376:10377  0 */\n      0x00\n        /* \"lib/openzeppelin-contracts/contracts/token/ERC721/ERC721.sol\":10346:10379  ERC721InvalidReceiver(address(0)) */\n      0x04\n      dup3\n      add\n        /* \"#utility.yul\":1679:1730   */\n      mstore\n        /* \"#utility.yul\":1652:1670   */\n      0x24\n      add\n        /* \"lib/openzeppelin-contracts/contracts/token/ERC721/ERC721.sol\":10346:10379  ERC721InvalidReceiver(address(0)) */\n      tag_129\n        /* \"#utility.yul\":1533:1736   */\n      jump\n        /* \"lib/openzeppelin-contracts/contracts/token/ERC721/ERC721.sol\":10302:10391  if (to == address(0)) {... */\n    tag_359:\n        /* \"lib/openzeppelin-contracts/contracts/token/ERC721/ERC721.sol\":10401:10422  address previousOwner */\n      0x00\n        /* \"lib/openzeppelin-contracts/contracts/token/ERC721/ERC721.sol\":10425:10457  _update(to, tokenId, address(0)) */\n      tag_361\n        /* \"lib/openzeppelin-contracts/contracts/token/ERC721/ERC721.sol\":10433:10435  to */\n      dup4\n        /* \"lib/openzeppelin-contracts/contracts/token/ERC721/ERC721.sol\":10437:10444  tokenId */\n      dup4\n        /* \"lib/openzeppelin-contracts/contracts/token/ERC721/ERC721.sol\":10454:10455  0 */\n      0x00\n        /* \"lib/openzeppelin-contracts/contracts/token/ERC721/ERC721.sol\":10425:10432  _update */\n      tag_132\n        /* \"lib/openzeppelin-contracts/contracts/token/ERC721/ERC721.sol\":10425:10457  _update(to, tokenId, address(0)) */\n      jump\t// in\n    tag_361:\n        /* \"lib/openzeppelin-contracts/contracts/token/ERC721/ERC721.sol\":10401:10457  address previousOwner = _update(to, tokenId, address(0)) */\n      swap1\n      pop\n      sub(shl(0xa0, 0x01), 0x01)\n        /* \"lib/openzeppelin-contracts/contracts/token/ERC721/ERC721.sol\":10472:10499  previousOwner != address(0) */\n      dup2\n      and\n      iszero\n        /* \"lib/openzeppelin-contracts/contracts/token/ERC721/ERC721.sol\":10468:10566  if (previousOwner != address(0)) {... */\n      tag_142\n      jumpi\n        /* \"lib/openzeppelin-contracts/contracts/token/ERC721/ERC721.sol\":10523:10554  ERC721InvalidSender(address(0)) */\n      mload(0x40)\n      shl(0xe1, 0x39e35637)\n      dup2\n      mstore\n        /* \"lib/openzeppelin-contracts/contracts/token/ERC721/ERC721.sol\":10551:10552  0 */\n      0x00\n        /* \"lib/openzeppelin-contracts/contracts/token/ERC721/ERC721.sol\":10523:10554  ERC721InvalidSender(address(0)) */\n      0x04\n      dup3\n      add\n        /* \"#utility.yul\":1679:1730   */\n      mstore\n        /* \"#utility.yul\":1652:1670   */\n      0x24\n      add\n        /* \"lib/openzeppelin-contracts/contracts/token/ERC721/ERC721.sol\":10523:10554  ERC721InvalidSender(address(0)) */\n      tag_129\n        /* \"#utility.yul\":1533:1736   */\n      jump\n        /* \"lib/openzeppelin-contracts/contracts/token/ERC721/ERC721.sol\":7285:7661  function _checkAuthorized(address owner, address spender, uint256 tokenId) internal view virtual {... */\n    tag_320:\n        /* \"lib/openzeppelin-contracts/contracts/token/ERC721/ERC721.sol\":7398:7436  _isAuthorized(owner, spender, tokenId) */\n      tag_366\n        /* \"lib/openzeppelin-contracts/contracts/token/ERC721/ERC721.sol\":7412:7417  owner */\n      dup4\n        /* \"lib/openzeppelin-contracts/contracts/token/ERC721/ERC721.sol\":7419:7426  spender */\n      dup4\n        /* \"lib/openzeppelin-contracts/contracts/token/ERC721/ERC721.sol\":7428:7435  tokenId */\n      dup4\n        /* \"lib/openzeppelin-contracts/contracts/token/ERC721/ERC721.sol\":7398:7411  _isAuthorized */\n      tag_367\n        /* \"lib/openzeppelin-contracts/contracts/token/ERC721/ERC721.sol\":7398:7436  _isAuthorized(owner, spender, tokenId) */\n      jump\t// in\n    tag_366:\n        /* \"lib/openzeppelin-contracts/contracts/token/ERC721/ERC721.sol\":7393:7654  if (!_isAuthorized(owner, spender, tokenId)) {... */\n      tag_142\n      jumpi\n      sub(shl(0xa0, 0x01), 0x01)\n        /* \"lib/openzeppelin-contracts/contracts/token/ERC721/ERC721.sol\":7457:7476  owner == address(0) */\n      dup4\n      and\n        /* \"lib/openzeppelin-contracts/contracts/token/ERC721/ERC721.sol\":7453:7643  if (owner == address(0)) {... */\n      tag_369\n      jumpi\n        /* \"lib/openzeppelin-contracts/contracts/token/ERC721/ERC721.sol\":7504:7535  ERC721NonexistentToken(tokenId) */\n      mload(0x40)\n      shl(0xe0, 0x7e273289)\n      dup2\n      mstore\n      0x04\n      dup2\n      add\n        /* \"#utility.yul\":2324:2349   */\n      dup3\n      swap1\n      mstore\n        /* \"#utility.yul\":2297:2315   */\n      0x24\n      add\n        /* \"lib/openzeppelin-contracts/contracts/token/ERC721/ERC721.sol\":7504:7535  ERC721NonexistentToken(tokenId) */\n      tag_129\n        /* \"#utility.yul\":2178:2355   */\n      jump\n        /* \"lib/openzeppelin-contracts/contracts/token/ERC721/ERC721.sol\":7453:7643  if (owner == address(0)) {... */\n    tag_369:\n        /* \"lib/openzeppelin-contracts/contracts/token/ERC721/ERC721.sol\":7583:7627  ERC721InsufficientApproval(spender, tokenId) */\n      mload(0x40)\n      shl(0xe0, 0x177e802f)\n      dup2\n      mstore\n      sub(shl(0xa0, 0x01), 0x01)\n        /* \"#utility.yul\":6426:6458   */\n      dup4\n      and\n        /* \"lib/openzeppelin-contracts/contracts/token/ERC721/ERC721.sol\":7583:7627  ERC721InsufficientApproval(spender, tokenId) */\n      0x04\n      dup3\n      add\n        /* \"#utility.yul\":6408:6459   */\n      mstore\n        /* \"#utility.yul\":6475:6493   */\n      0x24\n      dup2\n      add\n        /* \"#utility.yul\":6468:6502   */\n      dup3\n      swap1\n      mstore\n        /* \"#utility.yul\":6381:6399   */\n      0x44\n      add\n        /* \"lib/openzeppelin-contracts/contracts/token/ERC721/ERC721.sol\":7583:7627  ERC721InsufficientApproval(spender, tokenId) */\n      tag_129\n        /* \"#utility.yul\":6234:6508   */\n      jump\n        /* \"lib/openzeppelin-contracts/contracts/utils/math/Math.sol\":12534:13482  function log10(uint256 value) internal pure returns (uint256) {... */\n    tag_347:\n        /* \"lib/openzeppelin-contracts/contracts/utils/math/Math.sol\":12587:12594  uint256 */\n      0x00\n      dup1\n      shl(0x40, 0x184f03e93ff9f4daa797ed6e38ed64bf6a1f01)\n        /* \"lib/openzeppelin-contracts/contracts/utils/math/Math.sol\":12665:12682  value >= 10 ** 64 */\n      dup4\n      lt\n        /* \"lib/openzeppelin-contracts/contracts/utils/math/Math.sol\":12661:12767  if (value >= 10 ** 64) {... */\n      tag_374\n      jumpi\n      shl(0x40, 0x184f03e93ff9f4daa797ed6e38ed64bf6a1f01)\n        /* \"lib/openzeppelin-contracts/contracts/utils/math/Math.sol\":12703:12720  value /= 10 ** 64 */\n      dup4\n      div\n      swap3\n      pop\n        /* \"lib/openzeppelin-contracts/contracts/utils/math/Math.sol\":12749:12751  64 */\n      0x40\n        /* \"lib/openzeppelin-contracts/contracts/utils/math/Math.sol\":12739:12751  result += 64 */\n      add\n        /* \"lib/openzeppelin-contracts/contracts/utils/math/Math.sol\":12661:12767  if (value >= 10 ** 64) {... */\n    tag_374:\n        /* \"lib/openzeppelin-contracts/contracts/utils/math/Math.sol\":12794:12802  10 ** 32 */\n      0x04ee2d6d415b85acef8100000000\n        /* \"lib/openzeppelin-contracts/contracts/utils/math/Math.sol\":12785:12790  value */\n      dup4\n        /* \"lib/openzeppelin-contracts/contracts/utils/math/Math.sol\":12785:12802  value >= 10 ** 32 */\n      lt\n        /* \"lib/openzeppelin-contracts/contracts/utils/math/Math.sol\":12781:12887  if (value >= 10 ** 32) {... */\n      tag_377\n      jumpi\n        /* \"lib/openzeppelin-contracts/contracts/utils/math/Math.sol\":12832:12840  10 ** 32 */\n      0x04ee2d6d415b85acef8100000000\n        /* \"lib/openzeppelin-contracts/contracts/utils/math/Math.sol\":12823:12840  value /= 10 ** 32 */\n      dup4\n      div\n      swap3\n      pop\n        /* \"lib/openzeppelin-contracts/contracts/utils/math/Math.sol\":12869:12871  32 */\n      0x20\n        /* \"lib/openzeppelin-contracts/contracts/utils/math/Math.sol\":12859:12871  result += 32 */\n      add\n        /* \"lib/openzeppelin-contracts/contracts/utils/math/Math.sol\":12781:12887  if (value >= 10 ** 32) {... */\n    tag_377:\n        /* \"lib/openzeppelin-contracts/contracts/utils/math/Math.sol\":12914:12922  10 ** 16 */\n      0x2386f26fc10000\n        /* \"lib/openzeppelin-contracts/contracts/utils/math/Math.sol\":12905:12910  value */\n      dup4\n        /* \"lib/openzeppelin-contracts/contracts/utils/math/Math.sol\":12905:12922  value >= 10 ** 16 */\n      lt\n        /* \"lib/openzeppelin-contracts/contracts/utils/math/Math.sol\":12901:13007  if (value >= 10 ** 16) {... */\n      tag_380\n      jumpi\n        /* \"lib/openzeppelin-contracts/contracts/utils/math/Math.sol\":12952:12960  10 ** 16 */\n      0x2386f26fc10000\n        /* \"lib/openzeppelin-contracts/contracts/utils/math/Math.sol\":12943:12960  value /= 10 ** 16 */\n      dup4\n      div\n      swap3\n      pop\n        /* \"lib/openzeppelin-contracts/contracts/utils/math/Math.sol\":12989:12991  16 */\n      0x10\n        /* \"lib/openzeppelin-contracts/contracts/utils/math/Math.sol\":12979:12991  result += 16 */\n      add\n        /* \"lib/openzeppelin-contracts/contracts/utils/math/Math.sol\":12901:13007  if (value >= 10 ** 16) {... */\n    tag_380:\n        /* \"lib/openzeppelin-contracts/contracts/utils/math/Math.sol\":13034:13041  10 ** 8 */\n      0x05f5e100\n        /* \"lib/openzeppelin-contracts/contracts/utils/math/Math.sol\":13025:13030  value */\n      dup4\n        /* \"lib/openzeppelin-contracts/contracts/utils/math/Math.sol\":13025:13041  value >= 10 ** 8 */\n      lt\n        /* \"lib/openzeppelin-contracts/contracts/utils/math/Math.sol\":13021:13124  if (value >= 10 ** 8) {... */\n      tag_383\n      jumpi\n        /* \"lib/openzeppelin-contracts/contracts/utils/math/Math.sol\":13071:13078  10 ** 8 */\n      0x05f5e100\n        /* \"lib/openzeppelin-contracts/contracts/utils/math/Math.sol\":13062:13078  value /= 10 ** 8 */\n      dup4\n      div\n      swap3\n      pop\n        /* \"lib/openzeppelin-contracts/contracts/utils/math/Math.sol\":13107:13108  8 */\n      0x08\n        /* \"lib/openzeppelin-contracts/contracts/utils/math/Math.sol\":13097:13108  result += 8 */\n      add\n        /* \"lib/openzeppelin-contracts/contracts/utils/math/Math.sol\":13021:13124  if (value >= 10 ** 8) {... */\n    tag_383:\n        /* \"lib/openzeppelin-contracts/contracts/utils/math/Math.sol\":13151:13158  10 ** 4 */\n      0x2710\n        /* \"lib/openzeppelin-contracts/contracts/utils/math/Math.sol\":13142:13147  value */\n      dup4\n        /* \"lib/openzeppelin-contracts/contracts/utils/math/Math.sol\":13142:13158  value >= 10 ** 4 */\n      lt\n        /* \"lib/openzeppelin-contracts/contracts/utils/math/Math.sol\":13138:13241  if (value >= 10 ** 4) {... */\n      tag_386\n      jumpi\n        /* \"lib/openzeppelin-contracts/contracts/utils/math/Math.sol\":13188:13195  10 ** 4 */\n      0x2710\n        /* \"lib/openzeppelin-contracts/contracts/utils/math/Math.sol\":13179:13195  value /= 10 ** 4 */\n      dup4\n      div\n      swap3\n      pop\n        /* \"lib/openzeppelin-contracts/contracts/utils/math/Math.sol\":13224:13225  4 */\n      0x04\n        /* \"lib/openzeppelin-contracts/contracts/utils/math/Math.sol\":13214:13225  result += 4 */\n      add\n        /* \"lib/openzeppelin-contracts/contracts/utils/math/Math.sol\":13138:13241  if (value >= 10 ** 4) {... */\n    tag_386:\n        /* \"lib/openzeppelin-contracts/contracts/utils/math/Math.sol\":13268:13275  10 ** 2 */\n      0x64\n        /* \"lib/openzeppelin-contracts/contracts/utils/math/Math.sol\":13259:13264  value */\n      dup4\n        /* \"lib/openzeppelin-contracts/contracts/utils/math/Math.sol\":13259:13275  value >= 10 ** 2 */\n      lt\n        /* \"lib/openzeppelin-contracts/contracts/utils/math/Math.sol\":13255:13358  if (value >= 10 ** 2) {... */\n      tag_389\n      jumpi\n        /* \"lib/openzeppelin-contracts/contracts/utils/math/Math.sol\":13305:13312  10 ** 2 */\n      0x64\n        /* \"lib/openzeppelin-contracts/contracts/utils/math/Math.sol\":13296:13312  value /= 10 ** 2 */\n      dup4\n      div\n      swap3\n      pop\n        /* \"lib/openzeppelin-contracts/contracts/utils/math/Math.sol\":13341:13342  2 */\n      0x02\n        /* \"lib/openzeppelin-contracts/contracts/utils/math/Math.sol\":13331:13342  result += 2 */\n      add\n        /* \"lib/openzeppelin-contracts/contracts/utils/math/Math.sol\":13255:13358  if (value >= 10 ** 2) {... */\n    tag_389:\n        /* \"lib/openzeppelin-contracts/contracts/utils/math/Math.sol\":13385:13392  10 ** 1 */\n      0x0a\n        /* \"lib/openzeppelin-contracts/contracts/utils/math/Math.sol\":13376:13381  value */\n      dup4\n        /* \"lib/openzeppelin-contracts/contracts/utils/math/Math.sol\":13376:13392  value >= 10 ** 1 */\n      lt\n        /* \"lib/openzeppelin-contracts/contracts/utils/math/Math.sol\":13372:13440  if (value >= 10 ** 1) {... */\n      tag_107\n      jumpi\n        /* \"lib/openzeppelin-contracts/contracts/utils/math/Math.sol\":13423:13424  1 */\n      0x01\n        /* \"lib/openzeppelin-contracts/contracts/utils/math/Math.sol\":13413:13424  result += 1 */\n      add\n        /* \"lib/openzeppelin-contracts/contracts/utils/math/Math.sol\":13468:13474  result */\n      swap3\n        /* \"lib/openzeppelin-contracts/contracts/utils/math/Math.sol\":12534:13482  function log10(uint256 value) internal pure returns (uint256) {... */\n      swap2\n      pop\n      pop\n      jump\t// out\n        /* \"lib/openzeppelin-contracts/contracts/token/ERC721/ERC721.sol\":6565:6841  function _isAuthorized(address owner, address spender, uint256 tokenId) internal view virtual returns (bool) {... */\n    tag_367:\n        /* \"lib/openzeppelin-contracts/contracts/token/ERC721/ERC721.sol\":6668:6672  bool */\n      0x00\n      sub(shl(0xa0, 0x01), 0x01)\n        /* \"lib/openzeppelin-contracts/contracts/token/ERC721/ERC721.sol\":6705:6726  spender != address(0) */\n      dup4\n      and\n      iszero\n      dup1\n      iszero\n      swap1\n        /* \"lib/openzeppelin-contracts/contracts/token/ERC721/ERC721.sol\":6705:6833  spender != address(0) &&... */\n      tag_211\n      jumpi\n      pop\n        /* \"lib/openzeppelin-contracts/contracts/token/ERC721/ERC721.sol\":6753:6760  spender */\n      dup3\n      sub(shl(0xa0, 0x01), 0x01)\n        /* \"lib/openzeppelin-contracts/contracts/token/ERC721/ERC721.sol\":6744:6760  owner == spender */\n      and\n        /* \"lib/openzeppelin-contracts/contracts/token/ERC721/ERC721.sol\":6744:6749  owner */\n      dup5\n      sub(shl(0xa0, 0x01), 0x01)\n        /* \"lib/openzeppelin-contracts/contracts/token/ERC721/ERC721.sol\":6744:6760  owner == spender */\n      and\n      eq\n        /* \"lib/openzeppelin-contracts/contracts/token/ERC721/ERC721.sol\":6744:6796  owner == spender || isApprovedForAll(owner, spender) */\n      dup1\n      tag_396\n      jumpi\n      pop\n        /* \"lib/openzeppelin-contracts/contracts/token/ERC721/ERC721.sol\":6764:6796  isApprovedForAll(owner, spender) */\n      tag_396\n        /* \"lib/openzeppelin-contracts/contracts/token/ERC721/ERC721.sol\":6781:6786  owner */\n      dup5\n        /* \"lib/openzeppelin-contracts/contracts/token/ERC721/ERC721.sol\":6788:6795  spender */\n      dup5\n        /* \"lib/openzeppelin-contracts/contracts/token/ERC721/ERC721.sol\":6764:6780  isApprovedForAll */\n      tag_101\n        /* \"lib/openzeppelin-contracts/contracts/token/ERC721/ERC721.sol\":6764:6796  isApprovedForAll(owner, spender) */\n      jump\t// in\n    tag_396:\n        /* \"lib/openzeppelin-contracts/contracts/token/ERC721/ERC721.sol\":6744:6832  owner == spender || isApprovedForAll(owner, spender) || _getApproved(tokenId) == spender */\n      dup1\n      tag_211\n      jumpi\n      pop\n      pop\n        /* \"lib/openzeppelin-contracts/contracts/token/ERC721/ERC721.sol\":6186:6193  address */\n      0x00\n        /* \"lib/openzeppelin-contracts/contracts/token/ERC721/ERC721.sol\":6213:6237  _tokenApprovals[tokenId] */\n      swap1\n      dup2\n      mstore\n        /* \"lib/openzeppelin-contracts/contracts/token/ERC721/ERC721.sol\":6213:6228  _tokenApprovals */\n      0x04\n        /* \"lib/openzeppelin-contracts/contracts/token/ERC721/ERC721.sol\":6213:6237  _tokenApprovals[tokenId] */\n      0x20\n      mstore\n      0x40\n      swap1\n      keccak256\n      sload\n      sub(shl(0xa0, 0x01), 0x01)\n      swap1\n      dup2\n      and\n        /* \"lib/openzeppelin-contracts/contracts/token/ERC721/ERC721.sol\":6800:6832  _getApproved(tokenId) == spender */\n      swap2\n      and\n      eq\n      swap2\n      swap1\n      pop\n        /* \"lib/openzeppelin-contracts/contracts/token/ERC721/ERC721.sol\":6565:6841  function _isAuthorized(address owner, address spender, uint256 tokenId) internal view virtual returns (bool) {... */\n      jump\t// out\n        /* \"#utility.yul\":14:145   */\n    tag_399:\n      not(sub(shl(0xe0, 0x01), 0x01))\n        /* \"#utility.yul\":88:120   */\n      dup2\n      and\n        /* \"#utility.yul\":78:121   */\n      dup2\n      eq\n        /* \"#utility.yul\":68:139   */\n      tag_195\n      jumpi\n        /* \"#utility.yul\":135:136   */\n      0x00\n        /* \"#utility.yul\":132:133   */\n      dup1\n        /* \"#utility.yul\":125:137   */\n      revert\n        /* \"#utility.yul\":150:395   */\n    tag_28:\n        /* \"#utility.yul\":208:214   */\n      0x00\n        /* \"#utility.yul\":261:263   */\n      0x20\n        /* \"#utility.yul\":249:258   */\n      dup3\n        /* \"#utility.yul\":240:247   */\n      dup5\n        /* \"#utility.yul\":236:259   */\n      sub\n        /* \"#utility.yul\":232:264   */\n      slt\n        /* \"#utility.yul\":229:281   */\n      iszero\n      tag_412\n      jumpi\n        /* \"#utility.yul\":277:278   */\n      0x00\n        /* \"#utility.yul\":274:275   */\n      dup1\n        /* \"#utility.yul\":267:279   */\n      revert\n        /* \"#utility.yul\":229:281   */\n    tag_412:\n        /* \"#utility.yul\":316:325   */\n      dup2\n        /* \"#utility.yul\":303:326   */\n      calldataload\n        /* \"#utility.yul\":335:365   */\n      tag_303\n        /* \"#utility.yul\":359:364   */\n      dup2\n        /* \"#utility.yul\":335:365   */\n      tag_399\n      jump\t// in\n        /* \"#utility.yul\":592:842   */\n    tag_400:\n        /* \"#utility.yul\":677:678   */\n      0x00\n        /* \"#utility.yul\":687:800   */\n    tag_416:\n        /* \"#utility.yul\":701:707   */\n      dup4\n        /* \"#utility.yul\":698:699   */\n      dup2\n        /* \"#utility.yul\":695:708   */\n      lt\n        /* \"#utility.yul\":687:800   */\n      iszero\n      tag_418\n      jumpi\n        /* \"#utility.yul\":777:788   */\n      dup2\n      dup2\n      add\n        /* \"#utility.yul\":771:789   */\n      mload\n        /* \"#utility.yul\":758:769   */\n      dup4\n      dup3\n      add\n        /* \"#utility.yul\":751:790   */\n      mstore\n        /* \"#utility.yul\":723:725   */\n      0x20\n        /* \"#utility.yul\":716:726   */\n      add\n        /* \"#utility.yul\":687:800   */\n      jump(tag_416)\n    tag_418:\n      pop\n      pop\n        /* \"#utility.yul\":834:835   */\n      0x00\n        /* \"#utility.yul\":816:832   */\n      swap2\n      add\n        /* \"#utility.yul\":809:836   */\n      mstore\n        /* \"#utility.yul\":592:842   */\n      jump\t// out\n        /* \"#utility.yul\":847:1118   */\n    tag_401:\n        /* \"#utility.yul\":889:892   */\n      0x00\n        /* \"#utility.yul\":927:932   */\n      dup2\n        /* \"#utility.yul\":921:933   */\n      mload\n        /* \"#utility.yul\":954:960   */\n      dup1\n        /* \"#utility.yul\":949:952   */\n      dup5\n        /* \"#utility.yul\":942:961   */\n      mstore\n        /* \"#utility.yul\":970:1046   */\n      tag_420\n        /* \"#utility.yul\":1039:1045   */\n      dup2\n        /* \"#utility.yul\":1032:1036   */\n      0x20\n        /* \"#utility.yul\":1027:1030   */\n      dup7\n        /* \"#utility.yul\":1023:1037   */\n      add\n        /* \"#utility.yul\":1016:1020   */\n      0x20\n        /* \"#utility.yul\":1009:1014   */\n      dup7\n        /* \"#utility.yul\":1005:1021   */\n      add\n        /* \"#utility.yul\":970:1046   */\n      tag_400\n      jump\t// in\n    tag_420:\n        /* \"#utility.yul\":1100:1102   */\n      0x1f\n        /* \"#utility.yul\":1079:1094   */\n      add\n      not(0x1f)\n        /* \"#utility.yul\":1075:1104   */\n      and\n        /* \"#utility.yul\":1066:1105   */\n      swap3\n      swap1\n      swap3\n      add\n        /* \"#utility.yul\":1107:1111   */\n      0x20\n        /* \"#utility.yul\":1062:1112   */\n      add\n      swap3\n        /* \"#utility.yul\":847:1118   */\n      swap2\n      pop\n      pop\n      jump\t// out\n        /* \"#utility.yul\":1123:1343   */\n    tag_35:\n        /* \"#utility.yul\":1272:1274   */\n      0x20\n        /* \"#utility.yul\":1261:1270   */\n      dup2\n        /* \"#utility.yul\":1254:1275   */\n      mstore\n        /* \"#utility.yul\":1235:1239   */\n      0x00\n        /* \"#utility.yul\":1292:1337   */\n      tag_303\n        /* \"#utility.yul\":1333:1335   */\n      0x20\n        /* \"#utility.yul\":1322:1331   */\n      dup4\n        /* \"#utility.yul\":1318:1336   */\n      add\n        /* \"#utility.yul\":1310:1316   */\n      dup5\n        /* \"#utility.yul\":1292:1337   */\n      tag_401\n      jump\t// in\n        /* \"#utility.yul\":1348:1528   */\n    tag_38:\n        /* \"#utility.yul\":1407:1413   */\n      0x00\n        /* \"#utility.yul\":1460:1462   */\n      0x20\n        /* \"#utility.yul\":1448:1457   */\n      dup3\n        /* \"#utility.yul\":1439:1446   */\n      dup5\n        /* \"#utility.yul\":1435:1458   */\n      sub\n        /* \"#utility.yul\":1431:1463   */\n      slt\n        /* \"#utility.yul\":1428:1480   */\n      iszero\n      tag_424\n      jumpi\n        /* \"#utility.yul\":1476:1477   */\n      0x00\n        /* \"#utility.yul\":1473:1474   */\n      dup1\n        /* \"#utility.yul\":1466:1478   */\n      revert\n        /* \"#utility.yul\":1428:1480   */\n    tag_424:\n      pop\n        /* \"#utility.yul\":1499:1522   */\n      calldataload\n      swap2\n        /* \"#utility.yul\":1348:1528   */\n      swap1\n      pop\n      jump\t// out\n        /* \"#utility.yul\":1741:1914   */\n    tag_402:\n        /* \"#utility.yul\":1809:1829   */\n      dup1\n      calldataload\n      sub(shl(0xa0, 0x01), 0x01)\n        /* \"#utility.yul\":1858:1889   */\n      dup2\n      and\n        /* \"#utility.yul\":1848:1890   */\n      dup2\n      eq\n        /* \"#utility.yul\":1838:1908   */\n      tag_427\n      jumpi\n        /* \"#utility.yul\":1904:1905   */\n      0x00\n        /* \"#utility.yul\":1901:1902   */\n      dup1\n        /* \"#utility.yul\":1894:1906   */\n      revert\n        /* \"#utility.yul\":1838:1908   */\n    tag_427:\n        /* \"#utility.yul\":1741:1914   */\n      swap2\n      swap1\n      pop\n      jump\t// out\n        /* \"#utility.yul\":1919:2173   */\n    tag_44:\n        /* \"#utility.yul\":1987:1993   */\n      0x00\n        /* \"#utility.yul\":1995:2001   */\n      dup1\n        /* \"#utility.yul\":2048:2050   */\n      0x40\n        /* \"#utility.yul\":2036:2045   */\n      dup4\n        /* \"#utility.yul\":2027:2034   */\n      dup6\n        /* \"#utility.yul\":2023:2046   */\n      sub\n        /* \"#utility.yul\":2019:2051   */\n      slt\n        /* \"#utility.yul\":2016:2068   */\n      iszero\n      tag_429\n      jumpi\n        /* \"#utility.yul\":2064:2065   */\n      0x00\n        /* \"#utility.yul\":2061:2062   */\n      dup1\n        /* \"#utility.yul\":2054:2066   */\n      revert\n        /* \"#utility.yul\":2016:2068   */\n    tag_429:\n        /* \"#utility.yul\":2087:2116   */\n      tag_430\n        /* \"#utility.yul\":2106:2115   */\n      dup4\n        /* \"#utility.yul\":2087:2116   */\n      tag_402\n      jump\t// in\n    tag_430:\n        /* \"#utility.yul\":2077:2116   */\n      swap5\n        /* \"#utility.yul\":2163:2165   */\n      0x20\n        /* \"#utility.yul\":2148:2166   */\n      swap4\n      swap1\n      swap4\n      add\n        /* \"#utility.yul\":2135:2167   */\n      calldataload\n      swap4\n      pop\n      pop\n      pop\n        /* \"#utility.yul\":1919:2173   */\n      jump\t// out\n        /* \"#utility.yul\":2360:2688   */\n    tag_52:\n        /* \"#utility.yul\":2437:2443   */\n      0x00\n        /* \"#utility.yul\":2445:2451   */\n      dup1\n        /* \"#utility.yul\":2453:2459   */\n      0x00\n        /* \"#utility.yul\":2506:2508   */\n      0x60\n        /* \"#utility.yul\":2494:2503   */\n      dup5\n        /* \"#utility.yul\":2485:2492   */\n      dup7\n        /* \"#utility.yul\":2481:2504   */\n      sub\n        /* \"#utility.yul\":2477:2509   */\n      slt\n        /* \"#utility.yul\":2474:2526   */\n      iszero\n      tag_433\n      jumpi\n        /* \"#utility.yul\":2522:2523   */\n      0x00\n        /* \"#utility.yul\":2519:2520   */\n      dup1\n        /* \"#utility.yul\":2512:2524   */\n      revert\n        /* \"#utility.yul\":2474:2526   */\n    tag_433:\n        /* \"#utility.yul\":2545:2574   */\n      tag_434\n        /* \"#utility.yul\":2564:2573   */\n      dup5\n        /* \"#utility.yul\":2545:2574   */\n      tag_402\n      jump\t// in\n    tag_434:\n        /* \"#utility.yul\":2535:2574   */\n      swap3\n      pop\n        /* \"#utility.yul\":2593:2631   */\n      tag_435\n        /* \"#utility.yul\":2627:2629   */\n      0x20\n        /* \"#utility.yul\":2616:2625   */\n      dup6\n        /* \"#utility.yul\":2612:2630   */\n      add\n        /* \"#utility.yul\":2593:2631   */\n      tag_402\n      jump\t// in\n    tag_435:\n        /* \"#utility.yul\":2583:2631   */\n      swap2\n      pop\n        /* \"#utility.yul\":2678:2680   */\n      0x40\n        /* \"#utility.yul\":2667:2676   */\n      dup5\n        /* \"#utility.yul\":2663:2681   */\n      add\n        /* \"#utility.yul\":2650:2682   */\n      calldataload\n        /* \"#utility.yul\":2640:2682   */\n      swap1\n      pop\n        /* \"#utility.yul\":2360:2688   */\n      swap3\n      pop\n      swap3\n      pop\n      swap3\n      jump\t// out\n        /* \"#utility.yul\":2693:2879   */\n    tag_71:\n        /* \"#utility.yul\":2752:2758   */\n      0x00\n        /* \"#utility.yul\":2805:2807   */\n      0x20\n        /* \"#utility.yul\":2793:2802   */\n      dup3\n        /* \"#utility.yul\":2784:2791   */\n      dup5\n        /* \"#utility.yul\":2780:2803   */\n      sub\n        /* \"#utility.yul\":2776:2808   */\n      slt\n        /* \"#utility.yul\":2773:2825   */\n      iszero\n      tag_437\n      jumpi\n        /* \"#utility.yul\":2821:2822   */\n      0x00\n        /* \"#utility.yul\":2818:2819   */\n      dup1\n        /* \"#utility.yul\":2811:2823   */\n      revert\n        /* \"#utility.yul\":2773:2825   */\n    tag_437:\n        /* \"#utility.yul\":2844:2873   */\n      tag_303\n        /* \"#utility.yul\":2863:2872   */\n      dup3\n        /* \"#utility.yul\":2844:2873   */\n      tag_402\n      jump\t// in\n        /* \"#utility.yul\":2884:3231   */\n    tag_84:\n        /* \"#utility.yul\":2949:2955   */\n      0x00\n        /* \"#utility.yul\":2957:2963   */\n      dup1\n        /* \"#utility.yul\":3010:3012   */\n      0x40\n        /* \"#utility.yul\":2998:3007   */\n      dup4\n        /* \"#utility.yul\":2989:2996   */\n      dup6\n        /* \"#utility.yul\":2985:3008   */\n      sub\n        /* \"#utility.yul\":2981:3013   */\n      slt\n        /* \"#utility.yul\":2978:3030   */\n      iszero\n      tag_440\n      jumpi\n        /* \"#utility.yul\":3026:3027   */\n      0x00\n        /* \"#utility.yul\":3023:3024   */\n      dup1\n        /* \"#utility.yul\":3016:3028   */\n      revert\n        /* \"#utility.yul\":2978:3030   */\n    tag_440:\n        /* \"#utility.yul\":3049:3078   */\n      tag_441\n        /* \"#utility.yul\":3068:3077   */\n      dup4\n        /* \"#utility.yul\":3049:3078   */\n      tag_402\n      jump\t// in\n    tag_441:\n        /* \"#utility.yul\":3039:3078   */\n      swap2\n      pop\n        /* \"#utility.yul\":3128:3130   */\n      0x20\n        /* \"#utility.yul\":3117:3126   */\n      dup4\n        /* \"#utility.yul\":3113:3131   */\n      add\n        /* \"#utility.yul\":3100:3132   */\n      calldataload\n        /* \"#utility.yul\":3175:3180   */\n      dup1\n        /* \"#utility.yul\":3168:3181   */\n      iszero\n        /* \"#utility.yul\":3161:3182   */\n      iszero\n        /* \"#utility.yul\":3154:3159   */\n      dup2\n        /* \"#utility.yul\":3151:3183   */\n      eq\n        /* \"#utility.yul\":3141:3201   */\n      tag_442\n      jumpi\n        /* \"#utility.yul\":3197:3198   */\n      0x00\n        /* \"#utility.yul\":3194:3195   */\n      dup1\n        /* \"#utility.yul\":3187:3199   */\n      revert\n        /* \"#utility.yul\":3141:3201   */\n    tag_442:\n        /* \"#utility.yul\":3220:3225   */\n      dup1\n        /* \"#utility.yul\":3210:3225   */\n      swap2\n      pop\n      pop\n        /* \"#utility.yul\":2884:3231   */\n      swap3\n      pop\n      swap3\n      swap1\n      pop\n      jump\t// out\n        /* \"#utility.yul\":3236:3363   */\n    tag_350:\n        /* \"#utility.yul\":3297:3307   */\n      0x4e487b71\n        /* \"#utility.yul\":3292:3295   */\n      0xe0\n        /* \"#utility.yul\":3288:3308   */\n      shl\n        /* \"#utility.yul\":3285:3286   */\n      0x00\n        /* \"#utility.yul\":3278:3309   */\n      mstore\n        /* \"#utility.yul\":3328:3332   */\n      0x41\n        /* \"#utility.yul\":3325:3326   */\n      0x04\n        /* \"#utility.yul\":3318:3333   */\n      mstore\n        /* \"#utility.yul\":3352:3356   */\n      0x24\n        /* \"#utility.yul\":3349:3350   */\n      0x00\n        /* \"#utility.yul\":3342:3357   */\n      revert\n        /* \"#utility.yul\":3368:3999   */\n    tag_403:\n        /* \"#utility.yul\":3432:3437   */\n      0x00\n        /* \"#utility.yul\":3462:3480   */\n      0xffffffffffffffff\n        /* \"#utility.yul\":3503:3505   */\n      dup1\n        /* \"#utility.yul\":3495:3501   */\n      dup5\n        /* \"#utility.yul\":3492:3506   */\n      gt\n        /* \"#utility.yul\":3489:3529   */\n      iszero\n      tag_446\n      jumpi\n        /* \"#utility.yul\":3509:3527   */\n      tag_446\n      tag_350\n      jump\t// in\n    tag_446:\n        /* \"#utility.yul\":3584:3586   */\n      0x40\n        /* \"#utility.yul\":3578:3587   */\n      mload\n        /* \"#utility.yul\":3552:3554   */\n      0x1f\n        /* \"#utility.yul\":3638:3653   */\n      dup6\n      add\n      not(0x1f)\n        /* \"#utility.yul\":3634:3658   */\n      swap1\n      dup2\n      and\n        /* \"#utility.yul\":3660:3662   */\n      0x3f\n        /* \"#utility.yul\":3630:3663   */\n      add\n        /* \"#utility.yul\":3626:3668   */\n      and\n        /* \"#utility.yul\":3614:3669   */\n      dup2\n      add\n      swap1\n        /* \"#utility.yul\":3684:3702   */\n      dup3\n      dup3\n      gt\n        /* \"#utility.yul\":3704:3726   */\n      dup2\n      dup4\n      lt\n        /* \"#utility.yul\":3681:3727   */\n      or\n        /* \"#utility.yul\":3678:3750   */\n      iszero\n      tag_448\n      jumpi\n        /* \"#utility.yul\":3730:3748   */\n      tag_448\n      tag_350\n      jump\t// in\n    tag_448:\n        /* \"#utility.yul\":3770:3780   */\n      dup2\n        /* \"#utility.yul\":3766:3768   */\n      0x40\n        /* \"#utility.yul\":3759:3781   */\n      mstore\n        /* \"#utility.yul\":3799:3805   */\n      dup1\n        /* \"#utility.yul\":3790:3805   */\n      swap4\n      pop\n        /* \"#utility.yul\":3829:3835   */\n      dup6\n        /* \"#utility.yul\":3821:3827   */\n      dup2\n        /* \"#utility.yul\":3814:3836   */\n      mstore\n        /* \"#utility.yul\":3869:3872   */\n      dup7\n        /* \"#utility.yul\":3860:3866   */\n      dup7\n        /* \"#utility.yul\":3855:3858   */\n      dup7\n        /* \"#utility.yul\":3851:3867   */\n      add\n        /* \"#utility.yul\":3848:3873   */\n      gt\n        /* \"#utility.yul\":3845:3890   */\n      iszero\n      tag_449\n      jumpi\n        /* \"#utility.yul\":3886:3887   */\n      0x00\n        /* \"#utility.yul\":3883:3884   */\n      dup1\n        /* \"#utility.yul\":3876:3888   */\n      revert\n        /* \"#utility.yul\":3845:3890   */\n    tag_449:\n        /* \"#utility.yul\":3936:3942   */\n      dup6\n        /* \"#utility.yul\":3931:3934   */\n      dup6\n        /* \"#utility.yul\":3924:3928   */\n      0x20\n        /* \"#utility.yul\":3916:3922   */\n      dup4\n        /* \"#utility.yul\":3912:3929   */\n      add\n        /* \"#utility.yul\":3899:3943   */\n      calldatacopy\n        /* \"#utility.yul\":3991:3992   */\n      0x00\n        /* \"#utility.yul\":3984:3988   */\n      0x20\n        /* \"#utility.yul\":3975:3981   */\n      dup8\n        /* \"#utility.yul\":3967:3973   */\n      dup4\n        /* \"#utility.yul\":3963:3982   */\n      add\n        /* \"#utility.yul\":3959:3989   */\n      add\n        /* \"#utility.yul\":3952:3993   */\n      mstore\n      pop\n      pop\n      pop\n        /* \"#utility.yul\":3368:3999   */\n      swap4\n      swap3\n      pop\n      pop\n      pop\n      jump\t// out\n        /* \"#utility.yul\":4004:4670   */\n    tag_88:\n        /* \"#utility.yul\":4099:4105   */\n      0x00\n        /* \"#utility.yul\":4107:4113   */\n      dup1\n        /* \"#utility.yul\":4115:4121   */\n      0x00\n        /* \"#utility.yul\":4123:4129   */\n      dup1\n        /* \"#utility.yul\":4176:4179   */\n      0x80\n        /* \"#utility.yul\":4164:4173   */\n      dup6\n        /* \"#utility.yul\":4155:4162   */\n      dup8\n        /* \"#utility.yul\":4151:4174   */\n      sub\n        /* \"#utility.yul\":4147:4180   */\n      slt\n        /* \"#utility.yul\":4144:4197   */\n      iszero\n      tag_451\n      jumpi\n        /* \"#utility.yul\":4193:4194   */\n      0x00\n        /* \"#utility.yul\":4190:4191   */\n      dup1\n        /* \"#utility.yul\":4183:4195   */\n      revert\n        /* \"#utility.yul\":4144:4197   */\n    tag_451:\n        /* \"#utility.yul\":4216:4245   */\n      tag_452\n        /* \"#utility.yul\":4235:4244   */\n      dup6\n        /* \"#utility.yul\":4216:4245   */\n      tag_402\n      jump\t// in\n    tag_452:\n        /* \"#utility.yul\":4206:4245   */\n      swap4\n      pop\n        /* \"#utility.yul\":4264:4302   */\n      tag_453\n        /* \"#utility.yul\":4298:4300   */\n      0x20\n        /* \"#utility.yul\":4287:4296   */\n      dup7\n        /* \"#utility.yul\":4283:4301   */\n      add\n        /* \"#utility.yul\":4264:4302   */\n      tag_402\n      jump\t// in\n    tag_453:\n        /* \"#utility.yul\":4254:4302   */\n      swap3\n      pop\n        /* \"#utility.yul\":4349:4351   */\n      0x40\n        /* \"#utility.yul\":4338:4347   */\n      dup6\n        /* \"#utility.yul\":4334:4352   */\n      add\n        /* \"#utility.yul\":4321:4353   */\n      calldataload\n        /* \"#utility.yul\":4311:4353   */\n      swap2\n      pop\n        /* \"#utility.yul\":4404:4406   */\n      0x60\n        /* \"#utility.yul\":4393:4402   */\n      dup6\n        /* \"#utility.yul\":4389:4407   */\n      add\n        /* \"#utility.yul\":4376:4408   */\n      calldataload\n        /* \"#utility.yul\":4431:4449   */\n      0xffffffffffffffff\n        /* \"#utility.yul\":4423:4429   */\n      dup2\n        /* \"#utility.yul\":4420:4450   */\n      gt\n        /* \"#utility.yul\":4417:4467   */\n      iszero\n      tag_454\n      jumpi\n        /* \"#utility.yul\":4463:4464   */\n      0x00\n        /* \"#utility.yul\":4460:4461   */\n      dup1\n        /* \"#utility.yul\":4453:4465   */\n      revert\n        /* \"#utility.yul\":4417:4467   */\n    tag_454:\n        /* \"#utility.yul\":4486:4508   */\n      dup6\n      add\n        /* \"#utility.yul\":4539:4543   */\n      0x1f\n        /* \"#utility.yul\":4531:4544   */\n      dup2\n      add\n        /* \"#utility.yul\":4527:4554   */\n      dup8\n      sgt\n        /* \"#utility.yul\":4517:4572   */\n      tag_455\n      jumpi\n        /* \"#utility.yul\":4568:4569   */\n      0x00\n        /* \"#utility.yul\":4565:4566   */\n      dup1\n        /* \"#utility.yul\":4558:4570   */\n      revert\n        /* \"#utility.yul\":4517:4572   */\n    tag_455:\n        /* \"#utility.yul\":4591:4664   */\n      tag_456\n        /* \"#utility.yul\":4656:4663   */\n      dup8\n        /* \"#utility.yul\":4651:4653   */\n      dup3\n        /* \"#utility.yul\":4638:4654   */\n      calldataload\n        /* \"#utility.yul\":4633:4635   */\n      0x20\n        /* \"#utility.yul\":4629:4631   */\n      dup5\n        /* \"#utility.yul\":4625:4636   */\n      add\n        /* \"#utility.yul\":4591:4664   */\n      tag_403\n      jump\t// in\n    tag_456:\n        /* \"#utility.yul\":4581:4664   */\n      swap2\n      pop\n      pop\n        /* \"#utility.yul\":4004:4670   */\n      swap3\n      swap6\n      swap2\n      swap5\n      pop\n      swap3\n      pop\n      jump\t// out\n        /* \"#utility.yul\":4675:5199   */\n    tag_96:\n        /* \"#utility.yul\":4753:4759   */\n      0x00\n        /* \"#utility.yul\":4761:4767   */\n      dup1\n        /* \"#utility.yul\":4814:4816   */\n      0x40\n        /* \"#utility.yul\":4802:4811   */\n      dup4\n        /* \"#utility.yul\":4793:4800   */\n      dup6\n        /* \"#utility.yul\":4789:4812   */\n      sub\n        /* \"#utility.yul\":4785:4817   */\n      slt\n        /* \"#utility.yul\":4782:4834   */\n      iszero\n      tag_458\n      jumpi\n        /* \"#utility.yul\":4830:4831   */\n      0x00\n        /* \"#utility.yul\":4827:4828   */\n      dup1\n        /* \"#utility.yul\":4820:4832   */\n      revert\n        /* \"#utility.yul\":4782:4834   */\n    tag_458:\n        /* \"#utility.yul\":4853:4882   */\n      tag_459\n        /* \"#utility.yul\":4872:4881   */\n      dup4\n        /* \"#utility.yul\":4853:4882   */\n      tag_402\n      jump\t// in\n    tag_459:\n        /* \"#utility.yul\":4843:4882   */\n      swap2\n      pop\n        /* \"#utility.yul\":4933:4935   */\n      0x20\n        /* \"#utility.yul\":4922:4931   */\n      dup4\n        /* \"#utility.yul\":4918:4936   */\n      add\n        /* \"#utility.yul\":4905:4937   */\n      calldataload\n        /* \"#utility.yul\":4960:4978   */\n      0xffffffffffffffff\n        /* \"#utility.yul\":4952:4958   */\n      dup2\n        /* \"#utility.yul\":4949:4979   */\n      gt\n        /* \"#utility.yul\":4946:4996   */\n      iszero\n      tag_460\n      jumpi\n        /* \"#utility.yul\":4992:4993   */\n      0x00\n        /* \"#utility.yul\":4989:4990   */\n      dup1\n        /* \"#utility.yul\":4982:4994   */\n      revert\n        /* \"#utility.yul\":4946:4996   */\n    tag_460:\n        /* \"#utility.yul\":5015:5037   */\n      dup4\n      add\n        /* \"#utility.yul\":5068:5072   */\n      0x1f\n        /* \"#utility.yul\":5060:5073   */\n      dup2\n      add\n        /* \"#utility.yul\":5056:5083   */\n      dup6\n      sgt\n        /* \"#utility.yul\":5046:5101   */\n      tag_461\n      jumpi\n        /* \"#utility.yul\":5097:5098   */\n      0x00\n        /* \"#utility.yul\":5094:5095   */\n      dup1\n        /* \"#utility.yul\":5087:5099   */\n      revert\n        /* \"#utility.yul\":5046:5101   */\n    tag_461:\n        /* \"#utility.yul\":5120:5193   */\n      tag_462\n        /* \"#utility.yul\":5185:5192   */\n      dup6\n        /* \"#utility.yul\":5180:5182   */\n      dup3\n        /* \"#utility.yul\":5167:5183   */\n      calldataload\n        /* \"#utility.yul\":5162:5164   */\n      0x20\n        /* \"#utility.yul\":5158:5160   */\n      dup5\n        /* \"#utility.yul\":5154:5165   */\n      add\n        /* \"#utility.yul\":5120:5193   */\n      tag_403\n      jump\t// in\n    tag_462:\n        /* \"#utility.yul\":5110:5193   */\n      swap2\n      pop\n      pop\n        /* \"#utility.yul\":4675:5199   */\n      swap3\n      pop\n      swap3\n      swap1\n      pop\n      jump\t// out\n        /* \"#utility.yul\":5204:5464   */\n    tag_100:\n        /* \"#utility.yul\":5272:5278   */\n      0x00\n        /* \"#utility.yul\":5280:5286   */\n      dup1\n        /* \"#utility.yul\":5333:5335   */\n      0x40\n        /* \"#utility.yul\":5321:5330   */\n      dup4\n        /* \"#utility.yul\":5312:5319   */\n      dup6\n        /* \"#utility.yul\":5308:5331   */\n      sub\n        /* \"#utility.yul\":5304:5336   */\n      slt\n        /* \"#utility.yul\":5301:5353   */\n      iszero\n      tag_464\n      jumpi\n        /* \"#utility.yul\":5349:5350   */\n      0x00\n        /* \"#utility.yul\":5346:5347   */\n      dup1\n        /* \"#utility.yul\":5339:5351   */\n      revert\n        /* \"#utility.yul\":5301:5353   */\n    tag_464:\n        /* \"#utility.yul\":5372:5401   */\n      tag_465\n        /* \"#utility.yul\":5391:5400   */\n      dup4\n        /* \"#utility.yul\":5372:5401   */\n      tag_402\n      jump\t// in\n    tag_465:\n        /* \"#utility.yul\":5362:5401   */\n      swap2\n      pop\n        /* \"#utility.yul\":5420:5458   */\n      tag_466\n        /* \"#utility.yul\":5454:5456   */\n      0x20\n        /* \"#utility.yul\":5443:5452   */\n      dup5\n        /* \"#utility.yul\":5439:5457   */\n      add\n        /* \"#utility.yul\":5420:5458   */\n      tag_402\n      jump\t// in\n    tag_466:\n        /* \"#utility.yul\":5410:5458   */\n      swap1\n      pop\n        /* \"#utility.yul\":5204:5464   */\n      swap3\n      pop\n      swap3\n      swap1\n      pop\n      jump\t// out\n        /* \"#utility.yul\":5469:5849   */\n    tag_111:\n        /* \"#utility.yul\":5548:5549   */\n      0x01\n        /* \"#utility.yul\":5544:5556   */\n      dup2\n      dup2\n      shr\n      swap1\n        /* \"#utility.yul\":5591:5603   */\n      dup3\n      and\n      dup1\n        /* \"#utility.yul\":5612:5673   */\n      tag_468\n      jumpi\n        /* \"#utility.yul\":5666:5670   */\n      0x7f\n        /* \"#utility.yul\":5658:5664   */\n      dup3\n        /* \"#utility.yul\":5654:5671   */\n      and\n        /* \"#utility.yul\":5644:5671   */\n      swap2\n      pop\n        /* \"#utility.yul\":5612:5673   */\n    tag_468:\n        /* \"#utility.yul\":5719:5721   */\n      0x20\n        /* \"#utility.yul\":5711:5717   */\n      dup3\n        /* \"#utility.yul\":5708:5722   */\n      lt\n        /* \"#utility.yul\":5688:5706   */\n      dup2\n        /* \"#utility.yul\":5685:5723   */\n      sub\n        /* \"#utility.yul\":5682:5843   */\n      tag_469\n      jumpi\n        /* \"#utility.yul\":5765:5775   */\n      0x4e487b71\n        /* \"#utility.yul\":5760:5763   */\n      0xe0\n        /* \"#utility.yul\":5756:5776   */\n      shl\n        /* \"#utility.yul\":5753:5754   */\n      0x00\n        /* \"#utility.yul\":5746:5777   */\n      mstore\n        /* \"#utility.yul\":5800:5804   */\n      0x22\n        /* \"#utility.yul\":5797:5798   */\n      0x04\n        /* \"#utility.yul\":5790:5805   */\n      mstore\n        /* \"#utility.yul\":5828:5832   */\n      0x24\n        /* \"#utility.yul\":5825:5826   */\n      0x00\n        /* \"#utility.yul\":5818:5833   */\n      revert\n        /* \"#utility.yul\":5682:5843   */\n    tag_469:\n      pop\n        /* \"#utility.yul\":5469:5849   */\n      swap2\n      swap1\n      pop\n      jump\t// out\n        /* \"#utility.yul\":6513:6640   */\n    tag_149:\n        /* \"#utility.yul\":6574:6584   */\n      0x4e487b71\n        /* \"#utility.yul\":6569:6572   */\n      0xe0\n        /* \"#utility.yul\":6565:6585   */\n      shl\n        /* \"#utility.yul\":6562:6563   */\n      0x00\n        /* \"#utility.yul\":6555:6586   */\n      mstore\n        /* \"#utility.yul\":6605:6609   */\n      0x32\n        /* \"#utility.yul\":6602:6603   */\n      0x04\n        /* \"#utility.yul\":6595:6610   */\n      mstore\n        /* \"#utility.yul\":6629:6633   */\n      0x24\n        /* \"#utility.yul\":6626:6627   */\n      0x00\n        /* \"#utility.yul\":6619:6634   */\n      revert\n        /* \"#utility.yul\":6645:6772   */\n    tag_404:\n        /* \"#utility.yul\":6706:6716   */\n      0x4e487b71\n        /* \"#utility.yul\":6701:6704   */\n      0xe0\n        /* \"#utility.yul\":6697:6717   */\n      shl\n        /* \"#utility.yul\":6694:6695   */\n      0x00\n        /* \"#utility.yul\":6687:6718   */\n      mstore\n        /* \"#utility.yul\":6737:6741   */\n      0x11\n        /* \"#utility.yul\":6734:6735   */\n      0x04\n        /* \"#utility.yul\":6727:6742   */\n      mstore\n        /* \"#utility.yul\":6761:6765   */\n      0x24\n        /* \"#utility.yul\":6758:6759   */\n      0x00\n        /* \"#utility.yul\":6751:6766   */\n      revert\n        /* \"#utility.yul\":6777:6912   */\n    tag_184:\n        /* \"#utility.yul\":6816:6819   */\n      0x00\n        /* \"#utility.yul\":6837:6854   */\n      0x01\n      dup3\n      add\n        /* \"#utility.yul\":6834:6877   */\n      tag_476\n      jumpi\n        /* \"#utility.yul\":6857:6875   */\n      tag_476\n      tag_404\n      jump\t// in\n    tag_476:\n      pop\n        /* \"#utility.yul\":6904:6905   */\n      0x01\n        /* \"#utility.yul\":6893:6906   */\n      add\n      swap1\n        /* \"#utility.yul\":6777:6912   */\n      jump\t// out\n        /* \"#utility.yul\":6917:7406   */\n    tag_228:\n      sub(shl(0xa0, 0x01), 0x01)\n        /* \"#utility.yul\":7186:7201   */\n      dup6\n      dup2\n      and\n        /* \"#utility.yul\":7168:7202   */\n      dup3\n      mstore\n        /* \"#utility.yul\":7238:7253   */\n      dup5\n      and\n        /* \"#utility.yul\":7233:7235   */\n      0x20\n        /* \"#utility.yul\":7218:7236   */\n      dup3\n      add\n        /* \"#utility.yul\":7211:7254   */\n      mstore\n        /* \"#utility.yul\":7285:7287   */\n      0x40\n        /* \"#utility.yul\":7270:7288   */\n      dup2\n      add\n        /* \"#utility.yul\":7263:7297   */\n      dup4\n      swap1\n      mstore\n        /* \"#utility.yul\":7333:7336   */\n      0x80\n        /* \"#utility.yul\":7328:7330   */\n      0x60\n        /* \"#utility.yul\":7313:7331   */\n      dup3\n      add\n        /* \"#utility.yul\":7306:7337   */\n      dup2\n      swap1\n      mstore\n        /* \"#utility.yul\":7111:7115   */\n      0x00\n      swap1\n        /* \"#utility.yul\":7354:7400   */\n      tag_478\n      swap1\n        /* \"#utility.yul\":7380:7399   */\n      dup4\n      add\n        /* \"#utility.yul\":7372:7378   */\n      dup5\n        /* \"#utility.yul\":7354:7400   */\n      tag_401\n      jump\t// in\n    tag_478:\n        /* \"#utility.yul\":7346:7400   */\n      swap7\n        /* \"#utility.yul\":6917:7406   */\n      swap6\n      pop\n      pop\n      pop\n      pop\n      pop\n      pop\n      jump\t// out\n        /* \"#utility.yul\":7411:7660   */\n    tag_231:\n        /* \"#utility.yul\":7480:7486   */\n      0x00\n        /* \"#utility.yul\":7533:7535   */\n      0x20\n        /* \"#utility.yul\":7521:7530   */\n      dup3\n        /* \"#utility.yul\":7512:7519   */\n      dup5\n        /* \"#utility.yul\":7508:7531   */\n      sub\n        /* \"#utility.yul\":7504:7536   */\n      slt\n        /* \"#utility.yul\":7501:7553   */\n      iszero\n      tag_480\n      jumpi\n        /* \"#utility.yul\":7549:7550   */\n      0x00\n        /* \"#utility.yul\":7546:7547   */\n      dup1\n        /* \"#utility.yul\":7539:7551   */\n      revert\n        /* \"#utility.yul\":7501:7553   */\n    tag_480:\n        /* \"#utility.yul\":7581:7590   */\n      dup2\n        /* \"#utility.yul\":7575:7591   */\n      mload\n        /* \"#utility.yul\":7600:7630   */\n      tag_303\n        /* \"#utility.yul\":7624:7629   */\n      dup2\n        /* \"#utility.yul\":7600:7630   */\n      tag_399\n      jump\t// in\n        /* \"#utility.yul\":7665:8161   */\n    tag_256:\n        /* \"#utility.yul\":7844:7847   */\n      0x00\n        /* \"#utility.yul\":7882:7888   */\n      dup4\n        /* \"#utility.yul\":7876:7889   */\n      mload\n        /* \"#utility.yul\":7898:7964   */\n      tag_483\n        /* \"#utility.yul\":7957:7963   */\n      dup2\n        /* \"#utility.yul\":7952:7955   */\n      dup5\n        /* \"#utility.yul\":7945:7949   */\n      0x20\n        /* \"#utility.yul\":7937:7943   */\n      dup9\n        /* \"#utility.yul\":7933:7950   */\n      add\n        /* \"#utility.yul\":7898:7964   */\n      tag_400\n      jump\t// in\n    tag_483:\n        /* \"#utility.yul\":8027:8040   */\n      dup4\n      mload\n        /* \"#utility.yul\":7986:8002   */\n      swap1\n      dup4\n      add\n      swap1\n        /* \"#utility.yul\":8049:8119   */\n      tag_484\n        /* \"#utility.yul\":8027:8040   */\n      dup2\n        /* \"#utility.yul\":7986:8002   */\n      dup4\n        /* \"#utility.yul\":8096:8100   */\n      0x20\n        /* \"#utility.yul\":8084:8101   */\n      dup9\n      add\n        /* \"#utility.yul\":8049:8119   */\n      tag_400\n      jump\t// in\n    tag_484:\n        /* \"#utility.yul\":8135:8155   */\n      add\n      swap5\n        /* \"#utility.yul\":7665:8161   */\n      swap4\n      pop\n      pop\n      pop\n      pop\n      jump\t// out\n        /* \"#utility.yul\":8292:8810   */\n    tag_406:\n        /* \"#utility.yul\":8394:8396   */\n      0x1f\n        /* \"#utility.yul\":8389:8392   */\n      dup3\n        /* \"#utility.yul\":8386:8397   */\n      gt\n        /* \"#utility.yul\":8383:8804   */\n      iszero\n      tag_142\n      jumpi\n        /* \"#utility.yul\":8430:8435   */\n      dup1\n        /* \"#utility.yul\":8427:8428   */\n      0x00\n        /* \"#utility.yul\":8420:8436   */\n      mstore\n        /* \"#utility.yul\":8474:8478   */\n      0x20\n        /* \"#utility.yul\":8471:8472   */\n      0x00\n        /* \"#utility.yul\":8461:8479   */\n      keccak256\n        /* \"#utility.yul\":8544:8546   */\n      0x1f\n        /* \"#utility.yul\":8532:8542   */\n      dup5\n        /* \"#utility.yul\":8528:8547   */\n      add\n        /* \"#utility.yul\":8525:8526   */\n      0x05\n        /* \"#utility.yul\":8521:8548   */\n      shr\n        /* \"#utility.yul\":8515:8519   */\n      dup2\n        /* \"#utility.yul\":8511:8549   */\n      add\n        /* \"#utility.yul\":8580:8584   */\n      0x20\n        /* \"#utility.yul\":8568:8578   */\n      dup6\n        /* \"#utility.yul\":8565:8585   */\n      lt\n        /* \"#utility.yul\":8562:8609   */\n      iszero\n      tag_488\n      jumpi\n      pop\n        /* \"#utility.yul\":8603:8607   */\n      dup1\n        /* \"#utility.yul\":8562:8609   */\n    tag_488:\n        /* \"#utility.yul\":8658:8660   */\n      0x1f\n        /* \"#utility.yul\":8653:8656   */\n      dup5\n        /* \"#utility.yul\":8649:8661   */\n      add\n        /* \"#utility.yul\":8646:8647   */\n      0x05\n        /* \"#utility.yul\":8642:8662   */\n      shr\n        /* \"#utility.yul\":8636:8640   */\n      dup3\n        /* \"#utility.yul\":8632:8663   */\n      add\n        /* \"#utility.yul\":8622:8663   */\n      swap2\n      pop\n        /* \"#utility.yul\":8713:8794   */\n    tag_489:\n        /* \"#utility.yul\":8731:8733   */\n      dup2\n        /* \"#utility.yul\":8724:8729   */\n      dup2\n        /* \"#utility.yul\":8721:8734   */\n      lt\n        /* \"#utility.yul\":8713:8794   */\n      iszero\n      tag_242\n      jumpi\n        /* \"#utility.yul\":8790:8791   */\n      0x00\n        /* \"#utility.yul\":8776:8792   */\n      dup2\n      sstore\n        /* \"#utility.yul\":8757:8758   */\n      0x01\n        /* \"#utility.yul\":8746:8759   */\n      add\n        /* \"#utility.yul\":8713:8794   */\n      jump(tag_489)\n        /* \"#utility.yul\":8986:10331   */\n    tag_264:\n        /* \"#utility.yul\":9112:9115   */\n      dup2\n        /* \"#utility.yul\":9106:9116   */\n      mload\n        /* \"#utility.yul\":9139:9157   */\n      0xffffffffffffffff\n        /* \"#utility.yul\":9131:9137   */\n      dup2\n        /* \"#utility.yul\":9128:9158   */\n      gt\n        /* \"#utility.yul\":9125:9181   */\n      iszero\n      tag_495\n      jumpi\n        /* \"#utility.yul\":9161:9179   */\n      tag_495\n      tag_350\n      jump\t// in\n    tag_495:\n        /* \"#utility.yul\":9190:9287   */\n      tag_496\n        /* \"#utility.yul\":9280:9286   */\n      dup2\n        /* \"#utility.yul\":9240:9278   */\n      tag_497\n        /* \"#utility.yul\":9272:9276   */\n      dup5\n        /* \"#utility.yul\":9266:9277   */\n      sload\n        /* \"#utility.yul\":9240:9278   */\n      tag_111\n      jump\t// in\n    tag_497:\n        /* \"#utility.yul\":9234:9238   */\n      dup5\n        /* \"#utility.yul\":9190:9287   */\n      tag_406\n      jump\t// in\n    tag_496:\n        /* \"#utility.yul\":9342:9346   */\n      0x20\n      dup1\n        /* \"#utility.yul\":9399:9401   */\n      0x1f\n        /* \"#utility.yul\":9388:9402   */\n      dup4\n      gt\n        /* \"#utility.yul\":9416:9417   */\n      0x01\n        /* \"#utility.yul\":9411:10074   */\n      dup2\n      eq\n      tag_499\n      jumpi\n        /* \"#utility.yul\":10118:10119   */\n      0x00\n        /* \"#utility.yul\":10135:10141   */\n      dup5\n        /* \"#utility.yul\":10132:10221   */\n      iszero\n      tag_500\n      jumpi\n      pop\n        /* \"#utility.yul\":10187:10206   */\n      dup6\n      dup4\n      add\n        /* \"#utility.yul\":10181:10207   */\n      mload\n        /* \"#utility.yul\":10132:10221   */\n    tag_500:\n      not(0x00)\n        /* \"#utility.yul\":8943:8944   */\n      0x03\n        /* \"#utility.yul\":8939:8950   */\n      dup7\n      swap1\n      shl\n        /* \"#utility.yul\":8935:8959   */\n      shr\n        /* \"#utility.yul\":8931:8960   */\n      not\n        /* \"#utility.yul\":8921:8961   */\n      and\n        /* \"#utility.yul\":8967:8968   */\n      0x01\n        /* \"#utility.yul\":8963:8974   */\n      dup6\n      swap1\n      shl\n        /* \"#utility.yul\":8918:8975   */\n      or\n        /* \"#utility.yul\":10234:10315   */\n      dup6\n      sstore\n        /* \"#utility.yul\":9381:10325   */\n      jump(tag_498)\n        /* \"#utility.yul\":9411:10074   */\n    tag_499:\n        /* \"#utility.yul\":8239:8240   */\n      0x00\n        /* \"#utility.yul\":8232:8246   */\n      dup6\n      dup2\n      mstore\n        /* \"#utility.yul\":8276:8280   */\n      0x20\n        /* \"#utility.yul\":8263:8281   */\n      dup2\n      keccak256\n      not(0x1f)\n        /* \"#utility.yul\":9447:9467   */\n      dup7\n      and\n      swap2\n        /* \"#utility.yul\":9565:9801   */\n    tag_503:\n        /* \"#utility.yul\":9579:9586   */\n      dup3\n        /* \"#utility.yul\":9576:9577   */\n      dup2\n        /* \"#utility.yul\":9573:9587   */\n      lt\n        /* \"#utility.yul\":9565:9801   */\n      iszero\n      tag_505\n      jumpi\n        /* \"#utility.yul\":9668:9687   */\n      dup9\n      dup7\n      add\n        /* \"#utility.yul\":9662:9688   */\n      mload\n        /* \"#utility.yul\":9647:9689   */\n      dup3\n      sstore\n        /* \"#utility.yul\":9760:9787   */\n      swap5\n      dup5\n      add\n      swap5\n        /* \"#utility.yul\":9728:9729   */\n      0x01\n        /* \"#utility.yul\":9716:9730   */\n      swap1\n      swap2\n      add\n      swap1\n        /* \"#utility.yul\":9595:9614   */\n      dup5\n      add\n        /* \"#utility.yul\":9565:9801   */\n      jump(tag_503)\n    tag_505:\n        /* \"#utility.yul\":9569:9572   */\n      pop\n        /* \"#utility.yul\":9829:9835   */\n      dup6\n        /* \"#utility.yul\":9820:9827   */\n      dup3\n        /* \"#utility.yul\":9817:9836   */\n      lt\n        /* \"#utility.yul\":9814:10015   */\n      iszero\n      tag_506\n      jumpi\n        /* \"#utility.yul\":9890:9909   */\n      dup8\n      dup6\n      add\n        /* \"#utility.yul\":9884:9910   */\n      mload\n      not(0x00)\n        /* \"#utility.yul\":9973:9974   */\n      0x03\n        /* \"#utility.yul\":9969:9983   */\n      dup9\n      swap1\n      shl\n        /* \"#utility.yul\":9985:9988   */\n      0xf8\n        /* \"#utility.yul\":9965:9989   */\n      and\n        /* \"#utility.yul\":9961:9998   */\n      shr\n        /* \"#utility.yul\":9957:9999   */\n      not\n        /* \"#utility.yul\":9942:10000   */\n      and\n        /* \"#utility.yul\":9927:10001   */\n      dup2\n      sstore\n        /* \"#utility.yul\":9814:10015   */\n    tag_506:\n      pop\n      pop\n        /* \"#utility.yul\":10061:10062   */\n      0x01\n        /* \"#utility.yul\":10052:10058   */\n      dup5\n        /* \"#utility.yul\":10049:10050   */\n      0x01\n        /* \"#utility.yul\":10045:10059   */\n      shl\n        /* \"#utility.yul\":10041:10063   */\n      add\n        /* \"#utility.yul\":10035:10039   */\n      dup6\n        /* \"#utility.yul\":10028:10064   */\n      sstore\n        /* \"#utility.yul\":9381:10325   */\n    tag_498:\n      pop\n      pop\n      pop\n      pop\n        /* \"#utility.yul\":8986:10331   */\n      pop\n      pop\n      jump\t// out\n        /* \"#utility.yul\":10336:10464   */\n    tag_331:\n        /* \"#utility.yul\":10403:10412   */\n      dup2\n      dup2\n      sub\n        /* \"#utility.yul\":10424:10435   */\n      dup2\n      dup2\n      gt\n        /* \"#utility.yul\":10421:10458   */\n      iszero\n      tag_107\n      jumpi\n        /* \"#utility.yul\":10438:10456   */\n      tag_107\n      tag_404\n      jump\t// in\n        /* \"#utility.yul\":10469:10596   */\n    tag_340:\n        /* \"#utility.yul\":10530:10540   */\n      0x4e487b71\n        /* \"#utility.yul\":10525:10528   */\n      0xe0\n        /* \"#utility.yul\":10521:10541   */\n      shl\n        /* \"#utility.yul\":10518:10519   */\n      0x00\n        /* \"#utility.yul\":10511:10542   */\n      mstore\n        /* \"#utility.yul\":10561:10565   */\n      0x31\n        /* \"#utility.yul\":10558:10559   */\n      0x04\n        /* \"#utility.yul\":10551:10566   */\n      mstore\n        /* \"#utility.yul\":10585:10589   */\n      0x24\n        /* \"#utility.yul\":10582:10583   */\n      0x00\n        /* \"#utility.yul\":10575:10590   */\n      revert\n\n    auxdata: 0xa2646970667358221220520763df96be8e7c9ad4378d98f03869f9ec199a7784bbb8102b609b4e67729f64736f6c63430008160033\n}\n",
				"bytecode": {
					"linkReferences": {},
					"object": "608060405234801562000010575f80fd5b503360405180604001604052806005815260200164135e53919560da1b8152506040518060400160405280600381526020016213919560ea1b815250815f90816200005c91906200019d565b5060016200006b82826200019d565b5050506001600160a01b0381166200009c57604051631e4fbdf760e01b81525f600482015260240160405180910390fd5b620000a781620000ae565b5062000269565b600b80546001600160a01b038381166001600160a01b0319831681179093556040519116919082907f8be0079c531659141344cd1fd0a4f28419497f9722a3daafe3b4186f6b6457e0905f90a35050565b634e487b7160e01b5f52604160045260245ffd5b600181811c908216806200012857607f821691505b6020821081036200014757634e487b7160e01b5f52602260045260245ffd5b50919050565b601f8211156200019857805f5260205f20601f840160051c81016020851015620001745750805b601f840160051c820191505b8181101562000195575f815560010162000180565b50505b505050565b81516001600160401b03811115620001b957620001b9620000ff565b620001d181620001ca845462000113565b846200014d565b602080601f83116001811462000207575f8415620001ef5750858301515b5f19600386901b1c1916600185901b17855562000261565b5f85815260208120601f198616915b82811015620002375788860151825594840194600190910190840162000216565b50858210156200025557878501515f19600388901b60f8161c191681555b505060018460011b0185555b505050505050565b61178680620002775f395ff3fe608060405234801561000f575f80fd5b5060043610610127575f3560e01c806370a08231116100a9578063b88d4fde1161006e578063b88d4fde14610260578063c87b56dd14610273578063d204c45e14610286578063e985e9c514610299578063f2fde38b146102ac575f80fd5b806370a0823114610219578063715018a61461022c5780638da5cb5b1461023457806395d89b4114610245578063a22cb4651461024d575f80fd5b806323b872dd116100ef57806323b872dd146101ba5780632f745c59146101cd57806342842e0e146101e05780634f6ccce7146101f35780636352211e14610206575f80fd5b806301ffc9a71461012b57806306fdde0314610153578063081812fc14610168578063095ea7b31461019357806318160ddd146101a8575b5f80fd5b61013e61013936600461123c565b6102bf565b60405190151581526020015b60405180910390f35b61015b6102cf565b60405161014a91906112a4565b61017b6101763660046112b6565b61035e565b6040516001600160a01b03909116815260200161014a565b6101a66101a13660046112e8565b610385565b005b6008545b60405190815260200161014a565b6101a66101c8366004611310565b610394565b6101ac6101db3660046112e8565b610422565b6101a66101ee366004611310565b610485565b6101ac6102013660046112b6565b6104a4565b61017b6102143660046112b6565b6104f9565b6101ac610227366004611349565b610503565b6101a6610548565b600b546001600160a01b031661017b565b61015b61055b565b6101a661025b366004611362565b61056a565b6101a661026e366004611422565b610575565b61015b6102813660046112b6565b61058c565b6101a6610294366004611499565b610597565b61013e6102a73660046114f7565b6105c9565b6101a66102ba366004611349565b6105f6565b5f6102c982610633565b92915050565b60605f80546102dd90611528565b80601f016020809104026020016040519081016040528092919081815260200182805461030990611528565b80156103545780601f1061032b57610100808354040283529160200191610354565b820191905f5260205f20905b81548152906001019060200180831161033757829003601f168201915b5050505050905090565b5f61036882610657565b505f828152600460205260409020546001600160a01b03166102c9565b61039082823361068f565b5050565b6001600160a01b0382166103c257604051633250574960e11b81525f60048201526024015b60405180910390fd5b5f6103ce83833361069c565b9050836001600160a01b0316816001600160a01b03161461041c576040516364283d7b60e01b81526001600160a01b03808616600483015260248201849052821660448201526064016103b9565b50505050565b5f61042c83610503565b821061045d5760405163295f44f760e21b81526001600160a01b0384166004820152602481018390526044016103b9565b506001600160a01b03919091165f908152600660209081526040808320938352929052205490565b61049f83838360405180602001604052805f815250610575565b505050565b5f6104ae60085490565b82106104d65760405163295f44f760e21b81525f6004820152602481018390526044016103b9565b600882815481106104e9576104e9611560565b905f5260205f2001549050919050565b5f6102c982610657565b5f6001600160a01b03821661052d576040516322718ad960e21b81525f60048201526024016103b9565b506001600160a01b03165f9081526003602052604090205490565b6105506106b0565b6105595f6106dd565b565b6060600180546102dd90611528565b61039033838361072e565b610580848484610394565b61041c848484846107cc565b60606102c9826108f2565b61059f6106b0565b600c80545f91826105af83611588565b9190505590506105bf83826109f5565b61049f8183610a0e565b6001600160a01b039182165f90815260056020908152604080832093909416825291909152205460ff1690565b6105fe6106b0565b6001600160a01b03811661062757604051631e4fbdf760e01b81525f60048201526024016103b9565b610630816106dd565b50565b5f6001600160e01b03198216632483248360e11b14806102c957506102c982610a5d565b5f818152600260205260408120546001600160a01b0316806102c957604051637e27328960e01b8152600481018490526024016103b9565b61049f8383836001610a81565b5f6106a8848484610b85565b949350505050565b600b546001600160a01b031633146105595760405163118cdaa760e01b81523360048201526024016103b9565b600b80546001600160a01b038381166001600160a01b0319831681179093556040519116919082907f8be0079c531659141344cd1fd0a4f28419497f9722a3daafe3b4186f6b6457e0905f90a35050565b6001600160a01b03821661076057604051630b61174360e31b81526001600160a01b03831660048201526024016103b9565b6001600160a01b038381165f81815260056020908152604080832094871680845294825291829020805460ff191686151590811790915591519182527f17307eab39ab6107e8899845ad3d59bd9653f200f220920489ca2b5937696c31910160405180910390a3505050565b6001600160a01b0383163b1561041c57604051630a85bd0160e11b81526001600160a01b0384169063150b7a029061080e9033908890879087906004016115a0565b6020604051808303815f875af1925050508015610848575060408051601f3d908101601f19168201909252610845918101906115dc565b60015b6108af573d808015610875576040519150601f19603f3d011682016040523d82523d5f602084013e61087a565b606091505b5080515f036108a757604051633250574960e11b81526001600160a01b03851660048201526024016103b9565b805181602001fd5b6001600160e01b03198116630a85bd0160e11b146108eb57604051633250574960e11b81526001600160a01b03851660048201526024016103b9565b5050505050565b60606108fd82610657565b505f828152600a60205260408120805461091690611528565b80601f016020809104026020016040519081016040528092919081815260200182805461094290611528565b801561098d5780601f106109645761010080835404028352916020019161098d565b820191905f5260205f20905b81548152906001019060200180831161097057829003601f168201915b505050505090505f6109a960408051602081019091525f815290565b905080515f036109ba575092915050565b8151156109ec5780826040516020016109d49291906115f7565b60405160208183030381529060405292505050919050565b6106a884610c50565b610390828260405180602001604052805f815250610cc1565b5f828152600a60205260409020610a258282611669565b506040518281527ff8e1a15aba9398e019f0b49df1a4fde98ee17ae345cb5f6b5e2c27f5033e8ce79060200160405180910390a15050565b5f6001600160e01b0319821663780e9d6360e01b14806102c957506102c982610cd7565b8080610a9557506001600160a01b03821615155b15610b56575f610aa484610657565b90506001600160a01b03831615801590610ad05750826001600160a01b0316816001600160a01b031614155b8015610ae35750610ae181846105c9565b155b15610b0c5760405163a9fbf51f60e01b81526001600160a01b03841660048201526024016103b9565b8115610b545783856001600160a01b0316826001600160a01b03167f8c5be1e5ebec7d5bd14f71427d1e84f3dd0314c0f7b2291e5b200ac8c7c3b92560405160405180910390a45b505b50505f90815260046020526040902080546001600160a01b0319166001600160a01b0392909216919091179055565b5f80610b92858585610d26565b90506001600160a01b038116610bee57610be984600880545f838152600960205260408120829055600182018355919091527ff3f7a9fe364faab93b216da50a3214154f22a0a2b415b23a84c8169e8b636ee30155565b610c11565b846001600160a01b0316816001600160a01b031614610c1157610c118185610e18565b6001600160a01b038516610c2d57610c2884610ea5565b6106a8565b846001600160a01b0316816001600160a01b0316146106a8576106a88585610f4c565b6060610c5b82610657565b505f610c7160408051602081019091525f815290565b90505f815111610c8f5760405180602001604052805f815250610cba565b80610c9984610f9a565b604051602001610caa9291906115f7565b6040516020818303038152906040525b9392505050565b610ccb838361102a565b61049f5f8484846107cc565b5f6001600160e01b031982166380ac58cd60e01b1480610d0757506001600160e01b03198216635b5e139f60e01b145b806102c957506301ffc9a760e01b6001600160e01b03198316146102c9565b5f828152600260205260408120546001600160a01b0390811690831615610d5257610d5281848661108b565b6001600160a01b03811615610d8c57610d6d5f855f80610a81565b6001600160a01b0381165f90815260036020526040902080545f190190555b6001600160a01b03851615610dba576001600160a01b0385165f908152600360205260409020805460010190555b5f8481526002602052604080822080546001600160a01b0319166001600160a01b0389811691821790925591518793918516917fddf252ad1be2c89b69c2b068fc378daa952ba7f163c4a11628f55a4df523b3ef91a4949350505050565b5f610e2283610503565b5f83815260076020526040902054909150808214610e73576001600160a01b0384165f9081526006602090815260408083208584528252808320548484528184208190558352600790915290208190555b505f9182526007602090815260408084208490556001600160a01b039094168352600681528383209183525290812055565b6008545f90610eb690600190611729565b5f8381526009602052604081205460088054939450909284908110610edd57610edd611560565b905f5260205f20015490508060088381548110610efc57610efc611560565b5f918252602080832090910192909255828152600990915260408082208490558582528120556008805480610f3357610f3361173c565b600190038181905f5260205f20015f9055905550505050565b5f6001610f5884610503565b610f629190611729565b6001600160a01b039093165f908152600660209081526040808320868452825280832085905593825260079052919091209190915550565b60605f610fa6836110ef565b60010190505f8167ffffffffffffffff811115610fc557610fc561139b565b6040519080825280601f01601f191660200182016040528015610fef576020820181803683370190505b5090508181016020015b5f19016f181899199a1a9b1b9c1cb0b131b232b360811b600a86061a8153600a8504945084610ff957509392505050565b6001600160a01b03821661105357604051633250574960e11b81525f60048201526024016103b9565b5f61105f83835f61069c565b90506001600160a01b0381161561049f576040516339e3563760e11b81525f60048201526024016103b9565b6110968383836111c6565b61049f576001600160a01b0383166110c457604051637e27328960e01b8152600481018290526024016103b9565b60405163177e802f60e01b81526001600160a01b0383166004820152602481018290526044016103b9565b5f8072184f03e93ff9f4daa797ed6e38ed64bf6a1f0160401b831061112d5772184f03e93ff9f4daa797ed6e38ed64bf6a1f0160401b830492506040015b6d04ee2d6d415b85acef81000000008310611159576d04ee2d6d415b85acef8100000000830492506020015b662386f26fc10000831061117757662386f26fc10000830492506010015b6305f5e100831061118f576305f5e100830492506008015b61271083106111a357612710830492506004015b606483106111b5576064830492506002015b600a83106102c95760010192915050565b5f6001600160a01b038316158015906106a85750826001600160a01b0316846001600160a01b031614806111ff57506111ff84846105c9565b806106a85750505f908152600460205260409020546001600160a01b03908116911614919050565b6001600160e01b031981168114610630575f80fd5b5f6020828403121561124c575f80fd5b8135610cba81611227565b5f5b83811015611271578181015183820152602001611259565b50505f910152565b5f8151808452611290816020860160208601611257565b601f01601f19169290920160200192915050565b602081525f610cba6020830184611279565b5f602082840312156112c6575f80fd5b5035919050565b80356001600160a01b03811681146112e3575f80fd5b919050565b5f80604083850312156112f9575f80fd5b611302836112cd565b946020939093013593505050565b5f805f60608486031215611322575f80fd5b61132b846112cd565b9250611339602085016112cd565b9150604084013590509250925092565b5f60208284031215611359575f80fd5b610cba826112cd565b5f8060408385031215611373575f80fd5b61137c836112cd565b915060208301358015158114611390575f80fd5b809150509250929050565b634e487b7160e01b5f52604160045260245ffd5b5f67ffffffffffffffff808411156113c9576113c961139b565b604051601f8501601f19908116603f011681019082821181831017156113f1576113f161139b565b81604052809350858152868686011115611409575f80fd5b858560208301375f602087830101525050509392505050565b5f805f8060808587031215611435575f80fd5b61143e856112cd565b935061144c602086016112cd565b925060408501359150606085013567ffffffffffffffff81111561146e575f80fd5b8501601f8101871361147e575f80fd5b61148d878235602084016113af565b91505092959194509250565b5f80604083850312156114aa575f80fd5b6114b3836112cd565b9150602083013567ffffffffffffffff8111156114ce575f80fd5b8301601f810185136114de575f80fd5b6114ed858235602084016113af565b9150509250929050565b5f8060408385031215611508575f80fd5b611511836112cd565b915061151f602084016112cd565b90509250929050565b600181811c9082168061153c57607f821691505b60208210810361155a57634e487b7160e01b5f52602260045260245ffd5b50919050565b634e487b7160e01b5f52603260045260245ffd5b634e487b7160e01b5f52601160045260245ffd5b5f6001820161159957611599611574565b5060010190565b6001600160a01b03858116825284166020820152604081018390526080606082018190525f906115d290830184611279565b9695505050505050565b5f602082840312156115ec575f80fd5b8151610cba81611227565b5f8351611608818460208801611257565b83519083019061161c818360208801611257565b01949350505050565b601f82111561049f57805f5260205f20601f840160051c8101602085101561164a5750805b601f840160051c820191505b818110156108eb575f8155600101611656565b815167ffffffffffffffff8111156116835761168361139b565b611697816116918454611528565b84611625565b602080601f8311600181146116ca575f84156116b35750858301515b5f19600386901b1c1916600185901b178555611721565b5f85815260208120601f198616915b828110156116f8578886015182559484019460019091019084016116d9565b508582101561171557878501515f19600388901b60f8161c191681555b505060018460011b0185555b505050505050565b818103818111156102c9576102c9611574565b634e487b7160e01b5f52603160045260245ffdfea2646970667358221220520763df96be8e7c9ad4378d98f03869f9ec199a7784bbb8102b609b4e67729f64736f6c63430008160033",
					"opcodes": "PUSH1 0x80 PUSH1 0x40 MSTORE CALLVALUE DUP1 ISZERO PUSH3 0x10 JUMPI PUSH0 DUP1 REVERT JUMPDEST POP CALLER PUSH1 0x40 MLOAD DUP1 PUSH1 0x40 ADD PUSH1 0x40 MSTORE DUP1 PUSH1 0x5 DUP2 MSTORE PUSH1 0x20 ADD PUSH5 0x135E539195 PUSH1 0xDA SHL DUP2 MSTORE POP PUSH1 0x40 MLOAD DUP1 PUSH1 0x40 ADD PUSH1 0x40 MSTORE DUP1 PUSH1 0x3 DUP2 MSTORE PUSH1 0x20 ADD PUSH3 0x139195 PUSH1 0xEA SHL DUP2 MSTORE POP DUP2 PUSH0 SWAP1 DUP2 PUSH3 0x5C SWAP2 SWAP1 PUSH3 0x19D JUMP JUMPDEST POP PUSH1 0x1 PUSH3 0x6B DUP3 DUP3 PUSH3 0x19D JUMP JUMPDEST POP POP POP PUSH1 0x1 PUSH1 0x1 PUSH1 0xA0 SHL SUB DUP2 AND PUSH3 0x9C JUMPI PUSH1 0x40 MLOAD PUSH4 0x1E4FBDF7 PUSH1 0xE0 SHL DUP2 MSTORE PUSH0 PUSH1 0x4 DUP3 ADD MSTORE PUSH1 0x24 ADD PUSH1 0x40 MLOAD DUP1 SWAP2 SUB SWAP1 REVERT JUMPDEST PUSH3 0xA7 DUP2 PUSH3 0xAE JUMP JUMPDEST POP PUSH3 0x269 JUMP JUMPDEST PUSH1 0xB DUP1 SLOAD PUSH1 0x1 PUSH1 0x1 PUSH1 0xA0 SHL SUB DUP4 DUP2 AND PUSH1 0x1 PUSH1 0x1 PUSH1 0xA0 SHL SUB NOT DUP4 AND DUP2 OR SWAP1 SWAP4 SSTORE PUSH1 0x40 MLOAD SWAP2 AND SWAP2 SWAP1 DUP3 SWAP1 PUSH32 0x8BE0079C531659141344CD1FD0A4F28419497F9722A3DAAFE3B4186F6B6457E0 SWAP1 PUSH0 SWAP1 LOG3 POP POP JUMP JUMPDEST PUSH4 0x4E487B71 PUSH1 0xE0 SHL PUSH0 MSTORE PUSH1 0x41 PUSH1 0x4 MSTORE PUSH1 0x24 PUSH0 REVERT JUMPDEST PUSH1 0x1 DUP2 DUP2 SHR SWAP1 DUP3 AND DUP1 PUSH3 0x128 JUMPI PUSH1 0x7F DUP3 AND SWAP2 POP JUMPDEST PUSH1 0x20 DUP3 LT DUP2 SUB PUSH3 0x147 JUMPI PUSH4 0x4E487B71 PUSH1 0xE0 SHL PUSH0 MSTORE PUSH1 0x22 PUSH1 0x4 MSTORE PUSH1 0x24 PUSH0 REVERT JUMPDEST POP SWAP2 SWAP1 POP JUMP JUMPDEST PUSH1 0x1F DUP3 GT ISZERO PUSH3 0x198 JUMPI DUP1 PUSH0 MSTORE PUSH1 0x20 PUSH0 KECCAK256 PUSH1 0x1F DUP5 ADD PUSH1 0x5 SHR DUP2 ADD PUSH1 0x20 DUP6 LT ISZERO PUSH3 0x174 JUMPI POP DUP1 JUMPDEST PUSH1 0x1F DUP5 ADD PUSH1 0x5 SHR DUP3 ADD SWAP2 POP JUMPDEST DUP2 DUP2 LT ISZERO PUSH3 0x195 JUMPI PUSH0 DUP2 SSTORE PUSH1 0x1 ADD PUSH3 0x180 JUMP JUMPDEST POP POP JUMPDEST POP POP POP JUMP JUMPDEST DUP2 MLOAD PUSH1 0x1 PUSH1 0x1 PUSH1 0x40 SHL SUB DUP2 GT ISZERO PUSH3 0x1B9 JUMPI PUSH3 0x1B9 PUSH3 0xFF JUMP JUMPDEST PUSH3 0x1D1 DUP2 PUSH3 0x1CA DUP5 SLOAD PUSH3 0x113 JUMP JUMPDEST DUP5 PUSH3 0x14D JUMP JUMPDEST PUSH1 0x20 DUP1 PUSH1 0x1F DUP4 GT PUSH1 0x1 DUP2 EQ PUSH3 0x207 JUMPI PUSH0 DUP5 ISZERO PUSH3 0x1EF JUMPI POP DUP6 DUP4 ADD MLOAD JUMPDEST PUSH0 NOT PUSH1 0x3 DUP7 SWAP1 SHL SHR NOT AND PUSH1 0x1 DUP6 SWAP1 SHL OR DUP6 SSTORE PUSH3 0x261 JUMP JUMPDEST PUSH0 DUP6 DUP2 MSTORE PUSH1 0x20 DUP2 KECCAK256 PUSH1 0x1F NOT DUP7 AND SWAP2 JUMPDEST DUP3 DUP2 LT ISZERO PUSH3 0x237 JUMPI DUP9 DUP7 ADD MLOAD DUP3 SSTORE SWAP5 DUP5 ADD SWAP5 PUSH1 0x1 SWAP1 SWAP2 ADD SWAP1 DUP5 ADD PUSH3 0x216 JUMP JUMPDEST POP DUP6 DUP3 LT ISZERO PUSH3 0x255 JUMPI DUP8 DUP6 ADD MLOAD PUSH0 NOT PUSH1 0x3 DUP9 SWAP1 SHL PUSH1 0xF8 AND SHR NOT AND DUP2 SSTORE JUMPDEST POP POP PUSH1 0x1 DUP5 PUSH1 0x1 SHL ADD DUP6 SSTORE JUMPDEST POP POP POP POP POP POP JUMP JUMPDEST PUSH2 0x1786 DUP1 PUSH3 0x277 PUSH0 CODECOPY PUSH0 RETURN INVALID PUSH1 0x80 PUSH1 0x40 MSTORE CALLVALUE DUP1 ISZERO PUSH2 0xF JUMPI PUSH0 DUP1 REVERT JUMPDEST POP PUSH1 0x4 CALLDATASIZE LT PUSH2 0x127 JUMPI PUSH0 CALLDATALOAD PUSH1 0xE0 SHR DUP1 PUSH4 0x70A08231 GT PUSH2 0xA9 JUMPI DUP1 PUSH4 0xB88D4FDE GT PUSH2 0x6E JUMPI DUP1 PUSH4 0xB88D4FDE EQ PUSH2 0x260 JUMPI DUP1 PUSH4 0xC87B56DD EQ PUSH2 0x273 JUMPI DUP1 PUSH4 0xD204C45E EQ PUSH2 0x286 JUMPI DUP1 PUSH4 0xE985E9C5 EQ PUSH2 0x299 JUMPI DUP1 PUSH4 0xF2FDE38B EQ PUSH2 0x2AC JUMPI PUSH0 DUP1 REVERT JUMPDEST DUP1 PUSH4 0x70A08231 EQ PUSH2 0x219 JUMPI DUP1 PUSH4 0x715018A6 EQ PUSH2 0x22C JUMPI DUP1 PUSH4 0x8DA5CB5B EQ PUSH2 0x234 JUMPI DUP1 PUSH4 0x95D89B41 EQ PUSH2 0x245 JUMPI DUP1 PUSH4 0xA22CB465 EQ PUSH2 0x24D JUMPI PUSH0 DUP1 REVERT JUMPDEST DUP1 PUSH4 0x23B872DD GT PUSH2 0xEF JUMPI DUP1 PUSH4 0x23B872DD EQ PUSH2 0x1BA JUMPI DUP1 PUSH4 0x2F745C59 EQ PUSH2 0x1CD JUMPI DUP1 PUSH4 0x42842E0E EQ PUSH2 0x1E0 JUMPI DUP1 PUSH4 0x4F6CCCE7 EQ PUSH2 0x1F3 JUMPI DUP1 PUSH4 0x6352211E EQ PUSH2 0x206 JUMPI PUSH0 DUP1 REVERT JUMPDEST DUP1 PUSH4 0x1FFC9A7 EQ PUSH2 0x12B JUMPI DUP1 PUSH4 0x6FDDE03 EQ PUSH2 0x153 JUMPI DUP1 PUSH4 0x81812FC EQ PUSH2 0x168 JUMPI DUP1 PUSH4 0x95EA7B3 EQ PUSH2 0x193 JUMPI DUP1 PUSH4 0x18160DDD EQ PUSH2 0x1A8 JUMPI JUMPDEST PUSH0 DUP1 REVERT JUMPDEST PUSH2 0x13E PUSH2 0x139 CALLDATASIZE PUSH1 0x4 PUSH2 0x123C JUMP JUMPDEST PUSH2 0x2BF JUMP JUMPDEST PUSH1 0x40 MLOAD SWAP1 ISZERO ISZERO DUP2 MSTORE PUSH1 0x20 ADD JUMPDEST PUSH1 0x40 MLOAD DUP1 SWAP2 SUB SWAP1 RETURN JUMPDEST PUSH2 0x15B PUSH2 0x2CF JUMP JUMPDEST PUSH1 0x40 MLOAD PUSH2 0x14A SWAP2 SWAP1 PUSH2 0x12A4 JUMP JUMPDEST PUSH2 0x17B PUSH2 0x176 CALLDATASIZE PUSH1 0x4 PUSH2 0x12B6 JUMP JUMPDEST PUSH2 0x35E JUMP JUMPDEST PUSH1 0x40 MLOAD PUSH1 0x1 PUSH1 0x1 PUSH1 0xA0 SHL SUB SWAP1 SWAP2 AND DUP2 MSTORE PUSH1 0x20 ADD PUSH2 0x14A JUMP JUMPDEST PUSH2 0x1A6 PUSH2 0x1A1 CALLDATASIZE PUSH1 0x4 PUSH2 0x12E8 JUMP JUMPDEST PUSH2 0x385 JUMP JUMPDEST STOP JUMPDEST PUSH1 0x8 SLOAD JUMPDEST PUSH1 0x40 MLOAD SWAP1 DUP2 MSTORE PUSH1 0x20 ADD PUSH2 0x14A JUMP JUMPDEST PUSH2 0x1A6 PUSH2 0x1C8 CALLDATASIZE PUSH1 0x4 PUSH2 0x1310 JUMP JUMPDEST PUSH2 0x394 JUMP JUMPDEST PUSH2 0x1AC PUSH2 0x1DB CALLDATASIZE PUSH1 0x4 PUSH2 0x12E8 JUMP JUMPDEST PUSH2 0x422 JUMP JUMPDEST PUSH2 0x1A6 PUSH2 0x1EE CALLDATASIZE PUSH1 0x4 PUSH2 0x1310 JUMP JUMPDEST PUSH2 0x485 JUMP JUMPDEST PUSH2 0x1AC PUSH2 0x201 CALLDATASIZE PUSH1 0x4 PUSH2 0x12B6 JUMP JUMPDEST PUSH2 0x4A4 JUMP JUMPDEST PUSH2 0x17B PUSH2 0x214 CALLDATASIZE PUSH1 0x4 PUSH2 0x12B6 JUMP JUMPDEST PUSH2 0x4F9 JUMP JUMPDEST PUSH2 0x1AC PUSH2 0x227 CALLDATASIZE PUSH1 0x4 PUSH2 0x1349 JUMP JUMPDEST PUSH2 0x503 JUMP JUMPDEST PUSH2 0x1A6 PUSH2 0x548 JUMP JUMPDEST PUSH1 0xB SLOAD PUSH1 0x1 PUSH1 0x1 PUSH1 0xA0 SHL SUB AND PUSH2 0x17B JUMP JUMPDEST PUSH2 0x15B PUSH2 0x55B JUMP JUMPDEST PUSH2 0x1A6 PUSH2 0x25B CALLDATASIZE PUSH1 0x4 PUSH2 0x1362 JUMP JUMPDEST PUSH2 0x56A JUMP JUMPDEST PUSH2 0x1A6 PUSH2 0x26E CALLDATASIZE PUSH1 0x4 PUSH2 0x1422 JUMP JUMPDEST PUSH2 0x575 JUMP JUMPDEST PUSH2 0x15B PUSH2 0x281 CALLDATASIZE PUSH1 0x4 PUSH2 0x12B6 JUMP JUMPDEST PUSH2 0x58C JUMP JUMPDEST PUSH2 0x1A6 PUSH2 0x294 CALLDATASIZE PUSH1 0x4 PUSH2 0x1499 JUMP JUMPDEST PUSH2 0x597 JUMP JUMPDEST PUSH2 0x13E PUSH2 0x2A7 CALLDATASIZE PUSH1 0x4 PUSH2 0x14F7 JUMP JUMPDEST PUSH2 0x5C9 JUMP JUMPDEST PUSH2 0x1A6 PUSH2 0x2BA CALLDATASIZE PUSH1 0x4 PUSH2 0x1349 JUMP JUMPDEST PUSH2 0x5F6 JUMP JUMPDEST PUSH0 PUSH2 0x2C9 DUP3 PUSH2 0x633 JUMP JUMPDEST SWAP3 SWAP2 POP POP JUMP JUMPDEST PUSH1 0x60 PUSH0 DUP1 SLOAD PUSH2 0x2DD SWAP1 PUSH2 0x1528 JUMP JUMPDEST DUP1 PUSH1 0x1F ADD PUSH1 0x20 DUP1 SWAP2 DIV MUL PUSH1 0x20 ADD PUSH1 0x40 MLOAD SWAP1 DUP2 ADD PUSH1 0x40 MSTORE DUP1 SWAP3 SWAP2 SWAP1 DUP2 DUP2 MSTORE PUSH1 0x20 ADD DUP3 DUP1 SLOAD PUSH2 0x309 SWAP1 PUSH2 0x1528 JUMP JUMPDEST DUP1 ISZERO PUSH2 0x354 JUMPI DUP1 PUSH1 0x1F LT PUSH2 0x32B JUMPI PUSH2 0x100 DUP1 DUP4 SLOAD DIV MUL DUP4 MSTORE SWAP2 PUSH1 0x20 ADD SWAP2 PUSH2 0x354 JUMP JUMPDEST DUP3 ADD SWAP2 SWAP1 PUSH0 MSTORE PUSH1 0x20 PUSH0 KECCAK256 SWAP1 JUMPDEST DUP2 SLOAD DUP2 MSTORE SWAP1 PUSH1 0x1 ADD SWAP1 PUSH1 0x20 ADD DUP1 DUP4 GT PUSH2 0x337 JUMPI DUP3 SWAP1 SUB PUSH1 0x1F AND DUP3 ADD SWAP2 JUMPDEST POP POP POP POP POP SWAP1 POP SWAP1 JUMP JUMPDEST PUSH0 PUSH2 0x368 DUP3 PUSH2 0x657 JUMP JUMPDEST POP PUSH0 DUP3 DUP2 MSTORE PUSH1 0x4 PUSH1 0x20 MSTORE PUSH1 0x40 SWAP1 KECCAK256 SLOAD PUSH1 0x1 PUSH1 0x1 PUSH1 0xA0 SHL SUB AND PUSH2 0x2C9 JUMP JUMPDEST PUSH2 0x390 DUP3 DUP3 CALLER PUSH2 0x68F JUMP JUMPDEST POP POP JUMP JUMPDEST PUSH1 0x1 PUSH1 0x1 PUSH1 0xA0 SHL SUB DUP3 AND PUSH2 0x3C2 JUMPI PUSH1 0x40 MLOAD PUSH4 0x32505749 PUSH1 0xE1 SHL DUP2 MSTORE PUSH0 PUSH1 0x4 DUP3 ADD MSTORE PUSH1 0x24 ADD JUMPDEST PUSH1 0x40 MLOAD DUP1 SWAP2 SUB SWAP1 REVERT JUMPDEST PUSH0 PUSH2 0x3CE DUP4 DUP4 CALLER PUSH2 0x69C JUMP JUMPDEST SWAP1 POP DUP4 PUSH1 0x1 PUSH1 0x1 PUSH1 0xA0 SHL SUB AND DUP2 PUSH1 0x1 PUSH1 0x1 PUSH1 0xA0 SHL SUB AND EQ PUSH2 0x41C JUMPI PUSH1 0x40 MLOAD PUSH4 0x64283D7B PUSH1 0xE0 SHL DUP2 MSTORE PUSH1 0x1 PUSH1 0x1 PUSH1 0xA0 SHL SUB DUP1 DUP7 AND PUSH1 0x4 DUP4 ADD MSTORE PUSH1 0x24 DUP3 ADD DUP5 SWAP1 MSTORE DUP3 AND PUSH1 0x44 DUP3 ADD MSTORE PUSH1 0x64 ADD PUSH2 0x3B9 JUMP JUMPDEST POP POP POP POP JUMP JUMPDEST PUSH0 PUSH2 0x42C DUP4 PUSH2 0x503 JUMP JUMPDEST DUP3 LT PUSH2 0x45D JUMPI PUSH1 0x40 MLOAD PUSH4 0x295F44F7 PUSH1 0xE2 SHL DUP2 MSTORE PUSH1 0x1 PUSH1 0x1 PUSH1 0xA0 SHL SUB DUP5 AND PUSH1 0x4 DUP3 ADD MSTORE PUSH1 0x24 DUP2 ADD DUP4 SWAP1 MSTORE PUSH1 0x44 ADD PUSH2 0x3B9 JUMP JUMPDEST POP PUSH1 0x1 PUSH1 0x1 PUSH1 0xA0 SHL SUB SWAP2 SWAP1 SWAP2 AND PUSH0 SWAP1 DUP2 MSTORE PUSH1 0x6 PUSH1 0x20 SWAP1 DUP2 MSTORE PUSH1 0x40 DUP1 DUP4 KECCAK256 SWAP4 DUP4 MSTORE SWAP3 SWAP1 MSTORE KECCAK256 SLOAD SWAP1 JUMP JUMPDEST PUSH2 0x49F DUP4 DUP4 DUP4 PUSH1 0x40 MLOAD DUP1 PUSH1 0x20 ADD PUSH1 0x40 MSTORE DUP1 PUSH0 DUP2 MSTORE POP PUSH2 0x575 JUMP JUMPDEST POP POP POP JUMP JUMPDEST PUSH0 PUSH2 0x4AE PUSH1 0x8 SLOAD SWAP1 JUMP JUMPDEST DUP3 LT PUSH2 0x4D6 JUMPI PUSH1 0x40 MLOAD PUSH4 0x295F44F7 PUSH1 0xE2 SHL DUP2 MSTORE PUSH0 PUSH1 0x4 DUP3 ADD MSTORE PUSH1 0x24 DUP2 ADD DUP4 SWAP1 MSTORE PUSH1 0x44 ADD PUSH2 0x3B9 JUMP JUMPDEST PUSH1 0x8 DUP3 DUP2 SLOAD DUP2 LT PUSH2 0x4E9 JUMPI PUSH2 0x4E9 PUSH2 0x1560 JUMP JUMPDEST SWAP1 PUSH0 MSTORE PUSH1 0x20 PUSH0 KECCAK256 ADD SLOAD SWAP1 POP SWAP2 SWAP1 POP JUMP JUMPDEST PUSH0 PUSH2 0x2C9 DUP3 PUSH2 0x657 JUMP JUMPDEST PUSH0 PUSH1 0x1 PUSH1 0x1 PUSH1 0xA0 SHL SUB DUP3 AND PUSH2 0x52D JUMPI PUSH1 0x40 MLOAD PUSH4 0x22718AD9 PUSH1 0xE2 SHL DUP2 MSTORE PUSH0 PUSH1 0x4 DUP3 ADD MSTORE PUSH1 0x24 ADD PUSH2 0x3B9 JUMP JUMPDEST POP PUSH1 0x1 PUSH1 0x1 PUSH1 0xA0 SHL SUB AND PUSH0 SWAP1 DUP2 MSTORE PUSH1 0x3 PUSH1 0x20 MSTORE PUSH1 0x40 SWAP1 KECCAK256 SLOAD SWAP1 JUMP JUMPDEST PUSH2 0x550 PUSH2 0x6B0 JUMP JUMPDEST PUSH2 0x559 PUSH0 PUSH2 0x6DD JUMP JUMPDEST JUMP JUMPDEST PUSH1 0x60 PUSH1 0x1 DUP1 SLOAD PUSH2 0x2DD SWAP1 PUSH2 0x1528 JUMP JUMPDEST PUSH2 0x390 CALLER DUP4 DUP4 PUSH2 0x72E JUMP JUMPDEST PUSH2 0x580 DUP5 DUP5 DUP5 PUSH2 0x394 JUMP JUMPDEST PUSH2 0x41C DUP5 DUP5 DUP5 DUP5 PUSH2 0x7CC JUMP JUMPDEST PUSH1 0x60 PUSH2 0x2C9 DUP3 PUSH2 0x8F2 JUMP JUMPDEST PUSH2 0x59F PUSH2 0x6B0 JUMP JUMPDEST PUSH1 0xC DUP1 SLOAD PUSH0 SWAP2 DUP3 PUSH2 0x5AF DUP4 PUSH2 0x1588 JUMP JUMPDEST SWAP2 SWAP1 POP SSTORE SWAP1 POP PUSH2 0x5BF DUP4 DUP3 PUSH2 0x9F5 JUMP JUMPDEST PUSH2 0x49F DUP2 DUP4 PUSH2 0xA0E JUMP JUMPDEST PUSH1 0x1 PUSH1 0x1 PUSH1 0xA0 SHL SUB SWAP2 DUP3 AND PUSH0 SWAP1 DUP2 MSTORE PUSH1 0x5 PUSH1 0x20 SWAP1 DUP2 MSTORE PUSH1 0x40 DUP1 DUP4 KECCAK256 SWAP4 SWAP1 SWAP5 AND DUP3 MSTORE SWAP2 SWAP1 SWAP2 MSTORE KECCAK256 SLOAD PUSH1 0xFF AND SWAP1 JUMP JUMPDEST PUSH2 0x5FE PUSH2 0x6B0 JUMP JUMPDEST PUSH1 0x1 PUSH1 0x1 PUSH1 0xA0 SHL SUB DUP2 AND PUSH2 0x627 JUMPI PUSH1 0x40 MLOAD PUSH4 0x1E4FBDF7 PUSH1 0xE0 SHL DUP2 MSTORE PUSH0 PUSH1 0x4 DUP3 ADD MSTORE PUSH1 0x24 ADD PUSH2 0x3B9 JUMP JUMPDEST PUSH2 0x630 DUP2 PUSH2 0x6DD JUMP JUMPDEST POP JUMP JUMPDEST PUSH0 PUSH1 0x1 PUSH1 0x1 PUSH1 0xE0 SHL SUB NOT DUP3 AND PUSH4 0x24832483 PUSH1 0xE1 SHL EQ DUP1 PUSH2 0x2C9 JUMPI POP PUSH2 0x2C9 DUP3 PUSH2 0xA5D JUMP JUMPDEST PUSH0 DUP2 DUP2 MSTORE PUSH1 0x2 PUSH1 0x20 MSTORE PUSH1 0x40 DUP2 KECCAK256 SLOAD PUSH1 0x1 PUSH1 0x1 PUSH1 0xA0 SHL SUB AND DUP1 PUSH2 0x2C9 JUMPI PUSH1 0x40 MLOAD PUSH4 0x7E273289 PUSH1 0xE0 SHL DUP2 MSTORE PUSH1 0x4 DUP2 ADD DUP5 SWAP1 MSTORE PUSH1 0x24 ADD PUSH2 0x3B9 JUMP JUMPDEST PUSH2 0x49F DUP4 DUP4 DUP4 PUSH1 0x1 PUSH2 0xA81 JUMP JUMPDEST PUSH0 PUSH2 0x6A8 DUP5 DUP5 DUP5 PUSH2 0xB85 JUMP JUMPDEST SWAP5 SWAP4 POP POP POP POP JUMP JUMPDEST PUSH1 0xB SLOAD PUSH1 0x1 PUSH1 0x1 PUSH1 0xA0 SHL SUB AND CALLER EQ PUSH2 0x559 JUMPI PUSH1 0x40 MLOAD PUSH4 0x118CDAA7 PUSH1 0xE0 SHL DUP2 MSTORE CALLER PUSH1 0x4 DUP3 ADD MSTORE PUSH1 0x24 ADD PUSH2 0x3B9 JUMP JUMPDEST PUSH1 0xB DUP1 SLOAD PUSH1 0x1 PUSH1 0x1 PUSH1 0xA0 SHL SUB DUP4 DUP2 AND PUSH1 0x1 PUSH1 0x1 PUSH1 0xA0 SHL SUB NOT DUP4 AND DUP2 OR SWAP1 SWAP4 SSTORE PUSH1 0x40 MLOAD SWAP2 AND SWAP2 SWAP1 DUP3 SWAP1 PUSH32 0x8BE0079C531659141344CD1FD0A4F28419497F9722A3DAAFE3B4186F6B6457E0 SWAP1 PUSH0 SWAP1 LOG3 POP POP JUMP JUMPDEST PUSH1 0x1 PUSH1 0x1 PUSH1 0xA0 SHL SUB DUP3 AND PUSH2 0x760 JUMPI PUSH1 0x40 MLOAD PUSH4 0xB611743 PUSH1 0xE3 SHL DUP2 MSTORE PUSH1 0x1 PUSH1 0x1 PUSH1 0xA0 SHL SUB DUP4 AND PUSH1 0x4 DUP3 ADD MSTORE PUSH1 0x24 ADD PUSH2 0x3B9 JUMP JUMPDEST PUSH1 0x1 PUSH1 0x1 PUSH1 0xA0 SHL SUB DUP4 DUP2 AND PUSH0 DUP2 DUP2 MSTORE PUSH1 0x5 PUSH1 0x20 SWAP1 DUP2 MSTORE PUSH1 0x40 DUP1 DUP4 KECCAK256 SWAP5 DUP8 AND DUP1 DUP5 MSTORE SWAP5 DUP3 MSTORE SWAP2 DUP3 SWAP1 KECCAK256 DUP1 SLOAD PUSH1 0xFF NOT AND DUP7 ISZERO ISZERO SWAP1 DUP2 OR SWAP1 SWAP2 SSTORE SWAP2 MLOAD SWAP2 DUP3 MSTORE PUSH32 0x17307EAB39AB6107E8899845AD3D59BD9653F200F220920489CA2B5937696C31 SWAP2 ADD PUSH1 0x40 MLOAD DUP1 SWAP2 SUB SWAP1 LOG3 POP POP POP JUMP JUMPDEST PUSH1 0x1 PUSH1 0x1 PUSH1 0xA0 SHL SUB DUP4 AND EXTCODESIZE ISZERO PUSH2 0x41C JUMPI PUSH1 0x40 MLOAD PUSH4 0xA85BD01 PUSH1 0xE1 SHL DUP2 MSTORE PUSH1 0x1 PUSH1 0x1 PUSH1 0xA0 SHL SUB DUP5 AND SWAP1 PUSH4 0x150B7A02 SWAP1 PUSH2 0x80E SWAP1 CALLER SWAP1 DUP9 SWAP1 DUP8 SWAP1 DUP8 SWAP1 PUSH1 0x4 ADD PUSH2 0x15A0 JUMP JUMPDEST PUSH1 0x20 PUSH1 0x40 MLOAD DUP1 DUP4 SUB DUP2 PUSH0 DUP8 GAS CALL SWAP3 POP POP POP DUP1 ISZERO PUSH2 0x848 JUMPI POP PUSH1 0x40 DUP1 MLOAD PUSH1 0x1F RETURNDATASIZE SWAP1 DUP2 ADD PUSH1 0x1F NOT AND DUP3 ADD SWAP1 SWAP3 MSTORE PUSH2 0x845 SWAP2 DUP2 ADD SWAP1 PUSH2 0x15DC JUMP JUMPDEST PUSH1 0x1 JUMPDEST PUSH2 0x8AF JUMPI RETURNDATASIZE DUP1 DUP1 ISZERO PUSH2 0x875 JUMPI PUSH1 0x40 MLOAD SWAP2 POP PUSH1 0x1F NOT PUSH1 0x3F RETURNDATASIZE ADD AND DUP3 ADD PUSH1 0x40 MSTORE RETURNDATASIZE DUP3 MSTORE RETURNDATASIZE PUSH0 PUSH1 0x20 DUP5 ADD RETURNDATACOPY PUSH2 0x87A JUMP JUMPDEST PUSH1 0x60 SWAP2 POP JUMPDEST POP DUP1 MLOAD PUSH0 SUB PUSH2 0x8A7 JUMPI PUSH1 0x40 MLOAD PUSH4 0x32505749 PUSH1 0xE1 SHL DUP2 MSTORE PUSH1 0x1 PUSH1 0x1 PUSH1 0xA0 SHL SUB DUP6 AND PUSH1 0x4 DUP3 ADD MSTORE PUSH1 0x24 ADD PUSH2 0x3B9 JUMP JUMPDEST DUP1 MLOAD DUP2 PUSH1 0x20 ADD REVERT JUMPDEST PUSH1 0x1 PUSH1 0x1 PUSH1 0xE0 SHL SUB NOT DUP2 AND PUSH4 0xA85BD01 PUSH1 0xE1 SHL EQ PUSH2 0x8EB JUMPI PUSH1 0x40 MLOAD PUSH4 0x32505749 PUSH1 0xE1 SHL DUP2 MSTORE PUSH1 0x1 PUSH1 0x1 PUSH1 0xA0 SHL SUB DUP6 AND PUSH1 0x4 DUP3 ADD MSTORE PUSH1 0x24 ADD PUSH2 0x3B9 JUMP JUMPDEST POP POP POP POP POP JUMP JUMPDEST PUSH1 0x60 PUSH2 0x8FD DUP3 PUSH2 0x657 JUMP JUMPDEST POP PUSH0 DUP3 DUP2 MSTORE PUSH1 0xA PUSH1 0x20 MSTORE PUSH1 0x40 DUP2 KECCAK256 DUP1 SLOAD PUSH2 0x916 SWAP1 PUSH2 0x1528 JUMP JUMPDEST DUP1 PUSH1 0x1F ADD PUSH1 0x20 DUP1 SWAP2 DIV MUL PUSH1 0x20 ADD PUSH1 0x40 MLOAD SWAP1 DUP2 ADD PUSH1 0x40 MSTORE DUP1 SWAP3 SWAP2 SWAP1 DUP2 DUP2 MSTORE PUSH1 0x20 ADD DUP3 DUP1 SLOAD PUSH2 0x942 SWAP1 PUSH2 0x1528 JUMP JUMPDEST DUP1 ISZERO PUSH2 0x98D JUMPI DUP1 PUSH1 0x1F LT PUSH2 0x964 JUMPI PUSH2 0x100 DUP1 DUP4 SLOAD DIV MUL DUP4 MSTORE SWAP2 PUSH1 0x20 ADD SWAP2 PUSH2 0x98D JUMP JUMPDEST DUP3 ADD SWAP2 SWAP1 PUSH0 MSTORE PUSH1 0x20 PUSH0 KECCAK256 SWAP1 JUMPDEST DUP2 SLOAD DUP2 MSTORE SWAP1 PUSH1 0x1 ADD SWAP1 PUSH1 0x20 ADD DUP1 DUP4 GT PUSH2 0x970 JUMPI DUP3 SWAP1 SUB PUSH1 0x1F AND DUP3 ADD SWAP2 JUMPDEST POP POP POP POP POP SWAP1 POP PUSH0 PUSH2 0x9A9 PUSH1 0x40 DUP1 MLOAD PUSH1 0x20 DUP2 ADD SWAP1 SWAP2 MSTORE PUSH0 DUP2 MSTORE SWAP1 JUMP JUMPDEST SWAP1 POP DUP1 MLOAD PUSH0 SUB PUSH2 0x9BA JUMPI POP SWAP3 SWAP2 POP POP JUMP JUMPDEST DUP2 MLOAD ISZERO PUSH2 0x9EC JUMPI DUP1 DUP3 PUSH1 0x40 MLOAD PUSH1 0x20 ADD PUSH2 0x9D4 SWAP3 SWAP2 SWAP1 PUSH2 0x15F7 JUMP JUMPDEST PUSH1 0x40 MLOAD PUSH1 0x20 DUP2 DUP4 SUB SUB DUP2 MSTORE SWAP1 PUSH1 0x40 MSTORE SWAP3 POP POP POP SWAP2 SWAP1 POP JUMP JUMPDEST PUSH2 0x6A8 DUP5 PUSH2 0xC50 JUMP JUMPDEST PUSH2 0x390 DUP3 DUP3 PUSH1 0x40 MLOAD DUP1 PUSH1 0x20 ADD PUSH1 0x40 MSTORE DUP1 PUSH0 DUP2 MSTORE POP PUSH2 0xCC1 JUMP JUMPDEST PUSH0 DUP3 DUP2 MSTORE PUSH1 0xA PUSH1 0x20 MSTORE PUSH1 0x40 SWAP1 KECCAK256 PUSH2 0xA25 DUP3 DUP3 PUSH2 0x1669 JUMP JUMPDEST POP PUSH1 0x40 MLOAD DUP3 DUP2 MSTORE PUSH32 0xF8E1A15ABA9398E019F0B49DF1A4FDE98EE17AE345CB5F6B5E2C27F5033E8CE7 SWAP1 PUSH1 0x20 ADD PUSH1 0x40 MLOAD DUP1 SWAP2 SUB SWAP1 LOG1 POP POP JUMP JUMPDEST PUSH0 PUSH1 0x1 PUSH1 0x1 PUSH1 0xE0 SHL SUB NOT DUP3 AND PUSH4 0x780E9D63 PUSH1 0xE0 SHL EQ DUP1 PUSH2 0x2C9 JUMPI POP PUSH2 0x2C9 DUP3 PUSH2 0xCD7 JUMP JUMPDEST DUP1 DUP1 PUSH2 0xA95 JUMPI POP PUSH1 0x1 PUSH1 0x1 PUSH1 0xA0 SHL SUB DUP3 AND ISZERO ISZERO JUMPDEST ISZERO PUSH2 0xB56 JUMPI PUSH0 PUSH2 0xAA4 DUP5 PUSH2 0x657 JUMP JUMPDEST SWAP1 POP PUSH1 0x1 PUSH1 0x1 PUSH1 0xA0 SHL SUB DUP4 AND ISZERO DUP1 ISZERO SWAP1 PUSH2 0xAD0 JUMPI POP DUP3 PUSH1 0x1 PUSH1 0x1 PUSH1 0xA0 SHL SUB AND DUP2 PUSH1 0x1 PUSH1 0x1 PUSH1 0xA0 SHL SUB AND EQ ISZERO JUMPDEST DUP1 ISZERO PUSH2 0xAE3 JUMPI POP PUSH2 0xAE1 DUP2 DUP5 PUSH2 0x5C9 JUMP JUMPDEST ISZERO JUMPDEST ISZERO PUSH2 0xB0C JUMPI PUSH1 0x40 MLOAD PUSH4 0xA9FBF51F PUSH1 0xE0 SHL DUP2 MSTORE PUSH1 0x1 PUSH1 0x1 PUSH1 0xA0 SHL SUB DUP5 AND PUSH1 0x4 DUP3 ADD MSTORE PUSH1 0x24 ADD PUSH2 0x3B9 JUMP JUMPDEST DUP2 ISZERO PUSH2 0xB54 JUMPI DUP4 DUP6 PUSH1 0x1 PUSH1 0x1 PUSH1 0xA0 SHL SUB AND DUP3 PUSH1 0x1 PUSH1 0x1 PUSH1 0xA0 SHL SUB AND PUSH32 0x8C5BE1E5EBEC7D5BD14F71427D1E84F3DD0314C0F7B2291E5B200AC8C7C3B925 PUSH1 0x40 MLOAD PUSH1 0x40 MLOAD DUP1 SWAP2 SUB SWAP1 LOG4 JUMPDEST POP JUMPDEST POP POP PUSH0 SWAP1 DUP2 MSTORE PUSH1 0x4 PUSH1 0x20 MSTORE PUSH1 0x40 SWAP1 KECCAK256 DUP1 SLOAD PUSH1 0x1 PUSH1 0x1 PUSH1 0xA0 SHL SUB NOT AND PUSH1 0x1 PUSH1 0x1 PUSH1 0xA0 SHL SUB SWAP3 SWAP1 SWAP3 AND SWAP2 SWAP1 SWAP2 OR SWAP1 SSTORE JUMP JUMPDEST PUSH0 DUP1 PUSH2 0xB92 DUP6 DUP6 DUP6 PUSH2 0xD26 JUMP JUMPDEST SWAP1 POP PUSH1 0x1 PUSH1 0x1 PUSH1 0xA0 SHL SUB DUP2 AND PUSH2 0xBEE JUMPI PUSH2 0xBE9 DUP5 PUSH1 0x8 DUP1 SLOAD PUSH0 DUP4 DUP2 MSTORE PUSH1 0x9 PUSH1 0x20 MSTORE PUSH1 0x40 DUP2 KECCAK256 DUP3 SWAP1 SSTORE PUSH1 0x1 DUP3 ADD DUP4 SSTORE SWAP2 SWAP1 SWAP2 MSTORE PUSH32 0xF3F7A9FE364FAAB93B216DA50A3214154F22A0A2B415B23A84C8169E8B636EE3 ADD SSTORE JUMP JUMPDEST PUSH2 0xC11 JUMP JUMPDEST DUP5 PUSH1 0x1 PUSH1 0x1 PUSH1 0xA0 SHL SUB AND DUP2 PUSH1 0x1 PUSH1 0x1 PUSH1 0xA0 SHL SUB AND EQ PUSH2 0xC11 JUMPI PUSH2 0xC11 DUP2 DUP6 PUSH2 0xE18 JUMP JUMPDEST PUSH1 0x1 PUSH1 0x1 PUSH1 0xA0 SHL SUB DUP6 AND PUSH2 0xC2D JUMPI PUSH2 0xC28 DUP5 PUSH2 0xEA5 JUMP JUMPDEST PUSH2 0x6A8 JUMP JUMPDEST DUP5 PUSH1 0x1 PUSH1 0x1 PUSH1 0xA0 SHL SUB AND DUP2 PUSH1 0x1 PUSH1 0x1 PUSH1 0xA0 SHL SUB AND EQ PUSH2 0x6A8 JUMPI PUSH2 0x6A8 DUP6 DUP6 PUSH2 0xF4C JUMP JUMPDEST PUSH1 0x60 PUSH2 0xC5B DUP3 PUSH2 0x657 JUMP JUMPDEST POP PUSH0 PUSH2 0xC71 PUSH1 0x40 DUP1 MLOAD PUSH1 0x20 DUP2 ADD SWAP1 SWAP2 MSTORE PUSH0 DUP2 MSTORE SWAP1 JUMP JUMPDEST SWAP1 POP PUSH0 DUP2 MLOAD GT PUSH2 0xC8F JUMPI PUSH1 0x40 MLOAD DUP1 PUSH1 0x20 ADD PUSH1 0x40 MSTORE DUP1 PUSH0 DUP2 MSTORE POP PUSH2 0xCBA JUMP JUMPDEST DUP1 PUSH2 0xC99 DUP5 PUSH2 0xF9A JUMP JUMPDEST PUSH1 0x40 MLOAD PUSH1 0x20 ADD PUSH2 0xCAA SWAP3 SWAP2 SWAP1 PUSH2 0x15F7 JUMP JUMPDEST PUSH1 0x40 MLOAD PUSH1 0x20 DUP2 DUP4 SUB SUB DUP2 MSTORE SWAP1 PUSH1 0x40 MSTORE JUMPDEST SWAP4 SWAP3 POP POP POP JUMP JUMPDEST PUSH2 0xCCB DUP4 DUP4 PUSH2 0x102A JUMP JUMPDEST PUSH2 0x49F PUSH0 DUP5 DUP5 DUP5 PUSH2 0x7CC JUMP JUMPDEST PUSH0 PUSH1 0x1 PUSH1 0x1 PUSH1 0xE0 SHL SUB NOT DUP3 AND PUSH4 0x80AC58CD PUSH1 0xE0 SHL EQ DUP1 PUSH2 0xD07 JUMPI POP PUSH1 0x1 PUSH1 0x1 PUSH1 0xE0 SHL SUB NOT DUP3 AND PUSH4 0x5B5E139F PUSH1 0xE0 SHL EQ JUMPDEST DUP1 PUSH2 0x2C9 JUMPI POP PUSH4 0x1FFC9A7 PUSH1 0xE0 SHL PUSH1 0x1 PUSH1 0x1 PUSH1 0xE0 SHL SUB NOT DUP4 AND EQ PUSH2 0x2C9 JUMP JUMPDEST PUSH0 DUP3 DUP2 MSTORE PUSH1 0x2 PUSH1 0x20 MSTORE PUSH1 0x40 DUP2 KECCAK256 SLOAD PUSH1 0x1 PUSH1 0x1 PUSH1 0xA0 SHL SUB SWAP1 DUP2 AND SWAP1 DUP4 AND ISZERO PUSH2 0xD52 JUMPI PUSH2 0xD52 DUP2 DUP5 DUP7 PUSH2 0x108B JUMP JUMPDEST PUSH1 0x1 PUSH1 0x1 PUSH1 0xA0 SHL SUB DUP2 AND ISZERO PUSH2 0xD8C JUMPI PUSH2 0xD6D PUSH0 DUP6 PUSH0 DUP1 PUSH2 0xA81 JUMP JUMPDEST PUSH1 0x1 PUSH1 0x1 PUSH1 0xA0 SHL SUB DUP2 AND PUSH0 SWAP1 DUP2 MSTORE PUSH1 0x3 PUSH1 0x20 MSTORE PUSH1 0x40 SWAP1 KECCAK256 DUP1 SLOAD PUSH0 NOT ADD SWAP1 SSTORE JUMPDEST PUSH1 0x1 PUSH1 0x1 PUSH1 0xA0 SHL SUB DUP6 AND ISZERO PUSH2 0xDBA JUMPI PUSH1 0x1 PUSH1 0x1 PUSH1 0xA0 SHL SUB DUP6 AND PUSH0 SWAP1 DUP2 MSTORE PUSH1 0x3 PUSH1 0x20 MSTORE PUSH1 0x40 SWAP1 KECCAK256 DUP1 SLOAD PUSH1 0x1 ADD SWAP1 SSTORE JUMPDEST PUSH0 DUP5 DUP2 MSTORE PUSH1 0x2 PUSH1 0x20 MSTORE PUSH1 0x40 DUP1 DUP3 KECCAK256 DUP1 SLOAD PUSH1 0x1 PUSH1 0x1 PUSH1 0xA0 SHL SUB NOT AND PUSH1 0x1 PUSH1 0x1 PUSH1 0xA0 SHL SUB DUP10 DUP2 AND SWAP2 DUP3 OR SWAP1 SWAP3 SSTORE SWAP2 MLOAD DUP8 SWAP4 SWAP2 DUP6 AND SWAP2 PUSH32 0xDDF252AD1BE2C89B69C2B068FC378DAA952BA7F163C4A11628F55A4DF523B3EF SWAP2 LOG4 SWAP5 SWAP4 POP POP POP POP JUMP JUMPDEST PUSH0 PUSH2 0xE22 DUP4 PUSH2 0x503 JUMP JUMPDEST PUSH0 DUP4 DUP2 MSTORE PUSH1 0x7 PUSH1 0x20 MSTORE PUSH1 0x40 SWAP1 KECCAK256 SLOAD SWAP1 SWAP2 POP DUP1 DUP3 EQ PUSH2 0xE73 JUMPI PUSH1 0x1 PUSH1 0x1 PUSH1 0xA0 SHL SUB DUP5 AND PUSH0 SWAP1 DUP2 MSTORE PUSH1 0x6 PUSH1 0x20 SWAP1 DUP2 MSTORE PUSH1 0x40 DUP1 DUP4 KECCAK256 DUP6 DUP5 MSTORE DUP3 MSTORE DUP1 DUP4 KECCAK256 SLOAD DUP5 DUP5 MSTORE DUP2 DUP5 KECCAK256 DUP2 SWAP1 SSTORE DUP4 MSTORE PUSH1 0x7 SWAP1 SWAP2 MSTORE SWAP1 KECCAK256 DUP2 SWAP1 SSTORE JUMPDEST POP PUSH0 SWAP2 DUP3 MSTORE PUSH1 0x7 PUSH1 0x20 SWAP1 DUP2 MSTORE PUSH1 0x40 DUP1 DUP5 KECCAK256 DUP5 SWAP1 SSTORE PUSH1 0x1 PUSH1 0x1 PUSH1 0xA0 SHL SUB SWAP1 SWAP5 AND DUP4 MSTORE PUSH1 0x6 DUP2 MSTORE DUP4 DUP4 KECCAK256 SWAP2 DUP4 MSTORE MSTORE SWAP1 DUP2 KECCAK256 SSTORE JUMP JUMPDEST PUSH1 0x8 SLOAD PUSH0 SWAP1 PUSH2 0xEB6 SWAP1 PUSH1 0x1 SWAP1 PUSH2 0x1729 JUMP JUMPDEST PUSH0 DUP4 DUP2 MSTORE PUSH1 0x9 PUSH1 0x20 MSTORE PUSH1 0x40 DUP2 KECCAK256 SLOAD PUSH1 0x8 DUP1 SLOAD SWAP4 SWAP5 POP SWAP1 SWAP3 DUP5 SWAP1 DUP2 LT PUSH2 0xEDD JUMPI PUSH2 0xEDD PUSH2 0x1560 JUMP JUMPDEST SWAP1 PUSH0 MSTORE PUSH1 0x20 PUSH0 KECCAK256 ADD SLOAD SWAP1 POP DUP1 PUSH1 0x8 DUP4 DUP2 SLOAD DUP2 LT PUSH2 0xEFC JUMPI PUSH2 0xEFC PUSH2 0x1560 JUMP JUMPDEST PUSH0 SWAP2 DUP3 MSTORE PUSH1 0x20 DUP1 DUP4 KECCAK256 SWAP1 SWAP2 ADD SWAP3 SWAP1 SWAP3 SSTORE DUP3 DUP2 MSTORE PUSH1 0x9 SWAP1 SWAP2 MSTORE PUSH1 0x40 DUP1 DUP3 KECCAK256 DUP5 SWAP1 SSTORE DUP6 DUP3 MSTORE DUP2 KECCAK256 SSTORE PUSH1 0x8 DUP1 SLOAD DUP1 PUSH2 0xF33 JUMPI PUSH2 0xF33 PUSH2 0x173C JUMP JUMPDEST PUSH1 0x1 SWAP1 SUB DUP2 DUP2 SWAP1 PUSH0 MSTORE PUSH1 0x20 PUSH0 KECCAK256 ADD PUSH0 SWAP1 SSTORE SWAP1 SSTORE POP POP POP POP JUMP JUMPDEST PUSH0 PUSH1 0x1 PUSH2 0xF58 DUP5 PUSH2 0x503 JUMP JUMPDEST PUSH2 0xF62 SWAP2 SWAP1 PUSH2 0x1729 JUMP JUMPDEST PUSH1 0x1 PUSH1 0x1 PUSH1 0xA0 SHL SUB SWAP1 SWAP4 AND PUSH0 SWAP1 DUP2 MSTORE PUSH1 0x6 PUSH1 0x20 SWAP1 DUP2 MSTORE PUSH1 0x40 DUP1 DUP4 KECCAK256 DUP7 DUP5 MSTORE DUP3 MSTORE DUP1 DUP4 KECCAK256 DUP6 SWAP1 SSTORE SWAP4 DUP3 MSTORE PUSH1 0x7 SWAP1 MSTORE SWAP2 SWAP1 SWAP2 KECCAK256 SWAP2 SWAP1 SWAP2 SSTORE POP JUMP JUMPDEST PUSH1 0x60 PUSH0 PUSH2 0xFA6 DUP4 PUSH2 0x10EF JUMP JUMPDEST PUSH1 0x1 ADD SWAP1 POP PUSH0 DUP2 PUSH8 0xFFFFFFFFFFFFFFFF DUP2 GT ISZERO PUSH2 0xFC5 JUMPI PUSH2 0xFC5 PUSH2 0x139B JUMP JUMPDEST PUSH1 0x40 MLOAD SWAP1 DUP1 DUP3 MSTORE DUP1 PUSH1 0x1F ADD PUSH1 0x1F NOT AND PUSH1 0x20 ADD DUP3 ADD PUSH1 0x40 MSTORE DUP1 ISZERO PUSH2 0xFEF JUMPI PUSH1 0x20 DUP3 ADD DUP2 DUP1 CALLDATASIZE DUP4 CALLDATACOPY ADD SWAP1 POP JUMPDEST POP SWAP1 POP DUP2 DUP2 ADD PUSH1 0x20 ADD JUMPDEST PUSH0 NOT ADD PUSH16 0x181899199A1A9B1B9C1CB0B131B232B3 PUSH1 0x81 SHL PUSH1 0xA DUP7 MOD BYTE DUP2 MSTORE8 PUSH1 0xA DUP6 DIV SWAP5 POP DUP5 PUSH2 0xFF9 JUMPI POP SWAP4 SWAP3 POP POP POP JUMP JUMPDEST PUSH1 0x1 PUSH1 0x1 PUSH1 0xA0 SHL SUB DUP3 AND PUSH2 0x1053 JUMPI PUSH1 0x40 MLOAD PUSH4 0x32505749 PUSH1 0xE1 SHL DUP2 MSTORE PUSH0 PUSH1 0x4 DUP3 ADD MSTORE PUSH1 0x24 ADD PUSH2 0x3B9 JUMP JUMPDEST PUSH0 PUSH2 0x105F DUP4 DUP4 PUSH0 PUSH2 0x69C JUMP JUMPDEST SWAP1 POP PUSH1 0x1 PUSH1 0x1 PUSH1 0xA0 SHL SUB DUP2 AND ISZERO PUSH2 0x49F JUMPI PUSH1 0x40 MLOAD PUSH4 0x39E35637 PUSH1 0xE1 SHL DUP2 MSTORE PUSH0 PUSH1 0x4 DUP3 ADD MSTORE PUSH1 0x24 ADD PUSH2 0x3B9 JUMP JUMPDEST PUSH2 0x1096 DUP4 DUP4 DUP4 PUSH2 0x11C6 JUMP JUMPDEST PUSH2 0x49F JUMPI PUSH1 0x1 PUSH1 0x1 PUSH1 0xA0 SHL SUB DUP4 AND PUSH2 0x10C4 JUMPI PUSH1 0x40 MLOAD PUSH4 0x7E273289 PUSH1 0xE0 SHL DUP2 MSTORE PUSH1 0x4 DUP2 ADD DUP3 SWAP1 MSTORE PUSH1 0x24 ADD PUSH2 0x3B9 JUMP JUMPDEST PUSH1 0x40 MLOAD PUSH4 0x177E802F PUSH1 0xE0 SHL DUP2 MSTORE PUSH1 0x1 PUSH1 0x1 PUSH1 0xA0 SHL SUB DUP4 AND PUSH1 0x4 DUP3 ADD MSTORE PUSH1 0x24 DUP2 ADD DUP3 SWAP1 MSTORE PUSH1 0x44 ADD PUSH2 0x3B9 JUMP JUMPDEST PUSH0 DUP1 PUSH19 0x184F03E93FF9F4DAA797ED6E38ED64BF6A1F01 PUSH1 0x40 SHL DUP4 LT PUSH2 0x112D JUMPI PUSH19 0x184F03E93FF9F4DAA797ED6E38ED64BF6A1F01 PUSH1 0x40 SHL DUP4 DIV SWAP3 POP PUSH1 0x40 ADD JUMPDEST PUSH14 0x4EE2D6D415B85ACEF8100000000 DUP4 LT PUSH2 0x1159 JUMPI PUSH14 0x4EE2D6D415B85ACEF8100000000 DUP4 DIV SWAP3 POP PUSH1 0x20 ADD JUMPDEST PUSH7 0x2386F26FC10000 DUP4 LT PUSH2 0x1177 JUMPI PUSH7 0x2386F26FC10000 DUP4 DIV SWAP3 POP PUSH1 0x10 ADD JUMPDEST PUSH4 0x5F5E100 DUP4 LT PUSH2 0x118F JUMPI PUSH4 0x5F5E100 DUP4 DIV SWAP3 POP PUSH1 0x8 ADD JUMPDEST PUSH2 0x2710 DUP4 LT PUSH2 0x11A3 JUMPI PUSH2 0x2710 DUP4 DIV SWAP3 POP PUSH1 0x4 ADD JUMPDEST PUSH1 0x64 DUP4 LT PUSH2 0x11B5 JUMPI PUSH1 0x64 DUP4 DIV SWAP3 POP PUSH1 0x2 ADD JUMPDEST PUSH1 0xA DUP4 LT PUSH2 0x2C9 JUMPI PUSH1 0x1 ADD SWAP3 SWAP2 POP POP JUMP JUMPDEST PUSH0 PUSH1 0x1 PUSH1 0x1 PUSH1 0xA0 SHL SUB DUP4 AND ISZERO DUP1 ISZERO SWAP1 PUSH2 0x6A8 JUMPI POP DUP3 PUSH1 0x1 PUSH1 0x1 PUSH1 0xA0 SHL SUB AND DUP5 PUSH1 0x1 PUSH1 0x1 PUSH1 0xA0 SHL SUB AND EQ DUP1 PUSH2 0x11FF JUMPI POP PUSH2 0x11FF DUP5 DUP5 PUSH2 0x5C9 JUMP JUMPDEST DUP1 PUSH2 0x6A8 JUMPI POP POP PUSH0 SWAP1 DUP2 MSTORE PUSH1 0x4 PUSH1 0x20 MSTORE PUSH1 0x40 SWAP1 KECCAK256 SLOAD PUSH1 0x1 PUSH1 0x1 PUSH1 0xA0 SHL SUB SWAP1 DUP2 AND SWAP2 AND EQ SWAP2 SWAP1 POP JUMP JUMPDEST PUSH1 0x1 PUSH1 0x1 PUSH1 0xE0 SHL SUB NOT DUP2 AND DUP2 EQ PUSH2 0x630 JUMPI PUSH0 DUP1 REVERT JUMPDEST PUSH0 PUSH1 0x20 DUP3 DUP5 SUB SLT ISZERO PUSH2 0x124C JUMPI PUSH0 DUP1 REVERT JUMPDEST DUP2 CALLDATALOAD PUSH2 0xCBA DUP2 PUSH2 0x1227 JUMP JUMPDEST PUSH0 JUMPDEST DUP4 DUP2 LT ISZERO PUSH2 0x1271 JUMPI DUP2 DUP2 ADD MLOAD DUP4 DUP3 ADD MSTORE PUSH1 0x20 ADD PUSH2 0x1259 JUMP JUMPDEST POP POP PUSH0 SWAP2 ADD MSTORE JUMP JUMPDEST PUSH0 DUP2 MLOAD DUP1 DUP5 MSTORE PUSH2 0x1290 DUP2 PUSH1 0x20 DUP7 ADD PUSH1 0x20 DUP7 ADD PUSH2 0x1257 JUMP JUMPDEST PUSH1 0x1F ADD PUSH1 0x1F NOT AND SWAP3 SWAP1 SWAP3 ADD PUSH1 0x20 ADD SWAP3 SWAP2 POP POP JUMP JUMPDEST PUSH1 0x20 DUP2 MSTORE PUSH0 PUSH2 0xCBA PUSH1 0x20 DUP4 ADD DUP5 PUSH2 0x1279 JUMP JUMPDEST PUSH0 PUSH1 0x20 DUP3 DUP5 SUB SLT ISZERO PUSH2 0x12C6 JUMPI PUSH0 DUP1 REVERT JUMPDEST POP CALLDATALOAD SWAP2 SWAP1 POP JUMP JUMPDEST DUP1 CALLDATALOAD PUSH1 0x1 PUSH1 0x1 PUSH1 0xA0 SHL SUB DUP2 AND DUP2 EQ PUSH2 0x12E3 JUMPI PUSH0 DUP1 REVERT JUMPDEST SWAP2 SWAP1 POP JUMP JUMPDEST PUSH0 DUP1 PUSH1 0x40 DUP4 DUP6 SUB SLT ISZERO PUSH2 0x12F9 JUMPI PUSH0 DUP1 REVERT JUMPDEST PUSH2 0x1302 DUP4 PUSH2 0x12CD JUMP JUMPDEST SWAP5 PUSH1 0x20 SWAP4 SWAP1 SWAP4 ADD CALLDATALOAD SWAP4 POP POP POP JUMP JUMPDEST PUSH0 DUP1 PUSH0 PUSH1 0x60 DUP5 DUP7 SUB SLT ISZERO PUSH2 0x1322 JUMPI PUSH0 DUP1 REVERT JUMPDEST PUSH2 0x132B DUP5 PUSH2 0x12CD JUMP JUMPDEST SWAP3 POP PUSH2 0x1339 PUSH1 0x20 DUP6 ADD PUSH2 0x12CD JUMP JUMPDEST SWAP2 POP PUSH1 0x40 DUP5 ADD CALLDATALOAD SWAP1 POP SWAP3 POP SWAP3 POP SWAP3 JUMP JUMPDEST PUSH0 PUSH1 0x20 DUP3 DUP5 SUB SLT ISZERO PUSH2 0x1359 JUMPI PUSH0 DUP1 REVERT JUMPDEST PUSH2 0xCBA DUP3 PUSH2 0x12CD JUMP JUMPDEST PUSH0 DUP1 PUSH1 0x40 DUP4 DUP6 SUB SLT ISZERO PUSH2 0x1373 JUMPI PUSH0 DUP1 REVERT JUMPDEST PUSH2 0x137C DUP4 PUSH2 0x12CD JUMP JUMPDEST SWAP2 POP PUSH1 0x20 DUP4 ADD CALLDATALOAD DUP1 ISZERO ISZERO DUP2 EQ PUSH2 0x1390 JUMPI PUSH0 DUP1 REVERT JUMPDEST DUP1 SWAP2 POP POP SWAP3 POP SWAP3 SWAP1 POP JUMP JUMPDEST PUSH4 0x4E487B71 PUSH1 0xE0 SHL PUSH0 MSTORE PUSH1 0x41 PUSH1 0x4 MSTORE PUSH1 0x24 PUSH0 REVERT JUMPDEST PUSH0 PUSH8 0xFFFFFFFFFFFFFFFF DUP1 DUP5 GT ISZERO PUSH2 0x13C9 JUMPI PUSH2 0x13C9 PUSH2 0x139B JUMP JUMPDEST PUSH1 0x40 MLOAD PUSH1 0x1F DUP6 ADD PUSH1 0x1F NOT SWAP1 DUP2 AND PUSH1 0x3F ADD AND DUP2 ADD SWAP1 DUP3 DUP3 GT DUP2 DUP4 LT OR ISZERO PUSH2 0x13F1 JUMPI PUSH2 0x13F1 PUSH2 0x139B JUMP JUMPDEST DUP2 PUSH1 0x40 MSTORE DUP1 SWAP4 POP DUP6 DUP2 MSTORE DUP7 DUP7 DUP7 ADD GT ISZERO PUSH2 0x1409 JUMPI PUSH0 DUP1 REVERT JUMPDEST DUP6 DUP6 PUSH1 0x20 DUP4 ADD CALLDATACOPY PUSH0 PUSH1 0x20 DUP8 DUP4 ADD ADD MSTORE POP POP POP SWAP4 SWAP3 POP POP POP JUMP JUMPDEST PUSH0 DUP1 PUSH0 DUP1 PUSH1 0x80 DUP6 DUP8 SUB SLT ISZERO PUSH2 0x1435 JUMPI PUSH0 DUP1 REVERT JUMPDEST PUSH2 0x143E DUP6 PUSH2 0x12CD JUMP JUMPDEST SWAP4 POP PUSH2 0x144C PUSH1 0x20 DUP7 ADD PUSH2 0x12CD JUMP JUMPDEST SWAP3 POP PUSH1 0x40 DUP6 ADD CALLDATALOAD SWAP2 POP PUSH1 0x60 DUP6 ADD CALLDATALOAD PUSH8 0xFFFFFFFFFFFFFFFF DUP2 GT ISZERO PUSH2 0x146E JUMPI PUSH0 DUP1 REVERT JUMPDEST DUP6 ADD PUSH1 0x1F DUP2 ADD DUP8 SGT PUSH2 0x147E JUMPI PUSH0 DUP1 REVERT JUMPDEST PUSH2 0x148D DUP8 DUP3 CALLDATALOAD PUSH1 0x20 DUP5 ADD PUSH2 0x13AF JUMP JUMPDEST SWAP2 POP POP SWAP3 SWAP6 SWAP2 SWAP5 POP SWAP3 POP JUMP JUMPDEST PUSH0 DUP1 PUSH1 0x40 DUP4 DUP6 SUB SLT ISZERO PUSH2 0x14AA JUMPI PUSH0 DUP1 REVERT JUMPDEST PUSH2 0x14B3 DUP4 PUSH2 0x12CD JUMP JUMPDEST SWAP2 POP PUSH1 0x20 DUP4 ADD CALLDATALOAD PUSH8 0xFFFFFFFFFFFFFFFF DUP2 GT ISZERO PUSH2 0x14CE JUMPI PUSH0 DUP1 REVERT JUMPDEST DUP4 ADD PUSH1 0x1F DUP2 ADD DUP6 SGT PUSH2 0x14DE JUMPI PUSH0 DUP1 REVERT JUMPDEST PUSH2 0x14ED DUP6 DUP3 CALLDATALOAD PUSH1 0x20 DUP5 ADD PUSH2 0x13AF JUMP JUMPDEST SWAP2 POP POP SWAP3 POP SWAP3 SWAP1 POP JUMP JUMPDEST PUSH0 DUP1 PUSH1 0x40 DUP4 DUP6 SUB SLT ISZERO PUSH2 0x1508 JUMPI PUSH0 DUP1 REVERT JUMPDEST PUSH2 0x1511 DUP4 PUSH2 0x12CD JUMP JUMPDEST SWAP2 POP PUSH2 0x151F PUSH1 0x20 DUP5 ADD PUSH2 0x12CD JUMP JUMPDEST SWAP1 POP SWAP3 POP SWAP3 SWAP1 POP JUMP JUMPDEST PUSH1 0x1 DUP2 DUP2 SHR SWAP1 DUP3 AND DUP1 PUSH2 0x153C JUMPI PUSH1 0x7F DUP3 AND SWAP2 POP JUMPDEST PUSH1 0x20 DUP3 LT DUP2 SUB PUSH2 0x155A JUMPI PUSH4 0x4E487B71 PUSH1 0xE0 SHL PUSH0 MSTORE PUSH1 0x22 PUSH1 0x4 MSTORE PUSH1 0x24 PUSH0 REVERT JUMPDEST POP SWAP2 SWAP1 POP JUMP JUMPDEST PUSH4 0x4E487B71 PUSH1 0xE0 SHL PUSH0 MSTORE PUSH1 0x32 PUSH1 0x4 MSTORE PUSH1 0x24 PUSH0 REVERT JUMPDEST PUSH4 0x4E487B71 PUSH1 0xE0 SHL PUSH0 MSTORE PUSH1 0x11 PUSH1 0x4 MSTORE PUSH1 0x24 PUSH0 REVERT JUMPDEST PUSH0 PUSH1 0x1 DUP3 ADD PUSH2 0x1599 JUMPI PUSH2 0x1599 PUSH2 0x1574 JUMP JUMPDEST POP PUSH1 0x1 ADD SWAP1 JUMP JUMPDEST PUSH1 0x1 PUSH1 0x1 PUSH1 0xA0 SHL SUB DUP6 DUP2 AND DUP3 MSTORE DUP5 AND PUSH1 0x20 DUP3 ADD MSTORE PUSH1 0x40 DUP2 ADD DUP4 SWAP1 MSTORE PUSH1 0x80 PUSH1 0x60 DUP3 ADD DUP2 SWAP1 MSTORE PUSH0 SWAP1 PUSH2 0x15D2 SWAP1 DUP4 ADD DUP5 PUSH2 0x1279 JUMP JUMPDEST SWAP7 SWAP6 POP POP POP POP POP POP JUMP JUMPDEST PUSH0 PUSH1 0x20 DUP3 DUP5 SUB SLT ISZERO PUSH2 0x15EC JUMPI PUSH0 DUP1 REVERT JUMPDEST DUP2 MLOAD PUSH2 0xCBA DUP2 PUSH2 0x1227 JUMP JUMPDEST PUSH0 DUP4 MLOAD PUSH2 0x1608 DUP2 DUP5 PUSH1 0x20 DUP9 ADD PUSH2 0x1257 JUMP JUMPDEST DUP4 MLOAD SWAP1 DUP4 ADD SWAP1 PUSH2 0x161C DUP2 DUP4 PUSH1 0x20 DUP9 ADD PUSH2 0x1257 JUMP JUMPDEST ADD SWAP5 SWAP4 POP POP POP POP JUMP JUMPDEST PUSH1 0x1F DUP3 GT ISZERO PUSH2 0x49F JUMPI DUP1 PUSH0 MSTORE PUSH1 0x20 PUSH0 KECCAK256 PUSH1 0x1F DUP5 ADD PUSH1 0x5 SHR DUP2 ADD PUSH1 0x20 DUP6 LT ISZERO PUSH2 0x164A JUMPI POP DUP1 JUMPDEST PUSH1 0x1F DUP5 ADD PUSH1 0x5 SHR DUP3 ADD SWAP2 POP JUMPDEST DUP2 DUP2 LT ISZERO PUSH2 0x8EB JUMPI PUSH0 DUP2 SSTORE PUSH1 0x1 ADD PUSH2 0x1656 JUMP JUMPDEST DUP2 MLOAD PUSH8 0xFFFFFFFFFFFFFFFF DUP2 GT ISZERO PUSH2 0x1683 JUMPI PUSH2 0x1683 PUSH2 0x139B JUMP JUMPDEST PUSH2 0x1697 DUP2 PUSH2 0x1691 DUP5 SLOAD PUSH2 0x1528 JUMP JUMPDEST DUP5 PUSH2 0x1625 JUMP JUMPDEST PUSH1 0x20 DUP1 PUSH1 0x1F DUP4 GT PUSH1 0x1 DUP2 EQ PUSH2 0x16CA JUMPI PUSH0 DUP5 ISZERO PUSH2 0x16B3 JUMPI POP DUP6 DUP4 ADD MLOAD JUMPDEST PUSH0 NOT PUSH1 0x3 DUP7 SWAP1 SHL SHR NOT AND PUSH1 0x1 DUP6 SWAP1 SHL OR DUP6 SSTORE PUSH2 0x1721 JUMP JUMPDEST PUSH0 DUP6 DUP2 MSTORE PUSH1 0x20 DUP2 KECCAK256 PUSH1 0x1F NOT DUP7 AND SWAP2 JUMPDEST DUP3 DUP2 LT ISZERO PUSH2 0x16F8 JUMPI DUP9 DUP7 ADD MLOAD DUP3 SSTORE SWAP5 DUP5 ADD SWAP5 PUSH1 0x1 SWAP1 SWAP2 ADD SWAP1 DUP5 ADD PUSH2 0x16D9 JUMP JUMPDEST POP DUP6 DUP3 LT ISZERO PUSH2 0x1715 JUMPI DUP8 DUP6 ADD MLOAD PUSH0 NOT PUSH1 0x3 DUP9 SWAP1 SHL PUSH1 0xF8 AND SHR NOT AND DUP2 SSTORE JUMPDEST POP POP PUSH1 0x1 DUP5 PUSH1 0x1 SHL ADD DUP6 SSTORE JUMPDEST POP POP POP POP POP POP JUMP JUMPDEST DUP2 DUP2 SUB DUP2 DUP2 GT ISZERO PUSH2 0x2C9 JUMPI PUSH2 0x2C9 PUSH2 0x1574 JUMP JUMPDEST PUSH4 0x4E487B71 PUSH1 0xE0 SHL PUSH0 MSTORE PUSH1 0x31 PUSH1 0x4 MSTORE PUSH1 0x24 PUSH0 REVERT INVALID LOG2 PUSH5 0x6970667358 0x22 SLT KECCAK256 MSTORE SMOD PUSH4 0xDF96BE8E PUSH29 0x9AD4378D98F03869F9EC199A7784BBB8102B609B4E67729F64736F6C63 NUMBER STOP ADDMOD AND STOP CALLER "
				},
				"gasEstimates": {
					"creation": {
						"codeDepositCost": "1204400",
						"executionCost": "infinite",
						"totalCost": "infinite"
					},
					"external": {
						"approve(address,uint256)": "31531",
						"balanceOf(address)": "2608",
						"getApproved(uint256)": "infinite",
						"isApprovedForAll(address,address)": "infinite",
						"name()": "infinite",
						"owner()": "2397",
						"ownerOf(uint256)": "infinite",
						"renounceOwnership()": "infinite",
						"safeMint(address,string)": "infinite",
						"safeTransferFrom(address,address,uint256)": "infinite",
						"safeTransferFrom(address,address,uint256,bytes)": "infinite",
						"setApprovalForAll(address,bool)": "26767",
						"supportsInterface(bytes4)": "infinite",
						"symbol()": "infinite",
						"tokenByIndex(uint256)": "6799",
						"tokenOfOwnerByIndex(address,uint256)": "4969",
						"tokenURI(uint256)": "infinite",
						"totalSupply()": "2392",
						"transferFrom(address,address,uint256)": "infinite",
						"transferOwnership(address)": "28443"
					},
					"internal": {
						"_increaseBalance(address,uint128)": "infinite",
						"_update(address,uint256,address)": "infinite"
					}
				},
				"methodIdentifiers": {
					"approve(address,uint256)": "095ea7b3",
					"balanceOf(address)": "70a08231",
					"getApproved(uint256)": "081812fc",
					"isApprovedForAll(address,address)": "e985e9c5",
					"name()": "06fdde03",
					"owner()": "8da5cb5b",
					"ownerOf(uint256)": "6352211e",
					"renounceOwnership()": "715018a6",
					"safeMint(address,string)": "d204c45e",
					"safeTransferFrom(address,address,uint256)": "42842e0e",
					"safeTransferFrom(address,address,uint256,bytes)": "b88d4fde",
					"setApprovalForAll(address,bool)": "a22cb465",
					"supportsInterface(bytes4)": "01ffc9a7",
					"symbol()": "95d89b41",
					"tokenByIndex(uint256)": "4f6ccce7",
					"tokenOfOwnerByIndex(address,uint256)": "2f745c59",
					"tokenURI(uint256)": "c87b56dd",
					"totalSupply()": "18160ddd",
					"transferFrom(address,address,uint256)": "23b872dd",
					"transferOwnership(address)": "f2fde38b"
				}
			},
			"storageLayout": {
				"storage": [
					{
						"astId": 349,
						"contract": "src/MyNFT.sol:MyNFT",
						"label": "_name",
						"offset": 0,
						"slot": "0",
						"type": "t_string_storage"
					},
					{
						"astId": 351,
						"contract": "src/MyNFT.sol:MyNFT",
						"label": "_symbol",
						"offset": 0,
						"slot": "1",
						"type": "t_string_storage"
					},
					{
						"astId": 355,
						"contract": "src/MyNFT.sol:MyNFT",
						"label": "_owners",
						"offset": 0,
						"slot": "2",
						"type": "t_mapping(t_uint256,t_address)"
					},
					{
						"astId": 359,
						"contract": "src/MyNFT.sol:MyNFT",
						"label": "_balances",
						"offset": 0,
						"slot": "3",
						"type": "t_mapping(t_address,t_uint256)"
					},
					{
						"astId": 363,
						"contract": "src/MyNFT.sol:MyNFT",
						"label": "_tokenApprovals",
						"offset": 0,
						"slot": "4",
						"type": "t_mapping(t_uint256,t_address)"
					},
					{
						"astId": 369,
						"contract": "src/MyNFT.sol:MyNFT",
						"label": "_operatorApprovals",
						"offset": 0,
						"slot": "5",
						"type": "t_mapping(t_address,t_mapping(t_address,t_bool))"
					},
					{
						"astId": 1479,
						"contract": "src/MyNFT.sol:MyNFT",
						"label": "_ownedTokens",
						"offset": 0,
						"slot": "6",
						"type": "t_mapping(t_address,t_mapping(t_uint256,t_uint256))"
					},
					{
						"astId": 1483,
						"contract": "src/MyNFT.sol:MyNFT",
						"label": "_ownedTokensIndex",
						"offset": 0,
						"slot": "7",
						"type": "t_mapping(t_uint256,t_uint256)"
					},
					{
						"astId": 1486,
						"contract": "src/MyNFT.sol:MyNFT",
						"label": "_allTokens",
						"offset": 0,
						"slot": "8",
						"type": "t_array(t_uint256)dyn_storage"
					},
					{
						"astId": 1490,
						"contract": "src/MyNFT.sol:MyNFT",
						"label": "_allTokensIndex",
						"offset": 0,
						"slot": "9",
						"type": "t_mapping(t_uint256,t_uint256)"
					},
					{
						"astId": 1872,
						"contract": "src/MyNFT.sol:MyNFT",
						"label": "_tokenURIs",
						"offset": 0,
						"slot": "10",
						"type": "t_mapping(t_uint256,t_string_storage)"
					},
					{
						"astId": 8,
						"contract": "src/MyNFT.sol:MyNFT",
						"label": "_owner",
						"offset": 0,
						"slot": "11",
						"type": "t_address"
					},
					{
						"astId": 3526,
						"contract": "src/MyNFT.sol:MyNFT",
						"label": "_nextTokenId",
						"offset": 0,
						"slot": "12",
						"type": "t_uint256"
					}
				],
				"types": {
					"t_address": {
						"encoding": "inplace",
						"label": "address",
						"numberOfBytes": "20"
					},
					"t_array(t_uint256)dyn_storage": {
						"base": "t_uint256",
						"encoding": "dynamic_array",
						"label": "uint256[]",
						"numberOfBytes": "32"
					},
					"t_bool": {
						"encoding": "inplace",
						"label": "bool",
						"numberOfBytes": "1"
					},
					"t_mapping(t_address,t_bool)": {
						"encoding": "mapping",
						"key": "t_address",
						"label": "mapping(address => bool)",
						"numberOfBytes": "32",
						"value": "t_bool"
					},
					"t_mapping(t_address,t_mapping(t_address,t_bool))": {
						"encoding": "mapping",
						"key": "t_address",
						"label": "mapping(address => mapping(address => bool))",
						"numberOfBytes": "32",
						"value": "t_mapping(t_address,t_bool)"
					},
					"t_mapping(t_address,t_mapping(t_uint256,t_uint256))": {
						"encoding": "mapping",
						"key": "t_address",
						"label": "mapping(address => mapping(uint256 => uint256))",
						"numberOfBytes": "32",
						"value": "t_mapping(t_uint256,t_uint256)"
					},
					"t_mapping(t_address,t_uint256)": {
						"encoding": "mapping",
						"key": "t_address",
						"label": "mapping(address => uint256)",
						"numberOfBytes": "32",
						"value": "t_uint256"
					},
					"t_mapping(t_uint256,t_address)": {
						"encoding": "mapping",
						"key": "t_uint256",
						"label": "mapping(uint256 => address)",
						"numberOfBytes": "32",
						"value": "t_address"
					},
					"t_mapping(t_uint256,t_string_storage)": {
						"encoding": "mapping",
						"key": "t_uint256",
						"label": "mapping(uint256 => string)",
						"numberOfBytes": "32",
						"value": "t_string_storage"
					},
					"t_mapping(t_uint256,t_uint256)": {
						"encoding": "mapping",
						"key": "t_uint256",
						"label": "mapping(uint256 => uint256)",
						"numberOfBytes": "32",
						"value": "t_uint256"
					},
					"t_string_storage": {
						"encoding": "bytes",
						"label": "string",
						"numberOfBytes": "32"
					},
					"t_uint256": {
						"encoding": "inplace",
						"label": "uint256",
						"numberOfBytes": "32"
					}
				}
			},
			"userdoc": {
				"kind": "user",
				"methods": {},
				"version": 1
			}
		}
	}
}