{
	"day7/Manage/src/Market.sol": {
		"Market": {
			"abi": [
				{
					"inputs": [
						{
							"internalType": "address",
							"name": "_erc721",
							"type": "address"
						},
						{
							"internalType": "address",
							"name": "_erc20",
							"type": "address"
						}
					],
					"stateMutability": "nonpayable",
					"type": "constructor"
				},
				{
					"anonymous": false,
					"inputs": [
						{
							"indexed": false,
							"internalType": "address",
							"name": "seller",
							"type": "address"
						},
						{
							"indexed": false,
							"internalType": "address",
							"name": "buyer",
							"type": "address"
						},
						{
							"indexed": false,
							"internalType": "uint256",
							"name": "id",
							"type": "uint256"
						},
						{
							"indexed": false,
							"internalType": "uint256",
							"name": "price",
							"type": "uint256"
						}
					],
					"name": "Deal",
					"type": "event"
				},
				{
					"anonymous": false,
					"inputs": [
						{
							"indexed": false,
							"internalType": "uint256",
							"name": "_id",
							"type": "uint256"
						}
					],
					"name": "cancelOrder",
					"type": "event"
				},
				{
					"anonymous": false,
					"inputs": [
						{
							"indexed": false,
							"internalType": "uint256",
							"name": "_id",
							"type": "uint256"
						},
						{
							"indexed": false,
							"internalType": "uint256",
							"name": "_price",
							"type": "uint256"
						}
					],
					"name": "changePrice",
					"type": "event"
				},
				{
					"inputs": [
						{
							"internalType": "uint256",
							"name": "_id",
							"type": "uint256"
						}
					],
					"name": "CancelOrder",
					"outputs": [],
					"stateMutability": "nonpayable",
					"type": "function"
				},
				{
					"inputs": [
						{
							"internalType": "uint256",
							"name": "_id",
							"type": "uint256"
						},
						{
							"internalType": "uint256",
							"name": "_price",
							"type": "uint256"
						}
					],
					"name": "ChangePrice",
					"outputs": [],
					"stateMutability": "nonpayable",
					"type": "function"
				},
				{
					"inputs": [
						{
							"internalType": "address",
							"name": "",
							"type": "address"
						}
					],
					"name": "_balance",
					"outputs": [
						{
							"internalType": "uint256",
							"name": "",
							"type": "uint256"
						}
					],
					"stateMutability": "view",
					"type": "function"
				},
				{
					"inputs": [
						{
							"internalType": "bytes32",
							"name": "b",
							"type": "bytes32"
						}
					],
					"name": "bytesToUint",
					"outputs": [
						{
							"internalType": "uint256",
							"name": "",
							"type": "uint256"
						}
					],
					"stateMutability": "view",
					"type": "function"
				},
				{
					"inputs": [],
					"name": "erc20",
					"outputs": [
						{
							"internalType": "contract MyERC20",
							"name": "",
							"type": "address"
						}
					],
					"stateMutability": "view",
					"type": "function"
				},
				{
					"inputs": [],
					"name": "erc721",
					"outputs": [
						{
							"internalType": "contract IERC721",
							"name": "",
							"type": "address"
						}
					],
					"stateMutability": "view",
					"type": "function"
				},
				{
					"inputs": [
						{
							"internalType": "address",
							"name": "account",
							"type": "address"
						}
					],
					"name": "getMyNFT",
					"outputs": [
						{
							"components": [
								{
									"internalType": "address",
									"name": "seller",
									"type": "address"
								},
								{
									"internalType": "uint256",
									"name": "id",
									"type": "uint256"
								},
								{
									"internalType": "uint256",
									"name": "price",
									"type": "uint256"
								}
							],
							"internalType": "struct Market.Order[]",
							"name": "",
							"type": "tuple[]"
						}
					],
					"stateMutability": "view",
					"type": "function"
				},
				{
					"inputs": [
						{
							"internalType": "uint256",
							"name": "index",
							"type": "uint256"
						}
					],
					"name": "idToOrderIndex",
					"outputs": [
						{
							"internalType": "uint256",
							"name": "",
							"type": "uint256"
						}
					],
					"stateMutability": "view",
					"type": "function"
				},
				{
					"inputs": [
						{
							"internalType": "address",
							"name": "_operator",
							"type": "address"
						},
						{
							"internalType": "address",
							"name": "_seller",
							"type": "address"
						},
						{
							"internalType": "uint256",
							"name": "_tokenId",
							"type": "uint256"
						},
						{
							"internalType": "bytes",
							"name": "_data",
							"type": "bytes"
						}
					],
					"name": "onERC721Received",
					"outputs": [
						{
							"internalType": "bytes4",
							"name": "",
							"type": "bytes4"
						}
					],
					"stateMutability": "nonpayable",
					"type": "function"
				},
				{
					"inputs": [
						{
							"internalType": "uint256",
							"name": "id",
							"type": "uint256"
						}
					],
					"name": "orderofId",
					"outputs": [
						{
							"internalType": "address",
							"name": "seller",
							"type": "address"
						},
						{
							"internalType": "uint256",
							"name": "id",
							"type": "uint256"
						},
						{
							"internalType": "uint256",
							"name": "price",
							"type": "uint256"
						}
					],
					"stateMutability": "view",
					"type": "function"
				},
				{
					"inputs": [
						{
							"internalType": "uint256",
							"name": "",
							"type": "uint256"
						}
					],
					"name": "orders",
					"outputs": [
						{
							"internalType": "address",
							"name": "seller",
							"type": "address"
						},
						{
							"internalType": "uint256",
							"name": "id",
							"type": "uint256"
						},
						{
							"internalType": "uint256",
							"name": "price",
							"type": "uint256"
						}
					],
					"stateMutability": "view",
					"type": "function"
				},
				{
					"inputs": [
						{
							"internalType": "bytes",
							"name": "_bytes",
							"type": "bytes"
						},
						{
							"internalType": "uint256",
							"name": "_start",
							"type": "uint256"
						}
					],
					"name": "toUint256",
					"outputs": [
						{
							"internalType": "uint256",
							"name": "",
							"type": "uint256"
						}
					],
					"stateMutability": "pure",
					"type": "function"
				},
				{
					"inputs": [
						{
							"internalType": "address",
							"name": "from",
							"type": "address"
						},
						{
							"internalType": "uint256",
							"name": "value",
							"type": "uint256"
						},
						{
							"internalType": "uint256",
							"name": "_id",
							"type": "uint256"
						}
					],
					"name": "tokenReceive",
					"outputs": [
						{
							"internalType": "bool",
							"name": "",
							"type": "bool"
						}
					],
					"stateMutability": "nonpayable",
					"type": "function"
				}
			],
			"devdoc": {
				"kind": "dev",
				"methods": {},
				"version": 1
			},
			"evm": {
				"assembly": "    /* \"day7/Manage/src/Market.sol\":265:4587  contract Market is IERC721Receiver{... */\n  mstore(0x40, 0x80)\n    /* \"day7/Manage/src/Market.sol\":870:992  constructor(address _erc721, address _erc20){... */\n  callvalue\n  dup1\n  iszero\n  tag_1\n  jumpi\n  0x00\n  dup1\n  revert\ntag_1:\n  pop\n  mload(0x40)\n  sub(codesize, bytecodeSize)\n  dup1\n  bytecodeSize\n  dup4\n  codecopy\n  dup2\n  add\n  0x40\n  dup2\n  swap1\n  mstore\n  tag_2\n  swap2\n  tag_3\n  jump\t// in\ntag_2:\n    /* \"day7/Manage/src/Market.sol\":925:931  erc721 */\n  0x00\n    /* \"day7/Manage/src/Market.sol\":925:950  erc721 = IERC721(_erc721) */\n  dup1\n  sload\n  sub(shl(0xa0, 0x01), 0x01)\n  swap4\n  dup5\n  and\n  not(sub(shl(0xa0, 0x01), 0x01))\n  swap2\n  dup3\n  and\n  or\n  swap1\n  swap2\n  sstore\n  0x01\n    /* \"day7/Manage/src/Market.sol\":961:984  erc20 = MyERC20(_erc20) */\n  dup1\n  sload\n  swap3\n  swap1\n  swap4\n  and\n  swap2\n  and\n  or\n  swap1\n  sstore\n    /* \"day7/Manage/src/Market.sol\":265:4587  contract Market is IERC721Receiver{... */\n  jump(tag_8)\n    /* \"#utility.yul\":14:191   */\ntag_7:\n    /* \"#utility.yul\":93:106   */\n  dup1\n  mload\n  sub(shl(0xa0, 0x01), 0x01)\n    /* \"#utility.yul\":135:166   */\n  dup2\n  and\n    /* \"#utility.yul\":125:167   */\n  dup2\n  eq\n    /* \"#utility.yul\":115:185   */\n  tag_10\n  jumpi\n    /* \"#utility.yul\":181:182   */\n  0x00\n    /* \"#utility.yul\":178:179   */\n  dup1\n    /* \"#utility.yul\":171:183   */\n  revert\n    /* \"#utility.yul\":115:185   */\ntag_10:\n    /* \"#utility.yul\":14:191   */\n  swap2\n  swap1\n  pop\n  jump\t// out\n    /* \"#utility.yul\":196:489   */\ntag_3:\n    /* \"#utility.yul\":275:281   */\n  0x00\n    /* \"#utility.yul\":283:289   */\n  dup1\n    /* \"#utility.yul\":336:338   */\n  0x40\n    /* \"#utility.yul\":324:333   */\n  dup4\n    /* \"#utility.yul\":315:322   */\n  dup6\n    /* \"#utility.yul\":311:334   */\n  sub\n    /* \"#utility.yul\":307:339   */\n  slt\n    /* \"#utility.yul\":304:356   */\n  iszero\n  tag_12\n  jumpi\n    /* \"#utility.yul\":352:353   */\n  0x00\n    /* \"#utility.yul\":349:350   */\n  dup1\n    /* \"#utility.yul\":342:354   */\n  revert\n    /* \"#utility.yul\":304:356   */\ntag_12:\n    /* \"#utility.yul\":375:415   */\n  tag_13\n    /* \"#utility.yul\":405:414   */\n  dup4\n    /* \"#utility.yul\":375:415   */\n  tag_7\n  jump\t// in\ntag_13:\n    /* \"#utility.yul\":365:415   */\n  swap2\n  pop\n    /* \"#utility.yul\":434:483   */\n  tag_14\n    /* \"#utility.yul\":479:481   */\n  0x20\n    /* \"#utility.yul\":468:477   */\n  dup5\n    /* \"#utility.yul\":464:482   */\n  add\n    /* \"#utility.yul\":434:483   */\n  tag_7\n  jump\t// in\ntag_14:\n    /* \"#utility.yul\":424:483   */\n  swap1\n  pop\n    /* \"#utility.yul\":196:489   */\n  swap3\n  pop\n  swap3\n  swap1\n  pop\n  jump\t// out\ntag_8:\n    /* \"day7/Manage/src/Market.sol\":265:4587  contract Market is IERC721Receiver{... */\n  dataSize(sub_0)\n  dup1\n  dataOffset(sub_0)\n  0x00\n  codecopy\n  0x00\n  return\nstop\n\nsub_0: assembly {\n        /* \"day7/Manage/src/Market.sol\":265:4587  contract Market is IERC721Receiver{... */\n      mstore(0x40, 0x80)\n      callvalue\n      dup1\n      iszero\n      tag_1\n      jumpi\n      0x00\n      dup1\n      revert\n    tag_1:\n      pop\n      jumpi(tag_2, lt(calldatasize, 0x04))\n      shr(0xe0, calldataload(0x00))\n      dup1\n      0xb5cdf924\n      gt\n      tag_16\n      jumpi\n      dup1\n      0xd3aceae2\n      gt\n      tag_17\n      jumpi\n      dup1\n      0xd3aceae2\n      eq\n      tag_12\n      jumpi\n      dup1\n      0xda694df0\n      eq\n      tag_13\n      jumpi\n      dup1\n      0xe1bd88c2\n      eq\n      tag_14\n      jumpi\n      dup1\n      0xee339945\n      eq\n      tag_15\n      jumpi\n      0x00\n      dup1\n      revert\n    tag_17:\n      dup1\n      0xb5cdf924\n      eq\n      tag_9\n      jumpi\n      dup1\n      0xbca6ce64\n      eq\n      tag_10\n      jumpi\n      dup1\n      0xcfc5a969\n      eq\n      tag_11\n      jumpi\n      0x00\n      dup1\n      revert\n    tag_16:\n      dup1\n      0x150b7a02\n      eq\n      tag_3\n      jumpi\n      dup1\n      0x59a97ea8\n      eq\n      tag_4\n      jumpi\n      dup1\n      0x785e9e86\n      eq\n      tag_5\n      jumpi\n      dup1\n      0x7a23754e\n      eq\n      tag_6\n      jumpi\n      dup1\n      0x935c9ad2\n      eq\n      tag_7\n      jumpi\n      dup1\n      0xa85c38ef\n      eq\n      tag_8\n      jumpi\n    tag_2:\n      0x00\n      dup1\n      revert\n        /* \"day7/Manage/src/Market.sol\":3727:4146  function onERC721Received(... */\n    tag_3:\n      tag_18\n      tag_19\n      calldatasize\n      0x04\n      tag_20\n      jump\t// in\n    tag_19:\n      tag_21\n      jump\t// in\n    tag_18:\n      mload(0x40)\n      not(sub(shl(0xe0, 0x01), 0x01))\n        /* \"#utility.yul\":1167:1200   */\n      swap1\n      swap2\n      and\n        /* \"#utility.yul\":1149:1201   */\n      dup2\n      mstore\n        /* \"#utility.yul\":1137:1139   */\n      0x20\n        /* \"#utility.yul\":1122:1140   */\n      add\n        /* \"day7/Manage/src/Market.sol\":3727:4146  function onERC721Received(... */\n    tag_22:\n      mload(0x40)\n      dup1\n      swap2\n      sub\n      swap1\n      return\n        /* \"day7/Manage/src/Market.sol\":1739:2197  function tokenReceive(address from,uint256 value,uint256 _id) external  returns(bool){... */\n    tag_4:\n      tag_24\n      tag_25\n      calldatasize\n      0x04\n      tag_26\n      jump\t// in\n    tag_25:\n      tag_27\n      jump\t// in\n    tag_24:\n      mload(0x40)\n        /* \"#utility.yul\":1704:1718   */\n      swap1\n      iszero\n        /* \"#utility.yul\":1697:1719   */\n      iszero\n        /* \"#utility.yul\":1679:1720   */\n      dup2\n      mstore\n        /* \"#utility.yul\":1667:1669   */\n      0x20\n        /* \"#utility.yul\":1652:1670   */\n      add\n        /* \"day7/Manage/src/Market.sol\":1739:2197  function tokenReceive(address from,uint256 value,uint256 _id) external  returns(bool){... */\n      tag_22\n        /* \"#utility.yul\":1539:1726   */\n      jump\n        /* \"day7/Manage/src/Market.sol\":336:356  MyERC20 public erc20 */\n    tag_5:\n      sload(0x01)\n      tag_30\n      swap1\n      sub(shl(0xa0, 0x01), 0x01)\n      and\n      dup2\n      jump\n    tag_30:\n      mload(0x40)\n      sub(shl(0xa0, 0x01), 0x01)\n        /* \"#utility.yul\":1911:1943   */\n      swap1\n      swap2\n      and\n        /* \"#utility.yul\":1893:1944   */\n      dup2\n      mstore\n        /* \"#utility.yul\":1881:1883   */\n      0x20\n        /* \"#utility.yul\":1866:1884   */\n      add\n        /* \"day7/Manage/src/Market.sol\":336:356  MyERC20 public erc20 */\n      tag_22\n        /* \"#utility.yul\":1731:1950   */\n      jump\n        /* \"day7/Manage/src/Market.sol\":2205:2597  function ChangePrice(uint256 _id, uint256 _price) external {... */\n    tag_6:\n      tag_34\n      tag_35\n      calldatasize\n      0x04\n      tag_36\n      jump\t// in\n    tag_35:\n      tag_37\n      jump\t// in\n    tag_34:\n      stop\n        /* \"day7/Manage/src/Market.sol\":2605:2935  function CancelOrder(uint256 _id) external {... */\n    tag_7:\n      tag_34\n      tag_39\n      calldatasize\n      0x04\n      tag_40\n      jump\t// in\n    tag_39:\n      tag_41\n      jump\t// in\n        /* \"day7/Manage/src/Market.sol\":516:537  Order[] public orders */\n    tag_8:\n      tag_42\n      tag_43\n      calldatasize\n      0x04\n      tag_40\n      jump\t// in\n    tag_43:\n      tag_44\n      jump\t// in\n    tag_42:\n      0x40\n      dup1\n      mload\n      sub(shl(0xa0, 0x01), 0x01)\n        /* \"#utility.yul\":2613:2645   */\n      swap1\n      swap5\n      and\n        /* \"#utility.yul\":2595:2646   */\n      dup5\n      mstore\n        /* \"#utility.yul\":2677:2679   */\n      0x20\n        /* \"#utility.yul\":2662:2680   */\n      dup5\n      add\n        /* \"#utility.yul\":2655:2689   */\n      swap3\n      swap1\n      swap3\n      mstore\n        /* \"#utility.yul\":2705:2723   */\n      swap1\n      dup3\n      add\n        /* \"#utility.yul\":2698:2732   */\n      mstore\n        /* \"#utility.yul\":2583:2585   */\n      0x60\n        /* \"#utility.yul\":2568:2586   */\n      add\n        /* \"day7/Manage/src/Market.sol\":516:537  Order[] public orders */\n      tag_22\n        /* \"#utility.yul\":2393:2738   */\n      jump\n        /* \"day7/Manage/src/Market.sol\":4156:4578  function toUint256(... */\n    tag_9:\n      tag_47\n      tag_48\n      calldatasize\n      0x04\n      tag_49\n      jump\t// in\n    tag_48:\n      tag_50\n      jump\t// in\n    tag_47:\n      mload(0x40)\n        /* \"#utility.yul\":4025:4050   */\n      swap1\n      dup2\n      mstore\n        /* \"#utility.yul\":4013:4015   */\n      0x20\n        /* \"#utility.yul\":3998:4016   */\n      add\n        /* \"day7/Manage/src/Market.sol\":4156:4578  function toUint256(... */\n      tag_22\n        /* \"#utility.yul\":3879:4056   */\n      jump\n        /* \"day7/Manage/src/Market.sol\":308:329  IERC721 public erc721 */\n    tag_10:\n      sload(0x00)\n      tag_30\n      swap1\n      sub(shl(0xa0, 0x01), 0x01)\n      and\n      dup2\n      jump\n        /* \"day7/Manage/src/Market.sol\":1463:1705  function bytesToUint(bytes32 b) public view returns (uint256){... */\n    tag_11:\n      tag_47\n      tag_58\n      calldatasize\n      0x04\n      tag_40\n      jump\t// in\n    tag_58:\n      tag_60\n      jump\t// in\n        /* \"day7/Manage/src/Market.sol\":469:509  mapping(address => uint) public _balance */\n    tag_12:\n      tag_47\n      tag_63\n      calldatasize\n      0x04\n      tag_64\n      jump\t// in\n    tag_63:\n      mstore(0x20, 0x04)\n      0x00\n      swap1\n      dup2\n      mstore\n      0x40\n      swap1\n      keccak256\n      sload\n      dup2\n      jump\n        /* \"day7/Manage/src/Market.sol\":414:462  mapping(uint index =>uint) public idToOrderIndex */\n    tag_13:\n      tag_47\n      tag_68\n      calldatasize\n      0x04\n      tag_40\n      jump\t// in\n    tag_68:\n      mstore(0x20, 0x03)\n      0x00\n      swap1\n      dup2\n      mstore\n      0x40\n      swap1\n      keccak256\n      sload\n      dup2\n      jump\n        /* \"day7/Manage/src/Market.sol\":2943:3461  function getMyNFT(address account) external view returns(Order[] memory){... */\n    tag_14:\n      tag_71\n      tag_72\n      calldatasize\n      0x04\n      tag_64\n      jump\t// in\n    tag_72:\n      tag_73\n      jump\t// in\n    tag_71:\n      mload(0x40)\n      tag_22\n      swap2\n      swap1\n      tag_75\n      jump\t// in\n        /* \"day7/Manage/src/Market.sol\":365:407  mapping(uint id => Order) public orderofId */\n    tag_15:\n      tag_42\n      tag_77\n      calldatasize\n      0x04\n      tag_40\n      jump\t// in\n    tag_77:\n      0x02\n      0x20\n      dup2\n      swap1\n      mstore\n      0x00\n      swap2\n      dup3\n      mstore\n      0x40\n      swap1\n      swap2\n      keccak256\n      dup1\n      sload\n      0x01\n      dup3\n      add\n      sload\n      swap2\n      swap1\n      swap3\n      add\n      sload\n      sub(shl(0xa0, 0x01), 0x01)\n      swap1\n      swap3\n      and\n      swap2\n      dup4\n      jump\n        /* \"day7/Manage/src/Market.sol\":3727:4146  function onERC721Received(... */\n    tag_21:\n        /* \"day7/Manage/src/Market.sol\":3897:3903  bytes4 */\n      0x00\n        /* \"day7/Manage/src/Market.sol\":3937:3944  _seller */\n      dup5\n      sub(shl(0xa0, 0x01), 0x01)\n        /* \"day7/Manage/src/Market.sol\":3924:3944  _operator == _seller */\n      and\n        /* \"day7/Manage/src/Market.sol\":3924:3933  _operator */\n      dup7\n      sub(shl(0xa0, 0x01), 0x01)\n        /* \"day7/Manage/src/Market.sol\":3924:3944  _operator == _seller */\n      and\n      eq\n        /* \"day7/Manage/src/Market.sol\":3916:3980  require(_operator == _seller, \"Market: Seller must be operator\") */\n      tag_81\n      jumpi\n      mload(0x40)\n      shl(0xe5, 0x461bcd)\n      dup2\n      mstore\n        /* \"#utility.yul\":5730:5732   */\n      0x20\n        /* \"day7/Manage/src/Market.sol\":3916:3980  require(_operator == _seller, \"Market: Seller must be operator\") */\n      0x04\n      dup3\n      add\n        /* \"#utility.yul\":5712:5733   */\n      mstore\n        /* \"#utility.yul\":5769:5771   */\n      0x1f\n        /* \"#utility.yul\":5749:5767   */\n      0x24\n      dup3\n      add\n        /* \"#utility.yul\":5742:5772   */\n      mstore\n        /* \"#utility.yul\":5808:5841   */\n      0x4d61726b65743a2053656c6c6572206d757374206265206f70657261746f7200\n        /* \"#utility.yul\":5788:5806   */\n      0x44\n      dup3\n      add\n        /* \"#utility.yul\":5781:5842   */\n      mstore\n        /* \"#utility.yul\":5859:5877   */\n      0x64\n      add\n        /* \"day7/Manage/src/Market.sol\":3916:3980  require(_operator == _seller, \"Market: Seller must be operator\") */\n    tag_82:\n      mload(0x40)\n      dup1\n      swap2\n      sub\n      swap1\n      revert\n    tag_81:\n        /* \"day7/Manage/src/Market.sol\":3991:4005  uint256 _price */\n      0x00\n        /* \"day7/Manage/src/Market.sol\":4008:4027  toUint256(_data, 0) */\n      tag_84\n        /* \"day7/Manage/src/Market.sol\":4018:4023  _data */\n      dup5\n      dup5\n        /* \"day7/Manage/src/Market.sol\":4008:4027  toUint256(_data, 0) */\n      dup1\n      dup1\n      0x1f\n      add\n      0x20\n      dup1\n      swap2\n      div\n      mul\n      0x20\n      add\n      mload(0x40)\n      swap1\n      dup2\n      add\n      0x40\n      mstore\n      dup1\n      swap4\n      swap3\n      swap2\n      swap1\n      dup2\n      dup2\n      mstore\n      0x20\n      add\n      dup4\n      dup4\n      dup1\n      dup3\n      dup5\n      calldatacopy\n      0x00\n      swap3\n      add\n      dup3\n      swap1\n      mstore\n      pop\n      swap3\n      pop\n        /* \"day7/Manage/src/Market.sol\":4008:4017  toUint256 */\n      tag_50\n      swap2\n      pop\n      pop\n        /* \"day7/Manage/src/Market.sol\":4008:4027  toUint256(_data, 0) */\n      jump\t// in\n    tag_84:\n        /* \"day7/Manage/src/Market.sol\":3991:4027  uint256 _price = toUint256(_data, 0) */\n      swap1\n      pop\n        /* \"day7/Manage/src/Market.sol\":4057:4094  placeOrder(_seller, _tokenId, _price) */\n      tag_85\n        /* \"day7/Manage/src/Market.sol\":4068:4075  _seller */\n      dup7\n        /* \"day7/Manage/src/Market.sol\":4077:4085  _tokenId */\n      dup7\n        /* \"day7/Manage/src/Market.sol\":4087:4093  _price */\n      dup4\n        /* \"day7/Manage/src/Market.sol\":4057:4067  placeOrder */\n      tag_86\n        /* \"day7/Manage/src/Market.sol\":4057:4094  placeOrder(_seller, _tokenId, _price) */\n      jump\t// in\n    tag_85:\n      pop\n      shl(0xe1, 0x0a85bd01)\n        /* \"day7/Manage/src/Market.sol\":4114:4138  MAGIC_ON_ERC721_RECEIVED */\n      swap7\n        /* \"day7/Manage/src/Market.sol\":3727:4146  function onERC721Received(... */\n      swap6\n      pop\n      pop\n      pop\n      pop\n      pop\n      pop\n      jump\t// out\n        /* \"day7/Manage/src/Market.sol\":1739:2197  function tokenReceive(address from,uint256 value,uint256 _id) external  returns(bool){... */\n    tag_27:\n        /* \"day7/Manage/src/Market.sol\":1819:1823  bool */\n      0x00\n        /* \"day7/Manage/src/Market.sol\":1902:1916  orderofId[_id] */\n      dup2\n      dup2\n      mstore\n        /* \"day7/Manage/src/Market.sol\":1902:1911  orderofId */\n      0x02\n        /* \"day7/Manage/src/Market.sol\":1902:1916  orderofId[_id] */\n      0x20\n      dup2\n      dup2\n      mstore\n      0x40\n      dup1\n      dup5\n      keccak256\n        /* \"day7/Manage/src/Market.sol\":1881:1916  Order memory order = orderofId[_id] */\n      dup2\n      mload\n      0x60\n      dup2\n      add\n      dup4\n      mstore\n      dup2\n      sload\n      sub(shl(0xa0, 0x01), 0x01)\n      swap1\n      dup2\n      and\n      dup1\n      dup4\n      mstore\n      0x01\n      dup5\n      add\n      sload\n      swap6\n      dup4\n      add\n      swap6\n      swap1\n      swap6\n      mstore\n      swap2\n      swap1\n      swap5\n      add\n      sload\n      dup5\n      dup4\n      add\n      mstore\n        /* \"day7/Manage/src/Market.sol\":2065:2071  erc721 */\n      dup5\n      sload\n        /* \"day7/Manage/src/Market.sol\":2065:2106  erc721.safeTransferFrom(seller,from, _id) */\n      swap2\n      mload\n      shl(0xe1, 0x21421707)\n      dup2\n      mstore\n      0x04\n      dup2\n      add\n        /* \"#utility.yul\":6128:6162   */\n      dup5\n      swap1\n      mstore\n        /* \"#utility.yul\":6198:6213   */\n      dup9\n      dup3\n      and\n        /* \"#utility.yul\":6178:6196   */\n      0x24\n      dup3\n      add\n        /* \"#utility.yul\":6171:6214   */\n      mstore\n        /* \"#utility.yul\":6230:6248   */\n      0x44\n      dup2\n      add\n        /* \"#utility.yul\":6223:6257   */\n      dup8\n      swap1\n      mstore\n        /* \"day7/Manage/src/Market.sol\":2065:2071  erc721 */\n      swap2\n      and\n      swap1\n        /* \"day7/Manage/src/Market.sol\":2065:2088  erc721.safeTransferFrom */\n      0x42842e0e\n      swap1\n        /* \"#utility.yul\":6063:6081   */\n      0x64\n      add\n        /* \"day7/Manage/src/Market.sol\":2065:2106  erc721.safeTransferFrom(seller,from, _id) */\n      0x00\n      mload(0x40)\n      dup1\n      dup4\n      sub\n      dup2\n      0x00\n      dup8\n      dup1\n      extcodesize\n      iszero\n      dup1\n      iszero\n      tag_90\n      jumpi\n      0x00\n      dup1\n      revert\n    tag_90:\n      pop\n      gas\n      call\n      iszero\n      dup1\n      iszero\n      tag_92\n      jumpi\n      returndatasize\n      0x00\n      dup1\n      returndatacopy\n      revert(0x00, returndatasize)\n    tag_92:\n      pop\n      pop\n        /* \"day7/Manage/src/Market.sol\":2125:2130  erc20 */\n      sload(0x01)\n        /* \"day7/Manage/src/Market.sol\":2125:2153  erc20.transfer(seller,value) */\n      mload(0x40)\n      shl(0xe0, 0xa9059cbb)\n      dup2\n      mstore\n      sub(shl(0xa0, 0x01), 0x01)\n        /* \"#utility.yul\":6460:6492   */\n      dup6\n      dup2\n      and\n        /* \"day7/Manage/src/Market.sol\":2125:2153  erc20.transfer(seller,value) */\n      0x04\n      dup4\n      add\n        /* \"#utility.yul\":6442:6493   */\n      mstore\n        /* \"#utility.yul\":6509:6527   */\n      0x24\n      dup3\n      add\n        /* \"#utility.yul\":6502:6536   */\n      dup11\n      swap1\n      mstore\n        /* \"day7/Manage/src/Market.sol\":2125:2130  erc20 */\n      swap1\n      swap2\n      and\n      swap3\n      pop\n        /* \"day7/Manage/src/Market.sol\":2125:2139  erc20.transfer */\n      0xa9059cbb\n      swap2\n      pop\n        /* \"#utility.yul\":6415:6433   */\n      0x44\n      add\n        /* \"day7/Manage/src/Market.sol\":2125:2153  erc20.transfer(seller,value) */\n      0x20\n      mload(0x40)\n      dup1\n      dup4\n      sub\n      dup2\n      0x00\n      dup8\n      gas\n      call\n      iszero\n      dup1\n      iszero\n      tag_96\n      jumpi\n      returndatasize\n      0x00\n      dup1\n      returndatacopy\n      revert(0x00, returndatasize)\n    tag_96:\n      pop\n      pop\n      pop\n      pop\n      mload(0x40)\n      returndatasize\n      not(0x1f)\n      0x1f\n      dup3\n      add\n      and\n      dup3\n      add\n      dup1\n      0x40\n      mstore\n      pop\n      dup2\n      add\n      swap1\n      tag_97\n      swap2\n      swap1\n      tag_98\n      jump\t// in\n    tag_97:\n        /* \"day7/Manage/src/Market.sol\":2117:2167  require(erc20.transfer(seller,value),\"erc20 fail\") */\n      tag_99\n      jumpi\n      mload(0x40)\n      shl(0xe5, 0x461bcd)\n      dup2\n      mstore\n        /* \"#utility.yul\":7031:7033   */\n      0x20\n        /* \"day7/Manage/src/Market.sol\":2117:2167  require(erc20.transfer(seller,value),\"erc20 fail\") */\n      0x04\n      dup3\n      add\n        /* \"#utility.yul\":7013:7034   */\n      mstore\n        /* \"#utility.yul\":7070:7072   */\n      0x0a\n        /* \"#utility.yul\":7050:7068   */\n      0x24\n      dup3\n      add\n        /* \"#utility.yul\":7043:7073   */\n      mstore\n      shl(0xb2, 0x195c98cc8c0819985a5b)\n        /* \"#utility.yul\":7089:7107   */\n      0x44\n      dup3\n      add\n        /* \"#utility.yul\":7082:7122   */\n      mstore\n        /* \"#utility.yul\":7139:7157   */\n      0x64\n      add\n        /* \"day7/Manage/src/Market.sol\":2117:2167  require(erc20.transfer(seller,value),\"erc20 fail\") */\n      tag_82\n        /* \"#utility.yul\":6829:7163   */\n      jump\n        /* \"day7/Manage/src/Market.sol\":2117:2167  require(erc20.transfer(seller,value),\"erc20 fail\") */\n    tag_99:\n      pop\n        /* \"day7/Manage/src/Market.sol\":2185:2189  true */\n      0x01\n      swap6\n        /* \"day7/Manage/src/Market.sol\":1739:2197  function tokenReceive(address from,uint256 value,uint256 _id) external  returns(bool){... */\n      swap5\n      pop\n      pop\n      pop\n      pop\n      pop\n      jump\t// out\n        /* \"day7/Manage/src/Market.sol\":2205:2597  function ChangePrice(uint256 _id, uint256 _price) external {... */\n    tag_37:\n        /* \"day7/Manage/src/Market.sol\":2316:2317  0 */\n      0x00\n        /* \"day7/Manage/src/Market.sol\":2283:2297  orderofId[_id] */\n      dup3\n      dup2\n      mstore\n        /* \"day7/Manage/src/Market.sol\":2283:2292  orderofId */\n      0x02\n        /* \"day7/Manage/src/Market.sol\":2283:2297  orderofId[_id] */\n      0x20\n      mstore\n      0x40\n      swap1\n      keccak256\n        /* \"day7/Manage/src/Market.sol\":2283:2304  orderofId[_id].seller */\n      sload\n      sub(shl(0xa0, 0x01), 0x01)\n      and\n        /* \"day7/Manage/src/Market.sol\":2275:2343  require(orderofId[_id].seller != address(0),\"Product not available\") */\n      tag_103\n      jumpi\n      mload(0x40)\n      shl(0xe5, 0x461bcd)\n      dup2\n      mstore\n        /* \"#utility.yul\":7370:7372   */\n      0x20\n        /* \"day7/Manage/src/Market.sol\":2275:2343  require(orderofId[_id].seller != address(0),\"Product not available\") */\n      0x04\n      dup3\n      add\n        /* \"#utility.yul\":7352:7373   */\n      mstore\n        /* \"#utility.yul\":7409:7411   */\n      0x15\n        /* \"#utility.yul\":7389:7407   */\n      0x24\n      dup3\n      add\n        /* \"#utility.yul\":7382:7412   */\n      mstore\n      shl(0x58, 0x50726f64756374206e6f7420617661696c61626c65)\n        /* \"#utility.yul\":7428:7446   */\n      0x44\n      dup3\n      add\n        /* \"#utility.yul\":7421:7472   */\n      mstore\n        /* \"#utility.yul\":7489:7507   */\n      0x64\n      add\n        /* \"day7/Manage/src/Market.sol\":2275:2343  require(orderofId[_id].seller != address(0),\"Product not available\") */\n      tag_82\n        /* \"#utility.yul\":7168:7513   */\n      jump\n        /* \"day7/Manage/src/Market.sol\":2275:2343  require(orderofId[_id].seller != address(0),\"Product not available\") */\n    tag_103:\n        /* \"day7/Manage/src/Market.sol\":2362:2376  orderofId[_id] */\n      0x00\n      dup3\n      dup2\n      mstore\n        /* \"day7/Manage/src/Market.sol\":2362:2371  orderofId */\n      0x02\n        /* \"day7/Manage/src/Market.sol\":2362:2376  orderofId[_id] */\n      0x20\n      mstore\n      0x40\n      swap1\n      keccak256\n        /* \"day7/Manage/src/Market.sol\":2362:2383  orderofId[_id].seller */\n      sload\n      sub(shl(0xa0, 0x01), 0x01)\n      and\n        /* \"day7/Manage/src/Market.sol\":2387:2397  msg.sender */\n      caller\n        /* \"day7/Manage/src/Market.sol\":2362:2397  orderofId[_id].seller == msg.sender */\n      eq\n        /* \"day7/Manage/src/Market.sol\":2354:2438  require(orderofId[_id].seller == msg.sender,\"You are not the owner of this product\") */\n      tag_106\n      jumpi\n      mload(0x40)\n      shl(0xe5, 0x461bcd)\n      dup2\n      mstore\n      0x04\n      add\n      tag_82\n      swap1\n      tag_108\n      jump\t// in\n    tag_106:\n        /* \"day7/Manage/src/Market.sol\":2449:2467  Order memory order */\n      0x00\n        /* \"day7/Manage/src/Market.sol\":2470:2484  orderofId[_id] */\n      dup3\n      dup2\n      mstore\n        /* \"day7/Manage/src/Market.sol\":2470:2479  orderofId */\n      0x02\n        /* \"day7/Manage/src/Market.sol\":2470:2484  orderofId[_id] */\n      0x20\n      dup2\n      dup2\n      mstore\n      0x40\n      dup1\n      dup5\n      keccak256\n        /* \"day7/Manage/src/Market.sol\":2449:2484  Order memory order = orderofId[_id] */\n      dup2\n      mload\n      0x60\n      dup2\n      add\n      dup4\n      mstore\n      dup2\n      sload\n      sub(shl(0xa0, 0x01), 0x01)\n      dup1\n      dup3\n      and\n      dup4\n      mstore\n      0x01\n      dup5\n      add\n      dup1\n      sload\n      dup5\n      dup9\n      add\n      swap1\n      dup2\n      mstore\n      dup5\n      dup8\n      add\n        /* \"day7/Manage/src/Market.sol\":2495:2515  order.price = _price */\n      dup12\n      dup2\n      mstore\n        /* \"day7/Manage/src/Market.sol\":2526:2540  orderofId[_id] */\n      swap10\n      dup13\n      swap1\n      mstore\n      dup9\n      dup9\n      mstore\n        /* \"day7/Manage/src/Market.sol\":2526:2548  orderofId[_id] = order */\n      dup5\n      mload\n      swap1\n      swap3\n      and\n      not(sub(shl(0xa0, 0x01), 0x01))\n      swap1\n      swap4\n      and\n      swap3\n      swap1\n      swap3\n      or\n      dup5\n      sstore\n      mload\n      swap1\n      sstore\n      swap5\n      mload\n        /* \"day7/Manage/src/Market.sol\":2449:2484  Order memory order = orderofId[_id] */\n      swap4\n      add\n        /* \"day7/Manage/src/Market.sol\":2526:2548  orderofId[_id] = order */\n      swap3\n      swap1\n      swap3\n      sstore\n        /* \"day7/Manage/src/Market.sol\":2566:2589  changePrice(_id,_price) */\n      dup2\n      mload\n        /* \"#utility.yul\":8098:8123   */\n      dup6\n      dup2\n      mstore\n        /* \"#utility.yul\":8139:8157   */\n      swap1\n      dup2\n      add\n        /* \"#utility.yul\":8132:8166   */\n      dup5\n      swap1\n      mstore\n        /* \"day7/Manage/src/Market.sol\":2566:2589  changePrice(_id,_price) */\n      0xb3de019cba215d4f3c532c1740d910f08288eca6b69768b4337c16ab74b49741\n      swap2\n        /* \"#utility.yul\":8071:8089   */\n      add\n        /* \"day7/Manage/src/Market.sol\":2566:2589  changePrice(_id,_price) */\n      mload(0x40)\n      dup1\n      swap2\n      sub\n      swap1\n      log1\n        /* \"day7/Manage/src/Market.sol\":2264:2597  {... */\n      pop\n        /* \"day7/Manage/src/Market.sol\":2205:2597  function ChangePrice(uint256 _id, uint256 _price) external {... */\n      pop\n      pop\n      jump\t// out\n        /* \"day7/Manage/src/Market.sol\":2605:2935  function CancelOrder(uint256 _id) external {... */\n    tag_41:\n        /* \"day7/Manage/src/Market.sol\":2700:2701  0 */\n      0x00\n        /* \"day7/Manage/src/Market.sol\":2667:2681  orderofId[_id] */\n      dup2\n      dup2\n      mstore\n        /* \"day7/Manage/src/Market.sol\":2667:2676  orderofId */\n      0x02\n        /* \"day7/Manage/src/Market.sol\":2667:2681  orderofId[_id] */\n      0x20\n      mstore\n      0x40\n      swap1\n      keccak256\n        /* \"day7/Manage/src/Market.sol\":2667:2688  orderofId[_id].seller */\n      sload\n      sub(shl(0xa0, 0x01), 0x01)\n      and\n        /* \"day7/Manage/src/Market.sol\":2659:2727  require(orderofId[_id].seller != address(0),\"Product not available\") */\n      tag_112\n      jumpi\n      mload(0x40)\n      shl(0xe5, 0x461bcd)\n      dup2\n      mstore\n        /* \"#utility.yul\":7370:7372   */\n      0x20\n        /* \"day7/Manage/src/Market.sol\":2659:2727  require(orderofId[_id].seller != address(0),\"Product not available\") */\n      0x04\n      dup3\n      add\n        /* \"#utility.yul\":7352:7373   */\n      mstore\n        /* \"#utility.yul\":7409:7411   */\n      0x15\n        /* \"#utility.yul\":7389:7407   */\n      0x24\n      dup3\n      add\n        /* \"#utility.yul\":7382:7412   */\n      mstore\n      shl(0x58, 0x50726f64756374206e6f7420617661696c61626c65)\n        /* \"#utility.yul\":7428:7446   */\n      0x44\n      dup3\n      add\n        /* \"#utility.yul\":7421:7472   */\n      mstore\n        /* \"#utility.yul\":7489:7507   */\n      0x64\n      add\n        /* \"day7/Manage/src/Market.sol\":2659:2727  require(orderofId[_id].seller != address(0),\"Product not available\") */\n      tag_82\n        /* \"#utility.yul\":7168:7513   */\n      jump\n        /* \"day7/Manage/src/Market.sol\":2659:2727  require(orderofId[_id].seller != address(0),\"Product not available\") */\n    tag_112:\n        /* \"day7/Manage/src/Market.sol\":2746:2760  orderofId[_id] */\n      0x00\n      dup2\n      dup2\n      mstore\n        /* \"day7/Manage/src/Market.sol\":2746:2755  orderofId */\n      0x02\n        /* \"day7/Manage/src/Market.sol\":2746:2760  orderofId[_id] */\n      0x20\n      mstore\n      0x40\n      swap1\n      keccak256\n        /* \"day7/Manage/src/Market.sol\":2746:2767  orderofId[_id].seller */\n      sload\n      sub(shl(0xa0, 0x01), 0x01)\n      and\n        /* \"day7/Manage/src/Market.sol\":2771:2781  msg.sender */\n      caller\n        /* \"day7/Manage/src/Market.sol\":2746:2781  orderofId[_id].seller == msg.sender */\n      eq\n        /* \"day7/Manage/src/Market.sol\":2738:2822  require(orderofId[_id].seller == msg.sender,\"You are not the owner of this product\") */\n      tag_114\n      jumpi\n      mload(0x40)\n      shl(0xe5, 0x461bcd)\n      dup2\n      mstore\n      0x04\n      add\n      tag_82\n      swap1\n      tag_108\n      jump\t// in\n    tag_114:\n        /* \"day7/Manage/src/Market.sol\":2840:2854  orderofId[_id] */\n      0x00\n      dup2\n      dup2\n      mstore\n        /* \"day7/Manage/src/Market.sol\":2840:2849  orderofId */\n      0x02\n        /* \"day7/Manage/src/Market.sol\":2840:2854  orderofId[_id] */\n      0x20\n      dup2\n      dup2\n      mstore\n      0x40\n      dup1\n      dup5\n      keccak256\n        /* \"day7/Manage/src/Market.sol\":2833:2854  delete orderofId[_id] */\n      dup1\n      sload\n      not(sub(shl(0xa0, 0x01), 0x01))\n      and\n      dup2\n      sstore\n      0x01\n      dup2\n      add\n      dup6\n      swap1\n      sstore\n      swap1\n      swap3\n      add\n      dup4\n      swap1\n      sstore\n        /* \"day7/Manage/src/Market.sol\":2872:2886  idToOrderIndex */\n      0x03\n        /* \"day7/Manage/src/Market.sol\":2872:2891  idToOrderIndex[_id] */\n      dup2\n      mstore\n      dup2\n      dup4\n      keccak256\n        /* \"day7/Manage/src/Market.sol\":2865:2891  delete idToOrderIndex[_id] */\n      swap3\n      swap1\n      swap3\n      sstore\n        /* \"day7/Manage/src/Market.sol\":2909:2925  cancelOrder(_id) */\n      mload\n        /* \"#utility.yul\":4025:4050   */\n      dup3\n      dup2\n      mstore\n        /* \"day7/Manage/src/Market.sol\":2909:2925  cancelOrder(_id) */\n      0x514fcac7bebb46f0de48634659b1bf29bbb864f5db67e9070672ed508989394e\n      swap2\n        /* \"#utility.yul\":3998:4016   */\n      add\n        /* \"day7/Manage/src/Market.sol\":2909:2925  cancelOrder(_id) */\n      mload(0x40)\n      dup1\n      swap2\n      sub\n      swap1\n      log1\n        /* \"day7/Manage/src/Market.sol\":2605:2935  function CancelOrder(uint256 _id) external {... */\n      pop\n      jump\t// out\n        /* \"day7/Manage/src/Market.sol\":516:537  Order[] public orders */\n    tag_44:\n      0x05\n      dup2\n      dup2\n      sload\n      dup2\n      lt\n      tag_117\n      jumpi\n      0x00\n      dup1\n      revert\n    tag_117:\n      0x00\n      swap2\n      dup3\n      mstore\n      0x20\n      swap1\n      swap2\n      keccak256\n      0x03\n      swap1\n      swap2\n      mul\n      add\n      dup1\n      sload\n      0x01\n      dup3\n      add\n      sload\n      0x02\n      swap1\n      swap3\n      add\n      sload\n      sub(shl(0xa0, 0x01), 0x01)\n      swap1\n      swap2\n      and\n      swap3\n      pop\n      dup4\n      jump\t// out\n        /* \"day7/Manage/src/Market.sol\":4156:4578  function toUint256(... */\n    tag_50:\n        /* \"day7/Manage/src/Market.sol\":4258:4265  uint256 */\n      0x00\n        /* \"day7/Manage/src/Market.sol\":4301:4307  _start */\n      dup2\n        /* \"day7/Manage/src/Market.sol\":4286:4297  _start + 32 */\n      tag_120\n        /* \"day7/Manage/src/Market.sol\":4301:4307  _start */\n      dup2\n        /* \"day7/Manage/src/Market.sol\":4295:4297  32 */\n      0x20\n        /* \"day7/Manage/src/Market.sol\":4286:4297  _start + 32 */\n      tag_121\n      jump\t// in\n    tag_120:\n        /* \"day7/Manage/src/Market.sol\":4286:4307  _start + 32 >= _start */\n      lt\n      iszero\n        /* \"day7/Manage/src/Market.sol\":4278:4338  require(_start + 32 >= _start, \"Market: toUint256_overflow\") */\n      tag_122\n      jumpi\n      mload(0x40)\n      shl(0xe5, 0x461bcd)\n      dup2\n      mstore\n        /* \"#utility.yul\":8641:8643   */\n      0x20\n        /* \"day7/Manage/src/Market.sol\":4278:4338  require(_start + 32 >= _start, \"Market: toUint256_overflow\") */\n      0x04\n      dup3\n      add\n        /* \"#utility.yul\":8623:8644   */\n      mstore\n        /* \"#utility.yul\":8680:8682   */\n      0x1a\n        /* \"#utility.yul\":8660:8678   */\n      0x24\n      dup3\n      add\n        /* \"#utility.yul\":8653:8683   */\n      mstore\n        /* \"#utility.yul\":8719:8747   */\n      0x4d61726b65743a20746f55696e743235365f6f766572666c6f77000000000000\n        /* \"#utility.yul\":8699:8717   */\n      0x44\n      dup3\n      add\n        /* \"#utility.yul\":8692:8748   */\n      mstore\n        /* \"#utility.yul\":8765:8783   */\n      0x64\n      add\n        /* \"day7/Manage/src/Market.sol\":4278:4338  require(_start + 32 >= _start, \"Market: toUint256_overflow\") */\n      tag_82\n        /* \"#utility.yul\":8439:8789   */\n      jump\n        /* \"day7/Manage/src/Market.sol\":4278:4338  require(_start + 32 >= _start, \"Market: toUint256_overflow\") */\n    tag_122:\n        /* \"day7/Manage/src/Market.sol\":4374:4385  _start + 32 */\n      tag_125\n        /* \"day7/Manage/src/Market.sol\":4374:4380  _start */\n      dup3\n        /* \"day7/Manage/src/Market.sol\":4383:4385  32 */\n      0x20\n        /* \"day7/Manage/src/Market.sol\":4374:4385  _start + 32 */\n      tag_121\n      jump\t// in\n    tag_125:\n        /* \"day7/Manage/src/Market.sol\":4357:4363  _bytes */\n      dup4\n        /* \"day7/Manage/src/Market.sol\":4357:4370  _bytes.length */\n      mload\n        /* \"day7/Manage/src/Market.sol\":4357:4385  _bytes.length >= _start + 32 */\n      lt\n      iszero\n        /* \"day7/Manage/src/Market.sol\":4349:4419  require(_bytes.length >= _start + 32, \"Market: toUint256_outOfBounds\") */\n      tag_126\n      jumpi\n      mload(0x40)\n      shl(0xe5, 0x461bcd)\n      dup2\n      mstore\n        /* \"#utility.yul\":8996:8998   */\n      0x20\n        /* \"day7/Manage/src/Market.sol\":4349:4419  require(_bytes.length >= _start + 32, \"Market: toUint256_outOfBounds\") */\n      0x04\n      dup3\n      add\n        /* \"#utility.yul\":8978:8999   */\n      mstore\n        /* \"#utility.yul\":9035:9037   */\n      0x1d\n        /* \"#utility.yul\":9015:9033   */\n      0x24\n      dup3\n      add\n        /* \"#utility.yul\":9008:9038   */\n      mstore\n        /* \"#utility.yul\":9074:9105   */\n      0x4d61726b65743a20746f55696e743235365f6f75744f66426f756e6473000000\n        /* \"#utility.yul\":9054:9072   */\n      0x44\n      dup3\n      add\n        /* \"#utility.yul\":9047:9106   */\n      mstore\n        /* \"#utility.yul\":9123:9141   */\n      0x64\n      add\n        /* \"day7/Manage/src/Market.sol\":4349:4419  require(_bytes.length >= _start + 32, \"Market: toUint256_outOfBounds\") */\n      tag_82\n        /* \"#utility.yul\":8794:9147   */\n      jump\n        /* \"day7/Manage/src/Market.sol\":4349:4419  require(_bytes.length >= _start + 32, \"Market: toUint256_outOfBounds\") */\n    tag_126:\n      pop\n        /* \"day7/Manage/src/Market.sol\":4501:4531  add(add(_bytes, 0x20), _start) */\n      dup2\n      dup2\n      add\n        /* \"day7/Manage/src/Market.sol\":4517:4521  0x20 */\n      0x20\n        /* \"day7/Manage/src/Market.sol\":4501:4531  add(add(_bytes, 0x20), _start) */\n      add\n        /* \"day7/Manage/src/Market.sol\":4495:4532  mload(add(add(_bytes, 0x20), _start)) */\n      mload\n        /* \"day7/Manage/src/Market.sol\":4156:4578  function toUint256(... */\n    tag_119:\n      swap3\n      swap2\n      pop\n      pop\n      jump\t// out\n        /* \"day7/Manage/src/Market.sol\":1463:1705  function bytesToUint(bytes32 b) public view returns (uint256){... */\n    tag_60:\n        /* \"day7/Manage/src/Market.sol\":1516:1523  uint256 */\n      0x00\n        /* \"day7/Manage/src/Market.sol\":1535:1549  uint256 number */\n      dup1\n        /* \"day7/Manage/src/Market.sol\":1564:1570  uint i */\n      0x00\n        /* \"day7/Manage/src/Market.sol\":1560:1673  for(uint i= 0; i<b.length; i++){... */\n    tag_130:\n        /* \"day7/Manage/src/Market.sol\":1577:1585  b.length */\n      0x20\n        /* \"day7/Manage/src/Market.sol\":1575:1585  i<b.length */\n      dup2\n      lt\n        /* \"day7/Manage/src/Market.sol\":1560:1673  for(uint i= 0; i<b.length; i++){... */\n      iszero\n      tag_131\n      jumpi\n        /* \"day7/Manage/src/Market.sol\":1654:1657  i+1 */\n      tag_133\n        /* \"day7/Manage/src/Market.sol\":1654:1655  i */\n      dup2\n        /* \"day7/Manage/src/Market.sol\":1656:1657  1 */\n      0x01\n        /* \"day7/Manage/src/Market.sol\":1654:1657  i+1 */\n      tag_121\n      jump\t// in\n    tag_133:\n        /* \"day7/Manage/src/Market.sol\":1644:1658  b.length-(i+1) */\n      tag_134\n      swap1\n        /* \"day7/Manage/src/Market.sol\":1644:1652  b.length */\n      0x20\n        /* \"day7/Manage/src/Market.sol\":1644:1658  b.length-(i+1) */\n      tag_135\n      jump\t// in\n    tag_134:\n        /* \"day7/Manage/src/Market.sol\":1641:1659  8*(b.length-(i+1)) */\n      tag_136\n      swap1\n        /* \"day7/Manage/src/Market.sol\":1641:1642  8 */\n      0x08\n        /* \"day7/Manage/src/Market.sol\":1641:1659  8*(b.length-(i+1)) */\n      tag_137\n      jump\t// in\n    tag_136:\n        /* \"day7/Manage/src/Market.sol\":1637:1660  2**(8*(b.length-(i+1))) */\n      tag_138\n      swap1\n        /* \"day7/Manage/src/Market.sol\":1637:1638  2 */\n      0x02\n        /* \"day7/Manage/src/Market.sol\":1637:1660  2**(8*(b.length-(i+1))) */\n      tag_139\n      jump\t// in\n    tag_138:\n        /* \"day7/Manage/src/Market.sol\":1630:1631  b */\n      dup5\n        /* \"day7/Manage/src/Market.sol\":1632:1633  i */\n      dup3\n        /* \"day7/Manage/src/Market.sol\":1630:1634  b[i] */\n      0x20\n      dup2\n      lt\n      tag_141\n      jumpi\n      tag_141\n      tag_142\n      jump\t// in\n    tag_141:\n        /* \"day7/Manage/src/Market.sol\":1624:1661  uint8(b[i])*(2**(8*(b.length-(i+1)))) */\n      tag_143\n      swap3\n      swap2\n        /* \"day7/Manage/src/Market.sol\":1630:1634  b[i] */\n      swap1\n      byte\n        /* \"day7/Manage/src/Market.sol\":1624:1661  uint8(b[i])*(2**(8*(b.length-(i+1)))) */\n      tag_137\n      jump\t// in\n    tag_143:\n        /* \"day7/Manage/src/Market.sol\":1615:1661  number + uint8(b[i])*(2**(8*(b.length-(i+1)))) */\n      tag_144\n      swap1\n        /* \"day7/Manage/src/Market.sol\":1615:1621  number */\n      dup4\n        /* \"day7/Manage/src/Market.sol\":1615:1661  number + uint8(b[i])*(2**(8*(b.length-(i+1)))) */\n      tag_121\n      jump\t// in\n    tag_144:\n        /* \"day7/Manage/src/Market.sol\":1606:1661  number = number + uint8(b[i])*(2**(8*(b.length-(i+1)))) */\n      swap2\n      pop\n        /* \"day7/Manage/src/Market.sol\":1587:1590  i++ */\n      0x01\n      add\n        /* \"day7/Manage/src/Market.sol\":1560:1673  for(uint i= 0; i<b.length; i++){... */\n      jump(tag_130)\n    tag_131:\n      pop\n        /* \"day7/Manage/src/Market.sol\":1691:1697  number */\n      swap3\n        /* \"day7/Manage/src/Market.sol\":1463:1705  function bytesToUint(bytes32 b) public view returns (uint256){... */\n      swap2\n      pop\n      pop\n      jump\t// out\n        /* \"day7/Manage/src/Market.sol\":2943:3461  function getMyNFT(address account) external view returns(Order[] memory){... */\n    tag_73:\n        /* \"day7/Manage/src/Market.sol\":3061:3067  orders */\n      0x05\n        /* \"day7/Manage/src/Market.sol\":3061:3074  orders.length */\n      sload\n        /* \"day7/Manage/src/Market.sol\":3000:3014  Order[] memory */\n      0x60\n      swap1\n        /* \"day7/Manage/src/Market.sol\":3026:3046  Order[] memory myNFT */\n      0x00\n      swap1\n        /* \"day7/Manage/src/Market.sol\":3049:3075  new Order[](orders.length) */\n      0xffffffffffffffff\n      dup2\n      gt\n      iszero\n      tag_147\n      jumpi\n      tag_147\n      tag_148\n      jump\t// in\n    tag_147:\n      mload(0x40)\n      swap1\n      dup1\n      dup3\n      mstore\n      dup1\n      0x20\n      mul\n      0x20\n      add\n      dup3\n      add\n      0x40\n      mstore\n      dup1\n      iszero\n      tag_149\n      jumpi\n      dup2\n      0x20\n      add\n    tag_150:\n      tag_151\n      mload(0x40)\n      dup1\n      0x60\n      add\n      0x40\n      mstore\n      dup1\n      and(sub(shl(0xa0, 0x01), 0x01), 0x00)\n      dup2\n      mstore\n      0x20\n      add\n      0x00\n      dup2\n      mstore\n      0x20\n      add\n      0x00\n      dup2\n      mstore\n      pop\n      swap1\n      jump\n    tag_151:\n      dup2\n      mstore\n      0x20\n      add\n      swap1\n      0x01\n      swap1\n      sub\n      swap1\n      dup2\n      tag_150\n      jumpi\n      swap1\n      pop\n    tag_149:\n      pop\n        /* \"day7/Manage/src/Market.sol\":3026:3075  Order[] memory myNFT = new Order[](orders.length) */\n      swap1\n      pop\n        /* \"day7/Manage/src/Market.sol\":3086:3099  uint256 count */\n      0x00\n        /* \"day7/Manage/src/Market.sol\":3118:3127  uint256 i */\n      dup1\n        /* \"day7/Manage/src/Market.sol\":3114:3292  for(uint256 i=0;i<orders.length;i++){... */\n    tag_153:\n        /* \"day7/Manage/src/Market.sol\":3132:3138  orders */\n      0x05\n        /* \"day7/Manage/src/Market.sol\":3132:3145  orders.length */\n      sload\n        /* \"day7/Manage/src/Market.sol\":3130:3145  i<orders.length */\n      dup2\n      lt\n        /* \"day7/Manage/src/Market.sol\":3114:3292  for(uint256 i=0;i<orders.length;i++){... */\n      iszero\n      tag_154\n      jumpi\n        /* \"day7/Manage/src/Market.sol\":3188:3195  account */\n      dup5\n      sub(shl(0xa0, 0x01), 0x01)\n        /* \"day7/Manage/src/Market.sol\":3168:3195  orders[i].seller == account */\n      and\n        /* \"day7/Manage/src/Market.sol\":3168:3174  orders */\n      0x05\n        /* \"day7/Manage/src/Market.sol\":3175:3176  i */\n      dup3\n        /* \"day7/Manage/src/Market.sol\":3168:3177  orders[i] */\n      dup2\n      sload\n      dup2\n      lt\n      tag_157\n      jumpi\n      tag_157\n      tag_142\n      jump\t// in\n    tag_157:\n      0x00\n      swap2\n      dup3\n      mstore\n      0x20\n      swap1\n      swap2\n      keccak256\n      0x03\n      swap1\n      swap2\n      mul\n      add\n        /* \"day7/Manage/src/Market.sol\":3168:3184  orders[i].seller */\n      sload\n      sub(shl(0xa0, 0x01), 0x01)\n      and\n        /* \"day7/Manage/src/Market.sol\":3168:3195  orders[i].seller == account */\n      sub\n        /* \"day7/Manage/src/Market.sol\":3165:3281  if(orders[i].seller == account){... */\n      tag_159\n      jumpi\n        /* \"day7/Manage/src/Market.sol\":3230:3236  orders */\n      0x05\n        /* \"day7/Manage/src/Market.sol\":3237:3238  i */\n      dup2\n        /* \"day7/Manage/src/Market.sol\":3230:3239  orders[i] */\n      dup2\n      sload\n      dup2\n      lt\n      tag_161\n      jumpi\n      tag_161\n      tag_142\n      jump\t// in\n    tag_161:\n      0x00\n      swap2\n      dup3\n      mstore\n      0x20\n      swap2\n      dup3\n      swap1\n      keccak256\n        /* \"day7/Manage/src/Market.sol\":3215:3239  myNFT[count] = orders[i] */\n      0x40\n      dup1\n      mload\n      0x60\n      dup2\n      add\n      dup3\n      mstore\n        /* \"day7/Manage/src/Market.sol\":3230:3239  orders[i] */\n      0x03\n      swap1\n      swap4\n      mul\n      swap1\n      swap2\n      add\n        /* \"day7/Manage/src/Market.sol\":3215:3239  myNFT[count] = orders[i] */\n      dup1\n      sload\n      sub(shl(0xa0, 0x01), 0x01)\n      and\n      dup4\n      mstore\n      0x01\n      dup2\n      add\n      sload\n      swap4\n      dup4\n      add\n      swap4\n      swap1\n      swap4\n      mstore\n      0x02\n      swap1\n      swap3\n      add\n      sload\n      swap2\n      dup2\n      add\n      swap2\n      swap1\n      swap2\n      mstore\n        /* \"day7/Manage/src/Market.sol\":3215:3227  myNFT[count] */\n      dup4\n      mload\n        /* \"day7/Manage/src/Market.sol\":3215:3220  myNFT */\n      dup5\n      swap1\n        /* \"day7/Manage/src/Market.sol\":3221:3226  count */\n      dup5\n      swap1\n        /* \"day7/Manage/src/Market.sol\":3215:3227  myNFT[count] */\n      dup2\n      lt\n      tag_164\n      jumpi\n      tag_164\n      tag_142\n      jump\t// in\n    tag_164:\n      0x20\n      mul\n      0x20\n      add\n      add\n        /* \"day7/Manage/src/Market.sol\":3215:3239  myNFT[count] = orders[i] */\n      dup2\n      swap1\n      mstore\n      pop\n        /* \"day7/Manage/src/Market.sol\":3258:3265  count++ */\n      dup2\n      dup1\n      tag_165\n      swap1\n      tag_166\n      jump\t// in\n    tag_165:\n      swap3\n      pop\n      pop\n        /* \"day7/Manage/src/Market.sol\":3165:3281  if(orders[i].seller == account){... */\n    tag_159:\n        /* \"day7/Manage/src/Market.sol\":3146:3149  i++ */\n      0x01\n      add\n        /* \"day7/Manage/src/Market.sol\":3114:3292  for(uint256 i=0;i<orders.length;i++){... */\n      jump(tag_153)\n    tag_154:\n      pop\n        /* \"day7/Manage/src/Market.sol\":3302:3323  Order[] memory result */\n      0x00\n        /* \"day7/Manage/src/Market.sol\":3338:3343  count */\n      dup2\n        /* \"day7/Manage/src/Market.sol\":3326:3344  new Order[](count) */\n      0xffffffffffffffff\n      dup2\n      gt\n      iszero\n      tag_168\n      jumpi\n      tag_168\n      tag_148\n      jump\t// in\n    tag_168:\n      mload(0x40)\n      swap1\n      dup1\n      dup3\n      mstore\n      dup1\n      0x20\n      mul\n      0x20\n      add\n      dup3\n      add\n      0x40\n      mstore\n      dup1\n      iszero\n      tag_169\n      jumpi\n      dup2\n      0x20\n      add\n    tag_170:\n      tag_171\n      mload(0x40)\n      dup1\n      0x60\n      add\n      0x40\n      mstore\n      dup1\n      and(sub(shl(0xa0, 0x01), 0x01), 0x00)\n      dup2\n      mstore\n      0x20\n      add\n      0x00\n      dup2\n      mstore\n      0x20\n      add\n      0x00\n      dup2\n      mstore\n      pop\n      swap1\n      jump\n    tag_171:\n      dup2\n      mstore\n      0x20\n      add\n      swap1\n      0x01\n      swap1\n      sub\n      swap1\n      dup2\n      tag_170\n      jumpi\n      swap1\n      pop\n    tag_169:\n      pop\n        /* \"day7/Manage/src/Market.sol\":3302:3344  Order[] memory result = new Order[](count) */\n      swap1\n      pop\n        /* \"day7/Manage/src/Market.sol\":3359:3368  uint256 i */\n      0x00\n        /* \"day7/Manage/src/Market.sol\":3355:3430  for(uint256 i=0;i<count;i++){... */\n    tag_172:\n        /* \"day7/Manage/src/Market.sol\":3373:3378  count */\n      dup3\n        /* \"day7/Manage/src/Market.sol\":3371:3372  i */\n      dup2\n        /* \"day7/Manage/src/Market.sol\":3371:3378  i<count */\n      lt\n        /* \"day7/Manage/src/Market.sol\":3355:3430  for(uint256 i=0;i<count;i++){... */\n      iszero\n      tag_173\n      jumpi\n        /* \"day7/Manage/src/Market.sol\":3410:3415  myNFT */\n      dup4\n        /* \"day7/Manage/src/Market.sol\":3416:3417  i */\n      dup2\n        /* \"day7/Manage/src/Market.sol\":3410:3418  myNFT[i] */\n      dup2\n      mload\n      dup2\n      lt\n      tag_176\n      jumpi\n      tag_176\n      tag_142\n      jump\t// in\n    tag_176:\n      0x20\n      mul\n      0x20\n      add\n      add\n      mload\n        /* \"day7/Manage/src/Market.sol\":3398:3404  result */\n      dup3\n        /* \"day7/Manage/src/Market.sol\":3405:3406  i */\n      dup3\n        /* \"day7/Manage/src/Market.sol\":3398:3407  result[i] */\n      dup2\n      mload\n      dup2\n      lt\n      tag_178\n      jumpi\n      tag_178\n      tag_142\n      jump\t// in\n    tag_178:\n      0x20\n      swap1\n      dup2\n      mul\n      swap2\n      swap1\n      swap2\n      add\n      add\n        /* \"day7/Manage/src/Market.sol\":3398:3418  result[i] = myNFT[i] */\n      mstore\n        /* \"day7/Manage/src/Market.sol\":3379:3382  i++ */\n      0x01\n      add\n        /* \"day7/Manage/src/Market.sol\":3355:3430  for(uint256 i=0;i<count;i++){... */\n      jump(tag_172)\n    tag_173:\n      pop\n        /* \"day7/Manage/src/Market.sol\":3447:3453  result */\n      swap5\n        /* \"day7/Manage/src/Market.sol\":2943:3461  function getMyNFT(address account) external view returns(Order[] memory){... */\n      swap4\n      pop\n      pop\n      pop\n      pop\n      jump\t// out\n        /* \"day7/Manage/src/Market.sol\":3473:3716  function placeOrder(address seller,uint256 id,uint256 price) internal {... */\n    tag_86:\n        /* \"day7/Manage/src/Market.sol\":3575:3597  Order(seller,id,price) */\n      0x40\n      dup1\n      mload\n      0x60\n      dup2\n      add\n      dup3\n      mstore\n      sub(shl(0xa0, 0x01), 0x01)\n      dup1\n      dup7\n      and\n      dup3\n      mstore\n      0x20\n      dup1\n      dup4\n      add\n      dup7\n      dup2\n      mstore\n      dup4\n      dup6\n      add\n      dup7\n      dup2\n      mstore\n        /* \"day7/Manage/src/Market.sol\":3608:3614  orders */\n      0x05\n        /* \"day7/Manage/src/Market.sol\":3608:3626  orders.push(order) */\n      dup1\n      sload\n      0x01\n      dup2\n      dup2\n      add\n      dup4\n      sstore\n        /* \"day7/Manage/src/Market.sol\":3554:3572  Order memory order */\n      0x00\n        /* \"day7/Manage/src/Market.sol\":3608:3626  orders.push(order) */\n      dup4\n      dup2\n      mstore\n      dup9\n      mload\n      0x03\n      swap1\n      swap4\n      mul\n      0x036b6384b5eca791c62761152d0c79bb0604c104a5fb6f4eb0703f3154bb3db0\n      dup2\n      add\n      dup1\n      sload\n      swap5\n      dup11\n      and\n      not(sub(shl(0xa0, 0x01), 0x01))\n      swap6\n      dup7\n      and\n      or\n      swap1\n      sstore\n      dup7\n      mload\n      0x036b6384b5eca791c62761152d0c79bb0604c104a5fb6f4eb0703f3154bb3db1\n      dup3\n      add\n      sstore\n      dup6\n      mload\n      0x036b6384b5eca791c62761152d0c79bb0604c104a5fb6f4eb0703f3154bb3db2\n      swap1\n      swap2\n      add\n      sstore\n        /* \"day7/Manage/src/Market.sol\":3637:3650  orderofId[id] */\n      dup12\n      dup2\n      mstore\n        /* \"day7/Manage/src/Market.sol\":3608:3626  orders.push(order) */\n      0x02\n        /* \"day7/Manage/src/Market.sol\":3637:3650  orderofId[id] */\n      swap7\n      dup8\n      swap1\n      mstore\n      swap9\n      swap1\n      swap9\n      keccak256\n        /* \"day7/Manage/src/Market.sol\":3637:3658  orderofId[id] = order */\n      dup8\n      mload\n      dup2\n      sload\n      swap8\n      and\n      swap7\n      swap1\n      swap2\n      and\n      swap6\n      swap1\n      swap6\n      or\n      dup6\n      sstore\n      swap2\n      mload\n      dup5\n      dup8\n      add\n      sstore\n      mload\n      swap3\n      swap1\n      swap2\n      add\n      swap2\n      swap1\n      swap2\n      sstore\n        /* \"day7/Manage/src/Market.sol\":3691:3704  orders.length */\n      sload\n        /* \"day7/Manage/src/Market.sol\":3575:3597  Order(seller,id,price) */\n      swap1\n      swap2\n        /* \"day7/Manage/src/Market.sol\":3691:3706  orders.length-1 */\n      tag_181\n      swap2\n      tag_135\n      jump\t// in\n    tag_181:\n        /* \"day7/Manage/src/Market.sol\":3671:3689  idToOrderIndex[id] */\n      0x00\n      swap4\n      dup5\n      mstore\n        /* \"day7/Manage/src/Market.sol\":3671:3685  idToOrderIndex */\n      0x03\n        /* \"day7/Manage/src/Market.sol\":3671:3689  idToOrderIndex[id] */\n      0x20\n      mstore\n      0x40\n      swap1\n      swap4\n      keccak256\n        /* \"day7/Manage/src/Market.sol\":3671:3706  idToOrderIndex[id]= orders.length-1 */\n      swap3\n      swap1\n      swap3\n      sstore\n      pop\n      pop\n      pop\n        /* \"day7/Manage/src/Market.sol\":3473:3716  function placeOrder(address seller,uint256 id,uint256 price) internal {... */\n      jump\t// out\n        /* \"#utility.yul\":14:187   */\n    tag_182:\n        /* \"#utility.yul\":82:102   */\n      dup1\n      calldataload\n      sub(shl(0xa0, 0x01), 0x01)\n        /* \"#utility.yul\":131:162   */\n      dup2\n      and\n        /* \"#utility.yul\":121:163   */\n      dup2\n      eq\n        /* \"#utility.yul\":111:181   */\n      tag_188\n      jumpi\n        /* \"#utility.yul\":177:178   */\n      0x00\n        /* \"#utility.yul\":174:175   */\n      dup1\n        /* \"#utility.yul\":167:179   */\n      revert\n        /* \"#utility.yul\":111:181   */\n    tag_188:\n        /* \"#utility.yul\":14:187   */\n      swap2\n      swap1\n      pop\n      jump\t// out\n        /* \"#utility.yul\":192:1000   */\n    tag_20:\n        /* \"#utility.yul\":289:295   */\n      0x00\n        /* \"#utility.yul\":297:303   */\n      dup1\n        /* \"#utility.yul\":305:311   */\n      0x00\n        /* \"#utility.yul\":313:319   */\n      dup1\n        /* \"#utility.yul\":321:327   */\n      0x00\n        /* \"#utility.yul\":374:377   */\n      0x80\n        /* \"#utility.yul\":362:371   */\n      dup7\n        /* \"#utility.yul\":353:360   */\n      dup9\n        /* \"#utility.yul\":349:372   */\n      sub\n        /* \"#utility.yul\":345:378   */\n      slt\n        /* \"#utility.yul\":342:395   */\n      iszero\n      tag_190\n      jumpi\n        /* \"#utility.yul\":391:392   */\n      0x00\n        /* \"#utility.yul\":388:389   */\n      dup1\n        /* \"#utility.yul\":381:393   */\n      revert\n        /* \"#utility.yul\":342:395   */\n    tag_190:\n        /* \"#utility.yul\":414:443   */\n      tag_191\n        /* \"#utility.yul\":433:442   */\n      dup7\n        /* \"#utility.yul\":414:443   */\n      tag_182\n      jump\t// in\n    tag_191:\n        /* \"#utility.yul\":404:443   */\n      swap5\n      pop\n        /* \"#utility.yul\":462:500   */\n      tag_192\n        /* \"#utility.yul\":496:498   */\n      0x20\n        /* \"#utility.yul\":485:494   */\n      dup8\n        /* \"#utility.yul\":481:499   */\n      add\n        /* \"#utility.yul\":462:500   */\n      tag_182\n      jump\t// in\n    tag_192:\n        /* \"#utility.yul\":452:500   */\n      swap4\n      pop\n        /* \"#utility.yul\":547:549   */\n      0x40\n        /* \"#utility.yul\":536:545   */\n      dup7\n        /* \"#utility.yul\":532:550   */\n      add\n        /* \"#utility.yul\":519:551   */\n      calldataload\n        /* \"#utility.yul\":509:551   */\n      swap3\n      pop\n        /* \"#utility.yul\":602:604   */\n      0x60\n        /* \"#utility.yul\":591:600   */\n      dup7\n        /* \"#utility.yul\":587:605   */\n      add\n        /* \"#utility.yul\":574:606   */\n      calldataload\n        /* \"#utility.yul\":625:643   */\n      0xffffffffffffffff\n        /* \"#utility.yul\":666:668   */\n      dup1\n        /* \"#utility.yul\":658:664   */\n      dup3\n        /* \"#utility.yul\":655:669   */\n      gt\n        /* \"#utility.yul\":652:686   */\n      iszero\n      tag_193\n      jumpi\n        /* \"#utility.yul\":682:683   */\n      0x00\n        /* \"#utility.yul\":679:680   */\n      dup1\n        /* \"#utility.yul\":672:684   */\n      revert\n        /* \"#utility.yul\":652:686   */\n    tag_193:\n        /* \"#utility.yul\":720:726   */\n      dup2\n        /* \"#utility.yul\":709:718   */\n      dup9\n        /* \"#utility.yul\":705:727   */\n      add\n        /* \"#utility.yul\":695:727   */\n      swap2\n      pop\n        /* \"#utility.yul\":765:772   */\n      dup9\n        /* \"#utility.yul\":758:762   */\n      0x1f\n        /* \"#utility.yul\":754:756   */\n      dup4\n        /* \"#utility.yul\":750:763   */\n      add\n        /* \"#utility.yul\":746:773   */\n      slt\n        /* \"#utility.yul\":736:791   */\n      tag_194\n      jumpi\n        /* \"#utility.yul\":787:788   */\n      0x00\n        /* \"#utility.yul\":784:785   */\n      dup1\n        /* \"#utility.yul\":777:789   */\n      revert\n        /* \"#utility.yul\":736:791   */\n    tag_194:\n        /* \"#utility.yul\":827:829   */\n      dup2\n        /* \"#utility.yul\":814:830   */\n      calldataload\n        /* \"#utility.yul\":853:855   */\n      dup2\n        /* \"#utility.yul\":845:851   */\n      dup2\n        /* \"#utility.yul\":842:856   */\n      gt\n        /* \"#utility.yul\":839:873   */\n      iszero\n      tag_195\n      jumpi\n        /* \"#utility.yul\":869:870   */\n      0x00\n        /* \"#utility.yul\":866:867   */\n      dup1\n        /* \"#utility.yul\":859:871   */\n      revert\n        /* \"#utility.yul\":839:873   */\n    tag_195:\n        /* \"#utility.yul\":914:921   */\n      dup10\n        /* \"#utility.yul\":909:911   */\n      0x20\n        /* \"#utility.yul\":900:906   */\n      dup3\n        /* \"#utility.yul\":896:898   */\n      dup6\n        /* \"#utility.yul\":892:907   */\n      add\n        /* \"#utility.yul\":888:912   */\n      add\n        /* \"#utility.yul\":885:922   */\n      gt\n        /* \"#utility.yul\":882:939   */\n      iszero\n      tag_196\n      jumpi\n        /* \"#utility.yul\":935:936   */\n      0x00\n        /* \"#utility.yul\":932:933   */\n      dup1\n        /* \"#utility.yul\":925:937   */\n      revert\n        /* \"#utility.yul\":882:939   */\n    tag_196:\n        /* \"#utility.yul\":192:1000   */\n      swap7\n      swap10\n      swap6\n      swap9\n      pop\n      swap4\n      swap7\n      pop\n        /* \"#utility.yul\":966:968   */\n      0x20\n        /* \"#utility.yul\":958:969   */\n      add\n      swap5\n        /* \"#utility.yul\":988:994   */\n      swap4\n        /* \"#utility.yul\":192:1000   */\n      swap3\n      pop\n      pop\n      pop\n      jump\t// out\n        /* \"#utility.yul\":1212:1534   */\n    tag_26:\n        /* \"#utility.yul\":1289:1295   */\n      0x00\n        /* \"#utility.yul\":1297:1303   */\n      dup1\n        /* \"#utility.yul\":1305:1311   */\n      0x00\n        /* \"#utility.yul\":1358:1360   */\n      0x60\n        /* \"#utility.yul\":1346:1355   */\n      dup5\n        /* \"#utility.yul\":1337:1344   */\n      dup7\n        /* \"#utility.yul\":1333:1356   */\n      sub\n        /* \"#utility.yul\":1329:1361   */\n      slt\n        /* \"#utility.yul\":1326:1378   */\n      iszero\n      tag_199\n      jumpi\n        /* \"#utility.yul\":1374:1375   */\n      0x00\n        /* \"#utility.yul\":1371:1372   */\n      dup1\n        /* \"#utility.yul\":1364:1376   */\n      revert\n        /* \"#utility.yul\":1326:1378   */\n    tag_199:\n        /* \"#utility.yul\":1397:1426   */\n      tag_200\n        /* \"#utility.yul\":1416:1425   */\n      dup5\n        /* \"#utility.yul\":1397:1426   */\n      tag_182\n      jump\t// in\n    tag_200:\n        /* \"#utility.yul\":1387:1426   */\n      swap6\n        /* \"#utility.yul\":1473:1475   */\n      0x20\n        /* \"#utility.yul\":1458:1476   */\n      dup6\n      add\n        /* \"#utility.yul\":1445:1477   */\n      calldataload\n      swap6\n      pop\n        /* \"#utility.yul\":1524:1526   */\n      0x40\n        /* \"#utility.yul\":1509:1527   */\n      swap1\n      swap5\n      add\n        /* \"#utility.yul\":1496:1528   */\n      calldataload\n      swap4\n        /* \"#utility.yul\":1212:1534   */\n      swap3\n      pop\n      pop\n      pop\n      jump\t// out\n        /* \"#utility.yul\":1955:2203   */\n    tag_36:\n        /* \"#utility.yul\":2023:2029   */\n      0x00\n        /* \"#utility.yul\":2031:2037   */\n      dup1\n        /* \"#utility.yul\":2084:2086   */\n      0x40\n        /* \"#utility.yul\":2072:2081   */\n      dup4\n        /* \"#utility.yul\":2063:2070   */\n      dup6\n        /* \"#utility.yul\":2059:2082   */\n      sub\n        /* \"#utility.yul\":2055:2087   */\n      slt\n        /* \"#utility.yul\":2052:2104   */\n      iszero\n      tag_204\n      jumpi\n        /* \"#utility.yul\":2100:2101   */\n      0x00\n        /* \"#utility.yul\":2097:2098   */\n      dup1\n        /* \"#utility.yul\":2090:2102   */\n      revert\n        /* \"#utility.yul\":2052:2104   */\n    tag_204:\n      pop\n      pop\n        /* \"#utility.yul\":2123:2146   */\n      dup1\n      calldataload\n      swap3\n        /* \"#utility.yul\":2193:2195   */\n      0x20\n        /* \"#utility.yul\":2178:2196   */\n      swap1\n      swap2\n      add\n        /* \"#utility.yul\":2165:2197   */\n      calldataload\n      swap2\n      pop\n        /* \"#utility.yul\":1955:2203   */\n      jump\t// out\n        /* \"#utility.yul\":2208:2388   */\n    tag_40:\n        /* \"#utility.yul\":2267:2273   */\n      0x00\n        /* \"#utility.yul\":2320:2322   */\n      0x20\n        /* \"#utility.yul\":2308:2317   */\n      dup3\n        /* \"#utility.yul\":2299:2306   */\n      dup5\n        /* \"#utility.yul\":2295:2318   */\n      sub\n        /* \"#utility.yul\":2291:2323   */\n      slt\n        /* \"#utility.yul\":2288:2340   */\n      iszero\n      tag_206\n      jumpi\n        /* \"#utility.yul\":2336:2337   */\n      0x00\n        /* \"#utility.yul\":2333:2334   */\n      dup1\n        /* \"#utility.yul\":2326:2338   */\n      revert\n        /* \"#utility.yul\":2288:2340   */\n    tag_206:\n      pop\n        /* \"#utility.yul\":2359:2382   */\n      calldataload\n      swap2\n        /* \"#utility.yul\":2208:2388   */\n      swap1\n      pop\n      jump\t// out\n        /* \"#utility.yul\":2743:2870   */\n    tag_148:\n        /* \"#utility.yul\":2804:2814   */\n      0x4e487b71\n        /* \"#utility.yul\":2799:2802   */\n      0xe0\n        /* \"#utility.yul\":2795:2815   */\n      shl\n        /* \"#utility.yul\":2792:2793   */\n      0x00\n        /* \"#utility.yul\":2785:2816   */\n      mstore\n        /* \"#utility.yul\":2835:2839   */\n      0x41\n        /* \"#utility.yul\":2832:2833   */\n      0x04\n        /* \"#utility.yul\":2825:2840   */\n      mstore\n        /* \"#utility.yul\":2859:2863   */\n      0x24\n        /* \"#utility.yul\":2856:2857   */\n      0x00\n        /* \"#utility.yul\":2849:2864   */\n      revert\n        /* \"#utility.yul\":2875:3874   */\n    tag_49:\n        /* \"#utility.yul\":2952:2958   */\n      0x00\n        /* \"#utility.yul\":2960:2966   */\n      dup1\n        /* \"#utility.yul\":3013:3015   */\n      0x40\n        /* \"#utility.yul\":3001:3010   */\n      dup4\n        /* \"#utility.yul\":2992:2999   */\n      dup6\n        /* \"#utility.yul\":2988:3011   */\n      sub\n        /* \"#utility.yul\":2984:3016   */\n      slt\n        /* \"#utility.yul\":2981:3033   */\n      iszero\n      tag_210\n      jumpi\n        /* \"#utility.yul\":3029:3030   */\n      0x00\n        /* \"#utility.yul\":3026:3027   */\n      dup1\n        /* \"#utility.yul\":3019:3031   */\n      revert\n        /* \"#utility.yul\":2981:3033   */\n    tag_210:\n        /* \"#utility.yul\":3069:3078   */\n      dup3\n        /* \"#utility.yul\":3056:3079   */\n      calldataload\n        /* \"#utility.yul\":3098:3116   */\n      0xffffffffffffffff\n        /* \"#utility.yul\":3139:3141   */\n      dup1\n        /* \"#utility.yul\":3131:3137   */\n      dup3\n        /* \"#utility.yul\":3128:3142   */\n      gt\n        /* \"#utility.yul\":3125:3159   */\n      iszero\n      tag_211\n      jumpi\n        /* \"#utility.yul\":3155:3156   */\n      0x00\n        /* \"#utility.yul\":3152:3153   */\n      dup1\n        /* \"#utility.yul\":3145:3157   */\n      revert\n        /* \"#utility.yul\":3125:3159   */\n    tag_211:\n        /* \"#utility.yul\":3193:3199   */\n      dup2\n        /* \"#utility.yul\":3182:3191   */\n      dup6\n        /* \"#utility.yul\":3178:3200   */\n      add\n        /* \"#utility.yul\":3168:3200   */\n      swap2\n      pop\n        /* \"#utility.yul\":3238:3245   */\n      dup6\n        /* \"#utility.yul\":3231:3235   */\n      0x1f\n        /* \"#utility.yul\":3227:3229   */\n      dup4\n        /* \"#utility.yul\":3223:3236   */\n      add\n        /* \"#utility.yul\":3219:3246   */\n      slt\n        /* \"#utility.yul\":3209:3264   */\n      tag_212\n      jumpi\n        /* \"#utility.yul\":3260:3261   */\n      0x00\n        /* \"#utility.yul\":3257:3258   */\n      dup1\n        /* \"#utility.yul\":3250:3262   */\n      revert\n        /* \"#utility.yul\":3209:3264   */\n    tag_212:\n        /* \"#utility.yul\":3296:3298   */\n      dup2\n        /* \"#utility.yul\":3283:3299   */\n      calldataload\n        /* \"#utility.yul\":3318:3320   */\n      dup2\n        /* \"#utility.yul\":3314:3316   */\n      dup2\n        /* \"#utility.yul\":3311:3321   */\n      gt\n        /* \"#utility.yul\":3308:3344   */\n      iszero\n      tag_214\n      jumpi\n        /* \"#utility.yul\":3324:3342   */\n      tag_214\n      tag_148\n      jump\t// in\n    tag_214:\n        /* \"#utility.yul\":3399:3401   */\n      0x40\n        /* \"#utility.yul\":3393:3402   */\n      mload\n        /* \"#utility.yul\":3367:3369   */\n      0x1f\n        /* \"#utility.yul\":3453:3466   */\n      dup3\n      add\n      not(0x1f)\n        /* \"#utility.yul\":3449:3471   */\n      swap1\n      dup2\n      and\n        /* \"#utility.yul\":3473:3475   */\n      0x3f\n        /* \"#utility.yul\":3445:3476   */\n      add\n        /* \"#utility.yul\":3441:3481   */\n      and\n        /* \"#utility.yul\":3429:3482   */\n      dup2\n      add\n      swap1\n        /* \"#utility.yul\":3497:3515   */\n      dup4\n      dup3\n      gt\n        /* \"#utility.yul\":3517:3539   */\n      dup2\n      dup4\n      lt\n        /* \"#utility.yul\":3494:3540   */\n      or\n        /* \"#utility.yul\":3491:3563   */\n      iszero\n      tag_216\n      jumpi\n        /* \"#utility.yul\":3543:3561   */\n      tag_216\n      tag_148\n      jump\t// in\n    tag_216:\n        /* \"#utility.yul\":3583:3593   */\n      dup2\n        /* \"#utility.yul\":3579:3581   */\n      0x40\n        /* \"#utility.yul\":3572:3594   */\n      mstore\n        /* \"#utility.yul\":3618:3620   */\n      dup3\n        /* \"#utility.yul\":3610:3616   */\n      dup2\n        /* \"#utility.yul\":3603:3621   */\n      mstore\n        /* \"#utility.yul\":3660:3667   */\n      dup9\n        /* \"#utility.yul\":3653:3657   */\n      0x20\n        /* \"#utility.yul\":3648:3650   */\n      dup5\n        /* \"#utility.yul\":3644:3646   */\n      dup8\n        /* \"#utility.yul\":3640:3651   */\n      add\n        /* \"#utility.yul\":3636:3658   */\n      add\n        /* \"#utility.yul\":3633:3668   */\n      gt\n        /* \"#utility.yul\":3630:3685   */\n      iszero\n      tag_217\n      jumpi\n        /* \"#utility.yul\":3681:3682   */\n      0x00\n        /* \"#utility.yul\":3678:3679   */\n      dup1\n        /* \"#utility.yul\":3671:3683   */\n      revert\n        /* \"#utility.yul\":3630:3685   */\n    tag_217:\n        /* \"#utility.yul\":3741:3743   */\n      dup3\n        /* \"#utility.yul\":3734:3738   */\n      0x20\n        /* \"#utility.yul\":3730:3732   */\n      dup7\n        /* \"#utility.yul\":3726:3739   */\n      add\n        /* \"#utility.yul\":3719:3723   */\n      0x20\n        /* \"#utility.yul\":3711:3717   */\n      dup4\n        /* \"#utility.yul\":3707:3724   */\n      add\n        /* \"#utility.yul\":3694:3744   */\n      calldatacopy\n        /* \"#utility.yul\":3788:3789   */\n      0x00\n        /* \"#utility.yul\":3781:3785   */\n      0x20\n        /* \"#utility.yul\":3764:3779   */\n      swap4\n      dup3\n      add\n        /* \"#utility.yul\":3760:3786   */\n      dup5\n      add\n        /* \"#utility.yul\":3753:3790   */\n      mstore\n        /* \"#utility.yul\":3764:3779   */\n      swap9\n        /* \"#utility.yul\":3847:3867   */\n      swap7\n      swap1\n      swap2\n      add\n        /* \"#utility.yul\":3834:3868   */\n      calldataload\n      swap7\n      pop\n      pop\n      pop\n      pop\n      pop\n      pop\n        /* \"#utility.yul\":2875:3874   */\n      jump\t// out\n        /* \"#utility.yul\":4469:4655   */\n    tag_64:\n        /* \"#utility.yul\":4528:4534   */\n      0x00\n        /* \"#utility.yul\":4581:4583   */\n      0x20\n        /* \"#utility.yul\":4569:4578   */\n      dup3\n        /* \"#utility.yul\":4560:4567   */\n      dup5\n        /* \"#utility.yul\":4556:4579   */\n      sub\n        /* \"#utility.yul\":4552:4584   */\n      slt\n        /* \"#utility.yul\":4549:4601   */\n      iszero\n      tag_223\n      jumpi\n        /* \"#utility.yul\":4597:4598   */\n      0x00\n        /* \"#utility.yul\":4594:4595   */\n      dup1\n        /* \"#utility.yul\":4587:4599   */\n      revert\n        /* \"#utility.yul\":4549:4601   */\n    tag_223:\n        /* \"#utility.yul\":4620:4649   */\n      tag_224\n        /* \"#utility.yul\":4639:4648   */\n      dup3\n        /* \"#utility.yul\":4620:4649   */\n      tag_182\n      jump\t// in\n    tag_224:\n        /* \"#utility.yul\":4610:4649   */\n      swap4\n        /* \"#utility.yul\":4469:4655   */\n      swap3\n      pop\n      pop\n      pop\n      jump\t// out\n        /* \"#utility.yul\":4660:5523   */\n    tag_75:\n        /* \"#utility.yul\":4875:4877   */\n      0x20\n        /* \"#utility.yul\":4927:4948   */\n      dup1\n      dup3\n      mstore\n        /* \"#utility.yul\":4997:5010   */\n      dup3\n      mload\n        /* \"#utility.yul\":4900:4918   */\n      dup3\n      dup3\n      add\n        /* \"#utility.yul\":5019:5041   */\n      dup2\n      swap1\n      mstore\n        /* \"#utility.yul\":4846:4850   */\n      0x00\n      swap2\n        /* \"#utility.yul\":4875:4877   */\n      swap1\n        /* \"#utility.yul\":5060:5062   */\n      0x40\n      swap1\n        /* \"#utility.yul\":5078:5096   */\n      dup2\n      dup6\n      add\n      swap1\n        /* \"#utility.yul\":5119:5134   */\n      dup7\n      dup5\n      add\n        /* \"#utility.yul\":4846:4850   */\n      dup6\n        /* \"#utility.yul\":5162:5497   */\n    tag_226:\n        /* \"#utility.yul\":5176:5182   */\n      dup3\n        /* \"#utility.yul\":5173:5174   */\n      dup2\n        /* \"#utility.yul\":5170:5183   */\n      lt\n        /* \"#utility.yul\":5162:5497   */\n      iszero\n      tag_228\n      jumpi\n        /* \"#utility.yul\":5235:5248   */\n      dup2\n      mload\n        /* \"#utility.yul\":5277:5286   */\n      dup1\n      mload\n      sub(shl(0xa0, 0x01), 0x01)\n        /* \"#utility.yul\":5273:5308   */\n      and\n        /* \"#utility.yul\":5261:5309   */\n      dup6\n      mstore\n        /* \"#utility.yul\":5349:5360   */\n      dup7\n      dup2\n      add\n        /* \"#utility.yul\":5343:5361   */\n      mload\n        /* \"#utility.yul\":5329:5341   */\n      dup8\n      dup7\n      add\n        /* \"#utility.yul\":5322:5362   */\n      mstore\n        /* \"#utility.yul\":5402:5413   */\n      dup6\n      add\n        /* \"#utility.yul\":5396:5414   */\n      mload\n        /* \"#utility.yul\":5382:5394   */\n      dup6\n      dup6\n      add\n        /* \"#utility.yul\":5375:5415   */\n      mstore\n        /* \"#utility.yul\":5444:5448   */\n      0x60\n        /* \"#utility.yul\":5435:5449   */\n      swap1\n      swap4\n      add\n      swap3\n        /* \"#utility.yul\":5472:5487   */\n      swap1\n      dup6\n      add\n      swap1\n        /* \"#utility.yul\":5305:5306   */\n      0x01\n        /* \"#utility.yul\":5191:5200   */\n      add\n        /* \"#utility.yul\":5162:5497   */\n      jump(tag_226)\n    tag_228:\n      pop\n        /* \"#utility.yul\":5514:5517   */\n      swap2\n      swap8\n        /* \"#utility.yul\":4660:5523   */\n      swap7\n      pop\n      pop\n      pop\n      pop\n      pop\n      pop\n      pop\n      jump\t// out\n        /* \"#utility.yul\":6547:6824   */\n    tag_98:\n        /* \"#utility.yul\":6614:6620   */\n      0x00\n        /* \"#utility.yul\":6667:6669   */\n      0x20\n        /* \"#utility.yul\":6655:6664   */\n      dup3\n        /* \"#utility.yul\":6646:6653   */\n      dup5\n        /* \"#utility.yul\":6642:6665   */\n      sub\n        /* \"#utility.yul\":6638:6670   */\n      slt\n        /* \"#utility.yul\":6635:6687   */\n      iszero\n      tag_233\n      jumpi\n        /* \"#utility.yul\":6683:6684   */\n      0x00\n        /* \"#utility.yul\":6680:6681   */\n      dup1\n        /* \"#utility.yul\":6673:6685   */\n      revert\n        /* \"#utility.yul\":6635:6687   */\n    tag_233:\n        /* \"#utility.yul\":6715:6724   */\n      dup2\n        /* \"#utility.yul\":6709:6725   */\n      mload\n        /* \"#utility.yul\":6768:6773   */\n      dup1\n        /* \"#utility.yul\":6761:6774   */\n      iszero\n        /* \"#utility.yul\":6754:6775   */\n      iszero\n        /* \"#utility.yul\":6747:6752   */\n      dup2\n        /* \"#utility.yul\":6744:6776   */\n      eq\n        /* \"#utility.yul\":6734:6794   */\n      tag_224\n      jumpi\n        /* \"#utility.yul\":6790:6791   */\n      0x00\n        /* \"#utility.yul\":6787:6788   */\n      dup1\n        /* \"#utility.yul\":6780:6792   */\n      revert\n        /* \"#utility.yul\":7518:7919   */\n    tag_108:\n        /* \"#utility.yul\":7720:7722   */\n      0x20\n        /* \"#utility.yul\":7702:7723   */\n      dup1\n      dup3\n      mstore\n        /* \"#utility.yul\":7759:7761   */\n      0x25\n        /* \"#utility.yul\":7739:7757   */\n      swap1\n      dup3\n      add\n        /* \"#utility.yul\":7732:7762   */\n      mstore\n        /* \"#utility.yul\":7798:7832   */\n      0x596f7520617265206e6f7420746865206f776e6572206f662074686973207072\n        /* \"#utility.yul\":7793:7795   */\n      0x40\n        /* \"#utility.yul\":7778:7796   */\n      dup3\n      add\n        /* \"#utility.yul\":7771:7833   */\n      mstore\n      shl(0xda, 0x1bd91d58dd)\n        /* \"#utility.yul\":7864:7866   */\n      0x60\n        /* \"#utility.yul\":7849:7867   */\n      dup3\n      add\n        /* \"#utility.yul\":7842:7877   */\n      mstore\n        /* \"#utility.yul\":7909:7912   */\n      0x80\n        /* \"#utility.yul\":7894:7913   */\n      add\n      swap1\n        /* \"#utility.yul\":7518:7919   */\n      jump\t// out\n        /* \"#utility.yul\":8177:8304   */\n    tag_183:\n        /* \"#utility.yul\":8238:8248   */\n      0x4e487b71\n        /* \"#utility.yul\":8233:8236   */\n      0xe0\n        /* \"#utility.yul\":8229:8249   */\n      shl\n        /* \"#utility.yul\":8226:8227   */\n      0x00\n        /* \"#utility.yul\":8219:8250   */\n      mstore\n        /* \"#utility.yul\":8269:8273   */\n      0x11\n        /* \"#utility.yul\":8266:8267   */\n      0x04\n        /* \"#utility.yul\":8259:8274   */\n      mstore\n        /* \"#utility.yul\":8293:8297   */\n      0x24\n        /* \"#utility.yul\":8290:8291   */\n      0x00\n        /* \"#utility.yul\":8283:8298   */\n      revert\n        /* \"#utility.yul\":8309:8434   */\n    tag_121:\n        /* \"#utility.yul\":8374:8383   */\n      dup1\n      dup3\n      add\n        /* \"#utility.yul\":8395:8405   */\n      dup1\n      dup3\n      gt\n        /* \"#utility.yul\":8392:8428   */\n      iszero\n      tag_119\n      jumpi\n        /* \"#utility.yul\":8408:8426   */\n      tag_119\n      tag_183\n      jump\t// in\n        /* \"#utility.yul\":9152:9280   */\n    tag_135:\n        /* \"#utility.yul\":9219:9228   */\n      dup2\n      dup2\n      sub\n        /* \"#utility.yul\":9240:9251   */\n      dup2\n      dup2\n      gt\n        /* \"#utility.yul\":9237:9274   */\n      iszero\n      tag_119\n      jumpi\n        /* \"#utility.yul\":9254:9272   */\n      tag_119\n      tag_183\n      jump\t// in\n        /* \"#utility.yul\":9285:9453   */\n    tag_137:\n        /* \"#utility.yul\":9358:9367   */\n      dup1\n      dup3\n      mul\n        /* \"#utility.yul\":9389:9398   */\n      dup2\n      iszero\n        /* \"#utility.yul\":9406:9421   */\n      dup3\n      dup3\n      div\n        /* \"#utility.yul\":9400:9422   */\n      dup5\n      eq\n        /* \"#utility.yul\":9386:9423   */\n      or\n        /* \"#utility.yul\":9376:9447   */\n      tag_119\n      jumpi\n        /* \"#utility.yul\":9427:9445   */\n      tag_119\n      tag_183\n      jump\t// in\n        /* \"#utility.yul\":9458:9874   */\n    tag_184:\n        /* \"#utility.yul\":9547:9548   */\n      0x01\n        /* \"#utility.yul\":9584:9589   */\n      dup2\n        /* \"#utility.yul\":9547:9548   */\n      dup2\n        /* \"#utility.yul\":9598:9868   */\n    tag_252:\n        /* \"#utility.yul\":9619:9626   */\n      dup1\n        /* \"#utility.yul\":9609:9617   */\n      dup6\n        /* \"#utility.yul\":9606:9627   */\n      gt\n        /* \"#utility.yul\":9598:9868   */\n      iszero\n      tag_254\n      jumpi\n        /* \"#utility.yul\":9678:9682   */\n      dup2\n        /* \"#utility.yul\":9674:9675   */\n      0x00\n        /* \"#utility.yul\":9670:9676   */\n      not\n        /* \"#utility.yul\":9666:9683   */\n      div\n        /* \"#utility.yul\":9660:9664   */\n      dup3\n        /* \"#utility.yul\":9657:9684   */\n      gt\n        /* \"#utility.yul\":9654:9707   */\n      iszero\n      tag_256\n      jumpi\n        /* \"#utility.yul\":9687:9705   */\n      tag_256\n      tag_183\n      jump\t// in\n    tag_256:\n        /* \"#utility.yul\":9737:9744   */\n      dup1\n        /* \"#utility.yul\":9727:9735   */\n      dup6\n        /* \"#utility.yul\":9723:9745   */\n      and\n        /* \"#utility.yul\":9720:9775   */\n      iszero\n      tag_257\n      jumpi\n        /* \"#utility.yul\":9757:9773   */\n      swap2\n      dup2\n      mul\n      swap2\n        /* \"#utility.yul\":9720:9775   */\n    tag_257:\n        /* \"#utility.yul\":9836:9858   */\n      swap4\n      dup5\n      shr\n      swap4\n        /* \"#utility.yul\":9796:9811   */\n      swap1\n      dup1\n      mul\n      swap1\n        /* \"#utility.yul\":9598:9868   */\n      jump(tag_252)\n    tag_254:\n        /* \"#utility.yul\":9602:9605   */\n      pop\n        /* \"#utility.yul\":9458:9874   */\n      swap3\n      pop\n      swap3\n      swap1\n      pop\n      jump\t// out\n        /* \"#utility.yul\":9879:10685   */\n    tag_185:\n        /* \"#utility.yul\":9928:9933   */\n      0x00\n        /* \"#utility.yul\":9958:9966   */\n      dup3\n        /* \"#utility.yul\":9948:10028   */\n      tag_259\n      jumpi\n      pop\n        /* \"#utility.yul\":9999:10000   */\n      0x01\n        /* \"#utility.yul\":10013:10018   */\n      jump(tag_119)\n        /* \"#utility.yul\":9948:10028   */\n    tag_259:\n        /* \"#utility.yul\":10047:10051   */\n      dup2\n        /* \"#utility.yul\":10037:10113   */\n      tag_260\n      jumpi\n      pop\n        /* \"#utility.yul\":10084:10085   */\n      0x00\n        /* \"#utility.yul\":10098:10103   */\n      jump(tag_119)\n        /* \"#utility.yul\":10037:10113   */\n    tag_260:\n        /* \"#utility.yul\":10129:10133   */\n      dup2\n        /* \"#utility.yul\":10147:10148   */\n      0x01\n        /* \"#utility.yul\":10142:10201   */\n      dup2\n      eq\n      tag_262\n      jumpi\n        /* \"#utility.yul\":10215:10216   */\n      0x02\n        /* \"#utility.yul\":10210:10340   */\n      dup2\n      eq\n      tag_263\n      jumpi\n        /* \"#utility.yul\":10122:10340   */\n      jump(tag_261)\n        /* \"#utility.yul\":10142:10201   */\n    tag_262:\n        /* \"#utility.yul\":10172:10173   */\n      0x01\n        /* \"#utility.yul\":10163:10173   */\n      swap2\n      pop\n        /* \"#utility.yul\":10186:10191   */\n      pop\n      jump(tag_119)\n        /* \"#utility.yul\":10210:10340   */\n    tag_263:\n        /* \"#utility.yul\":10247:10250   */\n      0xff\n        /* \"#utility.yul\":10237:10245   */\n      dup5\n        /* \"#utility.yul\":10234:10251   */\n      gt\n        /* \"#utility.yul\":10231:10274   */\n      iszero\n      tag_265\n      jumpi\n        /* \"#utility.yul\":10254:10272   */\n      tag_265\n      tag_183\n      jump\t// in\n    tag_265:\n      pop\n      pop\n        /* \"#utility.yul\":10310:10311   */\n      0x01\n        /* \"#utility.yul\":10296:10312   */\n      dup3\n      shl\n        /* \"#utility.yul\":10325:10330   */\n      jump(tag_119)\n        /* \"#utility.yul\":10122:10340   */\n    tag_261:\n      pop\n        /* \"#utility.yul\":10424:10426   */\n      0x20\n        /* \"#utility.yul\":10414:10422   */\n      dup4\n        /* \"#utility.yul\":10411:10427   */\n      lt\n        /* \"#utility.yul\":10405:10408   */\n      0x0133\n        /* \"#utility.yul\":10399:10403   */\n      dup4\n        /* \"#utility.yul\":10396:10409   */\n      lt\n        /* \"#utility.yul\":10392:10428   */\n      and\n        /* \"#utility.yul\":10386:10388   */\n      0x4e\n        /* \"#utility.yul\":10376:10384   */\n      dup5\n        /* \"#utility.yul\":10373:10389   */\n      lt\n        /* \"#utility.yul\":10368:10370   */\n      0x0b\n        /* \"#utility.yul\":10362:10366   */\n      dup5\n        /* \"#utility.yul\":10359:10371   */\n      lt\n        /* \"#utility.yul\":10355:10390   */\n      and\n        /* \"#utility.yul\":10352:10429   */\n      or\n        /* \"#utility.yul\":10349:10508   */\n      iszero\n      tag_266\n      jumpi\n      pop\n        /* \"#utility.yul\":10461:10480   */\n      dup2\n      dup2\n      exp\n        /* \"#utility.yul\":10493:10498   */\n      jump(tag_119)\n        /* \"#utility.yul\":10349:10508   */\n    tag_266:\n        /* \"#utility.yul\":10540:10574   */\n      tag_267\n        /* \"#utility.yul\":10565:10573   */\n      dup4\n        /* \"#utility.yul\":10559:10563   */\n      dup4\n        /* \"#utility.yul\":10540:10574   */\n      tag_184\n      jump\t// in\n    tag_267:\n        /* \"#utility.yul\":10610:10616   */\n      dup1\n        /* \"#utility.yul\":10606:10607   */\n      0x00\n        /* \"#utility.yul\":10602:10608   */\n      not\n        /* \"#utility.yul\":10598:10617   */\n      div\n        /* \"#utility.yul\":10589:10596   */\n      dup3\n        /* \"#utility.yul\":10586:10618   */\n      gt\n        /* \"#utility.yul\":10583:10641   */\n      iszero\n      tag_269\n      jumpi\n        /* \"#utility.yul\":10621:10639   */\n      tag_269\n      tag_183\n      jump\t// in\n    tag_269:\n        /* \"#utility.yul\":10659:10679   */\n      mul\n      swap4\n        /* \"#utility.yul\":9879:10685   */\n      swap3\n      pop\n      pop\n      pop\n      jump\t// out\n        /* \"#utility.yul\":10690:10821   */\n    tag_139:\n        /* \"#utility.yul\":10750:10755   */\n      0x00\n        /* \"#utility.yul\":10779:10815   */\n      tag_224\n        /* \"#utility.yul\":10806:10814   */\n      dup4\n        /* \"#utility.yul\":10800:10804   */\n      dup4\n        /* \"#utility.yul\":10779:10815   */\n      tag_185\n      jump\t// in\n        /* \"#utility.yul\":10826:10953   */\n    tag_142:\n        /* \"#utility.yul\":10887:10897   */\n      0x4e487b71\n        /* \"#utility.yul\":10882:10885   */\n      0xe0\n        /* \"#utility.yul\":10878:10898   */\n      shl\n        /* \"#utility.yul\":10875:10876   */\n      0x00\n        /* \"#utility.yul\":10868:10899   */\n      mstore\n        /* \"#utility.yul\":10918:10922   */\n      0x32\n        /* \"#utility.yul\":10915:10916   */\n      0x04\n        /* \"#utility.yul\":10908:10923   */\n      mstore\n        /* \"#utility.yul\":10942:10946   */\n      0x24\n        /* \"#utility.yul\":10939:10940   */\n      0x00\n        /* \"#utility.yul\":10932:10947   */\n      revert\n        /* \"#utility.yul\":10958:11093   */\n    tag_166:\n        /* \"#utility.yul\":10997:11000   */\n      0x00\n        /* \"#utility.yul\":11018:11035   */\n      0x01\n      dup3\n      add\n        /* \"#utility.yul\":11015:11058   */\n      tag_275\n      jumpi\n        /* \"#utility.yul\":11038:11056   */\n      tag_275\n      tag_183\n      jump\t// in\n    tag_275:\n      pop\n        /* \"#utility.yul\":11085:11086   */\n      0x01\n        /* \"#utility.yul\":11074:11087   */\n      add\n      swap1\n        /* \"#utility.yul\":10958:11093   */\n      jump\t// out\n\n    auxdata: 0xa264697066735822122058c62e65e545ccdaaa98e4016c7a05ff8dfc30e708358b1211e5c7b4e6b9954564736f6c63430008160033\n}\n",
				"bytecode": {
					"linkReferences": {},
					"object": "608060405234801561000f575f80fd5b5060405161107738038061107783398101604081905261002e91610079565b5f80546001600160a01b039384166001600160a01b031991821617909155600180549290931691161790556100aa565b80516001600160a01b0381168114610074575f80fd5b919050565b5f806040838503121561008a575f80fd5b6100938361005e565b91506100a16020840161005e565b90509250929050565b610fc0806100b75f395ff3fe608060405234801561000f575f80fd5b50600436106100cb575f3560e01c8063b5cdf92411610088578063d3aceae211610063578063d3aceae2146101f4578063da694df014610213578063e1bd88c214610232578063ee33994514610252575f80fd5b8063b5cdf924146101ae578063bca6ce64146101cf578063cfc5a969146101e1575f80fd5b8063150b7a02146100cf57806359a97ea814610100578063785e9e86146101235780637a23754e1461014e578063935c9ad214610163578063a85c38ef14610176575b5f80fd5b6100e26100dd366004610b80565b61028b565b6040516001600160e01b031990911681526020015b60405180910390f35b61011361010e366004610c13565b610351565b60405190151581526020016100f7565b600154610136906001600160a01b031681565b6040516001600160a01b0390911681526020016100f7565b61016161015c366004610c43565b6104a4565b005b610161610171366004610c63565b6105d1565b610189610184366004610c63565b6106c9565b604080516001600160a01b0390941684526020840192909252908201526060016100f7565b6101c16101bc366004610c8e565b610704565b6040519081526020016100f7565b5f54610136906001600160a01b031681565b6101c16101ef366004610c63565b6107c9565b6101c1610202366004610d3d565b60046020525f908152604090205481565b6101c1610221366004610c63565b60036020525f908152604090205481565b610245610240366004610d3d565b61083b565b6040516100f79190610d5d565b610189610260366004610c63565b600260208190525f91825260409091208054600182015491909201546001600160a01b039092169183565b5f846001600160a01b0316866001600160a01b0316146102f25760405162461bcd60e51b815260206004820152601f60248201527f4d61726b65743a2053656c6c6572206d757374206265206f70657261746f720060448201526064015b60405180910390fd5b5f61033184848080601f0160208091040260200160405190810160405280939291908181526020018383808284375f9201829052509250610704915050565b905061033e868683610a57565b50630a85bd0160e11b9695505050505050565b5f818152600260208181526040808420815160608101835281546001600160a01b0390811680835260018401549583019590955291909401548483015284549151632142170760e11b8152600481018490528882166024820152604481018790529116906342842e0e906064015f604051808303815f87803b1580156103d5575f80fd5b505af11580156103e7573d5f803e3d5ffd5b505060015460405163a9059cbb60e01b81526001600160a01b038581166004830152602482018a9052909116925063a9059cbb91506044016020604051808303815f875af115801561043b573d5f803e3d5ffd5b505050506040513d601f19601f8201168201806040525081019061045f9190610dbe565b6104985760405162461bcd60e51b815260206004820152600a602482015269195c98cc8c0819985a5b60b21b60448201526064016102e9565b50600195945050505050565b5f828152600260205260409020546001600160a01b03166104ff5760405162461bcd60e51b815260206004820152601560248201527450726f64756374206e6f7420617661696c61626c6560581b60448201526064016102e9565b5f828152600260205260409020546001600160a01b031633146105345760405162461bcd60e51b81526004016102e990610ddd565b5f828152600260208181526040808420815160608101835281546001600160a01b0380821683526001840180548488019081528487018b8152998c905288885284519092166001600160a01b0319909316929092178455519055945193019290925581518581529081018490527fb3de019cba215d4f3c532c1740d910f08288eca6b69768b4337c16ab74b49741910160405180910390a1505050565b5f818152600260205260409020546001600160a01b031661062c5760405162461bcd60e51b815260206004820152601560248201527450726f64756374206e6f7420617661696c61626c6560581b60448201526064016102e9565b5f818152600260205260409020546001600160a01b031633146106615760405162461bcd60e51b81526004016102e990610ddd565b5f81815260026020818152604080842080546001600160a01b0319168155600181018590559092018390556003815281832092909255518281527f514fcac7bebb46f0de48634659b1bf29bbb864f5db67e9070672ed508989394e910160405180910390a150565b600581815481106106d8575f80fd5b5f9182526020909120600390910201805460018201546002909201546001600160a01b03909116925083565b5f81610711816020610e36565b101561075f5760405162461bcd60e51b815260206004820152601a60248201527f4d61726b65743a20746f55696e743235365f6f766572666c6f7700000000000060448201526064016102e9565b61076a826020610e36565b835110156107ba5760405162461bcd60e51b815260206004820152601d60248201527f4d61726b65743a20746f55696e743235365f6f75744f66426f756e647300000060448201526064016102e9565b50818101602001515b92915050565b5f805f5b6020811015610834576107e1816001610e36565b6107ec906020610e49565b6107f7906008610e5c565b610802906002610f53565b84826020811061081457610814610f5e565b6108209291901a610e5c565b61082a9083610e36565b91506001016107cd565b5092915050565b6005546060905f9067ffffffffffffffff81111561085b5761085b610c7a565b6040519080825280602002602001820160405280156108b657816020015b6108a360405180606001604052805f6001600160a01b031681526020015f81526020015f81525090565b8152602001906001900390816108795790505b5090505f805b60055481101561098c57846001600160a01b0316600582815481106108e3576108e3610f5e565b5f9182526020909120600390910201546001600160a01b031603610984576005818154811061091457610914610f5e565b5f91825260209182902060408051606081018252600390930290910180546001600160a01b0316835260018101549383019390935260029092015491810191909152835184908490811061096a5761096a610f5e565b6020026020010181905250818061098090610f72565b9250505b6001016108bc565b505f8167ffffffffffffffff8111156109a7576109a7610c7a565b604051908082528060200260200182016040528015610a0257816020015b6109ef60405180606001604052805f6001600160a01b031681526020015f81526020015f81525090565b8152602001906001900390816109c55790505b5090505f5b82811015610a4e57838181518110610a2157610a21610f5e565b6020026020010151828281518110610a3b57610a3b610f5e565b6020908102919091010152600101610a07565b50949350505050565b604080516060810182526001600160a01b038086168252602080830186815283850186815260058054600181810183555f838152885160039093027f036b6384b5eca791c62761152d0c79bb0604c104a5fb6f4eb0703f3154bb3db081018054948a166001600160a01b031995861617905586517f036b6384b5eca791c62761152d0c79bb0604c104a5fb6f4eb0703f3154bb3db182015585517f036b6384b5eca791c62761152d0c79bb0604c104a5fb6f4eb0703f3154bb3db2909101558b81526002968790529890982087518154971696909116959095178555915184870155519290910191909155549091610b4e91610e49565b5f9384526003602052604090932092909255505050565b80356001600160a01b0381168114610b7b575f80fd5b919050565b5f805f805f60808688031215610b94575f80fd5b610b9d86610b65565b9450610bab60208701610b65565b935060408601359250606086013567ffffffffffffffff80821115610bce575f80fd5b818801915088601f830112610be1575f80fd5b813581811115610bef575f80fd5b896020828501011115610c00575f80fd5b9699959850939650602001949392505050565b5f805f60608486031215610c25575f80fd5b610c2e84610b65565b95602085013595506040909401359392505050565b5f8060408385031215610c54575f80fd5b50508035926020909101359150565b5f60208284031215610c73575f80fd5b5035919050565b634e487b7160e01b5f52604160045260245ffd5b5f8060408385031215610c9f575f80fd5b823567ffffffffffffffff80821115610cb6575f80fd5b818501915085601f830112610cc9575f80fd5b813581811115610cdb57610cdb610c7a565b604051601f8201601f19908116603f01168101908382118183101715610d0357610d03610c7a565b81604052828152886020848701011115610d1b575f80fd5b826020860160208301375f602093820184015298969091013596505050505050565b5f60208284031215610d4d575f80fd5b610d5682610b65565b9392505050565b602080825282518282018190525f919060409081850190868401855b82811015610db157815180516001600160a01b0316855286810151878601528501518585015260609093019290850190600101610d79565b5091979650505050505050565b5f60208284031215610dce575f80fd5b81518015158114610d56575f80fd5b60208082526025908201527f596f7520617265206e6f7420746865206f776e6572206f6620746869732070726040820152641bd91d58dd60da1b606082015260800190565b634e487b7160e01b5f52601160045260245ffd5b808201808211156107c3576107c3610e22565b818103818111156107c3576107c3610e22565b80820281158282048414176107c3576107c3610e22565b600181815b80851115610ead57815f1904821115610e9357610e93610e22565b80851615610ea057918102915b93841c9390800290610e78565b509250929050565b5f82610ec3575060016107c3565b81610ecf57505f6107c3565b8160018114610ee55760028114610eef57610f0b565b60019150506107c3565b60ff841115610f0057610f00610e22565b50506001821b6107c3565b5060208310610133831016604e8410600b8410161715610f2e575081810a6107c3565b610f388383610e73565b805f1904821115610f4b57610f4b610e22565b029392505050565b5f610d568383610eb5565b634e487b7160e01b5f52603260045260245ffd5b5f60018201610f8357610f83610e22565b506001019056fea264697066735822122058c62e65e545ccdaaa98e4016c7a05ff8dfc30e708358b1211e5c7b4e6b9954564736f6c63430008160033",
					"opcodes": "PUSH1 0x80 PUSH1 0x40 MSTORE CALLVALUE DUP1 ISZERO PUSH2 0xF JUMPI PUSH0 DUP1 REVERT JUMPDEST POP PUSH1 0x40 MLOAD PUSH2 0x1077 CODESIZE SUB DUP1 PUSH2 0x1077 DUP4 CODECOPY DUP2 ADD PUSH1 0x40 DUP2 SWAP1 MSTORE PUSH2 0x2E SWAP2 PUSH2 0x79 JUMP JUMPDEST PUSH0 DUP1 SLOAD PUSH1 0x1 PUSH1 0x1 PUSH1 0xA0 SHL SUB SWAP4 DUP5 AND PUSH1 0x1 PUSH1 0x1 PUSH1 0xA0 SHL SUB NOT SWAP2 DUP3 AND OR SWAP1 SWAP2 SSTORE PUSH1 0x1 DUP1 SLOAD SWAP3 SWAP1 SWAP4 AND SWAP2 AND OR SWAP1 SSTORE PUSH2 0xAA JUMP JUMPDEST DUP1 MLOAD PUSH1 0x1 PUSH1 0x1 PUSH1 0xA0 SHL SUB DUP2 AND DUP2 EQ PUSH2 0x74 JUMPI PUSH0 DUP1 REVERT JUMPDEST SWAP2 SWAP1 POP JUMP JUMPDEST PUSH0 DUP1 PUSH1 0x40 DUP4 DUP6 SUB SLT ISZERO PUSH2 0x8A JUMPI PUSH0 DUP1 REVERT JUMPDEST PUSH2 0x93 DUP4 PUSH2 0x5E JUMP JUMPDEST SWAP2 POP PUSH2 0xA1 PUSH1 0x20 DUP5 ADD PUSH2 0x5E JUMP JUMPDEST SWAP1 POP SWAP3 POP SWAP3 SWAP1 POP JUMP JUMPDEST PUSH2 0xFC0 DUP1 PUSH2 0xB7 PUSH0 CODECOPY PUSH0 RETURN INVALID PUSH1 0x80 PUSH1 0x40 MSTORE CALLVALUE DUP1 ISZERO PUSH2 0xF JUMPI PUSH0 DUP1 REVERT JUMPDEST POP PUSH1 0x4 CALLDATASIZE LT PUSH2 0xCB JUMPI PUSH0 CALLDATALOAD PUSH1 0xE0 SHR DUP1 PUSH4 0xB5CDF924 GT PUSH2 0x88 JUMPI DUP1 PUSH4 0xD3ACEAE2 GT PUSH2 0x63 JUMPI DUP1 PUSH4 0xD3ACEAE2 EQ PUSH2 0x1F4 JUMPI DUP1 PUSH4 0xDA694DF0 EQ PUSH2 0x213 JUMPI DUP1 PUSH4 0xE1BD88C2 EQ PUSH2 0x232 JUMPI DUP1 PUSH4 0xEE339945 EQ PUSH2 0x252 JUMPI PUSH0 DUP1 REVERT JUMPDEST DUP1 PUSH4 0xB5CDF924 EQ PUSH2 0x1AE JUMPI DUP1 PUSH4 0xBCA6CE64 EQ PUSH2 0x1CF JUMPI DUP1 PUSH4 0xCFC5A969 EQ PUSH2 0x1E1 JUMPI PUSH0 DUP1 REVERT JUMPDEST DUP1 PUSH4 0x150B7A02 EQ PUSH2 0xCF JUMPI DUP1 PUSH4 0x59A97EA8 EQ PUSH2 0x100 JUMPI DUP1 PUSH4 0x785E9E86 EQ PUSH2 0x123 JUMPI DUP1 PUSH4 0x7A23754E EQ PUSH2 0x14E JUMPI DUP1 PUSH4 0x935C9AD2 EQ PUSH2 0x163 JUMPI DUP1 PUSH4 0xA85C38EF EQ PUSH2 0x176 JUMPI JUMPDEST PUSH0 DUP1 REVERT JUMPDEST PUSH2 0xE2 PUSH2 0xDD CALLDATASIZE PUSH1 0x4 PUSH2 0xB80 JUMP JUMPDEST PUSH2 0x28B JUMP JUMPDEST PUSH1 0x40 MLOAD PUSH1 0x1 PUSH1 0x1 PUSH1 0xE0 SHL SUB NOT SWAP1 SWAP2 AND DUP2 MSTORE PUSH1 0x20 ADD JUMPDEST PUSH1 0x40 MLOAD DUP1 SWAP2 SUB SWAP1 RETURN JUMPDEST PUSH2 0x113 PUSH2 0x10E CALLDATASIZE PUSH1 0x4 PUSH2 0xC13 JUMP JUMPDEST PUSH2 0x351 JUMP JUMPDEST PUSH1 0x40 MLOAD SWAP1 ISZERO ISZERO DUP2 MSTORE PUSH1 0x20 ADD PUSH2 0xF7 JUMP JUMPDEST PUSH1 0x1 SLOAD PUSH2 0x136 SWAP1 PUSH1 0x1 PUSH1 0x1 PUSH1 0xA0 SHL SUB AND DUP2 JUMP JUMPDEST PUSH1 0x40 MLOAD PUSH1 0x1 PUSH1 0x1 PUSH1 0xA0 SHL SUB SWAP1 SWAP2 AND DUP2 MSTORE PUSH1 0x20 ADD PUSH2 0xF7 JUMP JUMPDEST PUSH2 0x161 PUSH2 0x15C CALLDATASIZE PUSH1 0x4 PUSH2 0xC43 JUMP JUMPDEST PUSH2 0x4A4 JUMP JUMPDEST STOP JUMPDEST PUSH2 0x161 PUSH2 0x171 CALLDATASIZE PUSH1 0x4 PUSH2 0xC63 JUMP JUMPDEST PUSH2 0x5D1 JUMP JUMPDEST PUSH2 0x189 PUSH2 0x184 CALLDATASIZE PUSH1 0x4 PUSH2 0xC63 JUMP JUMPDEST PUSH2 0x6C9 JUMP JUMPDEST PUSH1 0x40 DUP1 MLOAD PUSH1 0x1 PUSH1 0x1 PUSH1 0xA0 SHL SUB SWAP1 SWAP5 AND DUP5 MSTORE PUSH1 0x20 DUP5 ADD SWAP3 SWAP1 SWAP3 MSTORE SWAP1 DUP3 ADD MSTORE PUSH1 0x60 ADD PUSH2 0xF7 JUMP JUMPDEST PUSH2 0x1C1 PUSH2 0x1BC CALLDATASIZE PUSH1 0x4 PUSH2 0xC8E JUMP JUMPDEST PUSH2 0x704 JUMP JUMPDEST PUSH1 0x40 MLOAD SWAP1 DUP2 MSTORE PUSH1 0x20 ADD PUSH2 0xF7 JUMP JUMPDEST PUSH0 SLOAD PUSH2 0x136 SWAP1 PUSH1 0x1 PUSH1 0x1 PUSH1 0xA0 SHL SUB AND DUP2 JUMP JUMPDEST PUSH2 0x1C1 PUSH2 0x1EF CALLDATASIZE PUSH1 0x4 PUSH2 0xC63 JUMP JUMPDEST PUSH2 0x7C9 JUMP JUMPDEST PUSH2 0x1C1 PUSH2 0x202 CALLDATASIZE PUSH1 0x4 PUSH2 0xD3D JUMP JUMPDEST PUSH1 0x4 PUSH1 0x20 MSTORE PUSH0 SWAP1 DUP2 MSTORE PUSH1 0x40 SWAP1 KECCAK256 SLOAD DUP2 JUMP JUMPDEST PUSH2 0x1C1 PUSH2 0x221 CALLDATASIZE PUSH1 0x4 PUSH2 0xC63 JUMP JUMPDEST PUSH1 0x3 PUSH1 0x20 MSTORE PUSH0 SWAP1 DUP2 MSTORE PUSH1 0x40 SWAP1 KECCAK256 SLOAD DUP2 JUMP JUMPDEST PUSH2 0x245 PUSH2 0x240 CALLDATASIZE PUSH1 0x4 PUSH2 0xD3D JUMP JUMPDEST PUSH2 0x83B JUMP JUMPDEST PUSH1 0x40 MLOAD PUSH2 0xF7 SWAP2 SWAP1 PUSH2 0xD5D JUMP JUMPDEST PUSH2 0x189 PUSH2 0x260 CALLDATASIZE PUSH1 0x4 PUSH2 0xC63 JUMP JUMPDEST PUSH1 0x2 PUSH1 0x20 DUP2 SWAP1 MSTORE PUSH0 SWAP2 DUP3 MSTORE PUSH1 0x40 SWAP1 SWAP2 KECCAK256 DUP1 SLOAD PUSH1 0x1 DUP3 ADD SLOAD SWAP2 SWAP1 SWAP3 ADD SLOAD PUSH1 0x1 PUSH1 0x1 PUSH1 0xA0 SHL SUB SWAP1 SWAP3 AND SWAP2 DUP4 JUMP JUMPDEST PUSH0 DUP5 PUSH1 0x1 PUSH1 0x1 PUSH1 0xA0 SHL SUB AND DUP7 PUSH1 0x1 PUSH1 0x1 PUSH1 0xA0 SHL SUB AND EQ PUSH2 0x2F2 JUMPI PUSH1 0x40 MLOAD PUSH3 0x461BCD PUSH1 0xE5 SHL DUP2 MSTORE PUSH1 0x20 PUSH1 0x4 DUP3 ADD MSTORE PUSH1 0x1F PUSH1 0x24 DUP3 ADD MSTORE PUSH32 0x4D61726B65743A2053656C6C6572206D757374206265206F70657261746F7200 PUSH1 0x44 DUP3 ADD MSTORE PUSH1 0x64 ADD JUMPDEST PUSH1 0x40 MLOAD DUP1 SWAP2 SUB SWAP1 REVERT JUMPDEST PUSH0 PUSH2 0x331 DUP5 DUP5 DUP1 DUP1 PUSH1 0x1F ADD PUSH1 0x20 DUP1 SWAP2 DIV MUL PUSH1 0x20 ADD PUSH1 0x40 MLOAD SWAP1 DUP2 ADD PUSH1 0x40 MSTORE DUP1 SWAP4 SWAP3 SWAP2 SWAP1 DUP2 DUP2 MSTORE PUSH1 0x20 ADD DUP4 DUP4 DUP1 DUP3 DUP5 CALLDATACOPY PUSH0 SWAP3 ADD DUP3 SWAP1 MSTORE POP SWAP3 POP PUSH2 0x704 SWAP2 POP POP JUMP JUMPDEST SWAP1 POP PUSH2 0x33E DUP7 DUP7 DUP4 PUSH2 0xA57 JUMP JUMPDEST POP PUSH4 0xA85BD01 PUSH1 0xE1 SHL SWAP7 SWAP6 POP POP POP POP POP POP JUMP JUMPDEST PUSH0 DUP2 DUP2 MSTORE PUSH1 0x2 PUSH1 0x20 DUP2 DUP2 MSTORE PUSH1 0x40 DUP1 DUP5 KECCAK256 DUP2 MLOAD PUSH1 0x60 DUP2 ADD DUP4 MSTORE DUP2 SLOAD PUSH1 0x1 PUSH1 0x1 PUSH1 0xA0 SHL SUB SWAP1 DUP2 AND DUP1 DUP4 MSTORE PUSH1 0x1 DUP5 ADD SLOAD SWAP6 DUP4 ADD SWAP6 SWAP1 SWAP6 MSTORE SWAP2 SWAP1 SWAP5 ADD SLOAD DUP5 DUP4 ADD MSTORE DUP5 SLOAD SWAP2 MLOAD PUSH4 0x21421707 PUSH1 0xE1 SHL DUP2 MSTORE PUSH1 0x4 DUP2 ADD DUP5 SWAP1 MSTORE DUP9 DUP3 AND PUSH1 0x24 DUP3 ADD MSTORE PUSH1 0x44 DUP2 ADD DUP8 SWAP1 MSTORE SWAP2 AND SWAP1 PUSH4 0x42842E0E SWAP1 PUSH1 0x64 ADD PUSH0 PUSH1 0x40 MLOAD DUP1 DUP4 SUB DUP2 PUSH0 DUP8 DUP1 EXTCODESIZE ISZERO DUP1 ISZERO PUSH2 0x3D5 JUMPI PUSH0 DUP1 REVERT JUMPDEST POP GAS CALL ISZERO DUP1 ISZERO PUSH2 0x3E7 JUMPI RETURNDATASIZE PUSH0 DUP1 RETURNDATACOPY RETURNDATASIZE PUSH0 REVERT JUMPDEST POP POP PUSH1 0x1 SLOAD PUSH1 0x40 MLOAD PUSH4 0xA9059CBB PUSH1 0xE0 SHL DUP2 MSTORE PUSH1 0x1 PUSH1 0x1 PUSH1 0xA0 SHL SUB DUP6 DUP2 AND PUSH1 0x4 DUP4 ADD MSTORE PUSH1 0x24 DUP3 ADD DUP11 SWAP1 MSTORE SWAP1 SWAP2 AND SWAP3 POP PUSH4 0xA9059CBB SWAP2 POP PUSH1 0x44 ADD PUSH1 0x20 PUSH1 0x40 MLOAD DUP1 DUP4 SUB DUP2 PUSH0 DUP8 GAS CALL ISZERO DUP1 ISZERO PUSH2 0x43B JUMPI RETURNDATASIZE PUSH0 DUP1 RETURNDATACOPY RETURNDATASIZE PUSH0 REVERT JUMPDEST POP POP POP POP PUSH1 0x40 MLOAD RETURNDATASIZE PUSH1 0x1F NOT PUSH1 0x1F DUP3 ADD AND DUP3 ADD DUP1 PUSH1 0x40 MSTORE POP DUP2 ADD SWAP1 PUSH2 0x45F SWAP2 SWAP1 PUSH2 0xDBE JUMP JUMPDEST PUSH2 0x498 JUMPI PUSH1 0x40 MLOAD PUSH3 0x461BCD PUSH1 0xE5 SHL DUP2 MSTORE PUSH1 0x20 PUSH1 0x4 DUP3 ADD MSTORE PUSH1 0xA PUSH1 0x24 DUP3 ADD MSTORE PUSH10 0x195C98CC8C0819985A5B PUSH1 0xB2 SHL PUSH1 0x44 DUP3 ADD MSTORE PUSH1 0x64 ADD PUSH2 0x2E9 JUMP JUMPDEST POP PUSH1 0x1 SWAP6 SWAP5 POP POP POP POP POP JUMP JUMPDEST PUSH0 DUP3 DUP2 MSTORE PUSH1 0x2 PUSH1 0x20 MSTORE PUSH1 0x40 SWAP1 KECCAK256 SLOAD PUSH1 0x1 PUSH1 0x1 PUSH1 0xA0 SHL SUB AND PUSH2 0x4FF JUMPI PUSH1 0x40 MLOAD PUSH3 0x461BCD PUSH1 0xE5 SHL DUP2 MSTORE PUSH1 0x20 PUSH1 0x4 DUP3 ADD MSTORE PUSH1 0x15 PUSH1 0x24 DUP3 ADD MSTORE PUSH21 0x50726F64756374206E6F7420617661696C61626C65 PUSH1 0x58 SHL PUSH1 0x44 DUP3 ADD MSTORE PUSH1 0x64 ADD PUSH2 0x2E9 JUMP JUMPDEST PUSH0 DUP3 DUP2 MSTORE PUSH1 0x2 PUSH1 0x20 MSTORE PUSH1 0x40 SWAP1 KECCAK256 SLOAD PUSH1 0x1 PUSH1 0x1 PUSH1 0xA0 SHL SUB AND CALLER EQ PUSH2 0x534 JUMPI PUSH1 0x40 MLOAD PUSH3 0x461BCD PUSH1 0xE5 SHL DUP2 MSTORE PUSH1 0x4 ADD PUSH2 0x2E9 SWAP1 PUSH2 0xDDD JUMP JUMPDEST PUSH0 DUP3 DUP2 MSTORE PUSH1 0x2 PUSH1 0x20 DUP2 DUP2 MSTORE PUSH1 0x40 DUP1 DUP5 KECCAK256 DUP2 MLOAD PUSH1 0x60 DUP2 ADD DUP4 MSTORE DUP2 SLOAD PUSH1 0x1 PUSH1 0x1 PUSH1 0xA0 SHL SUB DUP1 DUP3 AND DUP4 MSTORE PUSH1 0x1 DUP5 ADD DUP1 SLOAD DUP5 DUP9 ADD SWAP1 DUP2 MSTORE DUP5 DUP8 ADD DUP12 DUP2 MSTORE SWAP10 DUP13 SWAP1 MSTORE DUP9 DUP9 MSTORE DUP5 MLOAD SWAP1 SWAP3 AND PUSH1 0x1 PUSH1 0x1 PUSH1 0xA0 SHL SUB NOT SWAP1 SWAP4 AND SWAP3 SWAP1 SWAP3 OR DUP5 SSTORE MLOAD SWAP1 SSTORE SWAP5 MLOAD SWAP4 ADD SWAP3 SWAP1 SWAP3 SSTORE DUP2 MLOAD DUP6 DUP2 MSTORE SWAP1 DUP2 ADD DUP5 SWAP1 MSTORE PUSH32 0xB3DE019CBA215D4F3C532C1740D910F08288ECA6B69768B4337C16AB74B49741 SWAP2 ADD PUSH1 0x40 MLOAD DUP1 SWAP2 SUB SWAP1 LOG1 POP POP POP JUMP JUMPDEST PUSH0 DUP2 DUP2 MSTORE PUSH1 0x2 PUSH1 0x20 MSTORE PUSH1 0x40 SWAP1 KECCAK256 SLOAD PUSH1 0x1 PUSH1 0x1 PUSH1 0xA0 SHL SUB AND PUSH2 0x62C JUMPI PUSH1 0x40 MLOAD PUSH3 0x461BCD PUSH1 0xE5 SHL DUP2 MSTORE PUSH1 0x20 PUSH1 0x4 DUP3 ADD MSTORE PUSH1 0x15 PUSH1 0x24 DUP3 ADD MSTORE PUSH21 0x50726F64756374206E6F7420617661696C61626C65 PUSH1 0x58 SHL PUSH1 0x44 DUP3 ADD MSTORE PUSH1 0x64 ADD PUSH2 0x2E9 JUMP JUMPDEST PUSH0 DUP2 DUP2 MSTORE PUSH1 0x2 PUSH1 0x20 MSTORE PUSH1 0x40 SWAP1 KECCAK256 SLOAD PUSH1 0x1 PUSH1 0x1 PUSH1 0xA0 SHL SUB AND CALLER EQ PUSH2 0x661 JUMPI PUSH1 0x40 MLOAD PUSH3 0x461BCD PUSH1 0xE5 SHL DUP2 MSTORE PUSH1 0x4 ADD PUSH2 0x2E9 SWAP1 PUSH2 0xDDD JUMP JUMPDEST PUSH0 DUP2 DUP2 MSTORE PUSH1 0x2 PUSH1 0x20 DUP2 DUP2 MSTORE PUSH1 0x40 DUP1 DUP5 KECCAK256 DUP1 SLOAD PUSH1 0x1 PUSH1 0x1 PUSH1 0xA0 SHL SUB NOT AND DUP2 SSTORE PUSH1 0x1 DUP2 ADD DUP6 SWAP1 SSTORE SWAP1 SWAP3 ADD DUP4 SWAP1 SSTORE PUSH1 0x3 DUP2 MSTORE DUP2 DUP4 KECCAK256 SWAP3 SWAP1 SWAP3 SSTORE MLOAD DUP3 DUP2 MSTORE PUSH32 0x514FCAC7BEBB46F0DE48634659B1BF29BBB864F5DB67E9070672ED508989394E SWAP2 ADD PUSH1 0x40 MLOAD DUP1 SWAP2 SUB SWAP1 LOG1 POP JUMP JUMPDEST PUSH1 0x5 DUP2 DUP2 SLOAD DUP2 LT PUSH2 0x6D8 JUMPI PUSH0 DUP1 REVERT JUMPDEST PUSH0 SWAP2 DUP3 MSTORE PUSH1 0x20 SWAP1 SWAP2 KECCAK256 PUSH1 0x3 SWAP1 SWAP2 MUL ADD DUP1 SLOAD PUSH1 0x1 DUP3 ADD SLOAD PUSH1 0x2 SWAP1 SWAP3 ADD SLOAD PUSH1 0x1 PUSH1 0x1 PUSH1 0xA0 SHL SUB SWAP1 SWAP2 AND SWAP3 POP DUP4 JUMP JUMPDEST PUSH0 DUP2 PUSH2 0x711 DUP2 PUSH1 0x20 PUSH2 0xE36 JUMP JUMPDEST LT ISZERO PUSH2 0x75F JUMPI PUSH1 0x40 MLOAD PUSH3 0x461BCD PUSH1 0xE5 SHL DUP2 MSTORE PUSH1 0x20 PUSH1 0x4 DUP3 ADD MSTORE PUSH1 0x1A PUSH1 0x24 DUP3 ADD MSTORE PUSH32 0x4D61726B65743A20746F55696E743235365F6F766572666C6F77000000000000 PUSH1 0x44 DUP3 ADD MSTORE PUSH1 0x64 ADD PUSH2 0x2E9 JUMP JUMPDEST PUSH2 0x76A DUP3 PUSH1 0x20 PUSH2 0xE36 JUMP JUMPDEST DUP4 MLOAD LT ISZERO PUSH2 0x7BA JUMPI PUSH1 0x40 MLOAD PUSH3 0x461BCD PUSH1 0xE5 SHL DUP2 MSTORE PUSH1 0x20 PUSH1 0x4 DUP3 ADD MSTORE PUSH1 0x1D PUSH1 0x24 DUP3 ADD MSTORE PUSH32 0x4D61726B65743A20746F55696E743235365F6F75744F66426F756E6473000000 PUSH1 0x44 DUP3 ADD MSTORE PUSH1 0x64 ADD PUSH2 0x2E9 JUMP JUMPDEST POP DUP2 DUP2 ADD PUSH1 0x20 ADD MLOAD JUMPDEST SWAP3 SWAP2 POP POP JUMP JUMPDEST PUSH0 DUP1 PUSH0 JUMPDEST PUSH1 0x20 DUP2 LT ISZERO PUSH2 0x834 JUMPI PUSH2 0x7E1 DUP2 PUSH1 0x1 PUSH2 0xE36 JUMP JUMPDEST PUSH2 0x7EC SWAP1 PUSH1 0x20 PUSH2 0xE49 JUMP JUMPDEST PUSH2 0x7F7 SWAP1 PUSH1 0x8 PUSH2 0xE5C JUMP JUMPDEST PUSH2 0x802 SWAP1 PUSH1 0x2 PUSH2 0xF53 JUMP JUMPDEST DUP5 DUP3 PUSH1 0x20 DUP2 LT PUSH2 0x814 JUMPI PUSH2 0x814 PUSH2 0xF5E JUMP JUMPDEST PUSH2 0x820 SWAP3 SWAP2 SWAP1 BYTE PUSH2 0xE5C JUMP JUMPDEST PUSH2 0x82A SWAP1 DUP4 PUSH2 0xE36 JUMP JUMPDEST SWAP2 POP PUSH1 0x1 ADD PUSH2 0x7CD JUMP JUMPDEST POP SWAP3 SWAP2 POP POP JUMP JUMPDEST PUSH1 0x5 SLOAD PUSH1 0x60 SWAP1 PUSH0 SWAP1 PUSH8 0xFFFFFFFFFFFFFFFF DUP2 GT ISZERO PUSH2 0x85B JUMPI PUSH2 0x85B PUSH2 0xC7A JUMP JUMPDEST PUSH1 0x40 MLOAD SWAP1 DUP1 DUP3 MSTORE DUP1 PUSH1 0x20 MUL PUSH1 0x20 ADD DUP3 ADD PUSH1 0x40 MSTORE DUP1 ISZERO PUSH2 0x8B6 JUMPI DUP2 PUSH1 0x20 ADD JUMPDEST PUSH2 0x8A3 PUSH1 0x40 MLOAD DUP1 PUSH1 0x60 ADD PUSH1 0x40 MSTORE DUP1 PUSH0 PUSH1 0x1 PUSH1 0x1 PUSH1 0xA0 SHL SUB AND DUP2 MSTORE PUSH1 0x20 ADD PUSH0 DUP2 MSTORE PUSH1 0x20 ADD PUSH0 DUP2 MSTORE POP SWAP1 JUMP JUMPDEST DUP2 MSTORE PUSH1 0x20 ADD SWAP1 PUSH1 0x1 SWAP1 SUB SWAP1 DUP2 PUSH2 0x879 JUMPI SWAP1 POP JUMPDEST POP SWAP1 POP PUSH0 DUP1 JUMPDEST PUSH1 0x5 SLOAD DUP2 LT ISZERO PUSH2 0x98C JUMPI DUP5 PUSH1 0x1 PUSH1 0x1 PUSH1 0xA0 SHL SUB AND PUSH1 0x5 DUP3 DUP2 SLOAD DUP2 LT PUSH2 0x8E3 JUMPI PUSH2 0x8E3 PUSH2 0xF5E JUMP JUMPDEST PUSH0 SWAP2 DUP3 MSTORE PUSH1 0x20 SWAP1 SWAP2 KECCAK256 PUSH1 0x3 SWAP1 SWAP2 MUL ADD SLOAD PUSH1 0x1 PUSH1 0x1 PUSH1 0xA0 SHL SUB AND SUB PUSH2 0x984 JUMPI PUSH1 0x5 DUP2 DUP2 SLOAD DUP2 LT PUSH2 0x914 JUMPI PUSH2 0x914 PUSH2 0xF5E JUMP JUMPDEST PUSH0 SWAP2 DUP3 MSTORE PUSH1 0x20 SWAP2 DUP3 SWAP1 KECCAK256 PUSH1 0x40 DUP1 MLOAD PUSH1 0x60 DUP2 ADD DUP3 MSTORE PUSH1 0x3 SWAP1 SWAP4 MUL SWAP1 SWAP2 ADD DUP1 SLOAD PUSH1 0x1 PUSH1 0x1 PUSH1 0xA0 SHL SUB AND DUP4 MSTORE PUSH1 0x1 DUP2 ADD SLOAD SWAP4 DUP4 ADD SWAP4 SWAP1 SWAP4 MSTORE PUSH1 0x2 SWAP1 SWAP3 ADD SLOAD SWAP2 DUP2 ADD SWAP2 SWAP1 SWAP2 MSTORE DUP4 MLOAD DUP5 SWAP1 DUP5 SWAP1 DUP2 LT PUSH2 0x96A JUMPI PUSH2 0x96A PUSH2 0xF5E JUMP JUMPDEST PUSH1 0x20 MUL PUSH1 0x20 ADD ADD DUP2 SWAP1 MSTORE POP DUP2 DUP1 PUSH2 0x980 SWAP1 PUSH2 0xF72 JUMP JUMPDEST SWAP3 POP POP JUMPDEST PUSH1 0x1 ADD PUSH2 0x8BC JUMP JUMPDEST POP PUSH0 DUP2 PUSH8 0xFFFFFFFFFFFFFFFF DUP2 GT ISZERO PUSH2 0x9A7 JUMPI PUSH2 0x9A7 PUSH2 0xC7A JUMP JUMPDEST PUSH1 0x40 MLOAD SWAP1 DUP1 DUP3 MSTORE DUP1 PUSH1 0x20 MUL PUSH1 0x20 ADD DUP3 ADD PUSH1 0x40 MSTORE DUP1 ISZERO PUSH2 0xA02 JUMPI DUP2 PUSH1 0x20 ADD JUMPDEST PUSH2 0x9EF PUSH1 0x40 MLOAD DUP1 PUSH1 0x60 ADD PUSH1 0x40 MSTORE DUP1 PUSH0 PUSH1 0x1 PUSH1 0x1 PUSH1 0xA0 SHL SUB AND DUP2 MSTORE PUSH1 0x20 ADD PUSH0 DUP2 MSTORE PUSH1 0x20 ADD PUSH0 DUP2 MSTORE POP SWAP1 JUMP JUMPDEST DUP2 MSTORE PUSH1 0x20 ADD SWAP1 PUSH1 0x1 SWAP1 SUB SWAP1 DUP2 PUSH2 0x9C5 JUMPI SWAP1 POP JUMPDEST POP SWAP1 POP PUSH0 JUMPDEST DUP3 DUP2 LT ISZERO PUSH2 0xA4E JUMPI DUP4 DUP2 DUP2 MLOAD DUP2 LT PUSH2 0xA21 JUMPI PUSH2 0xA21 PUSH2 0xF5E JUMP JUMPDEST PUSH1 0x20 MUL PUSH1 0x20 ADD ADD MLOAD DUP3 DUP3 DUP2 MLOAD DUP2 LT PUSH2 0xA3B JUMPI PUSH2 0xA3B PUSH2 0xF5E JUMP JUMPDEST PUSH1 0x20 SWAP1 DUP2 MUL SWAP2 SWAP1 SWAP2 ADD ADD MSTORE PUSH1 0x1 ADD PUSH2 0xA07 JUMP JUMPDEST POP SWAP5 SWAP4 POP POP POP POP JUMP JUMPDEST PUSH1 0x40 DUP1 MLOAD PUSH1 0x60 DUP2 ADD DUP3 MSTORE PUSH1 0x1 PUSH1 0x1 PUSH1 0xA0 SHL SUB DUP1 DUP7 AND DUP3 MSTORE PUSH1 0x20 DUP1 DUP4 ADD DUP7 DUP2 MSTORE DUP4 DUP6 ADD DUP7 DUP2 MSTORE PUSH1 0x5 DUP1 SLOAD PUSH1 0x1 DUP2 DUP2 ADD DUP4 SSTORE PUSH0 DUP4 DUP2 MSTORE DUP9 MLOAD PUSH1 0x3 SWAP1 SWAP4 MUL PUSH32 0x36B6384B5ECA791C62761152D0C79BB0604C104A5FB6F4EB0703F3154BB3DB0 DUP2 ADD DUP1 SLOAD SWAP5 DUP11 AND PUSH1 0x1 PUSH1 0x1 PUSH1 0xA0 SHL SUB NOT SWAP6 DUP7 AND OR SWAP1 SSTORE DUP7 MLOAD PUSH32 0x36B6384B5ECA791C62761152D0C79BB0604C104A5FB6F4EB0703F3154BB3DB1 DUP3 ADD SSTORE DUP6 MLOAD PUSH32 0x36B6384B5ECA791C62761152D0C79BB0604C104A5FB6F4EB0703F3154BB3DB2 SWAP1 SWAP2 ADD SSTORE DUP12 DUP2 MSTORE PUSH1 0x2 SWAP7 DUP8 SWAP1 MSTORE SWAP9 SWAP1 SWAP9 KECCAK256 DUP8 MLOAD DUP2 SLOAD SWAP8 AND SWAP7 SWAP1 SWAP2 AND SWAP6 SWAP1 SWAP6 OR DUP6 SSTORE SWAP2 MLOAD DUP5 DUP8 ADD SSTORE MLOAD SWAP3 SWAP1 SWAP2 ADD SWAP2 SWAP1 SWAP2 SSTORE SLOAD SWAP1 SWAP2 PUSH2 0xB4E SWAP2 PUSH2 0xE49 JUMP JUMPDEST PUSH0 SWAP4 DUP5 MSTORE PUSH1 0x3 PUSH1 0x20 MSTORE PUSH1 0x40 SWAP1 SWAP4 KECCAK256 SWAP3 SWAP1 SWAP3 SSTORE POP POP POP JUMP JUMPDEST DUP1 CALLDATALOAD PUSH1 0x1 PUSH1 0x1 PUSH1 0xA0 SHL SUB DUP2 AND DUP2 EQ PUSH2 0xB7B JUMPI PUSH0 DUP1 REVERT JUMPDEST SWAP2 SWAP1 POP JUMP JUMPDEST PUSH0 DUP1 PUSH0 DUP1 PUSH0 PUSH1 0x80 DUP7 DUP9 SUB SLT ISZERO PUSH2 0xB94 JUMPI PUSH0 DUP1 REVERT JUMPDEST PUSH2 0xB9D DUP7 PUSH2 0xB65 JUMP JUMPDEST SWAP5 POP PUSH2 0xBAB PUSH1 0x20 DUP8 ADD PUSH2 0xB65 JUMP JUMPDEST SWAP4 POP PUSH1 0x40 DUP7 ADD CALLDATALOAD SWAP3 POP PUSH1 0x60 DUP7 ADD CALLDATALOAD PUSH8 0xFFFFFFFFFFFFFFFF DUP1 DUP3 GT ISZERO PUSH2 0xBCE JUMPI PUSH0 DUP1 REVERT JUMPDEST DUP2 DUP9 ADD SWAP2 POP DUP9 PUSH1 0x1F DUP4 ADD SLT PUSH2 0xBE1 JUMPI PUSH0 DUP1 REVERT JUMPDEST DUP2 CALLDATALOAD DUP2 DUP2 GT ISZERO PUSH2 0xBEF JUMPI PUSH0 DUP1 REVERT JUMPDEST DUP10 PUSH1 0x20 DUP3 DUP6 ADD ADD GT ISZERO PUSH2 0xC00 JUMPI PUSH0 DUP1 REVERT JUMPDEST SWAP7 SWAP10 SWAP6 SWAP9 POP SWAP4 SWAP7 POP PUSH1 0x20 ADD SWAP5 SWAP4 SWAP3 POP POP POP JUMP JUMPDEST PUSH0 DUP1 PUSH0 PUSH1 0x60 DUP5 DUP7 SUB SLT ISZERO PUSH2 0xC25 JUMPI PUSH0 DUP1 REVERT JUMPDEST PUSH2 0xC2E DUP5 PUSH2 0xB65 JUMP JUMPDEST SWAP6 PUSH1 0x20 DUP6 ADD CALLDATALOAD SWAP6 POP PUSH1 0x40 SWAP1 SWAP5 ADD CALLDATALOAD SWAP4 SWAP3 POP POP POP JUMP JUMPDEST PUSH0 DUP1 PUSH1 0x40 DUP4 DUP6 SUB SLT ISZERO PUSH2 0xC54 JUMPI PUSH0 DUP1 REVERT JUMPDEST POP POP DUP1 CALLDATALOAD SWAP3 PUSH1 0x20 SWAP1 SWAP2 ADD CALLDATALOAD SWAP2 POP JUMP JUMPDEST PUSH0 PUSH1 0x20 DUP3 DUP5 SUB SLT ISZERO PUSH2 0xC73 JUMPI PUSH0 DUP1 REVERT JUMPDEST POP CALLDATALOAD SWAP2 SWAP1 POP JUMP JUMPDEST PUSH4 0x4E487B71 PUSH1 0xE0 SHL PUSH0 MSTORE PUSH1 0x41 PUSH1 0x4 MSTORE PUSH1 0x24 PUSH0 REVERT JUMPDEST PUSH0 DUP1 PUSH1 0x40 DUP4 DUP6 SUB SLT ISZERO PUSH2 0xC9F JUMPI PUSH0 DUP1 REVERT JUMPDEST DUP3 CALLDATALOAD PUSH8 0xFFFFFFFFFFFFFFFF DUP1 DUP3 GT ISZERO PUSH2 0xCB6 JUMPI PUSH0 DUP1 REVERT JUMPDEST DUP2 DUP6 ADD SWAP2 POP DUP6 PUSH1 0x1F DUP4 ADD SLT PUSH2 0xCC9 JUMPI PUSH0 DUP1 REVERT JUMPDEST DUP2 CALLDATALOAD DUP2 DUP2 GT ISZERO PUSH2 0xCDB JUMPI PUSH2 0xCDB PUSH2 0xC7A JUMP JUMPDEST PUSH1 0x40 MLOAD PUSH1 0x1F DUP3 ADD PUSH1 0x1F NOT SWAP1 DUP2 AND PUSH1 0x3F ADD AND DUP2 ADD SWAP1 DUP4 DUP3 GT DUP2 DUP4 LT OR ISZERO PUSH2 0xD03 JUMPI PUSH2 0xD03 PUSH2 0xC7A JUMP JUMPDEST DUP2 PUSH1 0x40 MSTORE DUP3 DUP2 MSTORE DUP9 PUSH1 0x20 DUP5 DUP8 ADD ADD GT ISZERO PUSH2 0xD1B JUMPI PUSH0 DUP1 REVERT JUMPDEST DUP3 PUSH1 0x20 DUP7 ADD PUSH1 0x20 DUP4 ADD CALLDATACOPY PUSH0 PUSH1 0x20 SWAP4 DUP3 ADD DUP5 ADD MSTORE SWAP9 SWAP7 SWAP1 SWAP2 ADD CALLDATALOAD SWAP7 POP POP POP POP POP POP JUMP JUMPDEST PUSH0 PUSH1 0x20 DUP3 DUP5 SUB SLT ISZERO PUSH2 0xD4D JUMPI PUSH0 DUP1 REVERT JUMPDEST PUSH2 0xD56 DUP3 PUSH2 0xB65 JUMP JUMPDEST SWAP4 SWAP3 POP POP POP JUMP JUMPDEST PUSH1 0x20 DUP1 DUP3 MSTORE DUP3 MLOAD DUP3 DUP3 ADD DUP2 SWAP1 MSTORE PUSH0 SWAP2 SWAP1 PUSH1 0x40 SWAP1 DUP2 DUP6 ADD SWAP1 DUP7 DUP5 ADD DUP6 JUMPDEST DUP3 DUP2 LT ISZERO PUSH2 0xDB1 JUMPI DUP2 MLOAD DUP1 MLOAD PUSH1 0x1 PUSH1 0x1 PUSH1 0xA0 SHL SUB AND DUP6 MSTORE DUP7 DUP2 ADD MLOAD DUP8 DUP7 ADD MSTORE DUP6 ADD MLOAD DUP6 DUP6 ADD MSTORE PUSH1 0x60 SWAP1 SWAP4 ADD SWAP3 SWAP1 DUP6 ADD SWAP1 PUSH1 0x1 ADD PUSH2 0xD79 JUMP JUMPDEST POP SWAP2 SWAP8 SWAP7 POP POP POP POP POP POP POP JUMP JUMPDEST PUSH0 PUSH1 0x20 DUP3 DUP5 SUB SLT ISZERO PUSH2 0xDCE JUMPI PUSH0 DUP1 REVERT JUMPDEST DUP2 MLOAD DUP1 ISZERO ISZERO DUP2 EQ PUSH2 0xD56 JUMPI PUSH0 DUP1 REVERT JUMPDEST PUSH1 0x20 DUP1 DUP3 MSTORE PUSH1 0x25 SWAP1 DUP3 ADD MSTORE PUSH32 0x596F7520617265206E6F7420746865206F776E6572206F662074686973207072 PUSH1 0x40 DUP3 ADD MSTORE PUSH5 0x1BD91D58DD PUSH1 0xDA SHL PUSH1 0x60 DUP3 ADD MSTORE PUSH1 0x80 ADD SWAP1 JUMP JUMPDEST PUSH4 0x4E487B71 PUSH1 0xE0 SHL PUSH0 MSTORE PUSH1 0x11 PUSH1 0x4 MSTORE PUSH1 0x24 PUSH0 REVERT JUMPDEST DUP1 DUP3 ADD DUP1 DUP3 GT ISZERO PUSH2 0x7C3 JUMPI PUSH2 0x7C3 PUSH2 0xE22 JUMP JUMPDEST DUP2 DUP2 SUB DUP2 DUP2 GT ISZERO PUSH2 0x7C3 JUMPI PUSH2 0x7C3 PUSH2 0xE22 JUMP JUMPDEST DUP1 DUP3 MUL DUP2 ISZERO DUP3 DUP3 DIV DUP5 EQ OR PUSH2 0x7C3 JUMPI PUSH2 0x7C3 PUSH2 0xE22 JUMP JUMPDEST PUSH1 0x1 DUP2 DUP2 JUMPDEST DUP1 DUP6 GT ISZERO PUSH2 0xEAD JUMPI DUP2 PUSH0 NOT DIV DUP3 GT ISZERO PUSH2 0xE93 JUMPI PUSH2 0xE93 PUSH2 0xE22 JUMP JUMPDEST DUP1 DUP6 AND ISZERO PUSH2 0xEA0 JUMPI SWAP2 DUP2 MUL SWAP2 JUMPDEST SWAP4 DUP5 SHR SWAP4 SWAP1 DUP1 MUL SWAP1 PUSH2 0xE78 JUMP JUMPDEST POP SWAP3 POP SWAP3 SWAP1 POP JUMP JUMPDEST PUSH0 DUP3 PUSH2 0xEC3 JUMPI POP PUSH1 0x1 PUSH2 0x7C3 JUMP JUMPDEST DUP2 PUSH2 0xECF JUMPI POP PUSH0 PUSH2 0x7C3 JUMP JUMPDEST DUP2 PUSH1 0x1 DUP2 EQ PUSH2 0xEE5 JUMPI PUSH1 0x2 DUP2 EQ PUSH2 0xEEF JUMPI PUSH2 0xF0B JUMP JUMPDEST PUSH1 0x1 SWAP2 POP POP PUSH2 0x7C3 JUMP JUMPDEST PUSH1 0xFF DUP5 GT ISZERO PUSH2 0xF00 JUMPI PUSH2 0xF00 PUSH2 0xE22 JUMP JUMPDEST POP POP PUSH1 0x1 DUP3 SHL PUSH2 0x7C3 JUMP JUMPDEST POP PUSH1 0x20 DUP4 LT PUSH2 0x133 DUP4 LT AND PUSH1 0x4E DUP5 LT PUSH1 0xB DUP5 LT AND OR ISZERO PUSH2 0xF2E JUMPI POP DUP2 DUP2 EXP PUSH2 0x7C3 JUMP JUMPDEST PUSH2 0xF38 DUP4 DUP4 PUSH2 0xE73 JUMP JUMPDEST DUP1 PUSH0 NOT DIV DUP3 GT ISZERO PUSH2 0xF4B JUMPI PUSH2 0xF4B PUSH2 0xE22 JUMP JUMPDEST MUL SWAP4 SWAP3 POP POP POP JUMP JUMPDEST PUSH0 PUSH2 0xD56 DUP4 DUP4 PUSH2 0xEB5 JUMP JUMPDEST PUSH4 0x4E487B71 PUSH1 0xE0 SHL PUSH0 MSTORE PUSH1 0x32 PUSH1 0x4 MSTORE PUSH1 0x24 PUSH0 REVERT JUMPDEST PUSH0 PUSH1 0x1 DUP3 ADD PUSH2 0xF83 JUMPI PUSH2 0xF83 PUSH2 0xE22 JUMP JUMPDEST POP PUSH1 0x1 ADD SWAP1 JUMP INVALID LOG2 PUSH5 0x6970667358 0x22 SLT KECCAK256 PC 0xC6 0x2E PUSH6 0xE545CCDAAA98 0xE4 ADD PUSH13 0x7A05FF8DFC30E708358B1211E5 0xC7 0xB4 0xE6 0xB9 SWAP6 GASLIMIT PUSH5 0x736F6C6343 STOP ADDMOD AND STOP CALLER "
				},
				"gasEstimates": {
					"creation": {
						"codeDepositCost": "806400",
						"executionCost": "infinite",
						"totalCost": "infinite"
					},
					"external": {
						"CancelOrder(uint256)": "45166",
						"ChangePrice(uint256,uint256)": "76844",
						"_balance(address)": "2538",
						"bytesToUint(bytes32)": "infinite",
						"erc20()": "2381",
						"erc721()": "2380",
						"getMyNFT(address)": "infinite",
						"idToOrderIndex(uint256)": "2479",
						"onERC721Received(address,address,uint256,bytes)": "infinite",
						"orderofId(uint256)": "6846",
						"orders(uint256)": "9008",
						"toUint256(bytes,uint256)": "infinite",
						"tokenReceive(address,uint256,uint256)": "infinite"
					},
					"internal": {
						"buy(uint256,address)": "infinite",
						"placeOrder(address,uint256,uint256)": "infinite"
					}
				},
				"methodIdentifiers": {
					"CancelOrder(uint256)": "935c9ad2",
					"ChangePrice(uint256,uint256)": "7a23754e",
					"_balance(address)": "d3aceae2",
					"bytesToUint(bytes32)": "cfc5a969",
					"erc20()": "785e9e86",
					"erc721()": "bca6ce64",
					"getMyNFT(address)": "e1bd88c2",
					"idToOrderIndex(uint256)": "da694df0",
					"onERC721Received(address,address,uint256,bytes)": "150b7a02",
					"orderofId(uint256)": "ee339945",
					"orders(uint256)": "a85c38ef",
					"toUint256(bytes,uint256)": "b5cdf924",
					"tokenReceive(address,uint256,uint256)": "59a97ea8"
				}
			},
			"storageLayout": {
				"storage": [
					{
						"astId": 955,
						"contract": "day7/Manage/src/Market.sol:Market",
						"label": "erc721",
						"offset": 0,
						"slot": "0",
						"type": "t_contract(IERC721)884"
					},
					{
						"astId": 958,
						"contract": "day7/Manage/src/Market.sol:Market",
						"label": "erc20",
						"offset": 0,
						"slot": "1",
						"type": "t_contract(MyERC20)1578"
					},
					{
						"astId": 963,
						"contract": "day7/Manage/src/Market.sol:Market",
						"label": "orderofId",
						"offset": 0,
						"slot": "2",
						"type": "t_mapping(t_uint256,t_struct(Order)982_storage)"
					},
					{
						"astId": 967,
						"contract": "day7/Manage/src/Market.sol:Market",
						"label": "idToOrderIndex",
						"offset": 0,
						"slot": "3",
						"type": "t_mapping(t_uint256,t_uint256)"
					},
					{
						"astId": 971,
						"contract": "day7/Manage/src/Market.sol:Market",
						"label": "_balance",
						"offset": 0,
						"slot": "4",
						"type": "t_mapping(t_address,t_uint256)"
					},
					{
						"astId": 975,
						"contract": "day7/Manage/src/Market.sol:Market",
						"label": "orders",
						"offset": 0,
						"slot": "5",
						"type": "t_array(t_struct(Order)982_storage)dyn_storage"
					}
				],
				"types": {
					"t_address": {
						"encoding": "inplace",
						"label": "address",
						"numberOfBytes": "20"
					},
					"t_array(t_struct(Order)982_storage)dyn_storage": {
						"base": "t_struct(Order)982_storage",
						"encoding": "dynamic_array",
						"label": "struct Market.Order[]",
						"numberOfBytes": "32"
					},
					"t_contract(IERC721)884": {
						"encoding": "inplace",
						"label": "contract IERC721",
						"numberOfBytes": "20"
					},
					"t_contract(MyERC20)1578": {
						"encoding": "inplace",
						"label": "contract MyERC20",
						"numberOfBytes": "20"
					},
					"t_mapping(t_address,t_uint256)": {
						"encoding": "mapping",
						"key": "t_address",
						"label": "mapping(address => uint256)",
						"numberOfBytes": "32",
						"value": "t_uint256"
					},
					"t_mapping(t_uint256,t_struct(Order)982_storage)": {
						"encoding": "mapping",
						"key": "t_uint256",
						"label": "mapping(uint256 => struct Market.Order)",
						"numberOfBytes": "32",
						"value": "t_struct(Order)982_storage"
					},
					"t_mapping(t_uint256,t_uint256)": {
						"encoding": "mapping",
						"key": "t_uint256",
						"label": "mapping(uint256 => uint256)",
						"numberOfBytes": "32",
						"value": "t_uint256"
					},
					"t_struct(Order)982_storage": {
						"encoding": "inplace",
						"label": "struct Market.Order",
						"members": [
							{
								"astId": 977,
								"contract": "day7/Manage/src/Market.sol:Market",
								"label": "seller",
								"offset": 0,
								"slot": "0",
								"type": "t_address"
							},
							{
								"astId": 979,
								"contract": "day7/Manage/src/Market.sol:Market",
								"label": "id",
								"offset": 0,
								"slot": "1",
								"type": "t_uint256"
							},
							{
								"astId": 981,
								"contract": "day7/Manage/src/Market.sol:Market",
								"label": "price",
								"offset": 0,
								"slot": "2",
								"type": "t_uint256"
							}
						],
						"numberOfBytes": "96"
					},
					"t_uint256": {
						"encoding": "inplace",
						"label": "uint256",
						"numberOfBytes": "32"
					}
				}
			},
			"userdoc": {
				"kind": "user",
				"methods": {},
				"version": 1
			}
		}
	}
}