{
	"src/MyERC20.sol": {
		"MyERC20": {
			"abi": [
				{
					"inputs": [],
					"stateMutability": "nonpayable",
					"type": "constructor"
				},
				{
					"inputs": [
						{
							"internalType": "address",
							"name": "spender",
							"type": "address"
						},
						{
							"internalType": "uint256",
							"name": "allowance",
							"type": "uint256"
						},
						{
							"internalType": "uint256",
							"name": "needed",
							"type": "uint256"
						}
					],
					"name": "ERC20InsufficientAllowance",
					"type": "error"
				},
				{
					"inputs": [
						{
							"internalType": "address",
							"name": "sender",
							"type": "address"
						},
						{
							"internalType": "uint256",
							"name": "balance",
							"type": "uint256"
						},
						{
							"internalType": "uint256",
							"name": "needed",
							"type": "uint256"
						}
					],
					"name": "ERC20InsufficientBalance",
					"type": "error"
				},
				{
					"inputs": [
						{
							"internalType": "address",
							"name": "approver",
							"type": "address"
						}
					],
					"name": "ERC20InvalidApprover",
					"type": "error"
				},
				{
					"inputs": [
						{
							"internalType": "address",
							"name": "receiver",
							"type": "address"
						}
					],
					"name": "ERC20InvalidReceiver",
					"type": "error"
				},
				{
					"inputs": [
						{
							"internalType": "address",
							"name": "sender",
							"type": "address"
						}
					],
					"name": "ERC20InvalidSender",
					"type": "error"
				},
				{
					"inputs": [
						{
							"internalType": "address",
							"name": "spender",
							"type": "address"
						}
					],
					"name": "ERC20InvalidSpender",
					"type": "error"
				},
				{
					"anonymous": false,
					"inputs": [
						{
							"indexed": true,
							"internalType": "address",
							"name": "owner",
							"type": "address"
						},
						{
							"indexed": true,
							"internalType": "address",
							"name": "spender",
							"type": "address"
						},
						{
							"indexed": false,
							"internalType": "uint256",
							"name": "value",
							"type": "uint256"
						}
					],
					"name": "Approval",
					"type": "event"
				},
				{
					"anonymous": false,
					"inputs": [
						{
							"indexed": true,
							"internalType": "address",
							"name": "from",
							"type": "address"
						},
						{
							"indexed": true,
							"internalType": "address",
							"name": "to",
							"type": "address"
						},
						{
							"indexed": false,
							"internalType": "uint256",
							"name": "value",
							"type": "uint256"
						}
					],
					"name": "Transfer",
					"type": "event"
				},
				{
					"inputs": [
						{
							"internalType": "address",
							"name": "owner",
							"type": "address"
						},
						{
							"internalType": "address",
							"name": "spender",
							"type": "address"
						}
					],
					"name": "allowance",
					"outputs": [
						{
							"internalType": "uint256",
							"name": "",
							"type": "uint256"
						}
					],
					"stateMutability": "view",
					"type": "function"
				},
				{
					"inputs": [
						{
							"internalType": "address",
							"name": "spender",
							"type": "address"
						},
						{
							"internalType": "uint256",
							"name": "value",
							"type": "uint256"
						}
					],
					"name": "approve",
					"outputs": [
						{
							"internalType": "bool",
							"name": "",
							"type": "bool"
						}
					],
					"stateMutability": "nonpayable",
					"type": "function"
				},
				{
					"inputs": [
						{
							"internalType": "address",
							"name": "account",
							"type": "address"
						}
					],
					"name": "balanceOf",
					"outputs": [
						{
							"internalType": "uint256",
							"name": "",
							"type": "uint256"
						}
					],
					"stateMutability": "view",
					"type": "function"
				},
				{
					"inputs": [],
					"name": "decimals",
					"outputs": [
						{
							"internalType": "uint8",
							"name": "",
							"type": "uint8"
						}
					],
					"stateMutability": "view",
					"type": "function"
				},
				{
					"inputs": [],
					"name": "name",
					"outputs": [
						{
							"internalType": "string",
							"name": "",
							"type": "string"
						}
					],
					"stateMutability": "view",
					"type": "function"
				},
				{
					"inputs": [],
					"name": "symbol",
					"outputs": [
						{
							"internalType": "string",
							"name": "",
							"type": "string"
						}
					],
					"stateMutability": "view",
					"type": "function"
				},
				{
					"inputs": [],
					"name": "totalSupply",
					"outputs": [
						{
							"internalType": "uint256",
							"name": "",
							"type": "uint256"
						}
					],
					"stateMutability": "view",
					"type": "function"
				},
				{
					"inputs": [
						{
							"internalType": "address",
							"name": "to",
							"type": "address"
						},
						{
							"internalType": "uint256",
							"name": "value",
							"type": "uint256"
						}
					],
					"name": "transfer",
					"outputs": [
						{
							"internalType": "bool",
							"name": "",
							"type": "bool"
						}
					],
					"stateMutability": "nonpayable",
					"type": "function"
				},
				{
					"inputs": [
						{
							"internalType": "address",
							"name": "from",
							"type": "address"
						},
						{
							"internalType": "address",
							"name": "to",
							"type": "address"
						},
						{
							"internalType": "uint256",
							"name": "value",
							"type": "uint256"
						}
					],
					"name": "transferFrom",
					"outputs": [
						{
							"internalType": "bool",
							"name": "",
							"type": "bool"
						}
					],
					"stateMutability": "nonpayable",
					"type": "function"
				},
				{
					"inputs": [
						{
							"internalType": "address",
							"name": "to",
							"type": "address"
						},
						{
							"internalType": "uint256",
							"name": "amount",
							"type": "uint256"
						},
						{
							"internalType": "uint256",
							"name": "id",
							"type": "uint256"
						}
					],
					"name": "transferWithCallback",
					"outputs": [],
					"stateMutability": "nonpayable",
					"type": "function"
				}
			],
			"devdoc": {
				"errors": {
					"ERC20InsufficientAllowance(address,uint256,uint256)": [
						{
							"details": "Indicates a failure with the `spender`’s `allowance`. Used in transfers.",
							"params": {
								"allowance": "Amount of tokens a `spender` is allowed to operate with.",
								"needed": "Minimum amount required to perform a transfer.",
								"spender": "Address that may be allowed to operate on tokens without being their owner."
							}
						}
					],
					"ERC20InsufficientBalance(address,uint256,uint256)": [
						{
							"details": "Indicates an error related to the current `balance` of a `sender`. Used in transfers.",
							"params": {
								"balance": "Current balance for the interacting account.",
								"needed": "Minimum amount required to perform a transfer.",
								"sender": "Address whose tokens are being transferred."
							}
						}
					],
					"ERC20InvalidApprover(address)": [
						{
							"details": "Indicates a failure with the `approver` of a token to be approved. Used in approvals.",
							"params": {
								"approver": "Address initiating an approval operation."
							}
						}
					],
					"ERC20InvalidReceiver(address)": [
						{
							"details": "Indicates a failure with the token `receiver`. Used in transfers.",
							"params": {
								"receiver": "Address to which tokens are being transferred."
							}
						}
					],
					"ERC20InvalidSender(address)": [
						{
							"details": "Indicates a failure with the token `sender`. Used in transfers.",
							"params": {
								"sender": "Address whose tokens are being transferred."
							}
						}
					],
					"ERC20InvalidSpender(address)": [
						{
							"details": "Indicates a failure with the `spender` to be approved. Used in approvals.",
							"params": {
								"spender": "Address that may be allowed to operate on tokens without being their owner."
							}
						}
					]
				},
				"events": {
					"Approval(address,address,uint256)": {
						"details": "Emitted when the allowance of a `spender` for an `owner` is set by a call to {approve}. `value` is the new allowance."
					},
					"Transfer(address,address,uint256)": {
						"details": "Emitted when `value` tokens are moved from one account (`from`) to another (`to`). Note that `value` may be zero."
					}
				},
				"kind": "dev",
				"methods": {
					"allowance(address,address)": {
						"details": "See {IERC20-allowance}."
					},
					"approve(address,uint256)": {
						"details": "See {IERC20-approve}. NOTE: If `value` is the maximum `uint256`, the allowance is not updated on `transferFrom`. This is semantically equivalent to an infinite approval. Requirements: - `spender` cannot be the zero address."
					},
					"balanceOf(address)": {
						"details": "See {IERC20-balanceOf}."
					},
					"decimals()": {
						"details": "Returns the number of decimals used to get its user representation. For example, if `decimals` equals `2`, a balance of `505` tokens should be displayed to a user as `5.05` (`505 / 10 ** 2`). Tokens usually opt for a value of 18, imitating the relationship between Ether and Wei. This is the default value returned by this function, unless it's overridden. NOTE: This information is only used for _display_ purposes: it in no way affects any of the arithmetic of the contract, including {IERC20-balanceOf} and {IERC20-transfer}."
					},
					"name()": {
						"details": "Returns the name of the token."
					},
					"symbol()": {
						"details": "Returns the symbol of the token, usually a shorter version of the name."
					},
					"totalSupply()": {
						"details": "See {IERC20-totalSupply}."
					},
					"transfer(address,uint256)": {
						"details": "See {IERC20-transfer}. Requirements: - `to` cannot be the zero address. - the caller must have a balance of at least `value`."
					},
					"transferFrom(address,address,uint256)": {
						"details": "See {IERC20-transferFrom}. Emits an {Approval} event indicating the updated allowance. This is not required by the EIP. See the note at the beginning of {ERC20}. NOTE: Does not update the allowance if the current allowance is the maximum `uint256`. Requirements: - `from` and `to` cannot be the zero address. - `from` must have a balance of at least `value`. - the caller must have allowance for ``from``'s tokens of at least `value`."
					}
				},
				"version": 1
			},
			"evm": {
				"assembly": "    /* \"src/MyERC20.sol\":226:1022  contract MyERC20 is ERC20 {... */\n  mstore(0x40, 0x80)\n    /* \"src/MyERC20.sol\":259:363  constructor() ERC20(\"MyToken\", \"MTK\") {... */\n  callvalue\n  dup1\n  iszero\n  tag_1\n  jumpi\n  0x00\n  dup1\n  revert\ntag_1:\n  pop\n    /* \"lib/openzeppelin-contracts/contracts/token/ERC20/ERC20.sol\":1945:2061  constructor(string memory name_, string memory symbol_) {... */\n  mload(0x40)\n  dup1\n  0x40\n  add\n  0x40\n  mstore\n  dup1\n  0x07\n  dup2\n  mstore\n  0x20\n  add\n  shl(0xc9, 0x26bcaa37b5b2b7)\n  dup2\n  mstore\n  pop\n  mload(0x40)\n  dup1\n  0x40\n  add\n  0x40\n  mstore\n  dup1\n  0x03\n  dup2\n  mstore\n  0x20\n  add\n  shl(0xe8, 0x4d544b)\n  dup2\n  mstore\n  pop\n    /* \"lib/openzeppelin-contracts/contracts/token/ERC20/ERC20.sol\":2020:2025  name_ */\n  dup2\n    /* \"lib/openzeppelin-contracts/contracts/token/ERC20/ERC20.sol\":2012:2017  _name */\n  0x03\n    /* \"lib/openzeppelin-contracts/contracts/token/ERC20/ERC20.sol\":2012:2025  _name = name_ */\n  swap1\n  dup2\n  tag_5\n  swap2\n  swap1\n  tag_6\n  jump\t// in\ntag_5:\n  pop\n    /* \"lib/openzeppelin-contracts/contracts/token/ERC20/ERC20.sol\":2036:2043  _symbol */\n  0x04\n    /* \"lib/openzeppelin-contracts/contracts/token/ERC20/ERC20.sol\":2036:2053  _symbol = symbol_ */\n  tag_7\n    /* \"lib/openzeppelin-contracts/contracts/token/ERC20/ERC20.sol\":2046:2053  symbol_ */\n  dup3\n    /* \"lib/openzeppelin-contracts/contracts/token/ERC20/ERC20.sol\":2036:2043  _symbol */\n  dup3\n    /* \"lib/openzeppelin-contracts/contracts/token/ERC20/ERC20.sol\":2036:2053  _symbol = symbol_ */\n  tag_6\n  jump\t// in\ntag_7:\n  pop\n    /* \"lib/openzeppelin-contracts/contracts/token/ERC20/ERC20.sol\":1945:2061  constructor(string memory name_, string memory symbol_) {... */\n  pop\n  pop\n    /* \"src/MyERC20.sol\":307:355  _mint(msg.sender, 1 * 10 ** 8 * 10 **decimals()) */\n  tag_9\n    /* \"src/MyERC20.sol\":313:323  msg.sender */\n  caller\n    /* \"src/MyERC20.sol\":344:354  decimals() */\n  tag_10\n    /* \"src/MyERC20.sol\":344:352  decimals */\n  shl(0x20, tag_11)\n    /* \"src/MyERC20.sol\":344:354  decimals() */\n  0x20\n  shr\n  jump\t// in\ntag_10:\n    /* \"src/MyERC20.sol\":339:354  10 **decimals() */\n  tag_12\n  swap1\n    /* \"src/MyERC20.sol\":339:341  10 */\n  0x0a\n    /* \"src/MyERC20.sol\":339:354  10 **decimals() */\n  tag_13\n  jump\t// in\ntag_12:\n    /* \"src/MyERC20.sol\":325:354  1 * 10 ** 8 * 10 **decimals() */\n  tag_14\n  swap1\n    /* \"src/MyERC20.sol\":325:336  1 * 10 ** 8 */\n  0x05f5e100\n    /* \"src/MyERC20.sol\":325:354  1 * 10 ** 8 * 10 **decimals() */\n  tag_15\n  jump\t// in\ntag_14:\n    /* \"src/MyERC20.sol\":307:312  _mint */\n  tag_16\n    /* \"src/MyERC20.sol\":307:355  _mint(msg.sender, 1 * 10 ** 8 * 10 **decimals()) */\n  jump\t// in\ntag_9:\n    /* \"src/MyERC20.sol\":226:1022  contract MyERC20 is ERC20 {... */\n  jump(tag_45)\n    /* \"lib/openzeppelin-contracts/contracts/token/ERC20/ERC20.sol\":3084:3168  function decimals() public view virtual returns (uint8) {... */\ntag_11:\n    /* \"lib/openzeppelin-contracts/contracts/token/ERC20/ERC20.sol\":3158:3160  18 */\n  0x12\n  swap1\n    /* \"lib/openzeppelin-contracts/contracts/token/ERC20/ERC20.sol\":3084:3168  function decimals() public view virtual returns (uint8) {... */\n  jump\t// out\n    /* \"lib/openzeppelin-contracts/contracts/token/ERC20/ERC20.sol\":7946:8159  function _mint(address account, uint256 value) internal {... */\ntag_16:\n  sub(shl(0xa0, 0x01), 0x01)\n    /* \"lib/openzeppelin-contracts/contracts/token/ERC20/ERC20.sol\":8017:8038  account == address(0) */\n  dup3\n  and\n    /* \"lib/openzeppelin-contracts/contracts/token/ERC20/ERC20.sol\":8013:8106  if (account == address(0)) {... */\n  tag_20\n  jumpi\n    /* \"lib/openzeppelin-contracts/contracts/token/ERC20/ERC20.sol\":8062:8094  ERC20InvalidReceiver(address(0)) */\n  mload(0x40)\n  shl(0xe0, 0xec442f05)\n  dup2\n  mstore\n    /* \"lib/openzeppelin-contracts/contracts/token/ERC20/ERC20.sol\":8091:8092  0 */\n  0x00\n    /* \"lib/openzeppelin-contracts/contracts/token/ERC20/ERC20.sol\":8062:8094  ERC20InvalidReceiver(address(0)) */\n  0x04\n  dup3\n  add\n    /* \"#utility.yul\":4529:4580   */\n  mstore\n    /* \"#utility.yul\":4502:4520   */\n  0x24\n  add\n    /* \"lib/openzeppelin-contracts/contracts/token/ERC20/ERC20.sol\":8062:8094  ERC20InvalidReceiver(address(0)) */\ntag_21:\n  mload(0x40)\n  dup1\n  swap2\n  sub\n  swap1\n  revert\n    /* \"lib/openzeppelin-contracts/contracts/token/ERC20/ERC20.sol\":8013:8106  if (account == address(0)) {... */\ntag_20:\n    /* \"lib/openzeppelin-contracts/contracts/token/ERC20/ERC20.sol\":8116:8151  _update(address(0), account, value) */\n  tag_23\n    /* \"lib/openzeppelin-contracts/contracts/token/ERC20/ERC20.sol\":8132:8133  0 */\n  0x00\n    /* \"lib/openzeppelin-contracts/contracts/token/ERC20/ERC20.sol\":8136:8143  account */\n  dup4\n    /* \"lib/openzeppelin-contracts/contracts/token/ERC20/ERC20.sol\":8145:8150  value */\n  dup4\n    /* \"lib/openzeppelin-contracts/contracts/token/ERC20/ERC20.sol\":8116:8123  _update */\n  tag_24\n    /* \"lib/openzeppelin-contracts/contracts/token/ERC20/ERC20.sol\":8116:8151  _update(address(0), account, value) */\n  jump\t// in\ntag_23:\n    /* \"lib/openzeppelin-contracts/contracts/token/ERC20/ERC20.sol\":7946:8159  function _mint(address account, uint256 value) internal {... */\n  pop\n  pop\n  jump\t// out\n    /* \"lib/openzeppelin-contracts/contracts/token/ERC20/ERC20.sol\":6458:7593  function _update(address from, address to, uint256 value) internal virtual {... */\ntag_24:\n  sub(shl(0xa0, 0x01), 0x01)\n    /* \"lib/openzeppelin-contracts/contracts/token/ERC20/ERC20.sol\":6548:6566  from == address(0) */\n  dup4\n  and\n    /* \"lib/openzeppelin-contracts/contracts/token/ERC20/ERC20.sol\":6544:7096  if (from == address(0)) {... */\n  tag_26\n  jumpi\n    /* \"lib/openzeppelin-contracts/contracts/token/ERC20/ERC20.sol\":6702:6707  value */\n  dup1\n    /* \"lib/openzeppelin-contracts/contracts/token/ERC20/ERC20.sol\":6686:6698  _totalSupply */\n  0x02\n  0x00\n    /* \"lib/openzeppelin-contracts/contracts/token/ERC20/ERC20.sol\":6686:6707  _totalSupply += value */\n  dup3\n  dup3\n  sload\n  tag_27\n  swap2\n  swap1\n  tag_28\n  jump\t// in\ntag_27:\n  swap1\n  swap2\n  sstore\n  pop\n    /* \"lib/openzeppelin-contracts/contracts/token/ERC20/ERC20.sol\":6544:7096  if (from == address(0)) {... */\n  tag_29\n  swap1\n  pop\n  jump\ntag_26:\n  sub(shl(0xa0, 0x01), 0x01)\n    /* \"lib/openzeppelin-contracts/contracts/token/ERC20/ERC20.sol\":6762:6777  _balances[from] */\n  dup4\n  and\n    /* \"lib/openzeppelin-contracts/contracts/token/ERC20/ERC20.sol\":6740:6759  uint256 fromBalance */\n  0x00\n    /* \"lib/openzeppelin-contracts/contracts/token/ERC20/ERC20.sol\":6762:6777  _balances[from] */\n  swap1\n  dup2\n  mstore\n  0x20\n  dup2\n  swap1\n  mstore\n  0x40\n  swap1\n  keccak256\n  sload\n    /* \"lib/openzeppelin-contracts/contracts/token/ERC20/ERC20.sol\":6796:6815  fromBalance < value */\n  dup2\n  dup2\n  lt\n    /* \"lib/openzeppelin-contracts/contracts/token/ERC20/ERC20.sol\":6792:6909  if (fromBalance < value) {... */\n  iszero\n  tag_30\n  jumpi\n    /* \"lib/openzeppelin-contracts/contracts/token/ERC20/ERC20.sol\":6843:6893  ERC20InsufficientBalance(from, fromBalance, value) */\n  mload(0x40)\n  shl(0xe2, 0x391434e3)\n  dup2\n  mstore\n  sub(shl(0xa0, 0x01), 0x01)\n    /* \"#utility.yul\":4941:4973   */\n  dup6\n  and\n    /* \"lib/openzeppelin-contracts/contracts/token/ERC20/ERC20.sol\":6843:6893  ERC20InsufficientBalance(from, fromBalance, value) */\n  0x04\n  dup3\n  add\n    /* \"#utility.yul\":4923:4974   */\n  mstore\n    /* \"#utility.yul\":4990:5008   */\n  0x24\n  dup2\n  add\n    /* \"#utility.yul\":4983:5017   */\n  dup3\n  swap1\n  mstore\n    /* \"#utility.yul\":5033:5051   */\n  0x44\n  dup2\n  add\n    /* \"#utility.yul\":5026:5060   */\n  dup4\n  swap1\n  mstore\n    /* \"#utility.yul\":4896:4914   */\n  0x64\n  add\n    /* \"lib/openzeppelin-contracts/contracts/token/ERC20/ERC20.sol\":6843:6893  ERC20InsufficientBalance(from, fromBalance, value) */\n  tag_21\n    /* \"#utility.yul\":4721:5066   */\n  jump\n    /* \"lib/openzeppelin-contracts/contracts/token/ERC20/ERC20.sol\":6792:6909  if (fromBalance < value) {... */\ntag_30:\n  sub(shl(0xa0, 0x01), 0x01)\n    /* \"lib/openzeppelin-contracts/contracts/token/ERC20/ERC20.sol\":7032:7047  _balances[from] */\n  dup5\n  and\n    /* \"lib/openzeppelin-contracts/contracts/token/ERC20/ERC20.sol\":7032:7041  _balances */\n  0x00\n    /* \"lib/openzeppelin-contracts/contracts/token/ERC20/ERC20.sol\":7032:7047  _balances[from] */\n  swap1\n  dup2\n  mstore\n  0x20\n  dup2\n  swap1\n  mstore\n  0x40\n  swap1\n  keccak256\n    /* \"lib/openzeppelin-contracts/contracts/token/ERC20/ERC20.sol\":7050:7069  fromBalance - value */\n  swap1\n  dup3\n  swap1\n  sub\n    /* \"lib/openzeppelin-contracts/contracts/token/ERC20/ERC20.sol\":7032:7069  _balances[from] = fromBalance - value */\n  swap1\n  sstore\n    /* \"lib/openzeppelin-contracts/contracts/token/ERC20/ERC20.sol\":6544:7096  if (from == address(0)) {... */\ntag_29:\n  sub(shl(0xa0, 0x01), 0x01)\n    /* \"lib/openzeppelin-contracts/contracts/token/ERC20/ERC20.sol\":7112:7128  to == address(0) */\n  dup3\n  and\n    /* \"lib/openzeppelin-contracts/contracts/token/ERC20/ERC20.sol\":7108:7543  if (to == address(0)) {... */\n  tag_33\n  jumpi\n    /* \"lib/openzeppelin-contracts/contracts/token/ERC20/ERC20.sol\":7278:7290  _totalSupply */\n  0x02\n    /* \"lib/openzeppelin-contracts/contracts/token/ERC20/ERC20.sol\":7278:7299  _totalSupply -= value */\n  dup1\n  sload\n  dup3\n  swap1\n  sub\n  swap1\n  sstore\n    /* \"lib/openzeppelin-contracts/contracts/token/ERC20/ERC20.sol\":7108:7543  if (to == address(0)) {... */\n  jump(tag_34)\ntag_33:\n  sub(shl(0xa0, 0x01), 0x01)\n    /* \"lib/openzeppelin-contracts/contracts/token/ERC20/ERC20.sol\":7494:7507  _balances[to] */\n  dup3\n  and\n    /* \"lib/openzeppelin-contracts/contracts/token/ERC20/ERC20.sol\":7494:7503  _balances */\n  0x00\n    /* \"lib/openzeppelin-contracts/contracts/token/ERC20/ERC20.sol\":7494:7507  _balances[to] */\n  swap1\n  dup2\n  mstore\n  0x20\n  dup2\n  swap1\n  mstore\n  0x40\n  swap1\n  keccak256\n    /* \"lib/openzeppelin-contracts/contracts/token/ERC20/ERC20.sol\":7494:7516  _balances[to] += value */\n  dup1\n  sload\n  dup3\n  add\n  swap1\n  sstore\n    /* \"lib/openzeppelin-contracts/contracts/token/ERC20/ERC20.sol\":7108:7543  if (to == address(0)) {... */\ntag_34:\n    /* \"lib/openzeppelin-contracts/contracts/token/ERC20/ERC20.sol\":7575:7577  to */\n  dup2\n  sub(shl(0xa0, 0x01), 0x01)\n    /* \"lib/openzeppelin-contracts/contracts/token/ERC20/ERC20.sol\":7560:7585  Transfer(from, to, value) */\n  and\n    /* \"lib/openzeppelin-contracts/contracts/token/ERC20/ERC20.sol\":7569:7573  from */\n  dup4\n  sub(shl(0xa0, 0x01), 0x01)\n    /* \"lib/openzeppelin-contracts/contracts/token/ERC20/ERC20.sol\":7560:7585  Transfer(from, to, value) */\n  and\n  0xddf252ad1be2c89b69c2b068fc378daa952ba7f163c4a11628f55a4df523b3ef\n    /* \"lib/openzeppelin-contracts/contracts/token/ERC20/ERC20.sol\":7579:7584  value */\n  dup4\n    /* \"lib/openzeppelin-contracts/contracts/token/ERC20/ERC20.sol\":7560:7585  Transfer(from, to, value) */\n  mload(0x40)\n  tag_35\n  swap2\n    /* \"#utility.yul\":5217:5242   */\n  dup2\n  mstore\n    /* \"#utility.yul\":5205:5207   */\n  0x20\n    /* \"#utility.yul\":5190:5208   */\n  add\n  swap1\n    /* \"#utility.yul\":5071:5248   */\n  jump\n    /* \"lib/openzeppelin-contracts/contracts/token/ERC20/ERC20.sol\":7560:7585  Transfer(from, to, value) */\ntag_35:\n  mload(0x40)\n  dup1\n  swap2\n  sub\n  swap1\n  log3\n    /* \"lib/openzeppelin-contracts/contracts/token/ERC20/ERC20.sol\":6458:7593  function _update(address from, address to, uint256 value) internal virtual {... */\n  pop\n  pop\n  pop\n  jump\t// out\n    /* \"#utility.yul\":14:141   */\ntag_37:\n    /* \"#utility.yul\":75:85   */\n  0x4e487b71\n    /* \"#utility.yul\":70:73   */\n  0xe0\n    /* \"#utility.yul\":66:86   */\n  shl\n    /* \"#utility.yul\":63:64   */\n  0x00\n    /* \"#utility.yul\":56:87   */\n  mstore\n    /* \"#utility.yul\":106:110   */\n  0x41\n    /* \"#utility.yul\":103:104   */\n  0x04\n    /* \"#utility.yul\":96:111   */\n  mstore\n    /* \"#utility.yul\":130:134   */\n  0x24\n    /* \"#utility.yul\":127:128   */\n  0x00\n    /* \"#utility.yul\":120:135   */\n  revert\n    /* \"#utility.yul\":146:526   */\ntag_38:\n    /* \"#utility.yul\":225:226   */\n  0x01\n    /* \"#utility.yul\":221:233   */\n  dup2\n  dup2\n  shr\n  swap1\n    /* \"#utility.yul\":268:280   */\n  dup3\n  and\n  dup1\n    /* \"#utility.yul\":289:350   */\n  tag_48\n  jumpi\n    /* \"#utility.yul\":343:347   */\n  0x7f\n    /* \"#utility.yul\":335:341   */\n  dup3\n    /* \"#utility.yul\":331:348   */\n  and\n    /* \"#utility.yul\":321:348   */\n  swap2\n  pop\n    /* \"#utility.yul\":289:350   */\ntag_48:\n    /* \"#utility.yul\":396:398   */\n  0x20\n    /* \"#utility.yul\":388:394   */\n  dup3\n    /* \"#utility.yul\":385:399   */\n  lt\n    /* \"#utility.yul\":365:383   */\n  dup2\n    /* \"#utility.yul\":362:400   */\n  sub\n    /* \"#utility.yul\":359:520   */\n  tag_49\n  jumpi\n    /* \"#utility.yul\":442:452   */\n  0x4e487b71\n    /* \"#utility.yul\":437:440   */\n  0xe0\n    /* \"#utility.yul\":433:453   */\n  shl\n    /* \"#utility.yul\":430:431   */\n  0x00\n    /* \"#utility.yul\":423:454   */\n  mstore\n    /* \"#utility.yul\":477:481   */\n  0x22\n    /* \"#utility.yul\":474:475   */\n  0x04\n    /* \"#utility.yul\":467:482   */\n  mstore\n    /* \"#utility.yul\":505:509   */\n  0x24\n    /* \"#utility.yul\":502:503   */\n  0x00\n    /* \"#utility.yul\":495:510   */\n  revert\n    /* \"#utility.yul\":359:520   */\ntag_49:\n  pop\n    /* \"#utility.yul\":146:526   */\n  swap2\n  swap1\n  pop\n  jump\t// out\n    /* \"#utility.yul\":657:1175   */\ntag_40:\n    /* \"#utility.yul\":759:761   */\n  0x1f\n    /* \"#utility.yul\":754:757   */\n  dup3\n    /* \"#utility.yul\":751:762   */\n  gt\n    /* \"#utility.yul\":748:1169   */\n  iszero\n  tag_52\n  jumpi\n    /* \"#utility.yul\":795:800   */\n  dup1\n    /* \"#utility.yul\":792:793   */\n  0x00\n    /* \"#utility.yul\":785:801   */\n  mstore\n    /* \"#utility.yul\":839:843   */\n  0x20\n    /* \"#utility.yul\":836:837   */\n  0x00\n    /* \"#utility.yul\":826:844   */\n  keccak256\n    /* \"#utility.yul\":909:911   */\n  0x1f\n    /* \"#utility.yul\":897:907   */\n  dup5\n    /* \"#utility.yul\":893:912   */\n  add\n    /* \"#utility.yul\":890:891   */\n  0x05\n    /* \"#utility.yul\":886:913   */\n  shr\n    /* \"#utility.yul\":880:884   */\n  dup2\n    /* \"#utility.yul\":876:914   */\n  add\n    /* \"#utility.yul\":945:949   */\n  0x20\n    /* \"#utility.yul\":933:943   */\n  dup6\n    /* \"#utility.yul\":930:950   */\n  lt\n    /* \"#utility.yul\":927:974   */\n  iszero\n  tag_53\n  jumpi\n  pop\n    /* \"#utility.yul\":968:972   */\n  dup1\n    /* \"#utility.yul\":927:974   */\ntag_53:\n    /* \"#utility.yul\":1023:1025   */\n  0x1f\n    /* \"#utility.yul\":1018:1021   */\n  dup5\n    /* \"#utility.yul\":1014:1026   */\n  add\n    /* \"#utility.yul\":1011:1012   */\n  0x05\n    /* \"#utility.yul\":1007:1027   */\n  shr\n    /* \"#utility.yul\":1001:1005   */\n  dup3\n    /* \"#utility.yul\":997:1028   */\n  add\n    /* \"#utility.yul\":987:1028   */\n  swap2\n  pop\n    /* \"#utility.yul\":1078:1159   */\ntag_54:\n    /* \"#utility.yul\":1096:1098   */\n  dup2\n    /* \"#utility.yul\":1089:1094   */\n  dup2\n    /* \"#utility.yul\":1086:1099   */\n  lt\n    /* \"#utility.yul\":1078:1159   */\n  iszero\n  tag_56\n  jumpi\n    /* \"#utility.yul\":1155:1156   */\n  0x00\n    /* \"#utility.yul\":1141:1157   */\n  dup2\n  sstore\n    /* \"#utility.yul\":1122:1123   */\n  0x01\n    /* \"#utility.yul\":1111:1124   */\n  add\n    /* \"#utility.yul\":1078:1159   */\n  jump(tag_54)\ntag_56:\n    /* \"#utility.yul\":1082:1085   */\n  pop\n  pop\n    /* \"#utility.yul\":748:1169   */\ntag_52:\n    /* \"#utility.yul\":657:1175   */\n  pop\n  pop\n  pop\n  jump\t// out\n    /* \"#utility.yul\":1351:2696   */\ntag_6:\n    /* \"#utility.yul\":1471:1481   */\n  dup2\n  mload\n  sub(shl(0x40, 0x01), 0x01)\n    /* \"#utility.yul\":1493:1523   */\n  dup2\n  gt\n    /* \"#utility.yul\":1490:1546   */\n  iszero\n  tag_60\n  jumpi\n    /* \"#utility.yul\":1526:1544   */\n  tag_60\n  tag_37\n  jump\t// in\ntag_60:\n    /* \"#utility.yul\":1555:1652   */\n  tag_61\n    /* \"#utility.yul\":1645:1651   */\n  dup2\n    /* \"#utility.yul\":1605:1643   */\n  tag_62\n    /* \"#utility.yul\":1637:1641   */\n  dup5\n    /* \"#utility.yul\":1631:1642   */\n  sload\n    /* \"#utility.yul\":1605:1643   */\n  tag_38\n  jump\t// in\ntag_62:\n    /* \"#utility.yul\":1599:1603   */\n  dup5\n    /* \"#utility.yul\":1555:1652   */\n  tag_40\n  jump\t// in\ntag_61:\n    /* \"#utility.yul\":1707:1711   */\n  0x20\n  dup1\n    /* \"#utility.yul\":1764:1766   */\n  0x1f\n    /* \"#utility.yul\":1753:1767   */\n  dup4\n  gt\n    /* \"#utility.yul\":1781:1782   */\n  0x01\n    /* \"#utility.yul\":1776:2439   */\n  dup2\n  eq\n  tag_64\n  jumpi\n    /* \"#utility.yul\":2483:2484   */\n  0x00\n    /* \"#utility.yul\":2500:2506   */\n  dup5\n    /* \"#utility.yul\":2497:2586   */\n  iszero\n  tag_65\n  jumpi\n  pop\n    /* \"#utility.yul\":2552:2571   */\n  dup6\n  dup4\n  add\n    /* \"#utility.yul\":2546:2572   */\n  mload\n    /* \"#utility.yul\":2497:2586   */\ntag_65:\n  not(0x00)\n    /* \"#utility.yul\":1308:1309   */\n  0x03\n    /* \"#utility.yul\":1304:1315   */\n  dup7\n  swap1\n  shl\n    /* \"#utility.yul\":1300:1324   */\n  shr\n    /* \"#utility.yul\":1296:1325   */\n  not\n    /* \"#utility.yul\":1286:1326   */\n  and\n    /* \"#utility.yul\":1332:1333   */\n  0x01\n    /* \"#utility.yul\":1328:1339   */\n  dup6\n  swap1\n  shl\n    /* \"#utility.yul\":1283:1340   */\n  or\n    /* \"#utility.yul\":2599:2680   */\n  dup6\n  sstore\n    /* \"#utility.yul\":1746:2690   */\n  jump(tag_63)\n    /* \"#utility.yul\":1776:2439   */\ntag_64:\n    /* \"#utility.yul\":604:605   */\n  0x00\n    /* \"#utility.yul\":597:611   */\n  dup6\n  dup2\n  mstore\n    /* \"#utility.yul\":641:645   */\n  0x20\n    /* \"#utility.yul\":628:646   */\n  dup2\n  keccak256\n  not(0x1f)\n    /* \"#utility.yul\":1812:1832   */\n  dup7\n  and\n  swap2\n    /* \"#utility.yul\":1930:2166   */\ntag_68:\n    /* \"#utility.yul\":1944:1951   */\n  dup3\n    /* \"#utility.yul\":1941:1942   */\n  dup2\n    /* \"#utility.yul\":1938:1952   */\n  lt\n    /* \"#utility.yul\":1930:2166   */\n  iszero\n  tag_70\n  jumpi\n    /* \"#utility.yul\":2033:2052   */\n  dup9\n  dup7\n  add\n    /* \"#utility.yul\":2027:2053   */\n  mload\n    /* \"#utility.yul\":2012:2054   */\n  dup3\n  sstore\n    /* \"#utility.yul\":2125:2152   */\n  swap5\n  dup5\n  add\n  swap5\n    /* \"#utility.yul\":2093:2094   */\n  0x01\n    /* \"#utility.yul\":2081:2095   */\n  swap1\n  swap2\n  add\n  swap1\n    /* \"#utility.yul\":1960:1979   */\n  dup5\n  add\n    /* \"#utility.yul\":1930:2166   */\n  jump(tag_68)\ntag_70:\n    /* \"#utility.yul\":1934:1937   */\n  pop\n    /* \"#utility.yul\":2194:2200   */\n  dup6\n    /* \"#utility.yul\":2185:2192   */\n  dup3\n    /* \"#utility.yul\":2182:2201   */\n  lt\n    /* \"#utility.yul\":2179:2380   */\n  iszero\n  tag_71\n  jumpi\n    /* \"#utility.yul\":2255:2274   */\n  dup8\n  dup6\n  add\n    /* \"#utility.yul\":2249:2275   */\n  mload\n  not(0x00)\n    /* \"#utility.yul\":2338:2339   */\n  0x03\n    /* \"#utility.yul\":2334:2348   */\n  dup9\n  swap1\n  shl\n    /* \"#utility.yul\":2350:2353   */\n  0xf8\n    /* \"#utility.yul\":2330:2354   */\n  and\n    /* \"#utility.yul\":2326:2363   */\n  shr\n    /* \"#utility.yul\":2322:2364   */\n  not\n    /* \"#utility.yul\":2307:2365   */\n  and\n    /* \"#utility.yul\":2292:2366   */\n  dup2\n  sstore\n    /* \"#utility.yul\":2179:2380   */\ntag_71:\n  pop\n  pop\n    /* \"#utility.yul\":2426:2427   */\n  0x01\n    /* \"#utility.yul\":2417:2423   */\n  dup5\n    /* \"#utility.yul\":2414:2415   */\n  0x01\n    /* \"#utility.yul\":2410:2424   */\n  shl\n    /* \"#utility.yul\":2406:2428   */\n  add\n    /* \"#utility.yul\":2400:2404   */\n  dup6\n    /* \"#utility.yul\":2393:2429   */\n  sstore\n    /* \"#utility.yul\":1746:2690   */\ntag_63:\n  pop\n  pop\n  pop\n  pop\n    /* \"#utility.yul\":1351:2696   */\n  pop\n  pop\n  jump\t// out\n    /* \"#utility.yul\":2701:2828   */\ntag_42:\n    /* \"#utility.yul\":2762:2772   */\n  0x4e487b71\n    /* \"#utility.yul\":2757:2760   */\n  0xe0\n    /* \"#utility.yul\":2753:2773   */\n  shl\n    /* \"#utility.yul\":2750:2751   */\n  0x00\n    /* \"#utility.yul\":2743:2774   */\n  mstore\n    /* \"#utility.yul\":2793:2797   */\n  0x11\n    /* \"#utility.yul\":2790:2791   */\n  0x04\n    /* \"#utility.yul\":2783:2798   */\n  mstore\n    /* \"#utility.yul\":2817:2821   */\n  0x24\n    /* \"#utility.yul\":2814:2815   */\n  0x00\n    /* \"#utility.yul\":2807:2822   */\n  revert\n    /* \"#utility.yul\":2833:3249   */\ntag_43:\n    /* \"#utility.yul\":2922:2923   */\n  0x01\n    /* \"#utility.yul\":2959:2964   */\n  dup2\n    /* \"#utility.yul\":2922:2923   */\n  dup2\n    /* \"#utility.yul\":2973:3243   */\ntag_74:\n    /* \"#utility.yul\":2994:3001   */\n  dup1\n    /* \"#utility.yul\":2984:2992   */\n  dup6\n    /* \"#utility.yul\":2981:3002   */\n  gt\n    /* \"#utility.yul\":2973:3243   */\n  iszero\n  tag_76\n  jumpi\n    /* \"#utility.yul\":3053:3057   */\n  dup2\n    /* \"#utility.yul\":3049:3050   */\n  0x00\n    /* \"#utility.yul\":3045:3051   */\n  not\n    /* \"#utility.yul\":3041:3058   */\n  div\n    /* \"#utility.yul\":3035:3039   */\n  dup3\n    /* \"#utility.yul\":3032:3059   */\n  gt\n    /* \"#utility.yul\":3029:3082   */\n  iszero\n  tag_78\n  jumpi\n    /* \"#utility.yul\":3062:3080   */\n  tag_78\n  tag_42\n  jump\t// in\ntag_78:\n    /* \"#utility.yul\":3112:3119   */\n  dup1\n    /* \"#utility.yul\":3102:3110   */\n  dup6\n    /* \"#utility.yul\":3098:3120   */\n  and\n    /* \"#utility.yul\":3095:3150   */\n  iszero\n  tag_79\n  jumpi\n    /* \"#utility.yul\":3132:3148   */\n  swap2\n  dup2\n  mul\n  swap2\n    /* \"#utility.yul\":3095:3150   */\ntag_79:\n    /* \"#utility.yul\":3211:3233   */\n  swap4\n  dup5\n  shr\n  swap4\n    /* \"#utility.yul\":3171:3186   */\n  swap1\n  dup1\n  mul\n  swap1\n    /* \"#utility.yul\":2973:3243   */\n  jump(tag_74)\ntag_76:\n    /* \"#utility.yul\":2977:2980   */\n  pop\n    /* \"#utility.yul\":2833:3249   */\n  swap3\n  pop\n  swap3\n  swap1\n  pop\n  jump\t// out\n    /* \"#utility.yul\":3254:4060   */\ntag_44:\n    /* \"#utility.yul\":3303:3308   */\n  0x00\n    /* \"#utility.yul\":3333:3341   */\n  dup3\n    /* \"#utility.yul\":3323:3403   */\n  tag_81\n  jumpi\n  pop\n    /* \"#utility.yul\":3374:3375   */\n  0x01\n    /* \"#utility.yul\":3388:3393   */\n  jump(tag_80)\n    /* \"#utility.yul\":3323:3403   */\ntag_81:\n    /* \"#utility.yul\":3422:3426   */\n  dup2\n    /* \"#utility.yul\":3412:3488   */\n  tag_82\n  jumpi\n  pop\n    /* \"#utility.yul\":3459:3460   */\n  0x00\n    /* \"#utility.yul\":3473:3478   */\n  jump(tag_80)\n    /* \"#utility.yul\":3412:3488   */\ntag_82:\n    /* \"#utility.yul\":3504:3508   */\n  dup2\n    /* \"#utility.yul\":3522:3523   */\n  0x01\n    /* \"#utility.yul\":3517:3576   */\n  dup2\n  eq\n  tag_84\n  jumpi\n    /* \"#utility.yul\":3590:3591   */\n  0x02\n    /* \"#utility.yul\":3585:3715   */\n  dup2\n  eq\n  tag_85\n  jumpi\n    /* \"#utility.yul\":3497:3715   */\n  jump(tag_83)\n    /* \"#utility.yul\":3517:3576   */\ntag_84:\n    /* \"#utility.yul\":3547:3548   */\n  0x01\n    /* \"#utility.yul\":3538:3548   */\n  swap2\n  pop\n    /* \"#utility.yul\":3561:3566   */\n  pop\n  jump(tag_80)\n    /* \"#utility.yul\":3585:3715   */\ntag_85:\n    /* \"#utility.yul\":3622:3625   */\n  0xff\n    /* \"#utility.yul\":3612:3620   */\n  dup5\n    /* \"#utility.yul\":3609:3626   */\n  gt\n    /* \"#utility.yul\":3606:3649   */\n  iszero\n  tag_87\n  jumpi\n    /* \"#utility.yul\":3629:3647   */\n  tag_87\n  tag_42\n  jump\t// in\ntag_87:\n  pop\n  pop\n    /* \"#utility.yul\":3685:3686   */\n  0x01\n    /* \"#utility.yul\":3671:3687   */\n  dup3\n  shl\n    /* \"#utility.yul\":3700:3705   */\n  jump(tag_80)\n    /* \"#utility.yul\":3497:3715   */\ntag_83:\n  pop\n    /* \"#utility.yul\":3799:3801   */\n  0x20\n    /* \"#utility.yul\":3789:3797   */\n  dup4\n    /* \"#utility.yul\":3786:3802   */\n  lt\n    /* \"#utility.yul\":3780:3783   */\n  0x0133\n    /* \"#utility.yul\":3774:3778   */\n  dup4\n    /* \"#utility.yul\":3771:3784   */\n  lt\n    /* \"#utility.yul\":3767:3803   */\n  and\n    /* \"#utility.yul\":3761:3763   */\n  0x4e\n    /* \"#utility.yul\":3751:3759   */\n  dup5\n    /* \"#utility.yul\":3748:3764   */\n  lt\n    /* \"#utility.yul\":3743:3745   */\n  0x0b\n    /* \"#utility.yul\":3737:3741   */\n  dup5\n    /* \"#utility.yul\":3734:3746   */\n  lt\n    /* \"#utility.yul\":3730:3765   */\n  and\n    /* \"#utility.yul\":3727:3804   */\n  or\n    /* \"#utility.yul\":3724:3883   */\n  iszero\n  tag_88\n  jumpi\n  pop\n    /* \"#utility.yul\":3836:3855   */\n  dup2\n  dup2\n  exp\n    /* \"#utility.yul\":3868:3873   */\n  jump(tag_80)\n    /* \"#utility.yul\":3724:3883   */\ntag_88:\n    /* \"#utility.yul\":3915:3949   */\n  tag_89\n    /* \"#utility.yul\":3940:3948   */\n  dup4\n    /* \"#utility.yul\":3934:3938   */\n  dup4\n    /* \"#utility.yul\":3915:3949   */\n  tag_43\n  jump\t// in\ntag_89:\n    /* \"#utility.yul\":3985:3991   */\n  dup1\n    /* \"#utility.yul\":3981:3982   */\n  0x00\n    /* \"#utility.yul\":3977:3983   */\n  not\n    /* \"#utility.yul\":3973:3992   */\n  div\n    /* \"#utility.yul\":3964:3971   */\n  dup3\n    /* \"#utility.yul\":3961:3993   */\n  gt\n    /* \"#utility.yul\":3958:4016   */\n  iszero\n  tag_91\n  jumpi\n    /* \"#utility.yul\":3996:4014   */\n  tag_91\n  tag_42\n  jump\t// in\ntag_91:\n    /* \"#utility.yul\":4034:4054   */\n  mul\n  swap1\n  pop\n    /* \"#utility.yul\":3254:4060   */\ntag_80:\n  swap3\n  swap2\n  pop\n  pop\n  jump\t// out\n    /* \"#utility.yul\":4065:4205   */\ntag_13:\n    /* \"#utility.yul\":4123:4128   */\n  0x00\n    /* \"#utility.yul\":4152:4199   */\n  tag_93\n    /* \"#utility.yul\":4193:4197   */\n  0xff\n    /* \"#utility.yul\":4183:4191   */\n  dup5\n    /* \"#utility.yul\":4179:4198   */\n  and\n    /* \"#utility.yul\":4173:4177   */\n  dup4\n    /* \"#utility.yul\":4152:4199   */\n  tag_44\n  jump\t// in\ntag_93:\n    /* \"#utility.yul\":4143:4199   */\n  swap4\n    /* \"#utility.yul\":4065:4205   */\n  swap3\n  pop\n  pop\n  pop\n  jump\t// out\n    /* \"#utility.yul\":4210:4378   */\ntag_15:\n    /* \"#utility.yul\":4283:4292   */\n  dup1\n  dup3\n  mul\n    /* \"#utility.yul\":4314:4323   */\n  dup2\n  iszero\n    /* \"#utility.yul\":4331:4346   */\n  dup3\n  dup3\n  div\n    /* \"#utility.yul\":4325:4347   */\n  dup5\n  eq\n    /* \"#utility.yul\":4311:4348   */\n  or\n    /* \"#utility.yul\":4301:4372   */\n  tag_80\n  jumpi\n    /* \"#utility.yul\":4352:4370   */\n  tag_80\n  tag_42\n  jump\t// in\n    /* \"#utility.yul\":4591:4716   */\ntag_28:\n    /* \"#utility.yul\":4656:4665   */\n  dup1\n  dup3\n  add\n    /* \"#utility.yul\":4677:4687   */\n  dup1\n  dup3\n  gt\n    /* \"#utility.yul\":4674:4710   */\n  iszero\n  tag_80\n  jumpi\n    /* \"#utility.yul\":4690:4708   */\n  tag_80\n  tag_42\n  jump\t// in\n    /* \"#utility.yul\":5071:5248   */\ntag_45:\n    /* \"src/MyERC20.sol\":226:1022  contract MyERC20 is ERC20 {... */\n  dataSize(sub_0)\n  dup1\n  dataOffset(sub_0)\n  0x00\n  codecopy\n  0x00\n  return\nstop\n\nsub_0: assembly {\n        /* \"src/MyERC20.sol\":226:1022  contract MyERC20 is ERC20 {... */\n      mstore(0x40, 0x80)\n      callvalue\n      dup1\n      iszero\n      tag_1\n      jumpi\n      0x00\n      dup1\n      revert\n    tag_1:\n      pop\n      jumpi(tag_2, lt(calldatasize, 0x04))\n      shr(0xe0, calldataload(0x00))\n      dup1\n      0x313ce567\n      gt\n      tag_13\n      jumpi\n      dup1\n      0x313ce567\n      eq\n      tag_8\n      jumpi\n      dup1\n      0x70a08231\n      eq\n      tag_9\n      jumpi\n      dup1\n      0x95d89b41\n      eq\n      tag_10\n      jumpi\n      dup1\n      0xa9059cbb\n      eq\n      tag_11\n      jumpi\n      dup1\n      0xdd62ed3e\n      eq\n      tag_12\n      jumpi\n      0x00\n      dup1\n      revert\n    tag_13:\n      dup1\n      0x06fdde03\n      eq\n      tag_3\n      jumpi\n      dup1\n      0x095ea7b3\n      eq\n      tag_4\n      jumpi\n      dup1\n      0x0d0b17ea\n      eq\n      tag_5\n      jumpi\n      dup1\n      0x18160ddd\n      eq\n      tag_6\n      jumpi\n      dup1\n      0x23b872dd\n      eq\n      tag_7\n      jumpi\n    tag_2:\n      0x00\n      dup1\n      revert\n        /* \"lib/openzeppelin-contracts/contracts/token/ERC20/ERC20.sol\":2131:2222  function name() public view virtual returns (string memory) {... */\n    tag_3:\n      tag_14\n      tag_15\n      jump\t// in\n    tag_14:\n      mload(0x40)\n      tag_16\n      swap2\n      swap1\n      tag_17\n      jump\t// in\n    tag_16:\n      mload(0x40)\n      dup1\n      swap2\n      sub\n      swap1\n      return\n        /* \"lib/openzeppelin-contracts/contracts/token/ERC20/ERC20.sol\":4424:4614  function approve(address spender, uint256 value) public virtual returns (bool) {... */\n    tag_4:\n      tag_18\n      tag_19\n      calldatasize\n      0x04\n      tag_20\n      jump\t// in\n    tag_19:\n      tag_21\n      jump\t// in\n    tag_18:\n      mload(0x40)\n        /* \"#utility.yul\":1169:1183   */\n      swap1\n      iszero\n        /* \"#utility.yul\":1162:1184   */\n      iszero\n        /* \"#utility.yul\":1144:1185   */\n      dup2\n      mstore\n        /* \"#utility.yul\":1132:1134   */\n      0x20\n        /* \"#utility.yul\":1117:1135   */\n      add\n        /* \"lib/openzeppelin-contracts/contracts/token/ERC20/ERC20.sol\":4424:4614  function approve(address spender, uint256 value) public virtual returns (bool) {... */\n      tag_16\n        /* \"#utility.yul\":1004:1191   */\n      jump\n        /* \"src/MyERC20.sol\":820:1019  function transferWithCallback(address to,uint256 amount,uint256 id) external{... */\n    tag_5:\n      tag_24\n      tag_25\n      calldatasize\n      0x04\n      tag_26\n      jump\t// in\n    tag_25:\n      tag_27\n      jump\t// in\n    tag_24:\n      stop\n        /* \"lib/openzeppelin-contracts/contracts/token/ERC20/ERC20.sol\":3233:3332  function totalSupply() public view virtual returns (uint256) {... */\n    tag_6:\n        /* \"lib/openzeppelin-contracts/contracts/token/ERC20/ERC20.sol\":3312:3324  _totalSupply */\n      sload(0x02)\n        /* \"lib/openzeppelin-contracts/contracts/token/ERC20/ERC20.sol\":3233:3332  function totalSupply() public view virtual returns (uint256) {... */\n    tag_28:\n      mload(0x40)\n        /* \"#utility.yul\":1669:1694   */\n      swap1\n      dup2\n      mstore\n        /* \"#utility.yul\":1657:1659   */\n      0x20\n        /* \"#utility.yul\":1642:1660   */\n      add\n        /* \"lib/openzeppelin-contracts/contracts/token/ERC20/ERC20.sol\":3233:3332  function totalSupply() public view virtual returns (uint256) {... */\n      tag_16\n        /* \"#utility.yul\":1523:1700   */\n      jump\n        /* \"src/MyERC20.sol\":560:810  function transferFrom(address from, address to, uint256 value) public override returns (bool) {... */\n    tag_7:\n      tag_18\n      tag_33\n      calldatasize\n      0x04\n      tag_34\n      jump\t// in\n    tag_33:\n      tag_35\n      jump\t// in\n        /* \"lib/openzeppelin-contracts/contracts/token/ERC20/ERC20.sol\":3084:3168  function decimals() public view virtual returns (uint8) {... */\n    tag_8:\n      mload(0x40)\n        /* \"lib/openzeppelin-contracts/contracts/token/ERC20/ERC20.sol\":3158:3160  18 */\n      0x12\n        /* \"#utility.yul\":2180:2216   */\n      dup2\n      mstore\n        /* \"#utility.yul\":2168:2170   */\n      0x20\n        /* \"#utility.yul\":2153:2171   */\n      add\n        /* \"lib/openzeppelin-contracts/contracts/token/ERC20/ERC20.sol\":3084:3168  function decimals() public view virtual returns (uint8) {... */\n      tag_16\n        /* \"#utility.yul\":2038:2222   */\n      jump\n        /* \"lib/openzeppelin-contracts/contracts/token/ERC20/ERC20.sol\":3395:3513  function balanceOf(address account) public view virtual returns (uint256) {... */\n    tag_9:\n      tag_28\n      tag_42\n      calldatasize\n      0x04\n      tag_43\n      jump\t// in\n    tag_42:\n      sub(shl(0xa0, 0x01), 0x01)\n        /* \"lib/openzeppelin-contracts/contracts/token/ERC20/ERC20.sol\":3487:3505  _balances[account] */\n      and\n        /* \"lib/openzeppelin-contracts/contracts/token/ERC20/ERC20.sol\":3460:3467  uint256 */\n      0x00\n        /* \"lib/openzeppelin-contracts/contracts/token/ERC20/ERC20.sol\":3487:3505  _balances[account] */\n      swap1\n      dup2\n      mstore\n      0x20\n      dup2\n      swap1\n      mstore\n      0x40\n      swap1\n      keccak256\n      sload\n      swap1\n        /* \"lib/openzeppelin-contracts/contracts/token/ERC20/ERC20.sol\":3395:3513  function balanceOf(address account) public view virtual returns (uint256) {... */\n      jump\n        /* \"lib/openzeppelin-contracts/contracts/token/ERC20/ERC20.sol\":2341:2436  function symbol() public view virtual returns (string memory) {... */\n    tag_10:\n      tag_14\n      tag_47\n      jump\t// in\n        /* \"lib/openzeppelin-contracts/contracts/token/ERC20/ERC20.sol\":3718:3900  function transfer(address to, uint256 value) public virtual returns (bool) {... */\n    tag_11:\n      tag_18\n      tag_50\n      calldatasize\n      0x04\n      tag_20\n      jump\t// in\n    tag_50:\n      tag_51\n      jump\t// in\n        /* \"lib/openzeppelin-contracts/contracts/token/ERC20/ERC20.sol\":3963:4105  function allowance(address owner, address spender) public view virtual returns (uint256) {... */\n    tag_12:\n      tag_28\n      tag_54\n      calldatasize\n      0x04\n      tag_55\n      jump\t// in\n    tag_54:\n      sub(shl(0xa0, 0x01), 0x01)\n        /* \"lib/openzeppelin-contracts/contracts/token/ERC20/ERC20.sol\":4070:4088  _allowances[owner] */\n      swap2\n      dup3\n      and\n        /* \"lib/openzeppelin-contracts/contracts/token/ERC20/ERC20.sol\":4043:4050  uint256 */\n      0x00\n        /* \"lib/openzeppelin-contracts/contracts/token/ERC20/ERC20.sol\":4070:4088  _allowances[owner] */\n      swap1\n      dup2\n      mstore\n        /* \"lib/openzeppelin-contracts/contracts/token/ERC20/ERC20.sol\":4070:4081  _allowances */\n      0x01\n        /* \"lib/openzeppelin-contracts/contracts/token/ERC20/ERC20.sol\":4070:4088  _allowances[owner] */\n      0x20\n      swap1\n      dup2\n      mstore\n      0x40\n      dup1\n      dup4\n      keccak256\n        /* \"lib/openzeppelin-contracts/contracts/token/ERC20/ERC20.sol\":4070:4097  _allowances[owner][spender] */\n      swap4\n      swap1\n      swap5\n      and\n      dup3\n      mstore\n      swap2\n      swap1\n      swap2\n      mstore\n      keccak256\n      sload\n      swap1\n        /* \"lib/openzeppelin-contracts/contracts/token/ERC20/ERC20.sol\":3963:4105  function allowance(address owner, address spender) public view virtual returns (uint256) {... */\n      jump\n        /* \"lib/openzeppelin-contracts/contracts/token/ERC20/ERC20.sol\":2131:2222  function name() public view virtual returns (string memory) {... */\n    tag_15:\n        /* \"lib/openzeppelin-contracts/contracts/token/ERC20/ERC20.sol\":2176:2189  string memory */\n      0x60\n        /* \"lib/openzeppelin-contracts/contracts/token/ERC20/ERC20.sol\":2209:2214  _name */\n      0x03\n        /* \"lib/openzeppelin-contracts/contracts/token/ERC20/ERC20.sol\":2202:2214  return _name */\n      dup1\n      sload\n      tag_59\n      swap1\n      tag_60\n      jump\t// in\n    tag_59:\n      dup1\n      0x1f\n      add\n      0x20\n      dup1\n      swap2\n      div\n      mul\n      0x20\n      add\n      mload(0x40)\n      swap1\n      dup2\n      add\n      0x40\n      mstore\n      dup1\n      swap3\n      swap2\n      swap1\n      dup2\n      dup2\n      mstore\n      0x20\n      add\n      dup3\n      dup1\n      sload\n      tag_61\n      swap1\n      tag_60\n      jump\t// in\n    tag_61:\n      dup1\n      iszero\n      tag_62\n      jumpi\n      dup1\n      0x1f\n      lt\n      tag_63\n      jumpi\n      0x0100\n      dup1\n      dup4\n      sload\n      div\n      mul\n      dup4\n      mstore\n      swap2\n      0x20\n      add\n      swap2\n      jump(tag_62)\n    tag_63:\n      dup3\n      add\n      swap2\n      swap1\n      0x00\n      mstore\n      keccak256(0x00, 0x20)\n      swap1\n    tag_64:\n      dup2\n      sload\n      dup2\n      mstore\n      swap1\n      0x01\n      add\n      swap1\n      0x20\n      add\n      dup1\n      dup4\n      gt\n      tag_64\n      jumpi\n      dup3\n      swap1\n      sub\n      0x1f\n      and\n      dup3\n      add\n      swap2\n    tag_62:\n      pop\n      pop\n      pop\n      pop\n      pop\n      swap1\n      pop\n        /* \"lib/openzeppelin-contracts/contracts/token/ERC20/ERC20.sol\":2131:2222  function name() public view virtual returns (string memory) {... */\n      swap1\n      jump\t// out\n        /* \"lib/openzeppelin-contracts/contracts/token/ERC20/ERC20.sol\":4424:4614  function approve(address spender, uint256 value) public virtual returns (bool) {... */\n    tag_21:\n        /* \"lib/openzeppelin-contracts/contracts/token/ERC20/ERC20.sol\":4497:4501  bool */\n      0x00\n        /* \"lib/openzeppelin-contracts/contracts/utils/Context.sol\":752:762  msg.sender */\n      caller\n        /* \"lib/openzeppelin-contracts/contracts/token/ERC20/ERC20.sol\":4553:4584  _approve(owner, spender, value) */\n      tag_68\n        /* \"lib/openzeppelin-contracts/contracts/utils/Context.sol\":752:762  msg.sender */\n      dup2\n        /* \"lib/openzeppelin-contracts/contracts/token/ERC20/ERC20.sol\":4569:4576  spender */\n      dup6\n        /* \"lib/openzeppelin-contracts/contracts/token/ERC20/ERC20.sol\":4578:4583  value */\n      dup6\n        /* \"lib/openzeppelin-contracts/contracts/token/ERC20/ERC20.sol\":4553:4561  _approve */\n      tag_69\n        /* \"lib/openzeppelin-contracts/contracts/token/ERC20/ERC20.sol\":4553:4584  _approve(owner, spender, value) */\n      jump\t// in\n    tag_68:\n        /* \"lib/openzeppelin-contracts/contracts/token/ERC20/ERC20.sol\":4602:4606  true */\n      0x01\n        /* \"lib/openzeppelin-contracts/contracts/token/ERC20/ERC20.sol\":4595:4606  return true */\n      swap2\n      pop\n      pop\n        /* \"lib/openzeppelin-contracts/contracts/token/ERC20/ERC20.sol\":4424:4614  function approve(address spender, uint256 value) public virtual returns (bool) {... */\n    tag_65:\n      swap3\n      swap2\n      pop\n      pop\n      jump\t// out\n        /* \"src/MyERC20.sol\":820:1019  function transferWithCallback(address to,uint256 amount,uint256 id) external{... */\n    tag_27:\n        /* \"src/MyERC20.sol\":907:938  _transfer(msg.sender,to,amount) */\n      tag_71\n        /* \"src/MyERC20.sol\":917:927  msg.sender */\n      caller\n        /* \"src/MyERC20.sol\":928:930  to */\n      dup5\n        /* \"src/MyERC20.sol\":931:937  amount */\n      dup5\n        /* \"src/MyERC20.sol\":907:916  _transfer */\n      tag_72\n        /* \"src/MyERC20.sol\":907:938  _transfer(msg.sender,to,amount) */\n      jump\t// in\n    tag_71:\n        /* \"src/MyERC20.sol\":949:1002  ItokenRecieved(to).tokenRecieve(msg.sender,amount,id) */\n      mload(0x40)\n      shl(0xe5, 0xb8f8bb)\n      dup2\n      mstore\n        /* \"src/MyERC20.sol\":981:991  msg.sender */\n      caller\n        /* \"src/MyERC20.sol\":949:1002  ItokenRecieved(to).tokenRecieve(msg.sender,amount,id) */\n      0x04\n      dup3\n      add\n        /* \"#utility.yul\":3270:3321   */\n      mstore\n        /* \"#utility.yul\":3337:3355   */\n      0x24\n      dup2\n      add\n        /* \"#utility.yul\":3330:3364   */\n      dup4\n      swap1\n      mstore\n        /* \"#utility.yul\":3380:3398   */\n      0x44\n      dup2\n      add\n        /* \"#utility.yul\":3373:3407   */\n      dup3\n      swap1\n      mstore\n      sub(shl(0xa0, 0x01), 0x01)\n        /* \"src/MyERC20.sol\":949:980  ItokenRecieved(to).tokenRecieve */\n      dup5\n      and\n      swap1\n      0x171f1760\n      swap1\n        /* \"#utility.yul\":3243:3261   */\n      0x64\n      add\n        /* \"src/MyERC20.sol\":949:1002  ItokenRecieved(to).tokenRecieve(msg.sender,amount,id) */\n      0x00\n      mload(0x40)\n      dup1\n      dup4\n      sub\n      dup2\n      0x00\n      dup8\n      dup1\n      extcodesize\n      iszero\n      dup1\n      iszero\n      tag_75\n      jumpi\n      0x00\n      dup1\n      revert\n    tag_75:\n      pop\n      gas\n      call\n      iszero\n      dup1\n      iszero\n      tag_77\n      jumpi\n      returndatasize\n      0x00\n      dup1\n      returndatacopy\n      revert(0x00, returndatasize)\n    tag_77:\n      pop\n      pop\n      pop\n      pop\n        /* \"src/MyERC20.sol\":820:1019  function transferWithCallback(address to,uint256 amount,uint256 id) external{... */\n      pop\n      pop\n      pop\n      jump\t// out\n        /* \"src/MyERC20.sol\":560:810  function transferFrom(address from, address to, uint256 value) public override returns (bool) {... */\n    tag_35:\n        /* \"src/MyERC20.sol\":648:652  bool */\n      0x00\n        /* \"lib/openzeppelin-contracts/contracts/utils/Context.sol\":752:762  msg.sender */\n      caller\n        /* \"src/MyERC20.sol\":706:743  _spendAllowance(from, spender, value) */\n      tag_81\n        /* \"src/MyERC20.sol\":722:726  from */\n      dup6\n        /* \"lib/openzeppelin-contracts/contracts/utils/Context.sol\":752:762  msg.sender */\n      dup3\n        /* \"src/MyERC20.sol\":737:742  value */\n      dup6\n        /* \"src/MyERC20.sol\":706:721  _spendAllowance */\n      tag_82\n        /* \"src/MyERC20.sol\":706:743  _spendAllowance(from, spender, value) */\n      jump\t// in\n    tag_81:\n        /* \"src/MyERC20.sol\":754:780  _transfer(from, to, value) */\n      tag_83\n        /* \"src/MyERC20.sol\":764:768  from */\n      dup6\n        /* \"src/MyERC20.sol\":770:772  to */\n      dup6\n        /* \"src/MyERC20.sol\":774:779  value */\n      dup6\n        /* \"src/MyERC20.sol\":754:763  _transfer */\n      tag_72\n        /* \"src/MyERC20.sol\":754:780  _transfer(from, to, value) */\n      jump\t// in\n    tag_83:\n      pop\n        /* \"src/MyERC20.sol\":798:802  true */\n      0x01\n      swap5\n        /* \"src/MyERC20.sol\":560:810  function transferFrom(address from, address to, uint256 value) public override returns (bool) {... */\n      swap4\n      pop\n      pop\n      pop\n      pop\n      jump\t// out\n        /* \"lib/openzeppelin-contracts/contracts/token/ERC20/ERC20.sol\":2341:2436  function symbol() public view virtual returns (string memory) {... */\n    tag_47:\n        /* \"lib/openzeppelin-contracts/contracts/token/ERC20/ERC20.sol\":2388:2401  string memory */\n      0x60\n        /* \"lib/openzeppelin-contracts/contracts/token/ERC20/ERC20.sol\":2421:2428  _symbol */\n      0x04\n        /* \"lib/openzeppelin-contracts/contracts/token/ERC20/ERC20.sol\":2414:2428  return _symbol */\n      dup1\n      sload\n      tag_59\n      swap1\n      tag_60\n      jump\t// in\n        /* \"lib/openzeppelin-contracts/contracts/token/ERC20/ERC20.sol\":3718:3900  function transfer(address to, uint256 value) public virtual returns (bool) {... */\n    tag_51:\n        /* \"lib/openzeppelin-contracts/contracts/token/ERC20/ERC20.sol\":3787:3791  bool */\n      0x00\n        /* \"lib/openzeppelin-contracts/contracts/utils/Context.sol\":752:762  msg.sender */\n      caller\n        /* \"lib/openzeppelin-contracts/contracts/token/ERC20/ERC20.sol\":3843:3870  _transfer(owner, to, value) */\n      tag_68\n        /* \"lib/openzeppelin-contracts/contracts/utils/Context.sol\":752:762  msg.sender */\n      dup2\n        /* \"lib/openzeppelin-contracts/contracts/token/ERC20/ERC20.sol\":3860:3862  to */\n      dup6\n        /* \"lib/openzeppelin-contracts/contracts/token/ERC20/ERC20.sol\":3864:3869  value */\n      dup6\n        /* \"lib/openzeppelin-contracts/contracts/token/ERC20/ERC20.sol\":3843:3852  _transfer */\n      tag_72\n        /* \"lib/openzeppelin-contracts/contracts/token/ERC20/ERC20.sol\":3843:3870  _transfer(owner, to, value) */\n      jump\t// in\n        /* \"lib/openzeppelin-contracts/contracts/token/ERC20/ERC20.sol\":9251:9381  function _approve(address owner, address spender, uint256 value) internal {... */\n    tag_69:\n        /* \"lib/openzeppelin-contracts/contracts/token/ERC20/ERC20.sol\":9336:9373  _approve(owner, spender, value, true) */\n      tag_98\n        /* \"lib/openzeppelin-contracts/contracts/token/ERC20/ERC20.sol\":9345:9350  owner */\n      dup4\n        /* \"lib/openzeppelin-contracts/contracts/token/ERC20/ERC20.sol\":9352:9359  spender */\n      dup4\n        /* \"lib/openzeppelin-contracts/contracts/token/ERC20/ERC20.sol\":9361:9366  value */\n      dup4\n        /* \"lib/openzeppelin-contracts/contracts/token/ERC20/ERC20.sol\":9368:9372  true */\n      0x01\n        /* \"lib/openzeppelin-contracts/contracts/token/ERC20/ERC20.sol\":9336:9344  _approve */\n      tag_99\n        /* \"lib/openzeppelin-contracts/contracts/token/ERC20/ERC20.sol\":9336:9373  _approve(owner, spender, value, true) */\n      jump\t// in\n    tag_98:\n        /* \"lib/openzeppelin-contracts/contracts/token/ERC20/ERC20.sol\":9251:9381  function _approve(address owner, address spender, uint256 value) internal {... */\n      pop\n      pop\n      pop\n      jump\t// out\n        /* \"lib/openzeppelin-contracts/contracts/token/ERC20/ERC20.sol\":5826:6134  function _transfer(address from, address to, uint256 value) internal {... */\n    tag_72:\n      sub(shl(0xa0, 0x01), 0x01)\n        /* \"lib/openzeppelin-contracts/contracts/token/ERC20/ERC20.sol\":5910:5928  from == address(0) */\n      dup4\n      and\n        /* \"lib/openzeppelin-contracts/contracts/token/ERC20/ERC20.sol\":5906:5994  if (from == address(0)) {... */\n      tag_101\n      jumpi\n        /* \"lib/openzeppelin-contracts/contracts/token/ERC20/ERC20.sol\":5952:5982  ERC20InvalidSender(address(0)) */\n      mload(0x40)\n      shl(0xe1, 0x4b637e8f)\n      dup2\n      mstore\n        /* \"lib/openzeppelin-contracts/contracts/token/ERC20/ERC20.sol\":5979:5980  0 */\n      0x00\n        /* \"lib/openzeppelin-contracts/contracts/token/ERC20/ERC20.sol\":5952:5982  ERC20InvalidSender(address(0)) */\n      0x04\n      dup3\n      add\n        /* \"#utility.yul\":3564:3615   */\n      mstore\n        /* \"#utility.yul\":3537:3555   */\n      0x24\n      add\n        /* \"lib/openzeppelin-contracts/contracts/token/ERC20/ERC20.sol\":5952:5982  ERC20InvalidSender(address(0)) */\n    tag_102:\n      mload(0x40)\n      dup1\n      swap2\n      sub\n      swap1\n      revert\n        /* \"lib/openzeppelin-contracts/contracts/token/ERC20/ERC20.sol\":5906:5994  if (from == address(0)) {... */\n    tag_101:\n      sub(shl(0xa0, 0x01), 0x01)\n        /* \"lib/openzeppelin-contracts/contracts/token/ERC20/ERC20.sol\":6008:6024  to == address(0) */\n      dup3\n      and\n        /* \"lib/openzeppelin-contracts/contracts/token/ERC20/ERC20.sol\":6004:6092  if (to == address(0)) {... */\n      tag_104\n      jumpi\n        /* \"lib/openzeppelin-contracts/contracts/token/ERC20/ERC20.sol\":6048:6080  ERC20InvalidReceiver(address(0)) */\n      mload(0x40)\n      shl(0xe0, 0xec442f05)\n      dup2\n      mstore\n        /* \"lib/openzeppelin-contracts/contracts/token/ERC20/ERC20.sol\":6077:6078  0 */\n      0x00\n        /* \"lib/openzeppelin-contracts/contracts/token/ERC20/ERC20.sol\":6048:6080  ERC20InvalidReceiver(address(0)) */\n      0x04\n      dup3\n      add\n        /* \"#utility.yul\":3564:3615   */\n      mstore\n        /* \"#utility.yul\":3537:3555   */\n      0x24\n      add\n        /* \"lib/openzeppelin-contracts/contracts/token/ERC20/ERC20.sol\":6048:6080  ERC20InvalidReceiver(address(0)) */\n      tag_102\n        /* \"#utility.yul\":3418:3621   */\n      jump\n        /* \"lib/openzeppelin-contracts/contracts/token/ERC20/ERC20.sol\":6004:6092  if (to == address(0)) {... */\n    tag_104:\n        /* \"lib/openzeppelin-contracts/contracts/token/ERC20/ERC20.sol\":6102:6126  _update(from, to, value) */\n      tag_98\n        /* \"lib/openzeppelin-contracts/contracts/token/ERC20/ERC20.sol\":6110:6114  from */\n      dup4\n        /* \"lib/openzeppelin-contracts/contracts/token/ERC20/ERC20.sol\":6116:6118  to */\n      dup4\n        /* \"lib/openzeppelin-contracts/contracts/token/ERC20/ERC20.sol\":6120:6125  value */\n      dup4\n        /* \"lib/openzeppelin-contracts/contracts/token/ERC20/ERC20.sol\":6102:6109  _update */\n      tag_107\n        /* \"lib/openzeppelin-contracts/contracts/token/ERC20/ERC20.sol\":6102:6126  _update(from, to, value) */\n      jump\t// in\n        /* \"lib/openzeppelin-contracts/contracts/token/ERC20/ERC20.sol\":10967:11454  function _spendAllowance(address owner, address spender, uint256 value) internal virtual {... */\n    tag_82:\n      sub(shl(0xa0, 0x01), 0x01)\n        /* \"lib/openzeppelin-contracts/contracts/token/ERC20/ERC20.sol\":4070:4088  _allowances[owner] */\n      dup4\n      dup2\n      and\n        /* \"lib/openzeppelin-contracts/contracts/token/ERC20/ERC20.sol\":11067:11091  uint256 currentAllowance */\n      0x00\n        /* \"lib/openzeppelin-contracts/contracts/token/ERC20/ERC20.sol\":4070:4088  _allowances[owner] */\n      swap1\n      dup2\n      mstore\n        /* \"lib/openzeppelin-contracts/contracts/token/ERC20/ERC20.sol\":4070:4081  _allowances */\n      0x01\n        /* \"lib/openzeppelin-contracts/contracts/token/ERC20/ERC20.sol\":4070:4088  _allowances[owner] */\n      0x20\n      swap1\n      dup2\n      mstore\n      0x40\n      dup1\n      dup4\n      keccak256\n        /* \"lib/openzeppelin-contracts/contracts/token/ERC20/ERC20.sol\":4070:4097  _allowances[owner][spender] */\n      swap4\n      dup7\n      and\n      dup4\n      mstore\n      swap3\n      swap1\n      mstore\n      keccak256\n      sload\n      not(0x00)\n        /* \"lib/openzeppelin-contracts/contracts/token/ERC20/ERC20.sol\":11134:11171  currentAllowance != type(uint256).max */\n      dup2\n      eq\n        /* \"lib/openzeppelin-contracts/contracts/token/ERC20/ERC20.sol\":11130:11447  if (currentAllowance != type(uint256).max) {... */\n      tag_113\n      jumpi\n        /* \"lib/openzeppelin-contracts/contracts/token/ERC20/ERC20.sol\":11211:11216  value */\n      dup2\n        /* \"lib/openzeppelin-contracts/contracts/token/ERC20/ERC20.sol\":11192:11208  currentAllowance */\n      dup2\n        /* \"lib/openzeppelin-contracts/contracts/token/ERC20/ERC20.sol\":11192:11216  currentAllowance < value */\n      lt\n        /* \"lib/openzeppelin-contracts/contracts/token/ERC20/ERC20.sol\":11188:11320  if (currentAllowance < value) {... */\n      iszero\n      tag_111\n      jumpi\n        /* \"lib/openzeppelin-contracts/contracts/token/ERC20/ERC20.sol\":11244:11304  ERC20InsufficientAllowance(spender, currentAllowance, value) */\n      mload(0x40)\n      shl(0xe1, 0x7dc7a0d9)\n      dup2\n      mstore\n      sub(shl(0xa0, 0x01), 0x01)\n        /* \"#utility.yul\":3288:3320   */\n      dup5\n      and\n        /* \"lib/openzeppelin-contracts/contracts/token/ERC20/ERC20.sol\":11244:11304  ERC20InsufficientAllowance(spender, currentAllowance, value) */\n      0x04\n      dup3\n      add\n        /* \"#utility.yul\":3270:3321   */\n      mstore\n        /* \"#utility.yul\":3337:3355   */\n      0x24\n      dup2\n      add\n        /* \"#utility.yul\":3330:3364   */\n      dup3\n      swap1\n      mstore\n        /* \"#utility.yul\":3380:3398   */\n      0x44\n      dup2\n      add\n        /* \"#utility.yul\":3373:3407   */\n      dup4\n      swap1\n      mstore\n        /* \"#utility.yul\":3243:3261   */\n      0x64\n      add\n        /* \"lib/openzeppelin-contracts/contracts/token/ERC20/ERC20.sol\":11244:11304  ERC20InsufficientAllowance(spender, currentAllowance, value) */\n      tag_102\n        /* \"#utility.yul\":3068:3413   */\n      jump\n        /* \"lib/openzeppelin-contracts/contracts/token/ERC20/ERC20.sol\":11188:11320  if (currentAllowance < value) {... */\n    tag_111:\n        /* \"lib/openzeppelin-contracts/contracts/token/ERC20/ERC20.sol\":11363:11420  _approve(owner, spender, currentAllowance - value, false) */\n      tag_113\n        /* \"lib/openzeppelin-contracts/contracts/token/ERC20/ERC20.sol\":11372:11377  owner */\n      dup5\n        /* \"lib/openzeppelin-contracts/contracts/token/ERC20/ERC20.sol\":11379:11386  spender */\n      dup5\n        /* \"lib/openzeppelin-contracts/contracts/token/ERC20/ERC20.sol\":11407:11412  value */\n      dup5\n        /* \"lib/openzeppelin-contracts/contracts/token/ERC20/ERC20.sol\":11388:11404  currentAllowance */\n      dup5\n        /* \"lib/openzeppelin-contracts/contracts/token/ERC20/ERC20.sol\":11388:11412  currentAllowance - value */\n      sub\n        /* \"lib/openzeppelin-contracts/contracts/token/ERC20/ERC20.sol\":11414:11419  false */\n      0x00\n        /* \"lib/openzeppelin-contracts/contracts/token/ERC20/ERC20.sol\":11363:11371  _approve */\n      tag_99\n        /* \"lib/openzeppelin-contracts/contracts/token/ERC20/ERC20.sol\":11363:11420  _approve(owner, spender, currentAllowance - value, false) */\n      jump\t// in\n    tag_113:\n        /* \"lib/openzeppelin-contracts/contracts/token/ERC20/ERC20.sol\":11056:11454  {... */\n      pop\n        /* \"lib/openzeppelin-contracts/contracts/token/ERC20/ERC20.sol\":10967:11454  function _spendAllowance(address owner, address spender, uint256 value) internal virtual {... */\n      pop\n      pop\n      pop\n      jump\t// out\n        /* \"lib/openzeppelin-contracts/contracts/token/ERC20/ERC20.sol\":10232:10675  function _approve(address owner, address spender, uint256 value, bool emitEvent) internal virtual {... */\n    tag_99:\n      sub(shl(0xa0, 0x01), 0x01)\n        /* \"lib/openzeppelin-contracts/contracts/token/ERC20/ERC20.sol\":10345:10364  owner == address(0) */\n      dup5\n      and\n        /* \"lib/openzeppelin-contracts/contracts/token/ERC20/ERC20.sol\":10341:10432  if (owner == address(0)) {... */\n      tag_115\n      jumpi\n        /* \"lib/openzeppelin-contracts/contracts/token/ERC20/ERC20.sol\":10388:10420  ERC20InvalidApprover(address(0)) */\n      mload(0x40)\n      shl(0xe0, 0xe602df05)\n      dup2\n      mstore\n        /* \"lib/openzeppelin-contracts/contracts/token/ERC20/ERC20.sol\":10417:10418  0 */\n      0x00\n        /* \"lib/openzeppelin-contracts/contracts/token/ERC20/ERC20.sol\":10388:10420  ERC20InvalidApprover(address(0)) */\n      0x04\n      dup3\n      add\n        /* \"#utility.yul\":3564:3615   */\n      mstore\n        /* \"#utility.yul\":3537:3555   */\n      0x24\n      add\n        /* \"lib/openzeppelin-contracts/contracts/token/ERC20/ERC20.sol\":10388:10420  ERC20InvalidApprover(address(0)) */\n      tag_102\n        /* \"#utility.yul\":3418:3621   */\n      jump\n        /* \"lib/openzeppelin-contracts/contracts/token/ERC20/ERC20.sol\":10341:10432  if (owner == address(0)) {... */\n    tag_115:\n      sub(shl(0xa0, 0x01), 0x01)\n        /* \"lib/openzeppelin-contracts/contracts/token/ERC20/ERC20.sol\":10446:10467  spender == address(0) */\n      dup4\n      and\n        /* \"lib/openzeppelin-contracts/contracts/token/ERC20/ERC20.sol\":10442:10534  if (spender == address(0)) {... */\n      tag_117\n      jumpi\n        /* \"lib/openzeppelin-contracts/contracts/token/ERC20/ERC20.sol\":10491:10522  ERC20InvalidSpender(address(0)) */\n      mload(0x40)\n      shl(0xe1, 0x4a1406b1)\n      dup2\n      mstore\n        /* \"lib/openzeppelin-contracts/contracts/token/ERC20/ERC20.sol\":10519:10520  0 */\n      0x00\n        /* \"lib/openzeppelin-contracts/contracts/token/ERC20/ERC20.sol\":10491:10522  ERC20InvalidSpender(address(0)) */\n      0x04\n      dup3\n      add\n        /* \"#utility.yul\":3564:3615   */\n      mstore\n        /* \"#utility.yul\":3537:3555   */\n      0x24\n      add\n        /* \"lib/openzeppelin-contracts/contracts/token/ERC20/ERC20.sol\":10491:10522  ERC20InvalidSpender(address(0)) */\n      tag_102\n        /* \"#utility.yul\":3418:3621   */\n      jump\n        /* \"lib/openzeppelin-contracts/contracts/token/ERC20/ERC20.sol\":10442:10534  if (spender == address(0)) {... */\n    tag_117:\n      sub(shl(0xa0, 0x01), 0x01)\n        /* \"lib/openzeppelin-contracts/contracts/token/ERC20/ERC20.sol\":10544:10562  _allowances[owner] */\n      dup1\n      dup6\n      and\n      0x00\n      swap1\n      dup2\n      mstore\n        /* \"lib/openzeppelin-contracts/contracts/token/ERC20/ERC20.sol\":10544:10555  _allowances */\n      0x01\n        /* \"lib/openzeppelin-contracts/contracts/token/ERC20/ERC20.sol\":10544:10562  _allowances[owner] */\n      0x20\n      swap1\n      dup2\n      mstore\n      0x40\n      dup1\n      dup4\n      keccak256\n        /* \"lib/openzeppelin-contracts/contracts/token/ERC20/ERC20.sol\":10544:10571  _allowances[owner][spender] */\n      swap4\n      dup8\n      and\n      dup4\n      mstore\n      swap3\n      swap1\n      mstore\n      keccak256\n        /* \"lib/openzeppelin-contracts/contracts/token/ERC20/ERC20.sol\":10544:10579  _allowances[owner][spender] = value */\n      dup3\n      swap1\n      sstore\n        /* \"lib/openzeppelin-contracts/contracts/token/ERC20/ERC20.sol\":10590:10668  if (emitEvent) {... */\n      dup1\n      iszero\n      tag_113\n      jumpi\n        /* \"lib/openzeppelin-contracts/contracts/token/ERC20/ERC20.sol\":10641:10648  spender */\n      dup3\n      sub(shl(0xa0, 0x01), 0x01)\n        /* \"lib/openzeppelin-contracts/contracts/token/ERC20/ERC20.sol\":10625:10656  Approval(owner, spender, value) */\n      and\n        /* \"lib/openzeppelin-contracts/contracts/token/ERC20/ERC20.sol\":10634:10639  owner */\n      dup5\n      sub(shl(0xa0, 0x01), 0x01)\n        /* \"lib/openzeppelin-contracts/contracts/token/ERC20/ERC20.sol\":10625:10656  Approval(owner, spender, value) */\n      and\n      0x8c5be1e5ebec7d5bd14f71427d1e84f3dd0314c0f7b2291e5b200ac8c7c3b925\n        /* \"lib/openzeppelin-contracts/contracts/token/ERC20/ERC20.sol\":10650:10655  value */\n      dup5\n        /* \"lib/openzeppelin-contracts/contracts/token/ERC20/ERC20.sol\":10625:10656  Approval(owner, spender, value) */\n      mload(0x40)\n      tag_120\n      swap2\n        /* \"#utility.yul\":1669:1694   */\n      dup2\n      mstore\n        /* \"#utility.yul\":1657:1659   */\n      0x20\n        /* \"#utility.yul\":1642:1660   */\n      add\n      swap1\n        /* \"#utility.yul\":1523:1700   */\n      jump\n        /* \"lib/openzeppelin-contracts/contracts/token/ERC20/ERC20.sol\":10625:10656  Approval(owner, spender, value) */\n    tag_120:\n      mload(0x40)\n      dup1\n      swap2\n      sub\n      swap1\n      log3\n        /* \"lib/openzeppelin-contracts/contracts/token/ERC20/ERC20.sol\":10232:10675  function _approve(address owner, address spender, uint256 value, bool emitEvent) internal virtual {... */\n      pop\n      pop\n      pop\n      pop\n      jump\t// out\n        /* \"lib/openzeppelin-contracts/contracts/token/ERC20/ERC20.sol\":6458:7593  function _update(address from, address to, uint256 value) internal virtual {... */\n    tag_107:\n      sub(shl(0xa0, 0x01), 0x01)\n        /* \"lib/openzeppelin-contracts/contracts/token/ERC20/ERC20.sol\":6548:6566  from == address(0) */\n      dup4\n      and\n        /* \"lib/openzeppelin-contracts/contracts/token/ERC20/ERC20.sol\":6544:7096  if (from == address(0)) {... */\n      tag_122\n      jumpi\n        /* \"lib/openzeppelin-contracts/contracts/token/ERC20/ERC20.sol\":6702:6707  value */\n      dup1\n        /* \"lib/openzeppelin-contracts/contracts/token/ERC20/ERC20.sol\":6686:6698  _totalSupply */\n      0x02\n      0x00\n        /* \"lib/openzeppelin-contracts/contracts/token/ERC20/ERC20.sol\":6686:6707  _totalSupply += value */\n      dup3\n      dup3\n      sload\n      tag_123\n      swap2\n      swap1\n      tag_124\n      jump\t// in\n    tag_123:\n      swap1\n      swap2\n      sstore\n      pop\n        /* \"lib/openzeppelin-contracts/contracts/token/ERC20/ERC20.sol\":6544:7096  if (from == address(0)) {... */\n      tag_125\n      swap1\n      pop\n      jump\n    tag_122:\n      sub(shl(0xa0, 0x01), 0x01)\n        /* \"lib/openzeppelin-contracts/contracts/token/ERC20/ERC20.sol\":6762:6777  _balances[from] */\n      dup4\n      and\n        /* \"lib/openzeppelin-contracts/contracts/token/ERC20/ERC20.sol\":6740:6759  uint256 fromBalance */\n      0x00\n        /* \"lib/openzeppelin-contracts/contracts/token/ERC20/ERC20.sol\":6762:6777  _balances[from] */\n      swap1\n      dup2\n      mstore\n      0x20\n      dup2\n      swap1\n      mstore\n      0x40\n      swap1\n      keccak256\n      sload\n        /* \"lib/openzeppelin-contracts/contracts/token/ERC20/ERC20.sol\":6796:6815  fromBalance < value */\n      dup2\n      dup2\n      lt\n        /* \"lib/openzeppelin-contracts/contracts/token/ERC20/ERC20.sol\":6792:6909  if (fromBalance < value) {... */\n      iszero\n      tag_126\n      jumpi\n        /* \"lib/openzeppelin-contracts/contracts/token/ERC20/ERC20.sol\":6843:6893  ERC20InsufficientBalance(from, fromBalance, value) */\n      mload(0x40)\n      shl(0xe2, 0x391434e3)\n      dup2\n      mstore\n      sub(shl(0xa0, 0x01), 0x01)\n        /* \"#utility.yul\":3288:3320   */\n      dup6\n      and\n        /* \"lib/openzeppelin-contracts/contracts/token/ERC20/ERC20.sol\":6843:6893  ERC20InsufficientBalance(from, fromBalance, value) */\n      0x04\n      dup3\n      add\n        /* \"#utility.yul\":3270:3321   */\n      mstore\n        /* \"#utility.yul\":3337:3355   */\n      0x24\n      dup2\n      add\n        /* \"#utility.yul\":3330:3364   */\n      dup3\n      swap1\n      mstore\n        /* \"#utility.yul\":3380:3398   */\n      0x44\n      dup2\n      add\n        /* \"#utility.yul\":3373:3407   */\n      dup4\n      swap1\n      mstore\n        /* \"#utility.yul\":3243:3261   */\n      0x64\n      add\n        /* \"lib/openzeppelin-contracts/contracts/token/ERC20/ERC20.sol\":6843:6893  ERC20InsufficientBalance(from, fromBalance, value) */\n      tag_102\n        /* \"#utility.yul\":3068:3413   */\n      jump\n        /* \"lib/openzeppelin-contracts/contracts/token/ERC20/ERC20.sol\":6792:6909  if (fromBalance < value) {... */\n    tag_126:\n      sub(shl(0xa0, 0x01), 0x01)\n        /* \"lib/openzeppelin-contracts/contracts/token/ERC20/ERC20.sol\":7032:7047  _balances[from] */\n      dup5\n      and\n        /* \"lib/openzeppelin-contracts/contracts/token/ERC20/ERC20.sol\":7032:7041  _balances */\n      0x00\n        /* \"lib/openzeppelin-contracts/contracts/token/ERC20/ERC20.sol\":7032:7047  _balances[from] */\n      swap1\n      dup2\n      mstore\n      0x20\n      dup2\n      swap1\n      mstore\n      0x40\n      swap1\n      keccak256\n        /* \"lib/openzeppelin-contracts/contracts/token/ERC20/ERC20.sol\":7050:7069  fromBalance - value */\n      swap1\n      dup3\n      swap1\n      sub\n        /* \"lib/openzeppelin-contracts/contracts/token/ERC20/ERC20.sol\":7032:7069  _balances[from] = fromBalance - value */\n      swap1\n      sstore\n        /* \"lib/openzeppelin-contracts/contracts/token/ERC20/ERC20.sol\":6544:7096  if (from == address(0)) {... */\n    tag_125:\n      sub(shl(0xa0, 0x01), 0x01)\n        /* \"lib/openzeppelin-contracts/contracts/token/ERC20/ERC20.sol\":7112:7128  to == address(0) */\n      dup3\n      and\n        /* \"lib/openzeppelin-contracts/contracts/token/ERC20/ERC20.sol\":7108:7543  if (to == address(0)) {... */\n      tag_128\n      jumpi\n        /* \"lib/openzeppelin-contracts/contracts/token/ERC20/ERC20.sol\":7278:7290  _totalSupply */\n      0x02\n        /* \"lib/openzeppelin-contracts/contracts/token/ERC20/ERC20.sol\":7278:7299  _totalSupply -= value */\n      dup1\n      sload\n      dup3\n      swap1\n      sub\n      swap1\n      sstore\n        /* \"lib/openzeppelin-contracts/contracts/token/ERC20/ERC20.sol\":7108:7543  if (to == address(0)) {... */\n      jump(tag_129)\n    tag_128:\n      sub(shl(0xa0, 0x01), 0x01)\n        /* \"lib/openzeppelin-contracts/contracts/token/ERC20/ERC20.sol\":7494:7507  _balances[to] */\n      dup3\n      and\n        /* \"lib/openzeppelin-contracts/contracts/token/ERC20/ERC20.sol\":7494:7503  _balances */\n      0x00\n        /* \"lib/openzeppelin-contracts/contracts/token/ERC20/ERC20.sol\":7494:7507  _balances[to] */\n      swap1\n      dup2\n      mstore\n      0x20\n      dup2\n      swap1\n      mstore\n      0x40\n      swap1\n      keccak256\n        /* \"lib/openzeppelin-contracts/contracts/token/ERC20/ERC20.sol\":7494:7516  _balances[to] += value */\n      dup1\n      sload\n      dup3\n      add\n      swap1\n      sstore\n        /* \"lib/openzeppelin-contracts/contracts/token/ERC20/ERC20.sol\":7108:7543  if (to == address(0)) {... */\n    tag_129:\n        /* \"lib/openzeppelin-contracts/contracts/token/ERC20/ERC20.sol\":7575:7577  to */\n      dup2\n      sub(shl(0xa0, 0x01), 0x01)\n        /* \"lib/openzeppelin-contracts/contracts/token/ERC20/ERC20.sol\":7560:7585  Transfer(from, to, value) */\n      and\n        /* \"lib/openzeppelin-contracts/contracts/token/ERC20/ERC20.sol\":7569:7573  from */\n      dup4\n      sub(shl(0xa0, 0x01), 0x01)\n        /* \"lib/openzeppelin-contracts/contracts/token/ERC20/ERC20.sol\":7560:7585  Transfer(from, to, value) */\n      and\n      0xddf252ad1be2c89b69c2b068fc378daa952ba7f163c4a11628f55a4df523b3ef\n        /* \"lib/openzeppelin-contracts/contracts/token/ERC20/ERC20.sol\":7579:7584  value */\n      dup4\n        /* \"lib/openzeppelin-contracts/contracts/token/ERC20/ERC20.sol\":7560:7585  Transfer(from, to, value) */\n      mload(0x40)\n      tag_130\n      swap2\n        /* \"#utility.yul\":1669:1694   */\n      dup2\n      mstore\n        /* \"#utility.yul\":1657:1659   */\n      0x20\n        /* \"#utility.yul\":1642:1660   */\n      add\n      swap1\n        /* \"#utility.yul\":1523:1700   */\n      jump\n        /* \"lib/openzeppelin-contracts/contracts/token/ERC20/ERC20.sol\":7560:7585  Transfer(from, to, value) */\n    tag_130:\n      mload(0x40)\n      dup1\n      swap2\n      sub\n      swap1\n      log3\n        /* \"lib/openzeppelin-contracts/contracts/token/ERC20/ERC20.sol\":6458:7593  function _update(address from, address to, uint256 value) internal virtual {... */\n      pop\n      pop\n      pop\n      jump\t// out\n        /* \"#utility.yul\":14:562   */\n    tag_17:\n        /* \"#utility.yul\":126:130   */\n      0x00\n        /* \"#utility.yul\":155:157   */\n      0x20\n        /* \"#utility.yul\":184:186   */\n      dup1\n        /* \"#utility.yul\":173:182   */\n      dup4\n        /* \"#utility.yul\":166:187   */\n      mstore\n        /* \"#utility.yul\":216:222   */\n      dup4\n        /* \"#utility.yul\":210:223   */\n      mload\n        /* \"#utility.yul\":259:265   */\n      dup1\n        /* \"#utility.yul\":254:256   */\n      0x20\n        /* \"#utility.yul\":243:252   */\n      dup6\n        /* \"#utility.yul\":239:257   */\n      add\n        /* \"#utility.yul\":232:266   */\n      mstore\n        /* \"#utility.yul\":284:285   */\n      0x00\n        /* \"#utility.yul\":294:434   */\n    tag_134:\n        /* \"#utility.yul\":308:314   */\n      dup2\n        /* \"#utility.yul\":305:306   */\n      dup2\n        /* \"#utility.yul\":302:315   */\n      lt\n        /* \"#utility.yul\":294:434   */\n      iszero\n      tag_136\n      jumpi\n        /* \"#utility.yul\":403:417   */\n      dup6\n      dup2\n      add\n        /* \"#utility.yul\":399:422   */\n      dup4\n      add\n        /* \"#utility.yul\":393:423   */\n      mload\n        /* \"#utility.yul\":369:386   */\n      dup6\n      dup3\n      add\n        /* \"#utility.yul\":388:390   */\n      0x40\n        /* \"#utility.yul\":365:391   */\n      add\n        /* \"#utility.yul\":358:424   */\n      mstore\n        /* \"#utility.yul\":323:333   */\n      dup3\n      add\n        /* \"#utility.yul\":294:434   */\n      jump(tag_134)\n    tag_136:\n        /* \"#utility.yul\":298:301   */\n      pop\n        /* \"#utility.yul\":483:484   */\n      0x00\n        /* \"#utility.yul\":478:480   */\n      0x40\n        /* \"#utility.yul\":469:475   */\n      dup3\n        /* \"#utility.yul\":458:467   */\n      dup7\n        /* \"#utility.yul\":454:476   */\n      add\n        /* \"#utility.yul\":450:481   */\n      add\n        /* \"#utility.yul\":443:485   */\n      mstore\n        /* \"#utility.yul\":553:555   */\n      0x40\n        /* \"#utility.yul\":546:548   */\n      0x1f\n        /* \"#utility.yul\":542:549   */\n      not\n        /* \"#utility.yul\":537:539   */\n      0x1f\n        /* \"#utility.yul\":529:535   */\n      dup4\n        /* \"#utility.yul\":525:540   */\n      add\n        /* \"#utility.yul\":521:550   */\n      and\n        /* \"#utility.yul\":510:519   */\n      dup6\n        /* \"#utility.yul\":506:551   */\n      add\n        /* \"#utility.yul\":502:556   */\n      add\n        /* \"#utility.yul\":494:556   */\n      swap3\n      pop\n      pop\n      pop\n        /* \"#utility.yul\":14:562   */\n      swap3\n      swap2\n      pop\n      pop\n      jump\t// out\n        /* \"#utility.yul\":567:740   */\n    tag_131:\n        /* \"#utility.yul\":635:655   */\n      dup1\n      calldataload\n      sub(shl(0xa0, 0x01), 0x01)\n        /* \"#utility.yul\":684:715   */\n      dup2\n      and\n        /* \"#utility.yul\":674:716   */\n      dup2\n      eq\n        /* \"#utility.yul\":664:734   */\n      tag_138\n      jumpi\n        /* \"#utility.yul\":730:731   */\n      0x00\n        /* \"#utility.yul\":727:728   */\n      dup1\n        /* \"#utility.yul\":720:732   */\n      revert\n        /* \"#utility.yul\":664:734   */\n    tag_138:\n        /* \"#utility.yul\":567:740   */\n      swap2\n      swap1\n      pop\n      jump\t// out\n        /* \"#utility.yul\":745:999   */\n    tag_20:\n        /* \"#utility.yul\":813:819   */\n      0x00\n        /* \"#utility.yul\":821:827   */\n      dup1\n        /* \"#utility.yul\":874:876   */\n      0x40\n        /* \"#utility.yul\":862:871   */\n      dup4\n        /* \"#utility.yul\":853:860   */\n      dup6\n        /* \"#utility.yul\":849:872   */\n      sub\n        /* \"#utility.yul\":845:877   */\n      slt\n        /* \"#utility.yul\":842:894   */\n      iszero\n      tag_140\n      jumpi\n        /* \"#utility.yul\":890:891   */\n      0x00\n        /* \"#utility.yul\":887:888   */\n      dup1\n        /* \"#utility.yul\":880:892   */\n      revert\n        /* \"#utility.yul\":842:894   */\n    tag_140:\n        /* \"#utility.yul\":913:942   */\n      tag_141\n        /* \"#utility.yul\":932:941   */\n      dup4\n        /* \"#utility.yul\":913:942   */\n      tag_131\n      jump\t// in\n    tag_141:\n        /* \"#utility.yul\":903:942   */\n      swap5\n        /* \"#utility.yul\":989:991   */\n      0x20\n        /* \"#utility.yul\":974:992   */\n      swap4\n      swap1\n      swap4\n      add\n        /* \"#utility.yul\":961:993   */\n      calldataload\n      swap4\n      pop\n      pop\n      pop\n        /* \"#utility.yul\":745:999   */\n      jump\t// out\n        /* \"#utility.yul\":1196:1518   */\n    tag_26:\n        /* \"#utility.yul\":1273:1279   */\n      0x00\n        /* \"#utility.yul\":1281:1287   */\n      dup1\n        /* \"#utility.yul\":1289:1295   */\n      0x00\n        /* \"#utility.yul\":1342:1344   */\n      0x60\n        /* \"#utility.yul\":1330:1339   */\n      dup5\n        /* \"#utility.yul\":1321:1328   */\n      dup7\n        /* \"#utility.yul\":1317:1340   */\n      sub\n        /* \"#utility.yul\":1313:1345   */\n      slt\n        /* \"#utility.yul\":1310:1362   */\n      iszero\n      tag_144\n      jumpi\n        /* \"#utility.yul\":1358:1359   */\n      0x00\n        /* \"#utility.yul\":1355:1356   */\n      dup1\n        /* \"#utility.yul\":1348:1360   */\n      revert\n        /* \"#utility.yul\":1310:1362   */\n    tag_144:\n        /* \"#utility.yul\":1381:1410   */\n      tag_145\n        /* \"#utility.yul\":1400:1409   */\n      dup5\n        /* \"#utility.yul\":1381:1410   */\n      tag_131\n      jump\t// in\n    tag_145:\n        /* \"#utility.yul\":1371:1410   */\n      swap6\n        /* \"#utility.yul\":1457:1459   */\n      0x20\n        /* \"#utility.yul\":1442:1460   */\n      dup6\n      add\n        /* \"#utility.yul\":1429:1461   */\n      calldataload\n      swap6\n      pop\n        /* \"#utility.yul\":1508:1510   */\n      0x40\n        /* \"#utility.yul\":1493:1511   */\n      swap1\n      swap5\n      add\n        /* \"#utility.yul\":1480:1512   */\n      calldataload\n      swap4\n        /* \"#utility.yul\":1196:1518   */\n      swap3\n      pop\n      pop\n      pop\n      jump\t// out\n        /* \"#utility.yul\":1705:2033   */\n    tag_34:\n        /* \"#utility.yul\":1782:1788   */\n      0x00\n        /* \"#utility.yul\":1790:1796   */\n      dup1\n        /* \"#utility.yul\":1798:1804   */\n      0x00\n        /* \"#utility.yul\":1851:1853   */\n      0x60\n        /* \"#utility.yul\":1839:1848   */\n      dup5\n        /* \"#utility.yul\":1830:1837   */\n      dup7\n        /* \"#utility.yul\":1826:1849   */\n      sub\n        /* \"#utility.yul\":1822:1854   */\n      slt\n        /* \"#utility.yul\":1819:1871   */\n      iszero\n      tag_148\n      jumpi\n        /* \"#utility.yul\":1867:1868   */\n      0x00\n        /* \"#utility.yul\":1864:1865   */\n      dup1\n        /* \"#utility.yul\":1857:1869   */\n      revert\n        /* \"#utility.yul\":1819:1871   */\n    tag_148:\n        /* \"#utility.yul\":1890:1919   */\n      tag_149\n        /* \"#utility.yul\":1909:1918   */\n      dup5\n        /* \"#utility.yul\":1890:1919   */\n      tag_131\n      jump\t// in\n    tag_149:\n        /* \"#utility.yul\":1880:1919   */\n      swap3\n      pop\n        /* \"#utility.yul\":1938:1976   */\n      tag_150\n        /* \"#utility.yul\":1972:1974   */\n      0x20\n        /* \"#utility.yul\":1961:1970   */\n      dup6\n        /* \"#utility.yul\":1957:1975   */\n      add\n        /* \"#utility.yul\":1938:1976   */\n      tag_131\n      jump\t// in\n    tag_150:\n        /* \"#utility.yul\":1928:1976   */\n      swap2\n      pop\n        /* \"#utility.yul\":2023:2025   */\n      0x40\n        /* \"#utility.yul\":2012:2021   */\n      dup5\n        /* \"#utility.yul\":2008:2026   */\n      add\n        /* \"#utility.yul\":1995:2027   */\n      calldataload\n        /* \"#utility.yul\":1985:2027   */\n      swap1\n      pop\n        /* \"#utility.yul\":1705:2033   */\n      swap3\n      pop\n      swap3\n      pop\n      swap3\n      jump\t// out\n        /* \"#utility.yul\":2227:2413   */\n    tag_43:\n        /* \"#utility.yul\":2286:2292   */\n      0x00\n        /* \"#utility.yul\":2339:2341   */\n      0x20\n        /* \"#utility.yul\":2327:2336   */\n      dup3\n        /* \"#utility.yul\":2318:2325   */\n      dup5\n        /* \"#utility.yul\":2314:2337   */\n      sub\n        /* \"#utility.yul\":2310:2342   */\n      slt\n        /* \"#utility.yul\":2307:2359   */\n      iszero\n      tag_153\n      jumpi\n        /* \"#utility.yul\":2355:2356   */\n      0x00\n        /* \"#utility.yul\":2352:2353   */\n      dup1\n        /* \"#utility.yul\":2345:2357   */\n      revert\n        /* \"#utility.yul\":2307:2359   */\n    tag_153:\n        /* \"#utility.yul\":2378:2407   */\n      tag_154\n        /* \"#utility.yul\":2397:2406   */\n      dup3\n        /* \"#utility.yul\":2378:2407   */\n      tag_131\n      jump\t// in\n    tag_154:\n        /* \"#utility.yul\":2368:2407   */\n      swap4\n        /* \"#utility.yul\":2227:2413   */\n      swap3\n      pop\n      pop\n      pop\n      jump\t// out\n        /* \"#utility.yul\":2418:2678   */\n    tag_55:\n        /* \"#utility.yul\":2486:2492   */\n      0x00\n        /* \"#utility.yul\":2494:2500   */\n      dup1\n        /* \"#utility.yul\":2547:2549   */\n      0x40\n        /* \"#utility.yul\":2535:2544   */\n      dup4\n        /* \"#utility.yul\":2526:2533   */\n      dup6\n        /* \"#utility.yul\":2522:2545   */\n      sub\n        /* \"#utility.yul\":2518:2550   */\n      slt\n        /* \"#utility.yul\":2515:2567   */\n      iszero\n      tag_156\n      jumpi\n        /* \"#utility.yul\":2563:2564   */\n      0x00\n        /* \"#utility.yul\":2560:2561   */\n      dup1\n        /* \"#utility.yul\":2553:2565   */\n      revert\n        /* \"#utility.yul\":2515:2567   */\n    tag_156:\n        /* \"#utility.yul\":2586:2615   */\n      tag_157\n        /* \"#utility.yul\":2605:2614   */\n      dup4\n        /* \"#utility.yul\":2586:2615   */\n      tag_131\n      jump\t// in\n    tag_157:\n        /* \"#utility.yul\":2576:2615   */\n      swap2\n      pop\n        /* \"#utility.yul\":2634:2672   */\n      tag_158\n        /* \"#utility.yul\":2668:2670   */\n      0x20\n        /* \"#utility.yul\":2657:2666   */\n      dup5\n        /* \"#utility.yul\":2653:2671   */\n      add\n        /* \"#utility.yul\":2634:2672   */\n      tag_131\n      jump\t// in\n    tag_158:\n        /* \"#utility.yul\":2624:2672   */\n      swap1\n      pop\n        /* \"#utility.yul\":2418:2678   */\n      swap3\n      pop\n      swap3\n      swap1\n      pop\n      jump\t// out\n        /* \"#utility.yul\":2683:3063   */\n    tag_60:\n        /* \"#utility.yul\":2762:2763   */\n      0x01\n        /* \"#utility.yul\":2758:2770   */\n      dup2\n      dup2\n      shr\n      swap1\n        /* \"#utility.yul\":2805:2817   */\n      dup3\n      and\n      dup1\n        /* \"#utility.yul\":2826:2887   */\n      tag_160\n      jumpi\n        /* \"#utility.yul\":2880:2884   */\n      0x7f\n        /* \"#utility.yul\":2872:2878   */\n      dup3\n        /* \"#utility.yul\":2868:2885   */\n      and\n        /* \"#utility.yul\":2858:2885   */\n      swap2\n      pop\n        /* \"#utility.yul\":2826:2887   */\n    tag_160:\n        /* \"#utility.yul\":2933:2935   */\n      0x20\n        /* \"#utility.yul\":2925:2931   */\n      dup3\n        /* \"#utility.yul\":2922:2936   */\n      lt\n        /* \"#utility.yul\":2902:2920   */\n      dup2\n        /* \"#utility.yul\":2899:2937   */\n      sub\n        /* \"#utility.yul\":2896:3057   */\n      tag_161\n      jumpi\n        /* \"#utility.yul\":2979:2989   */\n      0x4e487b71\n        /* \"#utility.yul\":2974:2977   */\n      0xe0\n        /* \"#utility.yul\":2970:2990   */\n      shl\n        /* \"#utility.yul\":2967:2968   */\n      0x00\n        /* \"#utility.yul\":2960:2991   */\n      mstore\n        /* \"#utility.yul\":3014:3018   */\n      0x22\n        /* \"#utility.yul\":3011:3012   */\n      0x04\n        /* \"#utility.yul\":3004:3019   */\n      mstore\n        /* \"#utility.yul\":3042:3046   */\n      0x24\n        /* \"#utility.yul\":3039:3040   */\n      0x00\n        /* \"#utility.yul\":3032:3047   */\n      revert\n        /* \"#utility.yul\":2896:3057   */\n    tag_161:\n      pop\n        /* \"#utility.yul\":2683:3063   */\n      swap2\n      swap1\n      pop\n      jump\t// out\n        /* \"#utility.yul\":3626:3848   */\n    tag_124:\n        /* \"#utility.yul\":3691:3700   */\n      dup1\n      dup3\n      add\n        /* \"#utility.yul\":3712:3722   */\n      dup1\n      dup3\n      gt\n        /* \"#utility.yul\":3709:3842   */\n      iszero\n      tag_65\n      jumpi\n        /* \"#utility.yul\":3764:3774   */\n      0x4e487b71\n        /* \"#utility.yul\":3759:3762   */\n      0xe0\n        /* \"#utility.yul\":3755:3775   */\n      shl\n        /* \"#utility.yul\":3752:3753   */\n      0x00\n        /* \"#utility.yul\":3745:3776   */\n      mstore\n        /* \"#utility.yul\":3799:3803   */\n      0x11\n        /* \"#utility.yul\":3796:3797   */\n      0x04\n        /* \"#utility.yul\":3789:3804   */\n      mstore\n        /* \"#utility.yul\":3827:3831   */\n      0x24\n        /* \"#utility.yul\":3824:3825   */\n      0x00\n        /* \"#utility.yul\":3817:3832   */\n      revert\n\n    auxdata: 0xa26469706673582212202f6972063924a90b2fe216df232110bbd773a833aa371d7ab576f026113c3d8064736f6c63430008160033\n}\n",
				"bytecode": {
					"linkReferences": {},
					"object": "608060405234801562000010575f80fd5b506040518060400160405280600781526020016626bcaa37b5b2b760c91b815250604051806040016040528060038152602001624d544b60e81b81525081600390816200005e9190620002c0565b5060046200006d8282620002c0565b505050620000a83362000085620000ae60201b60201c565b6200009290600a6200049b565b620000a2906305f5e100620004b2565b620000b3565b620004e2565b601290565b6001600160a01b038216620000e25760405163ec442f0560e01b81525f60048201526024015b60405180910390fd5b620000ef5f8383620000f3565b5050565b6001600160a01b03831662000121578060025f828254620001159190620004cc565b90915550620001939050565b6001600160a01b0383165f9081526020819052604090205481811015620001755760405163391434e360e21b81526001600160a01b03851660048201526024810182905260448101839052606401620000d9565b6001600160a01b0384165f9081526020819052604090209082900390555b6001600160a01b038216620001b157600280548290039055620001cf565b6001600160a01b0382165f9081526020819052604090208054820190555b816001600160a01b0316836001600160a01b03167fddf252ad1be2c89b69c2b068fc378daa952ba7f163c4a11628f55a4df523b3ef836040516200021591815260200190565b60405180910390a3505050565b634e487b7160e01b5f52604160045260245ffd5b600181811c908216806200024b57607f821691505b6020821081036200026a57634e487b7160e01b5f52602260045260245ffd5b50919050565b601f821115620002bb57805f5260205f20601f840160051c81016020851015620002975750805b601f840160051c820191505b81811015620002b8575f8155600101620002a3565b50505b505050565b81516001600160401b03811115620002dc57620002dc62000222565b620002f481620002ed845462000236565b8462000270565b602080601f8311600181146200032a575f8415620003125750858301515b5f19600386901b1c1916600185901b17855562000384565b5f85815260208120601f198616915b828110156200035a5788860151825594840194600190910190840162000339565b50858210156200037857878501515f19600388901b60f8161c191681555b505060018460011b0185555b505050505050565b634e487b7160e01b5f52601160045260245ffd5b600181815b80851115620003e057815f1904821115620003c457620003c46200038c565b80851615620003d257918102915b93841c9390800290620003a5565b509250929050565b5f82620003f85750600162000495565b816200040657505f62000495565b81600181146200041f57600281146200042a576200044a565b600191505062000495565b60ff8411156200043e576200043e6200038c565b50506001821b62000495565b5060208310610133831016604e8410600b84101617156200046f575081810a62000495565b6200047b8383620003a0565b805f19048211156200049157620004916200038c565b0290505b92915050565b5f620004ab60ff841683620003e8565b9392505050565b80820281158282048414176200049557620004956200038c565b808201808211156200049557620004956200038c565b6107ba80620004f05f395ff3fe608060405234801561000f575f80fd5b506004361061009b575f3560e01c8063313ce56711610063578063313ce5671461011a57806370a082311461012957806395d89b4114610151578063a9059cbb14610159578063dd62ed3e1461016c575f80fd5b806306fdde031461009f578063095ea7b3146100bd5780630d0b17ea146100e057806318160ddd146100f557806323b872dd14610107575b5f80fd5b6100a76101a4565b6040516100b491906105e4565b60405180910390f35b6100d06100cb36600461064b565b610234565b60405190151581526020016100b4565b6100f36100ee366004610673565b61024d565b005b6002545b6040519081526020016100b4565b6100d06101153660046106a3565b6102be565b604051601281526020016100b4565b6100f96101373660046106dc565b6001600160a01b03165f9081526020819052604090205490565b6100a76102e1565b6100d061016736600461064b565b6102f0565b6100f961017a3660046106fc565b6001600160a01b039182165f90815260016020908152604080832093909416825291909152205490565b6060600380546101b39061072d565b80601f01602080910402602001604051908101604052809291908181526020018280546101df9061072d565b801561022a5780601f106102015761010080835404028352916020019161022a565b820191905f5260205f20905b81548152906001019060200180831161020d57829003601f168201915b5050505050905090565b5f336102418185856102fd565b60019150505b92915050565b61025833848461030f565b60405162b8f8bb60e51b815233600482015260248101839052604481018290526001600160a01b0384169063171f1760906064015f604051808303815f87803b1580156102a3575f80fd5b505af11580156102b5573d5f803e3d5ffd5b50505050505050565b5f336102cb858285610371565b6102d685858561030f565b506001949350505050565b6060600480546101b39061072d565b5f3361024181858561030f565b61030a83838360016103ec565b505050565b6001600160a01b03831661033d57604051634b637e8f60e11b81525f60048201526024015b60405180910390fd5b6001600160a01b0382166103665760405163ec442f0560e01b81525f6004820152602401610334565b61030a8383836104be565b6001600160a01b038381165f908152600160209081526040808320938616835292905220545f1981146103e657818110156103d857604051637dc7a0d960e11b81526001600160a01b03841660048201526024810182905260448101839052606401610334565b6103e684848484035f6103ec565b50505050565b6001600160a01b0384166104155760405163e602df0560e01b81525f6004820152602401610334565b6001600160a01b03831661043e57604051634a1406b160e11b81525f6004820152602401610334565b6001600160a01b038085165f90815260016020908152604080832093871683529290522082905580156103e657826001600160a01b0316846001600160a01b03167f8c5be1e5ebec7d5bd14f71427d1e84f3dd0314c0f7b2291e5b200ac8c7c3b925846040516104b091815260200190565b60405180910390a350505050565b6001600160a01b0383166104e8578060025f8282546104dd9190610765565b909155506105589050565b6001600160a01b0383165f908152602081905260409020548181101561053a5760405163391434e360e21b81526001600160a01b03851660048201526024810182905260448101839052606401610334565b6001600160a01b0384165f9081526020819052604090209082900390555b6001600160a01b03821661057457600280548290039055610592565b6001600160a01b0382165f9081526020819052604090208054820190555b816001600160a01b0316836001600160a01b03167fddf252ad1be2c89b69c2b068fc378daa952ba7f163c4a11628f55a4df523b3ef836040516105d791815260200190565b60405180910390a3505050565b5f602080835283518060208501525f5b81811015610610578581018301518582016040015282016105f4565b505f604082860101526040601f19601f8301168501019250505092915050565b80356001600160a01b0381168114610646575f80fd5b919050565b5f806040838503121561065c575f80fd5b61066583610630565b946020939093013593505050565b5f805f60608486031215610685575f80fd5b61068e84610630565b95602085013595506040909401359392505050565b5f805f606084860312156106b5575f80fd5b6106be84610630565b92506106cc60208501610630565b9150604084013590509250925092565b5f602082840312156106ec575f80fd5b6106f582610630565b9392505050565b5f806040838503121561070d575f80fd5b61071683610630565b915061072460208401610630565b90509250929050565b600181811c9082168061074157607f821691505b60208210810361075f57634e487b7160e01b5f52602260045260245ffd5b50919050565b8082018082111561024757634e487b7160e01b5f52601160045260245ffdfea26469706673582212202f6972063924a90b2fe216df232110bbd773a833aa371d7ab576f026113c3d8064736f6c63430008160033",
					"opcodes": "PUSH1 0x80 PUSH1 0x40 MSTORE CALLVALUE DUP1 ISZERO PUSH3 0x10 JUMPI PUSH0 DUP1 REVERT JUMPDEST POP PUSH1 0x40 MLOAD DUP1 PUSH1 0x40 ADD PUSH1 0x40 MSTORE DUP1 PUSH1 0x7 DUP2 MSTORE PUSH1 0x20 ADD PUSH7 0x26BCAA37B5B2B7 PUSH1 0xC9 SHL DUP2 MSTORE POP PUSH1 0x40 MLOAD DUP1 PUSH1 0x40 ADD PUSH1 0x40 MSTORE DUP1 PUSH1 0x3 DUP2 MSTORE PUSH1 0x20 ADD PUSH3 0x4D544B PUSH1 0xE8 SHL DUP2 MSTORE POP DUP2 PUSH1 0x3 SWAP1 DUP2 PUSH3 0x5E SWAP2 SWAP1 PUSH3 0x2C0 JUMP JUMPDEST POP PUSH1 0x4 PUSH3 0x6D DUP3 DUP3 PUSH3 0x2C0 JUMP JUMPDEST POP POP POP PUSH3 0xA8 CALLER PUSH3 0x85 PUSH3 0xAE PUSH1 0x20 SHL PUSH1 0x20 SHR JUMP JUMPDEST PUSH3 0x92 SWAP1 PUSH1 0xA PUSH3 0x49B JUMP JUMPDEST PUSH3 0xA2 SWAP1 PUSH4 0x5F5E100 PUSH3 0x4B2 JUMP JUMPDEST PUSH3 0xB3 JUMP JUMPDEST PUSH3 0x4E2 JUMP JUMPDEST PUSH1 0x12 SWAP1 JUMP JUMPDEST PUSH1 0x1 PUSH1 0x1 PUSH1 0xA0 SHL SUB DUP3 AND PUSH3 0xE2 JUMPI PUSH1 0x40 MLOAD PUSH4 0xEC442F05 PUSH1 0xE0 SHL DUP2 MSTORE PUSH0 PUSH1 0x4 DUP3 ADD MSTORE PUSH1 0x24 ADD JUMPDEST PUSH1 0x40 MLOAD DUP1 SWAP2 SUB SWAP1 REVERT JUMPDEST PUSH3 0xEF PUSH0 DUP4 DUP4 PUSH3 0xF3 JUMP JUMPDEST POP POP JUMP JUMPDEST PUSH1 0x1 PUSH1 0x1 PUSH1 0xA0 SHL SUB DUP4 AND PUSH3 0x121 JUMPI DUP1 PUSH1 0x2 PUSH0 DUP3 DUP3 SLOAD PUSH3 0x115 SWAP2 SWAP1 PUSH3 0x4CC JUMP JUMPDEST SWAP1 SWAP2 SSTORE POP PUSH3 0x193 SWAP1 POP JUMP JUMPDEST PUSH1 0x1 PUSH1 0x1 PUSH1 0xA0 SHL SUB DUP4 AND PUSH0 SWAP1 DUP2 MSTORE PUSH1 0x20 DUP2 SWAP1 MSTORE PUSH1 0x40 SWAP1 KECCAK256 SLOAD DUP2 DUP2 LT ISZERO PUSH3 0x175 JUMPI PUSH1 0x40 MLOAD PUSH4 0x391434E3 PUSH1 0xE2 SHL DUP2 MSTORE PUSH1 0x1 PUSH1 0x1 PUSH1 0xA0 SHL SUB DUP6 AND PUSH1 0x4 DUP3 ADD MSTORE PUSH1 0x24 DUP2 ADD DUP3 SWAP1 MSTORE PUSH1 0x44 DUP2 ADD DUP4 SWAP1 MSTORE PUSH1 0x64 ADD PUSH3 0xD9 JUMP JUMPDEST PUSH1 0x1 PUSH1 0x1 PUSH1 0xA0 SHL SUB DUP5 AND PUSH0 SWAP1 DUP2 MSTORE PUSH1 0x20 DUP2 SWAP1 MSTORE PUSH1 0x40 SWAP1 KECCAK256 SWAP1 DUP3 SWAP1 SUB SWAP1 SSTORE JUMPDEST PUSH1 0x1 PUSH1 0x1 PUSH1 0xA0 SHL SUB DUP3 AND PUSH3 0x1B1 JUMPI PUSH1 0x2 DUP1 SLOAD DUP3 SWAP1 SUB SWAP1 SSTORE PUSH3 0x1CF JUMP JUMPDEST PUSH1 0x1 PUSH1 0x1 PUSH1 0xA0 SHL SUB DUP3 AND PUSH0 SWAP1 DUP2 MSTORE PUSH1 0x20 DUP2 SWAP1 MSTORE PUSH1 0x40 SWAP1 KECCAK256 DUP1 SLOAD DUP3 ADD SWAP1 SSTORE JUMPDEST DUP2 PUSH1 0x1 PUSH1 0x1 PUSH1 0xA0 SHL SUB AND DUP4 PUSH1 0x1 PUSH1 0x1 PUSH1 0xA0 SHL SUB AND PUSH32 0xDDF252AD1BE2C89B69C2B068FC378DAA952BA7F163C4A11628F55A4DF523B3EF DUP4 PUSH1 0x40 MLOAD PUSH3 0x215 SWAP2 DUP2 MSTORE PUSH1 0x20 ADD SWAP1 JUMP JUMPDEST PUSH1 0x40 MLOAD DUP1 SWAP2 SUB SWAP1 LOG3 POP POP POP JUMP JUMPDEST PUSH4 0x4E487B71 PUSH1 0xE0 SHL PUSH0 MSTORE PUSH1 0x41 PUSH1 0x4 MSTORE PUSH1 0x24 PUSH0 REVERT JUMPDEST PUSH1 0x1 DUP2 DUP2 SHR SWAP1 DUP3 AND DUP1 PUSH3 0x24B JUMPI PUSH1 0x7F DUP3 AND SWAP2 POP JUMPDEST PUSH1 0x20 DUP3 LT DUP2 SUB PUSH3 0x26A JUMPI PUSH4 0x4E487B71 PUSH1 0xE0 SHL PUSH0 MSTORE PUSH1 0x22 PUSH1 0x4 MSTORE PUSH1 0x24 PUSH0 REVERT JUMPDEST POP SWAP2 SWAP1 POP JUMP JUMPDEST PUSH1 0x1F DUP3 GT ISZERO PUSH3 0x2BB JUMPI DUP1 PUSH0 MSTORE PUSH1 0x20 PUSH0 KECCAK256 PUSH1 0x1F DUP5 ADD PUSH1 0x5 SHR DUP2 ADD PUSH1 0x20 DUP6 LT ISZERO PUSH3 0x297 JUMPI POP DUP1 JUMPDEST PUSH1 0x1F DUP5 ADD PUSH1 0x5 SHR DUP3 ADD SWAP2 POP JUMPDEST DUP2 DUP2 LT ISZERO PUSH3 0x2B8 JUMPI PUSH0 DUP2 SSTORE PUSH1 0x1 ADD PUSH3 0x2A3 JUMP JUMPDEST POP POP JUMPDEST POP POP POP JUMP JUMPDEST DUP2 MLOAD PUSH1 0x1 PUSH1 0x1 PUSH1 0x40 SHL SUB DUP2 GT ISZERO PUSH3 0x2DC JUMPI PUSH3 0x2DC PUSH3 0x222 JUMP JUMPDEST PUSH3 0x2F4 DUP2 PUSH3 0x2ED DUP5 SLOAD PUSH3 0x236 JUMP JUMPDEST DUP5 PUSH3 0x270 JUMP JUMPDEST PUSH1 0x20 DUP1 PUSH1 0x1F DUP4 GT PUSH1 0x1 DUP2 EQ PUSH3 0x32A JUMPI PUSH0 DUP5 ISZERO PUSH3 0x312 JUMPI POP DUP6 DUP4 ADD MLOAD JUMPDEST PUSH0 NOT PUSH1 0x3 DUP7 SWAP1 SHL SHR NOT AND PUSH1 0x1 DUP6 SWAP1 SHL OR DUP6 SSTORE PUSH3 0x384 JUMP JUMPDEST PUSH0 DUP6 DUP2 MSTORE PUSH1 0x20 DUP2 KECCAK256 PUSH1 0x1F NOT DUP7 AND SWAP2 JUMPDEST DUP3 DUP2 LT ISZERO PUSH3 0x35A JUMPI DUP9 DUP7 ADD MLOAD DUP3 SSTORE SWAP5 DUP5 ADD SWAP5 PUSH1 0x1 SWAP1 SWAP2 ADD SWAP1 DUP5 ADD PUSH3 0x339 JUMP JUMPDEST POP DUP6 DUP3 LT ISZERO PUSH3 0x378 JUMPI DUP8 DUP6 ADD MLOAD PUSH0 NOT PUSH1 0x3 DUP9 SWAP1 SHL PUSH1 0xF8 AND SHR NOT AND DUP2 SSTORE JUMPDEST POP POP PUSH1 0x1 DUP5 PUSH1 0x1 SHL ADD DUP6 SSTORE JUMPDEST POP POP POP POP POP POP JUMP JUMPDEST PUSH4 0x4E487B71 PUSH1 0xE0 SHL PUSH0 MSTORE PUSH1 0x11 PUSH1 0x4 MSTORE PUSH1 0x24 PUSH0 REVERT JUMPDEST PUSH1 0x1 DUP2 DUP2 JUMPDEST DUP1 DUP6 GT ISZERO PUSH3 0x3E0 JUMPI DUP2 PUSH0 NOT DIV DUP3 GT ISZERO PUSH3 0x3C4 JUMPI PUSH3 0x3C4 PUSH3 0x38C JUMP JUMPDEST DUP1 DUP6 AND ISZERO PUSH3 0x3D2 JUMPI SWAP2 DUP2 MUL SWAP2 JUMPDEST SWAP4 DUP5 SHR SWAP4 SWAP1 DUP1 MUL SWAP1 PUSH3 0x3A5 JUMP JUMPDEST POP SWAP3 POP SWAP3 SWAP1 POP JUMP JUMPDEST PUSH0 DUP3 PUSH3 0x3F8 JUMPI POP PUSH1 0x1 PUSH3 0x495 JUMP JUMPDEST DUP2 PUSH3 0x406 JUMPI POP PUSH0 PUSH3 0x495 JUMP JUMPDEST DUP2 PUSH1 0x1 DUP2 EQ PUSH3 0x41F JUMPI PUSH1 0x2 DUP2 EQ PUSH3 0x42A JUMPI PUSH3 0x44A JUMP JUMPDEST PUSH1 0x1 SWAP2 POP POP PUSH3 0x495 JUMP JUMPDEST PUSH1 0xFF DUP5 GT ISZERO PUSH3 0x43E JUMPI PUSH3 0x43E PUSH3 0x38C JUMP JUMPDEST POP POP PUSH1 0x1 DUP3 SHL PUSH3 0x495 JUMP JUMPDEST POP PUSH1 0x20 DUP4 LT PUSH2 0x133 DUP4 LT AND PUSH1 0x4E DUP5 LT PUSH1 0xB DUP5 LT AND OR ISZERO PUSH3 0x46F JUMPI POP DUP2 DUP2 EXP PUSH3 0x495 JUMP JUMPDEST PUSH3 0x47B DUP4 DUP4 PUSH3 0x3A0 JUMP JUMPDEST DUP1 PUSH0 NOT DIV DUP3 GT ISZERO PUSH3 0x491 JUMPI PUSH3 0x491 PUSH3 0x38C JUMP JUMPDEST MUL SWAP1 POP JUMPDEST SWAP3 SWAP2 POP POP JUMP JUMPDEST PUSH0 PUSH3 0x4AB PUSH1 0xFF DUP5 AND DUP4 PUSH3 0x3E8 JUMP JUMPDEST SWAP4 SWAP3 POP POP POP JUMP JUMPDEST DUP1 DUP3 MUL DUP2 ISZERO DUP3 DUP3 DIV DUP5 EQ OR PUSH3 0x495 JUMPI PUSH3 0x495 PUSH3 0x38C JUMP JUMPDEST DUP1 DUP3 ADD DUP1 DUP3 GT ISZERO PUSH3 0x495 JUMPI PUSH3 0x495 PUSH3 0x38C JUMP JUMPDEST PUSH2 0x7BA DUP1 PUSH3 0x4F0 PUSH0 CODECOPY PUSH0 RETURN INVALID PUSH1 0x80 PUSH1 0x40 MSTORE CALLVALUE DUP1 ISZERO PUSH2 0xF JUMPI PUSH0 DUP1 REVERT JUMPDEST POP PUSH1 0x4 CALLDATASIZE LT PUSH2 0x9B JUMPI PUSH0 CALLDATALOAD PUSH1 0xE0 SHR DUP1 PUSH4 0x313CE567 GT PUSH2 0x63 JUMPI DUP1 PUSH4 0x313CE567 EQ PUSH2 0x11A JUMPI DUP1 PUSH4 0x70A08231 EQ PUSH2 0x129 JUMPI DUP1 PUSH4 0x95D89B41 EQ PUSH2 0x151 JUMPI DUP1 PUSH4 0xA9059CBB EQ PUSH2 0x159 JUMPI DUP1 PUSH4 0xDD62ED3E EQ PUSH2 0x16C JUMPI PUSH0 DUP1 REVERT JUMPDEST DUP1 PUSH4 0x6FDDE03 EQ PUSH2 0x9F JUMPI DUP1 PUSH4 0x95EA7B3 EQ PUSH2 0xBD JUMPI DUP1 PUSH4 0xD0B17EA EQ PUSH2 0xE0 JUMPI DUP1 PUSH4 0x18160DDD EQ PUSH2 0xF5 JUMPI DUP1 PUSH4 0x23B872DD EQ PUSH2 0x107 JUMPI JUMPDEST PUSH0 DUP1 REVERT JUMPDEST PUSH2 0xA7 PUSH2 0x1A4 JUMP JUMPDEST PUSH1 0x40 MLOAD PUSH2 0xB4 SWAP2 SWAP1 PUSH2 0x5E4 JUMP JUMPDEST PUSH1 0x40 MLOAD DUP1 SWAP2 SUB SWAP1 RETURN JUMPDEST PUSH2 0xD0 PUSH2 0xCB CALLDATASIZE PUSH1 0x4 PUSH2 0x64B JUMP JUMPDEST PUSH2 0x234 JUMP JUMPDEST PUSH1 0x40 MLOAD SWAP1 ISZERO ISZERO DUP2 MSTORE PUSH1 0x20 ADD PUSH2 0xB4 JUMP JUMPDEST PUSH2 0xF3 PUSH2 0xEE CALLDATASIZE PUSH1 0x4 PUSH2 0x673 JUMP JUMPDEST PUSH2 0x24D JUMP JUMPDEST STOP JUMPDEST PUSH1 0x2 SLOAD JUMPDEST PUSH1 0x40 MLOAD SWAP1 DUP2 MSTORE PUSH1 0x20 ADD PUSH2 0xB4 JUMP JUMPDEST PUSH2 0xD0 PUSH2 0x115 CALLDATASIZE PUSH1 0x4 PUSH2 0x6A3 JUMP JUMPDEST PUSH2 0x2BE JUMP JUMPDEST PUSH1 0x40 MLOAD PUSH1 0x12 DUP2 MSTORE PUSH1 0x20 ADD PUSH2 0xB4 JUMP JUMPDEST PUSH2 0xF9 PUSH2 0x137 CALLDATASIZE PUSH1 0x4 PUSH2 0x6DC JUMP JUMPDEST PUSH1 0x1 PUSH1 0x1 PUSH1 0xA0 SHL SUB AND PUSH0 SWAP1 DUP2 MSTORE PUSH1 0x20 DUP2 SWAP1 MSTORE PUSH1 0x40 SWAP1 KECCAK256 SLOAD SWAP1 JUMP JUMPDEST PUSH2 0xA7 PUSH2 0x2E1 JUMP JUMPDEST PUSH2 0xD0 PUSH2 0x167 CALLDATASIZE PUSH1 0x4 PUSH2 0x64B JUMP JUMPDEST PUSH2 0x2F0 JUMP JUMPDEST PUSH2 0xF9 PUSH2 0x17A CALLDATASIZE PUSH1 0x4 PUSH2 0x6FC JUMP JUMPDEST PUSH1 0x1 PUSH1 0x1 PUSH1 0xA0 SHL SUB SWAP2 DUP3 AND PUSH0 SWAP1 DUP2 MSTORE PUSH1 0x1 PUSH1 0x20 SWAP1 DUP2 MSTORE PUSH1 0x40 DUP1 DUP4 KECCAK256 SWAP4 SWAP1 SWAP5 AND DUP3 MSTORE SWAP2 SWAP1 SWAP2 MSTORE KECCAK256 SLOAD SWAP1 JUMP JUMPDEST PUSH1 0x60 PUSH1 0x3 DUP1 SLOAD PUSH2 0x1B3 SWAP1 PUSH2 0x72D JUMP JUMPDEST DUP1 PUSH1 0x1F ADD PUSH1 0x20 DUP1 SWAP2 DIV MUL PUSH1 0x20 ADD PUSH1 0x40 MLOAD SWAP1 DUP2 ADD PUSH1 0x40 MSTORE DUP1 SWAP3 SWAP2 SWAP1 DUP2 DUP2 MSTORE PUSH1 0x20 ADD DUP3 DUP1 SLOAD PUSH2 0x1DF SWAP1 PUSH2 0x72D JUMP JUMPDEST DUP1 ISZERO PUSH2 0x22A JUMPI DUP1 PUSH1 0x1F LT PUSH2 0x201 JUMPI PUSH2 0x100 DUP1 DUP4 SLOAD DIV MUL DUP4 MSTORE SWAP2 PUSH1 0x20 ADD SWAP2 PUSH2 0x22A JUMP JUMPDEST DUP3 ADD SWAP2 SWAP1 PUSH0 MSTORE PUSH1 0x20 PUSH0 KECCAK256 SWAP1 JUMPDEST DUP2 SLOAD DUP2 MSTORE SWAP1 PUSH1 0x1 ADD SWAP1 PUSH1 0x20 ADD DUP1 DUP4 GT PUSH2 0x20D JUMPI DUP3 SWAP1 SUB PUSH1 0x1F AND DUP3 ADD SWAP2 JUMPDEST POP POP POP POP POP SWAP1 POP SWAP1 JUMP JUMPDEST PUSH0 CALLER PUSH2 0x241 DUP2 DUP6 DUP6 PUSH2 0x2FD JUMP JUMPDEST PUSH1 0x1 SWAP2 POP POP JUMPDEST SWAP3 SWAP2 POP POP JUMP JUMPDEST PUSH2 0x258 CALLER DUP5 DUP5 PUSH2 0x30F JUMP JUMPDEST PUSH1 0x40 MLOAD PUSH3 0xB8F8BB PUSH1 0xE5 SHL DUP2 MSTORE CALLER PUSH1 0x4 DUP3 ADD MSTORE PUSH1 0x24 DUP2 ADD DUP4 SWAP1 MSTORE PUSH1 0x44 DUP2 ADD DUP3 SWAP1 MSTORE PUSH1 0x1 PUSH1 0x1 PUSH1 0xA0 SHL SUB DUP5 AND SWAP1 PUSH4 0x171F1760 SWAP1 PUSH1 0x64 ADD PUSH0 PUSH1 0x40 MLOAD DUP1 DUP4 SUB DUP2 PUSH0 DUP8 DUP1 EXTCODESIZE ISZERO DUP1 ISZERO PUSH2 0x2A3 JUMPI PUSH0 DUP1 REVERT JUMPDEST POP GAS CALL ISZERO DUP1 ISZERO PUSH2 0x2B5 JUMPI RETURNDATASIZE PUSH0 DUP1 RETURNDATACOPY RETURNDATASIZE PUSH0 REVERT JUMPDEST POP POP POP POP POP POP POP JUMP JUMPDEST PUSH0 CALLER PUSH2 0x2CB DUP6 DUP3 DUP6 PUSH2 0x371 JUMP JUMPDEST PUSH2 0x2D6 DUP6 DUP6 DUP6 PUSH2 0x30F JUMP JUMPDEST POP PUSH1 0x1 SWAP5 SWAP4 POP POP POP POP JUMP JUMPDEST PUSH1 0x60 PUSH1 0x4 DUP1 SLOAD PUSH2 0x1B3 SWAP1 PUSH2 0x72D JUMP JUMPDEST PUSH0 CALLER PUSH2 0x241 DUP2 DUP6 DUP6 PUSH2 0x30F JUMP JUMPDEST PUSH2 0x30A DUP4 DUP4 DUP4 PUSH1 0x1 PUSH2 0x3EC JUMP JUMPDEST POP POP POP JUMP JUMPDEST PUSH1 0x1 PUSH1 0x1 PUSH1 0xA0 SHL SUB DUP4 AND PUSH2 0x33D JUMPI PUSH1 0x40 MLOAD PUSH4 0x4B637E8F PUSH1 0xE1 SHL DUP2 MSTORE PUSH0 PUSH1 0x4 DUP3 ADD MSTORE PUSH1 0x24 ADD JUMPDEST PUSH1 0x40 MLOAD DUP1 SWAP2 SUB SWAP1 REVERT JUMPDEST PUSH1 0x1 PUSH1 0x1 PUSH1 0xA0 SHL SUB DUP3 AND PUSH2 0x366 JUMPI PUSH1 0x40 MLOAD PUSH4 0xEC442F05 PUSH1 0xE0 SHL DUP2 MSTORE PUSH0 PUSH1 0x4 DUP3 ADD MSTORE PUSH1 0x24 ADD PUSH2 0x334 JUMP JUMPDEST PUSH2 0x30A DUP4 DUP4 DUP4 PUSH2 0x4BE JUMP JUMPDEST PUSH1 0x1 PUSH1 0x1 PUSH1 0xA0 SHL SUB DUP4 DUP2 AND PUSH0 SWAP1 DUP2 MSTORE PUSH1 0x1 PUSH1 0x20 SWAP1 DUP2 MSTORE PUSH1 0x40 DUP1 DUP4 KECCAK256 SWAP4 DUP7 AND DUP4 MSTORE SWAP3 SWAP1 MSTORE KECCAK256 SLOAD PUSH0 NOT DUP2 EQ PUSH2 0x3E6 JUMPI DUP2 DUP2 LT ISZERO PUSH2 0x3D8 JUMPI PUSH1 0x40 MLOAD PUSH4 0x7DC7A0D9 PUSH1 0xE1 SHL DUP2 MSTORE PUSH1 0x1 PUSH1 0x1 PUSH1 0xA0 SHL SUB DUP5 AND PUSH1 0x4 DUP3 ADD MSTORE PUSH1 0x24 DUP2 ADD DUP3 SWAP1 MSTORE PUSH1 0x44 DUP2 ADD DUP4 SWAP1 MSTORE PUSH1 0x64 ADD PUSH2 0x334 JUMP JUMPDEST PUSH2 0x3E6 DUP5 DUP5 DUP5 DUP5 SUB PUSH0 PUSH2 0x3EC JUMP JUMPDEST POP POP POP POP JUMP JUMPDEST PUSH1 0x1 PUSH1 0x1 PUSH1 0xA0 SHL SUB DUP5 AND PUSH2 0x415 JUMPI PUSH1 0x40 MLOAD PUSH4 0xE602DF05 PUSH1 0xE0 SHL DUP2 MSTORE PUSH0 PUSH1 0x4 DUP3 ADD MSTORE PUSH1 0x24 ADD PUSH2 0x334 JUMP JUMPDEST PUSH1 0x1 PUSH1 0x1 PUSH1 0xA0 SHL SUB DUP4 AND PUSH2 0x43E JUMPI PUSH1 0x40 MLOAD PUSH4 0x4A1406B1 PUSH1 0xE1 SHL DUP2 MSTORE PUSH0 PUSH1 0x4 DUP3 ADD MSTORE PUSH1 0x24 ADD PUSH2 0x334 JUMP JUMPDEST PUSH1 0x1 PUSH1 0x1 PUSH1 0xA0 SHL SUB DUP1 DUP6 AND PUSH0 SWAP1 DUP2 MSTORE PUSH1 0x1 PUSH1 0x20 SWAP1 DUP2 MSTORE PUSH1 0x40 DUP1 DUP4 KECCAK256 SWAP4 DUP8 AND DUP4 MSTORE SWAP3 SWAP1 MSTORE KECCAK256 DUP3 SWAP1 SSTORE DUP1 ISZERO PUSH2 0x3E6 JUMPI DUP3 PUSH1 0x1 PUSH1 0x1 PUSH1 0xA0 SHL SUB AND DUP5 PUSH1 0x1 PUSH1 0x1 PUSH1 0xA0 SHL SUB AND PUSH32 0x8C5BE1E5EBEC7D5BD14F71427D1E84F3DD0314C0F7B2291E5B200AC8C7C3B925 DUP5 PUSH1 0x40 MLOAD PUSH2 0x4B0 SWAP2 DUP2 MSTORE PUSH1 0x20 ADD SWAP1 JUMP JUMPDEST PUSH1 0x40 MLOAD DUP1 SWAP2 SUB SWAP1 LOG3 POP POP POP POP JUMP JUMPDEST PUSH1 0x1 PUSH1 0x1 PUSH1 0xA0 SHL SUB DUP4 AND PUSH2 0x4E8 JUMPI DUP1 PUSH1 0x2 PUSH0 DUP3 DUP3 SLOAD PUSH2 0x4DD SWAP2 SWAP1 PUSH2 0x765 JUMP JUMPDEST SWAP1 SWAP2 SSTORE POP PUSH2 0x558 SWAP1 POP JUMP JUMPDEST PUSH1 0x1 PUSH1 0x1 PUSH1 0xA0 SHL SUB DUP4 AND PUSH0 SWAP1 DUP2 MSTORE PUSH1 0x20 DUP2 SWAP1 MSTORE PUSH1 0x40 SWAP1 KECCAK256 SLOAD DUP2 DUP2 LT ISZERO PUSH2 0x53A JUMPI PUSH1 0x40 MLOAD PUSH4 0x391434E3 PUSH1 0xE2 SHL DUP2 MSTORE PUSH1 0x1 PUSH1 0x1 PUSH1 0xA0 SHL SUB DUP6 AND PUSH1 0x4 DUP3 ADD MSTORE PUSH1 0x24 DUP2 ADD DUP3 SWAP1 MSTORE PUSH1 0x44 DUP2 ADD DUP4 SWAP1 MSTORE PUSH1 0x64 ADD PUSH2 0x334 JUMP JUMPDEST PUSH1 0x1 PUSH1 0x1 PUSH1 0xA0 SHL SUB DUP5 AND PUSH0 SWAP1 DUP2 MSTORE PUSH1 0x20 DUP2 SWAP1 MSTORE PUSH1 0x40 SWAP1 KECCAK256 SWAP1 DUP3 SWAP1 SUB SWAP1 SSTORE JUMPDEST PUSH1 0x1 PUSH1 0x1 PUSH1 0xA0 SHL SUB DUP3 AND PUSH2 0x574 JUMPI PUSH1 0x2 DUP1 SLOAD DUP3 SWAP1 SUB SWAP1 SSTORE PUSH2 0x592 JUMP JUMPDEST PUSH1 0x1 PUSH1 0x1 PUSH1 0xA0 SHL SUB DUP3 AND PUSH0 SWAP1 DUP2 MSTORE PUSH1 0x20 DUP2 SWAP1 MSTORE PUSH1 0x40 SWAP1 KECCAK256 DUP1 SLOAD DUP3 ADD SWAP1 SSTORE JUMPDEST DUP2 PUSH1 0x1 PUSH1 0x1 PUSH1 0xA0 SHL SUB AND DUP4 PUSH1 0x1 PUSH1 0x1 PUSH1 0xA0 SHL SUB AND PUSH32 0xDDF252AD1BE2C89B69C2B068FC378DAA952BA7F163C4A11628F55A4DF523B3EF DUP4 PUSH1 0x40 MLOAD PUSH2 0x5D7 SWAP2 DUP2 MSTORE PUSH1 0x20 ADD SWAP1 JUMP JUMPDEST PUSH1 0x40 MLOAD DUP1 SWAP2 SUB SWAP1 LOG3 POP POP POP JUMP JUMPDEST PUSH0 PUSH1 0x20 DUP1 DUP4 MSTORE DUP4 MLOAD DUP1 PUSH1 0x20 DUP6 ADD MSTORE PUSH0 JUMPDEST DUP2 DUP2 LT ISZERO PUSH2 0x610 JUMPI DUP6 DUP2 ADD DUP4 ADD MLOAD DUP6 DUP3 ADD PUSH1 0x40 ADD MSTORE DUP3 ADD PUSH2 0x5F4 JUMP JUMPDEST POP PUSH0 PUSH1 0x40 DUP3 DUP7 ADD ADD MSTORE PUSH1 0x40 PUSH1 0x1F NOT PUSH1 0x1F DUP4 ADD AND DUP6 ADD ADD SWAP3 POP POP POP SWAP3 SWAP2 POP POP JUMP JUMPDEST DUP1 CALLDATALOAD PUSH1 0x1 PUSH1 0x1 PUSH1 0xA0 SHL SUB DUP2 AND DUP2 EQ PUSH2 0x646 JUMPI PUSH0 DUP1 REVERT JUMPDEST SWAP2 SWAP1 POP JUMP JUMPDEST PUSH0 DUP1 PUSH1 0x40 DUP4 DUP6 SUB SLT ISZERO PUSH2 0x65C JUMPI PUSH0 DUP1 REVERT JUMPDEST PUSH2 0x665 DUP4 PUSH2 0x630 JUMP JUMPDEST SWAP5 PUSH1 0x20 SWAP4 SWAP1 SWAP4 ADD CALLDATALOAD SWAP4 POP POP POP JUMP JUMPDEST PUSH0 DUP1 PUSH0 PUSH1 0x60 DUP5 DUP7 SUB SLT ISZERO PUSH2 0x685 JUMPI PUSH0 DUP1 REVERT JUMPDEST PUSH2 0x68E DUP5 PUSH2 0x630 JUMP JUMPDEST SWAP6 PUSH1 0x20 DUP6 ADD CALLDATALOAD SWAP6 POP PUSH1 0x40 SWAP1 SWAP5 ADD CALLDATALOAD SWAP4 SWAP3 POP POP POP JUMP JUMPDEST PUSH0 DUP1 PUSH0 PUSH1 0x60 DUP5 DUP7 SUB SLT ISZERO PUSH2 0x6B5 JUMPI PUSH0 DUP1 REVERT JUMPDEST PUSH2 0x6BE DUP5 PUSH2 0x630 JUMP JUMPDEST SWAP3 POP PUSH2 0x6CC PUSH1 0x20 DUP6 ADD PUSH2 0x630 JUMP JUMPDEST SWAP2 POP PUSH1 0x40 DUP5 ADD CALLDATALOAD SWAP1 POP SWAP3 POP SWAP3 POP SWAP3 JUMP JUMPDEST PUSH0 PUSH1 0x20 DUP3 DUP5 SUB SLT ISZERO PUSH2 0x6EC JUMPI PUSH0 DUP1 REVERT JUMPDEST PUSH2 0x6F5 DUP3 PUSH2 0x630 JUMP JUMPDEST SWAP4 SWAP3 POP POP POP JUMP JUMPDEST PUSH0 DUP1 PUSH1 0x40 DUP4 DUP6 SUB SLT ISZERO PUSH2 0x70D JUMPI PUSH0 DUP1 REVERT JUMPDEST PUSH2 0x716 DUP4 PUSH2 0x630 JUMP JUMPDEST SWAP2 POP PUSH2 0x724 PUSH1 0x20 DUP5 ADD PUSH2 0x630 JUMP JUMPDEST SWAP1 POP SWAP3 POP SWAP3 SWAP1 POP JUMP JUMPDEST PUSH1 0x1 DUP2 DUP2 SHR SWAP1 DUP3 AND DUP1 PUSH2 0x741 JUMPI PUSH1 0x7F DUP3 AND SWAP2 POP JUMPDEST PUSH1 0x20 DUP3 LT DUP2 SUB PUSH2 0x75F JUMPI PUSH4 0x4E487B71 PUSH1 0xE0 SHL PUSH0 MSTORE PUSH1 0x22 PUSH1 0x4 MSTORE PUSH1 0x24 PUSH0 REVERT JUMPDEST POP SWAP2 SWAP1 POP JUMP JUMPDEST DUP1 DUP3 ADD DUP1 DUP3 GT ISZERO PUSH2 0x247 JUMPI PUSH4 0x4E487B71 PUSH1 0xE0 SHL PUSH0 MSTORE PUSH1 0x11 PUSH1 0x4 MSTORE PUSH1 0x24 PUSH0 REVERT INVALID LOG2 PUSH5 0x6970667358 0x22 SLT KECCAK256 0x2F PUSH10 0x72063924A90B2FE216DF 0x23 0x21 LT 0xBB 0xD7 PUSH20 0xA833AA371D7AB576F026113C3D8064736F6C6343 STOP ADDMOD AND STOP CALLER "
				},
				"gasEstimates": {
					"creation": {
						"codeDepositCost": "395600",
						"executionCost": "infinite",
						"totalCost": "infinite"
					},
					"external": {
						"allowance(address,address)": "infinite",
						"approve(address,uint256)": "24735",
						"balanceOf(address)": "2559",
						"decimals()": "176",
						"name()": "infinite",
						"symbol()": "infinite",
						"totalSupply()": "2347",
						"transfer(address,uint256)": "51282",
						"transferFrom(address,address,uint256)": "infinite",
						"transferWithCallback(address,uint256,uint256)": "infinite"
					},
					"internal": {
						"_isContract(address)": "infinite"
					}
				},
				"methodIdentifiers": {
					"allowance(address,address)": "dd62ed3e",
					"approve(address,uint256)": "095ea7b3",
					"balanceOf(address)": "70a08231",
					"decimals()": "313ce567",
					"name()": "06fdde03",
					"symbol()": "95d89b41",
					"totalSupply()": "18160ddd",
					"transfer(address,uint256)": "a9059cbb",
					"transferFrom(address,address,uint256)": "23b872dd",
					"transferWithCallback(address,uint256,uint256)": "0d0b17ea"
				}
			},
			"storageLayout": {
				"storage": [
					{
						"astId": 159,
						"contract": "src/MyERC20.sol:MyERC20",
						"label": "_balances",
						"offset": 0,
						"slot": "0",
						"type": "t_mapping(t_address,t_uint256)"
					},
					{
						"astId": 165,
						"contract": "src/MyERC20.sol:MyERC20",
						"label": "_allowances",
						"offset": 0,
						"slot": "1",
						"type": "t_mapping(t_address,t_mapping(t_address,t_uint256))"
					},
					{
						"astId": 167,
						"contract": "src/MyERC20.sol:MyERC20",
						"label": "_totalSupply",
						"offset": 0,
						"slot": "2",
						"type": "t_uint256"
					},
					{
						"astId": 169,
						"contract": "src/MyERC20.sol:MyERC20",
						"label": "_name",
						"offset": 0,
						"slot": "3",
						"type": "t_string_storage"
					},
					{
						"astId": 171,
						"contract": "src/MyERC20.sol:MyERC20",
						"label": "_symbol",
						"offset": 0,
						"slot": "4",
						"type": "t_string_storage"
					}
				],
				"types": {
					"t_address": {
						"encoding": "inplace",
						"label": "address",
						"numberOfBytes": "20"
					},
					"t_mapping(t_address,t_mapping(t_address,t_uint256))": {
						"encoding": "mapping",
						"key": "t_address",
						"label": "mapping(address => mapping(address => uint256))",
						"numberOfBytes": "32",
						"value": "t_mapping(t_address,t_uint256)"
					},
					"t_mapping(t_address,t_uint256)": {
						"encoding": "mapping",
						"key": "t_address",
						"label": "mapping(address => uint256)",
						"numberOfBytes": "32",
						"value": "t_uint256"
					},
					"t_string_storage": {
						"encoding": "bytes",
						"label": "string",
						"numberOfBytes": "32"
					},
					"t_uint256": {
						"encoding": "inplace",
						"label": "uint256",
						"numberOfBytes": "32"
					}
				}
			},
			"userdoc": {
				"kind": "user",
				"methods": {},
				"version": 1
			}
		}
	}
}