{
	"src/MyERC20.sol": {
		"MyERC20": {
			"abi": [
				{
					"inputs": [],
					"stateMutability": "nonpayable",
					"type": "constructor"
				},
				{
					"inputs": [
						{
							"internalType": "address",
							"name": "spender",
							"type": "address"
						},
						{
							"internalType": "uint256",
							"name": "allowance",
							"type": "uint256"
						},
						{
							"internalType": "uint256",
							"name": "needed",
							"type": "uint256"
						}
					],
					"name": "ERC20InsufficientAllowance",
					"type": "error"
				},
				{
					"inputs": [
						{
							"internalType": "address",
							"name": "sender",
							"type": "address"
						},
						{
							"internalType": "uint256",
							"name": "balance",
							"type": "uint256"
						},
						{
							"internalType": "uint256",
							"name": "needed",
							"type": "uint256"
						}
					],
					"name": "ERC20InsufficientBalance",
					"type": "error"
				},
				{
					"inputs": [
						{
							"internalType": "address",
							"name": "approver",
							"type": "address"
						}
					],
					"name": "ERC20InvalidApprover",
					"type": "error"
				},
				{
					"inputs": [
						{
							"internalType": "address",
							"name": "receiver",
							"type": "address"
						}
					],
					"name": "ERC20InvalidReceiver",
					"type": "error"
				},
				{
					"inputs": [
						{
							"internalType": "address",
							"name": "sender",
							"type": "address"
						}
					],
					"name": "ERC20InvalidSender",
					"type": "error"
				},
				{
					"inputs": [
						{
							"internalType": "address",
							"name": "spender",
							"type": "address"
						}
					],
					"name": "ERC20InvalidSpender",
					"type": "error"
				},
				{
					"anonymous": false,
					"inputs": [
						{
							"indexed": true,
							"internalType": "address",
							"name": "owner",
							"type": "address"
						},
						{
							"indexed": true,
							"internalType": "address",
							"name": "spender",
							"type": "address"
						},
						{
							"indexed": false,
							"internalType": "uint256",
							"name": "value",
							"type": "uint256"
						}
					],
					"name": "Approval",
					"type": "event"
				},
				{
					"anonymous": false,
					"inputs": [
						{
							"indexed": true,
							"internalType": "address",
							"name": "to",
							"type": "address"
						},
						{
							"indexed": false,
							"internalType": "uint256",
							"name": "amount",
							"type": "uint256"
						}
					],
					"name": "Mint",
					"type": "event"
				},
				{
					"anonymous": false,
					"inputs": [
						{
							"indexed": true,
							"internalType": "address",
							"name": "from",
							"type": "address"
						},
						{
							"indexed": true,
							"internalType": "address",
							"name": "to",
							"type": "address"
						},
						{
							"indexed": false,
							"internalType": "uint256",
							"name": "value",
							"type": "uint256"
						}
					],
					"name": "Transfer",
					"type": "event"
				},
				{
					"inputs": [
						{
							"internalType": "address",
							"name": "account",
							"type": "address"
						},
						{
							"internalType": "uint256",
							"name": "value",
							"type": "uint256"
						}
					],
					"name": "_mint",
					"outputs": [],
					"stateMutability": "nonpayable",
					"type": "function"
				},
				{
					"inputs": [],
					"name": "_name",
					"outputs": [
						{
							"internalType": "string",
							"name": "",
							"type": "string"
						}
					],
					"stateMutability": "view",
					"type": "function"
				},
				{
					"inputs": [],
					"name": "_symbol",
					"outputs": [
						{
							"internalType": "string",
							"name": "",
							"type": "string"
						}
					],
					"stateMutability": "view",
					"type": "function"
				},
				{
					"inputs": [],
					"name": "_totalSupply",
					"outputs": [
						{
							"internalType": "uint256",
							"name": "",
							"type": "uint256"
						}
					],
					"stateMutability": "view",
					"type": "function"
				},
				{
					"inputs": [
						{
							"internalType": "address",
							"name": "from",
							"type": "address"
						},
						{
							"internalType": "address",
							"name": "to",
							"type": "address"
						},
						{
							"internalType": "uint256",
							"name": "value",
							"type": "uint256"
						}
					],
					"name": "_update",
					"outputs": [],
					"stateMutability": "nonpayable",
					"type": "function"
				},
				{
					"inputs": [
						{
							"internalType": "address",
							"name": "owner",
							"type": "address"
						},
						{
							"internalType": "address",
							"name": "spender",
							"type": "address"
						}
					],
					"name": "allowance",
					"outputs": [
						{
							"internalType": "uint256",
							"name": "",
							"type": "uint256"
						}
					],
					"stateMutability": "view",
					"type": "function"
				},
				{
					"inputs": [
						{
							"internalType": "address",
							"name": "spender",
							"type": "address"
						},
						{
							"internalType": "uint256",
							"name": "value",
							"type": "uint256"
						}
					],
					"name": "approve",
					"outputs": [
						{
							"internalType": "bool",
							"name": "",
							"type": "bool"
						}
					],
					"stateMutability": "nonpayable",
					"type": "function"
				},
				{
					"inputs": [
						{
							"internalType": "address",
							"name": "account",
							"type": "address"
						}
					],
					"name": "balanceOf",
					"outputs": [
						{
							"internalType": "uint256",
							"name": "",
							"type": "uint256"
						}
					],
					"stateMutability": "view",
					"type": "function"
				},
				{
					"inputs": [],
					"name": "decimals",
					"outputs": [
						{
							"internalType": "uint8",
							"name": "",
							"type": "uint8"
						}
					],
					"stateMutability": "view",
					"type": "function"
				},
				{
					"inputs": [
						{
							"internalType": "string",
							"name": "name",
							"type": "string"
						},
						{
							"internalType": "string",
							"name": "symbol",
							"type": "string"
						},
						{
							"internalType": "uint256",
							"name": "num",
							"type": "uint256"
						},
						{
							"internalType": "uint256",
							"name": "_perMint",
							"type": "uint256"
						}
					],
					"name": "init",
					"outputs": [],
					"stateMutability": "nonpayable",
					"type": "function"
				},
				{
					"inputs": [],
					"name": "mint",
					"outputs": [],
					"stateMutability": "nonpayable",
					"type": "function"
				},
				{
					"inputs": [],
					"name": "name",
					"outputs": [
						{
							"internalType": "string",
							"name": "",
							"type": "string"
						}
					],
					"stateMutability": "view",
					"type": "function"
				},
				{
					"inputs": [],
					"name": "symbol",
					"outputs": [
						{
							"internalType": "string",
							"name": "",
							"type": "string"
						}
					],
					"stateMutability": "view",
					"type": "function"
				},
				{
					"inputs": [],
					"name": "totalSupply",
					"outputs": [
						{
							"internalType": "uint256",
							"name": "",
							"type": "uint256"
						}
					],
					"stateMutability": "view",
					"type": "function"
				},
				{
					"inputs": [
						{
							"internalType": "address",
							"name": "to",
							"type": "address"
						},
						{
							"internalType": "uint256",
							"name": "value",
							"type": "uint256"
						}
					],
					"name": "transfer",
					"outputs": [
						{
							"internalType": "bool",
							"name": "",
							"type": "bool"
						}
					],
					"stateMutability": "nonpayable",
					"type": "function"
				},
				{
					"inputs": [
						{
							"internalType": "address",
							"name": "from",
							"type": "address"
						},
						{
							"internalType": "address",
							"name": "to",
							"type": "address"
						},
						{
							"internalType": "uint256",
							"name": "value",
							"type": "uint256"
						}
					],
					"name": "transferFrom",
					"outputs": [
						{
							"internalType": "bool",
							"name": "",
							"type": "bool"
						}
					],
					"stateMutability": "nonpayable",
					"type": "function"
				}
			],
			"devdoc": {
				"errors": {
					"ERC20InsufficientAllowance(address,uint256,uint256)": [
						{
							"details": "Indicates a failure with the `spender`’s `allowance`. Used in transfers.",
							"params": {
								"allowance": "Amount of tokens a `spender` is allowed to operate with.",
								"needed": "Minimum amount required to perform a transfer.",
								"spender": "Address that may be allowed to operate on tokens without being their owner."
							}
						}
					],
					"ERC20InsufficientBalance(address,uint256,uint256)": [
						{
							"details": "Indicates an error related to the current `balance` of a `sender`. Used in transfers.",
							"params": {
								"balance": "Current balance for the interacting account.",
								"needed": "Minimum amount required to perform a transfer.",
								"sender": "Address whose tokens are being transferred."
							}
						}
					],
					"ERC20InvalidApprover(address)": [
						{
							"details": "Indicates a failure with the `approver` of a token to be approved. Used in approvals.",
							"params": {
								"approver": "Address initiating an approval operation."
							}
						}
					],
					"ERC20InvalidReceiver(address)": [
						{
							"details": "Indicates a failure with the token `receiver`. Used in transfers.",
							"params": {
								"receiver": "Address to which tokens are being transferred."
							}
						}
					],
					"ERC20InvalidSender(address)": [
						{
							"details": "Indicates a failure with the token `sender`. Used in transfers.",
							"params": {
								"sender": "Address whose tokens are being transferred."
							}
						}
					],
					"ERC20InvalidSpender(address)": [
						{
							"details": "Indicates a failure with the `spender` to be approved. Used in approvals.",
							"params": {
								"spender": "Address that may be allowed to operate on tokens without being their owner."
							}
						}
					]
				},
				"events": {
					"Approval(address,address,uint256)": {
						"details": "Emitted when the allowance of a `spender` for an `owner` is set by a call to {approve}. `value` is the new allowance."
					},
					"Transfer(address,address,uint256)": {
						"details": "Emitted when `value` tokens are moved from one account (`from`) to another (`to`). Note that `value` may be zero."
					}
				},
				"kind": "dev",
				"methods": {
					"_mint(address,uint256)": {
						"details": "Creates a `value` amount of tokens and assigns them to `account`, by transferring it from address(0). Relies on the `_update` mechanism Emits a {Transfer} event with `from` set to the zero address. NOTE: This function is not virtual, {_update} should be overridden instead."
					},
					"_update(address,address,uint256)": {
						"details": "Transfers a `value` amount of tokens from `from` to `to`, or alternatively mints (or burns) if `from` (or `to`) is the zero address. All customizations to transfers, mints, and burns should be done by overriding this function. Emits a {Transfer} event."
					},
					"allowance(address,address)": {
						"details": "See {IERC20-allowance}."
					},
					"approve(address,uint256)": {
						"details": "See {IERC20-approve}. NOTE: If `value` is the maximum `uint256`, the allowance is not updated on `transferFrom`. This is semantically equivalent to an infinite approval. Requirements: - `spender` cannot be the zero address."
					},
					"balanceOf(address)": {
						"details": "See {IERC20-balanceOf}."
					},
					"decimals()": {
						"details": "Returns the number of decimals used to get its user representation. For example, if `decimals` equals `2`, a balance of `505` tokens should be displayed to a user as `5.05` (`505 / 10 ** 2`). Tokens usually opt for a value of 18, imitating the relationship between Ether and Wei. This is the default value returned by this function, unless it's overridden. NOTE: This information is only used for _display_ purposes: it in no way affects any of the arithmetic of the contract, including {IERC20-balanceOf} and {IERC20-transfer}."
					},
					"name()": {
						"details": "Returns the name of the token."
					},
					"symbol()": {
						"details": "Returns the symbol of the token, usually a shorter version of the name."
					},
					"totalSupply()": {
						"details": "See {IERC20-totalSupply}."
					},
					"transfer(address,uint256)": {
						"details": "See {IERC20-transfer}. Requirements: - `to` cannot be the zero address. - the caller must have a balance of at least `value`."
					},
					"transferFrom(address,address,uint256)": {
						"details": "See {IERC20-transferFrom}. Emits an {Approval} event indicating the updated allowance. This is not required by the EIP. See the note at the beginning of {ERC20}. NOTE: Does not update the allowance if the current allowance is the maximum `uint256`. Requirements: - `from` and `to` cannot be the zero address. - `from` must have a balance of at least `value`. - the caller must have allowance for ``from``'s tokens of at least `value`."
					}
				},
				"version": 1
			},
			"evm": {
				"assembly": "    /* \"src/MyERC20.sol\":129:748  contract MyERC20 is ERC20 {... */\n  mstore(0x40, 0x80)\n    /* \"src/MyERC20.sol\":271:375  constructor() ERC20(\"MyToken\", \"MTK\") {... */\n  callvalue\n  dup1\n  iszero\n  tag_1\n  jumpi\n  0x00\n  dup1\n  revert\ntag_1:\n  pop\n    /* \"lib/openzeppelin-contracts/contracts/token/ERC20/ERC20.sol\":1942:2058  constructor(string memory name_, string memory symbol_) {... */\n  mload(0x40)\n  dup1\n  0x40\n  add\n  0x40\n  mstore\n  dup1\n  0x07\n  dup2\n  mstore\n  0x20\n  add\n  shl(0xc9, 0x26bcaa37b5b2b7)\n  dup2\n  mstore\n  pop\n  mload(0x40)\n  dup1\n  0x40\n  add\n  0x40\n  mstore\n  dup1\n  0x03\n  dup2\n  mstore\n  0x20\n  add\n  shl(0xe8, 0x4d544b)\n  dup2\n  mstore\n  pop\n    /* \"lib/openzeppelin-contracts/contracts/token/ERC20/ERC20.sol\":2017:2022  name_ */\n  dup2\n    /* \"lib/openzeppelin-contracts/contracts/token/ERC20/ERC20.sol\":2009:2014  _name */\n  0x03\n    /* \"lib/openzeppelin-contracts/contracts/token/ERC20/ERC20.sol\":2009:2022  _name = name_ */\n  swap1\n  dup2\n  tag_5\n  swap2\n  swap1\n  tag_6\n  jump\t// in\ntag_5:\n  pop\n    /* \"lib/openzeppelin-contracts/contracts/token/ERC20/ERC20.sol\":2033:2040  _symbol */\n  0x04\n    /* \"lib/openzeppelin-contracts/contracts/token/ERC20/ERC20.sol\":2033:2050  _symbol = symbol_ */\n  tag_7\n    /* \"lib/openzeppelin-contracts/contracts/token/ERC20/ERC20.sol\":2043:2050  symbol_ */\n  dup3\n    /* \"lib/openzeppelin-contracts/contracts/token/ERC20/ERC20.sol\":2033:2040  _symbol */\n  dup3\n    /* \"lib/openzeppelin-contracts/contracts/token/ERC20/ERC20.sol\":2033:2050  _symbol = symbol_ */\n  tag_6\n  jump\t// in\ntag_7:\n  pop\n    /* \"lib/openzeppelin-contracts/contracts/token/ERC20/ERC20.sol\":1942:2058  constructor(string memory name_, string memory symbol_) {... */\n  pop\n  pop\n    /* \"src/MyERC20.sol\":319:367  _mint(msg.sender, 1 * 10 ** 8 * 10 **decimals()) */\n  tag_9\n    /* \"src/MyERC20.sol\":325:335  msg.sender */\n  caller\n    /* \"src/MyERC20.sol\":356:366  decimals() */\n  tag_10\n    /* \"src/MyERC20.sol\":356:364  decimals */\n  shl(0x20, tag_11)\n    /* \"src/MyERC20.sol\":356:366  decimals() */\n  0x20\n  shr\n  jump\t// in\ntag_10:\n    /* \"src/MyERC20.sol\":351:366  10 **decimals() */\n  tag_12\n  swap1\n    /* \"src/MyERC20.sol\":351:353  10 */\n  0x0a\n    /* \"src/MyERC20.sol\":351:366  10 **decimals() */\n  tag_13\n  jump\t// in\ntag_12:\n    /* \"src/MyERC20.sol\":337:366  1 * 10 ** 8 * 10 **decimals() */\n  tag_14\n  swap1\n    /* \"src/MyERC20.sol\":337:348  1 * 10 ** 8 */\n  0x05f5e100\n    /* \"src/MyERC20.sol\":337:366  1 * 10 ** 8 * 10 **decimals() */\n  tag_15\n  jump\t// in\ntag_14:\n    /* \"src/MyERC20.sol\":319:324  _mint */\n  tag_16\n    /* \"src/MyERC20.sol\":319:367  _mint(msg.sender, 1 * 10 ** 8 * 10 **decimals()) */\n  jump\t// in\ntag_9:\n    /* \"src/MyERC20.sol\":129:748  contract MyERC20 is ERC20 {... */\n  jump(tag_45)\n    /* \"lib/openzeppelin-contracts/contracts/token/ERC20/ERC20.sol\":3081:3165  function decimals() public view virtual returns (uint8) {... */\ntag_11:\n    /* \"lib/openzeppelin-contracts/contracts/token/ERC20/ERC20.sol\":3155:3157  18 */\n  0x12\n  swap1\n    /* \"lib/openzeppelin-contracts/contracts/token/ERC20/ERC20.sol\":3081:3165  function decimals() public view virtual returns (uint8) {... */\n  jump\t// out\n    /* \"lib/openzeppelin-contracts/contracts/token/ERC20/ERC20.sol\":7941:8152  function _mint(address account, uint256 value) public {... */\ntag_16:\n  sub(shl(0xa0, 0x01), 0x01)\n    /* \"lib/openzeppelin-contracts/contracts/token/ERC20/ERC20.sol\":8010:8031  account == address(0) */\n  dup3\n  and\n    /* \"lib/openzeppelin-contracts/contracts/token/ERC20/ERC20.sol\":8006:8099  if (account == address(0)) {... */\n  tag_20\n  jumpi\n    /* \"lib/openzeppelin-contracts/contracts/token/ERC20/ERC20.sol\":8055:8087  ERC20InvalidReceiver(address(0)) */\n  mload(0x40)\n  shl(0xe0, 0xec442f05)\n  dup2\n  mstore\n    /* \"lib/openzeppelin-contracts/contracts/token/ERC20/ERC20.sol\":8084:8085  0 */\n  0x00\n    /* \"lib/openzeppelin-contracts/contracts/token/ERC20/ERC20.sol\":8055:8087  ERC20InvalidReceiver(address(0)) */\n  0x04\n  dup3\n  add\n    /* \"#utility.yul\":4569:4620   */\n  mstore\n    /* \"#utility.yul\":4542:4560   */\n  0x24\n  add\n    /* \"lib/openzeppelin-contracts/contracts/token/ERC20/ERC20.sol\":8055:8087  ERC20InvalidReceiver(address(0)) */\ntag_21:\n  mload(0x40)\n  dup1\n  swap2\n  sub\n  swap1\n  revert\n    /* \"lib/openzeppelin-contracts/contracts/token/ERC20/ERC20.sol\":8006:8099  if (account == address(0)) {... */\ntag_20:\n    /* \"lib/openzeppelin-contracts/contracts/token/ERC20/ERC20.sol\":8109:8144  _update(address(0), account, value) */\n  tag_23\n    /* \"lib/openzeppelin-contracts/contracts/token/ERC20/ERC20.sol\":8125:8126  0 */\n  0x00\n    /* \"lib/openzeppelin-contracts/contracts/token/ERC20/ERC20.sol\":8129:8136  account */\n  dup4\n    /* \"lib/openzeppelin-contracts/contracts/token/ERC20/ERC20.sol\":8138:8143  value */\n  dup4\n    /* \"lib/openzeppelin-contracts/contracts/token/ERC20/ERC20.sol\":8109:8116  _update */\n  tag_24\n    /* \"lib/openzeppelin-contracts/contracts/token/ERC20/ERC20.sol\":8109:8144  _update(address(0), account, value) */\n  jump\t// in\ntag_23:\n    /* \"lib/openzeppelin-contracts/contracts/token/ERC20/ERC20.sol\":7941:8152  function _mint(address account, uint256 value) public {... */\n  pop\n  pop\n  jump\t// out\n    /* \"lib/openzeppelin-contracts/contracts/token/ERC20/ERC20.sol\":6455:7588  function _update(address from, address to, uint256 value) public virtual {... */\ntag_24:\n  sub(shl(0xa0, 0x01), 0x01)\n    /* \"lib/openzeppelin-contracts/contracts/token/ERC20/ERC20.sol\":6543:6561  from == address(0) */\n  dup4\n  and\n    /* \"lib/openzeppelin-contracts/contracts/token/ERC20/ERC20.sol\":6539:7091  if (from == address(0)) {... */\n  tag_26\n  jumpi\n    /* \"lib/openzeppelin-contracts/contracts/token/ERC20/ERC20.sol\":6697:6702  value */\n  dup1\n    /* \"lib/openzeppelin-contracts/contracts/token/ERC20/ERC20.sol\":6681:6693  _totalSupply */\n  0x02\n  0x00\n    /* \"lib/openzeppelin-contracts/contracts/token/ERC20/ERC20.sol\":6681:6702  _totalSupply += value */\n  dup3\n  dup3\n  sload\n  tag_27\n  swap2\n  swap1\n  tag_28\n  jump\t// in\ntag_27:\n  swap1\n  swap2\n  sstore\n  pop\n    /* \"lib/openzeppelin-contracts/contracts/token/ERC20/ERC20.sol\":6539:7091  if (from == address(0)) {... */\n  tag_29\n  swap1\n  pop\n  jump\ntag_26:\n  sub(shl(0xa0, 0x01), 0x01)\n    /* \"lib/openzeppelin-contracts/contracts/token/ERC20/ERC20.sol\":6757:6772  _balances[from] */\n  dup4\n  and\n    /* \"lib/openzeppelin-contracts/contracts/token/ERC20/ERC20.sol\":6735:6754  uint256 fromBalance */\n  0x00\n    /* \"lib/openzeppelin-contracts/contracts/token/ERC20/ERC20.sol\":6757:6772  _balances[from] */\n  swap1\n  dup2\n  mstore\n  0x20\n  dup2\n  swap1\n  mstore\n  0x40\n  swap1\n  keccak256\n  sload\n    /* \"lib/openzeppelin-contracts/contracts/token/ERC20/ERC20.sol\":6791:6810  fromBalance < value */\n  dup2\n  dup2\n  lt\n    /* \"lib/openzeppelin-contracts/contracts/token/ERC20/ERC20.sol\":6787:6904  if (fromBalance < value) {... */\n  iszero\n  tag_30\n  jumpi\n    /* \"lib/openzeppelin-contracts/contracts/token/ERC20/ERC20.sol\":6838:6888  ERC20InsufficientBalance(from, fromBalance, value) */\n  mload(0x40)\n  shl(0xe2, 0x391434e3)\n  dup2\n  mstore\n  sub(shl(0xa0, 0x01), 0x01)\n    /* \"#utility.yul\":4981:5013   */\n  dup6\n  and\n    /* \"lib/openzeppelin-contracts/contracts/token/ERC20/ERC20.sol\":6838:6888  ERC20InsufficientBalance(from, fromBalance, value) */\n  0x04\n  dup3\n  add\n    /* \"#utility.yul\":4963:5014   */\n  mstore\n    /* \"#utility.yul\":5030:5048   */\n  0x24\n  dup2\n  add\n    /* \"#utility.yul\":5023:5057   */\n  dup3\n  swap1\n  mstore\n    /* \"#utility.yul\":5073:5091   */\n  0x44\n  dup2\n  add\n    /* \"#utility.yul\":5066:5100   */\n  dup4\n  swap1\n  mstore\n    /* \"#utility.yul\":4936:4954   */\n  0x64\n  add\n    /* \"lib/openzeppelin-contracts/contracts/token/ERC20/ERC20.sol\":6838:6888  ERC20InsufficientBalance(from, fromBalance, value) */\n  tag_21\n    /* \"#utility.yul\":4761:5106   */\n  jump\n    /* \"lib/openzeppelin-contracts/contracts/token/ERC20/ERC20.sol\":6787:6904  if (fromBalance < value) {... */\ntag_30:\n  sub(shl(0xa0, 0x01), 0x01)\n    /* \"lib/openzeppelin-contracts/contracts/token/ERC20/ERC20.sol\":7027:7042  _balances[from] */\n  dup5\n  and\n    /* \"lib/openzeppelin-contracts/contracts/token/ERC20/ERC20.sol\":7027:7036  _balances */\n  0x00\n    /* \"lib/openzeppelin-contracts/contracts/token/ERC20/ERC20.sol\":7027:7042  _balances[from] */\n  swap1\n  dup2\n  mstore\n  0x20\n  dup2\n  swap1\n  mstore\n  0x40\n  swap1\n  keccak256\n    /* \"lib/openzeppelin-contracts/contracts/token/ERC20/ERC20.sol\":7045:7064  fromBalance - value */\n  swap1\n  dup3\n  swap1\n  sub\n    /* \"lib/openzeppelin-contracts/contracts/token/ERC20/ERC20.sol\":7027:7064  _balances[from] = fromBalance - value */\n  swap1\n  sstore\n    /* \"lib/openzeppelin-contracts/contracts/token/ERC20/ERC20.sol\":6539:7091  if (from == address(0)) {... */\ntag_29:\n  sub(shl(0xa0, 0x01), 0x01)\n    /* \"lib/openzeppelin-contracts/contracts/token/ERC20/ERC20.sol\":7107:7123  to == address(0) */\n  dup3\n  and\n    /* \"lib/openzeppelin-contracts/contracts/token/ERC20/ERC20.sol\":7103:7538  if (to == address(0)) {... */\n  tag_33\n  jumpi\n    /* \"lib/openzeppelin-contracts/contracts/token/ERC20/ERC20.sol\":7273:7285  _totalSupply */\n  0x02\n    /* \"lib/openzeppelin-contracts/contracts/token/ERC20/ERC20.sol\":7273:7294  _totalSupply -= value */\n  dup1\n  sload\n  dup3\n  swap1\n  sub\n  swap1\n  sstore\n    /* \"lib/openzeppelin-contracts/contracts/token/ERC20/ERC20.sol\":7103:7538  if (to == address(0)) {... */\n  jump(tag_34)\ntag_33:\n  sub(shl(0xa0, 0x01), 0x01)\n    /* \"lib/openzeppelin-contracts/contracts/token/ERC20/ERC20.sol\":7489:7502  _balances[to] */\n  dup3\n  and\n    /* \"lib/openzeppelin-contracts/contracts/token/ERC20/ERC20.sol\":7489:7498  _balances */\n  0x00\n    /* \"lib/openzeppelin-contracts/contracts/token/ERC20/ERC20.sol\":7489:7502  _balances[to] */\n  swap1\n  dup2\n  mstore\n  0x20\n  dup2\n  swap1\n  mstore\n  0x40\n  swap1\n  keccak256\n    /* \"lib/openzeppelin-contracts/contracts/token/ERC20/ERC20.sol\":7489:7511  _balances[to] += value */\n  dup1\n  sload\n  dup3\n  add\n  swap1\n  sstore\n    /* \"lib/openzeppelin-contracts/contracts/token/ERC20/ERC20.sol\":7103:7538  if (to == address(0)) {... */\ntag_34:\n    /* \"lib/openzeppelin-contracts/contracts/token/ERC20/ERC20.sol\":7570:7572  to */\n  dup2\n  sub(shl(0xa0, 0x01), 0x01)\n    /* \"lib/openzeppelin-contracts/contracts/token/ERC20/ERC20.sol\":7555:7580  Transfer(from, to, value) */\n  and\n    /* \"lib/openzeppelin-contracts/contracts/token/ERC20/ERC20.sol\":7564:7568  from */\n  dup4\n  sub(shl(0xa0, 0x01), 0x01)\n    /* \"lib/openzeppelin-contracts/contracts/token/ERC20/ERC20.sol\":7555:7580  Transfer(from, to, value) */\n  and\n  0xddf252ad1be2c89b69c2b068fc378daa952ba7f163c4a11628f55a4df523b3ef\n    /* \"lib/openzeppelin-contracts/contracts/token/ERC20/ERC20.sol\":7574:7579  value */\n  dup4\n    /* \"lib/openzeppelin-contracts/contracts/token/ERC20/ERC20.sol\":7555:7580  Transfer(from, to, value) */\n  mload(0x40)\n  tag_35\n  swap2\n    /* \"#utility.yul\":5257:5282   */\n  dup2\n  mstore\n    /* \"#utility.yul\":5245:5247   */\n  0x20\n    /* \"#utility.yul\":5230:5248   */\n  add\n  swap1\n    /* \"#utility.yul\":5111:5288   */\n  jump\n    /* \"lib/openzeppelin-contracts/contracts/token/ERC20/ERC20.sol\":7555:7580  Transfer(from, to, value) */\ntag_35:\n  mload(0x40)\n  dup1\n  swap2\n  sub\n  swap1\n  log3\n    /* \"lib/openzeppelin-contracts/contracts/token/ERC20/ERC20.sol\":6455:7588  function _update(address from, address to, uint256 value) public virtual {... */\n  pop\n  pop\n  pop\n  jump\t// out\n    /* \"#utility.yul\":14:141   */\ntag_37:\n    /* \"#utility.yul\":75:85   */\n  0x4e487b71\n    /* \"#utility.yul\":70:73   */\n  0xe0\n    /* \"#utility.yul\":66:86   */\n  shl\n    /* \"#utility.yul\":63:64   */\n  0x00\n    /* \"#utility.yul\":56:87   */\n  mstore\n    /* \"#utility.yul\":106:110   */\n  0x41\n    /* \"#utility.yul\":103:104   */\n  0x04\n    /* \"#utility.yul\":96:111   */\n  mstore\n    /* \"#utility.yul\":130:134   */\n  0x24\n    /* \"#utility.yul\":127:128   */\n  0x00\n    /* \"#utility.yul\":120:135   */\n  revert\n    /* \"#utility.yul\":146:526   */\ntag_38:\n    /* \"#utility.yul\":225:226   */\n  0x01\n    /* \"#utility.yul\":221:233   */\n  dup2\n  dup2\n  shr\n  swap1\n    /* \"#utility.yul\":268:280   */\n  dup3\n  and\n  dup1\n    /* \"#utility.yul\":289:350   */\n  tag_48\n  jumpi\n    /* \"#utility.yul\":343:347   */\n  0x7f\n    /* \"#utility.yul\":335:341   */\n  dup3\n    /* \"#utility.yul\":331:348   */\n  and\n    /* \"#utility.yul\":321:348   */\n  swap2\n  pop\n    /* \"#utility.yul\":289:350   */\ntag_48:\n    /* \"#utility.yul\":396:398   */\n  0x20\n    /* \"#utility.yul\":388:394   */\n  dup3\n    /* \"#utility.yul\":385:399   */\n  lt\n    /* \"#utility.yul\":365:383   */\n  dup2\n    /* \"#utility.yul\":362:400   */\n  sub\n    /* \"#utility.yul\":359:520   */\n  tag_49\n  jumpi\n    /* \"#utility.yul\":442:452   */\n  0x4e487b71\n    /* \"#utility.yul\":437:440   */\n  0xe0\n    /* \"#utility.yul\":433:453   */\n  shl\n    /* \"#utility.yul\":430:431   */\n  0x00\n    /* \"#utility.yul\":423:454   */\n  mstore\n    /* \"#utility.yul\":477:481   */\n  0x22\n    /* \"#utility.yul\":474:475   */\n  0x04\n    /* \"#utility.yul\":467:482   */\n  mstore\n    /* \"#utility.yul\":505:509   */\n  0x24\n    /* \"#utility.yul\":502:503   */\n  0x00\n    /* \"#utility.yul\":495:510   */\n  revert\n    /* \"#utility.yul\":359:520   */\ntag_49:\n  pop\n    /* \"#utility.yul\":146:526   */\n  swap2\n  swap1\n  pop\n  jump\t// out\n    /* \"#utility.yul\":657:1202   */\ntag_40:\n    /* \"#utility.yul\":759:761   */\n  0x1f\n    /* \"#utility.yul\":754:757   */\n  dup3\n    /* \"#utility.yul\":751:762   */\n  gt\n    /* \"#utility.yul\":748:1196   */\n  iszero\n  tag_52\n  jumpi\n    /* \"#utility.yul\":795:796   */\n  0x00\n    /* \"#utility.yul\":820:825   */\n  dup2\n    /* \"#utility.yul\":816:818   */\n  dup2\n    /* \"#utility.yul\":809:826   */\n  mstore\n    /* \"#utility.yul\":865:869   */\n  0x20\n    /* \"#utility.yul\":861:863   */\n  dup2\n    /* \"#utility.yul\":851:870   */\n  keccak256\n    /* \"#utility.yul\":935:937   */\n  0x1f\n    /* \"#utility.yul\":923:933   */\n  dup6\n    /* \"#utility.yul\":919:938   */\n  add\n    /* \"#utility.yul\":916:917   */\n  0x05\n    /* \"#utility.yul\":912:939   */\n  shr\n    /* \"#utility.yul\":906:910   */\n  dup2\n    /* \"#utility.yul\":902:940   */\n  add\n    /* \"#utility.yul\":971:975   */\n  0x20\n    /* \"#utility.yul\":959:969   */\n  dup7\n    /* \"#utility.yul\":956:976   */\n  lt\n    /* \"#utility.yul\":953:1000   */\n  iszero\n  tag_53\n  jumpi\n  pop\n    /* \"#utility.yul\":994:998   */\n  dup1\n    /* \"#utility.yul\":953:1000   */\ntag_53:\n    /* \"#utility.yul\":1049:1051   */\n  0x1f\n    /* \"#utility.yul\":1044:1047   */\n  dup6\n    /* \"#utility.yul\":1040:1052   */\n  add\n    /* \"#utility.yul\":1037:1038   */\n  0x05\n    /* \"#utility.yul\":1033:1053   */\n  shr\n    /* \"#utility.yul\":1027:1031   */\n  dup3\n    /* \"#utility.yul\":1023:1054   */\n  add\n    /* \"#utility.yul\":1013:1054   */\n  swap2\n  pop\n    /* \"#utility.yul\":1104:1186   */\ntag_54:\n    /* \"#utility.yul\":1122:1124   */\n  dup2\n    /* \"#utility.yul\":1115:1120   */\n  dup2\n    /* \"#utility.yul\":1112:1125   */\n  lt\n    /* \"#utility.yul\":1104:1186   */\n  iszero\n  tag_56\n  jumpi\n    /* \"#utility.yul\":1167:1184   */\n  dup3\n  dup2\n  sstore\n    /* \"#utility.yul\":1148:1149   */\n  0x01\n    /* \"#utility.yul\":1137:1150   */\n  add\n    /* \"#utility.yul\":1104:1186   */\n  jump(tag_54)\ntag_56:\n    /* \"#utility.yul\":1108:1111   */\n  pop\n  pop\n  pop\n    /* \"#utility.yul\":748:1196   */\ntag_52:\n    /* \"#utility.yul\":657:1202   */\n  pop\n  pop\n  pop\n  jump\t// out\n    /* \"#utility.yul\":1378:2730   */\ntag_6:\n    /* \"#utility.yul\":1498:1508   */\n  dup2\n  mload\n  sub(shl(0x40, 0x01), 0x01)\n    /* \"#utility.yul\":1520:1550   */\n  dup2\n  gt\n    /* \"#utility.yul\":1517:1573   */\n  iszero\n  tag_60\n  jumpi\n    /* \"#utility.yul\":1553:1571   */\n  tag_60\n  tag_37\n  jump\t// in\ntag_60:\n    /* \"#utility.yul\":1582:1679   */\n  tag_61\n    /* \"#utility.yul\":1672:1678   */\n  dup2\n    /* \"#utility.yul\":1632:1670   */\n  tag_62\n    /* \"#utility.yul\":1664:1668   */\n  dup5\n    /* \"#utility.yul\":1658:1669   */\n  sload\n    /* \"#utility.yul\":1632:1670   */\n  tag_38\n  jump\t// in\ntag_62:\n    /* \"#utility.yul\":1626:1630   */\n  dup5\n    /* \"#utility.yul\":1582:1679   */\n  tag_40\n  jump\t// in\ntag_61:\n    /* \"#utility.yul\":1734:1738   */\n  0x20\n  dup1\n    /* \"#utility.yul\":1798:1800   */\n  0x1f\n    /* \"#utility.yul\":1787:1801   */\n  dup4\n  gt\n    /* \"#utility.yul\":1815:1816   */\n  0x01\n    /* \"#utility.yul\":1810:2473   */\n  dup2\n  eq\n  tag_64\n  jumpi\n    /* \"#utility.yul\":2517:2518   */\n  0x00\n    /* \"#utility.yul\":2534:2540   */\n  dup5\n    /* \"#utility.yul\":2531:2620   */\n  iszero\n  tag_65\n  jumpi\n  pop\n    /* \"#utility.yul\":2586:2605   */\n  dup6\n  dup4\n  add\n    /* \"#utility.yul\":2580:2606   */\n  mload\n    /* \"#utility.yul\":2531:2620   */\ntag_65:\n  not(0x00)\n    /* \"#utility.yul\":1335:1336   */\n  0x03\n    /* \"#utility.yul\":1331:1342   */\n  dup7\n  swap1\n  shl\n    /* \"#utility.yul\":1327:1351   */\n  shr\n    /* \"#utility.yul\":1323:1352   */\n  not\n    /* \"#utility.yul\":1313:1353   */\n  and\n    /* \"#utility.yul\":1359:1360   */\n  0x01\n    /* \"#utility.yul\":1355:1366   */\n  dup6\n  swap1\n  shl\n    /* \"#utility.yul\":1310:1367   */\n  or\n    /* \"#utility.yul\":2633:2714   */\n  dup6\n  sstore\n    /* \"#utility.yul\":1780:2724   */\n  jump(tag_56)\n    /* \"#utility.yul\":1810:2473   */\ntag_64:\n    /* \"#utility.yul\":604:605   */\n  0x00\n    /* \"#utility.yul\":597:611   */\n  dup6\n  dup2\n  mstore\n    /* \"#utility.yul\":641:645   */\n  0x20\n    /* \"#utility.yul\":628:646   */\n  dup2\n  keccak256\n  not(0x1f)\n    /* \"#utility.yul\":1846:1866   */\n  dup7\n  and\n  swap2\n    /* \"#utility.yul\":1964:2200   */\ntag_68:\n    /* \"#utility.yul\":1978:1985   */\n  dup3\n    /* \"#utility.yul\":1975:1976   */\n  dup2\n    /* \"#utility.yul\":1972:1986   */\n  lt\n    /* \"#utility.yul\":1964:2200   */\n  iszero\n  tag_70\n  jumpi\n    /* \"#utility.yul\":2067:2086   */\n  dup9\n  dup7\n  add\n    /* \"#utility.yul\":2061:2087   */\n  mload\n    /* \"#utility.yul\":2046:2088   */\n  dup3\n  sstore\n    /* \"#utility.yul\":2159:2186   */\n  swap5\n  dup5\n  add\n  swap5\n    /* \"#utility.yul\":2127:2128   */\n  0x01\n    /* \"#utility.yul\":2115:2129   */\n  swap1\n  swap2\n  add\n  swap1\n    /* \"#utility.yul\":1994:2013   */\n  dup5\n  add\n    /* \"#utility.yul\":1964:2200   */\n  jump(tag_68)\ntag_70:\n    /* \"#utility.yul\":1968:1971   */\n  pop\n    /* \"#utility.yul\":2228:2234   */\n  dup6\n    /* \"#utility.yul\":2219:2226   */\n  dup3\n    /* \"#utility.yul\":2216:2235   */\n  lt\n    /* \"#utility.yul\":2213:2414   */\n  iszero\n  tag_71\n  jumpi\n    /* \"#utility.yul\":2289:2308   */\n  dup8\n  dup6\n  add\n    /* \"#utility.yul\":2283:2309   */\n  mload\n  not(0x00)\n    /* \"#utility.yul\":2372:2373   */\n  0x03\n    /* \"#utility.yul\":2368:2382   */\n  dup9\n  swap1\n  shl\n    /* \"#utility.yul\":2384:2387   */\n  0xf8\n    /* \"#utility.yul\":2364:2388   */\n  and\n    /* \"#utility.yul\":2360:2397   */\n  shr\n    /* \"#utility.yul\":2356:2398   */\n  not\n    /* \"#utility.yul\":2341:2399   */\n  and\n    /* \"#utility.yul\":2326:2400   */\n  dup2\n  sstore\n    /* \"#utility.yul\":2213:2414   */\ntag_71:\n  pop\n  pop\n  pop\n  pop\n  pop\n    /* \"#utility.yul\":2460:2461   */\n  0x01\n    /* \"#utility.yul\":2444:2458   */\n  swap1\n  dup2\n  shl\n    /* \"#utility.yul\":2440:2462   */\n  add\n    /* \"#utility.yul\":2427:2463   */\n  swap1\n  sstore\n  pop\n    /* \"#utility.yul\":1378:2730   */\n  jump\t// out\n    /* \"#utility.yul\":2735:2862   */\ntag_42:\n    /* \"#utility.yul\":2796:2806   */\n  0x4e487b71\n    /* \"#utility.yul\":2791:2794   */\n  0xe0\n    /* \"#utility.yul\":2787:2807   */\n  shl\n    /* \"#utility.yul\":2784:2785   */\n  0x00\n    /* \"#utility.yul\":2777:2808   */\n  mstore\n    /* \"#utility.yul\":2827:2831   */\n  0x11\n    /* \"#utility.yul\":2824:2825   */\n  0x04\n    /* \"#utility.yul\":2817:2832   */\n  mstore\n    /* \"#utility.yul\":2851:2855   */\n  0x24\n    /* \"#utility.yul\":2848:2849   */\n  0x00\n    /* \"#utility.yul\":2841:2856   */\n  revert\n    /* \"#utility.yul\":2867:3289   */\ntag_43:\n    /* \"#utility.yul\":2956:2957   */\n  0x01\n    /* \"#utility.yul\":2999:3004   */\n  dup2\n    /* \"#utility.yul\":2956:2957   */\n  dup2\n    /* \"#utility.yul\":3013:3283   */\ntag_74:\n    /* \"#utility.yul\":3034:3041   */\n  dup1\n    /* \"#utility.yul\":3024:3032   */\n  dup6\n    /* \"#utility.yul\":3021:3042   */\n  gt\n    /* \"#utility.yul\":3013:3283   */\n  iszero\n  tag_76\n  jumpi\n    /* \"#utility.yul\":3093:3097   */\n  dup2\n    /* \"#utility.yul\":3089:3090   */\n  0x00\n    /* \"#utility.yul\":3085:3091   */\n  not\n    /* \"#utility.yul\":3081:3098   */\n  div\n    /* \"#utility.yul\":3075:3079   */\n  dup3\n    /* \"#utility.yul\":3072:3099   */\n  gt\n    /* \"#utility.yul\":3069:3122   */\n  iszero\n  tag_78\n  jumpi\n    /* \"#utility.yul\":3102:3120   */\n  tag_78\n  tag_42\n  jump\t// in\ntag_78:\n    /* \"#utility.yul\":3152:3159   */\n  dup1\n    /* \"#utility.yul\":3142:3150   */\n  dup6\n    /* \"#utility.yul\":3138:3160   */\n  and\n    /* \"#utility.yul\":3135:3190   */\n  iszero\n  tag_79\n  jumpi\n    /* \"#utility.yul\":3172:3188   */\n  swap2\n  dup2\n  mul\n  swap2\n    /* \"#utility.yul\":3135:3190   */\ntag_79:\n    /* \"#utility.yul\":3251:3273   */\n  swap4\n  dup5\n  shr\n  swap4\n    /* \"#utility.yul\":3211:3226   */\n  swap1\n  dup1\n  mul\n  swap1\n    /* \"#utility.yul\":3013:3283   */\n  jump(tag_74)\ntag_76:\n    /* \"#utility.yul\":3017:3020   */\n  pop\n    /* \"#utility.yul\":2867:3289   */\n  swap3\n  pop\n  swap3\n  swap1\n  pop\n  jump\t// out\n    /* \"#utility.yul\":3294:4100   */\ntag_44:\n    /* \"#utility.yul\":3343:3348   */\n  0x00\n    /* \"#utility.yul\":3373:3381   */\n  dup3\n    /* \"#utility.yul\":3363:3443   */\n  tag_81\n  jumpi\n  pop\n    /* \"#utility.yul\":3414:3415   */\n  0x01\n    /* \"#utility.yul\":3428:3433   */\n  jump(tag_80)\n    /* \"#utility.yul\":3363:3443   */\ntag_81:\n    /* \"#utility.yul\":3462:3466   */\n  dup2\n    /* \"#utility.yul\":3452:3528   */\n  tag_82\n  jumpi\n  pop\n    /* \"#utility.yul\":3499:3500   */\n  0x00\n    /* \"#utility.yul\":3513:3518   */\n  jump(tag_80)\n    /* \"#utility.yul\":3452:3528   */\ntag_82:\n    /* \"#utility.yul\":3544:3548   */\n  dup2\n    /* \"#utility.yul\":3562:3563   */\n  0x01\n    /* \"#utility.yul\":3557:3616   */\n  dup2\n  eq\n  tag_84\n  jumpi\n    /* \"#utility.yul\":3630:3631   */\n  0x02\n    /* \"#utility.yul\":3625:3755   */\n  dup2\n  eq\n  tag_85\n  jumpi\n    /* \"#utility.yul\":3537:3755   */\n  jump(tag_83)\n    /* \"#utility.yul\":3557:3616   */\ntag_84:\n    /* \"#utility.yul\":3587:3588   */\n  0x01\n    /* \"#utility.yul\":3578:3588   */\n  swap2\n  pop\n    /* \"#utility.yul\":3601:3606   */\n  pop\n  jump(tag_80)\n    /* \"#utility.yul\":3625:3755   */\ntag_85:\n    /* \"#utility.yul\":3662:3665   */\n  0xff\n    /* \"#utility.yul\":3652:3660   */\n  dup5\n    /* \"#utility.yul\":3649:3666   */\n  gt\n    /* \"#utility.yul\":3646:3689   */\n  iszero\n  tag_87\n  jumpi\n    /* \"#utility.yul\":3669:3687   */\n  tag_87\n  tag_42\n  jump\t// in\ntag_87:\n  pop\n  pop\n    /* \"#utility.yul\":3725:3726   */\n  0x01\n    /* \"#utility.yul\":3711:3727   */\n  dup3\n  shl\n    /* \"#utility.yul\":3740:3745   */\n  jump(tag_80)\n    /* \"#utility.yul\":3537:3755   */\ntag_83:\n  pop\n    /* \"#utility.yul\":3839:3841   */\n  0x20\n    /* \"#utility.yul\":3829:3837   */\n  dup4\n    /* \"#utility.yul\":3826:3842   */\n  lt\n    /* \"#utility.yul\":3820:3823   */\n  0x0133\n    /* \"#utility.yul\":3814:3818   */\n  dup4\n    /* \"#utility.yul\":3811:3824   */\n  lt\n    /* \"#utility.yul\":3807:3843   */\n  and\n    /* \"#utility.yul\":3801:3803   */\n  0x4e\n    /* \"#utility.yul\":3791:3799   */\n  dup5\n    /* \"#utility.yul\":3788:3804   */\n  lt\n    /* \"#utility.yul\":3783:3785   */\n  0x0b\n    /* \"#utility.yul\":3777:3781   */\n  dup5\n    /* \"#utility.yul\":3774:3786   */\n  lt\n    /* \"#utility.yul\":3770:3805   */\n  and\n    /* \"#utility.yul\":3767:3844   */\n  or\n    /* \"#utility.yul\":3764:3923   */\n  iszero\n  tag_88\n  jumpi\n  pop\n    /* \"#utility.yul\":3876:3895   */\n  dup2\n  dup2\n  exp\n    /* \"#utility.yul\":3908:3913   */\n  jump(tag_80)\n    /* \"#utility.yul\":3764:3923   */\ntag_88:\n    /* \"#utility.yul\":3955:3989   */\n  tag_89\n    /* \"#utility.yul\":3980:3988   */\n  dup4\n    /* \"#utility.yul\":3974:3978   */\n  dup4\n    /* \"#utility.yul\":3955:3989   */\n  tag_43\n  jump\t// in\ntag_89:\n    /* \"#utility.yul\":4025:4031   */\n  dup1\n    /* \"#utility.yul\":4021:4022   */\n  0x00\n    /* \"#utility.yul\":4017:4023   */\n  not\n    /* \"#utility.yul\":4013:4032   */\n  div\n    /* \"#utility.yul\":4004:4011   */\n  dup3\n    /* \"#utility.yul\":4001:4033   */\n  gt\n    /* \"#utility.yul\":3998:4056   */\n  iszero\n  tag_91\n  jumpi\n    /* \"#utility.yul\":4036:4054   */\n  tag_91\n  tag_42\n  jump\t// in\ntag_91:\n    /* \"#utility.yul\":4074:4094   */\n  mul\n  swap1\n  pop\n    /* \"#utility.yul\":3294:4100   */\ntag_80:\n  swap3\n  swap2\n  pop\n  pop\n  jump\t// out\n    /* \"#utility.yul\":4105:4245   */\ntag_13:\n    /* \"#utility.yul\":4163:4168   */\n  0x00\n    /* \"#utility.yul\":4192:4239   */\n  tag_93\n    /* \"#utility.yul\":4233:4237   */\n  0xff\n    /* \"#utility.yul\":4223:4231   */\n  dup5\n    /* \"#utility.yul\":4219:4238   */\n  and\n    /* \"#utility.yul\":4213:4217   */\n  dup4\n    /* \"#utility.yul\":4192:4239   */\n  tag_44\n  jump\t// in\ntag_93:\n    /* \"#utility.yul\":4183:4239   */\n  swap4\n    /* \"#utility.yul\":4105:4245   */\n  swap3\n  pop\n  pop\n  pop\n  jump\t// out\n    /* \"#utility.yul\":4250:4418   */\ntag_15:\n    /* \"#utility.yul\":4323:4332   */\n  dup1\n  dup3\n  mul\n    /* \"#utility.yul\":4354:4363   */\n  dup2\n  iszero\n    /* \"#utility.yul\":4371:4386   */\n  dup3\n  dup3\n  div\n    /* \"#utility.yul\":4365:4387   */\n  dup5\n  eq\n    /* \"#utility.yul\":4351:4388   */\n  or\n    /* \"#utility.yul\":4341:4412   */\n  tag_80\n  jumpi\n    /* \"#utility.yul\":4392:4410   */\n  tag_80\n  tag_42\n  jump\t// in\n    /* \"#utility.yul\":4631:4756   */\ntag_28:\n    /* \"#utility.yul\":4696:4705   */\n  dup1\n  dup3\n  add\n    /* \"#utility.yul\":4717:4727   */\n  dup1\n  dup3\n  gt\n    /* \"#utility.yul\":4714:4750   */\n  iszero\n  tag_80\n  jumpi\n    /* \"#utility.yul\":4730:4748   */\n  tag_80\n  tag_42\n  jump\t// in\n    /* \"#utility.yul\":5111:5288   */\ntag_45:\n    /* \"src/MyERC20.sol\":129:748  contract MyERC20 is ERC20 {... */\n  dataSize(sub_0)\n  dup1\n  dataOffset(sub_0)\n  0x00\n  codecopy\n  0x00\n  return\nstop\n\nsub_0: assembly {\n        /* \"src/MyERC20.sol\":129:748  contract MyERC20 is ERC20 {... */\n      mstore(0x40, 0x80)\n      callvalue\n      dup1\n      iszero\n      tag_1\n      jumpi\n      0x00\n      dup1\n      revert\n    tag_1:\n      pop\n      jumpi(tag_2, lt(calldatasize, 0x04))\n      shr(0xe0, calldataload(0x00))\n      dup1\n      0x4e6ec247\n      gt\n      tag_19\n      jumpi\n      dup1\n      0xa9059cbb\n      gt\n      tag_20\n      jumpi\n      dup1\n      0xa9059cbb\n      eq\n      tag_15\n      jumpi\n      dup1\n      0xb09f1266\n      eq\n      tag_16\n      jumpi\n      dup1\n      0xd28d8852\n      eq\n      tag_17\n      jumpi\n      dup1\n      0xdd62ed3e\n      eq\n      tag_18\n      jumpi\n      0x00\n      dup1\n      revert\n    tag_20:\n      dup1\n      0x4e6ec247\n      eq\n      tag_11\n      jumpi\n      dup1\n      0x70a08231\n      eq\n      tag_12\n      jumpi\n      dup1\n      0x87c80464\n      eq\n      tag_13\n      jumpi\n      dup1\n      0x95d89b41\n      eq\n      tag_14\n      jumpi\n      0x00\n      dup1\n      revert\n    tag_19:\n      dup1\n      0x18160ddd\n      gt\n      tag_21\n      jumpi\n      dup1\n      0x18160ddd\n      eq\n      tag_7\n      jumpi\n      dup1\n      0x23b872dd\n      eq\n      tag_8\n      jumpi\n      dup1\n      0x313ce567\n      eq\n      tag_9\n      jumpi\n      dup1\n      0x3eaaf86b\n      eq\n      tag_10\n      jumpi\n      0x00\n      dup1\n      revert\n    tag_21:\n      dup1\n      0x06fdde03\n      eq\n      tag_3\n      jumpi\n      dup1\n      0x095ea7b3\n      eq\n      tag_4\n      jumpi\n      dup1\n      0x0bb3bfa8\n      eq\n      tag_5\n      jumpi\n      dup1\n      0x1249c58b\n      eq\n      tag_6\n      jumpi\n    tag_2:\n      0x00\n      dup1\n      revert\n        /* \"lib/openzeppelin-contracts/contracts/token/ERC20/ERC20.sol\":2128:2219  function name() public view virtual returns (string memory) {... */\n    tag_3:\n      tag_22\n      tag_23\n      jump\t// in\n    tag_22:\n      mload(0x40)\n      tag_24\n      swap2\n      swap1\n      tag_25\n      jump\t// in\n    tag_24:\n      mload(0x40)\n      dup1\n      swap2\n      sub\n      swap1\n      return\n        /* \"lib/openzeppelin-contracts/contracts/token/ERC20/ERC20.sol\":4421:4611  function approve(address spender, uint256 value) public virtual returns (bool) {... */\n    tag_4:\n      tag_26\n      tag_27\n      calldatasize\n      0x04\n      tag_28\n      jump\t// in\n    tag_27:\n      tag_29\n      jump\t// in\n    tag_26:\n      mload(0x40)\n        /* \"#utility.yul\":1169:1183   */\n      swap1\n      iszero\n        /* \"#utility.yul\":1162:1184   */\n      iszero\n        /* \"#utility.yul\":1144:1185   */\n      dup2\n      mstore\n        /* \"#utility.yul\":1132:1134   */\n      0x20\n        /* \"#utility.yul\":1117:1135   */\n      add\n        /* \"lib/openzeppelin-contracts/contracts/token/ERC20/ERC20.sol\":4421:4611  function approve(address spender, uint256 value) public virtual returns (bool) {... */\n      tag_24\n        /* \"#utility.yul\":1004:1191   */\n      jump\n        /* \"lib/openzeppelin-contracts/contracts/token/ERC20/ERC20.sol\":6455:7588  function _update(address from, address to, uint256 value) public virtual {... */\n    tag_5:\n      tag_32\n      tag_33\n      calldatasize\n      0x04\n      tag_34\n      jump\t// in\n    tag_33:\n      tag_35\n      jump\t// in\n    tag_32:\n      stop\n        /* \"src/MyERC20.sol\":383:532  function mint() public{... */\n    tag_6:\n      tag_32\n      tag_37\n      jump\t// in\n        /* \"lib/openzeppelin-contracts/contracts/token/ERC20/ERC20.sol\":3230:3329  function totalSupply() public view virtual returns (uint256) {... */\n    tag_7:\n        /* \"lib/openzeppelin-contracts/contracts/token/ERC20/ERC20.sol\":3309:3321  _totalSupply */\n      sload(0x02)\n        /* \"lib/openzeppelin-contracts/contracts/token/ERC20/ERC20.sol\":3230:3329  function totalSupply() public view virtual returns (uint256) {... */\n    tag_38:\n      mload(0x40)\n        /* \"#utility.yul\":1675:1700   */\n      swap1\n      dup2\n      mstore\n        /* \"#utility.yul\":1663:1665   */\n      0x20\n        /* \"#utility.yul\":1648:1666   */\n      add\n        /* \"lib/openzeppelin-contracts/contracts/token/ERC20/ERC20.sol\":3230:3329  function totalSupply() public view virtual returns (uint256) {... */\n      tag_24\n        /* \"#utility.yul\":1529:1706   */\n      jump\n        /* \"lib/openzeppelin-contracts/contracts/token/ERC20/ERC20.sol\":5189:5438  function transferFrom(address from, address to, uint256 value) public virtual returns (bool) {... */\n    tag_8:\n      tag_26\n      tag_43\n      calldatasize\n      0x04\n      tag_34\n      jump\t// in\n    tag_43:\n      tag_44\n      jump\t// in\n        /* \"lib/openzeppelin-contracts/contracts/token/ERC20/ERC20.sol\":3081:3165  function decimals() public view virtual returns (uint8) {... */\n    tag_9:\n      mload(0x40)\n        /* \"lib/openzeppelin-contracts/contracts/token/ERC20/ERC20.sol\":3155:3157  18 */\n      0x12\n        /* \"#utility.yul\":1853:1889   */\n      dup2\n      mstore\n        /* \"#utility.yul\":1841:1843   */\n      0x20\n        /* \"#utility.yul\":1826:1844   */\n      add\n        /* \"lib/openzeppelin-contracts/contracts/token/ERC20/ERC20.sol\":3081:3165  function decimals() public view virtual returns (uint8) {... */\n      tag_24\n        /* \"#utility.yul\":1711:1895   */\n      jump\n        /* \"lib/openzeppelin-contracts/contracts/token/ERC20/ERC20.sol\":1668:1695  uint256 public _totalSupply */\n    tag_10:\n      tag_38\n      sload(0x02)\n      dup2\n      jump\n        /* \"lib/openzeppelin-contracts/contracts/token/ERC20/ERC20.sol\":7941:8152  function _mint(address account, uint256 value) public {... */\n    tag_11:\n      tag_32\n      tag_54\n      calldatasize\n      0x04\n      tag_28\n      jump\t// in\n    tag_54:\n      tag_55\n      jump\t// in\n        /* \"lib/openzeppelin-contracts/contracts/token/ERC20/ERC20.sol\":3392:3510  function balanceOf(address account) public view virtual returns (uint256) {... */\n    tag_12:\n      tag_38\n      tag_57\n      calldatasize\n      0x04\n      tag_58\n      jump\t// in\n    tag_57:\n      sub(shl(0xa0, 0x01), 0x01)\n        /* \"lib/openzeppelin-contracts/contracts/token/ERC20/ERC20.sol\":3484:3502  _balances[account] */\n      and\n        /* \"lib/openzeppelin-contracts/contracts/token/ERC20/ERC20.sol\":3457:3464  uint256 */\n      0x00\n        /* \"lib/openzeppelin-contracts/contracts/token/ERC20/ERC20.sol\":3484:3502  _balances[account] */\n      swap1\n      dup2\n      mstore\n      0x20\n      dup2\n      swap1\n      mstore\n      0x40\n      swap1\n      keccak256\n      sload\n      swap1\n        /* \"lib/openzeppelin-contracts/contracts/token/ERC20/ERC20.sol\":3392:3510  function balanceOf(address account) public view virtual returns (uint256) {... */\n      jump\n        /* \"src/MyERC20.sol\":540:739  function init(string memory name, string memory symbol, uint256 num, uint _perMint) public {... */\n    tag_13:\n      tag_32\n      tag_62\n      calldatasize\n      0x04\n      tag_63\n      jump\t// in\n    tag_62:\n      tag_64\n      jump\t// in\n        /* \"lib/openzeppelin-contracts/contracts/token/ERC20/ERC20.sol\":2338:2433  function symbol() public view virtual returns (string memory) {... */\n    tag_14:\n      tag_22\n      tag_66\n      jump\t// in\n        /* \"lib/openzeppelin-contracts/contracts/token/ERC20/ERC20.sol\":3715:3897  function transfer(address to, uint256 value) public virtual returns (bool) {... */\n    tag_15:\n      tag_26\n      tag_69\n      calldatasize\n      0x04\n      tag_28\n      jump\t// in\n    tag_69:\n      tag_70\n      jump\t// in\n        /* \"lib/openzeppelin-contracts/contracts/token/ERC20/ERC20.sol\":1730:1751  string public _symbol */\n    tag_16:\n      tag_22\n      tag_73\n      jump\t// in\n        /* \"lib/openzeppelin-contracts/contracts/token/ERC20/ERC20.sol\":1704:1723  string public _name */\n    tag_17:\n      tag_22\n      tag_76\n      jump\t// in\n        /* \"lib/openzeppelin-contracts/contracts/token/ERC20/ERC20.sol\":3960:4102  function allowance(address owner, address spender) public view virtual returns (uint256) {... */\n    tag_18:\n      tag_38\n      tag_79\n      calldatasize\n      0x04\n      tag_80\n      jump\t// in\n    tag_79:\n      sub(shl(0xa0, 0x01), 0x01)\n        /* \"lib/openzeppelin-contracts/contracts/token/ERC20/ERC20.sol\":4067:4085  _allowances[owner] */\n      swap2\n      dup3\n      and\n        /* \"lib/openzeppelin-contracts/contracts/token/ERC20/ERC20.sol\":4040:4047  uint256 */\n      0x00\n        /* \"lib/openzeppelin-contracts/contracts/token/ERC20/ERC20.sol\":4067:4085  _allowances[owner] */\n      swap1\n      dup2\n      mstore\n        /* \"lib/openzeppelin-contracts/contracts/token/ERC20/ERC20.sol\":4067:4078  _allowances */\n      0x01\n        /* \"lib/openzeppelin-contracts/contracts/token/ERC20/ERC20.sol\":4067:4085  _allowances[owner] */\n      0x20\n      swap1\n      dup2\n      mstore\n      0x40\n      dup1\n      dup4\n      keccak256\n        /* \"lib/openzeppelin-contracts/contracts/token/ERC20/ERC20.sol\":4067:4094  _allowances[owner][spender] */\n      swap4\n      swap1\n      swap5\n      and\n      dup3\n      mstore\n      swap2\n      swap1\n      swap2\n      mstore\n      keccak256\n      sload\n      swap1\n        /* \"lib/openzeppelin-contracts/contracts/token/ERC20/ERC20.sol\":3960:4102  function allowance(address owner, address spender) public view virtual returns (uint256) {... */\n      jump\n        /* \"lib/openzeppelin-contracts/contracts/token/ERC20/ERC20.sol\":2128:2219  function name() public view virtual returns (string memory) {... */\n    tag_23:\n        /* \"lib/openzeppelin-contracts/contracts/token/ERC20/ERC20.sol\":2173:2186  string memory */\n      0x60\n        /* \"lib/openzeppelin-contracts/contracts/token/ERC20/ERC20.sol\":2206:2211  _name */\n      0x03\n        /* \"lib/openzeppelin-contracts/contracts/token/ERC20/ERC20.sol\":2199:2211  return _name */\n      dup1\n      sload\n      tag_84\n      swap1\n      tag_85\n      jump\t// in\n    tag_84:\n      dup1\n      0x1f\n      add\n      0x20\n      dup1\n      swap2\n      div\n      mul\n      0x20\n      add\n      mload(0x40)\n      swap1\n      dup2\n      add\n      0x40\n      mstore\n      dup1\n      swap3\n      swap2\n      swap1\n      dup2\n      dup2\n      mstore\n      0x20\n      add\n      dup3\n      dup1\n      sload\n      tag_86\n      swap1\n      tag_85\n      jump\t// in\n    tag_86:\n      dup1\n      iszero\n      tag_87\n      jumpi\n      dup1\n      0x1f\n      lt\n      tag_88\n      jumpi\n      0x0100\n      dup1\n      dup4\n      sload\n      div\n      mul\n      dup4\n      mstore\n      swap2\n      0x20\n      add\n      swap2\n      jump(tag_87)\n    tag_88:\n      dup3\n      add\n      swap2\n      swap1\n      0x00\n      mstore\n      keccak256(0x00, 0x20)\n      swap1\n    tag_89:\n      dup2\n      sload\n      dup2\n      mstore\n      swap1\n      0x01\n      add\n      swap1\n      0x20\n      add\n      dup1\n      dup4\n      gt\n      tag_89\n      jumpi\n      dup3\n      swap1\n      sub\n      0x1f\n      and\n      dup3\n      add\n      swap2\n    tag_87:\n      pop\n      pop\n      pop\n      pop\n      pop\n      swap1\n      pop\n        /* \"lib/openzeppelin-contracts/contracts/token/ERC20/ERC20.sol\":2128:2219  function name() public view virtual returns (string memory) {... */\n      swap1\n      jump\t// out\n        /* \"lib/openzeppelin-contracts/contracts/token/ERC20/ERC20.sol\":4421:4611  function approve(address spender, uint256 value) public virtual returns (bool) {... */\n    tag_29:\n        /* \"lib/openzeppelin-contracts/contracts/token/ERC20/ERC20.sol\":4494:4498  bool */\n      0x00\n        /* \"lib/openzeppelin-contracts/contracts/utils/Context.sol\":752:762  msg.sender */\n      caller\n        /* \"lib/openzeppelin-contracts/contracts/token/ERC20/ERC20.sol\":4550:4581  _approve(owner, spender, value) */\n      tag_93\n        /* \"lib/openzeppelin-contracts/contracts/utils/Context.sol\":752:762  msg.sender */\n      dup2\n        /* \"lib/openzeppelin-contracts/contracts/token/ERC20/ERC20.sol\":4566:4573  spender */\n      dup6\n        /* \"lib/openzeppelin-contracts/contracts/token/ERC20/ERC20.sol\":4575:4580  value */\n      dup6\n        /* \"lib/openzeppelin-contracts/contracts/token/ERC20/ERC20.sol\":4550:4558  _approve */\n      tag_94\n        /* \"lib/openzeppelin-contracts/contracts/token/ERC20/ERC20.sol\":4550:4581  _approve(owner, spender, value) */\n      jump\t// in\n    tag_93:\n        /* \"lib/openzeppelin-contracts/contracts/token/ERC20/ERC20.sol\":4599:4603  true */\n      0x01\n        /* \"lib/openzeppelin-contracts/contracts/token/ERC20/ERC20.sol\":4592:4603  return true */\n      swap2\n      pop\n      pop\n        /* \"lib/openzeppelin-contracts/contracts/token/ERC20/ERC20.sol\":4421:4611  function approve(address spender, uint256 value) public virtual returns (bool) {... */\n    tag_90:\n      swap3\n      swap2\n      pop\n      pop\n      jump\t// out\n        /* \"lib/openzeppelin-contracts/contracts/token/ERC20/ERC20.sol\":6455:7588  function _update(address from, address to, uint256 value) public virtual {... */\n    tag_35:\n      sub(shl(0xa0, 0x01), 0x01)\n        /* \"lib/openzeppelin-contracts/contracts/token/ERC20/ERC20.sol\":6543:6561  from == address(0) */\n      dup4\n      and\n        /* \"lib/openzeppelin-contracts/contracts/token/ERC20/ERC20.sol\":6539:7091  if (from == address(0)) {... */\n      tag_96\n      jumpi\n        /* \"lib/openzeppelin-contracts/contracts/token/ERC20/ERC20.sol\":6697:6702  value */\n      dup1\n        /* \"lib/openzeppelin-contracts/contracts/token/ERC20/ERC20.sol\":6681:6693  _totalSupply */\n      0x02\n      0x00\n        /* \"lib/openzeppelin-contracts/contracts/token/ERC20/ERC20.sol\":6681:6702  _totalSupply += value */\n      dup3\n      dup3\n      sload\n      tag_97\n      swap2\n      swap1\n      tag_98\n      jump\t// in\n    tag_97:\n      swap1\n      swap2\n      sstore\n      pop\n        /* \"lib/openzeppelin-contracts/contracts/token/ERC20/ERC20.sol\":6539:7091  if (from == address(0)) {... */\n      tag_99\n      swap1\n      pop\n      jump\n    tag_96:\n      sub(shl(0xa0, 0x01), 0x01)\n        /* \"lib/openzeppelin-contracts/contracts/token/ERC20/ERC20.sol\":6757:6772  _balances[from] */\n      dup4\n      and\n        /* \"lib/openzeppelin-contracts/contracts/token/ERC20/ERC20.sol\":6735:6754  uint256 fromBalance */\n      0x00\n        /* \"lib/openzeppelin-contracts/contracts/token/ERC20/ERC20.sol\":6757:6772  _balances[from] */\n      swap1\n      dup2\n      mstore\n      0x20\n      dup2\n      swap1\n      mstore\n      0x40\n      swap1\n      keccak256\n      sload\n        /* \"lib/openzeppelin-contracts/contracts/token/ERC20/ERC20.sol\":6791:6810  fromBalance < value */\n      dup2\n      dup2\n      lt\n        /* \"lib/openzeppelin-contracts/contracts/token/ERC20/ERC20.sol\":6787:6904  if (fromBalance < value) {... */\n      iszero\n      tag_100\n      jumpi\n        /* \"lib/openzeppelin-contracts/contracts/token/ERC20/ERC20.sol\":6838:6888  ERC20InsufficientBalance(from, fromBalance, value) */\n      mload(0x40)\n      shl(0xe2, 0x391434e3)\n      dup2\n      mstore\n      sub(shl(0xa0, 0x01), 0x01)\n        /* \"#utility.yul\":4764:4796   */\n      dup6\n      and\n        /* \"lib/openzeppelin-contracts/contracts/token/ERC20/ERC20.sol\":6838:6888  ERC20InsufficientBalance(from, fromBalance, value) */\n      0x04\n      dup3\n      add\n        /* \"#utility.yul\":4746:4797   */\n      mstore\n        /* \"#utility.yul\":4813:4831   */\n      0x24\n      dup2\n      add\n        /* \"#utility.yul\":4806:4840   */\n      dup3\n      swap1\n      mstore\n        /* \"#utility.yul\":4856:4874   */\n      0x44\n      dup2\n      add\n        /* \"#utility.yul\":4849:4883   */\n      dup4\n      swap1\n      mstore\n        /* \"#utility.yul\":4719:4737   */\n      0x64\n      add\n        /* \"lib/openzeppelin-contracts/contracts/token/ERC20/ERC20.sol\":6838:6888  ERC20InsufficientBalance(from, fromBalance, value) */\n    tag_101:\n      mload(0x40)\n      dup1\n      swap2\n      sub\n      swap1\n      revert\n        /* \"lib/openzeppelin-contracts/contracts/token/ERC20/ERC20.sol\":6787:6904  if (fromBalance < value) {... */\n    tag_100:\n      sub(shl(0xa0, 0x01), 0x01)\n        /* \"lib/openzeppelin-contracts/contracts/token/ERC20/ERC20.sol\":7027:7042  _balances[from] */\n      dup5\n      and\n        /* \"lib/openzeppelin-contracts/contracts/token/ERC20/ERC20.sol\":7027:7036  _balances */\n      0x00\n        /* \"lib/openzeppelin-contracts/contracts/token/ERC20/ERC20.sol\":7027:7042  _balances[from] */\n      swap1\n      dup2\n      mstore\n      0x20\n      dup2\n      swap1\n      mstore\n      0x40\n      swap1\n      keccak256\n        /* \"lib/openzeppelin-contracts/contracts/token/ERC20/ERC20.sol\":7045:7064  fromBalance - value */\n      swap1\n      dup3\n      swap1\n      sub\n        /* \"lib/openzeppelin-contracts/contracts/token/ERC20/ERC20.sol\":7027:7064  _balances[from] = fromBalance - value */\n      swap1\n      sstore\n        /* \"lib/openzeppelin-contracts/contracts/token/ERC20/ERC20.sol\":6539:7091  if (from == address(0)) {... */\n    tag_99:\n      sub(shl(0xa0, 0x01), 0x01)\n        /* \"lib/openzeppelin-contracts/contracts/token/ERC20/ERC20.sol\":7107:7123  to == address(0) */\n      dup3\n      and\n        /* \"lib/openzeppelin-contracts/contracts/token/ERC20/ERC20.sol\":7103:7538  if (to == address(0)) {... */\n      tag_103\n      jumpi\n        /* \"lib/openzeppelin-contracts/contracts/token/ERC20/ERC20.sol\":7273:7285  _totalSupply */\n      0x02\n        /* \"lib/openzeppelin-contracts/contracts/token/ERC20/ERC20.sol\":7273:7294  _totalSupply -= value */\n      dup1\n      sload\n      dup3\n      swap1\n      sub\n      swap1\n      sstore\n        /* \"lib/openzeppelin-contracts/contracts/token/ERC20/ERC20.sol\":7103:7538  if (to == address(0)) {... */\n      jump(tag_104)\n    tag_103:\n      sub(shl(0xa0, 0x01), 0x01)\n        /* \"lib/openzeppelin-contracts/contracts/token/ERC20/ERC20.sol\":7489:7502  _balances[to] */\n      dup3\n      and\n        /* \"lib/openzeppelin-contracts/contracts/token/ERC20/ERC20.sol\":7489:7498  _balances */\n      0x00\n        /* \"lib/openzeppelin-contracts/contracts/token/ERC20/ERC20.sol\":7489:7502  _balances[to] */\n      swap1\n      dup2\n      mstore\n      0x20\n      dup2\n      swap1\n      mstore\n      0x40\n      swap1\n      keccak256\n        /* \"lib/openzeppelin-contracts/contracts/token/ERC20/ERC20.sol\":7489:7511  _balances[to] += value */\n      dup1\n      sload\n      dup3\n      add\n      swap1\n      sstore\n        /* \"lib/openzeppelin-contracts/contracts/token/ERC20/ERC20.sol\":7103:7538  if (to == address(0)) {... */\n    tag_104:\n        /* \"lib/openzeppelin-contracts/contracts/token/ERC20/ERC20.sol\":7570:7572  to */\n      dup2\n      sub(shl(0xa0, 0x01), 0x01)\n        /* \"lib/openzeppelin-contracts/contracts/token/ERC20/ERC20.sol\":7555:7580  Transfer(from, to, value) */\n      and\n        /* \"lib/openzeppelin-contracts/contracts/token/ERC20/ERC20.sol\":7564:7568  from */\n      dup4\n      sub(shl(0xa0, 0x01), 0x01)\n        /* \"lib/openzeppelin-contracts/contracts/token/ERC20/ERC20.sol\":7555:7580  Transfer(from, to, value) */\n      and\n      0xddf252ad1be2c89b69c2b068fc378daa952ba7f163c4a11628f55a4df523b3ef\n        /* \"lib/openzeppelin-contracts/contracts/token/ERC20/ERC20.sol\":7574:7579  value */\n      dup4\n        /* \"lib/openzeppelin-contracts/contracts/token/ERC20/ERC20.sol\":7555:7580  Transfer(from, to, value) */\n      mload(0x40)\n      tag_105\n      swap2\n        /* \"#utility.yul\":1675:1700   */\n      dup2\n      mstore\n        /* \"#utility.yul\":1663:1665   */\n      0x20\n        /* \"#utility.yul\":1648:1666   */\n      add\n      swap1\n        /* \"#utility.yul\":1529:1706   */\n      jump\n        /* \"lib/openzeppelin-contracts/contracts/token/ERC20/ERC20.sol\":7555:7580  Transfer(from, to, value) */\n    tag_105:\n      mload(0x40)\n      dup1\n      swap2\n      sub\n      swap1\n      log3\n        /* \"lib/openzeppelin-contracts/contracts/token/ERC20/ERC20.sol\":6455:7588  function _update(address from, address to, uint256 value) public virtual {... */\n      pop\n      pop\n      pop\n      jump\t// out\n        /* \"src/MyERC20.sol\":383:532  function mint() public{... */\n    tag_37:\n        /* \"src/MyERC20.sol\":429:430  0 */\n      0x00\n        /* \"src/MyERC20.sol\":424:428  _num */\n      sload(0x06)\n        /* \"src/MyERC20.sol\":424:430  _num>0 */\n      gt\n        /* \"src/MyERC20.sol\":416:431  require(_num>0) */\n      tag_107\n      jumpi\n      0x00\n      dup1\n      revert\n    tag_107:\n        /* \"src/MyERC20.sol\":442:467  _mint(msg.sender,perMint) */\n      tag_108\n        /* \"src/MyERC20.sol\":448:458  msg.sender */\n      caller\n        /* \"src/MyERC20.sol\":459:466  perMint */\n      sload(0x05)\n        /* \"src/MyERC20.sol\":442:447  _mint */\n      tag_55\n        /* \"src/MyERC20.sol\":442:467  _mint(msg.sender,perMint) */\n      jump\t// in\n    tag_108:\n        /* \"src/MyERC20.sol\":478:482  _num */\n      0x06\n        /* \"src/MyERC20.sol\":478:484  _num-- */\n      dup1\n      sload\n      swap1\n        /* \"src/MyERC20.sol\":478:482  _num */\n      0x00\n        /* \"src/MyERC20.sol\":478:484  _num-- */\n      tag_109\n      dup4\n      tag_110\n      jump\t// in\n    tag_109:\n      swap1\n      swap2\n      sstore\n      pop\n      pop\n        /* \"src/MyERC20.sol\":516:523  perMint */\n      sload(0x05)\n        /* \"src/MyERC20.sol\":500:524  Mint(msg.sender,perMint) */\n      mload(0x40)\n        /* \"#utility.yul\":1675:1700   */\n      swap1\n      dup2\n      mstore\n        /* \"src/MyERC20.sol\":505:515  msg.sender */\n      caller\n      swap1\n        /* \"src/MyERC20.sol\":500:524  Mint(msg.sender,perMint) */\n      0x0f6798a560793a54c3bcfe86a93cde1e73087d944c0ea20544137d4121396885\n      swap1\n        /* \"#utility.yul\":1663:1665   */\n      0x20\n        /* \"#utility.yul\":1648:1666   */\n      add\n        /* \"src/MyERC20.sol\":500:524  Mint(msg.sender,perMint) */\n      mload(0x40)\n      dup1\n      swap2\n      sub\n      swap1\n      log2\n        /* \"src/MyERC20.sol\":383:532  function mint() public{... */\n      jump\t// out\n        /* \"lib/openzeppelin-contracts/contracts/token/ERC20/ERC20.sol\":5189:5438  function transferFrom(address from, address to, uint256 value) public virtual returns (bool) {... */\n    tag_44:\n        /* \"lib/openzeppelin-contracts/contracts/token/ERC20/ERC20.sol\":5276:5280  bool */\n      0x00\n        /* \"lib/openzeppelin-contracts/contracts/utils/Context.sol\":752:762  msg.sender */\n      caller\n        /* \"lib/openzeppelin-contracts/contracts/token/ERC20/ERC20.sol\":5334:5371  _spendAllowance(from, spender, value) */\n      tag_115\n        /* \"lib/openzeppelin-contracts/contracts/token/ERC20/ERC20.sol\":5350:5354  from */\n      dup6\n        /* \"lib/openzeppelin-contracts/contracts/utils/Context.sol\":752:762  msg.sender */\n      dup3\n        /* \"lib/openzeppelin-contracts/contracts/token/ERC20/ERC20.sol\":5365:5370  value */\n      dup6\n        /* \"lib/openzeppelin-contracts/contracts/token/ERC20/ERC20.sol\":5334:5349  _spendAllowance */\n      tag_116\n        /* \"lib/openzeppelin-contracts/contracts/token/ERC20/ERC20.sol\":5334:5371  _spendAllowance(from, spender, value) */\n      jump\t// in\n    tag_115:\n        /* \"lib/openzeppelin-contracts/contracts/token/ERC20/ERC20.sol\":5382:5408  _transfer(from, to, value) */\n      tag_117\n        /* \"lib/openzeppelin-contracts/contracts/token/ERC20/ERC20.sol\":5392:5396  from */\n      dup6\n        /* \"lib/openzeppelin-contracts/contracts/token/ERC20/ERC20.sol\":5398:5400  to */\n      dup6\n        /* \"lib/openzeppelin-contracts/contracts/token/ERC20/ERC20.sol\":5402:5407  value */\n      dup6\n        /* \"lib/openzeppelin-contracts/contracts/token/ERC20/ERC20.sol\":5382:5391  _transfer */\n      tag_118\n        /* \"lib/openzeppelin-contracts/contracts/token/ERC20/ERC20.sol\":5382:5408  _transfer(from, to, value) */\n      jump\t// in\n    tag_117:\n      pop\n        /* \"lib/openzeppelin-contracts/contracts/token/ERC20/ERC20.sol\":5426:5430  true */\n      0x01\n      swap5\n        /* \"lib/openzeppelin-contracts/contracts/token/ERC20/ERC20.sol\":5189:5438  function transferFrom(address from, address to, uint256 value) public virtual returns (bool) {... */\n      swap4\n      pop\n      pop\n      pop\n      pop\n      jump\t// out\n        /* \"lib/openzeppelin-contracts/contracts/token/ERC20/ERC20.sol\":7941:8152  function _mint(address account, uint256 value) public {... */\n    tag_55:\n      sub(shl(0xa0, 0x01), 0x01)\n        /* \"lib/openzeppelin-contracts/contracts/token/ERC20/ERC20.sol\":8010:8031  account == address(0) */\n      dup3\n      and\n        /* \"lib/openzeppelin-contracts/contracts/token/ERC20/ERC20.sol\":8006:8099  if (account == address(0)) {... */\n      tag_121\n      jumpi\n        /* \"lib/openzeppelin-contracts/contracts/token/ERC20/ERC20.sol\":8055:8087  ERC20InvalidReceiver(address(0)) */\n      mload(0x40)\n      shl(0xe0, 0xec442f05)\n      dup2\n      mstore\n        /* \"lib/openzeppelin-contracts/contracts/token/ERC20/ERC20.sol\":8084:8085  0 */\n      0x00\n        /* \"lib/openzeppelin-contracts/contracts/token/ERC20/ERC20.sol\":8055:8087  ERC20InvalidReceiver(address(0)) */\n      0x04\n      dup3\n      add\n        /* \"#utility.yul\":5181:5232   */\n      mstore\n        /* \"#utility.yul\":5154:5172   */\n      0x24\n      add\n        /* \"lib/openzeppelin-contracts/contracts/token/ERC20/ERC20.sol\":8055:8087  ERC20InvalidReceiver(address(0)) */\n      tag_101\n        /* \"#utility.yul\":5035:5238   */\n      jump\n        /* \"lib/openzeppelin-contracts/contracts/token/ERC20/ERC20.sol\":8006:8099  if (account == address(0)) {... */\n    tag_121:\n        /* \"lib/openzeppelin-contracts/contracts/token/ERC20/ERC20.sol\":8109:8144  _update(address(0), account, value) */\n      tag_124\n        /* \"lib/openzeppelin-contracts/contracts/token/ERC20/ERC20.sol\":8125:8126  0 */\n      0x00\n        /* \"lib/openzeppelin-contracts/contracts/token/ERC20/ERC20.sol\":8129:8136  account */\n      dup4\n        /* \"lib/openzeppelin-contracts/contracts/token/ERC20/ERC20.sol\":8138:8143  value */\n      dup4\n        /* \"lib/openzeppelin-contracts/contracts/token/ERC20/ERC20.sol\":8109:8116  _update */\n      tag_35\n        /* \"lib/openzeppelin-contracts/contracts/token/ERC20/ERC20.sol\":8109:8144  _update(address(0), account, value) */\n      jump\t// in\n    tag_124:\n        /* \"lib/openzeppelin-contracts/contracts/token/ERC20/ERC20.sol\":7941:8152  function _mint(address account, uint256 value) public {... */\n      pop\n      pop\n      jump\t// out\n        /* \"src/MyERC20.sol\":540:739  function init(string memory name, string memory symbol, uint256 num, uint _perMint) public {... */\n    tag_64:\n        /* \"src/MyERC20.sol\":642:647  _name */\n      0x03\n        /* \"src/MyERC20.sol\":642:654  _name = name */\n      tag_127\n        /* \"src/MyERC20.sol\":650:654  name */\n      dup6\n        /* \"src/MyERC20.sol\":642:647  _name */\n      dup3\n        /* \"src/MyERC20.sol\":642:654  _name = name */\n      tag_128\n      jump\t// in\n    tag_127:\n      pop\n        /* \"src/MyERC20.sol\":665:672  _symbol */\n      0x04\n        /* \"src/MyERC20.sol\":665:681  _symbol = symbol */\n      tag_129\n        /* \"src/MyERC20.sol\":675:681  symbol */\n      dup5\n        /* \"src/MyERC20.sol\":665:672  _symbol */\n      dup3\n        /* \"src/MyERC20.sol\":665:681  _symbol = symbol */\n      tag_128\n      jump\t// in\n    tag_129:\n      pop\n        /* \"src/MyERC20.sol\":692:696  _num */\n      0x06\n        /* \"src/MyERC20.sol\":692:702  _num = num */\n      swap2\n      swap1\n      swap2\n      sstore\n        /* \"src/MyERC20.sol\":713:720  perMint */\n      0x05\n        /* \"src/MyERC20.sol\":713:731  perMint = _perMint */\n      sstore\n      pop\n      pop\n        /* \"src/MyERC20.sol\":540:739  function init(string memory name, string memory symbol, uint256 num, uint _perMint) public {... */\n      jump\t// out\n        /* \"lib/openzeppelin-contracts/contracts/token/ERC20/ERC20.sol\":2338:2433  function symbol() public view virtual returns (string memory) {... */\n    tag_66:\n        /* \"lib/openzeppelin-contracts/contracts/token/ERC20/ERC20.sol\":2385:2398  string memory */\n      0x60\n        /* \"lib/openzeppelin-contracts/contracts/token/ERC20/ERC20.sol\":2418:2425  _symbol */\n      0x04\n        /* \"lib/openzeppelin-contracts/contracts/token/ERC20/ERC20.sol\":2411:2425  return _symbol */\n      dup1\n      sload\n      tag_84\n      swap1\n      tag_85\n      jump\t// in\n        /* \"lib/openzeppelin-contracts/contracts/token/ERC20/ERC20.sol\":3715:3897  function transfer(address to, uint256 value) public virtual returns (bool) {... */\n    tag_70:\n        /* \"lib/openzeppelin-contracts/contracts/token/ERC20/ERC20.sol\":3784:3788  bool */\n      0x00\n        /* \"lib/openzeppelin-contracts/contracts/utils/Context.sol\":752:762  msg.sender */\n      caller\n        /* \"lib/openzeppelin-contracts/contracts/token/ERC20/ERC20.sol\":3840:3867  _transfer(owner, to, value) */\n      tag_93\n        /* \"lib/openzeppelin-contracts/contracts/utils/Context.sol\":752:762  msg.sender */\n      dup2\n        /* \"lib/openzeppelin-contracts/contracts/token/ERC20/ERC20.sol\":3857:3859  to */\n      dup6\n        /* \"lib/openzeppelin-contracts/contracts/token/ERC20/ERC20.sol\":3861:3866  value */\n      dup6\n        /* \"lib/openzeppelin-contracts/contracts/token/ERC20/ERC20.sol\":3840:3849  _transfer */\n      tag_118\n        /* \"lib/openzeppelin-contracts/contracts/token/ERC20/ERC20.sol\":3840:3867  _transfer(owner, to, value) */\n      jump\t// in\n        /* \"lib/openzeppelin-contracts/contracts/token/ERC20/ERC20.sol\":1730:1751  string public _symbol */\n    tag_73:\n      0x04\n      dup1\n      sload\n      tag_139\n      swap1\n      tag_85\n      jump\t// in\n    tag_139:\n      dup1\n      0x1f\n      add\n      0x20\n      dup1\n      swap2\n      div\n      mul\n      0x20\n      add\n      mload(0x40)\n      swap1\n      dup2\n      add\n      0x40\n      mstore\n      dup1\n      swap3\n      swap2\n      swap1\n      dup2\n      dup2\n      mstore\n      0x20\n      add\n      dup3\n      dup1\n      sload\n      tag_140\n      swap1\n      tag_85\n      jump\t// in\n    tag_140:\n      dup1\n      iszero\n      tag_141\n      jumpi\n      dup1\n      0x1f\n      lt\n      tag_142\n      jumpi\n      0x0100\n      dup1\n      dup4\n      sload\n      div\n      mul\n      dup4\n      mstore\n      swap2\n      0x20\n      add\n      swap2\n      jump(tag_141)\n    tag_142:\n      dup3\n      add\n      swap2\n      swap1\n      0x00\n      mstore\n      keccak256(0x00, 0x20)\n      swap1\n    tag_143:\n      dup2\n      sload\n      dup2\n      mstore\n      swap1\n      0x01\n      add\n      swap1\n      0x20\n      add\n      dup1\n      dup4\n      gt\n      tag_143\n      jumpi\n      dup3\n      swap1\n      sub\n      0x1f\n      and\n      dup3\n      add\n      swap2\n    tag_141:\n      pop\n      pop\n      pop\n      pop\n      pop\n      dup2\n      jump\t// out\n        /* \"lib/openzeppelin-contracts/contracts/token/ERC20/ERC20.sol\":1704:1723  string public _name */\n    tag_76:\n      0x03\n      dup1\n      sload\n      tag_139\n      swap1\n      tag_85\n      jump\t// in\n        /* \"lib/openzeppelin-contracts/contracts/token/ERC20/ERC20.sol\":9244:9374  function _approve(address owner, address spender, uint256 value) internal {... */\n    tag_94:\n        /* \"lib/openzeppelin-contracts/contracts/token/ERC20/ERC20.sol\":9329:9366  _approve(owner, spender, value, true) */\n      tag_152\n        /* \"lib/openzeppelin-contracts/contracts/token/ERC20/ERC20.sol\":9338:9343  owner */\n      dup4\n        /* \"lib/openzeppelin-contracts/contracts/token/ERC20/ERC20.sol\":9345:9352  spender */\n      dup4\n        /* \"lib/openzeppelin-contracts/contracts/token/ERC20/ERC20.sol\":9354:9359  value */\n      dup4\n        /* \"lib/openzeppelin-contracts/contracts/token/ERC20/ERC20.sol\":9361:9365  true */\n      0x01\n        /* \"lib/openzeppelin-contracts/contracts/token/ERC20/ERC20.sol\":9329:9337  _approve */\n      tag_153\n        /* \"lib/openzeppelin-contracts/contracts/token/ERC20/ERC20.sol\":9329:9366  _approve(owner, spender, value, true) */\n      jump\t// in\n    tag_152:\n        /* \"lib/openzeppelin-contracts/contracts/token/ERC20/ERC20.sol\":9244:9374  function _approve(address owner, address spender, uint256 value) internal {... */\n      pop\n      pop\n      pop\n      jump\t// out\n        /* \"lib/openzeppelin-contracts/contracts/token/ERC20/ERC20.sol\":10960:11447  function _spendAllowance(address owner, address spender, uint256 value) internal virtual {... */\n    tag_116:\n      sub(shl(0xa0, 0x01), 0x01)\n        /* \"lib/openzeppelin-contracts/contracts/token/ERC20/ERC20.sol\":4067:4085  _allowances[owner] */\n      dup4\n      dup2\n      and\n        /* \"lib/openzeppelin-contracts/contracts/token/ERC20/ERC20.sol\":11060:11084  uint256 currentAllowance */\n      0x00\n        /* \"lib/openzeppelin-contracts/contracts/token/ERC20/ERC20.sol\":4067:4085  _allowances[owner] */\n      swap1\n      dup2\n      mstore\n        /* \"lib/openzeppelin-contracts/contracts/token/ERC20/ERC20.sol\":4067:4078  _allowances */\n      0x01\n        /* \"lib/openzeppelin-contracts/contracts/token/ERC20/ERC20.sol\":4067:4085  _allowances[owner] */\n      0x20\n      swap1\n      dup2\n      mstore\n      0x40\n      dup1\n      dup4\n      keccak256\n        /* \"lib/openzeppelin-contracts/contracts/token/ERC20/ERC20.sol\":4067:4094  _allowances[owner][spender] */\n      swap4\n      dup7\n      and\n      dup4\n      mstore\n      swap3\n      swap1\n      mstore\n      keccak256\n      sload\n      not(0x00)\n        /* \"lib/openzeppelin-contracts/contracts/token/ERC20/ERC20.sol\":11127:11164  currentAllowance != type(uint256).max */\n      dup2\n      eq\n        /* \"lib/openzeppelin-contracts/contracts/token/ERC20/ERC20.sol\":11123:11440  if (currentAllowance != type(uint256).max) {... */\n      tag_159\n      jumpi\n        /* \"lib/openzeppelin-contracts/contracts/token/ERC20/ERC20.sol\":11204:11209  value */\n      dup2\n        /* \"lib/openzeppelin-contracts/contracts/token/ERC20/ERC20.sol\":11185:11201  currentAllowance */\n      dup2\n        /* \"lib/openzeppelin-contracts/contracts/token/ERC20/ERC20.sol\":11185:11209  currentAllowance < value */\n      lt\n        /* \"lib/openzeppelin-contracts/contracts/token/ERC20/ERC20.sol\":11181:11313  if (currentAllowance < value) {... */\n      iszero\n      tag_157\n      jumpi\n        /* \"lib/openzeppelin-contracts/contracts/token/ERC20/ERC20.sol\":11237:11297  ERC20InsufficientAllowance(spender, currentAllowance, value) */\n      mload(0x40)\n      shl(0xe1, 0x7dc7a0d9)\n      dup2\n      mstore\n      sub(shl(0xa0, 0x01), 0x01)\n        /* \"#utility.yul\":4764:4796   */\n      dup5\n      and\n        /* \"lib/openzeppelin-contracts/contracts/token/ERC20/ERC20.sol\":11237:11297  ERC20InsufficientAllowance(spender, currentAllowance, value) */\n      0x04\n      dup3\n      add\n        /* \"#utility.yul\":4746:4797   */\n      mstore\n        /* \"#utility.yul\":4813:4831   */\n      0x24\n      dup2\n      add\n        /* \"#utility.yul\":4806:4840   */\n      dup3\n      swap1\n      mstore\n        /* \"#utility.yul\":4856:4874   */\n      0x44\n      dup2\n      add\n        /* \"#utility.yul\":4849:4883   */\n      dup4\n      swap1\n      mstore\n        /* \"#utility.yul\":4719:4737   */\n      0x64\n      add\n        /* \"lib/openzeppelin-contracts/contracts/token/ERC20/ERC20.sol\":11237:11297  ERC20InsufficientAllowance(spender, currentAllowance, value) */\n      tag_101\n        /* \"#utility.yul\":4544:4889   */\n      jump\n        /* \"lib/openzeppelin-contracts/contracts/token/ERC20/ERC20.sol\":11181:11313  if (currentAllowance < value) {... */\n    tag_157:\n        /* \"lib/openzeppelin-contracts/contracts/token/ERC20/ERC20.sol\":11356:11413  _approve(owner, spender, currentAllowance - value, false) */\n      tag_159\n        /* \"lib/openzeppelin-contracts/contracts/token/ERC20/ERC20.sol\":11365:11370  owner */\n      dup5\n        /* \"lib/openzeppelin-contracts/contracts/token/ERC20/ERC20.sol\":11372:11379  spender */\n      dup5\n        /* \"lib/openzeppelin-contracts/contracts/token/ERC20/ERC20.sol\":11400:11405  value */\n      dup5\n        /* \"lib/openzeppelin-contracts/contracts/token/ERC20/ERC20.sol\":11381:11397  currentAllowance */\n      dup5\n        /* \"lib/openzeppelin-contracts/contracts/token/ERC20/ERC20.sol\":11381:11405  currentAllowance - value */\n      sub\n        /* \"lib/openzeppelin-contracts/contracts/token/ERC20/ERC20.sol\":11407:11412  false */\n      0x00\n        /* \"lib/openzeppelin-contracts/contracts/token/ERC20/ERC20.sol\":11356:11364  _approve */\n      tag_153\n        /* \"lib/openzeppelin-contracts/contracts/token/ERC20/ERC20.sol\":11356:11413  _approve(owner, spender, currentAllowance - value, false) */\n      jump\t// in\n    tag_159:\n        /* \"lib/openzeppelin-contracts/contracts/token/ERC20/ERC20.sol\":11049:11447  {... */\n      pop\n        /* \"lib/openzeppelin-contracts/contracts/token/ERC20/ERC20.sol\":10960:11447  function _spendAllowance(address owner, address spender, uint256 value) internal virtual {... */\n      pop\n      pop\n      pop\n      jump\t// out\n        /* \"lib/openzeppelin-contracts/contracts/token/ERC20/ERC20.sol\":5823:6131  function _transfer(address from, address to, uint256 value) internal {... */\n    tag_118:\n      sub(shl(0xa0, 0x01), 0x01)\n        /* \"lib/openzeppelin-contracts/contracts/token/ERC20/ERC20.sol\":5907:5925  from == address(0) */\n      dup4\n      and\n        /* \"lib/openzeppelin-contracts/contracts/token/ERC20/ERC20.sol\":5903:5991  if (from == address(0)) {... */\n      tag_161\n      jumpi\n        /* \"lib/openzeppelin-contracts/contracts/token/ERC20/ERC20.sol\":5949:5979  ERC20InvalidSender(address(0)) */\n      mload(0x40)\n      shl(0xe1, 0x4b637e8f)\n      dup2\n      mstore\n        /* \"lib/openzeppelin-contracts/contracts/token/ERC20/ERC20.sol\":5976:5977  0 */\n      0x00\n        /* \"lib/openzeppelin-contracts/contracts/token/ERC20/ERC20.sol\":5949:5979  ERC20InvalidSender(address(0)) */\n      0x04\n      dup3\n      add\n        /* \"#utility.yul\":5181:5232   */\n      mstore\n        /* \"#utility.yul\":5154:5172   */\n      0x24\n      add\n        /* \"lib/openzeppelin-contracts/contracts/token/ERC20/ERC20.sol\":5949:5979  ERC20InvalidSender(address(0)) */\n      tag_101\n        /* \"#utility.yul\":5035:5238   */\n      jump\n        /* \"lib/openzeppelin-contracts/contracts/token/ERC20/ERC20.sol\":5903:5991  if (from == address(0)) {... */\n    tag_161:\n      sub(shl(0xa0, 0x01), 0x01)\n        /* \"lib/openzeppelin-contracts/contracts/token/ERC20/ERC20.sol\":6005:6021  to == address(0) */\n      dup3\n      and\n        /* \"lib/openzeppelin-contracts/contracts/token/ERC20/ERC20.sol\":6001:6089  if (to == address(0)) {... */\n      tag_163\n      jumpi\n        /* \"lib/openzeppelin-contracts/contracts/token/ERC20/ERC20.sol\":6045:6077  ERC20InvalidReceiver(address(0)) */\n      mload(0x40)\n      shl(0xe0, 0xec442f05)\n      dup2\n      mstore\n        /* \"lib/openzeppelin-contracts/contracts/token/ERC20/ERC20.sol\":6074:6075  0 */\n      0x00\n        /* \"lib/openzeppelin-contracts/contracts/token/ERC20/ERC20.sol\":6045:6077  ERC20InvalidReceiver(address(0)) */\n      0x04\n      dup3\n      add\n        /* \"#utility.yul\":5181:5232   */\n      mstore\n        /* \"#utility.yul\":5154:5172   */\n      0x24\n      add\n        /* \"lib/openzeppelin-contracts/contracts/token/ERC20/ERC20.sol\":6045:6077  ERC20InvalidReceiver(address(0)) */\n      tag_101\n        /* \"#utility.yul\":5035:5238   */\n      jump\n        /* \"lib/openzeppelin-contracts/contracts/token/ERC20/ERC20.sol\":6001:6089  if (to == address(0)) {... */\n    tag_163:\n        /* \"lib/openzeppelin-contracts/contracts/token/ERC20/ERC20.sol\":6099:6123  _update(from, to, value) */\n      tag_152\n        /* \"lib/openzeppelin-contracts/contracts/token/ERC20/ERC20.sol\":6107:6111  from */\n      dup4\n        /* \"lib/openzeppelin-contracts/contracts/token/ERC20/ERC20.sol\":6113:6115  to */\n      dup4\n        /* \"lib/openzeppelin-contracts/contracts/token/ERC20/ERC20.sol\":6117:6122  value */\n      dup4\n        /* \"lib/openzeppelin-contracts/contracts/token/ERC20/ERC20.sol\":6099:6106  _update */\n      tag_35\n        /* \"lib/openzeppelin-contracts/contracts/token/ERC20/ERC20.sol\":6099:6123  _update(from, to, value) */\n      jump\t// in\n        /* \"lib/openzeppelin-contracts/contracts/token/ERC20/ERC20.sol\":10225:10668  function _approve(address owner, address spender, uint256 value, bool emitEvent) internal virtual {... */\n    tag_153:\n      sub(shl(0xa0, 0x01), 0x01)\n        /* \"lib/openzeppelin-contracts/contracts/token/ERC20/ERC20.sol\":10338:10357  owner == address(0) */\n      dup5\n      and\n        /* \"lib/openzeppelin-contracts/contracts/token/ERC20/ERC20.sol\":10334:10425  if (owner == address(0)) {... */\n      tag_167\n      jumpi\n        /* \"lib/openzeppelin-contracts/contracts/token/ERC20/ERC20.sol\":10381:10413  ERC20InvalidApprover(address(0)) */\n      mload(0x40)\n      shl(0xe0, 0xe602df05)\n      dup2\n      mstore\n        /* \"lib/openzeppelin-contracts/contracts/token/ERC20/ERC20.sol\":10410:10411  0 */\n      0x00\n        /* \"lib/openzeppelin-contracts/contracts/token/ERC20/ERC20.sol\":10381:10413  ERC20InvalidApprover(address(0)) */\n      0x04\n      dup3\n      add\n        /* \"#utility.yul\":5181:5232   */\n      mstore\n        /* \"#utility.yul\":5154:5172   */\n      0x24\n      add\n        /* \"lib/openzeppelin-contracts/contracts/token/ERC20/ERC20.sol\":10381:10413  ERC20InvalidApprover(address(0)) */\n      tag_101\n        /* \"#utility.yul\":5035:5238   */\n      jump\n        /* \"lib/openzeppelin-contracts/contracts/token/ERC20/ERC20.sol\":10334:10425  if (owner == address(0)) {... */\n    tag_167:\n      sub(shl(0xa0, 0x01), 0x01)\n        /* \"lib/openzeppelin-contracts/contracts/token/ERC20/ERC20.sol\":10439:10460  spender == address(0) */\n      dup4\n      and\n        /* \"lib/openzeppelin-contracts/contracts/token/ERC20/ERC20.sol\":10435:10527  if (spender == address(0)) {... */\n      tag_169\n      jumpi\n        /* \"lib/openzeppelin-contracts/contracts/token/ERC20/ERC20.sol\":10484:10515  ERC20InvalidSpender(address(0)) */\n      mload(0x40)\n      shl(0xe1, 0x4a1406b1)\n      dup2\n      mstore\n        /* \"lib/openzeppelin-contracts/contracts/token/ERC20/ERC20.sol\":10512:10513  0 */\n      0x00\n        /* \"lib/openzeppelin-contracts/contracts/token/ERC20/ERC20.sol\":10484:10515  ERC20InvalidSpender(address(0)) */\n      0x04\n      dup3\n      add\n        /* \"#utility.yul\":5181:5232   */\n      mstore\n        /* \"#utility.yul\":5154:5172   */\n      0x24\n      add\n        /* \"lib/openzeppelin-contracts/contracts/token/ERC20/ERC20.sol\":10484:10515  ERC20InvalidSpender(address(0)) */\n      tag_101\n        /* \"#utility.yul\":5035:5238   */\n      jump\n        /* \"lib/openzeppelin-contracts/contracts/token/ERC20/ERC20.sol\":10435:10527  if (spender == address(0)) {... */\n    tag_169:\n      sub(shl(0xa0, 0x01), 0x01)\n        /* \"lib/openzeppelin-contracts/contracts/token/ERC20/ERC20.sol\":10537:10555  _allowances[owner] */\n      dup1\n      dup6\n      and\n      0x00\n      swap1\n      dup2\n      mstore\n        /* \"lib/openzeppelin-contracts/contracts/token/ERC20/ERC20.sol\":10537:10548  _allowances */\n      0x01\n        /* \"lib/openzeppelin-contracts/contracts/token/ERC20/ERC20.sol\":10537:10555  _allowances[owner] */\n      0x20\n      swap1\n      dup2\n      mstore\n      0x40\n      dup1\n      dup4\n      keccak256\n        /* \"lib/openzeppelin-contracts/contracts/token/ERC20/ERC20.sol\":10537:10564  _allowances[owner][spender] */\n      swap4\n      dup8\n      and\n      dup4\n      mstore\n      swap3\n      swap1\n      mstore\n      keccak256\n        /* \"lib/openzeppelin-contracts/contracts/token/ERC20/ERC20.sol\":10537:10572  _allowances[owner][spender] = value */\n      dup3\n      swap1\n      sstore\n        /* \"lib/openzeppelin-contracts/contracts/token/ERC20/ERC20.sol\":10583:10661  if (emitEvent) {... */\n      dup1\n      iszero\n      tag_159\n      jumpi\n        /* \"lib/openzeppelin-contracts/contracts/token/ERC20/ERC20.sol\":10634:10641  spender */\n      dup3\n      sub(shl(0xa0, 0x01), 0x01)\n        /* \"lib/openzeppelin-contracts/contracts/token/ERC20/ERC20.sol\":10618:10649  Approval(owner, spender, value) */\n      and\n        /* \"lib/openzeppelin-contracts/contracts/token/ERC20/ERC20.sol\":10627:10632  owner */\n      dup5\n      sub(shl(0xa0, 0x01), 0x01)\n        /* \"lib/openzeppelin-contracts/contracts/token/ERC20/ERC20.sol\":10618:10649  Approval(owner, spender, value) */\n      and\n      0x8c5be1e5ebec7d5bd14f71427d1e84f3dd0314c0f7b2291e5b200ac8c7c3b925\n        /* \"lib/openzeppelin-contracts/contracts/token/ERC20/ERC20.sol\":10643:10648  value */\n      dup5\n        /* \"lib/openzeppelin-contracts/contracts/token/ERC20/ERC20.sol\":10618:10649  Approval(owner, spender, value) */\n      mload(0x40)\n      tag_172\n      swap2\n        /* \"#utility.yul\":1675:1700   */\n      dup2\n      mstore\n        /* \"#utility.yul\":1663:1665   */\n      0x20\n        /* \"#utility.yul\":1648:1666   */\n      add\n      swap1\n        /* \"#utility.yul\":1529:1706   */\n      jump\n        /* \"lib/openzeppelin-contracts/contracts/token/ERC20/ERC20.sol\":10618:10649  Approval(owner, spender, value) */\n    tag_172:\n      mload(0x40)\n      dup1\n      swap2\n      sub\n      swap1\n      log3\n        /* \"lib/openzeppelin-contracts/contracts/token/ERC20/ERC20.sol\":10225:10668  function _approve(address owner, address spender, uint256 value, bool emitEvent) internal virtual {... */\n      pop\n      pop\n      pop\n      pop\n      jump\t// out\n        /* \"#utility.yul\":14:562   */\n    tag_25:\n        /* \"#utility.yul\":126:130   */\n      0x00\n        /* \"#utility.yul\":155:157   */\n      0x20\n        /* \"#utility.yul\":184:186   */\n      dup1\n        /* \"#utility.yul\":173:182   */\n      dup4\n        /* \"#utility.yul\":166:187   */\n      mstore\n        /* \"#utility.yul\":216:222   */\n      dup4\n        /* \"#utility.yul\":210:223   */\n      mload\n        /* \"#utility.yul\":259:265   */\n      dup1\n        /* \"#utility.yul\":254:256   */\n      dup3\n        /* \"#utility.yul\":243:252   */\n      dup6\n        /* \"#utility.yul\":239:257   */\n      add\n        /* \"#utility.yul\":232:266   */\n      mstore\n        /* \"#utility.yul\":284:285   */\n      0x00\n        /* \"#utility.yul\":294:434   */\n    tag_182:\n        /* \"#utility.yul\":308:314   */\n      dup2\n        /* \"#utility.yul\":305:306   */\n      dup2\n        /* \"#utility.yul\":302:315   */\n      lt\n        /* \"#utility.yul\":294:434   */\n      iszero\n      tag_184\n      jumpi\n        /* \"#utility.yul\":403:417   */\n      dup6\n      dup2\n      add\n        /* \"#utility.yul\":399:422   */\n      dup4\n      add\n        /* \"#utility.yul\":393:423   */\n      mload\n        /* \"#utility.yul\":369:386   */\n      dup6\n      dup3\n      add\n        /* \"#utility.yul\":388:390   */\n      0x40\n        /* \"#utility.yul\":365:391   */\n      add\n        /* \"#utility.yul\":358:424   */\n      mstore\n        /* \"#utility.yul\":323:333   */\n      dup3\n      add\n        /* \"#utility.yul\":294:434   */\n      jump(tag_182)\n    tag_184:\n        /* \"#utility.yul\":298:301   */\n      pop\n        /* \"#utility.yul\":483:484   */\n      0x00\n        /* \"#utility.yul\":478:480   */\n      0x40\n        /* \"#utility.yul\":469:475   */\n      dup3\n        /* \"#utility.yul\":458:467   */\n      dup7\n        /* \"#utility.yul\":454:476   */\n      add\n        /* \"#utility.yul\":450:481   */\n      add\n        /* \"#utility.yul\":443:485   */\n      mstore\n        /* \"#utility.yul\":553:555   */\n      0x40\n        /* \"#utility.yul\":546:548   */\n      0x1f\n        /* \"#utility.yul\":542:549   */\n      not\n        /* \"#utility.yul\":537:539   */\n      0x1f\n        /* \"#utility.yul\":529:535   */\n      dup4\n        /* \"#utility.yul\":525:540   */\n      add\n        /* \"#utility.yul\":521:550   */\n      and\n        /* \"#utility.yul\":510:519   */\n      dup6\n        /* \"#utility.yul\":506:551   */\n      add\n        /* \"#utility.yul\":502:556   */\n      add\n        /* \"#utility.yul\":494:556   */\n      swap3\n      pop\n      pop\n      pop\n        /* \"#utility.yul\":14:562   */\n      swap3\n      swap2\n      pop\n      pop\n      jump\t// out\n        /* \"#utility.yul\":567:740   */\n    tag_173:\n        /* \"#utility.yul\":635:655   */\n      dup1\n      calldataload\n      sub(shl(0xa0, 0x01), 0x01)\n        /* \"#utility.yul\":684:715   */\n      dup2\n      and\n        /* \"#utility.yul\":674:716   */\n      dup2\n      eq\n        /* \"#utility.yul\":664:734   */\n      tag_186\n      jumpi\n        /* \"#utility.yul\":730:731   */\n      0x00\n        /* \"#utility.yul\":727:728   */\n      dup1\n        /* \"#utility.yul\":720:732   */\n      revert\n        /* \"#utility.yul\":664:734   */\n    tag_186:\n        /* \"#utility.yul\":567:740   */\n      swap2\n      swap1\n      pop\n      jump\t// out\n        /* \"#utility.yul\":745:999   */\n    tag_28:\n        /* \"#utility.yul\":813:819   */\n      0x00\n        /* \"#utility.yul\":821:827   */\n      dup1\n        /* \"#utility.yul\":874:876   */\n      0x40\n        /* \"#utility.yul\":862:871   */\n      dup4\n        /* \"#utility.yul\":853:860   */\n      dup6\n        /* \"#utility.yul\":849:872   */\n      sub\n        /* \"#utility.yul\":845:877   */\n      slt\n        /* \"#utility.yul\":842:894   */\n      iszero\n      tag_188\n      jumpi\n        /* \"#utility.yul\":890:891   */\n      0x00\n        /* \"#utility.yul\":887:888   */\n      dup1\n        /* \"#utility.yul\":880:892   */\n      revert\n        /* \"#utility.yul\":842:894   */\n    tag_188:\n        /* \"#utility.yul\":913:942   */\n      tag_189\n        /* \"#utility.yul\":932:941   */\n      dup4\n        /* \"#utility.yul\":913:942   */\n      tag_173\n      jump\t// in\n    tag_189:\n        /* \"#utility.yul\":903:942   */\n      swap5\n        /* \"#utility.yul\":989:991   */\n      0x20\n        /* \"#utility.yul\":974:992   */\n      swap4\n      swap1\n      swap4\n      add\n        /* \"#utility.yul\":961:993   */\n      calldataload\n      swap4\n      pop\n      pop\n      pop\n        /* \"#utility.yul\":745:999   */\n      jump\t// out\n        /* \"#utility.yul\":1196:1524   */\n    tag_34:\n        /* \"#utility.yul\":1273:1279   */\n      0x00\n        /* \"#utility.yul\":1281:1287   */\n      dup1\n        /* \"#utility.yul\":1289:1295   */\n      0x00\n        /* \"#utility.yul\":1342:1344   */\n      0x60\n        /* \"#utility.yul\":1330:1339   */\n      dup5\n        /* \"#utility.yul\":1321:1328   */\n      dup7\n        /* \"#utility.yul\":1317:1340   */\n      sub\n        /* \"#utility.yul\":1313:1345   */\n      slt\n        /* \"#utility.yul\":1310:1362   */\n      iszero\n      tag_192\n      jumpi\n        /* \"#utility.yul\":1358:1359   */\n      0x00\n        /* \"#utility.yul\":1355:1356   */\n      dup1\n        /* \"#utility.yul\":1348:1360   */\n      revert\n        /* \"#utility.yul\":1310:1362   */\n    tag_192:\n        /* \"#utility.yul\":1381:1410   */\n      tag_193\n        /* \"#utility.yul\":1400:1409   */\n      dup5\n        /* \"#utility.yul\":1381:1410   */\n      tag_173\n      jump\t// in\n    tag_193:\n        /* \"#utility.yul\":1371:1410   */\n      swap3\n      pop\n        /* \"#utility.yul\":1429:1467   */\n      tag_194\n        /* \"#utility.yul\":1463:1465   */\n      0x20\n        /* \"#utility.yul\":1452:1461   */\n      dup6\n        /* \"#utility.yul\":1448:1466   */\n      add\n        /* \"#utility.yul\":1429:1467   */\n      tag_173\n      jump\t// in\n    tag_194:\n        /* \"#utility.yul\":1419:1467   */\n      swap2\n      pop\n        /* \"#utility.yul\":1514:1516   */\n      0x40\n        /* \"#utility.yul\":1503:1512   */\n      dup5\n        /* \"#utility.yul\":1499:1517   */\n      add\n        /* \"#utility.yul\":1486:1518   */\n      calldataload\n        /* \"#utility.yul\":1476:1518   */\n      swap1\n      pop\n        /* \"#utility.yul\":1196:1524   */\n      swap3\n      pop\n      swap3\n      pop\n      swap3\n      jump\t// out\n        /* \"#utility.yul\":1900:2086   */\n    tag_58:\n        /* \"#utility.yul\":1959:1965   */\n      0x00\n        /* \"#utility.yul\":2012:2014   */\n      0x20\n        /* \"#utility.yul\":2000:2009   */\n      dup3\n        /* \"#utility.yul\":1991:1998   */\n      dup5\n        /* \"#utility.yul\":1987:2010   */\n      sub\n        /* \"#utility.yul\":1983:2015   */\n      slt\n        /* \"#utility.yul\":1980:2032   */\n      iszero\n      tag_198\n      jumpi\n        /* \"#utility.yul\":2028:2029   */\n      0x00\n        /* \"#utility.yul\":2025:2026   */\n      dup1\n        /* \"#utility.yul\":2018:2030   */\n      revert\n        /* \"#utility.yul\":1980:2032   */\n    tag_198:\n        /* \"#utility.yul\":2051:2080   */\n      tag_199\n        /* \"#utility.yul\":2070:2079   */\n      dup3\n        /* \"#utility.yul\":2051:2080   */\n      tag_173\n      jump\t// in\n    tag_199:\n        /* \"#utility.yul\":2041:2080   */\n      swap4\n        /* \"#utility.yul\":1900:2086   */\n      swap3\n      pop\n      pop\n      pop\n      jump\t// out\n        /* \"#utility.yul\":2091:2218   */\n    tag_174:\n        /* \"#utility.yul\":2152:2162   */\n      0x4e487b71\n        /* \"#utility.yul\":2147:2150   */\n      0xe0\n        /* \"#utility.yul\":2143:2163   */\n      shl\n        /* \"#utility.yul\":2140:2141   */\n      0x00\n        /* \"#utility.yul\":2133:2164   */\n      mstore\n        /* \"#utility.yul\":2183:2187   */\n      0x41\n        /* \"#utility.yul\":2180:2181   */\n      0x04\n        /* \"#utility.yul\":2173:2188   */\n      mstore\n        /* \"#utility.yul\":2207:2211   */\n      0x24\n        /* \"#utility.yul\":2204:2205   */\n      0x00\n        /* \"#utility.yul\":2197:2212   */\n      revert\n        /* \"#utility.yul\":2223:2942   */\n    tag_175:\n        /* \"#utility.yul\":2266:2271   */\n      0x00\n        /* \"#utility.yul\":2319:2322   */\n      dup3\n        /* \"#utility.yul\":2312:2316   */\n      0x1f\n        /* \"#utility.yul\":2304:2310   */\n      dup4\n        /* \"#utility.yul\":2300:2317   */\n      add\n        /* \"#utility.yul\":2296:2323   */\n      slt\n        /* \"#utility.yul\":2286:2341   */\n      tag_202\n      jumpi\n        /* \"#utility.yul\":2337:2338   */\n      0x00\n        /* \"#utility.yul\":2334:2335   */\n      dup1\n        /* \"#utility.yul\":2327:2339   */\n      revert\n        /* \"#utility.yul\":2286:2341   */\n    tag_202:\n        /* \"#utility.yul\":2373:2379   */\n      dup2\n        /* \"#utility.yul\":2360:2380   */\n      calldataload\n        /* \"#utility.yul\":2399:2417   */\n      0xffffffffffffffff\n        /* \"#utility.yul\":2436:2438   */\n      dup1\n        /* \"#utility.yul\":2432:2434   */\n      dup3\n        /* \"#utility.yul\":2429:2439   */\n      gt\n        /* \"#utility.yul\":2426:2462   */\n      iszero\n      tag_204\n      jumpi\n        /* \"#utility.yul\":2442:2460   */\n      tag_204\n      tag_174\n      jump\t// in\n    tag_204:\n        /* \"#utility.yul\":2517:2519   */\n      0x40\n        /* \"#utility.yul\":2511:2520   */\n      mload\n        /* \"#utility.yul\":2485:2487   */\n      0x1f\n        /* \"#utility.yul\":2571:2584   */\n      dup4\n      add\n      not(0x1f)\n        /* \"#utility.yul\":2567:2589   */\n      swap1\n      dup2\n      and\n        /* \"#utility.yul\":2591:2593   */\n      0x3f\n        /* \"#utility.yul\":2563:2594   */\n      add\n        /* \"#utility.yul\":2559:2599   */\n      and\n        /* \"#utility.yul\":2547:2600   */\n      dup2\n      add\n      swap1\n        /* \"#utility.yul\":2615:2633   */\n      dup3\n      dup3\n      gt\n        /* \"#utility.yul\":2635:2657   */\n      dup2\n      dup4\n      lt\n        /* \"#utility.yul\":2612:2658   */\n      or\n        /* \"#utility.yul\":2609:2681   */\n      iszero\n      tag_206\n      jumpi\n        /* \"#utility.yul\":2661:2679   */\n      tag_206\n      tag_174\n      jump\t// in\n    tag_206:\n        /* \"#utility.yul\":2701:2711   */\n      dup2\n        /* \"#utility.yul\":2697:2699   */\n      0x40\n        /* \"#utility.yul\":2690:2712   */\n      mstore\n        /* \"#utility.yul\":2736:2738   */\n      dup4\n        /* \"#utility.yul\":2728:2734   */\n      dup2\n        /* \"#utility.yul\":2721:2739   */\n      mstore\n        /* \"#utility.yul\":2782:2785   */\n      dup7\n        /* \"#utility.yul\":2775:2779   */\n      0x20\n        /* \"#utility.yul\":2770:2772   */\n      dup6\n        /* \"#utility.yul\":2762:2768   */\n      dup9\n        /* \"#utility.yul\":2758:2773   */\n      add\n        /* \"#utility.yul\":2754:2780   */\n      add\n        /* \"#utility.yul\":2751:2786   */\n      gt\n        /* \"#utility.yul\":2748:2803   */\n      iszero\n      tag_207\n      jumpi\n        /* \"#utility.yul\":2799:2800   */\n      0x00\n        /* \"#utility.yul\":2796:2797   */\n      dup1\n        /* \"#utility.yul\":2789:2801   */\n      revert\n        /* \"#utility.yul\":2748:2803   */\n    tag_207:\n        /* \"#utility.yul\":2863:2865   */\n      dup4\n        /* \"#utility.yul\":2856:2860   */\n      0x20\n        /* \"#utility.yul\":2848:2854   */\n      dup8\n        /* \"#utility.yul\":2844:2861   */\n      add\n        /* \"#utility.yul\":2837:2841   */\n      0x20\n        /* \"#utility.yul\":2829:2835   */\n      dup4\n        /* \"#utility.yul\":2825:2842   */\n      add\n        /* \"#utility.yul\":2812:2866   */\n      calldatacopy\n        /* \"#utility.yul\":2910:2911   */\n      0x00\n        /* \"#utility.yul\":2903:2907   */\n      0x20\n        /* \"#utility.yul\":2898:2900   */\n      dup6\n        /* \"#utility.yul\":2890:2896   */\n      dup4\n        /* \"#utility.yul\":2886:2901   */\n      add\n        /* \"#utility.yul\":2882:2908   */\n      add\n        /* \"#utility.yul\":2875:2912   */\n      mstore\n        /* \"#utility.yul\":2930:2936   */\n      dup1\n        /* \"#utility.yul\":2921:2936   */\n      swap5\n      pop\n      pop\n      pop\n      pop\n      pop\n        /* \"#utility.yul\":2223:2942   */\n      swap3\n      swap2\n      pop\n      pop\n      jump\t// out\n        /* \"#utility.yul\":2947:3627   */\n    tag_63:\n        /* \"#utility.yul\":3053:3059   */\n      0x00\n        /* \"#utility.yul\":3061:3067   */\n      dup1\n        /* \"#utility.yul\":3069:3075   */\n      0x00\n        /* \"#utility.yul\":3077:3083   */\n      dup1\n        /* \"#utility.yul\":3130:3133   */\n      0x80\n        /* \"#utility.yul\":3118:3127   */\n      dup6\n        /* \"#utility.yul\":3109:3116   */\n      dup8\n        /* \"#utility.yul\":3105:3128   */\n      sub\n        /* \"#utility.yul\":3101:3134   */\n      slt\n        /* \"#utility.yul\":3098:3151   */\n      iszero\n      tag_209\n      jumpi\n        /* \"#utility.yul\":3147:3148   */\n      0x00\n        /* \"#utility.yul\":3144:3145   */\n      dup1\n        /* \"#utility.yul\":3137:3149   */\n      revert\n        /* \"#utility.yul\":3098:3151   */\n    tag_209:\n        /* \"#utility.yul\":3187:3196   */\n      dup5\n        /* \"#utility.yul\":3174:3197   */\n      calldataload\n        /* \"#utility.yul\":3216:3234   */\n      0xffffffffffffffff\n        /* \"#utility.yul\":3257:3259   */\n      dup1\n        /* \"#utility.yul\":3249:3255   */\n      dup3\n        /* \"#utility.yul\":3246:3260   */\n      gt\n        /* \"#utility.yul\":3243:3277   */\n      iszero\n      tag_210\n      jumpi\n        /* \"#utility.yul\":3273:3274   */\n      0x00\n        /* \"#utility.yul\":3270:3271   */\n      dup1\n        /* \"#utility.yul\":3263:3275   */\n      revert\n        /* \"#utility.yul\":3243:3277   */\n    tag_210:\n        /* \"#utility.yul\":3296:3346   */\n      tag_211\n        /* \"#utility.yul\":3338:3345   */\n      dup9\n        /* \"#utility.yul\":3329:3335   */\n      dup4\n        /* \"#utility.yul\":3318:3327   */\n      dup10\n        /* \"#utility.yul\":3314:3336   */\n      add\n        /* \"#utility.yul\":3296:3346   */\n      tag_175\n      jump\t// in\n    tag_211:\n        /* \"#utility.yul\":3286:3346   */\n      swap6\n      pop\n        /* \"#utility.yul\":3399:3401   */\n      0x20\n        /* \"#utility.yul\":3388:3397   */\n      dup8\n        /* \"#utility.yul\":3384:3402   */\n      add\n        /* \"#utility.yul\":3371:3403   */\n      calldataload\n        /* \"#utility.yul\":3355:3403   */\n      swap2\n      pop\n        /* \"#utility.yul\":3428:3430   */\n      dup1\n        /* \"#utility.yul\":3418:3426   */\n      dup3\n        /* \"#utility.yul\":3415:3431   */\n      gt\n        /* \"#utility.yul\":3412:3448   */\n      iszero\n      tag_212\n      jumpi\n        /* \"#utility.yul\":3444:3445   */\n      0x00\n        /* \"#utility.yul\":3441:3442   */\n      dup1\n        /* \"#utility.yul\":3434:3446   */\n      revert\n        /* \"#utility.yul\":3412:3448   */\n    tag_212:\n      pop\n        /* \"#utility.yul\":3467:3519   */\n      tag_213\n        /* \"#utility.yul\":3511:3518   */\n      dup8\n        /* \"#utility.yul\":3500:3508   */\n      dup3\n        /* \"#utility.yul\":3489:3498   */\n      dup9\n        /* \"#utility.yul\":3485:3509   */\n      add\n        /* \"#utility.yul\":3467:3519   */\n      tag_175\n      jump\t// in\n    tag_213:\n        /* \"#utility.yul\":2947:3627   */\n      swap5\n      swap8\n        /* \"#utility.yul\":3457:3519   */\n      swap5\n      swap7\n      pop\n      pop\n      pop\n      pop\n        /* \"#utility.yul\":3566:3568   */\n      0x40\n        /* \"#utility.yul\":3551:3569   */\n      dup4\n      add\n        /* \"#utility.yul\":3538:3570   */\n      calldataload\n      swap3\n        /* \"#utility.yul\":3617:3619   */\n      0x60\n        /* \"#utility.yul\":3602:3620   */\n      add\n        /* \"#utility.yul\":3589:3621   */\n      calldataload\n      swap2\n        /* \"#utility.yul\":2947:3627   */\n      swap1\n      pop\n      jump\t// out\n        /* \"#utility.yul\":3632:3892   */\n    tag_80:\n        /* \"#utility.yul\":3700:3706   */\n      0x00\n        /* \"#utility.yul\":3708:3714   */\n      dup1\n        /* \"#utility.yul\":3761:3763   */\n      0x40\n        /* \"#utility.yul\":3749:3758   */\n      dup4\n        /* \"#utility.yul\":3740:3747   */\n      dup6\n        /* \"#utility.yul\":3736:3759   */\n      sub\n        /* \"#utility.yul\":3732:3764   */\n      slt\n        /* \"#utility.yul\":3729:3781   */\n      iszero\n      tag_215\n      jumpi\n        /* \"#utility.yul\":3777:3778   */\n      0x00\n        /* \"#utility.yul\":3774:3775   */\n      dup1\n        /* \"#utility.yul\":3767:3779   */\n      revert\n        /* \"#utility.yul\":3729:3781   */\n    tag_215:\n        /* \"#utility.yul\":3800:3829   */\n      tag_216\n        /* \"#utility.yul\":3819:3828   */\n      dup4\n        /* \"#utility.yul\":3800:3829   */\n      tag_173\n      jump\t// in\n    tag_216:\n        /* \"#utility.yul\":3790:3829   */\n      swap2\n      pop\n        /* \"#utility.yul\":3848:3886   */\n      tag_217\n        /* \"#utility.yul\":3882:3884   */\n      0x20\n        /* \"#utility.yul\":3871:3880   */\n      dup5\n        /* \"#utility.yul\":3867:3885   */\n      add\n        /* \"#utility.yul\":3848:3886   */\n      tag_173\n      jump\t// in\n    tag_217:\n        /* \"#utility.yul\":3838:3886   */\n      swap1\n      pop\n        /* \"#utility.yul\":3632:3892   */\n      swap3\n      pop\n      swap3\n      swap1\n      pop\n      jump\t// out\n        /* \"#utility.yul\":3897:4277   */\n    tag_85:\n        /* \"#utility.yul\":3976:3977   */\n      0x01\n        /* \"#utility.yul\":3972:3984   */\n      dup2\n      dup2\n      shr\n      swap1\n        /* \"#utility.yul\":4019:4031   */\n      dup3\n      and\n      dup1\n        /* \"#utility.yul\":4040:4101   */\n      tag_219\n      jumpi\n        /* \"#utility.yul\":4094:4098   */\n      0x7f\n        /* \"#utility.yul\":4086:4092   */\n      dup3\n        /* \"#utility.yul\":4082:4099   */\n      and\n        /* \"#utility.yul\":4072:4099   */\n      swap2\n      pop\n        /* \"#utility.yul\":4040:4101   */\n    tag_219:\n        /* \"#utility.yul\":4147:4149   */\n      0x20\n        /* \"#utility.yul\":4139:4145   */\n      dup3\n        /* \"#utility.yul\":4136:4150   */\n      lt\n        /* \"#utility.yul\":4116:4134   */\n      dup2\n        /* \"#utility.yul\":4113:4151   */\n      sub\n        /* \"#utility.yul\":4110:4271   */\n      tag_220\n      jumpi\n        /* \"#utility.yul\":4193:4203   */\n      0x4e487b71\n        /* \"#utility.yul\":4188:4191   */\n      0xe0\n        /* \"#utility.yul\":4184:4204   */\n      shl\n        /* \"#utility.yul\":4181:4182   */\n      0x00\n        /* \"#utility.yul\":4174:4205   */\n      mstore\n        /* \"#utility.yul\":4228:4232   */\n      0x22\n        /* \"#utility.yul\":4225:4226   */\n      0x04\n        /* \"#utility.yul\":4218:4233   */\n      mstore\n        /* \"#utility.yul\":4256:4260   */\n      0x24\n        /* \"#utility.yul\":4253:4254   */\n      0x00\n        /* \"#utility.yul\":4246:4261   */\n      revert\n        /* \"#utility.yul\":4110:4271   */\n    tag_220:\n      pop\n        /* \"#utility.yul\":3897:4277   */\n      swap2\n      swap1\n      pop\n      jump\t// out\n        /* \"#utility.yul\":4282:4409   */\n    tag_176:\n        /* \"#utility.yul\":4343:4353   */\n      0x4e487b71\n        /* \"#utility.yul\":4338:4341   */\n      0xe0\n        /* \"#utility.yul\":4334:4354   */\n      shl\n        /* \"#utility.yul\":4331:4332   */\n      0x00\n        /* \"#utility.yul\":4324:4355   */\n      mstore\n        /* \"#utility.yul\":4374:4378   */\n      0x11\n        /* \"#utility.yul\":4371:4372   */\n      0x04\n        /* \"#utility.yul\":4364:4379   */\n      mstore\n        /* \"#utility.yul\":4398:4402   */\n      0x24\n        /* \"#utility.yul\":4395:4396   */\n      0x00\n        /* \"#utility.yul\":4388:4403   */\n      revert\n        /* \"#utility.yul\":4414:4539   */\n    tag_98:\n        /* \"#utility.yul\":4479:4488   */\n      dup1\n      dup3\n      add\n        /* \"#utility.yul\":4500:4510   */\n      dup1\n      dup3\n      gt\n        /* \"#utility.yul\":4497:4533   */\n      iszero\n      tag_90\n      jumpi\n        /* \"#utility.yul\":4513:4531   */\n      tag_90\n      tag_176\n      jump\t// in\n        /* \"#utility.yul\":4894:5030   */\n    tag_110:\n        /* \"#utility.yul\":4933:4936   */\n      0x00\n        /* \"#utility.yul\":4961:4966   */\n      dup2\n        /* \"#utility.yul\":4951:4990   */\n      tag_228\n      jumpi\n        /* \"#utility.yul\":4970:4988   */\n      tag_228\n      tag_176\n      jump\t// in\n    tag_228:\n      pop\n      not(0x00)\n        /* \"#utility.yul\":5006:5024   */\n      add\n      swap1\n        /* \"#utility.yul\":4894:5030   */\n      jump\t// out\n        /* \"#utility.yul\":5369:5914   */\n    tag_178:\n        /* \"#utility.yul\":5471:5473   */\n      0x1f\n        /* \"#utility.yul\":5466:5469   */\n      dup3\n        /* \"#utility.yul\":5463:5474   */\n      gt\n        /* \"#utility.yul\":5460:5908   */\n      iszero\n      tag_152\n      jumpi\n        /* \"#utility.yul\":5507:5508   */\n      0x00\n        /* \"#utility.yul\":5532:5537   */\n      dup2\n        /* \"#utility.yul\":5528:5530   */\n      dup2\n        /* \"#utility.yul\":5521:5538   */\n      mstore\n        /* \"#utility.yul\":5577:5581   */\n      0x20\n        /* \"#utility.yul\":5573:5575   */\n      dup2\n        /* \"#utility.yul\":5563:5582   */\n      keccak256\n        /* \"#utility.yul\":5647:5649   */\n      0x1f\n        /* \"#utility.yul\":5635:5645   */\n      dup6\n        /* \"#utility.yul\":5631:5650   */\n      add\n        /* \"#utility.yul\":5628:5629   */\n      0x05\n        /* \"#utility.yul\":5624:5651   */\n      shr\n        /* \"#utility.yul\":5618:5622   */\n      dup2\n        /* \"#utility.yul\":5614:5652   */\n      add\n        /* \"#utility.yul\":5683:5687   */\n      0x20\n        /* \"#utility.yul\":5671:5681   */\n      dup7\n        /* \"#utility.yul\":5668:5688   */\n      lt\n        /* \"#utility.yul\":5665:5712   */\n      iszero\n      tag_233\n      jumpi\n      pop\n        /* \"#utility.yul\":5706:5710   */\n      dup1\n        /* \"#utility.yul\":5665:5712   */\n    tag_233:\n        /* \"#utility.yul\":5761:5763   */\n      0x1f\n        /* \"#utility.yul\":5756:5759   */\n      dup6\n        /* \"#utility.yul\":5752:5764   */\n      add\n        /* \"#utility.yul\":5749:5750   */\n      0x05\n        /* \"#utility.yul\":5745:5765   */\n      shr\n        /* \"#utility.yul\":5739:5743   */\n      dup3\n        /* \"#utility.yul\":5735:5766   */\n      add\n        /* \"#utility.yul\":5725:5766   */\n      swap2\n      pop\n        /* \"#utility.yul\":5816:5898   */\n    tag_234:\n        /* \"#utility.yul\":5834:5836   */\n      dup2\n        /* \"#utility.yul\":5827:5832   */\n      dup2\n        /* \"#utility.yul\":5824:5837   */\n      lt\n        /* \"#utility.yul\":5816:5898   */\n      iszero\n      tag_236\n      jumpi\n        /* \"#utility.yul\":5879:5896   */\n      dup3\n      dup2\n      sstore\n        /* \"#utility.yul\":5860:5861   */\n      0x01\n        /* \"#utility.yul\":5849:5862   */\n      add\n        /* \"#utility.yul\":5816:5898   */\n      jump(tag_234)\n    tag_236:\n        /* \"#utility.yul\":5820:5823   */\n      pop\n      pop\n      pop\n        /* \"#utility.yul\":5369:5914   */\n      pop\n      pop\n      pop\n      jump\t// out\n        /* \"#utility.yul\":6090:7442   */\n    tag_128:\n        /* \"#utility.yul\":6216:6219   */\n      dup2\n        /* \"#utility.yul\":6210:6220   */\n      mload\n        /* \"#utility.yul\":6243:6261   */\n      0xffffffffffffffff\n        /* \"#utility.yul\":6235:6241   */\n      dup2\n        /* \"#utility.yul\":6232:6262   */\n      gt\n        /* \"#utility.yul\":6229:6285   */\n      iszero\n      tag_240\n      jumpi\n        /* \"#utility.yul\":6265:6283   */\n      tag_240\n      tag_174\n      jump\t// in\n    tag_240:\n        /* \"#utility.yul\":6294:6391   */\n      tag_241\n        /* \"#utility.yul\":6384:6390   */\n      dup2\n        /* \"#utility.yul\":6344:6382   */\n      tag_242\n        /* \"#utility.yul\":6376:6380   */\n      dup5\n        /* \"#utility.yul\":6370:6381   */\n      sload\n        /* \"#utility.yul\":6344:6382   */\n      tag_85\n      jump\t// in\n    tag_242:\n        /* \"#utility.yul\":6338:6342   */\n      dup5\n        /* \"#utility.yul\":6294:6391   */\n      tag_178\n      jump\t// in\n    tag_241:\n        /* \"#utility.yul\":6446:6450   */\n      0x20\n      dup1\n        /* \"#utility.yul\":6510:6512   */\n      0x1f\n        /* \"#utility.yul\":6499:6513   */\n      dup4\n      gt\n        /* \"#utility.yul\":6527:6528   */\n      0x01\n        /* \"#utility.yul\":6522:7185   */\n      dup2\n      eq\n      tag_244\n      jumpi\n        /* \"#utility.yul\":7229:7230   */\n      0x00\n        /* \"#utility.yul\":7246:7252   */\n      dup5\n        /* \"#utility.yul\":7243:7332   */\n      iszero\n      tag_245\n      jumpi\n      pop\n        /* \"#utility.yul\":7298:7317   */\n      dup6\n      dup4\n      add\n        /* \"#utility.yul\":7292:7318   */\n      mload\n        /* \"#utility.yul\":7243:7332   */\n    tag_245:\n      not(0x00)\n        /* \"#utility.yul\":6047:6048   */\n      0x03\n        /* \"#utility.yul\":6043:6054   */\n      dup7\n      swap1\n      shl\n        /* \"#utility.yul\":6039:6063   */\n      shr\n        /* \"#utility.yul\":6035:6064   */\n      not\n        /* \"#utility.yul\":6025:6065   */\n      and\n        /* \"#utility.yul\":6071:6072   */\n      0x01\n        /* \"#utility.yul\":6067:6078   */\n      dup6\n      swap1\n      shl\n        /* \"#utility.yul\":6022:6079   */\n      or\n        /* \"#utility.yul\":7345:7426   */\n      dup6\n      sstore\n        /* \"#utility.yul\":6492:7436   */\n      jump(tag_236)\n        /* \"#utility.yul\":6522:7185   */\n    tag_244:\n        /* \"#utility.yul\":5316:5317   */\n      0x00\n        /* \"#utility.yul\":5309:5323   */\n      dup6\n      dup2\n      mstore\n        /* \"#utility.yul\":5353:5357   */\n      0x20\n        /* \"#utility.yul\":5340:5358   */\n      dup2\n      keccak256\n      not(0x1f)\n        /* \"#utility.yul\":6558:6578   */\n      dup7\n      and\n      swap2\n        /* \"#utility.yul\":6676:6912   */\n    tag_248:\n        /* \"#utility.yul\":6690:6697   */\n      dup3\n        /* \"#utility.yul\":6687:6688   */\n      dup2\n        /* \"#utility.yul\":6684:6698   */\n      lt\n        /* \"#utility.yul\":6676:6912   */\n      iszero\n      tag_250\n      jumpi\n        /* \"#utility.yul\":6779:6798   */\n      dup9\n      dup7\n      add\n        /* \"#utility.yul\":6773:6799   */\n      mload\n        /* \"#utility.yul\":6758:6800   */\n      dup3\n      sstore\n        /* \"#utility.yul\":6871:6898   */\n      swap5\n      dup5\n      add\n      swap5\n        /* \"#utility.yul\":6839:6840   */\n      0x01\n        /* \"#utility.yul\":6827:6841   */\n      swap1\n      swap2\n      add\n      swap1\n        /* \"#utility.yul\":6706:6725   */\n      dup5\n      add\n        /* \"#utility.yul\":6676:6912   */\n      jump(tag_248)\n    tag_250:\n        /* \"#utility.yul\":6680:6683   */\n      pop\n        /* \"#utility.yul\":6940:6946   */\n      dup6\n        /* \"#utility.yul\":6931:6938   */\n      dup3\n        /* \"#utility.yul\":6928:6947   */\n      lt\n        /* \"#utility.yul\":6925:7126   */\n      iszero\n      tag_251\n      jumpi\n        /* \"#utility.yul\":7001:7020   */\n      dup8\n      dup6\n      add\n        /* \"#utility.yul\":6995:7021   */\n      mload\n      not(0x00)\n        /* \"#utility.yul\":7084:7085   */\n      0x03\n        /* \"#utility.yul\":7080:7094   */\n      dup9\n      swap1\n      shl\n        /* \"#utility.yul\":7096:7099   */\n      0xf8\n        /* \"#utility.yul\":7076:7100   */\n      and\n        /* \"#utility.yul\":7072:7109   */\n      shr\n        /* \"#utility.yul\":7068:7110   */\n      not\n        /* \"#utility.yul\":7053:7111   */\n      and\n        /* \"#utility.yul\":7038:7112   */\n      dup2\n      sstore\n        /* \"#utility.yul\":6925:7126   */\n    tag_251:\n      pop\n      pop\n      pop\n      pop\n      pop\n        /* \"#utility.yul\":7172:7173   */\n      0x01\n        /* \"#utility.yul\":7156:7170   */\n      swap1\n      dup2\n      shl\n        /* \"#utility.yul\":7152:7174   */\n      add\n        /* \"#utility.yul\":7139:7175   */\n      swap1\n      sstore\n      pop\n        /* \"#utility.yul\":6090:7442   */\n      jump\t// out\n\n    auxdata: 0xa2646970667358221220b90f50dcca44a6e27d286e1c537ee9c79c6e9295027a09b9c27d5bc9b0e2726064736f6c63430008140033\n}\n",
				"bytecode": {
					"linkReferences": {},
					"object": "608060405234801562000010575f80fd5b506040518060400160405280600781526020016626bcaa37b5b2b760c91b815250604051806040016040528060038152602001624d544b60e81b81525081600390816200005e9190620002c2565b5060046200006d8282620002c2565b505050620000a83362000085620000ae60201b60201c565b6200009290600a62000499565b620000a2906305f5e100620004b0565b620000b3565b620004e0565b601290565b6001600160a01b038216620000e25760405163ec442f0560e01b81525f60048201526024015b60405180910390fd5b620000ef5f8383620000f3565b5050565b6001600160a01b03831662000121578060025f828254620001159190620004ca565b90915550620001939050565b6001600160a01b0383165f9081526020819052604090205481811015620001755760405163391434e360e21b81526001600160a01b03851660048201526024810182905260448101839052606401620000d9565b6001600160a01b0384165f9081526020819052604090209082900390555b6001600160a01b038216620001b157600280548290039055620001cf565b6001600160a01b0382165f9081526020819052604090208054820190555b816001600160a01b0316836001600160a01b03167fddf252ad1be2c89b69c2b068fc378daa952ba7f163c4a11628f55a4df523b3ef836040516200021591815260200190565b60405180910390a3505050565b634e487b7160e01b5f52604160045260245ffd5b600181811c908216806200024b57607f821691505b6020821081036200026a57634e487b7160e01b5f52602260045260245ffd5b50919050565b601f821115620002bd575f81815260208120601f850160051c81016020861015620002985750805b601f850160051c820191505b81811015620002b957828155600101620002a4565b5050505b505050565b81516001600160401b03811115620002de57620002de62000222565b620002f681620002ef845462000236565b8462000270565b602080601f8311600181146200032c575f8415620003145750858301515b5f19600386901b1c1916600185901b178555620002b9565b5f85815260208120601f198616915b828110156200035c578886015182559484019460019091019084016200033b565b50858210156200037a57878501515f19600388901b60f8161c191681555b5050505050600190811b01905550565b634e487b7160e01b5f52601160045260245ffd5b600181815b80851115620003de57815f1904821115620003c257620003c26200038a565b80851615620003d057918102915b93841c9390800290620003a3565b509250929050565b5f82620003f65750600162000493565b816200040457505f62000493565b81600181146200041d5760028114620004285762000448565b600191505062000493565b60ff8411156200043c576200043c6200038a565b50506001821b62000493565b5060208310610133831016604e8410600b84101617156200046d575081810a62000493565b6200047983836200039e565b805f19048211156200048f576200048f6200038a565b0290505b92915050565b5f620004a960ff841683620003e6565b9392505050565b80820281158282048414176200049357620004936200038a565b808201808211156200049357620004936200038a565b610b5080620004ee5f395ff3fe608060405234801561000f575f80fd5b50600436106100fb575f3560e01c80634e6ec24711610093578063a9059cbb11610063578063a9059cbb146101f0578063b09f126614610203578063d28d88521461020b578063dd62ed3e14610213575f80fd5b80634e6ec2471461019a57806370a08231146101ad57806387c80464146101d557806395d89b41146101e8575f80fd5b806318160ddd116100ce57806318160ddd1461015d57806323b872dd1461016f578063313ce567146101825780633eaaf86b14610191575f80fd5b806306fdde03146100ff578063095ea7b31461011d5780630bb3bfa8146101405780631249c58b14610155575b5f80fd5b61010761024b565b6040516101149190610779565b60405180910390f35b61013061012b3660046107df565b6102db565b6040519015158152602001610114565b61015361014e366004610807565b6102f4565b005b61015361041f565b6002545b604051908152602001610114565b61013061017d366004610807565b610486565b60405160128152602001610114565b61016160025481565b6101536101a83660046107df565b6104a9565b6101616101bb366004610840565b6001600160a01b03165f9081526020819052604090205490565b6101536101e33660046108fd565b6104e1565b610107610508565b6101306101fe3660046107df565b610517565b610107610524565b6101076105b0565b61016161022136600461096c565b6001600160a01b039182165f90815260016020908152604080832093909416825291909152205490565b60606003805461025a9061099d565b80601f01602080910402602001604051908101604052809291908181526020018280546102869061099d565b80156102d15780601f106102a8576101008083540402835291602001916102d1565b820191905f5260205f20905b8154815290600101906020018083116102b457829003601f168201915b5050505050905090565b5f336102e88185856105bd565b60019150505b92915050565b6001600160a01b03831661031e578060025f82825461031391906109e9565b909155506103939050565b6001600160a01b0383165f90815260208190526040902054818110156103755760405163391434e360e21b81526001600160a01b038516600482015260248101829052604481018390526064015b60405180910390fd5b6001600160a01b0384165f9081526020819052604090209082900390555b6001600160a01b0382166103af576002805482900390556103cd565b6001600160a01b0382165f9081526020819052604090208054820190555b816001600160a01b0316836001600160a01b03167fddf252ad1be2c89b69c2b068fc378daa952ba7f163c4a11628f55a4df523b3ef8360405161041291815260200190565b60405180910390a3505050565b5f6006541161042c575f80fd5b610438336005546104a9565b60068054905f610447836109fc565b909155505060055460405190815233907f0f6798a560793a54c3bcfe86a93cde1e73087d944c0ea20544137d41213968859060200160405180910390a2565b5f336104938582856105cf565b61049e85858561064a565b506001949350505050565b6001600160a01b0382166104d25760405163ec442f0560e01b81525f600482015260240161036c565b6104dd5f83836102f4565b5050565b60036104ed8582610a5e565b5060046104fa8482610a5e565b506006919091556005555050565b60606004805461025a9061099d565b5f336102e881858561064a565b600480546105319061099d565b80601f016020809104026020016040519081016040528092919081815260200182805461055d9061099d565b80156105a85780601f1061057f576101008083540402835291602001916105a8565b820191905f5260205f20905b81548152906001019060200180831161058b57829003601f168201915b505050505081565b600380546105319061099d565b6105ca83838360016106a7565b505050565b6001600160a01b038381165f908152600160209081526040808320938616835292905220545f198114610644578181101561063657604051637dc7a0d960e11b81526001600160a01b0384166004820152602481018290526044810183905260640161036c565b61064484848484035f6106a7565b50505050565b6001600160a01b03831661067357604051634b637e8f60e11b81525f600482015260240161036c565b6001600160a01b03821661069c5760405163ec442f0560e01b81525f600482015260240161036c565b6105ca8383836102f4565b6001600160a01b0384166106d05760405163e602df0560e01b81525f600482015260240161036c565b6001600160a01b0383166106f957604051634a1406b160e11b81525f600482015260240161036c565b6001600160a01b038085165f908152600160209081526040808320938716835292905220829055801561064457826001600160a01b0316846001600160a01b03167f8c5be1e5ebec7d5bd14f71427d1e84f3dd0314c0f7b2291e5b200ac8c7c3b9258460405161076b91815260200190565b60405180910390a350505050565b5f6020808352835180828501525f5b818110156107a457858101830151858201604001528201610788565b505f604082860101526040601f19601f8301168501019250505092915050565b80356001600160a01b03811681146107da575f80fd5b919050565b5f80604083850312156107f0575f80fd5b6107f9836107c4565b946020939093013593505050565b5f805f60608486031215610819575f80fd5b610822846107c4565b9250610830602085016107c4565b9150604084013590509250925092565b5f60208284031215610850575f80fd5b610859826107c4565b9392505050565b634e487b7160e01b5f52604160045260245ffd5b5f82601f830112610883575f80fd5b813567ffffffffffffffff8082111561089e5761089e610860565b604051601f8301601f19908116603f011681019082821181831017156108c6576108c6610860565b816040528381528660208588010111156108de575f80fd5b836020870160208301375f602085830101528094505050505092915050565b5f805f8060808587031215610910575f80fd5b843567ffffffffffffffff80821115610927575f80fd5b61093388838901610874565b95506020870135915080821115610948575f80fd5b5061095587828801610874565b949794965050505060408301359260600135919050565b5f806040838503121561097d575f80fd5b610986836107c4565b9150610994602084016107c4565b90509250929050565b600181811c908216806109b157607f821691505b6020821081036109cf57634e487b7160e01b5f52602260045260245ffd5b50919050565b634e487b7160e01b5f52601160045260245ffd5b808201808211156102ee576102ee6109d5565b5f81610a0a57610a0a6109d5565b505f190190565b601f8211156105ca575f81815260208120601f850160051c81016020861015610a375750805b601f850160051c820191505b81811015610a5657828155600101610a43565b505050505050565b815167ffffffffffffffff811115610a7857610a78610860565b610a8c81610a86845461099d565b84610a11565b602080601f831160018114610abf575f8415610aa85750858301515b5f19600386901b1c1916600185901b178555610a56565b5f85815260208120601f198616915b82811015610aed57888601518255948401946001909101908401610ace565b5085821015610b0a57878501515f19600388901b60f8161c191681555b5050505050600190811b0190555056fea2646970667358221220b90f50dcca44a6e27d286e1c537ee9c79c6e9295027a09b9c27d5bc9b0e2726064736f6c63430008140033",
					"opcodes": "PUSH1 0x80 PUSH1 0x40 MSTORE CALLVALUE DUP1 ISZERO PUSH3 0x10 JUMPI PUSH0 DUP1 REVERT JUMPDEST POP PUSH1 0x40 MLOAD DUP1 PUSH1 0x40 ADD PUSH1 0x40 MSTORE DUP1 PUSH1 0x7 DUP2 MSTORE PUSH1 0x20 ADD PUSH7 0x26BCAA37B5B2B7 PUSH1 0xC9 SHL DUP2 MSTORE POP PUSH1 0x40 MLOAD DUP1 PUSH1 0x40 ADD PUSH1 0x40 MSTORE DUP1 PUSH1 0x3 DUP2 MSTORE PUSH1 0x20 ADD PUSH3 0x4D544B PUSH1 0xE8 SHL DUP2 MSTORE POP DUP2 PUSH1 0x3 SWAP1 DUP2 PUSH3 0x5E SWAP2 SWAP1 PUSH3 0x2C2 JUMP JUMPDEST POP PUSH1 0x4 PUSH3 0x6D DUP3 DUP3 PUSH3 0x2C2 JUMP JUMPDEST POP POP POP PUSH3 0xA8 CALLER PUSH3 0x85 PUSH3 0xAE PUSH1 0x20 SHL PUSH1 0x20 SHR JUMP JUMPDEST PUSH3 0x92 SWAP1 PUSH1 0xA PUSH3 0x499 JUMP JUMPDEST PUSH3 0xA2 SWAP1 PUSH4 0x5F5E100 PUSH3 0x4B0 JUMP JUMPDEST PUSH3 0xB3 JUMP JUMPDEST PUSH3 0x4E0 JUMP JUMPDEST PUSH1 0x12 SWAP1 JUMP JUMPDEST PUSH1 0x1 PUSH1 0x1 PUSH1 0xA0 SHL SUB DUP3 AND PUSH3 0xE2 JUMPI PUSH1 0x40 MLOAD PUSH4 0xEC442F05 PUSH1 0xE0 SHL DUP2 MSTORE PUSH0 PUSH1 0x4 DUP3 ADD MSTORE PUSH1 0x24 ADD JUMPDEST PUSH1 0x40 MLOAD DUP1 SWAP2 SUB SWAP1 REVERT JUMPDEST PUSH3 0xEF PUSH0 DUP4 DUP4 PUSH3 0xF3 JUMP JUMPDEST POP POP JUMP JUMPDEST PUSH1 0x1 PUSH1 0x1 PUSH1 0xA0 SHL SUB DUP4 AND PUSH3 0x121 JUMPI DUP1 PUSH1 0x2 PUSH0 DUP3 DUP3 SLOAD PUSH3 0x115 SWAP2 SWAP1 PUSH3 0x4CA JUMP JUMPDEST SWAP1 SWAP2 SSTORE POP PUSH3 0x193 SWAP1 POP JUMP JUMPDEST PUSH1 0x1 PUSH1 0x1 PUSH1 0xA0 SHL SUB DUP4 AND PUSH0 SWAP1 DUP2 MSTORE PUSH1 0x20 DUP2 SWAP1 MSTORE PUSH1 0x40 SWAP1 KECCAK256 SLOAD DUP2 DUP2 LT ISZERO PUSH3 0x175 JUMPI PUSH1 0x40 MLOAD PUSH4 0x391434E3 PUSH1 0xE2 SHL DUP2 MSTORE PUSH1 0x1 PUSH1 0x1 PUSH1 0xA0 SHL SUB DUP6 AND PUSH1 0x4 DUP3 ADD MSTORE PUSH1 0x24 DUP2 ADD DUP3 SWAP1 MSTORE PUSH1 0x44 DUP2 ADD DUP4 SWAP1 MSTORE PUSH1 0x64 ADD PUSH3 0xD9 JUMP JUMPDEST PUSH1 0x1 PUSH1 0x1 PUSH1 0xA0 SHL SUB DUP5 AND PUSH0 SWAP1 DUP2 MSTORE PUSH1 0x20 DUP2 SWAP1 MSTORE PUSH1 0x40 SWAP1 KECCAK256 SWAP1 DUP3 SWAP1 SUB SWAP1 SSTORE JUMPDEST PUSH1 0x1 PUSH1 0x1 PUSH1 0xA0 SHL SUB DUP3 AND PUSH3 0x1B1 JUMPI PUSH1 0x2 DUP1 SLOAD DUP3 SWAP1 SUB SWAP1 SSTORE PUSH3 0x1CF JUMP JUMPDEST PUSH1 0x1 PUSH1 0x1 PUSH1 0xA0 SHL SUB DUP3 AND PUSH0 SWAP1 DUP2 MSTORE PUSH1 0x20 DUP2 SWAP1 MSTORE PUSH1 0x40 SWAP1 KECCAK256 DUP1 SLOAD DUP3 ADD SWAP1 SSTORE JUMPDEST DUP2 PUSH1 0x1 PUSH1 0x1 PUSH1 0xA0 SHL SUB AND DUP4 PUSH1 0x1 PUSH1 0x1 PUSH1 0xA0 SHL SUB AND PUSH32 0xDDF252AD1BE2C89B69C2B068FC378DAA952BA7F163C4A11628F55A4DF523B3EF DUP4 PUSH1 0x40 MLOAD PUSH3 0x215 SWAP2 DUP2 MSTORE PUSH1 0x20 ADD SWAP1 JUMP JUMPDEST PUSH1 0x40 MLOAD DUP1 SWAP2 SUB SWAP1 LOG3 POP POP POP JUMP JUMPDEST PUSH4 0x4E487B71 PUSH1 0xE0 SHL PUSH0 MSTORE PUSH1 0x41 PUSH1 0x4 MSTORE PUSH1 0x24 PUSH0 REVERT JUMPDEST PUSH1 0x1 DUP2 DUP2 SHR SWAP1 DUP3 AND DUP1 PUSH3 0x24B JUMPI PUSH1 0x7F DUP3 AND SWAP2 POP JUMPDEST PUSH1 0x20 DUP3 LT DUP2 SUB PUSH3 0x26A JUMPI PUSH4 0x4E487B71 PUSH1 0xE0 SHL PUSH0 MSTORE PUSH1 0x22 PUSH1 0x4 MSTORE PUSH1 0x24 PUSH0 REVERT JUMPDEST POP SWAP2 SWAP1 POP JUMP JUMPDEST PUSH1 0x1F DUP3 GT ISZERO PUSH3 0x2BD JUMPI PUSH0 DUP2 DUP2 MSTORE PUSH1 0x20 DUP2 KECCAK256 PUSH1 0x1F DUP6 ADD PUSH1 0x5 SHR DUP2 ADD PUSH1 0x20 DUP7 LT ISZERO PUSH3 0x298 JUMPI POP DUP1 JUMPDEST PUSH1 0x1F DUP6 ADD PUSH1 0x5 SHR DUP3 ADD SWAP2 POP JUMPDEST DUP2 DUP2 LT ISZERO PUSH3 0x2B9 JUMPI DUP3 DUP2 SSTORE PUSH1 0x1 ADD PUSH3 0x2A4 JUMP JUMPDEST POP POP POP JUMPDEST POP POP POP JUMP JUMPDEST DUP2 MLOAD PUSH1 0x1 PUSH1 0x1 PUSH1 0x40 SHL SUB DUP2 GT ISZERO PUSH3 0x2DE JUMPI PUSH3 0x2DE PUSH3 0x222 JUMP JUMPDEST PUSH3 0x2F6 DUP2 PUSH3 0x2EF DUP5 SLOAD PUSH3 0x236 JUMP JUMPDEST DUP5 PUSH3 0x270 JUMP JUMPDEST PUSH1 0x20 DUP1 PUSH1 0x1F DUP4 GT PUSH1 0x1 DUP2 EQ PUSH3 0x32C JUMPI PUSH0 DUP5 ISZERO PUSH3 0x314 JUMPI POP DUP6 DUP4 ADD MLOAD JUMPDEST PUSH0 NOT PUSH1 0x3 DUP7 SWAP1 SHL SHR NOT AND PUSH1 0x1 DUP6 SWAP1 SHL OR DUP6 SSTORE PUSH3 0x2B9 JUMP JUMPDEST PUSH0 DUP6 DUP2 MSTORE PUSH1 0x20 DUP2 KECCAK256 PUSH1 0x1F NOT DUP7 AND SWAP2 JUMPDEST DUP3 DUP2 LT ISZERO PUSH3 0x35C JUMPI DUP9 DUP7 ADD MLOAD DUP3 SSTORE SWAP5 DUP5 ADD SWAP5 PUSH1 0x1 SWAP1 SWAP2 ADD SWAP1 DUP5 ADD PUSH3 0x33B JUMP JUMPDEST POP DUP6 DUP3 LT ISZERO PUSH3 0x37A JUMPI DUP8 DUP6 ADD MLOAD PUSH0 NOT PUSH1 0x3 DUP9 SWAP1 SHL PUSH1 0xF8 AND SHR NOT AND DUP2 SSTORE JUMPDEST POP POP POP POP POP PUSH1 0x1 SWAP1 DUP2 SHL ADD SWAP1 SSTORE POP JUMP JUMPDEST PUSH4 0x4E487B71 PUSH1 0xE0 SHL PUSH0 MSTORE PUSH1 0x11 PUSH1 0x4 MSTORE PUSH1 0x24 PUSH0 REVERT JUMPDEST PUSH1 0x1 DUP2 DUP2 JUMPDEST DUP1 DUP6 GT ISZERO PUSH3 0x3DE JUMPI DUP2 PUSH0 NOT DIV DUP3 GT ISZERO PUSH3 0x3C2 JUMPI PUSH3 0x3C2 PUSH3 0x38A JUMP JUMPDEST DUP1 DUP6 AND ISZERO PUSH3 0x3D0 JUMPI SWAP2 DUP2 MUL SWAP2 JUMPDEST SWAP4 DUP5 SHR SWAP4 SWAP1 DUP1 MUL SWAP1 PUSH3 0x3A3 JUMP JUMPDEST POP SWAP3 POP SWAP3 SWAP1 POP JUMP JUMPDEST PUSH0 DUP3 PUSH3 0x3F6 JUMPI POP PUSH1 0x1 PUSH3 0x493 JUMP JUMPDEST DUP2 PUSH3 0x404 JUMPI POP PUSH0 PUSH3 0x493 JUMP JUMPDEST DUP2 PUSH1 0x1 DUP2 EQ PUSH3 0x41D JUMPI PUSH1 0x2 DUP2 EQ PUSH3 0x428 JUMPI PUSH3 0x448 JUMP JUMPDEST PUSH1 0x1 SWAP2 POP POP PUSH3 0x493 JUMP JUMPDEST PUSH1 0xFF DUP5 GT ISZERO PUSH3 0x43C JUMPI PUSH3 0x43C PUSH3 0x38A JUMP JUMPDEST POP POP PUSH1 0x1 DUP3 SHL PUSH3 0x493 JUMP JUMPDEST POP PUSH1 0x20 DUP4 LT PUSH2 0x133 DUP4 LT AND PUSH1 0x4E DUP5 LT PUSH1 0xB DUP5 LT AND OR ISZERO PUSH3 0x46D JUMPI POP DUP2 DUP2 EXP PUSH3 0x493 JUMP JUMPDEST PUSH3 0x479 DUP4 DUP4 PUSH3 0x39E JUMP JUMPDEST DUP1 PUSH0 NOT DIV DUP3 GT ISZERO PUSH3 0x48F JUMPI PUSH3 0x48F PUSH3 0x38A JUMP JUMPDEST MUL SWAP1 POP JUMPDEST SWAP3 SWAP2 POP POP JUMP JUMPDEST PUSH0 PUSH3 0x4A9 PUSH1 0xFF DUP5 AND DUP4 PUSH3 0x3E6 JUMP JUMPDEST SWAP4 SWAP3 POP POP POP JUMP JUMPDEST DUP1 DUP3 MUL DUP2 ISZERO DUP3 DUP3 DIV DUP5 EQ OR PUSH3 0x493 JUMPI PUSH3 0x493 PUSH3 0x38A JUMP JUMPDEST DUP1 DUP3 ADD DUP1 DUP3 GT ISZERO PUSH3 0x493 JUMPI PUSH3 0x493 PUSH3 0x38A JUMP JUMPDEST PUSH2 0xB50 DUP1 PUSH3 0x4EE PUSH0 CODECOPY PUSH0 RETURN INVALID PUSH1 0x80 PUSH1 0x40 MSTORE CALLVALUE DUP1 ISZERO PUSH2 0xF JUMPI PUSH0 DUP1 REVERT JUMPDEST POP PUSH1 0x4 CALLDATASIZE LT PUSH2 0xFB JUMPI PUSH0 CALLDATALOAD PUSH1 0xE0 SHR DUP1 PUSH4 0x4E6EC247 GT PUSH2 0x93 JUMPI DUP1 PUSH4 0xA9059CBB GT PUSH2 0x63 JUMPI DUP1 PUSH4 0xA9059CBB EQ PUSH2 0x1F0 JUMPI DUP1 PUSH4 0xB09F1266 EQ PUSH2 0x203 JUMPI DUP1 PUSH4 0xD28D8852 EQ PUSH2 0x20B JUMPI DUP1 PUSH4 0xDD62ED3E EQ PUSH2 0x213 JUMPI PUSH0 DUP1 REVERT JUMPDEST DUP1 PUSH4 0x4E6EC247 EQ PUSH2 0x19A JUMPI DUP1 PUSH4 0x70A08231 EQ PUSH2 0x1AD JUMPI DUP1 PUSH4 0x87C80464 EQ PUSH2 0x1D5 JUMPI DUP1 PUSH4 0x95D89B41 EQ PUSH2 0x1E8 JUMPI PUSH0 DUP1 REVERT JUMPDEST DUP1 PUSH4 0x18160DDD GT PUSH2 0xCE JUMPI DUP1 PUSH4 0x18160DDD EQ PUSH2 0x15D JUMPI DUP1 PUSH4 0x23B872DD EQ PUSH2 0x16F JUMPI DUP1 PUSH4 0x313CE567 EQ PUSH2 0x182 JUMPI DUP1 PUSH4 0x3EAAF86B EQ PUSH2 0x191 JUMPI PUSH0 DUP1 REVERT JUMPDEST DUP1 PUSH4 0x6FDDE03 EQ PUSH2 0xFF JUMPI DUP1 PUSH4 0x95EA7B3 EQ PUSH2 0x11D JUMPI DUP1 PUSH4 0xBB3BFA8 EQ PUSH2 0x140 JUMPI DUP1 PUSH4 0x1249C58B EQ PUSH2 0x155 JUMPI JUMPDEST PUSH0 DUP1 REVERT JUMPDEST PUSH2 0x107 PUSH2 0x24B JUMP JUMPDEST PUSH1 0x40 MLOAD PUSH2 0x114 SWAP2 SWAP1 PUSH2 0x779 JUMP JUMPDEST PUSH1 0x40 MLOAD DUP1 SWAP2 SUB SWAP1 RETURN JUMPDEST PUSH2 0x130 PUSH2 0x12B CALLDATASIZE PUSH1 0x4 PUSH2 0x7DF JUMP JUMPDEST PUSH2 0x2DB JUMP JUMPDEST PUSH1 0x40 MLOAD SWAP1 ISZERO ISZERO DUP2 MSTORE PUSH1 0x20 ADD PUSH2 0x114 JUMP JUMPDEST PUSH2 0x153 PUSH2 0x14E CALLDATASIZE PUSH1 0x4 PUSH2 0x807 JUMP JUMPDEST PUSH2 0x2F4 JUMP JUMPDEST STOP JUMPDEST PUSH2 0x153 PUSH2 0x41F JUMP JUMPDEST PUSH1 0x2 SLOAD JUMPDEST PUSH1 0x40 MLOAD SWAP1 DUP2 MSTORE PUSH1 0x20 ADD PUSH2 0x114 JUMP JUMPDEST PUSH2 0x130 PUSH2 0x17D CALLDATASIZE PUSH1 0x4 PUSH2 0x807 JUMP JUMPDEST PUSH2 0x486 JUMP JUMPDEST PUSH1 0x40 MLOAD PUSH1 0x12 DUP2 MSTORE PUSH1 0x20 ADD PUSH2 0x114 JUMP JUMPDEST PUSH2 0x161 PUSH1 0x2 SLOAD DUP2 JUMP JUMPDEST PUSH2 0x153 PUSH2 0x1A8 CALLDATASIZE PUSH1 0x4 PUSH2 0x7DF JUMP JUMPDEST PUSH2 0x4A9 JUMP JUMPDEST PUSH2 0x161 PUSH2 0x1BB CALLDATASIZE PUSH1 0x4 PUSH2 0x840 JUMP JUMPDEST PUSH1 0x1 PUSH1 0x1 PUSH1 0xA0 SHL SUB AND PUSH0 SWAP1 DUP2 MSTORE PUSH1 0x20 DUP2 SWAP1 MSTORE PUSH1 0x40 SWAP1 KECCAK256 SLOAD SWAP1 JUMP JUMPDEST PUSH2 0x153 PUSH2 0x1E3 CALLDATASIZE PUSH1 0x4 PUSH2 0x8FD JUMP JUMPDEST PUSH2 0x4E1 JUMP JUMPDEST PUSH2 0x107 PUSH2 0x508 JUMP JUMPDEST PUSH2 0x130 PUSH2 0x1FE CALLDATASIZE PUSH1 0x4 PUSH2 0x7DF JUMP JUMPDEST PUSH2 0x517 JUMP JUMPDEST PUSH2 0x107 PUSH2 0x524 JUMP JUMPDEST PUSH2 0x107 PUSH2 0x5B0 JUMP JUMPDEST PUSH2 0x161 PUSH2 0x221 CALLDATASIZE PUSH1 0x4 PUSH2 0x96C JUMP JUMPDEST PUSH1 0x1 PUSH1 0x1 PUSH1 0xA0 SHL SUB SWAP2 DUP3 AND PUSH0 SWAP1 DUP2 MSTORE PUSH1 0x1 PUSH1 0x20 SWAP1 DUP2 MSTORE PUSH1 0x40 DUP1 DUP4 KECCAK256 SWAP4 SWAP1 SWAP5 AND DUP3 MSTORE SWAP2 SWAP1 SWAP2 MSTORE KECCAK256 SLOAD SWAP1 JUMP JUMPDEST PUSH1 0x60 PUSH1 0x3 DUP1 SLOAD PUSH2 0x25A SWAP1 PUSH2 0x99D JUMP JUMPDEST DUP1 PUSH1 0x1F ADD PUSH1 0x20 DUP1 SWAP2 DIV MUL PUSH1 0x20 ADD PUSH1 0x40 MLOAD SWAP1 DUP2 ADD PUSH1 0x40 MSTORE DUP1 SWAP3 SWAP2 SWAP1 DUP2 DUP2 MSTORE PUSH1 0x20 ADD DUP3 DUP1 SLOAD PUSH2 0x286 SWAP1 PUSH2 0x99D JUMP JUMPDEST DUP1 ISZERO PUSH2 0x2D1 JUMPI DUP1 PUSH1 0x1F LT PUSH2 0x2A8 JUMPI PUSH2 0x100 DUP1 DUP4 SLOAD DIV MUL DUP4 MSTORE SWAP2 PUSH1 0x20 ADD SWAP2 PUSH2 0x2D1 JUMP JUMPDEST DUP3 ADD SWAP2 SWAP1 PUSH0 MSTORE PUSH1 0x20 PUSH0 KECCAK256 SWAP1 JUMPDEST DUP2 SLOAD DUP2 MSTORE SWAP1 PUSH1 0x1 ADD SWAP1 PUSH1 0x20 ADD DUP1 DUP4 GT PUSH2 0x2B4 JUMPI DUP3 SWAP1 SUB PUSH1 0x1F AND DUP3 ADD SWAP2 JUMPDEST POP POP POP POP POP SWAP1 POP SWAP1 JUMP JUMPDEST PUSH0 CALLER PUSH2 0x2E8 DUP2 DUP6 DUP6 PUSH2 0x5BD JUMP JUMPDEST PUSH1 0x1 SWAP2 POP POP JUMPDEST SWAP3 SWAP2 POP POP JUMP JUMPDEST PUSH1 0x1 PUSH1 0x1 PUSH1 0xA0 SHL SUB DUP4 AND PUSH2 0x31E JUMPI DUP1 PUSH1 0x2 PUSH0 DUP3 DUP3 SLOAD PUSH2 0x313 SWAP2 SWAP1 PUSH2 0x9E9 JUMP JUMPDEST SWAP1 SWAP2 SSTORE POP PUSH2 0x393 SWAP1 POP JUMP JUMPDEST PUSH1 0x1 PUSH1 0x1 PUSH1 0xA0 SHL SUB DUP4 AND PUSH0 SWAP1 DUP2 MSTORE PUSH1 0x20 DUP2 SWAP1 MSTORE PUSH1 0x40 SWAP1 KECCAK256 SLOAD DUP2 DUP2 LT ISZERO PUSH2 0x375 JUMPI PUSH1 0x40 MLOAD PUSH4 0x391434E3 PUSH1 0xE2 SHL DUP2 MSTORE PUSH1 0x1 PUSH1 0x1 PUSH1 0xA0 SHL SUB DUP6 AND PUSH1 0x4 DUP3 ADD MSTORE PUSH1 0x24 DUP2 ADD DUP3 SWAP1 MSTORE PUSH1 0x44 DUP2 ADD DUP4 SWAP1 MSTORE PUSH1 0x64 ADD JUMPDEST PUSH1 0x40 MLOAD DUP1 SWAP2 SUB SWAP1 REVERT JUMPDEST PUSH1 0x1 PUSH1 0x1 PUSH1 0xA0 SHL SUB DUP5 AND PUSH0 SWAP1 DUP2 MSTORE PUSH1 0x20 DUP2 SWAP1 MSTORE PUSH1 0x40 SWAP1 KECCAK256 SWAP1 DUP3 SWAP1 SUB SWAP1 SSTORE JUMPDEST PUSH1 0x1 PUSH1 0x1 PUSH1 0xA0 SHL SUB DUP3 AND PUSH2 0x3AF JUMPI PUSH1 0x2 DUP1 SLOAD DUP3 SWAP1 SUB SWAP1 SSTORE PUSH2 0x3CD JUMP JUMPDEST PUSH1 0x1 PUSH1 0x1 PUSH1 0xA0 SHL SUB DUP3 AND PUSH0 SWAP1 DUP2 MSTORE PUSH1 0x20 DUP2 SWAP1 MSTORE PUSH1 0x40 SWAP1 KECCAK256 DUP1 SLOAD DUP3 ADD SWAP1 SSTORE JUMPDEST DUP2 PUSH1 0x1 PUSH1 0x1 PUSH1 0xA0 SHL SUB AND DUP4 PUSH1 0x1 PUSH1 0x1 PUSH1 0xA0 SHL SUB AND PUSH32 0xDDF252AD1BE2C89B69C2B068FC378DAA952BA7F163C4A11628F55A4DF523B3EF DUP4 PUSH1 0x40 MLOAD PUSH2 0x412 SWAP2 DUP2 MSTORE PUSH1 0x20 ADD SWAP1 JUMP JUMPDEST PUSH1 0x40 MLOAD DUP1 SWAP2 SUB SWAP1 LOG3 POP POP POP JUMP JUMPDEST PUSH0 PUSH1 0x6 SLOAD GT PUSH2 0x42C JUMPI PUSH0 DUP1 REVERT JUMPDEST PUSH2 0x438 CALLER PUSH1 0x5 SLOAD PUSH2 0x4A9 JUMP JUMPDEST PUSH1 0x6 DUP1 SLOAD SWAP1 PUSH0 PUSH2 0x447 DUP4 PUSH2 0x9FC JUMP JUMPDEST SWAP1 SWAP2 SSTORE POP POP PUSH1 0x5 SLOAD PUSH1 0x40 MLOAD SWAP1 DUP2 MSTORE CALLER SWAP1 PUSH32 0xF6798A560793A54C3BCFE86A93CDE1E73087D944C0EA20544137D4121396885 SWAP1 PUSH1 0x20 ADD PUSH1 0x40 MLOAD DUP1 SWAP2 SUB SWAP1 LOG2 JUMP JUMPDEST PUSH0 CALLER PUSH2 0x493 DUP6 DUP3 DUP6 PUSH2 0x5CF JUMP JUMPDEST PUSH2 0x49E DUP6 DUP6 DUP6 PUSH2 0x64A JUMP JUMPDEST POP PUSH1 0x1 SWAP5 SWAP4 POP POP POP POP JUMP JUMPDEST PUSH1 0x1 PUSH1 0x1 PUSH1 0xA0 SHL SUB DUP3 AND PUSH2 0x4D2 JUMPI PUSH1 0x40 MLOAD PUSH4 0xEC442F05 PUSH1 0xE0 SHL DUP2 MSTORE PUSH0 PUSH1 0x4 DUP3 ADD MSTORE PUSH1 0x24 ADD PUSH2 0x36C JUMP JUMPDEST PUSH2 0x4DD PUSH0 DUP4 DUP4 PUSH2 0x2F4 JUMP JUMPDEST POP POP JUMP JUMPDEST PUSH1 0x3 PUSH2 0x4ED DUP6 DUP3 PUSH2 0xA5E JUMP JUMPDEST POP PUSH1 0x4 PUSH2 0x4FA DUP5 DUP3 PUSH2 0xA5E JUMP JUMPDEST POP PUSH1 0x6 SWAP2 SWAP1 SWAP2 SSTORE PUSH1 0x5 SSTORE POP POP JUMP JUMPDEST PUSH1 0x60 PUSH1 0x4 DUP1 SLOAD PUSH2 0x25A SWAP1 PUSH2 0x99D JUMP JUMPDEST PUSH0 CALLER PUSH2 0x2E8 DUP2 DUP6 DUP6 PUSH2 0x64A JUMP JUMPDEST PUSH1 0x4 DUP1 SLOAD PUSH2 0x531 SWAP1 PUSH2 0x99D JUMP JUMPDEST DUP1 PUSH1 0x1F ADD PUSH1 0x20 DUP1 SWAP2 DIV MUL PUSH1 0x20 ADD PUSH1 0x40 MLOAD SWAP1 DUP2 ADD PUSH1 0x40 MSTORE DUP1 SWAP3 SWAP2 SWAP1 DUP2 DUP2 MSTORE PUSH1 0x20 ADD DUP3 DUP1 SLOAD PUSH2 0x55D SWAP1 PUSH2 0x99D JUMP JUMPDEST DUP1 ISZERO PUSH2 0x5A8 JUMPI DUP1 PUSH1 0x1F LT PUSH2 0x57F JUMPI PUSH2 0x100 DUP1 DUP4 SLOAD DIV MUL DUP4 MSTORE SWAP2 PUSH1 0x20 ADD SWAP2 PUSH2 0x5A8 JUMP JUMPDEST DUP3 ADD SWAP2 SWAP1 PUSH0 MSTORE PUSH1 0x20 PUSH0 KECCAK256 SWAP1 JUMPDEST DUP2 SLOAD DUP2 MSTORE SWAP1 PUSH1 0x1 ADD SWAP1 PUSH1 0x20 ADD DUP1 DUP4 GT PUSH2 0x58B JUMPI DUP3 SWAP1 SUB PUSH1 0x1F AND DUP3 ADD SWAP2 JUMPDEST POP POP POP POP POP DUP2 JUMP JUMPDEST PUSH1 0x3 DUP1 SLOAD PUSH2 0x531 SWAP1 PUSH2 0x99D JUMP JUMPDEST PUSH2 0x5CA DUP4 DUP4 DUP4 PUSH1 0x1 PUSH2 0x6A7 JUMP JUMPDEST POP POP POP JUMP JUMPDEST PUSH1 0x1 PUSH1 0x1 PUSH1 0xA0 SHL SUB DUP4 DUP2 AND PUSH0 SWAP1 DUP2 MSTORE PUSH1 0x1 PUSH1 0x20 SWAP1 DUP2 MSTORE PUSH1 0x40 DUP1 DUP4 KECCAK256 SWAP4 DUP7 AND DUP4 MSTORE SWAP3 SWAP1 MSTORE KECCAK256 SLOAD PUSH0 NOT DUP2 EQ PUSH2 0x644 JUMPI DUP2 DUP2 LT ISZERO PUSH2 0x636 JUMPI PUSH1 0x40 MLOAD PUSH4 0x7DC7A0D9 PUSH1 0xE1 SHL DUP2 MSTORE PUSH1 0x1 PUSH1 0x1 PUSH1 0xA0 SHL SUB DUP5 AND PUSH1 0x4 DUP3 ADD MSTORE PUSH1 0x24 DUP2 ADD DUP3 SWAP1 MSTORE PUSH1 0x44 DUP2 ADD DUP4 SWAP1 MSTORE PUSH1 0x64 ADD PUSH2 0x36C JUMP JUMPDEST PUSH2 0x644 DUP5 DUP5 DUP5 DUP5 SUB PUSH0 PUSH2 0x6A7 JUMP JUMPDEST POP POP POP POP JUMP JUMPDEST PUSH1 0x1 PUSH1 0x1 PUSH1 0xA0 SHL SUB DUP4 AND PUSH2 0x673 JUMPI PUSH1 0x40 MLOAD PUSH4 0x4B637E8F PUSH1 0xE1 SHL DUP2 MSTORE PUSH0 PUSH1 0x4 DUP3 ADD MSTORE PUSH1 0x24 ADD PUSH2 0x36C JUMP JUMPDEST PUSH1 0x1 PUSH1 0x1 PUSH1 0xA0 SHL SUB DUP3 AND PUSH2 0x69C JUMPI PUSH1 0x40 MLOAD PUSH4 0xEC442F05 PUSH1 0xE0 SHL DUP2 MSTORE PUSH0 PUSH1 0x4 DUP3 ADD MSTORE PUSH1 0x24 ADD PUSH2 0x36C JUMP JUMPDEST PUSH2 0x5CA DUP4 DUP4 DUP4 PUSH2 0x2F4 JUMP JUMPDEST PUSH1 0x1 PUSH1 0x1 PUSH1 0xA0 SHL SUB DUP5 AND PUSH2 0x6D0 JUMPI PUSH1 0x40 MLOAD PUSH4 0xE602DF05 PUSH1 0xE0 SHL DUP2 MSTORE PUSH0 PUSH1 0x4 DUP3 ADD MSTORE PUSH1 0x24 ADD PUSH2 0x36C JUMP JUMPDEST PUSH1 0x1 PUSH1 0x1 PUSH1 0xA0 SHL SUB DUP4 AND PUSH2 0x6F9 JUMPI PUSH1 0x40 MLOAD PUSH4 0x4A1406B1 PUSH1 0xE1 SHL DUP2 MSTORE PUSH0 PUSH1 0x4 DUP3 ADD MSTORE PUSH1 0x24 ADD PUSH2 0x36C JUMP JUMPDEST PUSH1 0x1 PUSH1 0x1 PUSH1 0xA0 SHL SUB DUP1 DUP6 AND PUSH0 SWAP1 DUP2 MSTORE PUSH1 0x1 PUSH1 0x20 SWAP1 DUP2 MSTORE PUSH1 0x40 DUP1 DUP4 KECCAK256 SWAP4 DUP8 AND DUP4 MSTORE SWAP3 SWAP1 MSTORE KECCAK256 DUP3 SWAP1 SSTORE DUP1 ISZERO PUSH2 0x644 JUMPI DUP3 PUSH1 0x1 PUSH1 0x1 PUSH1 0xA0 SHL SUB AND DUP5 PUSH1 0x1 PUSH1 0x1 PUSH1 0xA0 SHL SUB AND PUSH32 0x8C5BE1E5EBEC7D5BD14F71427D1E84F3DD0314C0F7B2291E5B200AC8C7C3B925 DUP5 PUSH1 0x40 MLOAD PUSH2 0x76B SWAP2 DUP2 MSTORE PUSH1 0x20 ADD SWAP1 JUMP JUMPDEST PUSH1 0x40 MLOAD DUP1 SWAP2 SUB SWAP1 LOG3 POP POP POP POP JUMP JUMPDEST PUSH0 PUSH1 0x20 DUP1 DUP4 MSTORE DUP4 MLOAD DUP1 DUP3 DUP6 ADD MSTORE PUSH0 JUMPDEST DUP2 DUP2 LT ISZERO PUSH2 0x7A4 JUMPI DUP6 DUP2 ADD DUP4 ADD MLOAD DUP6 DUP3 ADD PUSH1 0x40 ADD MSTORE DUP3 ADD PUSH2 0x788 JUMP JUMPDEST POP PUSH0 PUSH1 0x40 DUP3 DUP7 ADD ADD MSTORE PUSH1 0x40 PUSH1 0x1F NOT PUSH1 0x1F DUP4 ADD AND DUP6 ADD ADD SWAP3 POP POP POP SWAP3 SWAP2 POP POP JUMP JUMPDEST DUP1 CALLDATALOAD PUSH1 0x1 PUSH1 0x1 PUSH1 0xA0 SHL SUB DUP2 AND DUP2 EQ PUSH2 0x7DA JUMPI PUSH0 DUP1 REVERT JUMPDEST SWAP2 SWAP1 POP JUMP JUMPDEST PUSH0 DUP1 PUSH1 0x40 DUP4 DUP6 SUB SLT ISZERO PUSH2 0x7F0 JUMPI PUSH0 DUP1 REVERT JUMPDEST PUSH2 0x7F9 DUP4 PUSH2 0x7C4 JUMP JUMPDEST SWAP5 PUSH1 0x20 SWAP4 SWAP1 SWAP4 ADD CALLDATALOAD SWAP4 POP POP POP JUMP JUMPDEST PUSH0 DUP1 PUSH0 PUSH1 0x60 DUP5 DUP7 SUB SLT ISZERO PUSH2 0x819 JUMPI PUSH0 DUP1 REVERT JUMPDEST PUSH2 0x822 DUP5 PUSH2 0x7C4 JUMP JUMPDEST SWAP3 POP PUSH2 0x830 PUSH1 0x20 DUP6 ADD PUSH2 0x7C4 JUMP JUMPDEST SWAP2 POP PUSH1 0x40 DUP5 ADD CALLDATALOAD SWAP1 POP SWAP3 POP SWAP3 POP SWAP3 JUMP JUMPDEST PUSH0 PUSH1 0x20 DUP3 DUP5 SUB SLT ISZERO PUSH2 0x850 JUMPI PUSH0 DUP1 REVERT JUMPDEST PUSH2 0x859 DUP3 PUSH2 0x7C4 JUMP JUMPDEST SWAP4 SWAP3 POP POP POP JUMP JUMPDEST PUSH4 0x4E487B71 PUSH1 0xE0 SHL PUSH0 MSTORE PUSH1 0x41 PUSH1 0x4 MSTORE PUSH1 0x24 PUSH0 REVERT JUMPDEST PUSH0 DUP3 PUSH1 0x1F DUP4 ADD SLT PUSH2 0x883 JUMPI PUSH0 DUP1 REVERT JUMPDEST DUP2 CALLDATALOAD PUSH8 0xFFFFFFFFFFFFFFFF DUP1 DUP3 GT ISZERO PUSH2 0x89E JUMPI PUSH2 0x89E PUSH2 0x860 JUMP JUMPDEST PUSH1 0x40 MLOAD PUSH1 0x1F DUP4 ADD PUSH1 0x1F NOT SWAP1 DUP2 AND PUSH1 0x3F ADD AND DUP2 ADD SWAP1 DUP3 DUP3 GT DUP2 DUP4 LT OR ISZERO PUSH2 0x8C6 JUMPI PUSH2 0x8C6 PUSH2 0x860 JUMP JUMPDEST DUP2 PUSH1 0x40 MSTORE DUP4 DUP2 MSTORE DUP7 PUSH1 0x20 DUP6 DUP9 ADD ADD GT ISZERO PUSH2 0x8DE JUMPI PUSH0 DUP1 REVERT JUMPDEST DUP4 PUSH1 0x20 DUP8 ADD PUSH1 0x20 DUP4 ADD CALLDATACOPY PUSH0 PUSH1 0x20 DUP6 DUP4 ADD ADD MSTORE DUP1 SWAP5 POP POP POP POP POP SWAP3 SWAP2 POP POP JUMP JUMPDEST PUSH0 DUP1 PUSH0 DUP1 PUSH1 0x80 DUP6 DUP8 SUB SLT ISZERO PUSH2 0x910 JUMPI PUSH0 DUP1 REVERT JUMPDEST DUP5 CALLDATALOAD PUSH8 0xFFFFFFFFFFFFFFFF DUP1 DUP3 GT ISZERO PUSH2 0x927 JUMPI PUSH0 DUP1 REVERT JUMPDEST PUSH2 0x933 DUP9 DUP4 DUP10 ADD PUSH2 0x874 JUMP JUMPDEST SWAP6 POP PUSH1 0x20 DUP8 ADD CALLDATALOAD SWAP2 POP DUP1 DUP3 GT ISZERO PUSH2 0x948 JUMPI PUSH0 DUP1 REVERT JUMPDEST POP PUSH2 0x955 DUP8 DUP3 DUP9 ADD PUSH2 0x874 JUMP JUMPDEST SWAP5 SWAP8 SWAP5 SWAP7 POP POP POP POP PUSH1 0x40 DUP4 ADD CALLDATALOAD SWAP3 PUSH1 0x60 ADD CALLDATALOAD SWAP2 SWAP1 POP JUMP JUMPDEST PUSH0 DUP1 PUSH1 0x40 DUP4 DUP6 SUB SLT ISZERO PUSH2 0x97D JUMPI PUSH0 DUP1 REVERT JUMPDEST PUSH2 0x986 DUP4 PUSH2 0x7C4 JUMP JUMPDEST SWAP2 POP PUSH2 0x994 PUSH1 0x20 DUP5 ADD PUSH2 0x7C4 JUMP JUMPDEST SWAP1 POP SWAP3 POP SWAP3 SWAP1 POP JUMP JUMPDEST PUSH1 0x1 DUP2 DUP2 SHR SWAP1 DUP3 AND DUP1 PUSH2 0x9B1 JUMPI PUSH1 0x7F DUP3 AND SWAP2 POP JUMPDEST PUSH1 0x20 DUP3 LT DUP2 SUB PUSH2 0x9CF JUMPI PUSH4 0x4E487B71 PUSH1 0xE0 SHL PUSH0 MSTORE PUSH1 0x22 PUSH1 0x4 MSTORE PUSH1 0x24 PUSH0 REVERT JUMPDEST POP SWAP2 SWAP1 POP JUMP JUMPDEST PUSH4 0x4E487B71 PUSH1 0xE0 SHL PUSH0 MSTORE PUSH1 0x11 PUSH1 0x4 MSTORE PUSH1 0x24 PUSH0 REVERT JUMPDEST DUP1 DUP3 ADD DUP1 DUP3 GT ISZERO PUSH2 0x2EE JUMPI PUSH2 0x2EE PUSH2 0x9D5 JUMP JUMPDEST PUSH0 DUP2 PUSH2 0xA0A JUMPI PUSH2 0xA0A PUSH2 0x9D5 JUMP JUMPDEST POP PUSH0 NOT ADD SWAP1 JUMP JUMPDEST PUSH1 0x1F DUP3 GT ISZERO PUSH2 0x5CA JUMPI PUSH0 DUP2 DUP2 MSTORE PUSH1 0x20 DUP2 KECCAK256 PUSH1 0x1F DUP6 ADD PUSH1 0x5 SHR DUP2 ADD PUSH1 0x20 DUP7 LT ISZERO PUSH2 0xA37 JUMPI POP DUP1 JUMPDEST PUSH1 0x1F DUP6 ADD PUSH1 0x5 SHR DUP3 ADD SWAP2 POP JUMPDEST DUP2 DUP2 LT ISZERO PUSH2 0xA56 JUMPI DUP3 DUP2 SSTORE PUSH1 0x1 ADD PUSH2 0xA43 JUMP JUMPDEST POP POP POP POP POP POP JUMP JUMPDEST DUP2 MLOAD PUSH8 0xFFFFFFFFFFFFFFFF DUP2 GT ISZERO PUSH2 0xA78 JUMPI PUSH2 0xA78 PUSH2 0x860 JUMP JUMPDEST PUSH2 0xA8C DUP2 PUSH2 0xA86 DUP5 SLOAD PUSH2 0x99D JUMP JUMPDEST DUP5 PUSH2 0xA11 JUMP JUMPDEST PUSH1 0x20 DUP1 PUSH1 0x1F DUP4 GT PUSH1 0x1 DUP2 EQ PUSH2 0xABF JUMPI PUSH0 DUP5 ISZERO PUSH2 0xAA8 JUMPI POP DUP6 DUP4 ADD MLOAD JUMPDEST PUSH0 NOT PUSH1 0x3 DUP7 SWAP1 SHL SHR NOT AND PUSH1 0x1 DUP6 SWAP1 SHL OR DUP6 SSTORE PUSH2 0xA56 JUMP JUMPDEST PUSH0 DUP6 DUP2 MSTORE PUSH1 0x20 DUP2 KECCAK256 PUSH1 0x1F NOT DUP7 AND SWAP2 JUMPDEST DUP3 DUP2 LT ISZERO PUSH2 0xAED JUMPI DUP9 DUP7 ADD MLOAD DUP3 SSTORE SWAP5 DUP5 ADD SWAP5 PUSH1 0x1 SWAP1 SWAP2 ADD SWAP1 DUP5 ADD PUSH2 0xACE JUMP JUMPDEST POP DUP6 DUP3 LT ISZERO PUSH2 0xB0A JUMPI DUP8 DUP6 ADD MLOAD PUSH0 NOT PUSH1 0x3 DUP9 SWAP1 SHL PUSH1 0xF8 AND SHR NOT AND DUP2 SSTORE JUMPDEST POP POP POP POP POP PUSH1 0x1 SWAP1 DUP2 SHL ADD SWAP1 SSTORE POP JUMP INVALID LOG2 PUSH5 0x6970667358 0x22 SLT KECCAK256 0xB9 0xF POP 0xDC 0xCA PREVRANDAO 0xA6 0xE2 PUSH30 0x286E1C537EE9C79C6E9295027A09B9C27D5BC9B0E2726064736F6C634300 ADDMOD EQ STOP CALLER "
				},
				"gasEstimates": {
					"creation": {
						"codeDepositCost": "579200",
						"executionCost": "infinite",
						"totalCost": "infinite"
					},
					"external": {
						"_mint(address,uint256)": "50973",
						"_name()": "infinite",
						"_symbol()": "infinite",
						"_totalSupply()": "2383",
						"_update(address,address,uint256)": "infinite",
						"allowance(address,address)": "infinite",
						"approve(address,uint256)": "24758",
						"balanceOf(address)": "2582",
						"decimals()": "243",
						"init(string,string,uint256,uint256)": "infinite",
						"mint()": "82927",
						"name()": "infinite",
						"symbol()": "infinite",
						"totalSupply()": "2303",
						"transfer(address,uint256)": "51238",
						"transferFrom(address,address,uint256)": "infinite"
					}
				},
				"methodIdentifiers": {
					"_mint(address,uint256)": "4e6ec247",
					"_name()": "d28d8852",
					"_symbol()": "b09f1266",
					"_totalSupply()": "3eaaf86b",
					"_update(address,address,uint256)": "0bb3bfa8",
					"allowance(address,address)": "dd62ed3e",
					"approve(address,uint256)": "095ea7b3",
					"balanceOf(address)": "70a08231",
					"decimals()": "313ce567",
					"init(string,string,uint256,uint256)": "87c80464",
					"mint()": "1249c58b",
					"name()": "06fdde03",
					"symbol()": "95d89b41",
					"totalSupply()": "18160ddd",
					"transfer(address,uint256)": "a9059cbb",
					"transferFrom(address,address,uint256)": "23b872dd"
				}
			},
			"storageLayout": {
				"storage": [
					{
						"astId": 159,
						"contract": "src/MyERC20.sol:MyERC20",
						"label": "_balances",
						"offset": 0,
						"slot": "0",
						"type": "t_mapping(t_address,t_uint256)"
					},
					{
						"astId": 165,
						"contract": "src/MyERC20.sol:MyERC20",
						"label": "_allowances",
						"offset": 0,
						"slot": "1",
						"type": "t_mapping(t_address,t_mapping(t_address,t_uint256))"
					},
					{
						"astId": 167,
						"contract": "src/MyERC20.sol:MyERC20",
						"label": "_totalSupply",
						"offset": 0,
						"slot": "2",
						"type": "t_uint256"
					},
					{
						"astId": 169,
						"contract": "src/MyERC20.sol:MyERC20",
						"label": "_name",
						"offset": 0,
						"slot": "3",
						"type": "t_string_storage"
					},
					{
						"astId": 171,
						"contract": "src/MyERC20.sol:MyERC20",
						"label": "_symbol",
						"offset": 0,
						"slot": "4",
						"type": "t_string_storage"
					},
					{
						"astId": 792,
						"contract": "src/MyERC20.sol:MyERC20",
						"label": "perMint",
						"offset": 0,
						"slot": "5",
						"type": "t_uint256"
					},
					{
						"astId": 794,
						"contract": "src/MyERC20.sol:MyERC20",
						"label": "_num",
						"offset": 0,
						"slot": "6",
						"type": "t_uint256"
					}
				],
				"types": {
					"t_address": {
						"encoding": "inplace",
						"label": "address",
						"numberOfBytes": "20"
					},
					"t_mapping(t_address,t_mapping(t_address,t_uint256))": {
						"encoding": "mapping",
						"key": "t_address",
						"label": "mapping(address => mapping(address => uint256))",
						"numberOfBytes": "32",
						"value": "t_mapping(t_address,t_uint256)"
					},
					"t_mapping(t_address,t_uint256)": {
						"encoding": "mapping",
						"key": "t_address",
						"label": "mapping(address => uint256)",
						"numberOfBytes": "32",
						"value": "t_uint256"
					},
					"t_string_storage": {
						"encoding": "bytes",
						"label": "string",
						"numberOfBytes": "32"
					},
					"t_uint256": {
						"encoding": "inplace",
						"label": "uint256",
						"numberOfBytes": "32"
					}
				}
			},
			"userdoc": {
				"kind": "user",
				"methods": {},
				"version": 1
			}
		}
	}
}