{
	"day6/TokenBank.sol": {
		"TokenBank": {
			"abi": [
				{
					"inputs": [
						{
							"internalType": "contract MyToken",
							"name": "mytoken",
							"type": "address"
						}
					],
					"stateMutability": "nonpayable",
					"type": "constructor"
				},
				{
					"anonymous": false,
					"inputs": [
						{
							"indexed": false,
							"internalType": "address",
							"name": "account",
							"type": "address"
						},
						{
							"indexed": false,
							"internalType": "uint256",
							"name": "value",
							"type": "uint256"
						}
					],
					"name": "Deposit",
					"type": "event"
				},
				{
					"anonymous": false,
					"inputs": [
						{
							"indexed": false,
							"internalType": "uint256",
							"name": "value",
							"type": "uint256"
						}
					],
					"name": "WithDraw",
					"type": "event"
				},
				{
					"inputs": [
						{
							"internalType": "uint256",
							"name": "value",
							"type": "uint256"
						}
					],
					"name": "deposit",
					"outputs": [],
					"stateMutability": "nonpayable",
					"type": "function"
				},
				{
					"inputs": [
						{
							"internalType": "address",
							"name": "account",
							"type": "address"
						}
					],
					"name": "getbalance",
					"outputs": [
						{
							"internalType": "uint256",
							"name": "",
							"type": "uint256"
						}
					],
					"stateMutability": "view",
					"type": "function"
				},
				{
					"inputs": [],
					"name": "mytoken",
					"outputs": [
						{
							"internalType": "contract MyToken",
							"name": "",
							"type": "address"
						}
					],
					"stateMutability": "view",
					"type": "function"
				},
				{
					"inputs": [
						{
							"internalType": "address",
							"name": "from",
							"type": "address"
						},
						{
							"internalType": "uint256",
							"name": "value",
							"type": "uint256"
						}
					],
					"name": "tokenReceive",
					"outputs": [
						{
							"internalType": "bool",
							"name": "",
							"type": "bool"
						}
					],
					"stateMutability": "nonpayable",
					"type": "function"
				},
				{
					"inputs": [],
					"name": "withDraw",
					"outputs": [],
					"stateMutability": "nonpayable",
					"type": "function"
				}
			],
			"devdoc": {
				"kind": "dev",
				"methods": {},
				"version": 1
			},
			"evm": {
				"assembly": "    /* \"day6/TokenBank.sol\":88:1259  contract TokenBank {... */\n  mstore(0x40, 0x80)\n    /* \"day6/TokenBank.sol\":324:417  constructor(MyToken mytoken){... */\n  callvalue\n  dup1\n  iszero\n  tag_1\n  jumpi\n  0x00\n  dup1\n  revert\ntag_1:\n  pop\n  mload(0x40)\n  sub(codesize, bytecodeSize)\n  dup1\n  bytecodeSize\n  dup4\n  codecopy\n  dup2\n  add\n  0x40\n  dup2\n  swap1\n  mstore\n  tag_2\n  swap2\n  tag_3\n  jump\t// in\ntag_2:\n  pop\n    /* \"day6/TokenBank.sol\":391:396  admin */\n  0x01\n    /* \"day6/TokenBank.sol\":391:409  admin = msg.sender */\n  dup1\n  sload\n  not(sub(shl(0xa0, 0x01), 0x01))\n  and\n    /* \"day6/TokenBank.sol\":399:409  msg.sender */\n  caller\n    /* \"day6/TokenBank.sol\":391:409  admin = msg.sender */\n  or\n  swap1\n  sstore\n    /* \"day6/TokenBank.sol\":88:1259  contract TokenBank {... */\n  jump(tag_7)\n    /* \"#utility.yul\":14:320   */\ntag_3:\n    /* \"#utility.yul\":100:106   */\n  0x00\n    /* \"#utility.yul\":153:155   */\n  0x20\n    /* \"#utility.yul\":141:150   */\n  dup3\n    /* \"#utility.yul\":132:139   */\n  dup5\n    /* \"#utility.yul\":128:151   */\n  sub\n    /* \"#utility.yul\":124:156   */\n  slt\n    /* \"#utility.yul\":121:173   */\n  iszero\n  tag_9\n  jumpi\n    /* \"#utility.yul\":169:170   */\n  0x00\n    /* \"#utility.yul\":166:167   */\n  dup1\n    /* \"#utility.yul\":159:171   */\n  revert\n    /* \"#utility.yul\":121:173   */\ntag_9:\n    /* \"#utility.yul\":195:211   */\n  dup2\n  mload\n  sub(shl(0xa0, 0x01), 0x01)\n    /* \"#utility.yul\":240:271   */\n  dup2\n  and\n    /* \"#utility.yul\":230:272   */\n  dup2\n  eq\n    /* \"#utility.yul\":220:290   */\n  tag_10\n  jumpi\n    /* \"#utility.yul\":286:287   */\n  0x00\n    /* \"#utility.yul\":283:284   */\n  dup1\n    /* \"#utility.yul\":276:288   */\n  revert\n    /* \"#utility.yul\":220:290   */\ntag_10:\n    /* \"#utility.yul\":309:314   */\n  swap4\n    /* \"#utility.yul\":14:320   */\n  swap3\n  pop\n  pop\n  pop\n  jump\t// out\ntag_7:\n    /* \"day6/TokenBank.sol\":88:1259  contract TokenBank {... */\n  dataSize(sub_0)\n  dup1\n  dataOffset(sub_0)\n  0x00\n  codecopy\n  0x00\n  return\nstop\n\nsub_0: assembly {\n        /* \"day6/TokenBank.sol\":88:1259  contract TokenBank {... */\n      mstore(0x40, 0x80)\n      callvalue\n      dup1\n      iszero\n      tag_1\n      jumpi\n      0x00\n      dup1\n      revert\n    tag_1:\n      pop\n      jumpi(tag_2, lt(calldatasize, 0x04))\n      shr(0xe0, calldataload(0x00))\n      dup1\n      0x0fdb1c10\n      eq\n      tag_3\n      jumpi\n      dup1\n      0x503c2b0e\n      eq\n      tag_4\n      jumpi\n      dup1\n      0x5eab74fc\n      eq\n      tag_5\n      jumpi\n      dup1\n      0x68116177\n      eq\n      tag_6\n      jumpi\n      dup1\n      0xb6b55f25\n      eq\n      tag_7\n      jumpi\n    tag_2:\n      0x00\n      dup1\n      revert\n        /* \"day6/TokenBank.sol\":717:977  function withDraw() external {... */\n    tag_3:\n      tag_8\n      tag_9\n      jump\t// in\n    tag_8:\n      stop\n        /* \"day6/TokenBank.sol\":1103:1248  function tokenReceive(address from,uint256 value) external  returns(bool){... */\n    tag_4:\n      tag_10\n      tag_11\n      calldatasize\n      0x04\n      tag_12\n      jump\t// in\n    tag_11:\n      tag_13\n      jump\t// in\n    tag_10:\n      mload(0x40)\n        /* \"#utility.yul\":616:630   */\n      swap1\n      iszero\n        /* \"#utility.yul\":609:631   */\n      iszero\n        /* \"#utility.yul\":591:632   */\n      dup2\n      mstore\n        /* \"#utility.yul\":579:581   */\n      0x20\n        /* \"#utility.yul\":564:582   */\n      add\n        /* \"day6/TokenBank.sol\":1103:1248  function tokenReceive(address from,uint256 value) external  returns(bool){... */\n    tag_14:\n      mload(0x40)\n      dup1\n      swap2\n      sub\n      swap1\n      return\n        /* \"day6/TokenBank.sol\":200:223  MyToken public  mytoken */\n    tag_5:\n      sload(0x02)\n      tag_16\n      swap1\n      sub(shl(0xa0, 0x01), 0x01)\n      and\n      dup2\n      jump\n    tag_16:\n      mload(0x40)\n      sub(shl(0xa0, 0x01), 0x01)\n        /* \"#utility.yul\":823:855   */\n      swap1\n      swap2\n      and\n        /* \"#utility.yul\":805:856   */\n      dup2\n      mstore\n        /* \"#utility.yul\":793:795   */\n      0x20\n        /* \"#utility.yul\":778:796   */\n      add\n        /* \"day6/TokenBank.sol\":200:223  MyToken public  mytoken */\n      tag_14\n        /* \"#utility.yul\":643:862   */\n      jump\n        /* \"day6/TokenBank.sol\":985:1095  function getbalance(address account) external view returns(uint256){... */\n    tag_6:\n      tag_20\n      tag_21\n      calldatasize\n      0x04\n      tag_22\n      jump\t// in\n    tag_21:\n      sub(shl(0xa0, 0x01), 0x01)\n        /* \"day6/TokenBank.sol\":1070:1087  _balance[account] */\n      and\n        /* \"day6/TokenBank.sol\":1044:1051  uint256 */\n      0x00\n        /* \"day6/TokenBank.sol\":1070:1087  _balance[account] */\n      swap1\n      dup2\n      mstore\n      0x20\n      dup2\n      swap1\n      mstore\n      0x40\n      swap1\n      keccak256\n      sload\n      swap1\n        /* \"day6/TokenBank.sol\":985:1095  function getbalance(address account) external view returns(uint256){... */\n      jump\n    tag_20:\n      mload(0x40)\n        /* \"#utility.yul\":1204:1229   */\n      swap1\n      dup2\n      mstore\n        /* \"#utility.yul\":1192:1194   */\n      0x20\n        /* \"#utility.yul\":1177:1195   */\n      add\n        /* \"day6/TokenBank.sol\":985:1095  function getbalance(address account) external view returns(uint256){... */\n      tag_14\n        /* \"#utility.yul\":1058:1235   */\n      jump\n        /* \"day6/TokenBank.sol\":456:709  function deposit(uint256 value) external {... */\n    tag_7:\n      tag_8\n      tag_27\n      calldatasize\n      0x04\n      tag_28\n      jump\t// in\n    tag_27:\n      tag_29\n      jump\t// in\n        /* \"day6/TokenBank.sol\":717:977  function withDraw() external {... */\n    tag_9:\n        /* \"day6/TokenBank.sol\":777:782  admin */\n      and(sub(shl(0xa0, 0x01), 0x01), sload(0x01))\n        /* \"day6/TokenBank.sol\":765:775  msg.sender */\n      caller\n        /* \"day6/TokenBank.sol\":765:782  msg.sender==admin */\n      eq\n        /* \"day6/TokenBank.sol\":757:783  require(msg.sender==admin) */\n      tag_31\n      jumpi\n      0x00\n      dup1\n      revert\n    tag_31:\n        /* \"day6/TokenBank.sol\":826:830  this */\n      address\n        /* \"day6/TokenBank.sol\":794:807  uint256 value */\n      0x00\n        /* \"day6/TokenBank.sol\":809:832  _balance[address(this)] */\n      swap1\n      dup2\n      mstore\n      0x20\n      dup2\n      swap1\n      mstore\n      0x40\n      swap1\n      dup2\n      swap1\n      keccak256\n      sload\n        /* \"day6/TokenBank.sol\":851:858  mytoken */\n      sload(0x02)\n        /* \"day6/TokenBank.sol\":851:886  mytoken.transfer(msg.sender, value) */\n      swap2\n      mload\n      shl(0xe0, 0xa9059cbb)\n      dup2\n      mstore\n        /* \"day6/TokenBank.sol\":868:878  msg.sender */\n      caller\n        /* \"day6/TokenBank.sol\":851:886  mytoken.transfer(msg.sender, value) */\n      0x04\n      dup3\n      add\n        /* \"#utility.yul\":1599:1650   */\n      mstore\n        /* \"#utility.yul\":1666:1684   */\n      0x24\n      dup2\n      add\n        /* \"#utility.yul\":1659:1693   */\n      dup3\n      swap1\n      mstore\n        /* \"day6/TokenBank.sol\":809:832  _balance[address(this)] */\n      swap1\n      swap2\n      sub(shl(0xa0, 0x01), 0x01)\n        /* \"day6/TokenBank.sol\":851:858  mytoken */\n      and\n      swap1\n        /* \"day6/TokenBank.sol\":851:867  mytoken.transfer */\n      0xa9059cbb\n      swap1\n        /* \"#utility.yul\":1572:1590   */\n      0x44\n      add\n        /* \"day6/TokenBank.sol\":851:886  mytoken.transfer(msg.sender, value) */\n      0x20\n      mload(0x40)\n      dup1\n      dup4\n      sub\n      dup2\n      0x00\n      dup8\n      gas\n      call\n      iszero\n      dup1\n      iszero\n      tag_35\n      jumpi\n      returndatasize\n      0x00\n      dup1\n      returndatacopy\n      revert(0x00, returndatasize)\n    tag_35:\n      pop\n      pop\n      pop\n      pop\n      mload(0x40)\n      returndatasize\n      not(0x1f)\n      0x1f\n      dup3\n      add\n      and\n      dup3\n      add\n      dup1\n      0x40\n      mstore\n      pop\n      dup2\n      add\n      swap1\n      tag_36\n      swap2\n      swap1\n      tag_37\n      jump\t// in\n    tag_36:\n        /* \"day6/TokenBank.sol\":843:903  require(mytoken.transfer(msg.sender, value),\"transfer fail\") */\n      tag_38\n      jumpi\n      mload(0x40)\n      shl(0xe5, 0x461bcd)\n      dup2\n      mstore\n        /* \"#utility.yul\":2188:2190   */\n      0x20\n        /* \"day6/TokenBank.sol\":843:903  require(mytoken.transfer(msg.sender, value),\"transfer fail\") */\n      0x04\n      dup3\n      add\n        /* \"#utility.yul\":2170:2191   */\n      mstore\n        /* \"#utility.yul\":2227:2229   */\n      0x0d\n        /* \"#utility.yul\":2207:2225   */\n      0x24\n      dup3\n      add\n        /* \"#utility.yul\":2200:2230   */\n      mstore\n      shl(0x9a, 0x1d1c985b9cd9995c8819985a5b)\n        /* \"#utility.yul\":2246:2264   */\n      0x44\n      dup3\n      add\n        /* \"#utility.yul\":2239:2282   */\n      mstore\n        /* \"#utility.yul\":2299:2317   */\n      0x64\n      add\n        /* \"day6/TokenBank.sol\":843:903  require(mytoken.transfer(msg.sender, value),\"transfer fail\") */\n    tag_39:\n      mload(0x40)\n      dup1\n      swap2\n      sub\n      swap1\n      revert\n    tag_38:\n        /* \"day6/TokenBank.sol\":923:933  msg.sender */\n      caller\n        /* \"day6/TokenBank.sol\":937:938  0 */\n      0x00\n        /* \"day6/TokenBank.sol\":914:934  _balance[msg.sender] */\n      swap1\n      dup2\n      mstore\n      0x20\n      dup2\n      dup2\n      mstore\n      0x40\n      dup1\n      dup4\n      keccak256\n        /* \"day6/TokenBank.sol\":914:938  _balance[msg.sender] = 0 */\n      swap3\n      swap1\n      swap3\n      sstore\n        /* \"day6/TokenBank.sol\":954:969  WithDraw(value) */\n      swap1\n      mload\n        /* \"#utility.yul\":1204:1229   */\n      dup3\n      dup2\n      mstore\n        /* \"day6/TokenBank.sol\":954:969  WithDraw(value) */\n      0xcbe159bbfa02836af5ba6d951958879a5d0b207331524c51ef4a58c95421e312\n      swap2\n        /* \"#utility.yul\":1177:1195   */\n      add\n        /* \"day6/TokenBank.sol\":954:969  WithDraw(value) */\n      mload(0x40)\n      dup1\n      swap2\n      sub\n      swap1\n      log1\n        /* \"day6/TokenBank.sol\":746:977  {... */\n      pop\n        /* \"day6/TokenBank.sol\":717:977  function withDraw() external {... */\n      jump\t// out\n        /* \"day6/TokenBank.sol\":1103:1248  function tokenReceive(address from,uint256 value) external  returns(bool){... */\n    tag_13:\n        /* \"day6/TokenBank.sol\":1204:1208  this */\n      address\n        /* \"day6/TokenBank.sol\":1171:1175  bool */\n      0x00\n        /* \"day6/TokenBank.sol\":1187:1210  _balance[address(this)] */\n      swap1\n      dup2\n      mstore\n      0x20\n      dup2\n      swap1\n      mstore\n      0x40\n      dup2\n      keccak256\n        /* \"day6/TokenBank.sol\":1187:1218  _balance[address(this)] +=value */\n      dup1\n      sload\n        /* \"day6/TokenBank.sol\":1213:1218  value */\n      dup4\n      swap2\n        /* \"day6/TokenBank.sol\":1187:1210  _balance[address(this)] */\n      swap1\n        /* \"day6/TokenBank.sol\":1171:1175  bool */\n      dup4\n      swap1\n        /* \"day6/TokenBank.sol\":1187:1218  _balance[address(this)] +=value */\n      tag_43\n      swap1\n        /* \"day6/TokenBank.sol\":1213:1218  value */\n      dup5\n      swap1\n        /* \"day6/TokenBank.sol\":1187:1218  _balance[address(this)] +=value */\n      tag_44\n      jump\t// in\n    tag_43:\n      swap1\n      swap2\n      sstore\n      pop\n        /* \"day6/TokenBank.sol\":1236:1240  true */\n      0x01\n      swap2\n      pop\n      pop\n        /* \"day6/TokenBank.sol\":1103:1248  function tokenReceive(address from,uint256 value) external  returns(bool){... */\n    tag_42:\n      swap3\n      swap2\n      pop\n      pop\n      jump\t// out\n        /* \"day6/TokenBank.sol\":456:709  function deposit(uint256 value) external {... */\n    tag_29:\n        /* \"day6/TokenBank.sol\":555:562  mytoken */\n      sload(0x02)\n        /* \"day6/TokenBank.sol\":555:606  mytoken.transferfrom(account, address(this), value) */\n      mload(0x40)\n      shl(0xe0, 0x63b0545f)\n      dup2\n      mstore\n        /* \"day6/TokenBank.sol\":526:536  msg.sender */\n      caller\n        /* \"day6/TokenBank.sol\":555:606  mytoken.transferfrom(account, address(this), value) */\n      0x04\n      dup3\n      add\n        /* \"#utility.yul\":2795:2829   */\n      dup2\n      swap1\n      mstore\n        /* \"day6/TokenBank.sol\":593:597  this */\n      address\n        /* \"#utility.yul\":2845:2863   */\n      0x24\n      dup4\n      add\n        /* \"#utility.yul\":2838:2881   */\n      mstore\n        /* \"#utility.yul\":2897:2915   */\n      0x44\n      dup3\n      add\n        /* \"#utility.yul\":2890:2924   */\n      dup5\n      swap1\n      mstore\n        /* \"day6/TokenBank.sol\":526:536  msg.sender */\n      swap2\n      sub(shl(0xa0, 0x01), 0x01)\n        /* \"day6/TokenBank.sol\":555:562  mytoken */\n      and\n      swap1\n        /* \"day6/TokenBank.sol\":555:575  mytoken.transferfrom */\n      0x63b0545f\n      swap1\n        /* \"#utility.yul\":2730:2748   */\n      0x64\n      add\n        /* \"day6/TokenBank.sol\":555:606  mytoken.transferfrom(account, address(this), value) */\n      0x20\n      mload(0x40)\n      dup1\n      dup4\n      sub\n      dup2\n      0x00\n      dup8\n      gas\n      call\n      iszero\n      dup1\n      iszero\n      tag_50\n      jumpi\n      returndatasize\n      0x00\n      dup1\n      returndatacopy\n      revert(0x00, returndatasize)\n    tag_50:\n      pop\n      pop\n      pop\n      pop\n      mload(0x40)\n      returndatasize\n      not(0x1f)\n      0x1f\n      dup3\n      add\n      and\n      dup3\n      add\n      dup1\n      0x40\n      mstore\n      pop\n      dup2\n      add\n      swap1\n      tag_51\n      swap2\n      swap1\n      tag_37\n      jump\t// in\n    tag_51:\n        /* \"day6/TokenBank.sol\":547:625  require(mytoken.transferfrom(account, address(this), value),\"transfer failed\") */\n      tag_52\n      jumpi\n      mload(0x40)\n      shl(0xe5, 0x461bcd)\n      dup2\n      mstore\n        /* \"#utility.yul\":3137:3139   */\n      0x20\n        /* \"day6/TokenBank.sol\":547:625  require(mytoken.transferfrom(account, address(this), value),\"transfer failed\") */\n      0x04\n      dup3\n      add\n        /* \"#utility.yul\":3119:3140   */\n      mstore\n        /* \"#utility.yul\":3176:3178   */\n      0x0f\n        /* \"#utility.yul\":3156:3174   */\n      0x24\n      dup3\n      add\n        /* \"#utility.yul\":3149:3179   */\n      mstore\n      shl(0x8a, 0x1d1c985b9cd9995c8819985a5b1959)\n        /* \"#utility.yul\":3195:3213   */\n      0x44\n      dup3\n      add\n        /* \"#utility.yul\":3188:3233   */\n      mstore\n        /* \"#utility.yul\":3250:3268   */\n      0x64\n      add\n        /* \"day6/TokenBank.sol\":547:625  require(mytoken.transferfrom(account, address(this), value),\"transfer failed\") */\n      tag_39\n        /* \"#utility.yul\":2935:3274   */\n      jump\n        /* \"day6/TokenBank.sol\":547:625  require(mytoken.transferfrom(account, address(this), value),\"transfer failed\") */\n    tag_52:\n      sub(shl(0xa0, 0x01), 0x01)\n        /* \"day6/TokenBank.sol\":636:653  _balance[account] */\n      dup2\n      and\n        /* \"day6/TokenBank.sol\":636:644  _balance */\n      0x00\n        /* \"day6/TokenBank.sol\":636:653  _balance[account] */\n      swap1\n      dup2\n      mstore\n      0x20\n      dup2\n      swap1\n      mstore\n      0x40\n      dup2\n      keccak256\n        /* \"day6/TokenBank.sol\":636:662  _balance[account] += value */\n      dup1\n      sload\n        /* \"day6/TokenBank.sol\":657:662  value */\n      dup5\n      swap3\n        /* \"day6/TokenBank.sol\":636:644  _balance */\n      swap1\n        /* \"day6/TokenBank.sol\":636:662  _balance[account] += value */\n      tag_55\n      swap1\n        /* \"day6/TokenBank.sol\":657:662  value */\n      dup5\n      swap1\n        /* \"day6/TokenBank.sol\":636:662  _balance[account] += value */\n      tag_44\n      jump\t// in\n    tag_55:\n      swap1\n      swap2\n      sstore\n      pop\n      pop\n        /* \"day6/TokenBank.sol\":678:701  Deposit(account, value) */\n      0x40\n      dup1\n      mload\n      sub(shl(0xa0, 0x01), 0x01)\n        /* \"#utility.yul\":1617:1649   */\n      dup4\n      and\n        /* \"#utility.yul\":1599:1650   */\n      dup2\n      mstore\n        /* \"#utility.yul\":1681:1683   */\n      0x20\n        /* \"#utility.yul\":1666:1684   */\n      dup2\n      add\n        /* \"#utility.yul\":1659:1693   */\n      dup5\n      swap1\n      mstore\n        /* \"day6/TokenBank.sol\":678:701  Deposit(account, value) */\n      0xe1fffcc4923d04b559f4d29a8bfc6cda04eb5b0d3c460751c2402c5c5cc9109c\n      swap2\n        /* \"#utility.yul\":1572:1590   */\n      add\n        /* \"day6/TokenBank.sol\":678:701  Deposit(account, value) */\n      mload(0x40)\n      dup1\n      swap2\n      sub\n      swap1\n      log1\n        /* \"day6/TokenBank.sol\":497:709  {... */\n      pop\n        /* \"day6/TokenBank.sol\":456:709  function deposit(uint256 value) external {... */\n      pop\n      jump\t// out\n        /* \"#utility.yul\":14:187   */\n    tag_57:\n        /* \"#utility.yul\":82:102   */\n      dup1\n      calldataload\n      sub(shl(0xa0, 0x01), 0x01)\n        /* \"#utility.yul\":131:162   */\n      dup2\n      and\n        /* \"#utility.yul\":121:163   */\n      dup2\n      eq\n        /* \"#utility.yul\":111:181   */\n      tag_60\n      jumpi\n        /* \"#utility.yul\":177:178   */\n      0x00\n        /* \"#utility.yul\":174:175   */\n      dup1\n        /* \"#utility.yul\":167:179   */\n      revert\n        /* \"#utility.yul\":111:181   */\n    tag_60:\n        /* \"#utility.yul\":14:187   */\n      swap2\n      swap1\n      pop\n      jump\t// out\n        /* \"#utility.yul\":192:446   */\n    tag_12:\n        /* \"#utility.yul\":260:266   */\n      0x00\n        /* \"#utility.yul\":268:274   */\n      dup1\n        /* \"#utility.yul\":321:323   */\n      0x40\n        /* \"#utility.yul\":309:318   */\n      dup4\n        /* \"#utility.yul\":300:307   */\n      dup6\n        /* \"#utility.yul\":296:319   */\n      sub\n        /* \"#utility.yul\":292:324   */\n      slt\n        /* \"#utility.yul\":289:341   */\n      iszero\n      tag_62\n      jumpi\n        /* \"#utility.yul\":337:338   */\n      0x00\n        /* \"#utility.yul\":334:335   */\n      dup1\n        /* \"#utility.yul\":327:339   */\n      revert\n        /* \"#utility.yul\":289:341   */\n    tag_62:\n        /* \"#utility.yul\":360:389   */\n      tag_63\n        /* \"#utility.yul\":379:388   */\n      dup4\n        /* \"#utility.yul\":360:389   */\n      tag_57\n      jump\t// in\n    tag_63:\n        /* \"#utility.yul\":350:389   */\n      swap5\n        /* \"#utility.yul\":436:438   */\n      0x20\n        /* \"#utility.yul\":421:439   */\n      swap4\n      swap1\n      swap4\n      add\n        /* \"#utility.yul\":408:440   */\n      calldataload\n      swap4\n      pop\n      pop\n      pop\n        /* \"#utility.yul\":192:446   */\n      jump\t// out\n        /* \"#utility.yul\":867:1053   */\n    tag_22:\n        /* \"#utility.yul\":926:932   */\n      0x00\n        /* \"#utility.yul\":979:981   */\n      0x20\n        /* \"#utility.yul\":967:976   */\n      dup3\n        /* \"#utility.yul\":958:965   */\n      dup5\n        /* \"#utility.yul\":954:977   */\n      sub\n        /* \"#utility.yul\":950:982   */\n      slt\n        /* \"#utility.yul\":947:999   */\n      iszero\n      tag_67\n      jumpi\n        /* \"#utility.yul\":995:996   */\n      0x00\n        /* \"#utility.yul\":992:993   */\n      dup1\n        /* \"#utility.yul\":985:997   */\n      revert\n        /* \"#utility.yul\":947:999   */\n    tag_67:\n        /* \"#utility.yul\":1018:1047   */\n      tag_68\n        /* \"#utility.yul\":1037:1046   */\n      dup3\n        /* \"#utility.yul\":1018:1047   */\n      tag_57\n      jump\t// in\n    tag_68:\n        /* \"#utility.yul\":1008:1047   */\n      swap4\n        /* \"#utility.yul\":867:1053   */\n      swap3\n      pop\n      pop\n      pop\n      jump\t// out\n        /* \"#utility.yul\":1240:1420   */\n    tag_28:\n        /* \"#utility.yul\":1299:1305   */\n      0x00\n        /* \"#utility.yul\":1352:1354   */\n      0x20\n        /* \"#utility.yul\":1340:1349   */\n      dup3\n        /* \"#utility.yul\":1331:1338   */\n      dup5\n        /* \"#utility.yul\":1327:1350   */\n      sub\n        /* \"#utility.yul\":1323:1355   */\n      slt\n        /* \"#utility.yul\":1320:1372   */\n      iszero\n      tag_71\n      jumpi\n        /* \"#utility.yul\":1368:1369   */\n      0x00\n        /* \"#utility.yul\":1365:1366   */\n      dup1\n        /* \"#utility.yul\":1358:1370   */\n      revert\n        /* \"#utility.yul\":1320:1372   */\n    tag_71:\n      pop\n        /* \"#utility.yul\":1391:1414   */\n      calldataload\n      swap2\n        /* \"#utility.yul\":1240:1420   */\n      swap1\n      pop\n      jump\t// out\n        /* \"#utility.yul\":1704:1981   */\n    tag_37:\n        /* \"#utility.yul\":1771:1777   */\n      0x00\n        /* \"#utility.yul\":1824:1826   */\n      0x20\n        /* \"#utility.yul\":1812:1821   */\n      dup3\n        /* \"#utility.yul\":1803:1810   */\n      dup5\n        /* \"#utility.yul\":1799:1822   */\n      sub\n        /* \"#utility.yul\":1795:1827   */\n      slt\n        /* \"#utility.yul\":1792:1844   */\n      iszero\n      tag_74\n      jumpi\n        /* \"#utility.yul\":1840:1841   */\n      0x00\n        /* \"#utility.yul\":1837:1838   */\n      dup1\n        /* \"#utility.yul\":1830:1842   */\n      revert\n        /* \"#utility.yul\":1792:1844   */\n    tag_74:\n        /* \"#utility.yul\":1872:1881   */\n      dup2\n        /* \"#utility.yul\":1866:1882   */\n      mload\n        /* \"#utility.yul\":1925:1930   */\n      dup1\n        /* \"#utility.yul\":1918:1931   */\n      iszero\n        /* \"#utility.yul\":1911:1932   */\n      iszero\n        /* \"#utility.yul\":1904:1909   */\n      dup2\n        /* \"#utility.yul\":1901:1933   */\n      eq\n        /* \"#utility.yul\":1891:1951   */\n      tag_68\n      jumpi\n        /* \"#utility.yul\":1947:1948   */\n      0x00\n        /* \"#utility.yul\":1944:1945   */\n      dup1\n        /* \"#utility.yul\":1937:1949   */\n      revert\n        /* \"#utility.yul\":2328:2550   */\n    tag_44:\n        /* \"#utility.yul\":2393:2402   */\n      dup1\n      dup3\n      add\n        /* \"#utility.yul\":2414:2424   */\n      dup1\n      dup3\n      gt\n        /* \"#utility.yul\":2411:2544   */\n      iszero\n      tag_42\n      jumpi\n        /* \"#utility.yul\":2466:2476   */\n      0x4e487b71\n        /* \"#utility.yul\":2461:2464   */\n      0xe0\n        /* \"#utility.yul\":2457:2477   */\n      shl\n        /* \"#utility.yul\":2454:2455   */\n      0x00\n        /* \"#utility.yul\":2447:2478   */\n      mstore\n        /* \"#utility.yul\":2501:2505   */\n      0x11\n        /* \"#utility.yul\":2498:2499   */\n      0x04\n        /* \"#utility.yul\":2491:2506   */\n      mstore\n        /* \"#utility.yul\":2529:2533   */\n      0x24\n        /* \"#utility.yul\":2526:2527   */\n      0x00\n        /* \"#utility.yul\":2519:2534   */\n      revert\n\n    auxdata: 0xa2646970667358221220176b96a8147300781ff49fb5bc907245042756bf29204346abb784c12dea98dd64736f6c63430008160033\n}\n",
				"bytecode": {
					"linkReferences": {},
					"object": "608060405234801561000f575f80fd5b506040516104e53803806104e583398101604081905261002e91610046565b50600180546001600160a01b03191633179055610073565b5f60208284031215610056575f80fd5b81516001600160a01b038116811461006c575f80fd5b9392505050565b610465806100805f395ff3fe608060405234801561000f575f80fd5b5060043610610055575f3560e01c80630fdb1c1014610059578063503c2b0e146100635780635eab74fc1461008b57806368116177146100b6578063b6b55f25146100ec575b5f80fd5b6100616100ff565b005b610076610071366004610392565b61021e565b60405190151581526020015b60405180910390f35b60025461009e906001600160a01b031681565b6040516001600160a01b039091168152602001610082565b6100de6100c43660046103ba565b6001600160a01b03165f9081526020819052604090205490565b604051908152602001610082565b6100616100fa3660046103da565b61024e565b6001546001600160a01b03163314610115575f80fd5b305f908152602081905260409081902054600254915163a9059cbb60e01b81523360048201526024810182905290916001600160a01b03169063a9059cbb906044016020604051808303815f875af1158015610173573d5f803e3d5ffd5b505050506040513d601f19601f8201168201806040525081019061019791906103f1565b6101d85760405162461bcd60e51b815260206004820152600d60248201526c1d1c985b9cd9995c8819985a5b609a1b60448201526064015b60405180910390fd5b335f908152602081815260408083209290925590518281527fcbe159bbfa02836af5ba6d951958879a5d0b207331524c51ef4a58c95421e312910160405180910390a150565b305f9081526020819052604081208054839190839061023e908490610410565b9091555060019150505b92915050565b6002546040516363b0545f60e01b8152336004820181905230602483015260448201849052916001600160a01b0316906363b0545f906064016020604051808303815f875af11580156102a3573d5f803e3d5ffd5b505050506040513d601f19601f820116820180604052508101906102c791906103f1565b6103055760405162461bcd60e51b815260206004820152600f60248201526e1d1c985b9cd9995c8819985a5b1959608a1b60448201526064016101cf565b6001600160a01b0381165f908152602081905260408120805484929061032c908490610410565b9091555050604080516001600160a01b0383168152602081018490527fe1fffcc4923d04b559f4d29a8bfc6cda04eb5b0d3c460751c2402c5c5cc9109c910160405180910390a15050565b80356001600160a01b038116811461038d575f80fd5b919050565b5f80604083850312156103a3575f80fd5b6103ac83610377565b946020939093013593505050565b5f602082840312156103ca575f80fd5b6103d382610377565b9392505050565b5f602082840312156103ea575f80fd5b5035919050565b5f60208284031215610401575f80fd5b815180151581146103d3575f80fd5b8082018082111561024857634e487b7160e01b5f52601160045260245ffdfea2646970667358221220176b96a8147300781ff49fb5bc907245042756bf29204346abb784c12dea98dd64736f6c63430008160033",
					"opcodes": "PUSH1 0x80 PUSH1 0x40 MSTORE CALLVALUE DUP1 ISZERO PUSH2 0xF JUMPI PUSH0 DUP1 REVERT JUMPDEST POP PUSH1 0x40 MLOAD PUSH2 0x4E5 CODESIZE SUB DUP1 PUSH2 0x4E5 DUP4 CODECOPY DUP2 ADD PUSH1 0x40 DUP2 SWAP1 MSTORE PUSH2 0x2E SWAP2 PUSH2 0x46 JUMP JUMPDEST POP PUSH1 0x1 DUP1 SLOAD PUSH1 0x1 PUSH1 0x1 PUSH1 0xA0 SHL SUB NOT AND CALLER OR SWAP1 SSTORE PUSH2 0x73 JUMP JUMPDEST PUSH0 PUSH1 0x20 DUP3 DUP5 SUB SLT ISZERO PUSH2 0x56 JUMPI PUSH0 DUP1 REVERT JUMPDEST DUP2 MLOAD PUSH1 0x1 PUSH1 0x1 PUSH1 0xA0 SHL SUB DUP2 AND DUP2 EQ PUSH2 0x6C JUMPI PUSH0 DUP1 REVERT JUMPDEST SWAP4 SWAP3 POP POP POP JUMP JUMPDEST PUSH2 0x465 DUP1 PUSH2 0x80 PUSH0 CODECOPY PUSH0 RETURN INVALID PUSH1 0x80 PUSH1 0x40 MSTORE CALLVALUE DUP1 ISZERO PUSH2 0xF JUMPI PUSH0 DUP1 REVERT JUMPDEST POP PUSH1 0x4 CALLDATASIZE LT PUSH2 0x55 JUMPI PUSH0 CALLDATALOAD PUSH1 0xE0 SHR DUP1 PUSH4 0xFDB1C10 EQ PUSH2 0x59 JUMPI DUP1 PUSH4 0x503C2B0E EQ PUSH2 0x63 JUMPI DUP1 PUSH4 0x5EAB74FC EQ PUSH2 0x8B JUMPI DUP1 PUSH4 0x68116177 EQ PUSH2 0xB6 JUMPI DUP1 PUSH4 0xB6B55F25 EQ PUSH2 0xEC JUMPI JUMPDEST PUSH0 DUP1 REVERT JUMPDEST PUSH2 0x61 PUSH2 0xFF JUMP JUMPDEST STOP JUMPDEST PUSH2 0x76 PUSH2 0x71 CALLDATASIZE PUSH1 0x4 PUSH2 0x392 JUMP JUMPDEST PUSH2 0x21E JUMP JUMPDEST PUSH1 0x40 MLOAD SWAP1 ISZERO ISZERO DUP2 MSTORE PUSH1 0x20 ADD JUMPDEST PUSH1 0x40 MLOAD DUP1 SWAP2 SUB SWAP1 RETURN JUMPDEST PUSH1 0x2 SLOAD PUSH2 0x9E SWAP1 PUSH1 0x1 PUSH1 0x1 PUSH1 0xA0 SHL SUB AND DUP2 JUMP JUMPDEST PUSH1 0x40 MLOAD PUSH1 0x1 PUSH1 0x1 PUSH1 0xA0 SHL SUB SWAP1 SWAP2 AND DUP2 MSTORE PUSH1 0x20 ADD PUSH2 0x82 JUMP JUMPDEST PUSH2 0xDE PUSH2 0xC4 CALLDATASIZE PUSH1 0x4 PUSH2 0x3BA JUMP JUMPDEST PUSH1 0x1 PUSH1 0x1 PUSH1 0xA0 SHL SUB AND PUSH0 SWAP1 DUP2 MSTORE PUSH1 0x20 DUP2 SWAP1 MSTORE PUSH1 0x40 SWAP1 KECCAK256 SLOAD SWAP1 JUMP JUMPDEST PUSH1 0x40 MLOAD SWAP1 DUP2 MSTORE PUSH1 0x20 ADD PUSH2 0x82 JUMP JUMPDEST PUSH2 0x61 PUSH2 0xFA CALLDATASIZE PUSH1 0x4 PUSH2 0x3DA JUMP JUMPDEST PUSH2 0x24E JUMP JUMPDEST PUSH1 0x1 SLOAD PUSH1 0x1 PUSH1 0x1 PUSH1 0xA0 SHL SUB AND CALLER EQ PUSH2 0x115 JUMPI PUSH0 DUP1 REVERT JUMPDEST ADDRESS PUSH0 SWAP1 DUP2 MSTORE PUSH1 0x20 DUP2 SWAP1 MSTORE PUSH1 0x40 SWAP1 DUP2 SWAP1 KECCAK256 SLOAD PUSH1 0x2 SLOAD SWAP2 MLOAD PUSH4 0xA9059CBB PUSH1 0xE0 SHL DUP2 MSTORE CALLER PUSH1 0x4 DUP3 ADD MSTORE PUSH1 0x24 DUP2 ADD DUP3 SWAP1 MSTORE SWAP1 SWAP2 PUSH1 0x1 PUSH1 0x1 PUSH1 0xA0 SHL SUB AND SWAP1 PUSH4 0xA9059CBB SWAP1 PUSH1 0x44 ADD PUSH1 0x20 PUSH1 0x40 MLOAD DUP1 DUP4 SUB DUP2 PUSH0 DUP8 GAS CALL ISZERO DUP1 ISZERO PUSH2 0x173 JUMPI RETURNDATASIZE PUSH0 DUP1 RETURNDATACOPY RETURNDATASIZE PUSH0 REVERT JUMPDEST POP POP POP POP PUSH1 0x40 MLOAD RETURNDATASIZE PUSH1 0x1F NOT PUSH1 0x1F DUP3 ADD AND DUP3 ADD DUP1 PUSH1 0x40 MSTORE POP DUP2 ADD SWAP1 PUSH2 0x197 SWAP2 SWAP1 PUSH2 0x3F1 JUMP JUMPDEST PUSH2 0x1D8 JUMPI PUSH1 0x40 MLOAD PUSH3 0x461BCD PUSH1 0xE5 SHL DUP2 MSTORE PUSH1 0x20 PUSH1 0x4 DUP3 ADD MSTORE PUSH1 0xD PUSH1 0x24 DUP3 ADD MSTORE PUSH13 0x1D1C985B9CD9995C8819985A5B PUSH1 0x9A SHL PUSH1 0x44 DUP3 ADD MSTORE PUSH1 0x64 ADD JUMPDEST PUSH1 0x40 MLOAD DUP1 SWAP2 SUB SWAP1 REVERT JUMPDEST CALLER PUSH0 SWAP1 DUP2 MSTORE PUSH1 0x20 DUP2 DUP2 MSTORE PUSH1 0x40 DUP1 DUP4 KECCAK256 SWAP3 SWAP1 SWAP3 SSTORE SWAP1 MLOAD DUP3 DUP2 MSTORE PUSH32 0xCBE159BBFA02836AF5BA6D951958879A5D0B207331524C51EF4A58C95421E312 SWAP2 ADD PUSH1 0x40 MLOAD DUP1 SWAP2 SUB SWAP1 LOG1 POP JUMP JUMPDEST ADDRESS PUSH0 SWAP1 DUP2 MSTORE PUSH1 0x20 DUP2 SWAP1 MSTORE PUSH1 0x40 DUP2 KECCAK256 DUP1 SLOAD DUP4 SWAP2 SWAP1 DUP4 SWAP1 PUSH2 0x23E SWAP1 DUP5 SWAP1 PUSH2 0x410 JUMP JUMPDEST SWAP1 SWAP2 SSTORE POP PUSH1 0x1 SWAP2 POP POP JUMPDEST SWAP3 SWAP2 POP POP JUMP JUMPDEST PUSH1 0x2 SLOAD PUSH1 0x40 MLOAD PUSH4 0x63B0545F PUSH1 0xE0 SHL DUP2 MSTORE CALLER PUSH1 0x4 DUP3 ADD DUP2 SWAP1 MSTORE ADDRESS PUSH1 0x24 DUP4 ADD MSTORE PUSH1 0x44 DUP3 ADD DUP5 SWAP1 MSTORE SWAP2 PUSH1 0x1 PUSH1 0x1 PUSH1 0xA0 SHL SUB AND SWAP1 PUSH4 0x63B0545F SWAP1 PUSH1 0x64 ADD PUSH1 0x20 PUSH1 0x40 MLOAD DUP1 DUP4 SUB DUP2 PUSH0 DUP8 GAS CALL ISZERO DUP1 ISZERO PUSH2 0x2A3 JUMPI RETURNDATASIZE PUSH0 DUP1 RETURNDATACOPY RETURNDATASIZE PUSH0 REVERT JUMPDEST POP POP POP POP PUSH1 0x40 MLOAD RETURNDATASIZE PUSH1 0x1F NOT PUSH1 0x1F DUP3 ADD AND DUP3 ADD DUP1 PUSH1 0x40 MSTORE POP DUP2 ADD SWAP1 PUSH2 0x2C7 SWAP2 SWAP1 PUSH2 0x3F1 JUMP JUMPDEST PUSH2 0x305 JUMPI PUSH1 0x40 MLOAD PUSH3 0x461BCD PUSH1 0xE5 SHL DUP2 MSTORE PUSH1 0x20 PUSH1 0x4 DUP3 ADD MSTORE PUSH1 0xF PUSH1 0x24 DUP3 ADD MSTORE PUSH15 0x1D1C985B9CD9995C8819985A5B1959 PUSH1 0x8A SHL PUSH1 0x44 DUP3 ADD MSTORE PUSH1 0x64 ADD PUSH2 0x1CF JUMP JUMPDEST PUSH1 0x1 PUSH1 0x1 PUSH1 0xA0 SHL SUB DUP2 AND PUSH0 SWAP1 DUP2 MSTORE PUSH1 0x20 DUP2 SWAP1 MSTORE PUSH1 0x40 DUP2 KECCAK256 DUP1 SLOAD DUP5 SWAP3 SWAP1 PUSH2 0x32C SWAP1 DUP5 SWAP1 PUSH2 0x410 JUMP JUMPDEST SWAP1 SWAP2 SSTORE POP POP PUSH1 0x40 DUP1 MLOAD PUSH1 0x1 PUSH1 0x1 PUSH1 0xA0 SHL SUB DUP4 AND DUP2 MSTORE PUSH1 0x20 DUP2 ADD DUP5 SWAP1 MSTORE PUSH32 0xE1FFFCC4923D04B559F4D29A8BFC6CDA04EB5B0D3C460751C2402C5C5CC9109C SWAP2 ADD PUSH1 0x40 MLOAD DUP1 SWAP2 SUB SWAP1 LOG1 POP POP JUMP JUMPDEST DUP1 CALLDATALOAD PUSH1 0x1 PUSH1 0x1 PUSH1 0xA0 SHL SUB DUP2 AND DUP2 EQ PUSH2 0x38D JUMPI PUSH0 DUP1 REVERT JUMPDEST SWAP2 SWAP1 POP JUMP JUMPDEST PUSH0 DUP1 PUSH1 0x40 DUP4 DUP6 SUB SLT ISZERO PUSH2 0x3A3 JUMPI PUSH0 DUP1 REVERT JUMPDEST PUSH2 0x3AC DUP4 PUSH2 0x377 JUMP JUMPDEST SWAP5 PUSH1 0x20 SWAP4 SWAP1 SWAP4 ADD CALLDATALOAD SWAP4 POP POP POP JUMP JUMPDEST PUSH0 PUSH1 0x20 DUP3 DUP5 SUB SLT ISZERO PUSH2 0x3CA JUMPI PUSH0 DUP1 REVERT JUMPDEST PUSH2 0x3D3 DUP3 PUSH2 0x377 JUMP JUMPDEST SWAP4 SWAP3 POP POP POP JUMP JUMPDEST PUSH0 PUSH1 0x20 DUP3 DUP5 SUB SLT ISZERO PUSH2 0x3EA JUMPI PUSH0 DUP1 REVERT JUMPDEST POP CALLDATALOAD SWAP2 SWAP1 POP JUMP JUMPDEST PUSH0 PUSH1 0x20 DUP3 DUP5 SUB SLT ISZERO PUSH2 0x401 JUMPI PUSH0 DUP1 REVERT JUMPDEST DUP2 MLOAD DUP1 ISZERO ISZERO DUP2 EQ PUSH2 0x3D3 JUMPI PUSH0 DUP1 REVERT JUMPDEST DUP1 DUP3 ADD DUP1 DUP3 GT ISZERO PUSH2 0x248 JUMPI PUSH4 0x4E487B71 PUSH1 0xE0 SHL PUSH0 MSTORE PUSH1 0x11 PUSH1 0x4 MSTORE PUSH1 0x24 PUSH0 REVERT INVALID LOG2 PUSH5 0x6970667358 0x22 SLT KECCAK256 OR PUSH12 0x96A8147300781FF49FB5BC90 PUSH19 0x45042756BF29204346ABB784C12DEA98DD6473 PUSH16 0x6C634300081600330000000000000000 "
				},
				"gasEstimates": {
					"creation": {
						"codeDepositCost": "225000",
						"executionCost": "infinite",
						"totalCost": "infinite"
					},
					"external": {
						"deposit(uint256)": "infinite",
						"getbalance(address)": "2581",
						"mytoken()": "2358",
						"tokenReceive(address,uint256)": "infinite",
						"withDraw()": "infinite"
					}
				},
				"methodIdentifiers": {
					"deposit(uint256)": "b6b55f25",
					"getbalance(address)": "68116177",
					"mytoken()": "5eab74fc",
					"tokenReceive(address,uint256)": "503c2b0e",
					"withDraw()": "0fdb1c10"
				}
			},
			"storageLayout": {
				"storage": [
					{
						"astId": 1397,
						"contract": "day6/TokenBank.sol:TokenBank",
						"label": "_balance",
						"offset": 0,
						"slot": "0",
						"type": "t_mapping(t_address,t_uint256)"
					},
					{
						"astId": 1399,
						"contract": "day6/TokenBank.sol:TokenBank",
						"label": "admin",
						"offset": 0,
						"slot": "1",
						"type": "t_address"
					},
					{
						"astId": 1402,
						"contract": "day6/TokenBank.sol:TokenBank",
						"label": "mytoken",
						"offset": 0,
						"slot": "2",
						"type": "t_contract(MyToken)1390"
					}
				],
				"types": {
					"t_address": {
						"encoding": "inplace",
						"label": "address",
						"numberOfBytes": "20"
					},
					"t_contract(MyToken)1390": {
						"encoding": "inplace",
						"label": "contract MyToken",
						"numberOfBytes": "20"
					},
					"t_mapping(t_address,t_uint256)": {
						"encoding": "mapping",
						"key": "t_address",
						"label": "mapping(address => uint256)",
						"numberOfBytes": "32",
						"value": "t_uint256"
					},
					"t_uint256": {
						"encoding": "inplace",
						"label": "uint256",
						"numberOfBytes": "32"
					}
				}
			},
			"userdoc": {
				"kind": "user",
				"methods": {},
				"version": 1
			}
		}
	}
}