{
	"day6/Market.sol": {
		"Market": {
			"abi": [
				{
					"inputs": [
						{
							"internalType": "address",
							"name": "_erc721",
							"type": "address"
						},
						{
							"internalType": "address",
							"name": "_erc20",
							"type": "address"
						}
					],
					"stateMutability": "nonpayable",
					"type": "constructor"
				},
				{
					"anonymous": false,
					"inputs": [
						{
							"indexed": false,
							"internalType": "address",
							"name": "seller",
							"type": "address"
						},
						{
							"indexed": false,
							"internalType": "address",
							"name": "buyer",
							"type": "address"
						},
						{
							"indexed": false,
							"internalType": "uint256",
							"name": "id",
							"type": "uint256"
						},
						{
							"indexed": false,
							"internalType": "uint256",
							"name": "price",
							"type": "uint256"
						}
					],
					"name": "Deal",
					"type": "event"
				},
				{
					"anonymous": false,
					"inputs": [
						{
							"indexed": false,
							"internalType": "uint256",
							"name": "_id",
							"type": "uint256"
						}
					],
					"name": "cancelOrder",
					"type": "event"
				},
				{
					"anonymous": false,
					"inputs": [
						{
							"indexed": false,
							"internalType": "uint256",
							"name": "_id",
							"type": "uint256"
						},
						{
							"indexed": false,
							"internalType": "uint256",
							"name": "_price",
							"type": "uint256"
						}
					],
					"name": "changePrice",
					"type": "event"
				},
				{
					"inputs": [
						{
							"internalType": "uint256",
							"name": "_id",
							"type": "uint256"
						}
					],
					"name": "CancelOrder",
					"outputs": [],
					"stateMutability": "nonpayable",
					"type": "function"
				},
				{
					"inputs": [
						{
							"internalType": "uint256",
							"name": "_id",
							"type": "uint256"
						},
						{
							"internalType": "uint256",
							"name": "_price",
							"type": "uint256"
						}
					],
					"name": "ChangePrice",
					"outputs": [],
					"stateMutability": "nonpayable",
					"type": "function"
				},
				{
					"inputs": [
						{
							"internalType": "uint256",
							"name": "_id",
							"type": "uint256"
						}
					],
					"name": "buy",
					"outputs": [],
					"stateMutability": "nonpayable",
					"type": "function"
				},
				{
					"inputs": [],
					"name": "erc20",
					"outputs": [
						{
							"internalType": "contract IERC20",
							"name": "",
							"type": "address"
						}
					],
					"stateMutability": "view",
					"type": "function"
				},
				{
					"inputs": [],
					"name": "erc721",
					"outputs": [
						{
							"internalType": "contract IERC721",
							"name": "",
							"type": "address"
						}
					],
					"stateMutability": "view",
					"type": "function"
				},
				{
					"inputs": [
						{
							"internalType": "address",
							"name": "account",
							"type": "address"
						}
					],
					"name": "getMyNFT",
					"outputs": [
						{
							"components": [
								{
									"internalType": "address",
									"name": "seller",
									"type": "address"
								},
								{
									"internalType": "uint256",
									"name": "id",
									"type": "uint256"
								},
								{
									"internalType": "uint256",
									"name": "price",
									"type": "uint256"
								}
							],
							"internalType": "struct Market.Order[]",
							"name": "",
							"type": "tuple[]"
						}
					],
					"stateMutability": "view",
					"type": "function"
				},
				{
					"inputs": [
						{
							"internalType": "uint256",
							"name": "index",
							"type": "uint256"
						}
					],
					"name": "idToOrderIndex",
					"outputs": [
						{
							"internalType": "uint256",
							"name": "",
							"type": "uint256"
						}
					],
					"stateMutability": "view",
					"type": "function"
				},
				{
					"inputs": [
						{
							"internalType": "address",
							"name": "_operator",
							"type": "address"
						},
						{
							"internalType": "address",
							"name": "_seller",
							"type": "address"
						},
						{
							"internalType": "uint256",
							"name": "_tokenId",
							"type": "uint256"
						},
						{
							"internalType": "bytes",
							"name": "_data",
							"type": "bytes"
						}
					],
					"name": "onERC721Received",
					"outputs": [
						{
							"internalType": "bytes4",
							"name": "",
							"type": "bytes4"
						}
					],
					"stateMutability": "nonpayable",
					"type": "function"
				},
				{
					"inputs": [
						{
							"internalType": "uint256",
							"name": "id",
							"type": "uint256"
						}
					],
					"name": "orderofId",
					"outputs": [
						{
							"internalType": "address",
							"name": "seller",
							"type": "address"
						},
						{
							"internalType": "uint256",
							"name": "id",
							"type": "uint256"
						},
						{
							"internalType": "uint256",
							"name": "price",
							"type": "uint256"
						}
					],
					"stateMutability": "view",
					"type": "function"
				},
				{
					"inputs": [
						{
							"internalType": "uint256",
							"name": "",
							"type": "uint256"
						}
					],
					"name": "orders",
					"outputs": [
						{
							"internalType": "address",
							"name": "seller",
							"type": "address"
						},
						{
							"internalType": "uint256",
							"name": "id",
							"type": "uint256"
						},
						{
							"internalType": "uint256",
							"name": "price",
							"type": "uint256"
						}
					],
					"stateMutability": "view",
					"type": "function"
				},
				{
					"inputs": [
						{
							"internalType": "bytes",
							"name": "_bytes",
							"type": "bytes"
						},
						{
							"internalType": "uint256",
							"name": "_start",
							"type": "uint256"
						}
					],
					"name": "toUint256",
					"outputs": [
						{
							"internalType": "uint256",
							"name": "",
							"type": "uint256"
						}
					],
					"stateMutability": "pure",
					"type": "function"
				}
			],
			"devdoc": {
				"kind": "dev",
				"methods": {},
				"version": 1
			},
			"evm": {
				"assembly": "    /* \"day6/Market.sol\":242:3820  contract Market is IERC721Receiver{... */\n  mstore(0x40, 0x80)\n    /* \"day6/Market.sol\":799:920  constructor(address _erc721, address _erc20){... */\n  callvalue\n  dup1\n  iszero\n  tag_1\n  jumpi\n  0x00\n  dup1\n  revert\ntag_1:\n  pop\n  mload(0x40)\n  sub(codesize, bytecodeSize)\n  dup1\n  bytecodeSize\n  dup4\n  codecopy\n  dup2\n  add\n  0x40\n  dup2\n  swap1\n  mstore\n  tag_2\n  swap2\n  tag_3\n  jump\t// in\ntag_2:\n    /* \"day6/Market.sol\":854:860  erc721 */\n  0x00\n    /* \"day6/Market.sol\":854:879  erc721 = IERC721(_erc721) */\n  dup1\n  sload\n  sub(shl(0xa0, 0x01), 0x01)\n  swap4\n  dup5\n  and\n  not(sub(shl(0xa0, 0x01), 0x01))\n  swap2\n  dup3\n  and\n  or\n  swap1\n  swap2\n  sstore\n  0x01\n    /* \"day6/Market.sol\":890:912  erc20 = IERC20(_erc20) */\n  dup1\n  sload\n  swap3\n  swap1\n  swap4\n  and\n  swap2\n  and\n  or\n  swap1\n  sstore\n    /* \"day6/Market.sol\":242:3820  contract Market is IERC721Receiver{... */\n  jump(tag_8)\n    /* \"#utility.yul\":14:191   */\ntag_7:\n    /* \"#utility.yul\":93:106   */\n  dup1\n  mload\n  sub(shl(0xa0, 0x01), 0x01)\n    /* \"#utility.yul\":135:166   */\n  dup2\n  and\n    /* \"#utility.yul\":125:167   */\n  dup2\n  eq\n    /* \"#utility.yul\":115:185   */\n  tag_10\n  jumpi\n    /* \"#utility.yul\":181:182   */\n  0x00\n    /* \"#utility.yul\":178:179   */\n  dup1\n    /* \"#utility.yul\":171:183   */\n  revert\n    /* \"#utility.yul\":115:185   */\ntag_10:\n    /* \"#utility.yul\":14:191   */\n  swap2\n  swap1\n  pop\n  jump\t// out\n    /* \"#utility.yul\":196:489   */\ntag_3:\n    /* \"#utility.yul\":275:281   */\n  0x00\n    /* \"#utility.yul\":283:289   */\n  dup1\n    /* \"#utility.yul\":336:338   */\n  0x40\n    /* \"#utility.yul\":324:333   */\n  dup4\n    /* \"#utility.yul\":315:322   */\n  dup6\n    /* \"#utility.yul\":311:334   */\n  sub\n    /* \"#utility.yul\":307:339   */\n  slt\n    /* \"#utility.yul\":304:356   */\n  iszero\n  tag_12\n  jumpi\n    /* \"#utility.yul\":352:353   */\n  0x00\n    /* \"#utility.yul\":349:350   */\n  dup1\n    /* \"#utility.yul\":342:354   */\n  revert\n    /* \"#utility.yul\":304:356   */\ntag_12:\n    /* \"#utility.yul\":375:415   */\n  tag_13\n    /* \"#utility.yul\":405:414   */\n  dup4\n    /* \"#utility.yul\":375:415   */\n  tag_7\n  jump\t// in\ntag_13:\n    /* \"#utility.yul\":365:415   */\n  swap2\n  pop\n    /* \"#utility.yul\":434:483   */\n  tag_14\n    /* \"#utility.yul\":479:481   */\n  0x20\n    /* \"#utility.yul\":468:477   */\n  dup5\n    /* \"#utility.yul\":464:482   */\n  add\n    /* \"#utility.yul\":434:483   */\n  tag_7\n  jump\t// in\ntag_14:\n    /* \"#utility.yul\":424:483   */\n  swap1\n  pop\n    /* \"#utility.yul\":196:489   */\n  swap3\n  pop\n  swap3\n  swap1\n  pop\n  jump\t// out\ntag_8:\n    /* \"day6/Market.sol\":242:3820  contract Market is IERC721Receiver{... */\n  dataSize(sub_0)\n  dup1\n  dataOffset(sub_0)\n  0x00\n  codecopy\n  0x00\n  return\nstop\n\nsub_0: assembly {\n        /* \"day6/Market.sol\":242:3820  contract Market is IERC721Receiver{... */\n      mstore(0x40, 0x80)\n      callvalue\n      dup1\n      iszero\n      tag_1\n      jumpi\n      0x00\n      dup1\n      revert\n    tag_1:\n      pop\n      jumpi(tag_2, lt(calldatasize, 0x04))\n      shr(0xe0, calldataload(0x00))\n      dup1\n      0xb5cdf924\n      gt\n      tag_14\n      jumpi\n      dup1\n      0xb5cdf924\n      eq\n      tag_8\n      jumpi\n      dup1\n      0xbca6ce64\n      eq\n      tag_9\n      jumpi\n      dup1\n      0xd96a094a\n      eq\n      tag_10\n      jumpi\n      dup1\n      0xda694df0\n      eq\n      tag_11\n      jumpi\n      dup1\n      0xe1bd88c2\n      eq\n      tag_12\n      jumpi\n      dup1\n      0xee339945\n      eq\n      tag_13\n      jumpi\n      0x00\n      dup1\n      revert\n    tag_14:\n      dup1\n      0x150b7a02\n      eq\n      tag_3\n      jumpi\n      dup1\n      0x785e9e86\n      eq\n      tag_4\n      jumpi\n      dup1\n      0x7a23754e\n      eq\n      tag_5\n      jumpi\n      dup1\n      0x935c9ad2\n      eq\n      tag_6\n      jumpi\n      dup1\n      0xa85c38ef\n      eq\n      tag_7\n      jumpi\n    tag_2:\n      0x00\n      dup1\n      revert\n        /* \"day6/Market.sol\":2960:3379  function onERC721Received(... */\n    tag_3:\n      tag_15\n      tag_16\n      calldatasize\n      0x04\n      tag_17\n      jump\t// in\n    tag_16:\n      tag_18\n      jump\t// in\n    tag_15:\n      mload(0x40)\n      not(sub(shl(0xe0, 0x01), 0x01))\n        /* \"#utility.yul\":1167:1200   */\n      swap1\n      swap2\n      and\n        /* \"#utility.yul\":1149:1201   */\n      dup2\n      mstore\n        /* \"#utility.yul\":1137:1139   */\n      0x20\n        /* \"#utility.yul\":1122:1140   */\n      add\n        /* \"day6/Market.sol\":2960:3379  function onERC721Received(... */\n    tag_19:\n      mload(0x40)\n      dup1\n      swap2\n      sub\n      swap1\n      return\n        /* \"day6/Market.sol\":313:332  IERC20 public erc20 */\n    tag_4:\n      sload(0x01)\n      tag_21\n      swap1\n      sub(shl(0xa0, 0x01), 0x01)\n      and\n      dup2\n      jump\n    tag_21:\n      mload(0x40)\n      sub(shl(0xa0, 0x01), 0x01)\n        /* \"#utility.yul\":1389:1421   */\n      swap1\n      swap2\n      and\n        /* \"#utility.yul\":1371:1422   */\n      dup2\n      mstore\n        /* \"#utility.yul\":1359:1361   */\n      0x20\n        /* \"#utility.yul\":1344:1362   */\n      add\n        /* \"day6/Market.sol\":313:332  IERC20 public erc20 */\n      tag_19\n        /* \"#utility.yul\":1212:1428   */\n      jump\n        /* \"day6/Market.sol\":1438:1830  function ChangePrice(uint256 _id, uint256 _price) external {... */\n    tag_5:\n      tag_25\n      tag_26\n      calldatasize\n      0x04\n      tag_27\n      jump\t// in\n    tag_26:\n      tag_28\n      jump\t// in\n    tag_25:\n      stop\n        /* \"day6/Market.sol\":1838:2168  function CancelOrder(uint256 _id) external {... */\n    tag_6:\n      tag_25\n      tag_30\n      calldatasize\n      0x04\n      tag_31\n      jump\t// in\n    tag_30:\n      tag_32\n      jump\t// in\n        /* \"day6/Market.sol\":445:466  Order[] public orders */\n    tag_7:\n      tag_33\n      tag_34\n      calldatasize\n      0x04\n      tag_31\n      jump\t// in\n    tag_34:\n      tag_35\n      jump\t// in\n    tag_33:\n      0x40\n      dup1\n      mload\n      sub(shl(0xa0, 0x01), 0x01)\n        /* \"#utility.yul\":2091:2123   */\n      swap1\n      swap5\n      and\n        /* \"#utility.yul\":2073:2124   */\n      dup5\n      mstore\n        /* \"#utility.yul\":2155:2157   */\n      0x20\n        /* \"#utility.yul\":2140:2158   */\n      dup5\n      add\n        /* \"#utility.yul\":2133:2167   */\n      swap3\n      swap1\n      swap3\n      mstore\n        /* \"#utility.yul\":2183:2201   */\n      swap1\n      dup3\n      add\n        /* \"#utility.yul\":2176:2210   */\n      mstore\n        /* \"#utility.yul\":2061:2063   */\n      0x60\n        /* \"#utility.yul\":2046:2064   */\n      add\n        /* \"day6/Market.sol\":445:466  Order[] public orders */\n      tag_19\n        /* \"#utility.yul\":1871:2216   */\n      jump\n        /* \"day6/Market.sol\":3389:3811  function toUint256(... */\n    tag_8:\n      tag_38\n      tag_39\n      calldatasize\n      0x04\n      tag_40\n      jump\t// in\n    tag_39:\n      tag_41\n      jump\t// in\n    tag_38:\n      mload(0x40)\n        /* \"#utility.yul\":3503:3528   */\n      swap1\n      dup2\n      mstore\n        /* \"#utility.yul\":3491:3493   */\n      0x20\n        /* \"#utility.yul\":3476:3494   */\n      add\n        /* \"day6/Market.sol\":3389:3811  function toUint256(... */\n      tag_19\n        /* \"#utility.yul\":3357:3534   */\n      jump\n        /* \"day6/Market.sol\":285:306  IERC721 public erc721 */\n    tag_9:\n      sload(0x00)\n      tag_21\n      swap1\n      sub(shl(0xa0, 0x01), 0x01)\n      and\n      dup2\n      jump\n        /* \"day6/Market.sol\":928:1430  function buy(uint256 _id) external {... */\n    tag_10:\n      tag_25\n      tag_49\n      calldatasize\n      0x04\n      tag_31\n      jump\t// in\n    tag_49:\n      tag_50\n      jump\t// in\n        /* \"day6/Market.sol\":390:438  mapping(uint index =>uint) public idToOrderIndex */\n    tag_11:\n      tag_38\n      tag_52\n      calldatasize\n      0x04\n      tag_31\n      jump\t// in\n    tag_52:\n      mstore(0x20, 0x03)\n      0x00\n      swap1\n      dup2\n      mstore\n      0x40\n      swap1\n      keccak256\n      sload\n      dup2\n      jump\n        /* \"day6/Market.sol\":2176:2694  function getMyNFT(address account) external view returns(Order[] memory){... */\n    tag_12:\n      tag_55\n      tag_56\n      calldatasize\n      0x04\n      tag_57\n      jump\t// in\n    tag_56:\n      tag_58\n      jump\t// in\n    tag_55:\n      mload(0x40)\n      tag_19\n      swap2\n      swap1\n      tag_60\n      jump\t// in\n        /* \"day6/Market.sol\":341:383  mapping(uint id => Order) public orderofId */\n    tag_13:\n      tag_33\n      tag_62\n      calldatasize\n      0x04\n      tag_31\n      jump\t// in\n    tag_62:\n      0x02\n      0x20\n      dup2\n      swap1\n      mstore\n      0x00\n      swap2\n      dup3\n      mstore\n      0x40\n      swap1\n      swap2\n      keccak256\n      dup1\n      sload\n      0x01\n      dup3\n      add\n      sload\n      swap2\n      swap1\n      swap3\n      add\n      sload\n      sub(shl(0xa0, 0x01), 0x01)\n      swap1\n      swap3\n      and\n      swap2\n      dup4\n      jump\n        /* \"day6/Market.sol\":2960:3379  function onERC721Received(... */\n    tag_18:\n        /* \"day6/Market.sol\":3130:3136  bytes4 */\n      0x00\n        /* \"day6/Market.sol\":3170:3177  _seller */\n      dup5\n      sub(shl(0xa0, 0x01), 0x01)\n        /* \"day6/Market.sol\":3157:3177  _operator == _seller */\n      and\n        /* \"day6/Market.sol\":3157:3166  _operator */\n      dup7\n      sub(shl(0xa0, 0x01), 0x01)\n        /* \"day6/Market.sol\":3157:3177  _operator == _seller */\n      and\n      eq\n        /* \"day6/Market.sol\":3149:3213  require(_operator == _seller, \"Market: Seller must be operator\") */\n      tag_66\n      jumpi\n      mload(0x40)\n      shl(0xe5, 0x461bcd)\n      dup2\n      mstore\n        /* \"#utility.yul\":5023:5025   */\n      0x20\n        /* \"day6/Market.sol\":3149:3213  require(_operator == _seller, \"Market: Seller must be operator\") */\n      0x04\n      dup3\n      add\n        /* \"#utility.yul\":5005:5026   */\n      mstore\n        /* \"#utility.yul\":5062:5064   */\n      0x1f\n        /* \"#utility.yul\":5042:5060   */\n      0x24\n      dup3\n      add\n        /* \"#utility.yul\":5035:5065   */\n      mstore\n        /* \"#utility.yul\":5101:5134   */\n      0x4d61726b65743a2053656c6c6572206d757374206265206f70657261746f7200\n        /* \"#utility.yul\":5081:5099   */\n      0x44\n      dup3\n      add\n        /* \"#utility.yul\":5074:5135   */\n      mstore\n        /* \"#utility.yul\":5152:5170   */\n      0x64\n      add\n        /* \"day6/Market.sol\":3149:3213  require(_operator == _seller, \"Market: Seller must be operator\") */\n    tag_67:\n      mload(0x40)\n      dup1\n      swap2\n      sub\n      swap1\n      revert\n    tag_66:\n        /* \"day6/Market.sol\":3224:3238  uint256 _price */\n      0x00\n        /* \"day6/Market.sol\":3241:3260  toUint256(_data, 0) */\n      tag_69\n        /* \"day6/Market.sol\":3251:3256  _data */\n      dup5\n      dup5\n        /* \"day6/Market.sol\":3241:3260  toUint256(_data, 0) */\n      dup1\n      dup1\n      0x1f\n      add\n      0x20\n      dup1\n      swap2\n      div\n      mul\n      0x20\n      add\n      mload(0x40)\n      swap1\n      dup2\n      add\n      0x40\n      mstore\n      dup1\n      swap4\n      swap3\n      swap2\n      swap1\n      dup2\n      dup2\n      mstore\n      0x20\n      add\n      dup4\n      dup4\n      dup1\n      dup3\n      dup5\n      calldatacopy\n      0x00\n      swap3\n      add\n      dup3\n      swap1\n      mstore\n      pop\n      swap3\n      pop\n        /* \"day6/Market.sol\":3241:3250  toUint256 */\n      tag_41\n      swap2\n      pop\n      pop\n        /* \"day6/Market.sol\":3241:3260  toUint256(_data, 0) */\n      jump\t// in\n    tag_69:\n        /* \"day6/Market.sol\":3224:3260  uint256 _price = toUint256(_data, 0) */\n      swap1\n      pop\n        /* \"day6/Market.sol\":3290:3327  placeOrder(_seller, _tokenId, _price) */\n      tag_70\n        /* \"day6/Market.sol\":3301:3308  _seller */\n      dup7\n        /* \"day6/Market.sol\":3310:3318  _tokenId */\n      dup7\n        /* \"day6/Market.sol\":3320:3326  _price */\n      dup4\n        /* \"day6/Market.sol\":3290:3300  placeOrder */\n      tag_71\n        /* \"day6/Market.sol\":3290:3327  placeOrder(_seller, _tokenId, _price) */\n      jump\t// in\n    tag_70:\n      pop\n      shl(0xe1, 0x0a85bd01)\n        /* \"day6/Market.sol\":3347:3371  MAGIC_ON_ERC721_RECEIVED */\n      swap7\n        /* \"day6/Market.sol\":2960:3379  function onERC721Received(... */\n      swap6\n      pop\n      pop\n      pop\n      pop\n      pop\n      pop\n      jump\t// out\n        /* \"day6/Market.sol\":1438:1830  function ChangePrice(uint256 _id, uint256 _price) external {... */\n    tag_28:\n        /* \"day6/Market.sol\":1549:1550  0 */\n      0x00\n        /* \"day6/Market.sol\":1516:1530  orderofId[_id] */\n      dup3\n      dup2\n      mstore\n        /* \"day6/Market.sol\":1516:1525  orderofId */\n      0x02\n        /* \"day6/Market.sol\":1516:1530  orderofId[_id] */\n      0x20\n      mstore\n      0x40\n      swap1\n      keccak256\n        /* \"day6/Market.sol\":1516:1537  orderofId[_id].seller */\n      sload\n      sub(shl(0xa0, 0x01), 0x01)\n      and\n        /* \"day6/Market.sol\":1508:1576  require(orderofId[_id].seller != address(0),\"Product not available\") */\n      tag_73\n      jumpi\n      mload(0x40)\n      shl(0xe5, 0x461bcd)\n      dup2\n      mstore\n      0x04\n      add\n      tag_67\n      swap1\n      tag_75\n      jump\t// in\n    tag_73:\n        /* \"day6/Market.sol\":1595:1609  orderofId[_id] */\n      0x00\n      dup3\n      dup2\n      mstore\n        /* \"day6/Market.sol\":1595:1604  orderofId */\n      0x02\n        /* \"day6/Market.sol\":1595:1609  orderofId[_id] */\n      0x20\n      mstore\n      0x40\n      swap1\n      keccak256\n        /* \"day6/Market.sol\":1595:1616  orderofId[_id].seller */\n      sload\n      sub(shl(0xa0, 0x01), 0x01)\n      and\n        /* \"day6/Market.sol\":1620:1630  msg.sender */\n      caller\n        /* \"day6/Market.sol\":1595:1630  orderofId[_id].seller == msg.sender */\n      eq\n        /* \"day6/Market.sol\":1587:1671  require(orderofId[_id].seller == msg.sender,\"You are not the owner of this product\") */\n      tag_76\n      jumpi\n      mload(0x40)\n      shl(0xe5, 0x461bcd)\n      dup2\n      mstore\n      0x04\n      add\n      tag_67\n      swap1\n      tag_78\n      jump\t// in\n    tag_76:\n        /* \"day6/Market.sol\":1682:1700  Order memory order */\n      0x00\n        /* \"day6/Market.sol\":1703:1717  orderofId[_id] */\n      dup3\n      dup2\n      mstore\n        /* \"day6/Market.sol\":1703:1712  orderofId */\n      0x02\n        /* \"day6/Market.sol\":1703:1717  orderofId[_id] */\n      0x20\n      dup2\n      dup2\n      mstore\n      0x40\n      dup1\n      dup5\n      keccak256\n        /* \"day6/Market.sol\":1682:1717  Order memory order = orderofId[_id] */\n      dup2\n      mload\n      0x60\n      dup2\n      add\n      dup4\n      mstore\n      dup2\n      sload\n      sub(shl(0xa0, 0x01), 0x01)\n      dup1\n      dup3\n      and\n      dup4\n      mstore\n      0x01\n      dup5\n      add\n      dup1\n      sload\n      dup5\n      dup9\n      add\n      swap1\n      dup2\n      mstore\n      dup5\n      dup8\n      add\n        /* \"day6/Market.sol\":1728:1748  order.price = _price */\n      dup12\n      dup2\n      mstore\n        /* \"day6/Market.sol\":1759:1773  orderofId[_id] */\n      swap10\n      dup13\n      swap1\n      mstore\n      dup9\n      dup9\n      mstore\n        /* \"day6/Market.sol\":1759:1781  orderofId[_id] = order */\n      dup5\n      mload\n      swap1\n      swap3\n      and\n      not(sub(shl(0xa0, 0x01), 0x01))\n      swap1\n      swap4\n      and\n      swap3\n      swap1\n      swap3\n      or\n      dup5\n      sstore\n      mload\n      swap1\n      sstore\n      swap5\n      mload\n        /* \"day6/Market.sol\":1682:1717  Order memory order = orderofId[_id] */\n      swap4\n      add\n        /* \"day6/Market.sol\":1759:1781  orderofId[_id] = order */\n      swap3\n      swap1\n      swap3\n      sstore\n        /* \"day6/Market.sol\":1799:1822  changePrice(_id,_price) */\n      dup2\n      mload\n        /* \"#utility.yul\":6111:6136   */\n      dup6\n      dup2\n      mstore\n        /* \"#utility.yul\":6152:6170   */\n      swap1\n      dup2\n      add\n        /* \"#utility.yul\":6145:6179   */\n      dup5\n      swap1\n      mstore\n        /* \"day6/Market.sol\":1799:1822  changePrice(_id,_price) */\n      0xb3de019cba215d4f3c532c1740d910f08288eca6b69768b4337c16ab74b49741\n      swap2\n        /* \"#utility.yul\":6084:6102   */\n      add\n        /* \"day6/Market.sol\":1799:1822  changePrice(_id,_price) */\n      mload(0x40)\n      dup1\n      swap2\n      sub\n      swap1\n      log1\n        /* \"day6/Market.sol\":1497:1830  {... */\n      pop\n        /* \"day6/Market.sol\":1438:1830  function ChangePrice(uint256 _id, uint256 _price) external {... */\n      pop\n      pop\n      jump\t// out\n        /* \"day6/Market.sol\":1838:2168  function CancelOrder(uint256 _id) external {... */\n    tag_32:\n        /* \"day6/Market.sol\":1933:1934  0 */\n      0x00\n        /* \"day6/Market.sol\":1900:1914  orderofId[_id] */\n      dup2\n      dup2\n      mstore\n        /* \"day6/Market.sol\":1900:1909  orderofId */\n      0x02\n        /* \"day6/Market.sol\":1900:1914  orderofId[_id] */\n      0x20\n      mstore\n      0x40\n      swap1\n      keccak256\n        /* \"day6/Market.sol\":1900:1921  orderofId[_id].seller */\n      sload\n      sub(shl(0xa0, 0x01), 0x01)\n      and\n        /* \"day6/Market.sol\":1892:1960  require(orderofId[_id].seller != address(0),\"Product not available\") */\n      tag_82\n      jumpi\n      mload(0x40)\n      shl(0xe5, 0x461bcd)\n      dup2\n      mstore\n      0x04\n      add\n      tag_67\n      swap1\n      tag_75\n      jump\t// in\n    tag_82:\n        /* \"day6/Market.sol\":1979:1993  orderofId[_id] */\n      0x00\n      dup2\n      dup2\n      mstore\n        /* \"day6/Market.sol\":1979:1988  orderofId */\n      0x02\n        /* \"day6/Market.sol\":1979:1993  orderofId[_id] */\n      0x20\n      mstore\n      0x40\n      swap1\n      keccak256\n        /* \"day6/Market.sol\":1979:2000  orderofId[_id].seller */\n      sload\n      sub(shl(0xa0, 0x01), 0x01)\n      and\n        /* \"day6/Market.sol\":2004:2014  msg.sender */\n      caller\n        /* \"day6/Market.sol\":1979:2014  orderofId[_id].seller == msg.sender */\n      eq\n        /* \"day6/Market.sol\":1971:2055  require(orderofId[_id].seller == msg.sender,\"You are not the owner of this product\") */\n      tag_84\n      jumpi\n      mload(0x40)\n      shl(0xe5, 0x461bcd)\n      dup2\n      mstore\n      0x04\n      add\n      tag_67\n      swap1\n      tag_78\n      jump\t// in\n    tag_84:\n        /* \"day6/Market.sol\":2073:2087  orderofId[_id] */\n      0x00\n      dup2\n      dup2\n      mstore\n        /* \"day6/Market.sol\":2073:2082  orderofId */\n      0x02\n        /* \"day6/Market.sol\":2073:2087  orderofId[_id] */\n      0x20\n      dup2\n      dup2\n      mstore\n      0x40\n      dup1\n      dup5\n      keccak256\n        /* \"day6/Market.sol\":2066:2087  delete orderofId[_id] */\n      dup1\n      sload\n      not(sub(shl(0xa0, 0x01), 0x01))\n      and\n      dup2\n      sstore\n      0x01\n      dup2\n      add\n      dup6\n      swap1\n      sstore\n      swap1\n      swap3\n      add\n      dup4\n      swap1\n      sstore\n        /* \"day6/Market.sol\":2105:2119  idToOrderIndex */\n      0x03\n        /* \"day6/Market.sol\":2105:2124  idToOrderIndex[_id] */\n      dup2\n      mstore\n      dup2\n      dup4\n      keccak256\n        /* \"day6/Market.sol\":2098:2124  delete idToOrderIndex[_id] */\n      swap3\n      swap1\n      swap3\n      sstore\n        /* \"day6/Market.sol\":2142:2158  cancelOrder(_id) */\n      mload\n        /* \"#utility.yul\":3503:3528   */\n      dup3\n      dup2\n      mstore\n        /* \"day6/Market.sol\":2142:2158  cancelOrder(_id) */\n      0x514fcac7bebb46f0de48634659b1bf29bbb864f5db67e9070672ed508989394e\n      swap2\n        /* \"#utility.yul\":3476:3494   */\n      add\n        /* \"day6/Market.sol\":2142:2158  cancelOrder(_id) */\n      mload(0x40)\n      dup1\n      swap2\n      sub\n      swap1\n      log1\n        /* \"day6/Market.sol\":1838:2168  function CancelOrder(uint256 _id) external {... */\n      pop\n      jump\t// out\n        /* \"day6/Market.sol\":445:466  Order[] public orders */\n    tag_35:\n      0x04\n      dup2\n      dup2\n      sload\n      dup2\n      lt\n      tag_87\n      jumpi\n      0x00\n      dup1\n      revert\n    tag_87:\n      0x00\n      swap2\n      dup3\n      mstore\n      0x20\n      swap1\n      swap2\n      keccak256\n      0x03\n      swap1\n      swap2\n      mul\n      add\n      dup1\n      sload\n      0x01\n      dup3\n      add\n      sload\n      0x02\n      swap1\n      swap3\n      add\n      sload\n      sub(shl(0xa0, 0x01), 0x01)\n      swap1\n      swap2\n      and\n      swap3\n      pop\n      dup4\n      jump\t// out\n        /* \"day6/Market.sol\":3389:3811  function toUint256(... */\n    tag_41:\n        /* \"day6/Market.sol\":3491:3498  uint256 */\n      0x00\n        /* \"day6/Market.sol\":3534:3540  _start */\n      dup2\n        /* \"day6/Market.sol\":3519:3530  _start + 32 */\n      tag_90\n        /* \"day6/Market.sol\":3534:3540  _start */\n      dup2\n        /* \"day6/Market.sol\":3528:3530  32 */\n      0x20\n        /* \"day6/Market.sol\":3519:3530  _start + 32 */\n      tag_91\n      jump\t// in\n    tag_90:\n        /* \"day6/Market.sol\":3519:3540  _start + 32 >= _start */\n      lt\n      iszero\n        /* \"day6/Market.sol\":3511:3571  require(_start + 32 >= _start, \"Market: toUint256_overflow\") */\n      tag_92\n      jumpi\n      mload(0x40)\n      shl(0xe5, 0x461bcd)\n      dup2\n      mstore\n        /* \"#utility.yul\":6654:6656   */\n      0x20\n        /* \"day6/Market.sol\":3511:3571  require(_start + 32 >= _start, \"Market: toUint256_overflow\") */\n      0x04\n      dup3\n      add\n        /* \"#utility.yul\":6636:6657   */\n      mstore\n        /* \"#utility.yul\":6693:6695   */\n      0x1a\n        /* \"#utility.yul\":6673:6691   */\n      0x24\n      dup3\n      add\n        /* \"#utility.yul\":6666:6696   */\n      mstore\n        /* \"#utility.yul\":6732:6760   */\n      0x4d61726b65743a20746f55696e743235365f6f766572666c6f77000000000000\n        /* \"#utility.yul\":6712:6730   */\n      0x44\n      dup3\n      add\n        /* \"#utility.yul\":6705:6761   */\n      mstore\n        /* \"#utility.yul\":6778:6796   */\n      0x64\n      add\n        /* \"day6/Market.sol\":3511:3571  require(_start + 32 >= _start, \"Market: toUint256_overflow\") */\n      tag_67\n        /* \"#utility.yul\":6452:6802   */\n      jump\n        /* \"day6/Market.sol\":3511:3571  require(_start + 32 >= _start, \"Market: toUint256_overflow\") */\n    tag_92:\n        /* \"day6/Market.sol\":3607:3618  _start + 32 */\n      tag_95\n        /* \"day6/Market.sol\":3607:3613  _start */\n      dup3\n        /* \"day6/Market.sol\":3616:3618  32 */\n      0x20\n        /* \"day6/Market.sol\":3607:3618  _start + 32 */\n      tag_91\n      jump\t// in\n    tag_95:\n        /* \"day6/Market.sol\":3590:3596  _bytes */\n      dup4\n        /* \"day6/Market.sol\":3590:3603  _bytes.length */\n      mload\n        /* \"day6/Market.sol\":3590:3618  _bytes.length >= _start + 32 */\n      lt\n      iszero\n        /* \"day6/Market.sol\":3582:3652  require(_bytes.length >= _start + 32, \"Market: toUint256_outOfBounds\") */\n      tag_96\n      jumpi\n      mload(0x40)\n      shl(0xe5, 0x461bcd)\n      dup2\n      mstore\n        /* \"#utility.yul\":7009:7011   */\n      0x20\n        /* \"day6/Market.sol\":3582:3652  require(_bytes.length >= _start + 32, \"Market: toUint256_outOfBounds\") */\n      0x04\n      dup3\n      add\n        /* \"#utility.yul\":6991:7012   */\n      mstore\n        /* \"#utility.yul\":7048:7050   */\n      0x1d\n        /* \"#utility.yul\":7028:7046   */\n      0x24\n      dup3\n      add\n        /* \"#utility.yul\":7021:7051   */\n      mstore\n        /* \"#utility.yul\":7087:7118   */\n      0x4d61726b65743a20746f55696e743235365f6f75744f66426f756e6473000000\n        /* \"#utility.yul\":7067:7085   */\n      0x44\n      dup3\n      add\n        /* \"#utility.yul\":7060:7119   */\n      mstore\n        /* \"#utility.yul\":7136:7154   */\n      0x64\n      add\n        /* \"day6/Market.sol\":3582:3652  require(_bytes.length >= _start + 32, \"Market: toUint256_outOfBounds\") */\n      tag_67\n        /* \"#utility.yul\":6807:7160   */\n      jump\n        /* \"day6/Market.sol\":3582:3652  require(_bytes.length >= _start + 32, \"Market: toUint256_outOfBounds\") */\n    tag_96:\n      pop\n        /* \"day6/Market.sol\":3734:3764  add(add(_bytes, 0x20), _start) */\n      dup2\n      dup2\n      add\n        /* \"day6/Market.sol\":3750:3754  0x20 */\n      0x20\n        /* \"day6/Market.sol\":3734:3764  add(add(_bytes, 0x20), _start) */\n      add\n        /* \"day6/Market.sol\":3728:3765  mload(add(add(_bytes, 0x20), _start)) */\n      mload\n        /* \"day6/Market.sol\":3389:3811  function toUint256(... */\n    tag_89:\n      swap3\n      swap2\n      pop\n      pop\n      jump\t// out\n        /* \"day6/Market.sol\":928:1430  function buy(uint256 _id) external {... */\n    tag_50:\n        /* \"day6/Market.sol\":1015:1016  0 */\n      0x00\n        /* \"day6/Market.sol\":982:996  orderofId[_id] */\n      dup2\n      dup2\n      mstore\n        /* \"day6/Market.sol\":982:991  orderofId */\n      0x02\n        /* \"day6/Market.sol\":982:996  orderofId[_id] */\n      0x20\n      mstore\n      0x40\n      swap1\n      keccak256\n        /* \"day6/Market.sol\":982:1003  orderofId[_id].seller */\n      sload\n      sub(shl(0xa0, 0x01), 0x01)\n      and\n        /* \"day6/Market.sol\":974:1042  require(orderofId[_id].seller != address(0),\"Product not available\") */\n      tag_100\n      jumpi\n      mload(0x40)\n      shl(0xe5, 0x461bcd)\n      dup2\n      mstore\n      0x04\n      add\n      tag_67\n      swap1\n      tag_75\n      jump\t// in\n    tag_100:\n        /* \"day6/Market.sol\":1053:1071  Order memory order */\n      0x00\n        /* \"day6/Market.sol\":1074:1088  orderofId[_id] */\n      dup2\n      dup2\n      mstore\n        /* \"day6/Market.sol\":1074:1083  orderofId */\n      0x02\n        /* \"day6/Market.sol\":1074:1088  orderofId[_id] */\n      0x20\n      dup2\n      dup2\n      mstore\n      0x40\n      swap3\n      dup4\n      swap1\n      keccak256\n        /* \"day6/Market.sol\":1053:1088  Order memory order = orderofId[_id] */\n      dup4\n      mload\n      0x60\n      dup2\n      add\n      dup6\n      mstore\n      dup2\n      sload\n      sub(shl(0xa0, 0x01), 0x01)\n      swap1\n      dup2\n      and\n      dup1\n      dup4\n      mstore\n      0x01\n      dup1\n      dup6\n      add\n      sload\n      swap6\n      dup5\n      add\n      swap6\n      swap1\n      swap6\n      mstore\n      swap3\n      swap1\n      swap5\n      add\n      sload\n      dup2\n      dup7\n      add\n      dup2\n      swap1\n      mstore\n        /* \"day6/Market.sol\":1215:1220  erc20 */\n      swap3\n      sload\n        /* \"day6/Market.sol\":1215:1253  erc20.transferFrom(buyer,seller,price) */\n      swap5\n      mload\n      shl(0xe0, 0x23b872dd)\n      dup2\n      mstore\n        /* \"day6/Market.sol\":1192:1202  msg.sender */\n      caller\n        /* \"day6/Market.sol\":1215:1253  erc20.transferFrom(buyer,seller,price) */\n      0x04\n      dup3\n      add\n        /* \"#utility.yul\":7405:7439   */\n      dup2\n      swap1\n      mstore\n        /* \"#utility.yul\":7455:7473   */\n      0x24\n      dup3\n      add\n        /* \"#utility.yul\":7448:7491   */\n      dup5\n      swap1\n      mstore\n        /* \"#utility.yul\":7507:7525   */\n      0x44\n      dup3\n      add\n        /* \"#utility.yul\":7500:7534   */\n      dup6\n      swap1\n      mstore\n        /* \"day6/Market.sol\":1053:1088  Order memory order = orderofId[_id] */\n      swap2\n      swap6\n      swap4\n      swap5\n      swap3\n      swap4\n        /* \"day6/Market.sol\":1192:1202  msg.sender */\n      swap2\n      swap3\n        /* \"day6/Market.sol\":1215:1220  erc20 */\n      swap2\n      swap1\n      swap2\n      and\n      swap1\n        /* \"day6/Market.sol\":1215:1233  erc20.transferFrom */\n      0x23b872dd\n      swap1\n        /* \"#utility.yul\":7340:7358   */\n      0x64\n      add\n        /* \"day6/Market.sol\":1215:1253  erc20.transferFrom(buyer,seller,price) */\n      0x20\n      mload(0x40)\n      dup1\n      dup4\n      sub\n      dup2\n      0x00\n      dup8\n      gas\n      call\n      iszero\n      dup1\n      iszero\n      tag_105\n      jumpi\n      returndatasize\n      0x00\n      dup1\n      returndatacopy\n      revert(0x00, returndatasize)\n    tag_105:\n      pop\n      pop\n      pop\n      pop\n      mload(0x40)\n      returndatasize\n      not(0x1f)\n      0x1f\n      dup3\n      add\n      and\n      dup3\n      add\n      dup1\n      0x40\n      mstore\n      pop\n      dup2\n      add\n      swap1\n      tag_106\n      swap2\n      swap1\n      tag_107\n      jump\t// in\n    tag_106:\n      pop\n        /* \"day6/Market.sol\":1266:1272  erc721 */\n      sload(0x00)\n        /* \"day6/Market.sol\":1266:1307  erc721.safeTransferFrom(seller,buyer,_id) */\n      mload(0x40)\n      shl(0xe1, 0x21421707)\n      dup2\n      mstore\n      sub(shl(0xa0, 0x01), 0x01)\n        /* \"#utility.yul\":7423:7438   */\n      dup5\n      dup2\n      and\n        /* \"day6/Market.sol\":1266:1307  erc721.safeTransferFrom(seller,buyer,_id) */\n      0x04\n      dup4\n      add\n        /* \"#utility.yul\":7405:7439   */\n      mstore\n        /* \"#utility.yul\":7475:7490   */\n      dup4\n      dup2\n      and\n        /* \"#utility.yul\":7455:7473   */\n      0x24\n      dup4\n      add\n        /* \"#utility.yul\":7448:7491   */\n      mstore\n        /* \"#utility.yul\":7507:7525   */\n      0x44\n      dup3\n      add\n        /* \"#utility.yul\":7500:7534   */\n      dup9\n      swap1\n      mstore\n        /* \"day6/Market.sol\":1266:1272  erc721 */\n      swap1\n      swap2\n      and\n      swap1\n        /* \"day6/Market.sol\":1266:1289  erc721.safeTransferFrom */\n      0x42842e0e\n      swap1\n        /* \"#utility.yul\":7340:7358   */\n      0x64\n      add\n        /* \"day6/Market.sol\":1266:1307  erc721.safeTransferFrom(seller,buyer,_id) */\n      0x00\n      mload(0x40)\n      dup1\n      dup4\n      sub\n      dup2\n      0x00\n      dup8\n      dup1\n      extcodesize\n      iszero\n      dup1\n      iszero\n      tag_109\n      jumpi\n      0x00\n      dup1\n      revert\n    tag_109:\n      pop\n      gas\n      call\n      iszero\n      dup1\n      iszero\n      tag_111\n      jumpi\n      returndatasize\n      0x00\n      dup1\n      returndatacopy\n      revert(0x00, returndatasize)\n    tag_111:\n      pop\n      pop\n      pop\n        /* \"day6/Market.sol\":1325:1339  orderofId[_id] */\n      0x00\n      dup7\n      dup2\n      mstore\n        /* \"day6/Market.sol\":1325:1334  orderofId */\n      0x02\n        /* \"day6/Market.sol\":1325:1339  orderofId[_id] */\n      0x20\n      dup2\n      dup2\n      mstore\n      0x40\n      dup1\n      dup5\n      keccak256\n        /* \"day6/Market.sol\":1318:1339  delete orderofId[_id] */\n      dup1\n      sload\n      not(sub(shl(0xa0, 0x01), 0x01))\n      and\n      dup2\n      sstore\n      0x01\n      dup2\n      add\n      dup6\n      swap1\n      sstore\n      swap1\n      swap3\n      add\n      dup4\n      swap1\n      sstore\n        /* \"day6/Market.sol\":1357:1371  idToOrderIndex */\n      0x03\n        /* \"day6/Market.sol\":1357:1376  idToOrderIndex[_id] */\n      dup2\n      mstore\n      dup2\n      dup4\n      keccak256\n        /* \"day6/Market.sol\":1350:1376  delete idToOrderIndex[_id] */\n      swap3\n      swap1\n      swap3\n      sstore\n        /* \"day6/Market.sol\":1394:1422  Deal(seller,buyer,_id,price) */\n      dup1\n      mload\n      sub(shl(0xa0, 0x01), 0x01)\n        /* \"#utility.yul\":8114:8129   */\n      dup1\n      dup8\n      and\n        /* \"#utility.yul\":8096:8130   */\n      dup3\n      mstore\n        /* \"#utility.yul\":8166:8181   */\n      dup6\n      and\n        /* \"#utility.yul\":8146:8164   */\n      swap3\n      dup2\n      add\n        /* \"#utility.yul\":8139:8182   */\n      swap3\n      swap1\n      swap3\n      mstore\n        /* \"#utility.yul\":8198:8216   */\n      dup2\n      add\n        /* \"#utility.yul\":8191:8225   */\n      dup8\n      swap1\n      mstore\n        /* \"#utility.yul\":8256:8258   */\n      0x60\n        /* \"#utility.yul\":8241:8259   */\n      dup2\n      add\n        /* \"#utility.yul\":8234:8268   */\n      dup6\n      swap1\n      mstore\n        /* \"day6/Market.sol\":1394:1422  Deal(seller,buyer,_id,price) */\n      0x424d5e5f0192c7dacdbe646ca31b00299146d883d76a95ef5cddbac7cd342eab\n      swap2\n      pop\n        /* \"#utility.yul\":8045:8048   */\n      0x80\n        /* \"#utility.yul\":8030:8049   */\n      add\n        /* \"day6/Market.sol\":1394:1422  Deal(seller,buyer,_id,price) */\n      mload(0x40)\n      dup1\n      swap2\n      sub\n      swap1\n      log1\n        /* \"day6/Market.sol\":963:1430  {... */\n      pop\n      pop\n      pop\n      pop\n        /* \"day6/Market.sol\":928:1430  function buy(uint256 _id) external {... */\n      pop\n      jump\t// out\n        /* \"day6/Market.sol\":2176:2694  function getMyNFT(address account) external view returns(Order[] memory){... */\n    tag_58:\n        /* \"day6/Market.sol\":2294:2300  orders */\n      0x04\n        /* \"day6/Market.sol\":2294:2307  orders.length */\n      sload\n        /* \"day6/Market.sol\":2233:2247  Order[] memory */\n      0x60\n      swap1\n        /* \"day6/Market.sol\":2259:2279  Order[] memory myNFT */\n      0x00\n      swap1\n        /* \"day6/Market.sol\":2282:2308  new Order[](orders.length) */\n      0xffffffffffffffff\n      dup2\n      gt\n      iszero\n      tag_116\n      jumpi\n      tag_116\n      tag_117\n      jump\t// in\n    tag_116:\n      mload(0x40)\n      swap1\n      dup1\n      dup3\n      mstore\n      dup1\n      0x20\n      mul\n      0x20\n      add\n      dup3\n      add\n      0x40\n      mstore\n      dup1\n      iszero\n      tag_118\n      jumpi\n      dup2\n      0x20\n      add\n    tag_119:\n      tag_120\n      mload(0x40)\n      dup1\n      0x60\n      add\n      0x40\n      mstore\n      dup1\n      and(sub(shl(0xa0, 0x01), 0x01), 0x00)\n      dup2\n      mstore\n      0x20\n      add\n      0x00\n      dup2\n      mstore\n      0x20\n      add\n      0x00\n      dup2\n      mstore\n      pop\n      swap1\n      jump\n    tag_120:\n      dup2\n      mstore\n      0x20\n      add\n      swap1\n      0x01\n      swap1\n      sub\n      swap1\n      dup2\n      tag_119\n      jumpi\n      swap1\n      pop\n    tag_118:\n      pop\n        /* \"day6/Market.sol\":2259:2308  Order[] memory myNFT = new Order[](orders.length) */\n      swap1\n      pop\n        /* \"day6/Market.sol\":2319:2332  uint256 count */\n      0x00\n        /* \"day6/Market.sol\":2351:2360  uint256 i */\n      dup1\n        /* \"day6/Market.sol\":2347:2525  for(uint256 i=0;i<orders.length;i++){... */\n    tag_122:\n        /* \"day6/Market.sol\":2365:2371  orders */\n      0x04\n        /* \"day6/Market.sol\":2365:2378  orders.length */\n      sload\n        /* \"day6/Market.sol\":2363:2378  i<orders.length */\n      dup2\n      lt\n        /* \"day6/Market.sol\":2347:2525  for(uint256 i=0;i<orders.length;i++){... */\n      iszero\n      tag_123\n      jumpi\n        /* \"day6/Market.sol\":2421:2428  account */\n      dup5\n      sub(shl(0xa0, 0x01), 0x01)\n        /* \"day6/Market.sol\":2401:2428  orders[i].seller == account */\n      and\n        /* \"day6/Market.sol\":2401:2407  orders */\n      0x04\n        /* \"day6/Market.sol\":2408:2409  i */\n      dup3\n        /* \"day6/Market.sol\":2401:2410  orders[i] */\n      dup2\n      sload\n      dup2\n      lt\n      tag_126\n      jumpi\n      tag_126\n      tag_127\n      jump\t// in\n    tag_126:\n      0x00\n      swap2\n      dup3\n      mstore\n      0x20\n      swap1\n      swap2\n      keccak256\n      0x03\n      swap1\n      swap2\n      mul\n      add\n        /* \"day6/Market.sol\":2401:2417  orders[i].seller */\n      sload\n      sub(shl(0xa0, 0x01), 0x01)\n      and\n        /* \"day6/Market.sol\":2401:2428  orders[i].seller == account */\n      sub\n        /* \"day6/Market.sol\":2398:2514  if(orders[i].seller == account){... */\n      tag_129\n      jumpi\n        /* \"day6/Market.sol\":2463:2469  orders */\n      0x04\n        /* \"day6/Market.sol\":2470:2471  i */\n      dup2\n        /* \"day6/Market.sol\":2463:2472  orders[i] */\n      dup2\n      sload\n      dup2\n      lt\n      tag_131\n      jumpi\n      tag_131\n      tag_127\n      jump\t// in\n    tag_131:\n      0x00\n      swap2\n      dup3\n      mstore\n      0x20\n      swap2\n      dup3\n      swap1\n      keccak256\n        /* \"day6/Market.sol\":2448:2472  myNFT[count] = orders[i] */\n      0x40\n      dup1\n      mload\n      0x60\n      dup2\n      add\n      dup3\n      mstore\n        /* \"day6/Market.sol\":2463:2472  orders[i] */\n      0x03\n      swap1\n      swap4\n      mul\n      swap1\n      swap2\n      add\n        /* \"day6/Market.sol\":2448:2472  myNFT[count] = orders[i] */\n      dup1\n      sload\n      sub(shl(0xa0, 0x01), 0x01)\n      and\n      dup4\n      mstore\n      0x01\n      dup2\n      add\n      sload\n      swap4\n      dup4\n      add\n      swap4\n      swap1\n      swap4\n      mstore\n      0x02\n      swap1\n      swap3\n      add\n      sload\n      swap2\n      dup2\n      add\n      swap2\n      swap1\n      swap2\n      mstore\n        /* \"day6/Market.sol\":2448:2460  myNFT[count] */\n      dup4\n      mload\n        /* \"day6/Market.sol\":2448:2453  myNFT */\n      dup5\n      swap1\n        /* \"day6/Market.sol\":2454:2459  count */\n      dup5\n      swap1\n        /* \"day6/Market.sol\":2448:2460  myNFT[count] */\n      dup2\n      lt\n      tag_134\n      jumpi\n      tag_134\n      tag_127\n      jump\t// in\n    tag_134:\n      0x20\n      mul\n      0x20\n      add\n      add\n        /* \"day6/Market.sol\":2448:2472  myNFT[count] = orders[i] */\n      dup2\n      swap1\n      mstore\n      pop\n        /* \"day6/Market.sol\":2491:2498  count++ */\n      dup2\n      dup1\n      tag_135\n      swap1\n      tag_136\n      jump\t// in\n    tag_135:\n      swap3\n      pop\n      pop\n        /* \"day6/Market.sol\":2398:2514  if(orders[i].seller == account){... */\n    tag_129:\n        /* \"day6/Market.sol\":2379:2382  i++ */\n      0x01\n      add\n        /* \"day6/Market.sol\":2347:2525  for(uint256 i=0;i<orders.length;i++){... */\n      jump(tag_122)\n    tag_123:\n      pop\n        /* \"day6/Market.sol\":2535:2556  Order[] memory result */\n      0x00\n        /* \"day6/Market.sol\":2571:2576  count */\n      dup2\n        /* \"day6/Market.sol\":2559:2577  new Order[](count) */\n      0xffffffffffffffff\n      dup2\n      gt\n      iszero\n      tag_138\n      jumpi\n      tag_138\n      tag_117\n      jump\t// in\n    tag_138:\n      mload(0x40)\n      swap1\n      dup1\n      dup3\n      mstore\n      dup1\n      0x20\n      mul\n      0x20\n      add\n      dup3\n      add\n      0x40\n      mstore\n      dup1\n      iszero\n      tag_139\n      jumpi\n      dup2\n      0x20\n      add\n    tag_140:\n      tag_141\n      mload(0x40)\n      dup1\n      0x60\n      add\n      0x40\n      mstore\n      dup1\n      and(sub(shl(0xa0, 0x01), 0x01), 0x00)\n      dup2\n      mstore\n      0x20\n      add\n      0x00\n      dup2\n      mstore\n      0x20\n      add\n      0x00\n      dup2\n      mstore\n      pop\n      swap1\n      jump\n    tag_141:\n      dup2\n      mstore\n      0x20\n      add\n      swap1\n      0x01\n      swap1\n      sub\n      swap1\n      dup2\n      tag_140\n      jumpi\n      swap1\n      pop\n    tag_139:\n      pop\n        /* \"day6/Market.sol\":2535:2577  Order[] memory result = new Order[](count) */\n      swap1\n      pop\n        /* \"day6/Market.sol\":2592:2601  uint256 i */\n      0x00\n        /* \"day6/Market.sol\":2588:2663  for(uint256 i=0;i<count;i++){... */\n    tag_142:\n        /* \"day6/Market.sol\":2606:2611  count */\n      dup3\n        /* \"day6/Market.sol\":2604:2605  i */\n      dup2\n        /* \"day6/Market.sol\":2604:2611  i<count */\n      lt\n        /* \"day6/Market.sol\":2588:2663  for(uint256 i=0;i<count;i++){... */\n      iszero\n      tag_143\n      jumpi\n        /* \"day6/Market.sol\":2643:2648  myNFT */\n      dup4\n        /* \"day6/Market.sol\":2649:2650  i */\n      dup2\n        /* \"day6/Market.sol\":2643:2651  myNFT[i] */\n      dup2\n      mload\n      dup2\n      lt\n      tag_146\n      jumpi\n      tag_146\n      tag_127\n      jump\t// in\n    tag_146:\n      0x20\n      mul\n      0x20\n      add\n      add\n      mload\n        /* \"day6/Market.sol\":2631:2637  result */\n      dup3\n        /* \"day6/Market.sol\":2638:2639  i */\n      dup3\n        /* \"day6/Market.sol\":2631:2640  result[i] */\n      dup2\n      mload\n      dup2\n      lt\n      tag_148\n      jumpi\n      tag_148\n      tag_127\n      jump\t// in\n    tag_148:\n      0x20\n      swap1\n      dup2\n      mul\n      swap2\n      swap1\n      swap2\n      add\n      add\n        /* \"day6/Market.sol\":2631:2651  result[i] = myNFT[i] */\n      mstore\n        /* \"day6/Market.sol\":2612:2615  i++ */\n      0x01\n      add\n        /* \"day6/Market.sol\":2588:2663  for(uint256 i=0;i<count;i++){... */\n      jump(tag_142)\n    tag_143:\n      pop\n        /* \"day6/Market.sol\":2680:2686  result */\n      swap5\n        /* \"day6/Market.sol\":2176:2694  function getMyNFT(address account) external view returns(Order[] memory){... */\n      swap4\n      pop\n      pop\n      pop\n      pop\n      jump\t// out\n        /* \"day6/Market.sol\":2706:2949  function placeOrder(address seller,uint256 id,uint256 price) internal {... */\n    tag_71:\n        /* \"day6/Market.sol\":2808:2830  Order(seller,id,price) */\n      0x40\n      dup1\n      mload\n      0x60\n      dup2\n      add\n      dup3\n      mstore\n      sub(shl(0xa0, 0x01), 0x01)\n      dup1\n      dup7\n      and\n      dup3\n      mstore\n      0x20\n      dup1\n      dup4\n      add\n      dup7\n      dup2\n      mstore\n      dup4\n      dup6\n      add\n      dup7\n      dup2\n      mstore\n        /* \"day6/Market.sol\":2841:2847  orders */\n      0x04\n        /* \"day6/Market.sol\":2841:2859  orders.push(order) */\n      dup1\n      sload\n      0x01\n      dup2\n      dup2\n      add\n      dup4\n      sstore\n        /* \"day6/Market.sol\":2787:2805  Order memory order */\n      0x00\n        /* \"day6/Market.sol\":2841:2859  orders.push(order) */\n      dup4\n      dup2\n      mstore\n      dup9\n      mload\n      0x03\n      swap1\n      swap4\n      mul\n      0x8a35acfbc15ff81a39ae7d344fd709f28e8600b4aa8c65c6b64bfe7fe36bd19b\n      dup2\n      add\n      dup1\n      sload\n      swap5\n      dup11\n      and\n      not(sub(shl(0xa0, 0x01), 0x01))\n      swap6\n      dup7\n      and\n      or\n      swap1\n      sstore\n      dup7\n      mload\n      0x8a35acfbc15ff81a39ae7d344fd709f28e8600b4aa8c65c6b64bfe7fe36bd19c\n      dup3\n      add\n      sstore\n      dup6\n      mload\n      0x8a35acfbc15ff81a39ae7d344fd709f28e8600b4aa8c65c6b64bfe7fe36bd19d\n      swap1\n      swap2\n      add\n      sstore\n        /* \"day6/Market.sol\":2870:2883  orderofId[id] */\n      dup12\n      dup2\n      mstore\n        /* \"day6/Market.sol\":2841:2859  orders.push(order) */\n      0x02\n        /* \"day6/Market.sol\":2870:2883  orderofId[id] */\n      swap7\n      dup8\n      swap1\n      mstore\n      swap9\n      swap1\n      swap9\n      keccak256\n        /* \"day6/Market.sol\":2870:2891  orderofId[id] = order */\n      dup8\n      mload\n      dup2\n      sload\n      swap8\n      and\n      swap7\n      swap1\n      swap2\n      and\n      swap6\n      swap1\n      swap6\n      or\n      dup6\n      sstore\n      swap2\n      mload\n      dup5\n      dup8\n      add\n      sstore\n      mload\n      swap3\n      swap1\n      swap2\n      add\n      swap2\n      swap1\n      swap2\n      sstore\n        /* \"day6/Market.sol\":2924:2937  orders.length */\n      sload\n        /* \"day6/Market.sol\":2808:2830  Order(seller,id,price) */\n      swap1\n      swap2\n        /* \"day6/Market.sol\":2924:2939  orders.length-1 */\n      tag_151\n      swap2\n      tag_152\n      jump\t// in\n    tag_151:\n        /* \"day6/Market.sol\":2904:2922  idToOrderIndex[id] */\n      0x00\n      swap4\n      dup5\n      mstore\n        /* \"day6/Market.sol\":2904:2918  idToOrderIndex */\n      0x03\n        /* \"day6/Market.sol\":2904:2922  idToOrderIndex[id] */\n      0x20\n      mstore\n      0x40\n      swap1\n      swap4\n      keccak256\n        /* \"day6/Market.sol\":2904:2939  idToOrderIndex[id]= orders.length-1 */\n      swap3\n      swap1\n      swap3\n      sstore\n      pop\n      pop\n      pop\n        /* \"day6/Market.sol\":2706:2949  function placeOrder(address seller,uint256 id,uint256 price) internal {... */\n      jump\t// out\n        /* \"#utility.yul\":14:187   */\n    tag_153:\n        /* \"#utility.yul\":82:102   */\n      dup1\n      calldataload\n      sub(shl(0xa0, 0x01), 0x01)\n        /* \"#utility.yul\":131:162   */\n      dup2\n      and\n        /* \"#utility.yul\":121:163   */\n      dup2\n      eq\n        /* \"#utility.yul\":111:181   */\n      tag_157\n      jumpi\n        /* \"#utility.yul\":177:178   */\n      0x00\n        /* \"#utility.yul\":174:175   */\n      dup1\n        /* \"#utility.yul\":167:179   */\n      revert\n        /* \"#utility.yul\":111:181   */\n    tag_157:\n        /* \"#utility.yul\":14:187   */\n      swap2\n      swap1\n      pop\n      jump\t// out\n        /* \"#utility.yul\":192:1000   */\n    tag_17:\n        /* \"#utility.yul\":289:295   */\n      0x00\n        /* \"#utility.yul\":297:303   */\n      dup1\n        /* \"#utility.yul\":305:311   */\n      0x00\n        /* \"#utility.yul\":313:319   */\n      dup1\n        /* \"#utility.yul\":321:327   */\n      0x00\n        /* \"#utility.yul\":374:377   */\n      0x80\n        /* \"#utility.yul\":362:371   */\n      dup7\n        /* \"#utility.yul\":353:360   */\n      dup9\n        /* \"#utility.yul\":349:372   */\n      sub\n        /* \"#utility.yul\":345:378   */\n      slt\n        /* \"#utility.yul\":342:395   */\n      iszero\n      tag_159\n      jumpi\n        /* \"#utility.yul\":391:392   */\n      0x00\n        /* \"#utility.yul\":388:389   */\n      dup1\n        /* \"#utility.yul\":381:393   */\n      revert\n        /* \"#utility.yul\":342:395   */\n    tag_159:\n        /* \"#utility.yul\":414:443   */\n      tag_160\n        /* \"#utility.yul\":433:442   */\n      dup7\n        /* \"#utility.yul\":414:443   */\n      tag_153\n      jump\t// in\n    tag_160:\n        /* \"#utility.yul\":404:443   */\n      swap5\n      pop\n        /* \"#utility.yul\":462:500   */\n      tag_161\n        /* \"#utility.yul\":496:498   */\n      0x20\n        /* \"#utility.yul\":485:494   */\n      dup8\n        /* \"#utility.yul\":481:499   */\n      add\n        /* \"#utility.yul\":462:500   */\n      tag_153\n      jump\t// in\n    tag_161:\n        /* \"#utility.yul\":452:500   */\n      swap4\n      pop\n        /* \"#utility.yul\":547:549   */\n      0x40\n        /* \"#utility.yul\":536:545   */\n      dup7\n        /* \"#utility.yul\":532:550   */\n      add\n        /* \"#utility.yul\":519:551   */\n      calldataload\n        /* \"#utility.yul\":509:551   */\n      swap3\n      pop\n        /* \"#utility.yul\":602:604   */\n      0x60\n        /* \"#utility.yul\":591:600   */\n      dup7\n        /* \"#utility.yul\":587:605   */\n      add\n        /* \"#utility.yul\":574:606   */\n      calldataload\n        /* \"#utility.yul\":625:643   */\n      0xffffffffffffffff\n        /* \"#utility.yul\":666:668   */\n      dup1\n        /* \"#utility.yul\":658:664   */\n      dup3\n        /* \"#utility.yul\":655:669   */\n      gt\n        /* \"#utility.yul\":652:686   */\n      iszero\n      tag_162\n      jumpi\n        /* \"#utility.yul\":682:683   */\n      0x00\n        /* \"#utility.yul\":679:680   */\n      dup1\n        /* \"#utility.yul\":672:684   */\n      revert\n        /* \"#utility.yul\":652:686   */\n    tag_162:\n        /* \"#utility.yul\":720:726   */\n      dup2\n        /* \"#utility.yul\":709:718   */\n      dup9\n        /* \"#utility.yul\":705:727   */\n      add\n        /* \"#utility.yul\":695:727   */\n      swap2\n      pop\n        /* \"#utility.yul\":765:772   */\n      dup9\n        /* \"#utility.yul\":758:762   */\n      0x1f\n        /* \"#utility.yul\":754:756   */\n      dup4\n        /* \"#utility.yul\":750:763   */\n      add\n        /* \"#utility.yul\":746:773   */\n      slt\n        /* \"#utility.yul\":736:791   */\n      tag_163\n      jumpi\n        /* \"#utility.yul\":787:788   */\n      0x00\n        /* \"#utility.yul\":784:785   */\n      dup1\n        /* \"#utility.yul\":777:789   */\n      revert\n        /* \"#utility.yul\":736:791   */\n    tag_163:\n        /* \"#utility.yul\":827:829   */\n      dup2\n        /* \"#utility.yul\":814:830   */\n      calldataload\n        /* \"#utility.yul\":853:855   */\n      dup2\n        /* \"#utility.yul\":845:851   */\n      dup2\n        /* \"#utility.yul\":842:856   */\n      gt\n        /* \"#utility.yul\":839:873   */\n      iszero\n      tag_164\n      jumpi\n        /* \"#utility.yul\":869:870   */\n      0x00\n        /* \"#utility.yul\":866:867   */\n      dup1\n        /* \"#utility.yul\":859:871   */\n      revert\n        /* \"#utility.yul\":839:873   */\n    tag_164:\n        /* \"#utility.yul\":914:921   */\n      dup10\n        /* \"#utility.yul\":909:911   */\n      0x20\n        /* \"#utility.yul\":900:906   */\n      dup3\n        /* \"#utility.yul\":896:898   */\n      dup6\n        /* \"#utility.yul\":892:907   */\n      add\n        /* \"#utility.yul\":888:912   */\n      add\n        /* \"#utility.yul\":885:922   */\n      gt\n        /* \"#utility.yul\":882:939   */\n      iszero\n      tag_165\n      jumpi\n        /* \"#utility.yul\":935:936   */\n      0x00\n        /* \"#utility.yul\":932:933   */\n      dup1\n        /* \"#utility.yul\":925:937   */\n      revert\n        /* \"#utility.yul\":882:939   */\n    tag_165:\n        /* \"#utility.yul\":192:1000   */\n      swap7\n      swap10\n      swap6\n      swap9\n      pop\n      swap4\n      swap7\n      pop\n        /* \"#utility.yul\":966:968   */\n      0x20\n        /* \"#utility.yul\":958:969   */\n      add\n      swap5\n        /* \"#utility.yul\":988:994   */\n      swap4\n        /* \"#utility.yul\":192:1000   */\n      swap3\n      pop\n      pop\n      pop\n      jump\t// out\n        /* \"#utility.yul\":1433:1681   */\n    tag_27:\n        /* \"#utility.yul\":1501:1507   */\n      0x00\n        /* \"#utility.yul\":1509:1515   */\n      dup1\n        /* \"#utility.yul\":1562:1564   */\n      0x40\n        /* \"#utility.yul\":1550:1559   */\n      dup4\n        /* \"#utility.yul\":1541:1548   */\n      dup6\n        /* \"#utility.yul\":1537:1560   */\n      sub\n        /* \"#utility.yul\":1533:1565   */\n      slt\n        /* \"#utility.yul\":1530:1582   */\n      iszero\n      tag_169\n      jumpi\n        /* \"#utility.yul\":1578:1579   */\n      0x00\n        /* \"#utility.yul\":1575:1576   */\n      dup1\n        /* \"#utility.yul\":1568:1580   */\n      revert\n        /* \"#utility.yul\":1530:1582   */\n    tag_169:\n      pop\n      pop\n        /* \"#utility.yul\":1601:1624   */\n      dup1\n      calldataload\n      swap3\n        /* \"#utility.yul\":1671:1673   */\n      0x20\n        /* \"#utility.yul\":1656:1674   */\n      swap1\n      swap2\n      add\n        /* \"#utility.yul\":1643:1675   */\n      calldataload\n      swap2\n      pop\n        /* \"#utility.yul\":1433:1681   */\n      jump\t// out\n        /* \"#utility.yul\":1686:1866   */\n    tag_31:\n        /* \"#utility.yul\":1745:1751   */\n      0x00\n        /* \"#utility.yul\":1798:1800   */\n      0x20\n        /* \"#utility.yul\":1786:1795   */\n      dup3\n        /* \"#utility.yul\":1777:1784   */\n      dup5\n        /* \"#utility.yul\":1773:1796   */\n      sub\n        /* \"#utility.yul\":1769:1801   */\n      slt\n        /* \"#utility.yul\":1766:1818   */\n      iszero\n      tag_171\n      jumpi\n        /* \"#utility.yul\":1814:1815   */\n      0x00\n        /* \"#utility.yul\":1811:1812   */\n      dup1\n        /* \"#utility.yul\":1804:1816   */\n      revert\n        /* \"#utility.yul\":1766:1818   */\n    tag_171:\n      pop\n        /* \"#utility.yul\":1837:1860   */\n      calldataload\n      swap2\n        /* \"#utility.yul\":1686:1866   */\n      swap1\n      pop\n      jump\t// out\n        /* \"#utility.yul\":2221:2348   */\n    tag_117:\n        /* \"#utility.yul\":2282:2292   */\n      0x4e487b71\n        /* \"#utility.yul\":2277:2280   */\n      0xe0\n        /* \"#utility.yul\":2273:2293   */\n      shl\n        /* \"#utility.yul\":2270:2271   */\n      0x00\n        /* \"#utility.yul\":2263:2294   */\n      mstore\n        /* \"#utility.yul\":2313:2317   */\n      0x41\n        /* \"#utility.yul\":2310:2311   */\n      0x04\n        /* \"#utility.yul\":2303:2318   */\n      mstore\n        /* \"#utility.yul\":2337:2341   */\n      0x24\n        /* \"#utility.yul\":2334:2335   */\n      0x00\n        /* \"#utility.yul\":2327:2342   */\n      revert\n        /* \"#utility.yul\":2353:3352   */\n    tag_40:\n        /* \"#utility.yul\":2430:2436   */\n      0x00\n        /* \"#utility.yul\":2438:2444   */\n      dup1\n        /* \"#utility.yul\":2491:2493   */\n      0x40\n        /* \"#utility.yul\":2479:2488   */\n      dup4\n        /* \"#utility.yul\":2470:2477   */\n      dup6\n        /* \"#utility.yul\":2466:2489   */\n      sub\n        /* \"#utility.yul\":2462:2494   */\n      slt\n        /* \"#utility.yul\":2459:2511   */\n      iszero\n      tag_175\n      jumpi\n        /* \"#utility.yul\":2507:2508   */\n      0x00\n        /* \"#utility.yul\":2504:2505   */\n      dup1\n        /* \"#utility.yul\":2497:2509   */\n      revert\n        /* \"#utility.yul\":2459:2511   */\n    tag_175:\n        /* \"#utility.yul\":2547:2556   */\n      dup3\n        /* \"#utility.yul\":2534:2557   */\n      calldataload\n        /* \"#utility.yul\":2576:2594   */\n      0xffffffffffffffff\n        /* \"#utility.yul\":2617:2619   */\n      dup1\n        /* \"#utility.yul\":2609:2615   */\n      dup3\n        /* \"#utility.yul\":2606:2620   */\n      gt\n        /* \"#utility.yul\":2603:2637   */\n      iszero\n      tag_176\n      jumpi\n        /* \"#utility.yul\":2633:2634   */\n      0x00\n        /* \"#utility.yul\":2630:2631   */\n      dup1\n        /* \"#utility.yul\":2623:2635   */\n      revert\n        /* \"#utility.yul\":2603:2637   */\n    tag_176:\n        /* \"#utility.yul\":2671:2677   */\n      dup2\n        /* \"#utility.yul\":2660:2669   */\n      dup6\n        /* \"#utility.yul\":2656:2678   */\n      add\n        /* \"#utility.yul\":2646:2678   */\n      swap2\n      pop\n        /* \"#utility.yul\":2716:2723   */\n      dup6\n        /* \"#utility.yul\":2709:2713   */\n      0x1f\n        /* \"#utility.yul\":2705:2707   */\n      dup4\n        /* \"#utility.yul\":2701:2714   */\n      add\n        /* \"#utility.yul\":2697:2724   */\n      slt\n        /* \"#utility.yul\":2687:2742   */\n      tag_177\n      jumpi\n        /* \"#utility.yul\":2738:2739   */\n      0x00\n        /* \"#utility.yul\":2735:2736   */\n      dup1\n        /* \"#utility.yul\":2728:2740   */\n      revert\n        /* \"#utility.yul\":2687:2742   */\n    tag_177:\n        /* \"#utility.yul\":2774:2776   */\n      dup2\n        /* \"#utility.yul\":2761:2777   */\n      calldataload\n        /* \"#utility.yul\":2796:2798   */\n      dup2\n        /* \"#utility.yul\":2792:2794   */\n      dup2\n        /* \"#utility.yul\":2789:2799   */\n      gt\n        /* \"#utility.yul\":2786:2822   */\n      iszero\n      tag_179\n      jumpi\n        /* \"#utility.yul\":2802:2820   */\n      tag_179\n      tag_117\n      jump\t// in\n    tag_179:\n        /* \"#utility.yul\":2877:2879   */\n      0x40\n        /* \"#utility.yul\":2871:2880   */\n      mload\n        /* \"#utility.yul\":2845:2847   */\n      0x1f\n        /* \"#utility.yul\":2931:2944   */\n      dup3\n      add\n      not(0x1f)\n        /* \"#utility.yul\":2927:2949   */\n      swap1\n      dup2\n      and\n        /* \"#utility.yul\":2951:2953   */\n      0x3f\n        /* \"#utility.yul\":2923:2954   */\n      add\n        /* \"#utility.yul\":2919:2959   */\n      and\n        /* \"#utility.yul\":2907:2960   */\n      dup2\n      add\n      swap1\n        /* \"#utility.yul\":2975:2993   */\n      dup4\n      dup3\n      gt\n        /* \"#utility.yul\":2995:3017   */\n      dup2\n      dup4\n      lt\n        /* \"#utility.yul\":2972:3018   */\n      or\n        /* \"#utility.yul\":2969:3041   */\n      iszero\n      tag_181\n      jumpi\n        /* \"#utility.yul\":3021:3039   */\n      tag_181\n      tag_117\n      jump\t// in\n    tag_181:\n        /* \"#utility.yul\":3061:3071   */\n      dup2\n        /* \"#utility.yul\":3057:3059   */\n      0x40\n        /* \"#utility.yul\":3050:3072   */\n      mstore\n        /* \"#utility.yul\":3096:3098   */\n      dup3\n        /* \"#utility.yul\":3088:3094   */\n      dup2\n        /* \"#utility.yul\":3081:3099   */\n      mstore\n        /* \"#utility.yul\":3138:3145   */\n      dup9\n        /* \"#utility.yul\":3131:3135   */\n      0x20\n        /* \"#utility.yul\":3126:3128   */\n      dup5\n        /* \"#utility.yul\":3122:3124   */\n      dup8\n        /* \"#utility.yul\":3118:3129   */\n      add\n        /* \"#utility.yul\":3114:3136   */\n      add\n        /* \"#utility.yul\":3111:3146   */\n      gt\n        /* \"#utility.yul\":3108:3163   */\n      iszero\n      tag_182\n      jumpi\n        /* \"#utility.yul\":3159:3160   */\n      0x00\n        /* \"#utility.yul\":3156:3157   */\n      dup1\n        /* \"#utility.yul\":3149:3161   */\n      revert\n        /* \"#utility.yul\":3108:3163   */\n    tag_182:\n        /* \"#utility.yul\":3219:3221   */\n      dup3\n        /* \"#utility.yul\":3212:3216   */\n      0x20\n        /* \"#utility.yul\":3208:3210   */\n      dup7\n        /* \"#utility.yul\":3204:3217   */\n      add\n        /* \"#utility.yul\":3197:3201   */\n      0x20\n        /* \"#utility.yul\":3189:3195   */\n      dup4\n        /* \"#utility.yul\":3185:3202   */\n      add\n        /* \"#utility.yul\":3172:3222   */\n      calldatacopy\n        /* \"#utility.yul\":3266:3267   */\n      0x00\n        /* \"#utility.yul\":3259:3263   */\n      0x20\n        /* \"#utility.yul\":3242:3257   */\n      swap4\n      dup3\n      add\n        /* \"#utility.yul\":3238:3264   */\n      dup5\n      add\n        /* \"#utility.yul\":3231:3268   */\n      mstore\n        /* \"#utility.yul\":3242:3257   */\n      swap9\n        /* \"#utility.yul\":3325:3345   */\n      swap7\n      swap1\n      swap2\n      add\n        /* \"#utility.yul\":3312:3346   */\n      calldataload\n      swap7\n      pop\n      pop\n      pop\n      pop\n      pop\n      pop\n        /* \"#utility.yul\":2353:3352   */\n      jump\t// out\n        /* \"#utility.yul\":3762:3948   */\n    tag_57:\n        /* \"#utility.yul\":3821:3827   */\n      0x00\n        /* \"#utility.yul\":3874:3876   */\n      0x20\n        /* \"#utility.yul\":3862:3871   */\n      dup3\n        /* \"#utility.yul\":3853:3860   */\n      dup5\n        /* \"#utility.yul\":3849:3872   */\n      sub\n        /* \"#utility.yul\":3845:3877   */\n      slt\n        /* \"#utility.yul\":3842:3894   */\n      iszero\n      tag_186\n      jumpi\n        /* \"#utility.yul\":3890:3891   */\n      0x00\n        /* \"#utility.yul\":3887:3888   */\n      dup1\n        /* \"#utility.yul\":3880:3892   */\n      revert\n        /* \"#utility.yul\":3842:3894   */\n    tag_186:\n        /* \"#utility.yul\":3913:3942   */\n      tag_187\n        /* \"#utility.yul\":3932:3941   */\n      dup3\n        /* \"#utility.yul\":3913:3942   */\n      tag_153\n      jump\t// in\n    tag_187:\n        /* \"#utility.yul\":3903:3942   */\n      swap4\n        /* \"#utility.yul\":3762:3948   */\n      swap3\n      pop\n      pop\n      pop\n      jump\t// out\n        /* \"#utility.yul\":3953:4816   */\n    tag_60:\n        /* \"#utility.yul\":4168:4170   */\n      0x20\n        /* \"#utility.yul\":4220:4241   */\n      dup1\n      dup3\n      mstore\n        /* \"#utility.yul\":4290:4303   */\n      dup3\n      mload\n        /* \"#utility.yul\":4193:4211   */\n      dup3\n      dup3\n      add\n        /* \"#utility.yul\":4312:4334   */\n      dup2\n      swap1\n      mstore\n        /* \"#utility.yul\":4139:4143   */\n      0x00\n      swap2\n        /* \"#utility.yul\":4168:4170   */\n      swap1\n        /* \"#utility.yul\":4353:4355   */\n      0x40\n      swap1\n        /* \"#utility.yul\":4371:4389   */\n      dup2\n      dup6\n      add\n      swap1\n        /* \"#utility.yul\":4412:4427   */\n      dup7\n      dup5\n      add\n        /* \"#utility.yul\":4139:4143   */\n      dup6\n        /* \"#utility.yul\":4455:4790   */\n    tag_189:\n        /* \"#utility.yul\":4469:4475   */\n      dup3\n        /* \"#utility.yul\":4466:4467   */\n      dup2\n        /* \"#utility.yul\":4463:4476   */\n      lt\n        /* \"#utility.yul\":4455:4790   */\n      iszero\n      tag_191\n      jumpi\n        /* \"#utility.yul\":4528:4541   */\n      dup2\n      mload\n        /* \"#utility.yul\":4570:4579   */\n      dup1\n      mload\n      sub(shl(0xa0, 0x01), 0x01)\n        /* \"#utility.yul\":4566:4601   */\n      and\n        /* \"#utility.yul\":4554:4602   */\n      dup6\n      mstore\n        /* \"#utility.yul\":4642:4653   */\n      dup7\n      dup2\n      add\n        /* \"#utility.yul\":4636:4654   */\n      mload\n        /* \"#utility.yul\":4622:4634   */\n      dup8\n      dup7\n      add\n        /* \"#utility.yul\":4615:4655   */\n      mstore\n        /* \"#utility.yul\":4695:4706   */\n      dup6\n      add\n        /* \"#utility.yul\":4689:4707   */\n      mload\n        /* \"#utility.yul\":4675:4687   */\n      dup6\n      dup6\n      add\n        /* \"#utility.yul\":4668:4708   */\n      mstore\n        /* \"#utility.yul\":4737:4741   */\n      0x60\n        /* \"#utility.yul\":4728:4742   */\n      swap1\n      swap4\n      add\n      swap3\n        /* \"#utility.yul\":4765:4780   */\n      swap1\n      dup6\n      add\n      swap1\n        /* \"#utility.yul\":4598:4599   */\n      0x01\n        /* \"#utility.yul\":4484:4493   */\n      add\n        /* \"#utility.yul\":4455:4790   */\n      jump(tag_189)\n    tag_191:\n      pop\n        /* \"#utility.yul\":4807:4810   */\n      swap2\n      swap8\n        /* \"#utility.yul\":3953:4816   */\n      swap7\n      pop\n      pop\n      pop\n      pop\n      pop\n      pop\n      pop\n      jump\t// out\n        /* \"#utility.yul\":5181:5526   */\n    tag_75:\n        /* \"#utility.yul\":5383:5385   */\n      0x20\n        /* \"#utility.yul\":5365:5386   */\n      dup1\n      dup3\n      mstore\n        /* \"#utility.yul\":5422:5424   */\n      0x15\n        /* \"#utility.yul\":5402:5420   */\n      swap1\n      dup3\n      add\n        /* \"#utility.yul\":5395:5425   */\n      mstore\n      shl(0x58, 0x50726f64756374206e6f7420617661696c61626c65)\n        /* \"#utility.yul\":5456:5458   */\n      0x40\n        /* \"#utility.yul\":5441:5459   */\n      dup3\n      add\n        /* \"#utility.yul\":5434:5485   */\n      mstore\n        /* \"#utility.yul\":5517:5519   */\n      0x60\n        /* \"#utility.yul\":5502:5520   */\n      add\n      swap1\n        /* \"#utility.yul\":5181:5526   */\n      jump\t// out\n        /* \"#utility.yul\":5531:5932   */\n    tag_78:\n        /* \"#utility.yul\":5733:5735   */\n      0x20\n        /* \"#utility.yul\":5715:5736   */\n      dup1\n      dup3\n      mstore\n        /* \"#utility.yul\":5772:5774   */\n      0x25\n        /* \"#utility.yul\":5752:5770   */\n      swap1\n      dup3\n      add\n        /* \"#utility.yul\":5745:5775   */\n      mstore\n        /* \"#utility.yul\":5811:5845   */\n      0x596f7520617265206e6f7420746865206f776e6572206f662074686973207072\n        /* \"#utility.yul\":5806:5808   */\n      0x40\n        /* \"#utility.yul\":5791:5809   */\n      dup3\n      add\n        /* \"#utility.yul\":5784:5846   */\n      mstore\n      shl(0xda, 0x1bd91d58dd)\n        /* \"#utility.yul\":5877:5879   */\n      0x60\n        /* \"#utility.yul\":5862:5880   */\n      dup3\n      add\n        /* \"#utility.yul\":5855:5890   */\n      mstore\n        /* \"#utility.yul\":5922:5925   */\n      0x80\n        /* \"#utility.yul\":5907:5926   */\n      add\n      swap1\n        /* \"#utility.yul\":5531:5932   */\n      jump\t// out\n        /* \"#utility.yul\":6190:6317   */\n    tag_154:\n        /* \"#utility.yul\":6251:6261   */\n      0x4e487b71\n        /* \"#utility.yul\":6246:6249   */\n      0xe0\n        /* \"#utility.yul\":6242:6262   */\n      shl\n        /* \"#utility.yul\":6239:6240   */\n      0x00\n        /* \"#utility.yul\":6232:6263   */\n      mstore\n        /* \"#utility.yul\":6282:6286   */\n      0x11\n        /* \"#utility.yul\":6279:6280   */\n      0x04\n        /* \"#utility.yul\":6272:6287   */\n      mstore\n        /* \"#utility.yul\":6306:6310   */\n      0x24\n        /* \"#utility.yul\":6303:6304   */\n      0x00\n        /* \"#utility.yul\":6296:6311   */\n      revert\n        /* \"#utility.yul\":6322:6447   */\n    tag_91:\n        /* \"#utility.yul\":6387:6396   */\n      dup1\n      dup3\n      add\n        /* \"#utility.yul\":6408:6418   */\n      dup1\n      dup3\n      gt\n        /* \"#utility.yul\":6405:6441   */\n      iszero\n      tag_89\n      jumpi\n        /* \"#utility.yul\":6421:6439   */\n      tag_89\n      tag_154\n      jump\t// in\n        /* \"#utility.yul\":7545:7822   */\n    tag_107:\n        /* \"#utility.yul\":7612:7618   */\n      0x00\n        /* \"#utility.yul\":7665:7667   */\n      0x20\n        /* \"#utility.yul\":7653:7662   */\n      dup3\n        /* \"#utility.yul\":7644:7651   */\n      dup5\n        /* \"#utility.yul\":7640:7663   */\n      sub\n        /* \"#utility.yul\":7636:7668   */\n      slt\n        /* \"#utility.yul\":7633:7685   */\n      iszero\n      tag_204\n      jumpi\n        /* \"#utility.yul\":7681:7682   */\n      0x00\n        /* \"#utility.yul\":7678:7679   */\n      dup1\n        /* \"#utility.yul\":7671:7683   */\n      revert\n        /* \"#utility.yul\":7633:7685   */\n    tag_204:\n        /* \"#utility.yul\":7713:7722   */\n      dup2\n        /* \"#utility.yul\":7707:7723   */\n      mload\n        /* \"#utility.yul\":7766:7771   */\n      dup1\n        /* \"#utility.yul\":7759:7772   */\n      iszero\n        /* \"#utility.yul\":7752:7773   */\n      iszero\n        /* \"#utility.yul\":7745:7750   */\n      dup2\n        /* \"#utility.yul\":7742:7774   */\n      eq\n        /* \"#utility.yul\":7732:7792   */\n      tag_187\n      jumpi\n        /* \"#utility.yul\":7788:7789   */\n      0x00\n        /* \"#utility.yul\":7785:7786   */\n      dup1\n        /* \"#utility.yul\":7778:7790   */\n      revert\n        /* \"#utility.yul\":8279:8406   */\n    tag_127:\n        /* \"#utility.yul\":8340:8350   */\n      0x4e487b71\n        /* \"#utility.yul\":8335:8338   */\n      0xe0\n        /* \"#utility.yul\":8331:8351   */\n      shl\n        /* \"#utility.yul\":8328:8329   */\n      0x00\n        /* \"#utility.yul\":8321:8352   */\n      mstore\n        /* \"#utility.yul\":8371:8375   */\n      0x32\n        /* \"#utility.yul\":8368:8369   */\n      0x04\n        /* \"#utility.yul\":8361:8376   */\n      mstore\n        /* \"#utility.yul\":8395:8399   */\n      0x24\n        /* \"#utility.yul\":8392:8393   */\n      0x00\n        /* \"#utility.yul\":8385:8400   */\n      revert\n        /* \"#utility.yul\":8411:8546   */\n    tag_136:\n        /* \"#utility.yul\":8450:8453   */\n      0x00\n        /* \"#utility.yul\":8471:8488   */\n      0x01\n      dup3\n      add\n        /* \"#utility.yul\":8468:8511   */\n      tag_210\n      jumpi\n        /* \"#utility.yul\":8491:8509   */\n      tag_210\n      tag_154\n      jump\t// in\n    tag_210:\n      pop\n        /* \"#utility.yul\":8538:8539   */\n      0x01\n        /* \"#utility.yul\":8527:8540   */\n      add\n      swap1\n        /* \"#utility.yul\":8411:8546   */\n      jump\t// out\n        /* \"#utility.yul\":8551:8679   */\n    tag_152:\n        /* \"#utility.yul\":8618:8627   */\n      dup2\n      dup2\n      sub\n        /* \"#utility.yul\":8639:8650   */\n      dup2\n      dup2\n      gt\n        /* \"#utility.yul\":8636:8673   */\n      iszero\n      tag_89\n      jumpi\n        /* \"#utility.yul\":8653:8671   */\n      tag_89\n      tag_154\n      jump\t// in\n\n    auxdata: 0xa2646970667358221220222561223ea3698b49b4d1ee723df69e10836fcf51c0e9b27c8f12f70954981864736f6c63430008160033\n}\n",
				"bytecode": {
					"linkReferences": {},
					"object": "608060405234801561000f575f80fd5b50604051610edd380380610edd83398101604081905261002e91610079565b5f80546001600160a01b039384166001600160a01b031991821617909155600180549290931691161790556100aa565b80516001600160a01b0381168114610074575f80fd5b919050565b5f806040838503121561008a575f80fd5b6100938361005e565b91506100a16020840161005e565b90509250929050565b610e26806100b75f395ff3fe608060405234801561000f575f80fd5b50600436106100a6575f3560e01c8063b5cdf9241161006e578063b5cdf92414610166578063bca6ce6414610187578063d96a094a14610199578063da694df0146101ac578063e1bd88c2146101cb578063ee339945146101eb575f80fd5b8063150b7a02146100aa578063785e9e86146100db5780637a23754e14610106578063935c9ad21461011b578063a85c38ef1461012e575b5f80fd5b6100bd6100b8366004610ae9565b610224565b6040516001600160e01b031990911681526020015b60405180910390f35b6001546100ee906001600160a01b031681565b6040516001600160a01b0390911681526020016100d2565b610119610114366004610b7c565b6102ea565b005b610119610129366004610b9c565b6103ef565b61014161013c366004610b9c565b6104bf565b604080516001600160a01b0390941684526020840192909252908201526060016100d2565b610179610174366004610bc7565b6104fa565b6040519081526020016100d2565b5f546100ee906001600160a01b031681565b6101196101a7366004610b9c565b6105bf565b6101796101ba366004610b9c565b60036020525f908152604090205481565b6101de6101d9366004610c76565b6107a4565b6040516100d29190610c96565b6101416101f9366004610b9c565b600260208190525f91825260409091208054600182015491909201546001600160a01b039092169183565b5f846001600160a01b0316866001600160a01b03161461028b5760405162461bcd60e51b815260206004820152601f60248201527f4d61726b65743a2053656c6c6572206d757374206265206f70657261746f720060448201526064015b60405180910390fd5b5f6102ca84848080601f0160208091040260200160405190810160405280939291908181526020018383808284375f92018290525092506104fa915050565b90506102d78686836109c0565b50630a85bd0160e11b9695505050505050565b5f828152600260205260409020546001600160a01b031661031d5760405162461bcd60e51b815260040161028290610cf7565b5f828152600260205260409020546001600160a01b031633146103525760405162461bcd60e51b815260040161028290610d26565b5f828152600260208181526040808420815160608101835281546001600160a01b0380821683526001840180548488019081528487018b8152998c905288885284519092166001600160a01b0319909316929092178455519055945193019290925581518581529081018490527fb3de019cba215d4f3c532c1740d910f08288eca6b69768b4337c16ab74b49741910160405180910390a1505050565b5f818152600260205260409020546001600160a01b03166104225760405162461bcd60e51b815260040161028290610cf7565b5f818152600260205260409020546001600160a01b031633146104575760405162461bcd60e51b815260040161028290610d26565b5f81815260026020818152604080842080546001600160a01b0319168155600181018590559092018390556003815281832092909255518281527f514fcac7bebb46f0de48634659b1bf29bbb864f5db67e9070672ed508989394e910160405180910390a150565b600481815481106104ce575f80fd5b5f9182526020909120600390910201805460018201546002909201546001600160a01b03909116925083565b5f81610507816020610d7f565b10156105555760405162461bcd60e51b815260206004820152601a60248201527f4d61726b65743a20746f55696e743235365f6f766572666c6f770000000000006044820152606401610282565b610560826020610d7f565b835110156105b05760405162461bcd60e51b815260206004820152601d60248201527f4d61726b65743a20746f55696e743235365f6f75744f66426f756e64730000006044820152606401610282565b50818101602001515b92915050565b5f818152600260205260409020546001600160a01b03166105f25760405162461bcd60e51b815260040161028290610cf7565b5f81815260026020818152604092839020835160608101855281546001600160a01b03908116808352600180850154958401959095529290940154818601819052925494516323b872dd60e01b815233600482018190526024820184905260448201859052919593949293919291909116906323b872dd906064016020604051808303815f875af1158015610689573d5f803e3d5ffd5b505050506040513d601f19601f820116820180604052508101906106ad9190610d92565b505f54604051632142170760e11b81526001600160a01b038481166004830152838116602483015260448201889052909116906342842e0e906064015f604051808303815f87803b158015610700575f80fd5b505af1158015610712573d5f803e3d5ffd5b5050505f86815260026020818152604080842080546001600160a01b031916815560018101859055909201839055600381528183209290925580516001600160a01b0380871682528516928101929092528101879052606081018590527f424d5e5f0192c7dacdbe646ca31b00299146d883d76a95ef5cddbac7cd342eab915060800160405180910390a15050505050565b6004546060905f9067ffffffffffffffff8111156107c4576107c4610bb3565b60405190808252806020026020018201604052801561081f57816020015b61080c60405180606001604052805f6001600160a01b031681526020015f81526020015f81525090565b8152602001906001900390816107e25790505b5090505f805b6004548110156108f557846001600160a01b03166004828154811061084c5761084c610db1565b5f9182526020909120600390910201546001600160a01b0316036108ed576004818154811061087d5761087d610db1565b5f91825260209182902060408051606081018252600390930290910180546001600160a01b031683526001810154938301939093526002909201549181019190915283518490849081106108d3576108d3610db1565b602002602001018190525081806108e990610dc5565b9250505b600101610825565b505f8167ffffffffffffffff81111561091057610910610bb3565b60405190808252806020026020018201604052801561096b57816020015b61095860405180606001604052805f6001600160a01b031681526020015f81526020015f81525090565b81526020019060019003908161092e5790505b5090505f5b828110156109b75783818151811061098a5761098a610db1565b60200260200101518282815181106109a4576109a4610db1565b6020908102919091010152600101610970565b50949350505050565b604080516060810182526001600160a01b038086168252602080830186815283850186815260048054600181810183555f838152885160039093027f8a35acfbc15ff81a39ae7d344fd709f28e8600b4aa8c65c6b64bfe7fe36bd19b81018054948a166001600160a01b031995861617905586517f8a35acfbc15ff81a39ae7d344fd709f28e8600b4aa8c65c6b64bfe7fe36bd19c82015585517f8a35acfbc15ff81a39ae7d344fd709f28e8600b4aa8c65c6b64bfe7fe36bd19d909101558b81526002968790529890982087518154971696909116959095178555915184870155519290910191909155549091610ab791610ddd565b5f9384526003602052604090932092909255505050565b80356001600160a01b0381168114610ae4575f80fd5b919050565b5f805f805f60808688031215610afd575f80fd5b610b0686610ace565b9450610b1460208701610ace565b935060408601359250606086013567ffffffffffffffff80821115610b37575f80fd5b818801915088601f830112610b4a575f80fd5b813581811115610b58575f80fd5b896020828501011115610b69575f80fd5b9699959850939650602001949392505050565b5f8060408385031215610b8d575f80fd5b50508035926020909101359150565b5f60208284031215610bac575f80fd5b5035919050565b634e487b7160e01b5f52604160045260245ffd5b5f8060408385031215610bd8575f80fd5b823567ffffffffffffffff80821115610bef575f80fd5b818501915085601f830112610c02575f80fd5b813581811115610c1457610c14610bb3565b604051601f8201601f19908116603f01168101908382118183101715610c3c57610c3c610bb3565b81604052828152886020848701011115610c54575f80fd5b826020860160208301375f602093820184015298969091013596505050505050565b5f60208284031215610c86575f80fd5b610c8f82610ace565b9392505050565b602080825282518282018190525f919060409081850190868401855b82811015610cea57815180516001600160a01b0316855286810151878601528501518585015260609093019290850190600101610cb2565b5091979650505050505050565b60208082526015908201527450726f64756374206e6f7420617661696c61626c6560581b604082015260600190565b60208082526025908201527f596f7520617265206e6f7420746865206f776e6572206f6620746869732070726040820152641bd91d58dd60da1b606082015260800190565b634e487b7160e01b5f52601160045260245ffd5b808201808211156105b9576105b9610d6b565b5f60208284031215610da2575f80fd5b81518015158114610c8f575f80fd5b634e487b7160e01b5f52603260045260245ffd5b5f60018201610dd657610dd6610d6b565b5060010190565b818103818111156105b9576105b9610d6b56fea2646970667358221220222561223ea3698b49b4d1ee723df69e10836fcf51c0e9b27c8f12f70954981864736f6c63430008160033",
					"opcodes": "PUSH1 0x80 PUSH1 0x40 MSTORE CALLVALUE DUP1 ISZERO PUSH2 0xF JUMPI PUSH0 DUP1 REVERT JUMPDEST POP PUSH1 0x40 MLOAD PUSH2 0xEDD CODESIZE SUB DUP1 PUSH2 0xEDD DUP4 CODECOPY DUP2 ADD PUSH1 0x40 DUP2 SWAP1 MSTORE PUSH2 0x2E SWAP2 PUSH2 0x79 JUMP JUMPDEST PUSH0 DUP1 SLOAD PUSH1 0x1 PUSH1 0x1 PUSH1 0xA0 SHL SUB SWAP4 DUP5 AND PUSH1 0x1 PUSH1 0x1 PUSH1 0xA0 SHL SUB NOT SWAP2 DUP3 AND OR SWAP1 SWAP2 SSTORE PUSH1 0x1 DUP1 SLOAD SWAP3 SWAP1 SWAP4 AND SWAP2 AND OR SWAP1 SSTORE PUSH2 0xAA JUMP JUMPDEST DUP1 MLOAD PUSH1 0x1 PUSH1 0x1 PUSH1 0xA0 SHL SUB DUP2 AND DUP2 EQ PUSH2 0x74 JUMPI PUSH0 DUP1 REVERT JUMPDEST SWAP2 SWAP1 POP JUMP JUMPDEST PUSH0 DUP1 PUSH1 0x40 DUP4 DUP6 SUB SLT ISZERO PUSH2 0x8A JUMPI PUSH0 DUP1 REVERT JUMPDEST PUSH2 0x93 DUP4 PUSH2 0x5E JUMP JUMPDEST SWAP2 POP PUSH2 0xA1 PUSH1 0x20 DUP5 ADD PUSH2 0x5E JUMP JUMPDEST SWAP1 POP SWAP3 POP SWAP3 SWAP1 POP JUMP JUMPDEST PUSH2 0xE26 DUP1 PUSH2 0xB7 PUSH0 CODECOPY PUSH0 RETURN INVALID PUSH1 0x80 PUSH1 0x40 MSTORE CALLVALUE DUP1 ISZERO PUSH2 0xF JUMPI PUSH0 DUP1 REVERT JUMPDEST POP PUSH1 0x4 CALLDATASIZE LT PUSH2 0xA6 JUMPI PUSH0 CALLDATALOAD PUSH1 0xE0 SHR DUP1 PUSH4 0xB5CDF924 GT PUSH2 0x6E JUMPI DUP1 PUSH4 0xB5CDF924 EQ PUSH2 0x166 JUMPI DUP1 PUSH4 0xBCA6CE64 EQ PUSH2 0x187 JUMPI DUP1 PUSH4 0xD96A094A EQ PUSH2 0x199 JUMPI DUP1 PUSH4 0xDA694DF0 EQ PUSH2 0x1AC JUMPI DUP1 PUSH4 0xE1BD88C2 EQ PUSH2 0x1CB JUMPI DUP1 PUSH4 0xEE339945 EQ PUSH2 0x1EB JUMPI PUSH0 DUP1 REVERT JUMPDEST DUP1 PUSH4 0x150B7A02 EQ PUSH2 0xAA JUMPI DUP1 PUSH4 0x785E9E86 EQ PUSH2 0xDB JUMPI DUP1 PUSH4 0x7A23754E EQ PUSH2 0x106 JUMPI DUP1 PUSH4 0x935C9AD2 EQ PUSH2 0x11B JUMPI DUP1 PUSH4 0xA85C38EF EQ PUSH2 0x12E JUMPI JUMPDEST PUSH0 DUP1 REVERT JUMPDEST PUSH2 0xBD PUSH2 0xB8 CALLDATASIZE PUSH1 0x4 PUSH2 0xAE9 JUMP JUMPDEST PUSH2 0x224 JUMP JUMPDEST PUSH1 0x40 MLOAD PUSH1 0x1 PUSH1 0x1 PUSH1 0xE0 SHL SUB NOT SWAP1 SWAP2 AND DUP2 MSTORE PUSH1 0x20 ADD JUMPDEST PUSH1 0x40 MLOAD DUP1 SWAP2 SUB SWAP1 RETURN JUMPDEST PUSH1 0x1 SLOAD PUSH2 0xEE SWAP1 PUSH1 0x1 PUSH1 0x1 PUSH1 0xA0 SHL SUB AND DUP2 JUMP JUMPDEST PUSH1 0x40 MLOAD PUSH1 0x1 PUSH1 0x1 PUSH1 0xA0 SHL SUB SWAP1 SWAP2 AND DUP2 MSTORE PUSH1 0x20 ADD PUSH2 0xD2 JUMP JUMPDEST PUSH2 0x119 PUSH2 0x114 CALLDATASIZE PUSH1 0x4 PUSH2 0xB7C JUMP JUMPDEST PUSH2 0x2EA JUMP JUMPDEST STOP JUMPDEST PUSH2 0x119 PUSH2 0x129 CALLDATASIZE PUSH1 0x4 PUSH2 0xB9C JUMP JUMPDEST PUSH2 0x3EF JUMP JUMPDEST PUSH2 0x141 PUSH2 0x13C CALLDATASIZE PUSH1 0x4 PUSH2 0xB9C JUMP JUMPDEST PUSH2 0x4BF JUMP JUMPDEST PUSH1 0x40 DUP1 MLOAD PUSH1 0x1 PUSH1 0x1 PUSH1 0xA0 SHL SUB SWAP1 SWAP5 AND DUP5 MSTORE PUSH1 0x20 DUP5 ADD SWAP3 SWAP1 SWAP3 MSTORE SWAP1 DUP3 ADD MSTORE PUSH1 0x60 ADD PUSH2 0xD2 JUMP JUMPDEST PUSH2 0x179 PUSH2 0x174 CALLDATASIZE PUSH1 0x4 PUSH2 0xBC7 JUMP JUMPDEST PUSH2 0x4FA JUMP JUMPDEST PUSH1 0x40 MLOAD SWAP1 DUP2 MSTORE PUSH1 0x20 ADD PUSH2 0xD2 JUMP JUMPDEST PUSH0 SLOAD PUSH2 0xEE SWAP1 PUSH1 0x1 PUSH1 0x1 PUSH1 0xA0 SHL SUB AND DUP2 JUMP JUMPDEST PUSH2 0x119 PUSH2 0x1A7 CALLDATASIZE PUSH1 0x4 PUSH2 0xB9C JUMP JUMPDEST PUSH2 0x5BF JUMP JUMPDEST PUSH2 0x179 PUSH2 0x1BA CALLDATASIZE PUSH1 0x4 PUSH2 0xB9C JUMP JUMPDEST PUSH1 0x3 PUSH1 0x20 MSTORE PUSH0 SWAP1 DUP2 MSTORE PUSH1 0x40 SWAP1 KECCAK256 SLOAD DUP2 JUMP JUMPDEST PUSH2 0x1DE PUSH2 0x1D9 CALLDATASIZE PUSH1 0x4 PUSH2 0xC76 JUMP JUMPDEST PUSH2 0x7A4 JUMP JUMPDEST PUSH1 0x40 MLOAD PUSH2 0xD2 SWAP2 SWAP1 PUSH2 0xC96 JUMP JUMPDEST PUSH2 0x141 PUSH2 0x1F9 CALLDATASIZE PUSH1 0x4 PUSH2 0xB9C JUMP JUMPDEST PUSH1 0x2 PUSH1 0x20 DUP2 SWAP1 MSTORE PUSH0 SWAP2 DUP3 MSTORE PUSH1 0x40 SWAP1 SWAP2 KECCAK256 DUP1 SLOAD PUSH1 0x1 DUP3 ADD SLOAD SWAP2 SWAP1 SWAP3 ADD SLOAD PUSH1 0x1 PUSH1 0x1 PUSH1 0xA0 SHL SUB SWAP1 SWAP3 AND SWAP2 DUP4 JUMP JUMPDEST PUSH0 DUP5 PUSH1 0x1 PUSH1 0x1 PUSH1 0xA0 SHL SUB AND DUP7 PUSH1 0x1 PUSH1 0x1 PUSH1 0xA0 SHL SUB AND EQ PUSH2 0x28B JUMPI PUSH1 0x40 MLOAD PUSH3 0x461BCD PUSH1 0xE5 SHL DUP2 MSTORE PUSH1 0x20 PUSH1 0x4 DUP3 ADD MSTORE PUSH1 0x1F PUSH1 0x24 DUP3 ADD MSTORE PUSH32 0x4D61726B65743A2053656C6C6572206D757374206265206F70657261746F7200 PUSH1 0x44 DUP3 ADD MSTORE PUSH1 0x64 ADD JUMPDEST PUSH1 0x40 MLOAD DUP1 SWAP2 SUB SWAP1 REVERT JUMPDEST PUSH0 PUSH2 0x2CA DUP5 DUP5 DUP1 DUP1 PUSH1 0x1F ADD PUSH1 0x20 DUP1 SWAP2 DIV MUL PUSH1 0x20 ADD PUSH1 0x40 MLOAD SWAP1 DUP2 ADD PUSH1 0x40 MSTORE DUP1 SWAP4 SWAP3 SWAP2 SWAP1 DUP2 DUP2 MSTORE PUSH1 0x20 ADD DUP4 DUP4 DUP1 DUP3 DUP5 CALLDATACOPY PUSH0 SWAP3 ADD DUP3 SWAP1 MSTORE POP SWAP3 POP PUSH2 0x4FA SWAP2 POP POP JUMP JUMPDEST SWAP1 POP PUSH2 0x2D7 DUP7 DUP7 DUP4 PUSH2 0x9C0 JUMP JUMPDEST POP PUSH4 0xA85BD01 PUSH1 0xE1 SHL SWAP7 SWAP6 POP POP POP POP POP POP JUMP JUMPDEST PUSH0 DUP3 DUP2 MSTORE PUSH1 0x2 PUSH1 0x20 MSTORE PUSH1 0x40 SWAP1 KECCAK256 SLOAD PUSH1 0x1 PUSH1 0x1 PUSH1 0xA0 SHL SUB AND PUSH2 0x31D JUMPI PUSH1 0x40 MLOAD PUSH3 0x461BCD PUSH1 0xE5 SHL DUP2 MSTORE PUSH1 0x4 ADD PUSH2 0x282 SWAP1 PUSH2 0xCF7 JUMP JUMPDEST PUSH0 DUP3 DUP2 MSTORE PUSH1 0x2 PUSH1 0x20 MSTORE PUSH1 0x40 SWAP1 KECCAK256 SLOAD PUSH1 0x1 PUSH1 0x1 PUSH1 0xA0 SHL SUB AND CALLER EQ PUSH2 0x352 JUMPI PUSH1 0x40 MLOAD PUSH3 0x461BCD PUSH1 0xE5 SHL DUP2 MSTORE PUSH1 0x4 ADD PUSH2 0x282 SWAP1 PUSH2 0xD26 JUMP JUMPDEST PUSH0 DUP3 DUP2 MSTORE PUSH1 0x2 PUSH1 0x20 DUP2 DUP2 MSTORE PUSH1 0x40 DUP1 DUP5 KECCAK256 DUP2 MLOAD PUSH1 0x60 DUP2 ADD DUP4 MSTORE DUP2 SLOAD PUSH1 0x1 PUSH1 0x1 PUSH1 0xA0 SHL SUB DUP1 DUP3 AND DUP4 MSTORE PUSH1 0x1 DUP5 ADD DUP1 SLOAD DUP5 DUP9 ADD SWAP1 DUP2 MSTORE DUP5 DUP8 ADD DUP12 DUP2 MSTORE SWAP10 DUP13 SWAP1 MSTORE DUP9 DUP9 MSTORE DUP5 MLOAD SWAP1 SWAP3 AND PUSH1 0x1 PUSH1 0x1 PUSH1 0xA0 SHL SUB NOT SWAP1 SWAP4 AND SWAP3 SWAP1 SWAP3 OR DUP5 SSTORE MLOAD SWAP1 SSTORE SWAP5 MLOAD SWAP4 ADD SWAP3 SWAP1 SWAP3 SSTORE DUP2 MLOAD DUP6 DUP2 MSTORE SWAP1 DUP2 ADD DUP5 SWAP1 MSTORE PUSH32 0xB3DE019CBA215D4F3C532C1740D910F08288ECA6B69768B4337C16AB74B49741 SWAP2 ADD PUSH1 0x40 MLOAD DUP1 SWAP2 SUB SWAP1 LOG1 POP POP POP JUMP JUMPDEST PUSH0 DUP2 DUP2 MSTORE PUSH1 0x2 PUSH1 0x20 MSTORE PUSH1 0x40 SWAP1 KECCAK256 SLOAD PUSH1 0x1 PUSH1 0x1 PUSH1 0xA0 SHL SUB AND PUSH2 0x422 JUMPI PUSH1 0x40 MLOAD PUSH3 0x461BCD PUSH1 0xE5 SHL DUP2 MSTORE PUSH1 0x4 ADD PUSH2 0x282 SWAP1 PUSH2 0xCF7 JUMP JUMPDEST PUSH0 DUP2 DUP2 MSTORE PUSH1 0x2 PUSH1 0x20 MSTORE PUSH1 0x40 SWAP1 KECCAK256 SLOAD PUSH1 0x1 PUSH1 0x1 PUSH1 0xA0 SHL SUB AND CALLER EQ PUSH2 0x457 JUMPI PUSH1 0x40 MLOAD PUSH3 0x461BCD PUSH1 0xE5 SHL DUP2 MSTORE PUSH1 0x4 ADD PUSH2 0x282 SWAP1 PUSH2 0xD26 JUMP JUMPDEST PUSH0 DUP2 DUP2 MSTORE PUSH1 0x2 PUSH1 0x20 DUP2 DUP2 MSTORE PUSH1 0x40 DUP1 DUP5 KECCAK256 DUP1 SLOAD PUSH1 0x1 PUSH1 0x1 PUSH1 0xA0 SHL SUB NOT AND DUP2 SSTORE PUSH1 0x1 DUP2 ADD DUP6 SWAP1 SSTORE SWAP1 SWAP3 ADD DUP4 SWAP1 SSTORE PUSH1 0x3 DUP2 MSTORE DUP2 DUP4 KECCAK256 SWAP3 SWAP1 SWAP3 SSTORE MLOAD DUP3 DUP2 MSTORE PUSH32 0x514FCAC7BEBB46F0DE48634659B1BF29BBB864F5DB67E9070672ED508989394E SWAP2 ADD PUSH1 0x40 MLOAD DUP1 SWAP2 SUB SWAP1 LOG1 POP JUMP JUMPDEST PUSH1 0x4 DUP2 DUP2 SLOAD DUP2 LT PUSH2 0x4CE JUMPI PUSH0 DUP1 REVERT JUMPDEST PUSH0 SWAP2 DUP3 MSTORE PUSH1 0x20 SWAP1 SWAP2 KECCAK256 PUSH1 0x3 SWAP1 SWAP2 MUL ADD DUP1 SLOAD PUSH1 0x1 DUP3 ADD SLOAD PUSH1 0x2 SWAP1 SWAP3 ADD SLOAD PUSH1 0x1 PUSH1 0x1 PUSH1 0xA0 SHL SUB SWAP1 SWAP2 AND SWAP3 POP DUP4 JUMP JUMPDEST PUSH0 DUP2 PUSH2 0x507 DUP2 PUSH1 0x20 PUSH2 0xD7F JUMP JUMPDEST LT ISZERO PUSH2 0x555 JUMPI PUSH1 0x40 MLOAD PUSH3 0x461BCD PUSH1 0xE5 SHL DUP2 MSTORE PUSH1 0x20 PUSH1 0x4 DUP3 ADD MSTORE PUSH1 0x1A PUSH1 0x24 DUP3 ADD MSTORE PUSH32 0x4D61726B65743A20746F55696E743235365F6F766572666C6F77000000000000 PUSH1 0x44 DUP3 ADD MSTORE PUSH1 0x64 ADD PUSH2 0x282 JUMP JUMPDEST PUSH2 0x560 DUP3 PUSH1 0x20 PUSH2 0xD7F JUMP JUMPDEST DUP4 MLOAD LT ISZERO PUSH2 0x5B0 JUMPI PUSH1 0x40 MLOAD PUSH3 0x461BCD PUSH1 0xE5 SHL DUP2 MSTORE PUSH1 0x20 PUSH1 0x4 DUP3 ADD MSTORE PUSH1 0x1D PUSH1 0x24 DUP3 ADD MSTORE PUSH32 0x4D61726B65743A20746F55696E743235365F6F75744F66426F756E6473000000 PUSH1 0x44 DUP3 ADD MSTORE PUSH1 0x64 ADD PUSH2 0x282 JUMP JUMPDEST POP DUP2 DUP2 ADD PUSH1 0x20 ADD MLOAD JUMPDEST SWAP3 SWAP2 POP POP JUMP JUMPDEST PUSH0 DUP2 DUP2 MSTORE PUSH1 0x2 PUSH1 0x20 MSTORE PUSH1 0x40 SWAP1 KECCAK256 SLOAD PUSH1 0x1 PUSH1 0x1 PUSH1 0xA0 SHL SUB AND PUSH2 0x5F2 JUMPI PUSH1 0x40 MLOAD PUSH3 0x461BCD PUSH1 0xE5 SHL DUP2 MSTORE PUSH1 0x4 ADD PUSH2 0x282 SWAP1 PUSH2 0xCF7 JUMP JUMPDEST PUSH0 DUP2 DUP2 MSTORE PUSH1 0x2 PUSH1 0x20 DUP2 DUP2 MSTORE PUSH1 0x40 SWAP3 DUP4 SWAP1 KECCAK256 DUP4 MLOAD PUSH1 0x60 DUP2 ADD DUP6 MSTORE DUP2 SLOAD PUSH1 0x1 PUSH1 0x1 PUSH1 0xA0 SHL SUB SWAP1 DUP2 AND DUP1 DUP4 MSTORE PUSH1 0x1 DUP1 DUP6 ADD SLOAD SWAP6 DUP5 ADD SWAP6 SWAP1 SWAP6 MSTORE SWAP3 SWAP1 SWAP5 ADD SLOAD DUP2 DUP7 ADD DUP2 SWAP1 MSTORE SWAP3 SLOAD SWAP5 MLOAD PUSH4 0x23B872DD PUSH1 0xE0 SHL DUP2 MSTORE CALLER PUSH1 0x4 DUP3 ADD DUP2 SWAP1 MSTORE PUSH1 0x24 DUP3 ADD DUP5 SWAP1 MSTORE PUSH1 0x44 DUP3 ADD DUP6 SWAP1 MSTORE SWAP2 SWAP6 SWAP4 SWAP5 SWAP3 SWAP4 SWAP2 SWAP3 SWAP2 SWAP1 SWAP2 AND SWAP1 PUSH4 0x23B872DD SWAP1 PUSH1 0x64 ADD PUSH1 0x20 PUSH1 0x40 MLOAD DUP1 DUP4 SUB DUP2 PUSH0 DUP8 GAS CALL ISZERO DUP1 ISZERO PUSH2 0x689 JUMPI RETURNDATASIZE PUSH0 DUP1 RETURNDATACOPY RETURNDATASIZE PUSH0 REVERT JUMPDEST POP POP POP POP PUSH1 0x40 MLOAD RETURNDATASIZE PUSH1 0x1F NOT PUSH1 0x1F DUP3 ADD AND DUP3 ADD DUP1 PUSH1 0x40 MSTORE POP DUP2 ADD SWAP1 PUSH2 0x6AD SWAP2 SWAP1 PUSH2 0xD92 JUMP JUMPDEST POP PUSH0 SLOAD PUSH1 0x40 MLOAD PUSH4 0x21421707 PUSH1 0xE1 SHL DUP2 MSTORE PUSH1 0x1 PUSH1 0x1 PUSH1 0xA0 SHL SUB DUP5 DUP2 AND PUSH1 0x4 DUP4 ADD MSTORE DUP4 DUP2 AND PUSH1 0x24 DUP4 ADD MSTORE PUSH1 0x44 DUP3 ADD DUP9 SWAP1 MSTORE SWAP1 SWAP2 AND SWAP1 PUSH4 0x42842E0E SWAP1 PUSH1 0x64 ADD PUSH0 PUSH1 0x40 MLOAD DUP1 DUP4 SUB DUP2 PUSH0 DUP8 DUP1 EXTCODESIZE ISZERO DUP1 ISZERO PUSH2 0x700 JUMPI PUSH0 DUP1 REVERT JUMPDEST POP GAS CALL ISZERO DUP1 ISZERO PUSH2 0x712 JUMPI RETURNDATASIZE PUSH0 DUP1 RETURNDATACOPY RETURNDATASIZE PUSH0 REVERT JUMPDEST POP POP POP PUSH0 DUP7 DUP2 MSTORE PUSH1 0x2 PUSH1 0x20 DUP2 DUP2 MSTORE PUSH1 0x40 DUP1 DUP5 KECCAK256 DUP1 SLOAD PUSH1 0x1 PUSH1 0x1 PUSH1 0xA0 SHL SUB NOT AND DUP2 SSTORE PUSH1 0x1 DUP2 ADD DUP6 SWAP1 SSTORE SWAP1 SWAP3 ADD DUP4 SWAP1 SSTORE PUSH1 0x3 DUP2 MSTORE DUP2 DUP4 KECCAK256 SWAP3 SWAP1 SWAP3 SSTORE DUP1 MLOAD PUSH1 0x1 PUSH1 0x1 PUSH1 0xA0 SHL SUB DUP1 DUP8 AND DUP3 MSTORE DUP6 AND SWAP3 DUP2 ADD SWAP3 SWAP1 SWAP3 MSTORE DUP2 ADD DUP8 SWAP1 MSTORE PUSH1 0x60 DUP2 ADD DUP6 SWAP1 MSTORE PUSH32 0x424D5E5F0192C7DACDBE646CA31B00299146D883D76A95EF5CDDBAC7CD342EAB SWAP2 POP PUSH1 0x80 ADD PUSH1 0x40 MLOAD DUP1 SWAP2 SUB SWAP1 LOG1 POP POP POP POP POP JUMP JUMPDEST PUSH1 0x4 SLOAD PUSH1 0x60 SWAP1 PUSH0 SWAP1 PUSH8 0xFFFFFFFFFFFFFFFF DUP2 GT ISZERO PUSH2 0x7C4 JUMPI PUSH2 0x7C4 PUSH2 0xBB3 JUMP JUMPDEST PUSH1 0x40 MLOAD SWAP1 DUP1 DUP3 MSTORE DUP1 PUSH1 0x20 MUL PUSH1 0x20 ADD DUP3 ADD PUSH1 0x40 MSTORE DUP1 ISZERO PUSH2 0x81F JUMPI DUP2 PUSH1 0x20 ADD JUMPDEST PUSH2 0x80C PUSH1 0x40 MLOAD DUP1 PUSH1 0x60 ADD PUSH1 0x40 MSTORE DUP1 PUSH0 PUSH1 0x1 PUSH1 0x1 PUSH1 0xA0 SHL SUB AND DUP2 MSTORE PUSH1 0x20 ADD PUSH0 DUP2 MSTORE PUSH1 0x20 ADD PUSH0 DUP2 MSTORE POP SWAP1 JUMP JUMPDEST DUP2 MSTORE PUSH1 0x20 ADD SWAP1 PUSH1 0x1 SWAP1 SUB SWAP1 DUP2 PUSH2 0x7E2 JUMPI SWAP1 POP JUMPDEST POP SWAP1 POP PUSH0 DUP1 JUMPDEST PUSH1 0x4 SLOAD DUP2 LT ISZERO PUSH2 0x8F5 JUMPI DUP5 PUSH1 0x1 PUSH1 0x1 PUSH1 0xA0 SHL SUB AND PUSH1 0x4 DUP3 DUP2 SLOAD DUP2 LT PUSH2 0x84C JUMPI PUSH2 0x84C PUSH2 0xDB1 JUMP JUMPDEST PUSH0 SWAP2 DUP3 MSTORE PUSH1 0x20 SWAP1 SWAP2 KECCAK256 PUSH1 0x3 SWAP1 SWAP2 MUL ADD SLOAD PUSH1 0x1 PUSH1 0x1 PUSH1 0xA0 SHL SUB AND SUB PUSH2 0x8ED JUMPI PUSH1 0x4 DUP2 DUP2 SLOAD DUP2 LT PUSH2 0x87D JUMPI PUSH2 0x87D PUSH2 0xDB1 JUMP JUMPDEST PUSH0 SWAP2 DUP3 MSTORE PUSH1 0x20 SWAP2 DUP3 SWAP1 KECCAK256 PUSH1 0x40 DUP1 MLOAD PUSH1 0x60 DUP2 ADD DUP3 MSTORE PUSH1 0x3 SWAP1 SWAP4 MUL SWAP1 SWAP2 ADD DUP1 SLOAD PUSH1 0x1 PUSH1 0x1 PUSH1 0xA0 SHL SUB AND DUP4 MSTORE PUSH1 0x1 DUP2 ADD SLOAD SWAP4 DUP4 ADD SWAP4 SWAP1 SWAP4 MSTORE PUSH1 0x2 SWAP1 SWAP3 ADD SLOAD SWAP2 DUP2 ADD SWAP2 SWAP1 SWAP2 MSTORE DUP4 MLOAD DUP5 SWAP1 DUP5 SWAP1 DUP2 LT PUSH2 0x8D3 JUMPI PUSH2 0x8D3 PUSH2 0xDB1 JUMP JUMPDEST PUSH1 0x20 MUL PUSH1 0x20 ADD ADD DUP2 SWAP1 MSTORE POP DUP2 DUP1 PUSH2 0x8E9 SWAP1 PUSH2 0xDC5 JUMP JUMPDEST SWAP3 POP POP JUMPDEST PUSH1 0x1 ADD PUSH2 0x825 JUMP JUMPDEST POP PUSH0 DUP2 PUSH8 0xFFFFFFFFFFFFFFFF DUP2 GT ISZERO PUSH2 0x910 JUMPI PUSH2 0x910 PUSH2 0xBB3 JUMP JUMPDEST PUSH1 0x40 MLOAD SWAP1 DUP1 DUP3 MSTORE DUP1 PUSH1 0x20 MUL PUSH1 0x20 ADD DUP3 ADD PUSH1 0x40 MSTORE DUP1 ISZERO PUSH2 0x96B JUMPI DUP2 PUSH1 0x20 ADD JUMPDEST PUSH2 0x958 PUSH1 0x40 MLOAD DUP1 PUSH1 0x60 ADD PUSH1 0x40 MSTORE DUP1 PUSH0 PUSH1 0x1 PUSH1 0x1 PUSH1 0xA0 SHL SUB AND DUP2 MSTORE PUSH1 0x20 ADD PUSH0 DUP2 MSTORE PUSH1 0x20 ADD PUSH0 DUP2 MSTORE POP SWAP1 JUMP JUMPDEST DUP2 MSTORE PUSH1 0x20 ADD SWAP1 PUSH1 0x1 SWAP1 SUB SWAP1 DUP2 PUSH2 0x92E JUMPI SWAP1 POP JUMPDEST POP SWAP1 POP PUSH0 JUMPDEST DUP3 DUP2 LT ISZERO PUSH2 0x9B7 JUMPI DUP4 DUP2 DUP2 MLOAD DUP2 LT PUSH2 0x98A JUMPI PUSH2 0x98A PUSH2 0xDB1 JUMP JUMPDEST PUSH1 0x20 MUL PUSH1 0x20 ADD ADD MLOAD DUP3 DUP3 DUP2 MLOAD DUP2 LT PUSH2 0x9A4 JUMPI PUSH2 0x9A4 PUSH2 0xDB1 JUMP JUMPDEST PUSH1 0x20 SWAP1 DUP2 MUL SWAP2 SWAP1 SWAP2 ADD ADD MSTORE PUSH1 0x1 ADD PUSH2 0x970 JUMP JUMPDEST POP SWAP5 SWAP4 POP POP POP POP JUMP JUMPDEST PUSH1 0x40 DUP1 MLOAD PUSH1 0x60 DUP2 ADD DUP3 MSTORE PUSH1 0x1 PUSH1 0x1 PUSH1 0xA0 SHL SUB DUP1 DUP7 AND DUP3 MSTORE PUSH1 0x20 DUP1 DUP4 ADD DUP7 DUP2 MSTORE DUP4 DUP6 ADD DUP7 DUP2 MSTORE PUSH1 0x4 DUP1 SLOAD PUSH1 0x1 DUP2 DUP2 ADD DUP4 SSTORE PUSH0 DUP4 DUP2 MSTORE DUP9 MLOAD PUSH1 0x3 SWAP1 SWAP4 MUL PUSH32 0x8A35ACFBC15FF81A39AE7D344FD709F28E8600B4AA8C65C6B64BFE7FE36BD19B DUP2 ADD DUP1 SLOAD SWAP5 DUP11 AND PUSH1 0x1 PUSH1 0x1 PUSH1 0xA0 SHL SUB NOT SWAP6 DUP7 AND OR SWAP1 SSTORE DUP7 MLOAD PUSH32 0x8A35ACFBC15FF81A39AE7D344FD709F28E8600B4AA8C65C6B64BFE7FE36BD19C DUP3 ADD SSTORE DUP6 MLOAD PUSH32 0x8A35ACFBC15FF81A39AE7D344FD709F28E8600B4AA8C65C6B64BFE7FE36BD19D SWAP1 SWAP2 ADD SSTORE DUP12 DUP2 MSTORE PUSH1 0x2 SWAP7 DUP8 SWAP1 MSTORE SWAP9 SWAP1 SWAP9 KECCAK256 DUP8 MLOAD DUP2 SLOAD SWAP8 AND SWAP7 SWAP1 SWAP2 AND SWAP6 SWAP1 SWAP6 OR DUP6 SSTORE SWAP2 MLOAD DUP5 DUP8 ADD SSTORE MLOAD SWAP3 SWAP1 SWAP2 ADD SWAP2 SWAP1 SWAP2 SSTORE SLOAD SWAP1 SWAP2 PUSH2 0xAB7 SWAP2 PUSH2 0xDDD JUMP JUMPDEST PUSH0 SWAP4 DUP5 MSTORE PUSH1 0x3 PUSH1 0x20 MSTORE PUSH1 0x40 SWAP1 SWAP4 KECCAK256 SWAP3 SWAP1 SWAP3 SSTORE POP POP POP JUMP JUMPDEST DUP1 CALLDATALOAD PUSH1 0x1 PUSH1 0x1 PUSH1 0xA0 SHL SUB DUP2 AND DUP2 EQ PUSH2 0xAE4 JUMPI PUSH0 DUP1 REVERT JUMPDEST SWAP2 SWAP1 POP JUMP JUMPDEST PUSH0 DUP1 PUSH0 DUP1 PUSH0 PUSH1 0x80 DUP7 DUP9 SUB SLT ISZERO PUSH2 0xAFD JUMPI PUSH0 DUP1 REVERT JUMPDEST PUSH2 0xB06 DUP7 PUSH2 0xACE JUMP JUMPDEST SWAP5 POP PUSH2 0xB14 PUSH1 0x20 DUP8 ADD PUSH2 0xACE JUMP JUMPDEST SWAP4 POP PUSH1 0x40 DUP7 ADD CALLDATALOAD SWAP3 POP PUSH1 0x60 DUP7 ADD CALLDATALOAD PUSH8 0xFFFFFFFFFFFFFFFF DUP1 DUP3 GT ISZERO PUSH2 0xB37 JUMPI PUSH0 DUP1 REVERT JUMPDEST DUP2 DUP9 ADD SWAP2 POP DUP9 PUSH1 0x1F DUP4 ADD SLT PUSH2 0xB4A JUMPI PUSH0 DUP1 REVERT JUMPDEST DUP2 CALLDATALOAD DUP2 DUP2 GT ISZERO PUSH2 0xB58 JUMPI PUSH0 DUP1 REVERT JUMPDEST DUP10 PUSH1 0x20 DUP3 DUP6 ADD ADD GT ISZERO PUSH2 0xB69 JUMPI PUSH0 DUP1 REVERT JUMPDEST SWAP7 SWAP10 SWAP6 SWAP9 POP SWAP4 SWAP7 POP PUSH1 0x20 ADD SWAP5 SWAP4 SWAP3 POP POP POP JUMP JUMPDEST PUSH0 DUP1 PUSH1 0x40 DUP4 DUP6 SUB SLT ISZERO PUSH2 0xB8D JUMPI PUSH0 DUP1 REVERT JUMPDEST POP POP DUP1 CALLDATALOAD SWAP3 PUSH1 0x20 SWAP1 SWAP2 ADD CALLDATALOAD SWAP2 POP JUMP JUMPDEST PUSH0 PUSH1 0x20 DUP3 DUP5 SUB SLT ISZERO PUSH2 0xBAC JUMPI PUSH0 DUP1 REVERT JUMPDEST POP CALLDATALOAD SWAP2 SWAP1 POP JUMP JUMPDEST PUSH4 0x4E487B71 PUSH1 0xE0 SHL PUSH0 MSTORE PUSH1 0x41 PUSH1 0x4 MSTORE PUSH1 0x24 PUSH0 REVERT JUMPDEST PUSH0 DUP1 PUSH1 0x40 DUP4 DUP6 SUB SLT ISZERO PUSH2 0xBD8 JUMPI PUSH0 DUP1 REVERT JUMPDEST DUP3 CALLDATALOAD PUSH8 0xFFFFFFFFFFFFFFFF DUP1 DUP3 GT ISZERO PUSH2 0xBEF JUMPI PUSH0 DUP1 REVERT JUMPDEST DUP2 DUP6 ADD SWAP2 POP DUP6 PUSH1 0x1F DUP4 ADD SLT PUSH2 0xC02 JUMPI PUSH0 DUP1 REVERT JUMPDEST DUP2 CALLDATALOAD DUP2 DUP2 GT ISZERO PUSH2 0xC14 JUMPI PUSH2 0xC14 PUSH2 0xBB3 JUMP JUMPDEST PUSH1 0x40 MLOAD PUSH1 0x1F DUP3 ADD PUSH1 0x1F NOT SWAP1 DUP2 AND PUSH1 0x3F ADD AND DUP2 ADD SWAP1 DUP4 DUP3 GT DUP2 DUP4 LT OR ISZERO PUSH2 0xC3C JUMPI PUSH2 0xC3C PUSH2 0xBB3 JUMP JUMPDEST DUP2 PUSH1 0x40 MSTORE DUP3 DUP2 MSTORE DUP9 PUSH1 0x20 DUP5 DUP8 ADD ADD GT ISZERO PUSH2 0xC54 JUMPI PUSH0 DUP1 REVERT JUMPDEST DUP3 PUSH1 0x20 DUP7 ADD PUSH1 0x20 DUP4 ADD CALLDATACOPY PUSH0 PUSH1 0x20 SWAP4 DUP3 ADD DUP5 ADD MSTORE SWAP9 SWAP7 SWAP1 SWAP2 ADD CALLDATALOAD SWAP7 POP POP POP POP POP POP JUMP JUMPDEST PUSH0 PUSH1 0x20 DUP3 DUP5 SUB SLT ISZERO PUSH2 0xC86 JUMPI PUSH0 DUP1 REVERT JUMPDEST PUSH2 0xC8F DUP3 PUSH2 0xACE JUMP JUMPDEST SWAP4 SWAP3 POP POP POP JUMP JUMPDEST PUSH1 0x20 DUP1 DUP3 MSTORE DUP3 MLOAD DUP3 DUP3 ADD DUP2 SWAP1 MSTORE PUSH0 SWAP2 SWAP1 PUSH1 0x40 SWAP1 DUP2 DUP6 ADD SWAP1 DUP7 DUP5 ADD DUP6 JUMPDEST DUP3 DUP2 LT ISZERO PUSH2 0xCEA JUMPI DUP2 MLOAD DUP1 MLOAD PUSH1 0x1 PUSH1 0x1 PUSH1 0xA0 SHL SUB AND DUP6 MSTORE DUP7 DUP2 ADD MLOAD DUP8 DUP7 ADD MSTORE DUP6 ADD MLOAD DUP6 DUP6 ADD MSTORE PUSH1 0x60 SWAP1 SWAP4 ADD SWAP3 SWAP1 DUP6 ADD SWAP1 PUSH1 0x1 ADD PUSH2 0xCB2 JUMP JUMPDEST POP SWAP2 SWAP8 SWAP7 POP POP POP POP POP POP POP JUMP JUMPDEST PUSH1 0x20 DUP1 DUP3 MSTORE PUSH1 0x15 SWAP1 DUP3 ADD MSTORE PUSH21 0x50726F64756374206E6F7420617661696C61626C65 PUSH1 0x58 SHL PUSH1 0x40 DUP3 ADD MSTORE PUSH1 0x60 ADD SWAP1 JUMP JUMPDEST PUSH1 0x20 DUP1 DUP3 MSTORE PUSH1 0x25 SWAP1 DUP3 ADD MSTORE PUSH32 0x596F7520617265206E6F7420746865206F776E6572206F662074686973207072 PUSH1 0x40 DUP3 ADD MSTORE PUSH5 0x1BD91D58DD PUSH1 0xDA SHL PUSH1 0x60 DUP3 ADD MSTORE PUSH1 0x80 ADD SWAP1 JUMP JUMPDEST PUSH4 0x4E487B71 PUSH1 0xE0 SHL PUSH0 MSTORE PUSH1 0x11 PUSH1 0x4 MSTORE PUSH1 0x24 PUSH0 REVERT JUMPDEST DUP1 DUP3 ADD DUP1 DUP3 GT ISZERO PUSH2 0x5B9 JUMPI PUSH2 0x5B9 PUSH2 0xD6B JUMP JUMPDEST PUSH0 PUSH1 0x20 DUP3 DUP5 SUB SLT ISZERO PUSH2 0xDA2 JUMPI PUSH0 DUP1 REVERT JUMPDEST DUP2 MLOAD DUP1 ISZERO ISZERO DUP2 EQ PUSH2 0xC8F JUMPI PUSH0 DUP1 REVERT JUMPDEST PUSH4 0x4E487B71 PUSH1 0xE0 SHL PUSH0 MSTORE PUSH1 0x32 PUSH1 0x4 MSTORE PUSH1 0x24 PUSH0 REVERT JUMPDEST PUSH0 PUSH1 0x1 DUP3 ADD PUSH2 0xDD6 JUMPI PUSH2 0xDD6 PUSH2 0xD6B JUMP JUMPDEST POP PUSH1 0x1 ADD SWAP1 JUMP JUMPDEST DUP2 DUP2 SUB DUP2 DUP2 GT ISZERO PUSH2 0x5B9 JUMPI PUSH2 0x5B9 PUSH2 0xD6B JUMP INVALID LOG2 PUSH5 0x6970667358 0x22 SLT KECCAK256 0x22 0x25 PUSH2 0x223E LOG3 PUSH10 0x8B49B4D1EE723DF69E10 DUP4 PUSH16 0xCF51C0E9B27C8F12F70954981864736F PUSH13 0x63430008160033000000000000 "
				},
				"gasEstimates": {
					"creation": {
						"codeDepositCost": "724400",
						"executionCost": "infinite",
						"totalCost": "infinite"
					},
					"external": {
						"CancelOrder(uint256)": "45144",
						"ChangePrice(uint256,uint256)": "76822",
						"buy(uint256)": "infinite",
						"erc20()": "2359",
						"erc721()": "2357",
						"getMyNFT(address)": "infinite",
						"idToOrderIndex(uint256)": "2501",
						"onERC721Received(address,address,uint256,bytes)": "infinite",
						"orderofId(uint256)": "6868",
						"orders(uint256)": "8986",
						"toUint256(bytes,uint256)": "infinite"
					},
					"internal": {
						"placeOrder(address,uint256,uint256)": "infinite"
					}
				},
				"methodIdentifiers": {
					"CancelOrder(uint256)": "935c9ad2",
					"ChangePrice(uint256,uint256)": "7a23754e",
					"buy(uint256)": "d96a094a",
					"erc20()": "785e9e86",
					"erc721()": "bca6ce64",
					"getMyNFT(address)": "e1bd88c2",
					"idToOrderIndex(uint256)": "da694df0",
					"onERC721Received(address,address,uint256,bytes)": "150b7a02",
					"orderofId(uint256)": "ee339945",
					"orders(uint256)": "a85c38ef",
					"toUint256(bytes,uint256)": "b5cdf924"
				}
			},
			"storageLayout": {
				"storage": [
					{
						"astId": 246,
						"contract": "day6/Market.sol:Market",
						"label": "erc721",
						"offset": 0,
						"slot": "0",
						"type": "t_contract(IERC721)206"
					},
					{
						"astId": 249,
						"contract": "day6/Market.sol:Market",
						"label": "erc20",
						"offset": 0,
						"slot": "1",
						"type": "t_contract(IERC20)89"
					},
					{
						"astId": 254,
						"contract": "day6/Market.sol:Market",
						"label": "orderofId",
						"offset": 0,
						"slot": "2",
						"type": "t_mapping(t_uint256,t_struct(Order)269_storage)"
					},
					{
						"astId": 258,
						"contract": "day6/Market.sol:Market",
						"label": "idToOrderIndex",
						"offset": 0,
						"slot": "3",
						"type": "t_mapping(t_uint256,t_uint256)"
					},
					{
						"astId": 262,
						"contract": "day6/Market.sol:Market",
						"label": "orders",
						"offset": 0,
						"slot": "4",
						"type": "t_array(t_struct(Order)269_storage)dyn_storage"
					}
				],
				"types": {
					"t_address": {
						"encoding": "inplace",
						"label": "address",
						"numberOfBytes": "20"
					},
					"t_array(t_struct(Order)269_storage)dyn_storage": {
						"base": "t_struct(Order)269_storage",
						"encoding": "dynamic_array",
						"label": "struct Market.Order[]",
						"numberOfBytes": "32"
					},
					"t_contract(IERC20)89": {
						"encoding": "inplace",
						"label": "contract IERC20",
						"numberOfBytes": "20"
					},
					"t_contract(IERC721)206": {
						"encoding": "inplace",
						"label": "contract IERC721",
						"numberOfBytes": "20"
					},
					"t_mapping(t_uint256,t_struct(Order)269_storage)": {
						"encoding": "mapping",
						"key": "t_uint256",
						"label": "mapping(uint256 => struct Market.Order)",
						"numberOfBytes": "32",
						"value": "t_struct(Order)269_storage"
					},
					"t_mapping(t_uint256,t_uint256)": {
						"encoding": "mapping",
						"key": "t_uint256",
						"label": "mapping(uint256 => uint256)",
						"numberOfBytes": "32",
						"value": "t_uint256"
					},
					"t_struct(Order)269_storage": {
						"encoding": "inplace",
						"label": "struct Market.Order",
						"members": [
							{
								"astId": 264,
								"contract": "day6/Market.sol:Market",
								"label": "seller",
								"offset": 0,
								"slot": "0",
								"type": "t_address"
							},
							{
								"astId": 266,
								"contract": "day6/Market.sol:Market",
								"label": "id",
								"offset": 0,
								"slot": "1",
								"type": "t_uint256"
							},
							{
								"astId": 268,
								"contract": "day6/Market.sol:Market",
								"label": "price",
								"offset": 0,
								"slot": "2",
								"type": "t_uint256"
							}
						],
						"numberOfBytes": "96"
					},
					"t_uint256": {
						"encoding": "inplace",
						"label": "uint256",
						"numberOfBytes": "32"
					}
				}
			},
			"userdoc": {
				"kind": "user",
				"methods": {},
				"version": 1
			}
		}
	}
}